{
  "_format": "hh-sol-artifact-1",
  "contractName": "LoserPredictionPool_Old",
  "sourceName": "contracts/LoserPredictionPool_Old.sol",
  "abi": [
    {
      "anonymous": false,
      "inputs": [
        {
          "indexed": false,
          "internalType": "address",
          "name": "previousAdmin",
          "type": "address"
        },
        {
          "indexed": false,
          "internalType": "address",
          "name": "newAdmin",
          "type": "address"
        }
      ],
      "name": "AdminChanged",
      "type": "event"
    },
    {
      "anonymous": false,
      "inputs": [
        {
          "indexed": true,
          "internalType": "address",
          "name": "beacon",
          "type": "address"
        }
      ],
      "name": "BeaconUpgraded",
      "type": "event"
    },
    {
      "anonymous": false,
      "inputs": [
        {
          "indexed": true,
          "internalType": "address",
          "name": "user",
          "type": "address"
        },
        {
          "indexed": true,
          "internalType": "uint256",
          "name": "pid",
          "type": "uint256"
        },
        {
          "indexed": false,
          "internalType": "uint256",
          "name": "amount",
          "type": "uint256"
        }
      ],
      "name": "Deposit",
      "type": "event"
    },
    {
      "anonymous": false,
      "inputs": [
        {
          "indexed": true,
          "internalType": "address",
          "name": "user",
          "type": "address"
        },
        {
          "indexed": true,
          "internalType": "uint256",
          "name": "pid",
          "type": "uint256"
        },
        {
          "indexed": false,
          "internalType": "uint256",
          "name": "amount",
          "type": "uint256"
        }
      ],
      "name": "EmergencyWithdraw",
      "type": "event"
    },
    {
      "anonymous": false,
      "inputs": [
        {
          "indexed": false,
          "internalType": "address",
          "name": "operator",
          "type": "address"
        }
      ],
      "name": "NewOperatorAddress",
      "type": "event"
    },
    {
      "anonymous": false,
      "inputs": [
        {
          "indexed": true,
          "internalType": "address",
          "name": "previousOwner",
          "type": "address"
        },
        {
          "indexed": true,
          "internalType": "address",
          "name": "newOwner",
          "type": "address"
        }
      ],
      "name": "OwnershipTransferred",
      "type": "event"
    },
    {
      "anonymous": false,
      "inputs": [
        {
          "indexed": false,
          "internalType": "address",
          "name": "account",
          "type": "address"
        }
      ],
      "name": "Paused",
      "type": "event"
    },
    {
      "anonymous": false,
      "inputs": [
        {
          "indexed": false,
          "internalType": "address",
          "name": "account",
          "type": "address"
        }
      ],
      "name": "Unpaused",
      "type": "event"
    },
    {
      "anonymous": false,
      "inputs": [
        {
          "indexed": true,
          "internalType": "address",
          "name": "implementation",
          "type": "address"
        }
      ],
      "name": "Upgraded",
      "type": "event"
    },
    {
      "anonymous": false,
      "inputs": [
        {
          "indexed": true,
          "internalType": "address",
          "name": "user",
          "type": "address"
        },
        {
          "indexed": true,
          "internalType": "uint256",
          "name": "pid",
          "type": "uint256"
        },
        {
          "indexed": false,
          "internalType": "uint256",
          "name": "amount",
          "type": "uint256"
        }
      ],
      "name": "Withdraw",
      "type": "event"
    },
    {
      "inputs": [],
      "name": "BONUS_MULTIPLIER",
      "outputs": [
        {
          "internalType": "uint256",
          "name": "",
          "type": "uint256"
        }
      ],
      "stateMutability": "view",
      "type": "function"
    },
    {
      "inputs": [
        {
          "internalType": "uint256",
          "name": "_epoch",
          "type": "uint256"
        }
      ],
      "name": "add",
      "outputs": [],
      "stateMutability": "nonpayable",
      "type": "function"
    },
    {
      "inputs": [],
      "name": "allocPoint",
      "outputs": [
        {
          "internalType": "uint256",
          "name": "",
          "type": "uint256"
        }
      ],
      "stateMutability": "view",
      "type": "function"
    },
    {
      "inputs": [],
      "name": "bnbPerBlock",
      "outputs": [
        {
          "internalType": "uint256",
          "name": "",
          "type": "uint256"
        }
      ],
      "stateMutability": "view",
      "type": "function"
    },
    {
      "inputs": [
        {
          "internalType": "uint256",
          "name": "_pid",
          "type": "uint256"
        },
        {
          "internalType": "uint256",
          "name": "_amount",
          "type": "uint256"
        }
      ],
      "name": "deposit",
      "outputs": [],
      "stateMutability": "nonpayable",
      "type": "function"
    },
    {
      "inputs": [
        {
          "internalType": "uint256",
          "name": "_pid",
          "type": "uint256"
        }
      ],
      "name": "emergencyWithdraw",
      "outputs": [],
      "stateMutability": "nonpayable",
      "type": "function"
    },
    {
      "inputs": [
        {
          "internalType": "uint256",
          "name": "_from",
          "type": "uint256"
        },
        {
          "internalType": "uint256",
          "name": "_to",
          "type": "uint256"
        }
      ],
      "name": "getMultiplier",
      "outputs": [
        {
          "internalType": "uint256",
          "name": "",
          "type": "uint256"
        }
      ],
      "stateMutability": "view",
      "type": "function"
    },
    {
      "inputs": [],
      "name": "getPoolLength",
      "outputs": [
        {
          "internalType": "uint256",
          "name": "",
          "type": "uint256"
        }
      ],
      "stateMutability": "view",
      "type": "function"
    },
    {
      "inputs": [
        {
          "internalType": "address",
          "name": "_operator",
          "type": "address"
        },
        {
          "internalType": "contract IBEP20",
          "name": "_pred",
          "type": "address"
        },
        {
          "internalType": "uint256",
          "name": "_bnbPerBlock",
          "type": "uint256"
        },
        {
          "internalType": "uint256",
          "name": "_startBlock",
          "type": "uint256"
        },
        {
          "internalType": "uint256",
          "name": "_maxPredDeposit",
          "type": "uint256"
        },
        {
          "internalType": "contract PredictionWallet",
          "name": "_wallet",
          "type": "address"
        },
        {
          "internalType": "contract IPrediction",
          "name": "_prediction",
          "type": "address"
        }
      ],
      "name": "initialize",
      "outputs": [],
      "stateMutability": "nonpayable",
      "type": "function"
    },
    {
      "inputs": [
        {
          "internalType": "address",
          "name": "preder",
          "type": "address"
        },
        {
          "internalType": "uint256",
          "name": "round",
          "type": "uint256"
        }
      ],
      "name": "lostRound",
      "outputs": [
        {
          "internalType": "bool",
          "name": "",
          "type": "bool"
        }
      ],
      "stateMutability": "view",
      "type": "function"
    },
    {
      "inputs": [],
      "name": "maxPredDeposit",
      "outputs": [
        {
          "internalType": "uint256",
          "name": "",
          "type": "uint256"
        }
      ],
      "stateMutability": "view",
      "type": "function"
    },
    {
      "inputs": [],
      "name": "operatorAddress",
      "outputs": [
        {
          "internalType": "address",
          "name": "",
          "type": "address"
        }
      ],
      "stateMutability": "view",
      "type": "function"
    },
    {
      "inputs": [],
      "name": "owner",
      "outputs": [
        {
          "internalType": "address",
          "name": "",
          "type": "address"
        }
      ],
      "stateMutability": "view",
      "type": "function"
    },
    {
      "inputs": [],
      "name": "pause",
      "outputs": [],
      "stateMutability": "nonpayable",
      "type": "function"
    },
    {
      "inputs": [],
      "name": "paused",
      "outputs": [
        {
          "internalType": "bool",
          "name": "",
          "type": "bool"
        }
      ],
      "stateMutability": "view",
      "type": "function"
    },
    {
      "inputs": [
        {
          "internalType": "uint256",
          "name": "_pid",
          "type": "uint256"
        },
        {
          "internalType": "address",
          "name": "_user",
          "type": "address"
        }
      ],
      "name": "pendingBNB",
      "outputs": [
        {
          "internalType": "uint256",
          "name": "",
          "type": "uint256"
        }
      ],
      "stateMutability": "view",
      "type": "function"
    },
    {
      "inputs": [
        {
          "internalType": "uint256",
          "name": "",
          "type": "uint256"
        }
      ],
      "name": "poolInfo",
      "outputs": [
        {
          "internalType": "uint256",
          "name": "allocPoint",
          "type": "uint256"
        },
        {
          "internalType": "uint256",
          "name": "lastRewardBlock",
          "type": "uint256"
        },
        {
          "internalType": "uint256",
          "name": "accBNBPerShare",
          "type": "uint256"
        },
        {
          "internalType": "uint256",
          "name": "epoch",
          "type": "uint256"
        },
        {
          "internalType": "uint256",
          "name": "amount",
          "type": "uint256"
        }
      ],
      "stateMutability": "view",
      "type": "function"
    },
    {
      "inputs": [],
      "name": "poolLength",
      "outputs": [
        {
          "internalType": "uint256",
          "name": "",
          "type": "uint256"
        }
      ],
      "stateMutability": "view",
      "type": "function"
    },
    {
      "inputs": [],
      "name": "pred",
      "outputs": [
        {
          "internalType": "contract IBEP20",
          "name": "",
          "type": "address"
        }
      ],
      "stateMutability": "view",
      "type": "function"
    },
    {
      "inputs": [],
      "name": "prediction",
      "outputs": [
        {
          "internalType": "contract IPrediction",
          "name": "",
          "type": "address"
        }
      ],
      "stateMutability": "view",
      "type": "function"
    },
    {
      "inputs": [],
      "name": "renounceOwnership",
      "outputs": [],
      "stateMutability": "nonpayable",
      "type": "function"
    },
    {
      "inputs": [
        {
          "internalType": "uint256",
          "name": "_allocPoint",
          "type": "uint256"
        }
      ],
      "name": "setAllocPoint",
      "outputs": [],
      "stateMutability": "nonpayable",
      "type": "function"
    },
    {
      "inputs": [
        {
          "internalType": "uint256",
          "name": "_maxPredDeposit",
          "type": "uint256"
        }
      ],
      "name": "setMaxPredDeposit",
      "outputs": [],
      "stateMutability": "nonpayable",
      "type": "function"
    },
    {
      "inputs": [
        {
          "internalType": "address",
          "name": "_operatorAddress",
          "type": "address"
        }
      ],
      "name": "setOperator",
      "outputs": [],
      "stateMutability": "nonpayable",
      "type": "function"
    },
    {
      "inputs": [
        {
          "internalType": "uint256",
          "name": "_allocPoint",
          "type": "uint256"
        }
      ],
      "name": "setPoolAllocPoint",
      "outputs": [],
      "stateMutability": "nonpayable",
      "type": "function"
    },
    {
      "inputs": [],
      "name": "startBlock",
      "outputs": [
        {
          "internalType": "uint256",
          "name": "",
          "type": "uint256"
        }
      ],
      "stateMutability": "view",
      "type": "function"
    },
    {
      "inputs": [],
      "name": "totalRewardDebt",
      "outputs": [
        {
          "internalType": "uint256",
          "name": "",
          "type": "uint256"
        }
      ],
      "stateMutability": "view",
      "type": "function"
    },
    {
      "inputs": [
        {
          "internalType": "address",
          "name": "newOwner",
          "type": "address"
        }
      ],
      "name": "transferOwnership",
      "outputs": [],
      "stateMutability": "nonpayable",
      "type": "function"
    },
    {
      "inputs": [],
      "name": "unpause",
      "outputs": [],
      "stateMutability": "nonpayable",
      "type": "function"
    },
    {
      "inputs": [
        {
          "internalType": "uint256",
          "name": "multiplierNumber",
          "type": "uint256"
        }
      ],
      "name": "updateMultiplier",
      "outputs": [],
      "stateMutability": "nonpayable",
      "type": "function"
    },
    {
      "inputs": [
        {
          "internalType": "uint256",
          "name": "_pid",
          "type": "uint256"
        }
      ],
      "name": "updatePool",
      "outputs": [],
      "stateMutability": "nonpayable",
      "type": "function"
    },
    {
      "inputs": [
        {
          "internalType": "address",
          "name": "newImplementation",
          "type": "address"
        }
      ],
      "name": "upgradeTo",
      "outputs": [],
      "stateMutability": "nonpayable",
      "type": "function"
    },
    {
      "inputs": [
        {
          "internalType": "address",
          "name": "newImplementation",
          "type": "address"
        },
        {
          "internalType": "bytes",
          "name": "data",
          "type": "bytes"
        }
      ],
      "name": "upgradeToAndCall",
      "outputs": [],
      "stateMutability": "payable",
      "type": "function"
    },
    {
      "inputs": [
        {
          "internalType": "uint256",
          "name": "",
          "type": "uint256"
        },
        {
          "internalType": "address",
          "name": "",
          "type": "address"
        }
      ],
      "name": "userInfo",
      "outputs": [
        {
          "internalType": "uint256",
          "name": "amount",
          "type": "uint256"
        },
        {
          "internalType": "uint256",
          "name": "rewardDebt",
          "type": "uint256"
        }
      ],
      "stateMutability": "view",
      "type": "function"
    },
    {
      "inputs": [],
      "name": "wallet",
      "outputs": [
        {
          "internalType": "contract PredictionWallet",
          "name": "",
          "type": "address"
        }
      ],
      "stateMutability": "view",
      "type": "function"
    },
    {
      "inputs": [
        {
          "internalType": "uint256",
          "name": "_pid",
          "type": "uint256"
        },
        {
          "internalType": "uint256",
          "name": "_amount",
          "type": "uint256"
        }
      ],
      "name": "withdraw",
      "outputs": [],
      "stateMutability": "nonpayable",
      "type": "function"
    },
    {
      "inputs": [
        {
          "internalType": "address",
          "name": "preder",
          "type": "address"
        },
        {
          "internalType": "uint256",
          "name": "round",
          "type": "uint256"
        }
      ],
      "name": "wonRound",
      "outputs": [
        {
          "internalType": "bool",
          "name": "",
          "type": "bool"
        }
      ],
      "stateMutability": "view",
      "type": "function"
    }
  ],
  "bytecode": "0x608060405234801561001057600080fd5b50612c14806100206000396000f3fe6080604052600436106101ea5760003560e01c80635ffe614611610113578063ae5241a0116100ab578063d3dd7eb71161006f578063d3dd7eb7146105e2578063e0747c96146105f9578063e2bbb15814610619578063e5c9ad2e14610639578063f2fde38b14610659576101ea565b8063ae5241a01461056a578063b3944d5214610211578063b3ab15fb14610581578063b7a3c110146105a1578063c26780b0146105c1576101ea565b80635ffe61461461044957806363a1fce214610469578063715018a61461048957806383bb38771461049e5780638456cb59146104b55780638aa28550146104ca5780638da5cb5b146104e05780638dbb1e3a146104f557806393f1a40b14610515576101ea565b80633f4ba83a116101865780633f4ba83a1461035c578063441a3e701461037157806348cd4cb1146103915780634f1ef286146103a857806350b48710146103bb57806351eb05a6146103d1578063521eb273146103f15780635312ea8e146104115780635c975abb14610431576101ea565b80630729da0b146101ef578063081e3eda146102115780631003e2d214610236578063127effb2146102565780631521604e146102845780631526fe27146102b45780631c8d04e2146102fc5780632372c9161461031c5780633659cfe61461033c575b600080fd5b3480156101fb57600080fd5b5061020f61020a3660046126ae565b610679565b005b34801561021d57600080fd5b50610101545b6040519081526020015b60405180910390f35b34801561024257600080fd5b5061020f61025136600461276d565b61076f565b34801561026257600080fd5b5061010654610277906001600160a01b031681565b60405161022d919061294e565b34801561029057600080fd5b506102a461029f366004612728565b610ae1565b604051901515815260200161022d565b3480156102c057600080fd5b506102d46102cf36600461276d565b610b6b565b604080519586526020860194909452928401919091526060830152608082015260a00161022d565b34801561030857600080fd5b506102a4610317366004612728565b610bad565b34801561032857600080fd5b5060fc54610277906001600160a01b031681565b34801561034857600080fd5b5061020f6103573660046125f1565b610be0565b34801561036857600080fd5b5061020f610c07565b34801561037d57600080fd5b5061020f61038c3660046127cc565b610c40565b34801561039d57600080fd5b506102236101045481565b61020f6103b636600461260d565b610e6c565b3480156103c757600080fd5b5061022360fd5481565b3480156103dd57600080fd5b5061020f6103ec36600461276d565b610e85565b3480156103fd57600080fd5b5060ff54610277906001600160a01b031681565b34801561041d57600080fd5b5061020f61042c36600461276d565b611008565b34801561043d57600080fd5b5060335460ff166102a4565b34801561045557600080fd5b5061020f61046436600461276d565b61111b565b34801561047557600080fd5b5061022361048436600461279d565b61114f565b34801561049557600080fd5b5061020f6112ff565b3480156104aa57600080fd5b506102236101055481565b3480156104c157600080fd5b5061020f611338565b3480156104d657600080fd5b5061022360fe5481565b3480156104ec57600080fd5b5061027761136f565b34801561050157600080fd5b506102236105103660046127cc565b61137e565b34801561052157600080fd5b5061055561053036600461279d565b6101026020908152600092835260408084209091529082529020805460019091015482565b6040805192835260208301919091520161022d565b34801561057657600080fd5b506102236101005481565b34801561058d57600080fd5b5061020f61059c3660046125f1565b611398565b3480156105ad57600080fd5b5061020f6105bc36600461276d565b61146d565b3480156105cd57600080fd5b5061020f6105dc36600461276d565b61010055565b3480156105ee57600080fd5b506102236101035481565b34801561060557600080fd5b5061020f61061436600461276d565b6114f2565b34801561062557600080fd5b5061020f6106343660046127cc565b611527565b34801561064557600080fd5b5060fb54610277906001600160a01b031681565b34801561066557600080fd5b5061020f6106743660046125f1565b611977565b600054610100900460ff1680610692575060005460ff16155b6106b75760405162461bcd60e51b81526004016106ae90612a06565b60405180910390fd5b600054610100900460ff161580156106e2576000805460ff1961ff0019909116610100171660011790555b6106ea611a14565b61010680546001600160a01b03808b166001600160a01b03199283161790925560fb80548a841690831617905560fd88905561010487905560ff805486841690831617905560fc805492851692909116919091179055610100849055620f424060fe5560c8610103558015610765576000805461ff00191690555b5050505050505050565b60fc5460405163023c4c9f60e61b8152600481018390526000916001600160a01b031690638f1327c09060240160006040518083038186803b1580156107b457600080fd5b505afa1580156107c8573d6000803e3d6000fd5b505050506040513d6000823e601f3d908101601f191682016040526107f091908101906127ed565b5050505050509450505050508061085a5760405162461bcd60e51b815260206004820152602860248201527f526f756e6420776173206e6f74207375636365737366756c206f72206e6f7420604482015267636f6d706c65746560c01b60648201526084016106ae565b60fc5460408051630ecce30160e31b815290516000926001600160a01b031691637667180891600480830192602092919082900301818787803b1580156108a057600080fd5b505af11580156108b4573d6000803e3d6000fd5b505050506040513d601f19601f820116820180604052508101906108d89190612785565b90508281146109c85760fc5460405163023c4c9f60e61b8152600481018390526000916001600160a01b031690638f1327c09060240160006040518083038186803b15801561092657600080fd5b505afa15801561093a573d6000803e3d6000fd5b505050506040513d6000823e601f3d908101601f1916820160405261096291908101906127ed565b50505050505094505050505080156109c65760405162461bcd60e51b815260206004820152602160248201527f43757272656e7420526f756e6420697320616c726561647920636f6d706c65746044820152606560f81b60648201526084016106ae565b505b6101015415610acf57610101546000906109e490600190612b33565b9050836101018281548110610a0957634e487b7160e01b600052603260045260246000fd5b90600052602060002090600502016003015410610a805760405162461bcd60e51b815260206004820152602f60248201527f4e65772065706f63682063616e6e6f74206265206c657373206f72206571756160448201526e0d840e8de40e0c2e6e840cae0dec6d608b1b60648201526084016106ae565b610a8981610e85565b610101805460009190610a9e90600190612b33565b81548110610abc57634e487b7160e01b600052603260045260246000fd5b6000918252602090912060059091020155505b610adc6101035484611a98565b505050565b60fc54604051630a90b02760e11b81526000916001600160a01b031690631521604e90610b149086908690600401612962565b60206040518083038186803b158015610b2c57600080fd5b505afa158015610b40573d6000803e3d6000fd5b505050506040513d601f19601f82011682018060405250810190610b649190612753565b9392505050565b6101018181548110610b7c57600080fd5b6000918252602090912060059091020180546001820154600283015460038401546004909401549294509092909185565b60fc54604051630e46827160e11b81526000916001600160a01b031690631c8d04e290610b149086908690600401612962565b610be981611bf8565b610c0481604051806020016040528060008152506000611c27565b50565b33610c1061136f565b6001600160a01b031614610c365760405162461bcd60e51b81526004016106ae90612a54565b610c3e611d6e565b565b60335460ff1615610c635760405162461bcd60e51b81526004016106ae906129dc565b60006101018381548110610c8757634e487b7160e01b600052603260045260246000fd5b60009182526020808320868452610102825260408085203386529092529220805460059092029092019250831115610cf65760405162461bcd60e51b81526020600482015260126024820152711dda5d1a191c985dce881b9bdd0819dbdbd960721b60448201526064016106ae565b610cff84610e85565b6000610d408260010154610d3a68327cb2734119d3b7a9601e1b610d3487600201548760000154611dd490919063ffffffff16565b90611de0565b90611dec565b90508015610d5257610d523382611df8565b8315610d91578154610d649085611dec565b82556004830154610d759085611dec565b600484015560fb54610d91906001600160a01b03163386611e90565b60028301548254610db39168327cb2734119d3b7a9601e1b91610d3491611dd4565b8260010181905550826101018681548110610dde57634e487b7160e01b600052603260045260246000fd5b9060005260206000209060050201600082015481600001556001820154816001015560028201548160020155600382015481600301556004820154816004015590505084336001600160a01b03167ff279e6a1f5e320cca91135676d9cb6e44ca8a08c0b88342bcdb1144f6511b56886604051610e5d91815260200190565b60405180910390a35050505050565b610e7582611bf8565b610e8182826001611c27565b5050565b60006101018281548110610ea957634e487b7160e01b600052603260045260246000fd5b9060005260206000209060050201905080600101544311610eca5750610c04565b60fb546040516370a0823160e01b81526000916001600160a01b0316906370a0823190610efb90309060040161294e565b60206040518083038186803b158015610f1357600080fd5b505afa158015610f27573d6000803e3d6000fd5b505050506040513d601f19601f82011682018060405250810190610f4b9190612785565b905080610f5f575043600190910155610c04565b6000610f6f83600101544361137e565b90506000610f8860fd5483611dd490919063ffffffff16565b6101055460ff54919250600091610fab916001600160a01b039091163190611dec565b9050808210610fb8578091505b610fe0610fd585610d348568327cb2734119d3b7a9601e1b611dd4565b600287015490611ee6565b600286015561010554610ff39083611ee6565b61010555505043600190930192909255505050565b60335460ff1661102a5760405162461bcd60e51b81526004016106ae906129ae565b6000610101828154811061104e57634e487b7160e01b600052603260045260246000fd5b600091825260208083208584526101028252604080852033865290925290832080548482556001820185905560026005909402909201928301549294509290916110b1908290610d3a9068327cb2734119d3b7a9601e1b90610d34908790611dd4565b90506101055481116110d057610105546110cb9082611dec565b610105555b60fb546110e7906001600160a01b03163384611e90565b604051828152859033907fbb757047c2b5f3974fe26b7c10f732e7bce710b0952a71082702781e62ae059590602001610e5d565b3361112461136f565b6001600160a01b03161461114a5760405162461bcd60e51b81526004016106ae90612a54565b60fe55565b600080610101848154811061117457634e487b7160e01b600052603260045260246000fd5b60009182526020808320878452610102825260408085206001600160a01b03808a1687529352808520600260059095029092019384015460fb5491516370a0823160e01b815294965091949193919216906370a08231906111d990309060040161294e565b60206040518083038186803b1580156111f157600080fd5b505afa158015611205573d6000803e3d6000fd5b505050506040513d601f19601f820116820180604052508101906112299190612785565b905083600101544311801561123d57508015155b156112c557600061125285600101544361137e565b9050600061126b60fd5483611dd490919063ffffffff16565b6101055460ff5491925060009161128e916001600160a01b039091163190611dec565b905080821061129b578091505b6112bf6112b885610d348568327cb2734119d3b7a9601e1b611dd4565b8690611ee6565b94505050505b6112f48360010154610d3a68327cb2734119d3b7a9601e1b610d34868860000154611dd490919063ffffffff16565b979650505050505050565b3361130861136f565b6001600160a01b03161461132e5760405162461bcd60e51b81526004016106ae90612a54565b610c3e6000611ef2565b3361134161136f565b6001600160a01b0316146113675760405162461bcd60e51b81526004016106ae90612a54565b610c3e611f44565b60c9546001600160a01b031690565b60fe54600090610b64906113928486611dec565b90611dd4565b336113a161136f565b6001600160a01b0316146113c75760405162461bcd60e51b81526004016106ae90612a54565b6001600160a01b0381166114165760405162461bcd60e51b815260206004820152601660248201527543616e6e6f74206265207a65726f206164647265737360501b60448201526064016106ae565b61010680546001600160a01b0319166001600160a01b0383161790556040517fc47d127c07bdd56c5ccba00463ce3bd3c1bca71b4670eea6e5d0c02e4aa156e29061146290839061294e565b60405180910390a150565b3361147661136f565b6001600160a01b03161461149c5760405162461bcd60e51b81526004016106ae90612a54565b610101546000906114af90600190612b33565b90506114ba81610e85565b8161010182815481106114dd57634e487b7160e01b600052603260045260246000fd5b60009182526020909120600590910201555050565b336114fb61136f565b6001600160a01b0316146115215760405162461bcd60e51b81526004016106ae90612a54565b61010355565b60335460ff161561154a5760405162461bcd60e51b81526004016106ae906129dc565b61155382610e85565b6000610101838154811061157757634e487b7160e01b600052603260045260246000fd5b6000918252602090912060fc546005909202016003810154604051630e46827160e11b81529193506001600160a01b0390921691631c8d04e2916115bf913391600401612962565b60206040518083038186803b1580156115d757600080fd5b505afa1580156115eb573d6000803e3d6000fd5b505050506040513d601f19601f8201168201806040525081019061160f9190612753565b6116665760405162461bcd60e51b815260206004820152602260248201527f446964206e6f74206c6f736520746869732050726564696374696f6e20726f756044820152611b9960f21b60648201526084016106ae565b60008381526101026020908152604080832033845290915290208054156116d05760006116bc8260010154610d3a68327cb2734119d3b7a9601e1b610d3487600201548760000154611dd490919063ffffffff16565b905080156116ce576116ce3382611df8565b505b821561189d5760fb546040516370a0823160e01b81526000916001600160a01b0316906370a082319061170790309060040161294e565b60206040518083038186803b15801561171f57600080fd5b505afa158015611733573d6000803e3d6000fd5b505050506040513d601f19601f820116820180604052508101906117579190612785565b60fb54909150611772906001600160a01b0316333087611f9c565b60fb546040516370a0823160e01b8152611802916117fa9184916001600160a01b0316906370a08231906117aa90309060040161294e565b60206040518083038186803b1580156117c257600080fd5b505afa1580156117d6573d6000803e3d6000fd5b505050506040513d601f19601f82011682018060405250810190610d3a9190612785565b835490611ee6565b825560fb546040516370a0823160e01b81526118479161183c9184916001600160a01b0316906370a08231906117aa90309060040161294e565b600485015490611ee6565b6004840155610100548254111561189b5760405162461bcd60e51b815260206004820152601860248201527713585e08141491510811195c1bdcda5d0814995858da195960421b60448201526064016106ae565b505b600282015481546118bf9168327cb2734119d3b7a9601e1b91610d3491611dd4565b81600101819055508161010185815481106118ea57634e487b7160e01b600052603260045260246000fd5b9060005260206000209060050201600082015481600001556001820154816001015560028201548160020155600382015481600301556004820154816004015590505083336001600160a01b03167f90890809c654f11d6e72a28fa60149770a0d11ec6c92319d6ceb2bb0a4ea1a158560405161196991815260200190565b60405180910390a350505050565b3361198061136f565b6001600160a01b0316146119a65760405162461bcd60e51b81526004016106ae90612a54565b6001600160a01b038116611a0b5760405162461bcd60e51b815260206004820152602660248201527f4f776e61626c653a206e6577206f776e657220697320746865207a65726f206160448201526564647265737360d01b60648201526084016106ae565b610c0481611ef2565b600054610100900460ff1680611a2d575060005460ff16155b611a495760405162461bcd60e51b81526004016106ae90612a06565b600054610100900460ff16158015611a74576000805460ff1961ff0019909116610100171660011790555b611a7c611fda565b611a8461204d565b8015610c04576000805461ff001916905550565b610106546001600160a01b03163314611ae25760405162461bcd60e51b815260206004820152600c60248201526b2737ba1037b832b930ba37b960a11b60448201526064016106ae565b6000610104544311611af75761010454611af9565b435b6040805160a08101825294855260208501918252600090850181815260608601948552608086018281526101018054600181018255935295517f109ea3cebb188b9c1b9fc5bb3920be60dfdc8699098dff92f3d80daaca74768960059093029283015591517f109ea3cebb188b9c1b9fc5bb3920be60dfdc8699098dff92f3d80daaca74768a82015590517f109ea3cebb188b9c1b9fc5bb3920be60dfdc8699098dff92f3d80daaca74768b82015591517f109ea3cebb188b9c1b9fc5bb3920be60dfdc8699098dff92f3d80daaca74768c8301555090517f109ea3cebb188b9c1b9fc5bb3920be60dfdc8699098dff92f3d80daaca74768d90910155565b33611c0161136f565b6001600160a01b031614610c045760405162461bcd60e51b81526004016106ae90612a54565b6000611c316120b6565b9050611c3c846120e4565b600083511180611c495750815b15611c5a57611c588484612190565b505b7f4910fdfa16fed3260ed0e7147f7cc6da11a60208b5b9406d12a635614ffd9143805460ff16611d6757805460ff19166001178155604051611cd5908690611ca690859060240161294e565b60408051601f198184030181529190526020810180516001600160e01b0316631b2ce7f360e11b179052612190565b50805460ff19168155611ce66120b6565b6001600160a01b0316826001600160a01b031614611d5e5760405162461bcd60e51b815260206004820152602f60248201527f45524331393637557067726164653a207570677261646520627265616b73206660448201526e75727468657220757067726164657360881b60648201526084016106ae565b611d6785612282565b5050505050565b60335460ff16611d905760405162461bcd60e51b81526004016106ae906129ae565b6033805460ff191690557f5db9ee0a495bf2e6ff9c91a7834c1ba4fdd244a5e8aa4e537bd38aeae4b073aa335b604051611dca919061294e565b60405180910390a1565b6000610b648284612b14565b6000610b648284612af4565b6000610b648284612b33565b60ff54604051635944b01760e01b8152611e88916001600160a01b031690635944b01790611e2c9086908690600401612962565b602060405180830381600087803b158015611e4657600080fd5b505af1158015611e5a573d6000803e3d6000fd5b505050506040513d601f19601f82011682018060405250810190611e7e9190612785565b6101055490611dec565b610105555050565b610adc8363a9059cbb60e01b8484604051602401611eaf929190612962565b60408051601f198184030181529190526020810180516001600160e01b03166001600160e01b0319909316929092179091526122c2565b6000610b648284612adc565b60c980546001600160a01b038381166001600160a01b0319831681179093556040519116919082907f8be0079c531659141344cd1fd0a4f28419497f9722a3daafe3b4186f6b6457e090600090a35050565b60335460ff1615611f675760405162461bcd60e51b81526004016106ae906129dc565b6033805460ff191660011790557f62e78cea01bee320cd4e420270b5ea74000d11b0c9f74754ebdbfc544b05a258611dbd3390565b6040516001600160a01b0380851660248301528316604482015260648101829052611fd49085906323b872dd60e01b90608401611eaf565b50505050565b600054610100900460ff1680611ff3575060005460ff16155b61200f5760405162461bcd60e51b81526004016106ae90612a06565b600054610100900460ff16158015611a84576000805460ff1961ff0019909116610100171660011790558015610c04576000805461ff001916905550565b600054610100900460ff1680612066575060005460ff16155b6120825760405162461bcd60e51b81526004016106ae90612a06565b600054610100900460ff161580156120ad576000805460ff1961ff0019909116610100171660011790555b611a8433611ef2565b7f360894a13ba1a3210667c828492db98dca3e2076cc3735a920a3ca505d382bbc546001600160a01b031690565b6120ed81612394565b61214f5760405162461bcd60e51b815260206004820152602d60248201527f455243313936373a206e657720696d706c656d656e746174696f6e206973206e60448201526c1bdd08184818dbdb9d1c9858dd609a1b60648201526084016106ae565b7f360894a13ba1a3210667c828492db98dca3e2076cc3735a920a3ca505d382bbc80546001600160a01b0319166001600160a01b0392909216919091179055565b606061219b83612394565b6121f65760405162461bcd60e51b815260206004820152602660248201527f416464726573733a2064656c65676174652063616c6c20746f206e6f6e2d636f6044820152651b9d1c9858dd60d21b60648201526084016106ae565b600080846001600160a01b0316846040516122119190612932565b600060405180830381855af49150503d806000811461224c576040519150601f19603f3d011682016040523d82523d6000602084013e612251565b606091505b50915091506122798282604051806060016040528060278152602001612bb86027913961239e565b95945050505050565b61228b816120e4565b6040516001600160a01b038216907fbc7cd75a20ee27fd9adebab32041f755214dbc6bffa90cc0225b39da2e5c2d3b90600090a250565b6000612317826040518060400160405280602081526020017f5361666545524332303a206c6f772d6c6576656c2063616c6c206661696c6564815250856001600160a01b03166123d79092919063ffffffff16565b805190915015610adc57808060200190518101906123359190612753565b610adc5760405162461bcd60e51b815260206004820152602a60248201527f5361666545524332303a204552433230206f7065726174696f6e20646964206e6044820152691bdd081cdd58d8d9595960b21b60648201526084016106ae565b803b15155b919050565b606083156123ad575081610b64565b8251156123bd5782518084602001fd5b8160405162461bcd60e51b81526004016106ae919061297b565b60606123e684846000856123ee565b949350505050565b60608247101561244f5760405162461bcd60e51b815260206004820152602660248201527f416464726573733a20696e73756666696369656e742062616c616e636520666f6044820152651c8818d85b1b60d21b60648201526084016106ae565b61245885612394565b6124a45760405162461bcd60e51b815260206004820152601d60248201527f416464726573733a2063616c6c20746f206e6f6e2d636f6e747261637400000060448201526064016106ae565b600080866001600160a01b031685876040516124c09190612932565b60006040518083038185875af1925050503d80600081146124fd576040519150601f19603f3d011682016040523d82523d6000602084013e612502565b606091505b50915091506112f482828661239e565b600082601f830112612522578081fd5b8151602061253761253283612ab9565b612a89565b8281528181019085830183850287018401881015612553578586fd5b855b8581101561257a57815161256881612ba2565b84529284019290840190600101612555565b5090979650505050505050565b600082601f830112612597578081fd5b815160206125a761253283612ab9565b82815281810190858301838502870184018810156125c3578586fd5b855b8581101561257a578151845292840192908401906001016125c5565b8051801515811461239957600080fd5b600060208284031215612602578081fd5b8135610b6481612ba2565b6000806040838503121561261f578081fd5b823561262a81612ba2565b91506020838101356001600160401b0380821115612646578384fd5b818601915086601f830112612659578384fd5b81358181111561266b5761266b612b8c565b61267d601f8201601f19168501612a89565b91508082528784828501011115612692578485fd5b8084840185840137810190920192909252919491935090915050565b600080600080600080600060e0888a0312156126c8578283fd5b87356126d381612ba2565b965060208801356126e381612ba2565b955060408801359450606088013593506080880135925060a088013561270881612ba2565b915060c088013561271881612ba2565b8091505092959891949750929550565b6000806040838503121561273a578182fd5b823561274581612ba2565b946020939093013593505050565b600060208284031215612764578081fd5b610b64826125e1565b60006020828403121561277e578081fd5b5035919050565b600060208284031215612796578081fd5b5051919050565b600080604083850312156127af578182fd5b8235915060208301356127c181612ba2565b809150509250929050565b600080604083850312156127de578182fd5b50508035926020909101359150565b60008060008060008060008060008060006101608c8e03121561280e578485fd5b8b519a5060208c0151995060408c0151985060608c0151975061283360808d016125e1565b965060a08c01516001600160401b0381111561284d578586fd5b6128598e828f01612512565b96505060c08c01516001600160401b03811115612874578586fd5b6128808e828f01612587565b95505060e08c01516001600160401b0381111561289b578485fd5b6128a78e828f01612587565b9450506101008c01516001600160401b038111156128c3578384fd5b6128cf8e828f01612587565b9350506101208c01516001600160401b038111156128eb578283fd5b6128f78e828f01612587565b9250506101408c01516001600160401b03811115612913578182fd5b61291f8e828f01612587565b9150509295989b509295989b9093969950565b60008251612944818460208701612b4a565b9190910192915050565b6001600160a01b0391909116815260200190565b6001600160a01b03929092168252602082015260400190565b600060208252825180602084015261299a816040850160208701612b4a565b601f01601f19169190910160400192915050565b60208082526014908201527314185d5cd8589b194e881b9bdd081c185d5cd95960621b604082015260600190565b60208082526010908201526f14185d5cd8589b194e881c185d5cd95960821b604082015260600190565b6020808252602e908201527f496e697469616c697a61626c653a20636f6e747261637420697320616c72656160408201526d191e481a5b9a5d1a585b1a5e995960921b606082015260800190565b6020808252818101527f4f776e61626c653a2063616c6c6572206973206e6f7420746865206f776e6572604082015260600190565b604051601f8201601f191681016001600160401b0381118282101715612ab157612ab1612b8c565b604052919050565b60006001600160401b03821115612ad257612ad2612b8c565b5060209081020190565b60008219821115612aef57612aef612b76565b500190565b600082612b0f57634e487b7160e01b81526012600452602481fd5b500490565b6000816000190483118215151615612b2e57612b2e612b76565b500290565b600082821015612b4557612b45612b76565b500390565b60005b83811015612b65578181015183820152602001612b4d565b83811115611fd45750506000910152565b634e487b7160e01b600052601160045260246000fd5b634e487b7160e01b600052604160045260246000fd5b6001600160a01b0381168114610c0457600080fdfe416464726573733a206c6f772d6c6576656c2064656c65676174652063616c6c206661696c6564a2646970667358221220a13e520761c20526c84b35ac236c8fd08ff74766dddc6652e554a838da8c68f064736f6c63430008020033",
  "linkReferences": {},
  "deployedLinkReferences": {}
}