{
  "_format": "hh-sol-artifact-1",
  "contractName": "Prediction",
  "sourceName": "contracts/Prediction.sol",
  "abi": [
    {
      "anonymous": false,
      "inputs": [
        {
          "indexed": false,
          "internalType": "address",
          "name": "previousAdmin",
          "type": "address"
        },
        {
          "indexed": false,
          "internalType": "address",
          "name": "newAdmin",
          "type": "address"
        }
      ],
      "name": "AdminChanged",
      "type": "event"
    },
    {
      "anonymous": false,
      "inputs": [
        {
          "indexed": true,
          "internalType": "address",
          "name": "beacon",
          "type": "address"
        }
      ],
      "name": "BeaconUpgraded",
      "type": "event"
    },
    {
      "anonymous": false,
      "inputs": [
        {
          "indexed": true,
          "internalType": "address",
          "name": "sender",
          "type": "address"
        },
        {
          "indexed": true,
          "internalType": "uint256",
          "name": "epoch",
          "type": "uint256"
        },
        {
          "indexed": false,
          "internalType": "uint256",
          "name": "amount",
          "type": "uint256"
        }
      ],
      "name": "Claim",
      "type": "event"
    },
    {
      "anonymous": false,
      "inputs": [
        {
          "indexed": true,
          "internalType": "uint256",
          "name": "epoch",
          "type": "uint256"
        },
        {
          "indexed": true,
          "internalType": "uint256",
          "name": "roundId",
          "type": "uint256"
        },
        {
          "indexed": false,
          "internalType": "int256",
          "name": "price",
          "type": "int256"
        }
      ],
      "name": "EndRound",
      "type": "event"
    },
    {
      "anonymous": false,
      "inputs": [
        {
          "indexed": false,
          "internalType": "address",
          "name": "admin",
          "type": "address"
        }
      ],
      "name": "NewAdminAddress",
      "type": "event"
    },
    {
      "anonymous": false,
      "inputs": [
        {
          "indexed": true,
          "internalType": "uint256",
          "name": "epoch",
          "type": "uint256"
        },
        {
          "indexed": false,
          "internalType": "uint256",
          "name": "betAmount",
          "type": "uint256"
        }
      ],
      "name": "NewBetAmount",
      "type": "event"
    },
    {
      "anonymous": false,
      "inputs": [
        {
          "indexed": false,
          "internalType": "uint256",
          "name": "bufferSeconds",
          "type": "uint256"
        },
        {
          "indexed": false,
          "internalType": "uint256",
          "name": "intervalSeconds",
          "type": "uint256"
        }
      ],
      "name": "NewBufferAndIntervalSeconds",
      "type": "event"
    },
    {
      "anonymous": false,
      "inputs": [
        {
          "indexed": false,
          "internalType": "address",
          "name": "operator",
          "type": "address"
        }
      ],
      "name": "NewOperatorAddress",
      "type": "event"
    },
    {
      "anonymous": false,
      "inputs": [
        {
          "indexed": false,
          "internalType": "address",
          "name": "oracle",
          "type": "address"
        },
        {
          "indexed": false,
          "internalType": "address",
          "name": "token",
          "type": "address"
        }
      ],
      "name": "NewOracle",
      "type": "event"
    },
    {
      "anonymous": false,
      "inputs": [
        {
          "indexed": false,
          "internalType": "uint256",
          "name": "oracleUpdateAllowance",
          "type": "uint256"
        }
      ],
      "name": "NewOracleUpdateAllowance",
      "type": "event"
    },
    {
      "anonymous": false,
      "inputs": [
        {
          "indexed": false,
          "internalType": "uint256",
          "name": "tokenMaxBet",
          "type": "uint256"
        }
      ],
      "name": "NewTokenMaxBet",
      "type": "event"
    },
    {
      "anonymous": false,
      "inputs": [
        {
          "indexed": true,
          "internalType": "address",
          "name": "previousOwner",
          "type": "address"
        },
        {
          "indexed": true,
          "internalType": "address",
          "name": "newOwner",
          "type": "address"
        }
      ],
      "name": "OwnershipTransferred",
      "type": "event"
    },
    {
      "anonymous": false,
      "inputs": [
        {
          "indexed": true,
          "internalType": "uint256",
          "name": "epoch",
          "type": "uint256"
        }
      ],
      "name": "Pause",
      "type": "event"
    },
    {
      "anonymous": false,
      "inputs": [
        {
          "indexed": false,
          "internalType": "address",
          "name": "account",
          "type": "address"
        }
      ],
      "name": "Paused",
      "type": "event"
    },
    {
      "anonymous": false,
      "inputs": [
        {
          "indexed": true,
          "internalType": "address",
          "name": "sender",
          "type": "address"
        },
        {
          "indexed": true,
          "internalType": "uint256",
          "name": "epoch",
          "type": "uint256"
        },
        {
          "indexed": true,
          "internalType": "address",
          "name": "token",
          "type": "address"
        },
        {
          "indexed": false,
          "internalType": "uint256",
          "name": "amount",
          "type": "uint256"
        }
      ],
      "name": "PredictBear",
      "type": "event"
    },
    {
      "anonymous": false,
      "inputs": [
        {
          "indexed": true,
          "internalType": "address",
          "name": "sender",
          "type": "address"
        },
        {
          "indexed": true,
          "internalType": "uint256",
          "name": "epoch",
          "type": "uint256"
        },
        {
          "indexed": true,
          "internalType": "address",
          "name": "token",
          "type": "address"
        },
        {
          "indexed": false,
          "internalType": "uint256",
          "name": "amount",
          "type": "uint256"
        }
      ],
      "name": "PredictBull",
      "type": "event"
    },
    {
      "anonymous": false,
      "inputs": [
        {
          "indexed": true,
          "internalType": "uint256",
          "name": "epoch",
          "type": "uint256"
        }
      ],
      "name": "StartRound",
      "type": "event"
    },
    {
      "anonymous": false,
      "inputs": [
        {
          "indexed": false,
          "internalType": "address",
          "name": "token",
          "type": "address"
        },
        {
          "indexed": false,
          "internalType": "address",
          "name": "oracle",
          "type": "address"
        }
      ],
      "name": "TokenAdded",
      "type": "event"
    },
    {
      "anonymous": false,
      "inputs": [
        {
          "indexed": true,
          "internalType": "address",
          "name": "token",
          "type": "address"
        },
        {
          "indexed": false,
          "internalType": "uint256",
          "name": "amount",
          "type": "uint256"
        }
      ],
      "name": "TokenRecovery",
      "type": "event"
    },
    {
      "anonymous": false,
      "inputs": [
        {
          "indexed": false,
          "internalType": "address",
          "name": "token",
          "type": "address"
        },
        {
          "indexed": false,
          "internalType": "address",
          "name": "oracle",
          "type": "address"
        }
      ],
      "name": "TokenRemoved",
      "type": "event"
    },
    {
      "anonymous": false,
      "inputs": [
        {
          "indexed": false,
          "internalType": "uint256",
          "name": "amount",
          "type": "uint256"
        }
      ],
      "name": "TreasuryClaim",
      "type": "event"
    },
    {
      "anonymous": false,
      "inputs": [
        {
          "indexed": true,
          "internalType": "uint256",
          "name": "epoch",
          "type": "uint256"
        }
      ],
      "name": "Unpause",
      "type": "event"
    },
    {
      "anonymous": false,
      "inputs": [
        {
          "indexed": false,
          "internalType": "address",
          "name": "account",
          "type": "address"
        }
      ],
      "name": "Unpaused",
      "type": "event"
    },
    {
      "anonymous": false,
      "inputs": [
        {
          "indexed": true,
          "internalType": "address",
          "name": "implementation",
          "type": "address"
        }
      ],
      "name": "Upgraded",
      "type": "event"
    },
    {
      "inputs": [],
      "name": "BNB",
      "outputs": [
        {
          "internalType": "address",
          "name": "",
          "type": "address"
        }
      ],
      "stateMutability": "view",
      "type": "function"
    },
    {
      "inputs": [],
      "name": "MAX_TREASURY_FEE",
      "outputs": [
        {
          "internalType": "uint256",
          "name": "",
          "type": "uint256"
        }
      ],
      "stateMutability": "view",
      "type": "function"
    },
    {
      "inputs": [
        {
          "internalType": "address[]",
          "name": "_tokens",
          "type": "address[]"
        },
        {
          "internalType": "address[]",
          "name": "_oracles",
          "type": "address[]"
        }
      ],
      "name": "addTokens",
      "outputs": [],
      "stateMutability": "nonpayable",
      "type": "function"
    },
    {
      "inputs": [],
      "name": "adminAddress",
      "outputs": [
        {
          "internalType": "address",
          "name": "",
          "type": "address"
        }
      ],
      "stateMutability": "view",
      "type": "function"
    },
    {
      "inputs": [],
      "name": "betAmount",
      "outputs": [
        {
          "internalType": "uint256",
          "name": "",
          "type": "uint256"
        }
      ],
      "stateMutability": "view",
      "type": "function"
    },
    {
      "inputs": [],
      "name": "betSeconds",
      "outputs": [
        {
          "internalType": "uint256",
          "name": "",
          "type": "uint256"
        }
      ],
      "stateMutability": "view",
      "type": "function"
    },
    {
      "inputs": [],
      "name": "bufferSeconds",
      "outputs": [
        {
          "internalType": "uint256",
          "name": "",
          "type": "uint256"
        }
      ],
      "stateMutability": "view",
      "type": "function"
    },
    {
      "inputs": [
        {
          "internalType": "uint256[]",
          "name": "epochs",
          "type": "uint256[]"
        }
      ],
      "name": "claim",
      "outputs": [],
      "stateMutability": "nonpayable",
      "type": "function"
    },
    {
      "inputs": [],
      "name": "claimTreasury",
      "outputs": [],
      "stateMutability": "nonpayable",
      "type": "function"
    },
    {
      "inputs": [],
      "name": "currentEpoch",
      "outputs": [
        {
          "internalType": "uint256",
          "name": "",
          "type": "uint256"
        }
      ],
      "stateMutability": "view",
      "type": "function"
    },
    {
      "inputs": [],
      "name": "endRound",
      "outputs": [],
      "stateMutability": "nonpayable",
      "type": "function"
    },
    {
      "inputs": [
        {
          "internalType": "uint256",
          "name": "_round",
          "type": "uint256"
        }
      ],
      "name": "getRound",
      "outputs": [
        {
          "internalType": "uint256",
          "name": "epoch",
          "type": "uint256"
        },
        {
          "internalType": "uint256",
          "name": "lockedTimestamp",
          "type": "uint256"
        },
        {
          "internalType": "uint256",
          "name": "closeTimestamp",
          "type": "uint256"
        },
        {
          "internalType": "uint256",
          "name": "totalAmount",
          "type": "uint256"
        },
        {
          "internalType": "bool",
          "name": "oraclesCalled",
          "type": "bool"
        },
        {
          "internalType": "address[]",
          "name": "_tokens",
          "type": "address[]"
        },
        {
          "internalType": "int256[]",
          "name": "lockedPrices",
          "type": "int256[]"
        },
        {
          "internalType": "int256[]",
          "name": "closePrices",
          "type": "int256[]"
        },
        {
          "internalType": "uint256[]",
          "name": "lockedOracleIds",
          "type": "uint256[]"
        },
        {
          "internalType": "uint256[]",
          "name": "closeOracleIds",
          "type": "uint256[]"
        },
        {
          "internalType": "uint256[]",
          "name": "bets",
          "type": "uint256[]"
        }
      ],
      "stateMutability": "view",
      "type": "function"
    },
    {
      "inputs": [
        {
          "internalType": "uint256",
          "name": "_round",
          "type": "uint256"
        }
      ],
      "name": "getStats",
      "outputs": [
        {
          "internalType": "address[]",
          "name": "_tokens",
          "type": "address[]"
        },
        {
          "internalType": "uint256[]",
          "name": "bulls",
          "type": "uint256[]"
        },
        {
          "internalType": "uint256[]",
          "name": "bears",
          "type": "uint256[]"
        }
      ],
      "stateMutability": "view",
      "type": "function"
    },
    {
      "inputs": [],
      "name": "getTokens",
      "outputs": [
        {
          "internalType": "address[]",
          "name": "",
          "type": "address[]"
        }
      ],
      "stateMutability": "view",
      "type": "function"
    },
    {
      "inputs": [
        {
          "internalType": "address",
          "name": "user",
          "type": "address"
        },
        {
          "internalType": "uint256",
          "name": "cursor",
          "type": "uint256"
        },
        {
          "internalType": "uint256",
          "name": "size",
          "type": "uint256"
        }
      ],
      "name": "getUserRounds",
      "outputs": [
        {
          "internalType": "uint256[]",
          "name": "",
          "type": "uint256[]"
        },
        {
          "components": [
            {
              "internalType": "enum Prediction.Position",
              "name": "position",
              "type": "uint8"
            },
            {
              "internalType": "address",
              "name": "token",
              "type": "address"
            },
            {
              "internalType": "uint256",
              "name": "amount",
              "type": "uint256"
            },
            {
              "internalType": "bool",
              "name": "claimed",
              "type": "bool"
            }
          ],
          "internalType": "struct Prediction.BetInfo[]",
          "name": "",
          "type": "tuple[]"
        },
        {
          "internalType": "uint256",
          "name": "",
          "type": "uint256"
        }
      ],
      "stateMutability": "view",
      "type": "function"
    },
    {
      "inputs": [
        {
          "internalType": "address",
          "name": "user",
          "type": "address"
        }
      ],
      "name": "getUserRoundsLength",
      "outputs": [
        {
          "internalType": "uint256",
          "name": "",
          "type": "uint256"
        }
      ],
      "stateMutability": "view",
      "type": "function"
    },
    {
      "inputs": [
        {
          "internalType": "address",
          "name": "_adminAddress",
          "type": "address"
        },
        {
          "internalType": "address",
          "name": "_operatorAddress",
          "type": "address"
        },
        {
          "internalType": "uint256",
          "name": "_intervalSeconds",
          "type": "uint256"
        },
        {
          "internalType": "uint256",
          "name": "_bufferSeconds",
          "type": "uint256"
        },
        {
          "internalType": "uint256",
          "name": "_betSeconds",
          "type": "uint256"
        },
        {
          "internalType": "uint256",
          "name": "_betAmount",
          "type": "uint256"
        },
        {
          "internalType": "uint256",
          "name": "_oracleUpdateAllowance",
          "type": "uint256"
        },
        {
          "internalType": "uint256",
          "name": "_tokenMaxBet",
          "type": "uint256"
        }
      ],
      "name": "initialize",
      "outputs": [],
      "stateMutability": "nonpayable",
      "type": "function"
    },
    {
      "inputs": [],
      "name": "intervalSeconds",
      "outputs": [
        {
          "internalType": "uint256",
          "name": "",
          "type": "uint256"
        }
      ],
      "stateMutability": "view",
      "type": "function"
    },
    {
      "inputs": [
        {
          "internalType": "uint256",
          "name": "",
          "type": "uint256"
        },
        {
          "internalType": "address",
          "name": "",
          "type": "address"
        }
      ],
      "name": "ledger",
      "outputs": [
        {
          "internalType": "enum Prediction.Position",
          "name": "position",
          "type": "uint8"
        },
        {
          "internalType": "address",
          "name": "token",
          "type": "address"
        },
        {
          "internalType": "uint256",
          "name": "amount",
          "type": "uint256"
        },
        {
          "internalType": "bool",
          "name": "claimed",
          "type": "bool"
        }
      ],
      "stateMutability": "view",
      "type": "function"
    },
    {
      "inputs": [
        {
          "internalType": "address",
          "name": "preder",
          "type": "address"
        },
        {
          "internalType": "uint256",
          "name": "round",
          "type": "uint256"
        }
      ],
      "name": "lostRound",
      "outputs": [
        {
          "internalType": "bool",
          "name": "",
          "type": "bool"
        }
      ],
      "stateMutability": "view",
      "type": "function"
    },
    {
      "inputs": [],
      "name": "operatorAddress",
      "outputs": [
        {
          "internalType": "address",
          "name": "",
          "type": "address"
        }
      ],
      "stateMutability": "view",
      "type": "function"
    },
    {
      "inputs": [],
      "name": "oracleLatestRoundId",
      "outputs": [
        {
          "internalType": "uint256",
          "name": "",
          "type": "uint256"
        }
      ],
      "stateMutability": "view",
      "type": "function"
    },
    {
      "inputs": [],
      "name": "oracleUpdateAllowance",
      "outputs": [
        {
          "internalType": "uint256",
          "name": "",
          "type": "uint256"
        }
      ],
      "stateMutability": "view",
      "type": "function"
    },
    {
      "inputs": [
        {
          "internalType": "address",
          "name": "",
          "type": "address"
        }
      ],
      "name": "oracles",
      "outputs": [
        {
          "internalType": "contract AggregatorV3Interface",
          "name": "",
          "type": "address"
        }
      ],
      "stateMutability": "view",
      "type": "function"
    },
    {
      "inputs": [],
      "name": "owner",
      "outputs": [
        {
          "internalType": "address",
          "name": "",
          "type": "address"
        }
      ],
      "stateMutability": "view",
      "type": "function"
    },
    {
      "inputs": [],
      "name": "pause",
      "outputs": [],
      "stateMutability": "nonpayable",
      "type": "function"
    },
    {
      "inputs": [],
      "name": "paused",
      "outputs": [
        {
          "internalType": "bool",
          "name": "",
          "type": "bool"
        }
      ],
      "stateMutability": "view",
      "type": "function"
    },
    {
      "inputs": [],
      "name": "pred",
      "outputs": [
        {
          "internalType": "contract IERC20Upgradeable",
          "name": "",
          "type": "address"
        }
      ],
      "stateMutability": "view",
      "type": "function"
    },
    {
      "inputs": [
        {
          "internalType": "uint256",
          "name": "epoch",
          "type": "uint256"
        },
        {
          "internalType": "address",
          "name": "token",
          "type": "address"
        }
      ],
      "name": "predictBear",
      "outputs": [],
      "stateMutability": "nonpayable",
      "type": "function"
    },
    {
      "inputs": [
        {
          "internalType": "uint256",
          "name": "epoch",
          "type": "uint256"
        },
        {
          "internalType": "address",
          "name": "token",
          "type": "address"
        }
      ],
      "name": "predictBull",
      "outputs": [],
      "stateMutability": "nonpayable",
      "type": "function"
    },
    {
      "inputs": [
        {
          "internalType": "address",
          "name": "_token",
          "type": "address"
        },
        {
          "internalType": "uint256",
          "name": "_amount",
          "type": "uint256"
        }
      ],
      "name": "recoverToken",
      "outputs": [],
      "stateMutability": "nonpayable",
      "type": "function"
    },
    {
      "inputs": [
        {
          "internalType": "uint256",
          "name": "epoch",
          "type": "uint256"
        },
        {
          "internalType": "address",
          "name": "user",
          "type": "address"
        }
      ],
      "name": "refundable",
      "outputs": [
        {
          "internalType": "bool",
          "name": "",
          "type": "bool"
        }
      ],
      "stateMutability": "view",
      "type": "function"
    },
    {
      "inputs": [
        {
          "internalType": "uint256[]",
          "name": "_ids",
          "type": "uint256[]"
        }
      ],
      "name": "removeTokens",
      "outputs": [],
      "stateMutability": "nonpayable",
      "type": "function"
    },
    {
      "inputs": [],
      "name": "renounceOwnership",
      "outputs": [],
      "stateMutability": "nonpayable",
      "type": "function"
    },
    {
      "inputs": [
        {
          "internalType": "uint256",
          "name": "",
          "type": "uint256"
        }
      ],
      "name": "rounds",
      "outputs": [
        {
          "internalType": "uint256",
          "name": "epoch",
          "type": "uint256"
        },
        {
          "internalType": "uint256",
          "name": "lockedTimestamp",
          "type": "uint256"
        },
        {
          "internalType": "uint256",
          "name": "closeTimestamp",
          "type": "uint256"
        },
        {
          "internalType": "uint256",
          "name": "totalAmount",
          "type": "uint256"
        },
        {
          "internalType": "bool",
          "name": "oraclesCalled",
          "type": "bool"
        }
      ],
      "stateMutability": "view",
      "type": "function"
    },
    {
      "inputs": [
        {
          "internalType": "address",
          "name": "_adminAddress",
          "type": "address"
        }
      ],
      "name": "setAdmin",
      "outputs": [],
      "stateMutability": "nonpayable",
      "type": "function"
    },
    {
      "inputs": [
        {
          "internalType": "uint256",
          "name": "_betAmount",
          "type": "uint256"
        }
      ],
      "name": "setBetAmount",
      "outputs": [],
      "stateMutability": "nonpayable",
      "type": "function"
    },
    {
      "inputs": [
        {
          "internalType": "uint256",
          "name": "_bufferSeconds",
          "type": "uint256"
        },
        {
          "internalType": "uint256",
          "name": "_intervalSeconds",
          "type": "uint256"
        },
        {
          "internalType": "uint256",
          "name": "_betSeconds",
          "type": "uint256"
        }
      ],
      "name": "setBufferBetAndIntervalSeconds",
      "outputs": [],
      "stateMutability": "nonpayable",
      "type": "function"
    },
    {
      "inputs": [
        {
          "internalType": "address",
          "name": "_operatorAddress",
          "type": "address"
        }
      ],
      "name": "setOperator",
      "outputs": [],
      "stateMutability": "nonpayable",
      "type": "function"
    },
    {
      "inputs": [
        {
          "internalType": "uint256",
          "name": "_oracleUpdateAllowance",
          "type": "uint256"
        }
      ],
      "name": "setOracleUpdateAllowance",
      "outputs": [],
      "stateMutability": "nonpayable",
      "type": "function"
    },
    {
      "inputs": [
        {
          "internalType": "address[]",
          "name": "_tokens",
          "type": "address[]"
        },
        {
          "internalType": "address[]",
          "name": "_oracles",
          "type": "address[]"
        }
      ],
      "name": "setOracles",
      "outputs": [],
      "stateMutability": "nonpayable",
      "type": "function"
    },
    {
      "inputs": [
        {
          "internalType": "uint256",
          "name": "_tokenMaxBet",
          "type": "uint256"
        }
      ],
      "name": "setTokenMaxBet",
      "outputs": [],
      "stateMutability": "nonpayable",
      "type": "function"
    },
    {
      "inputs": [],
      "name": "startRound",
      "outputs": [],
      "stateMutability": "nonpayable",
      "type": "function"
    },
    {
      "inputs": [],
      "name": "tokenMaxBet",
      "outputs": [
        {
          "internalType": "uint256",
          "name": "",
          "type": "uint256"
        }
      ],
      "stateMutability": "view",
      "type": "function"
    },
    {
      "inputs": [
        {
          "internalType": "uint256",
          "name": "",
          "type": "uint256"
        }
      ],
      "name": "tokens",
      "outputs": [
        {
          "internalType": "address",
          "name": "",
          "type": "address"
        }
      ],
      "stateMutability": "view",
      "type": "function"
    },
    {
      "inputs": [
        {
          "internalType": "address",
          "name": "newOwner",
          "type": "address"
        }
      ],
      "name": "transferOwnership",
      "outputs": [],
      "stateMutability": "nonpayable",
      "type": "function"
    },
    {
      "inputs": [],
      "name": "treasuryAmount",
      "outputs": [
        {
          "internalType": "uint256",
          "name": "",
          "type": "uint256"
        }
      ],
      "stateMutability": "view",
      "type": "function"
    },
    {
      "inputs": [],
      "name": "unpause",
      "outputs": [],
      "stateMutability": "nonpayable",
      "type": "function"
    },
    {
      "inputs": [
        {
          "internalType": "address",
          "name": "newImplementation",
          "type": "address"
        }
      ],
      "name": "upgradeTo",
      "outputs": [],
      "stateMutability": "nonpayable",
      "type": "function"
    },
    {
      "inputs": [
        {
          "internalType": "address",
          "name": "newImplementation",
          "type": "address"
        },
        {
          "internalType": "bytes",
          "name": "data",
          "type": "bytes"
        }
      ],
      "name": "upgradeToAndCall",
      "outputs": [],
      "stateMutability": "payable",
      "type": "function"
    },
    {
      "inputs": [
        {
          "internalType": "address",
          "name": "",
          "type": "address"
        },
        {
          "internalType": "uint256",
          "name": "",
          "type": "uint256"
        }
      ],
      "name": "userRounds",
      "outputs": [
        {
          "internalType": "uint256",
          "name": "",
          "type": "uint256"
        }
      ],
      "stateMutability": "view",
      "type": "function"
    },
    {
      "inputs": [
        {
          "internalType": "address",
          "name": "preder",
          "type": "address"
        },
        {
          "internalType": "uint256",
          "name": "round",
          "type": "uint256"
        }
      ],
      "name": "wonRound",
      "outputs": [
        {
          "internalType": "bool",
          "name": "",
          "type": "bool"
        }
      ],
      "stateMutability": "view",
      "type": "function"
    }
  ],
  "bytecode": "0x608060405234801561001057600080fd5b50614fc3806100206000396000f3fe6080604052600436106102be5760003560e01c80637667180811610170578063addd5099116100cc578063e5c9ad2e11610085578063e5c9ad2e146108f4578063eaba23611461091c578063ec32470314610933578063f2b3c8091461094a578063f2fde38b14610960578063fc6f946814610980578063ff59bcd0146109a1576102be565b8063addd509914610826578063b29a81401461085d578063b3ab15fb1461087d578063cf2f50391461089d578063d24257c0146108bd578063dd1f7596146108d4576102be565b80638ba796af116101295780638ba796af146106d15780638c65c81f146106f15780638da5cb5b146107695780638f1327c01461077e57806390df00c6146107b5578063951fd600146107d5578063aa6ca80814610804576102be565b8063766718081461061f57806378d5f781146106365780637b303965146106565780637bf41254146106855780637d1cd04f146106a55780638456cb59146106bc576102be565b806355e3f0861161021f57806362bfdf04116101d857806362bfdf04146105085780636ba4c138146105285780636e36c67814610548578063704b6c0214610568578063715018a6146105885780637285c58b1461059d578063749aa2d91461060a576102be565b806355e3f0861461046557806357abd0f81461047a57806358f7f6d21461049a5780635c975abb146104c25780635ea9417c146104da57806360554011146104f1576102be565b8063296a80a91161027c578063296a80a9146103a65780633659cfe6146103c6578063368acb09146103e65780633f4ba83a146103fd5780634f1ef286146104125780634f64b2be1461042557806353a79d7414610445576102be565b80623bdc74146102c3578063127effb2146102da5780631521604e146103115780631c8d04e21461034157806324360ae414610361578063273867d414610386575b600080fd5b3480156102cf57600080fd5b506102d86109c1565b005b3480156102e657600080fd5b5061012e546102fb906001600160a01b031681565b604051610308919061496b565b60405180910390f35b34801561031d57600080fd5b5061033161032c366004614626565b610afc565b6040519015158152602001610308565b34801561034d57600080fd5b5061033161035c366004614626565b610ce2565b34801561036d57600080fd5b506103786101315481565b604051908152602001610308565b34801561039257600080fd5b506103786103a1366004614507565b610ec7565b3480156103b257600080fd5b506102d86103c1366004614816565b610ee7565b3480156103d257600080fd5b506102d86103e1366004614507565b6111ca565b3480156103f257600080fd5b506103786101335481565b34801561040957600080fd5b506102d86111f1565b6102d8610420366004614587565b611275565b34801561043157600080fd5b506102fb6104403660046147fe565b61128e565b34801561045157600080fd5b506102d86104603660046147fe565b6112b9565b34801561047157600080fd5b506102d861138b565b34801561048657600080fd5b506102d8610495366004614816565b61141d565b3480156104a657600080fd5b506102fb73eeeeeeeeeeeeeeeeeeeeeeeeeeeeeeeeeeeeeeee81565b3480156104ce57600080fd5b5060655460ff16610331565b3480156104e657600080fd5b506103786101345481565b3480156104fd57600080fd5b506103786101375481565b34801561051457600080fd5b506102d8610523366004614681565b6116e9565b34801561053457600080fd5b506102d86105433660046146e1565b611a5d565b34801561055457600080fd5b506102d86105633660046147fe565b611cbb565b34801561057457600080fd5b506102d8610583366004614507565b611d45565b34801561059457600080fd5b506102d8611de6565b3480156105a957600080fd5b506105fa6105b8366004614816565b61013860209081526000928352604080842090915290825290208054600182015460029092015460ff808316936101009093046001600160a01b031692911684565b6040516103089493929190614a7e565b34801561061657600080fd5b506102d8611e1f565b34801561062b57600080fd5b506103786101355481565b34801561064257600080fd5b506102d8610651366004614681565b611ea9565b34801561066257600080fd5b506106766106713660046147fe565b6121da565b604051610308939291906149ac565b34801561069157600080fd5b506103316106a0366004614816565b612398565b3480156106b157600080fd5b506103786101305481565b3480156106c857600080fd5b506102d86124aa565b3480156106dd57600080fd5b506102d86106ec366004614521565b61256a565b3480156106fd57600080fd5b5061073f61070c3660046147fe565b61013960205260009081526040902080546001820154600283015460038401546004909401549293919290919060ff1685565b6040805195865260208601949094529284019190915260608301521515608082015260a001610308565b34801561077557600080fd5b506102fb612645565b34801561078a57600080fd5b5061079e6107993660046147fe565b612654565b6040516103089b9a99989796959493929190614dc4565b3480156107c157600080fd5b506102d86107d0366004614841565b612a34565b3480156107e157600080fd5b506107f56107f036600461464f565b612ba0565b604051610308939291906149ef565b34801561081057600080fd5b50610819612e85565b6040516103089190614999565b34801561083257600080fd5b506102fb610841366004614507565b61013b602052600090815260409020546001600160a01b031681565b34801561086957600080fd5b506102d8610878366004614626565b612ee8565b34801561088957600080fd5b506102d8610898366004614507565b612fda565b3480156108a957600080fd5b506102d86108b83660046147fe565b613077565b3480156108c957600080fd5b506103786101325481565b3480156108e057600080fd5b506103786108ef366004614626565b6130fa565b34801561090057600080fd5b506102fb73b2d7b35539a543bbe4c74965488ffe33c6721f0d81565b34801561092857600080fd5b5061037861012f5481565b34801561093f57600080fd5b506103786101365481565b34801561095657600080fd5b506103786103e881565b34801561096c57600080fd5b506102d861097b366004614507565b61312c565b34801561098c57600080fd5b5061012d546102fb906001600160a01b031681565b3480156109ad57600080fd5b506102d86109bc36600461474f565b6131c9565b600260975414156109ed5760405162461bcd60e51b81526004016109e490614ce4565b60405180910390fd5b600260975561012d546001600160a01b03163314610a1d5760405162461bcd60e51b81526004016109e490614d70565b6101338054600090915561012d5460405163a9059cbb60e01b81526001600160a01b0390911660048201526024810182905273b2d7b35539a543bbe4c74965488ffe33c6721f0d9063a9059cbb90604401602060405180830381600087803b158015610a8857600080fd5b505af1158015610a9c573d6000803e3d6000fd5b505050506040513d601f19601f82011682018060405250810190610ac091906147de565b506040518181527fb9197c6b8e21274bd1e2d9c956a88af5cfee510f630fab3f046300f88b4223619060200160405180910390a1506001609755565b6000818152610138602090815260408083206001600160a01b0386168452909152808220815160808101909252805483929190829060ff166001811115610b5357634e487b7160e01b600052602160045260246000fd5b6001811115610b7257634e487b7160e01b600052602160045260246000fd5b815281546001600160a01b0361010090910481166020808401919091526001840154604084015260029093015460ff16151560609092019190915290820151919250161580610bc2575080606001515b80610be057506000838152610139602052604090206004015460ff16155b15610bef576000915050610cdc565b60008381526101396020818152604080842085830180516001600160a01b039081168752600b83018552838720548a88529585529051168552600a01909152909120541415610c42576000915050610cdc565b60008381526101396020818152604080842085830180516001600160a01b039081168752600b83018552838720548a88529585529051168552600a0190915282205413610c90576000610c93565b60015b9050806001811115610cb557634e487b7160e01b600052602160045260246000fd5b82516001811115610cd657634e487b7160e01b600052602160045260246000fd5b14925050505b92915050565b6000818152610138602090815260408083206001600160a01b0386168452909152808220815160808101909252805483929190829060ff166001811115610d3957634e487b7160e01b600052602160045260246000fd5b6001811115610d5857634e487b7160e01b600052602160045260246000fd5b815281546001600160a01b0361010090910481166020808401919091526001840154604084015260029093015460ff16151560609092019190915290820151919250161580610da8575080606001515b80610dc657506000838152610139602052604090206004015460ff16155b15610dd5576000915050610cdc565b60008381526101396020818152604080842085830180516001600160a01b039081168752600b83018552838720548a88529585529051168552600a01909152909120541415610e28576001915050610cdc565b60008381526101396020818152604080842085830180516001600160a01b039081168752600b83018552838720548a88529585529051168552600a0190915282205413610e76576000610e79565b60015b9050806001811115610e9b57634e487b7160e01b600052602160045260246000fd5b82516001811115610ebc57634e487b7160e01b600052602160045260246000fd5b141595945050505050565b6001600160a01b038116600090815261013a60205260409020545b919050565b60655460ff1615610f0a5760405162461bcd60e51b81526004016109e490614b70565b60026097541415610f2d5760405162461bcd60e51b81526004016109e490614ce4565b6002609755333b15610f515760405162461bcd60e51b81526004016109e490614b13565b333214610f705760405162461bcd60e51b81526004016109e490614c18565b610135548214610f925760405162461bcd60e51b81526004016109e490614d1b565b610f9b82613561565b610fb75760405162461bcd60e51b81526004016109e490614c81565b60008281526101386020908152604080832033845290915290206001015415610ff25760405162461bcd60e51b81526004016109e490614cad565b6001600160a01b03818116600090815261013b60205260409020541661102a5760405162461bcd60e51b81526004016109e490614d93565b610134546000838152610139602090815260408083206001600160a01b0386168452600701909152902054111561106057600080fd5b6101325461108473b2d7b35539a543bbe4c74965488ffe33c6721f0d3330846135c3565b60008381526101396020526040902060038101546110a3908390614ec4565b60038201556000848152610139602090815260408083206001600160a01b038716845260070190915281208054600192906110df908490614ec4565b90915550506000848152610139602090815260408083206001600160a01b0387168452600901909152812080546001929061111b908490614ec4565b9091555050600084815261013860209081526040808320338085529083528184208054600180830189905560ff199091168117610100600160a81b0319166101006001600160a01b038b1690810291909117835561013a86528487208054928301815587529585902001899055915186815291939288927fa5b25d36f56cd85e4b0c405e26aa36e3ccd1bd65be483beb9fd00199e7fe034591015b60405180910390a450506001609755505050565b6111d381613634565b6111ee81604051806020016040528060008152506000613663565b50565b60655460ff166112135760405162461bcd60e51b81526004016109e490614ae5565b61012d546001600160a01b0316331461123e5760405162461bcd60e51b81526004016109e490614d70565b6112466137aa565b610135546040517faaa520fdd7d2c83061d632fa017b0432407e798818af63ea908589fceda39ab790600090a2565b61127e82613634565b61128a82826001613663565b5050565b61013c818154811061129f57600080fd5b6000918252602090912001546001600160a01b0316905081565b60655460ff166112db5760405162461bcd60e51b81526004016109e490614ae5565b61012d546001600160a01b031633146113065760405162461bcd60e51b81526004016109e490614d70565b8061134b5760405162461bcd60e51b815260206004820152601560248201527404d757374206265207375706572696f7220746f203605c1b60448201526064016109e4565b610132819055610135546040518281527f756a45c9025a507f68e64742cf8cdddcfed355f7bc0f53c062b31f698cd3cf769060200160405180910390a250565b60655460ff16156113ae5760405162461bcd60e51b81526004016109e490614b70565b61012e546001600160a01b031633146113d95760405162461bcd60e51b81526004016109e490614d4a565b610135546113e8906001614ec4565b610135819055600110156114075761140261013554613810565b611413565b6114136101355461392d565b61141b61398e565b565b60655460ff16156114405760405162461bcd60e51b81526004016109e490614b70565b600260975414156114635760405162461bcd60e51b81526004016109e490614ce4565b6002609755333b156114875760405162461bcd60e51b81526004016109e490614b13565b3332146114a65760405162461bcd60e51b81526004016109e490614c18565b6101355482146114c85760405162461bcd60e51b81526004016109e490614d1b565b6114d182613561565b6114ed5760405162461bcd60e51b81526004016109e490614c81565b600082815261013860209081526040808320338452909152902060010154156115285760405162461bcd60e51b81526004016109e490614cad565b6001600160a01b03818116600090815261013b6020526040902054166115605760405162461bcd60e51b81526004016109e490614d93565b610134546000838152610139602090815260408083206001600160a01b0386168452600701909152902054111561159657600080fd5b610132546115ba73b2d7b35539a543bbe4c74965488ffe33c6721f0d3330846135c3565b60008381526101396020526040902060038101546115d9908390614ec4565b60038201556000848152610139602090815260408083206001600160a01b03871684526007019091528120805460019290611615908490614ec4565b90915550506000848152610139602090815260408083206001600160a01b03871684526008019091528120805460019290611651908490614ec4565b909155505060008481526101386020908152604080832033808552908352818420805460018083018990556001600160a81b03199091166101006001600160a01b038b1690810291909117835561013a86528487208054928301815587529585902001899055915186815291939288927fd6901fb0fb7d389370275133fe2d4b4cadcef7f51e8683d3e1faccb425908a1091016111b6565b60655460ff161561170c5760405162461bcd60e51b81526004016109e490614b70565b61012d546001600160a01b031633146117375760405162461bcd60e51b81526004016109e490614d70565b60005b8251811015611a585760006001600160a01b031683828151811061176e57634e487b7160e01b600052603260045260246000fd5b60200260200101516001600160a01b0316141580156117c7575060006001600160a01b03168282815181106117b357634e487b7160e01b600052603260045260246000fd5b60200260200101516001600160a01b031614155b6118215760405162461bcd60e51b815260206004820152602560248201527f507265646963746f696e3a2043616e6e6f74206164642061207a65726f206164604482015264647265737360d81b60648201526084016109e4565b60006001600160a01b031661013b600085848151811061185157634e487b7160e01b600052603260045260246000fd5b6020908102919091018101516001600160a01b039081168352908201929092526040016000205416146118c65760405162461bcd60e51b815260206004820152601f60248201527f507265646963746f696e3a2043616e6e6f742072656164206120746f6b656e0060448201526064016109e4565b61013c8382815181106118e957634e487b7160e01b600052603260045260246000fd5b60209081029190910181015182546001810184556000938452919092200180546001600160a01b0319166001600160a01b03909216919091179055815182908290811061194657634e487b7160e01b600052603260045260246000fd5b602002602001015161013b600085848151811061197357634e487b7160e01b600052603260045260246000fd5b60200260200101516001600160a01b03166001600160a01b0316815260200190815260200160002060006101000a8154816001600160a01b0302191690836001600160a01b031602179055507fdffbd9ded1c09446f09377de547142dcce7dc541c8b0b028142b1eba7026b9e7838281518110611a0057634e487b7160e01b600052603260045260246000fd5b6020026020010151838381518110611a2857634e487b7160e01b600052603260045260246000fd5b6020026020010151604051611a3e92919061497f565b60405180910390a180611a5081614f1f565b91505061173a565b505050565b60026097541415611a805760405162461bcd60e51b81526004016109e490614ce4565b6002609755333b15611aa45760405162461bcd60e51b81526004016109e490614b13565b333214611ac35760405162461bcd60e51b81526004016109e490614c18565b6000805b82811015611c9157611aff848483818110611af257634e487b7160e01b600052603260045260246000fd5b9050602002013533612398565b611b455760405162461bcd60e51b8152602060048201526017602482015276139bdd08195b1a59da589b1948199bdc881c99599d5b99604a1b60448201526064016109e4565b60016101386000868685818110611b6c57634e487b7160e01b600052603260045260246000fd5b6020908102929092013583525081810192909252604090810160009081203382529092528120600201805460ff19169215159290921790915561013890858584818110611bc957634e487b7160e01b600052603260045260246000fd5b9050602002013581526020019081526020016000206000336001600160a01b03166001600160a01b031681526020019081526020016000206001015482611c109190614ec4565b9150838382818110611c3257634e487b7160e01b600052603260045260246000fd5b90506020020135336001600160a01b03167f34fcbac0073d7c3d388e51312faf357774904998eeb8fca628b9e6f65ee1cbf761013254604051611c7791815260200190565b60405180910390a380611c8981614f1f565b915050611ac7565b50611cb173b2d7b35539a543bbe4c74965488ffe33c6721f0d3383613a57565b5050600160975550565b60655460ff16611cdd5760405162461bcd60e51b81526004016109e490614ae5565b61012d546001600160a01b03163314611d085760405162461bcd60e51b81526004016109e490614d70565b6101348190556040518181527f40494135fc3982f9f9b9d5b6088aeee5160b1bf3cb18f59b9f317228111da8f7906020015b60405180910390a150565b33611d4e612645565b6001600160a01b031614611d745760405162461bcd60e51b81526004016109e490614c4c565b6001600160a01b038116611d9a5760405162461bcd60e51b81526004016109e490614b9a565b61012d80546001600160a01b0319166001600160a01b0383161790556040517f137b621413925496477d46e5055ac0d56178bdd724ba8bf843afceef18268ba390611d3a90839061496b565b33611def612645565b6001600160a01b031614611e155760405162461bcd60e51b81526004016109e490614c4c565b61141b6000613a87565b60655460ff1615611e425760405162461bcd60e51b81526004016109e490614b70565b61012e546001600160a01b03163314611e6d5760405162461bcd60e51b81526004016109e490614d4a565b611e75613ad9565b6101396000610135548152602001908152602001600020600301546101336000828254611ea29190614ec4565b9091555050565b60655460ff16611ecb5760405162461bcd60e51b81526004016109e490614ae5565b61012d546001600160a01b03163314611ef65760405162461bcd60e51b81526004016109e490614d70565b60005b8251811015611a585760006001600160a01b0316828281518110611f2d57634e487b7160e01b600052603260045260246000fd5b60200260200101516001600160a01b03161415611f5c5760405162461bcd60e51b81526004016109e490614b9a565b60006001600160a01b031661013b6000858481518110611f8c57634e487b7160e01b600052603260045260246000fd5b6020908102919091018101516001600160a01b0390811683529082019290925260400160002054161415611fd25760405162461bcd60e51b81526004016109e490614b41565b818181518110611ff257634e487b7160e01b600052603260045260246000fd5b602002602001015161013b600085848151811061201f57634e487b7160e01b600052603260045260246000fd5b60200260200101516001600160a01b03166001600160a01b0316815260200190815260200160002060006101000a8154816001600160a01b0302191690836001600160a01b0316021790555061013b600084838151811061209057634e487b7160e01b600052603260045260246000fd5b60200260200101516001600160a01b03166001600160a01b0316815260200190815260200160002060009054906101000a90046001600160a01b03166001600160a01b031663feaf968c6040518163ffffffff1660e01b815260040160a06040518083038186803b15801561210457600080fd5b505afa158015612118573d6000803e3d6000fd5b505050506040513d601f19601f8201168201806040525081019061213c919061486c565b50505050507f08763b8c90c5db415d7b7f0e18ec87eda82e24e52e2ea8135d44e17db46d85bb82828151811061218257634e487b7160e01b600052603260045260246000fd5b60200260200101518483815181106121aa57634e487b7160e01b600052603260045260246000fd5b60200260200101516040516121c092919061497f565b60405180910390a1806121d281614f1f565b915050611ef9565b60608060606121e7612e85565b925082516001600160401b0381111561221057634e487b7160e01b600052604160045260246000fd5b604051908082528060200260200182016040528015612239578160200160208202803683370190505b50915082516001600160401b0381111561226357634e487b7160e01b600052604160045260246000fd5b60405190808252806020026020018201604052801561228c578160200160208202803683370190505b506000858152610139602052604081209192505b845181101561238f5760008582815181106122cb57634e487b7160e01b600052603260045260246000fd5b60200260200101519050826008016000826001600160a01b03166001600160a01b031681526020019081526020016000205485838151811061231d57634e487b7160e01b600052603260045260246000fd5b602002602001018181525050826009016000826001600160a01b03166001600160a01b031681526020019081526020016000205484838151811061237157634e487b7160e01b600052603260045260246000fd5b6020908102919091010152508061238781614f1f565b9150506122a0565b50509193909250565b6000828152610138602090815260408083206001600160a01b0385168452909152808220815160808101909252805483929190829060ff1660018111156123ef57634e487b7160e01b600052602160045260246000fd5b600181111561240e57634e487b7160e01b600052602160045260246000fd5b8152815461010090046001600160a01b0316602080830191909152600183015460408084019190915260029093015460ff90811615156060909301929092526000888152610139909152919091206004810154929350911615801561247557508160600151155b8015612492575061012f54816002015461248f9190614ec4565b42115b80156124a15750604082015115155b95945050505050565b60655460ff16156124cd5760405162461bcd60e51b81526004016109e490614b70565b61012d546001600160a01b03163314806124f2575061012e546001600160a01b031633145b6125335760405162461bcd60e51b81526020600482015260126024820152712737ba1037b832b930ba37b917b0b236b4b760711b60448201526064016109e4565b61253b613c2e565b610135546040517f68b095021b1f40fe513109f513c66692f0b3219aee674a69f4efc57badb8201d90600090a2565b600054610100900460ff1680612583575060005460ff16155b61259f5760405162461bcd60e51b81526004016109e490614bca565b600054610100900460ff161580156125ca576000805460ff1961ff0019909116610100171660011790555b6125d2613c86565b61012d80546001600160a01b03808c166001600160a01b03199283161790925561012e8054928b169290911691909117905561013087905561012f869055610132849055610137839055610134829055610131859055801561263a576000805461ff00191690555b505050505050505050565b6033546001600160a01b031690565b6000818152610139602052604090206001810154600282015460038301546004840154859460ff9091169060609081908190819081908190612694612e85565b965086516001600160401b038111156126bd57634e487b7160e01b600052604160045260246000fd5b6040519080825280602002602001820160405280156126e6578160200160208202803683370190505b50955086516001600160401b0381111561271057634e487b7160e01b600052604160045260246000fd5b604051908082528060200260200182016040528015612739578160200160208202803683370190505b50945086516001600160401b0381111561276357634e487b7160e01b600052604160045260246000fd5b60405190808252806020026020018201604052801561278c578160200160208202803683370190505b50935086516001600160401b038111156127b657634e487b7160e01b600052604160045260246000fd5b6040519080825280602002602001820160405280156127df578160200160208202803683370190505b50925086516001600160401b0381111561280957634e487b7160e01b600052604160045260246000fd5b604051908082528060200260200182016040528015612832578160200160208202803683370190505b50915060005b8751811015612a2357600088828151811061286357634e487b7160e01b600052603260045260246000fd5b6020026020010151905082600a016000826001600160a01b03166001600160a01b03168152602001908152602001600020548883815181106128b557634e487b7160e01b600052603260045260246000fd5b60200260200101818152505082600b016000826001600160a01b03166001600160a01b031681526020019081526020016000205487838151811061290957634e487b7160e01b600052603260045260246000fd5b602002602001018181525050826005016000826001600160a01b03166001600160a01b031681526020019081526020016000205486838151811061295d57634e487b7160e01b600052603260045260246000fd5b602002602001018181525050826006016000826001600160a01b03166001600160a01b03168152602001908152602001600020548583815181106129b157634e487b7160e01b600052603260045260246000fd5b602002602001018181525050826007016000826001600160a01b03166001600160a01b0316815260200190815260200160002054848381518110612a0557634e487b7160e01b600052603260045260246000fd5b60209081029190910101525080612a1b81614f1f565b915050612838565b505091939597999b90929496989a50565b60655460ff16612a565760405162461bcd60e51b81526004016109e490614ae5565b61012d546001600160a01b03163314612a815760405162461bcd60e51b81526004016109e490614d70565b818310612aea5760405162461bcd60e51b815260206004820152603160248201527f6275666665725365636f6e6473206d75737420626520696e666572696f7220746044820152706f20696e74657276616c5365636f6e647360781b60648201526084016109e4565b818110612b505760405162461bcd60e51b815260206004820152602e60248201527f6265745365636f6e6473206d75737420626520696e666572696f7220746f206960448201526d6e74657276616c5365636f6e647360901b60648201526084016109e4565b61012f83905561013082905561013181905560408051848152602081018490527fe60149e0431fec12df63dfab5fce2a9cefe9a4d3df5f41cb626f579ae1f2b91a910160405180910390a1505050565b6001600160a01b038316600090815261013a602052604081205460609182918490612bcc908790614edc565b811115612bfb576001600160a01b038716600090815261013a6020526040902054612bf8908790614edc565b90505b6000816001600160401b03811115612c2357634e487b7160e01b600052604160045260246000fd5b604051908082528060200260200182016040528015612c4c578160200160208202803683370190505b5090506000826001600160401b03811115612c7757634e487b7160e01b600052604160045260246000fd5b604051908082528060200260200182016040528015612cc957816020015b604080516080810182526000808252602080830182905292820181905260608201528252600019909201910181612c955790505b50905060005b83811015612e66576001600160a01b038a16600090815261013a60205260409020612cfa828b614ec4565b81548110612d1857634e487b7160e01b600052603260045260246000fd5b9060005260206000200154838281518110612d4357634e487b7160e01b600052603260045260246000fd5b6020026020010181815250506101386000848381518110612d7457634e487b7160e01b600052603260045260246000fd5b602090810291909101810151825281810192909252604090810160009081206001600160a01b038e168252909252908190208151608081019092528054829060ff166001811115612dd557634e487b7160e01b600052602160045260246000fd5b6001811115612df457634e487b7160e01b600052602160045260246000fd5b8152815461010090046001600160a01b031660208201526001820154604082015260029091015460ff1615156060909101528251839083908110612e4857634e487b7160e01b600052603260045260246000fd5b60200260200101819052508080612e5e90614f1f565b915050612ccf565b508181612e73858b614ec4565b95509550955050505093509350939050565b606061013c805480602002602001604051908101604052809291908181526020018280548015612ede57602002820191906000526020600020905b81546001600160a01b03168152600190910190602001808311612ec0575b5050505050905090565b33612ef1612645565b6001600160a01b031614612f175760405162461bcd60e51b81526004016109e490614c4c565b6001600160a01b03821673b2d7b35539a543bbe4c74965488ffe33c6721f0d1415612f7f5760405162461bcd60e51b8152602060048201526018602482015277141c99590818d85b9b9bdd081899481c9958dbdd995c995960421b60448201526064016109e4565b612f936001600160a01b0383163383613a57565b816001600160a01b03167f14f11966a996e0629572e51064726d2057a80fbd34efc066682c06a71dbb6e9882604051612fce91815260200190565b60405180910390a25050565b61012d546001600160a01b031633146130055760405162461bcd60e51b81526004016109e490614d70565b6001600160a01b03811661302b5760405162461bcd60e51b81526004016109e490614b9a565b61012e80546001600160a01b0319166001600160a01b0383161790556040517fc47d127c07bdd56c5ccba00463ce3bd3c1bca71b4670eea6e5d0c02e4aa156e290611d3a90839061496b565b60655460ff166130995760405162461bcd60e51b81526004016109e490614ae5565b61012d546001600160a01b031633146130c45760405162461bcd60e51b81526004016109e490614d70565b6101378190556040518181527f93ccaceac092ffb842c46b8718667a13a80e9058dcd0bd403d0b47215b30da0790602001611d3a565b61013a602052816000526040600020818154811061311757600080fd5b90600052602060002001600091509150505481565b33613135612645565b6001600160a01b03161461315b5760405162461bcd60e51b81526004016109e490614c4c565b6001600160a01b0381166131c05760405162461bcd60e51b815260206004820152602660248201527f4f776e61626c653a206e6577206f776e657220697320746865207a65726f206160448201526564647265737360d01b60648201526084016109e4565b6111ee81613a87565b60655460ff16156131ec5760405162461bcd60e51b81526004016109e490614b70565b61012d546001600160a01b031633146132175760405162461bcd60e51b81526004016109e490614d70565b60005b815181101561128a5760006001600160a01b031661013c83838151811061325157634e487b7160e01b600052603260045260246000fd5b60200260200101518154811061327757634e487b7160e01b600052603260045260246000fd5b6000918252602090912001546001600160a01b031614156132aa5760405162461bcd60e51b81526004016109e490614b41565b61013b600061013c8484815181106132d257634e487b7160e01b600052603260045260246000fd5b6020026020010151815481106132f857634e487b7160e01b600052603260045260246000fd5b60009182526020808320909101546001600160a01b03168352820192909252604001902080546001600160a01b031916905561013c805461333b90600190614edc565b8154811061335957634e487b7160e01b600052603260045260246000fd5b9060005260206000200160009054906101000a90046001600160a01b031661013c83838151811061339a57634e487b7160e01b600052603260045260246000fd5b6020026020010151815481106133c057634e487b7160e01b600052603260045260246000fd5b9060005260206000200160006101000a8154816001600160a01b0302191690836001600160a01b0316021790555061013c80548061340e57634e487b7160e01b600052603160045260246000fd5b6001900381819060005260206000200160006101000a8154906001600160a01b03021916905590557fbbe55b1ff108e23e5ff1a6f5d36946eec15ec0ca0ded2bfed4cdcf697ca9046061013c83838151811061347a57634e487b7160e01b600052603260045260246000fd5b6020026020010151815481106134a057634e487b7160e01b600052603260045260246000fd5b9060005260206000200160009054906101000a90046001600160a01b031661013b600061013c8686815181106134e657634e487b7160e01b600052603260045260246000fd5b60200260200101518154811061350c57634e487b7160e01b600052603260045260246000fd5b60009182526020808320909101546001600160a01b03908116845290830193909352604091820190205490516135479392919091169061497f565b60405180910390a18061355981614f1f565b91505061321a565b600081815261013960205260408120600101541580159061359357506000828152610139602052604090206001015442115b8015610cdc575061013154600083815261013960205260409020600101546135bb9190614ec4565b421092915050565b6040516001600160a01b038085166024830152831660448201526064810182905261362e9085906323b872dd60e01b906084015b60408051601f198184030181529190526020810180516001600160e01b03166001600160e01b031990931692909217909152613d0a565b50505050565b3361363d612645565b6001600160a01b0316146111ee5760405162461bcd60e51b81526004016109e490614c4c565b600061366d613ddc565b905061367884613e0a565b6000835111806136855750815b15613696576136948484613eaf565b505b7f4910fdfa16fed3260ed0e7147f7cc6da11a60208b5b9406d12a635614ffd9143805460ff166137a357805460ff191660011781556040516137119086906136e290859060240161496b565b60408051601f198184030181529190526020810180516001600160e01b0316631b2ce7f360e11b179052613eaf565b50805460ff19168155613722613ddc565b6001600160a01b0316826001600160a01b03161461379a5760405162461bcd60e51b815260206004820152602f60248201527f45524331393637557067726164653a207570677261646520627265616b73206660448201526e75727468657220757067726164657360881b60648201526084016109e4565b6137a385613f91565b5050505050565b60655460ff166137cc5760405162461bcd60e51b81526004016109e490614ae5565b6065805460ff191690557f5db9ee0a495bf2e6ff9c91a7834c1ba4fdd244a5e8aa4e537bd38aeae4b073aa335b604051613806919061496b565b60405180910390a1565b6101396000613820600184614edc565b815260200190815260200160002060020154600014156138995760405162461bcd60e51b815260206004820152602e60248201527f43616e206f6e6c7920737461727420726f756e6420616674657220726f756e6460448201526d081b8b4c481a185cc8195b99195960921b60648201526084016109e4565b61013960006138a9600184614edc565b8152602001908152602001600020600201544210156139285760405162461bcd60e51b815260206004820152603560248201527f43616e206f6e6c79207374617274206e657720726f756e64206166746572207260448201527406f756e64206e2d3120656e6454696d657374616d7605c1b60648201526084016109e4565b6111ee815b60008181526101396020526040902042600182018190556101305461395191614ec4565b600282015581815560006003820181905560405183917f939f42374aa9bf1d8d8cd56d8a9110cb040cd8dfeae44080c6fcf2645e51b45291a25050565b61013554600090815261013960205260408120905b61013c5481101561128a57600061013c82815481106139d257634e487b7160e01b600052603260045260246000fd5b60009182526020808320909101546001600160a01b0390811680845261013b90925260408320549193508291613a089116613fd1565b6001600160a01b039094166000908152600a87016020908152604080832096909655600588019052939093206001600160501b0390931690925550819050613a4f81614f1f565b9150506139a3565b6040516001600160a01b038316602482015260448101829052611a5890849063a9059cbb60e01b906064016135f7565b603380546001600160a01b038381166001600160a01b0319831681179093556040519116919082907f8be0079c531659141344cd1fd0a4f28419497f9722a3daafe3b4186f6b6457e090600090a35050565b6101355460009081526101396020526040902060010154613b305760405162461bcd60e51b8152602060048201526011602482015270149bdd5b99081b9bdd081cdd185c9d1959607a1b60448201526064016109e4565b6101355460009081526101396020526040902060020154421015613b8f5760405162461bcd60e51b815260206004820152601660248201527504e6f742079657420636c6f736554696d657374616d760541b60448201526064016109e4565b61012f546101355460009081526101396020526040902060020154613bb49190614ec4565b421115613bfc5760405162461bcd60e51b8152602060048201526016602482015275109d5999995c94d958dbdb991cc8195e18d95959195960521b60448201526064016109e4565b61013554600090815261013960205260409020426002820155613c1e81614159565b600401805460ff19166001179055565b60655460ff1615613c515760405162461bcd60e51b81526004016109e490614b70565b6065805460ff191660011790557f62e78cea01bee320cd4e420270b5ea74000d11b0c9f74754ebdbfc544b05a2586137f93390565b600054610100900460ff1680613c9f575060005460ff16155b613cbb5760405162461bcd60e51b81526004016109e490614bca565b600054610100900460ff16158015613ce6576000805460ff1961ff0019909116610100171660011790555b613cee614210565b613cf6614283565b80156111ee576000805461ff001916905550565b6000613d5f826040518060400160405280602081526020017f5361666545524332303a206c6f772d6c6576656c2063616c6c206661696c6564815250856001600160a01b03166142ec9092919063ffffffff16565b805190915015611a585780806020019051810190613d7d91906147de565b611a585760405162461bcd60e51b815260206004820152602a60248201527f5361666545524332303a204552433230206f7065726174696f6e20646964206e6044820152691bdd081cdd58d8d9595960b21b60648201526084016109e4565b7f360894a13ba1a3210667c828492db98dca3e2076cc3735a920a3ca505d382bbc546001600160a01b031690565b803b613e6e5760405162461bcd60e51b815260206004820152602d60248201527f455243313936373a206e657720696d706c656d656e746174696f6e206973206e60448201526c1bdd08184818dbdb9d1c9858dd609a1b60648201526084016109e4565b7f360894a13ba1a3210667c828492db98dca3e2076cc3735a920a3ca505d382bbc80546001600160a01b0319166001600160a01b0392909216919091179055565b6060823b613f0e5760405162461bcd60e51b815260206004820152602660248201527f416464726573733a2064656c65676174652063616c6c20746f206e6f6e2d636f6044820152651b9d1c9858dd60d21b60648201526084016109e4565b600080846001600160a01b031684604051613f29919061494f565b600060405180830381855af49150503d8060008114613f64576040519150601f19603f3d011682016040523d82523d6000602084013e613f69565b606091505b50915091506124a18282604051806060016040528060278152602001614f6760279139614305565b613f9a81613e0a565b6040516001600160a01b038216907fbc7cd75a20ee27fd9adebab32041f755214dbc6bffa90cc0225b39da2e5c2d3b90600090a250565b60008060006101375442613fe59190614ec4565b90506000806000866001600160a01b031663feaf968c6040518163ffffffff1660e01b815260040160a06040518083038186803b15801561402557600080fd5b505afa158015614039573d6000803e3d6000fd5b505050506040513d601f19601f8201168201806040525081019061405d919061486c565b5093505092509250838111156140cc5760405162461bcd60e51b815260206004820152602e60248201527f4f7261636c6520757064617465206578636565646564206d61782074696d657360448201526d74616d7020616c6c6f77616e636560901b60648201526084016109e4565b61013654836001600160501b03161161414d5760405162461bcd60e51b815260206004820152603d60248201527f4f7261636c652075706461746520726f756e644964206d757374206265206c6160448201527f72676572207468616e206f7261636c654c6174657374526f756e64496400000060648201526084016109e4565b50909350915050915091565b60005b61013c5481101561128a57600061013c828154811061418b57634e487b7160e01b600052603260045260246000fd5b60009182526020808320909101546001600160a01b0390811680845261013b909252604083205491935082916141c19116613fd1565b6001600160a01b039094166000908152600b87016020908152604080832096909655600688019052939093206001600160501b039093169092555081905061420881614f1f565b91505061415c565b600054610100900460ff1680614229575060005460ff16155b6142455760405162461bcd60e51b81526004016109e490614bca565b600054610100900460ff16158015613cf6576000805460ff1961ff00199091166101001716600117905580156111ee576000805461ff001916905550565b600054610100900460ff168061429c575060005460ff16155b6142b85760405162461bcd60e51b81526004016109e490614bca565b600054610100900460ff161580156142e3576000805460ff1961ff0019909116610100171660011790555b613cf633613a87565b60606142fb848460008561433e565b90505b9392505050565b606083156143145750816142fe565b8251156143245782518084602001fd5b8160405162461bcd60e51b81526004016109e49190614ab2565b60608247101561439f5760405162461bcd60e51b815260206004820152602660248201527f416464726573733a20696e73756666696369656e742062616c616e636520666f6044820152651c8818d85b1b60d21b60648201526084016109e4565b843b6143ed5760405162461bcd60e51b815260206004820152601d60248201527f416464726573733a2063616c6c20746f206e6f6e2d636f6e747261637400000060448201526064016109e4565b600080866001600160a01b03168587604051614409919061494f565b60006040518083038185875af1925050503d8060008114614446576040519150601f19603f3d011682016040523d82523d6000602084013e61444b565b606091505b509150915061445b828286614305565b979650505050505050565b80356001600160a01b0381168114610ee257600080fd5b600082601f83011261448d578081fd5b813560206144a261449d83614ea1565b614e71565b82815281810190858301838502870184018810156144be578586fd5b855b858110156144e3576144d182614466565b845292840192908401906001016144c0565b5090979650505050505050565b80516001600160501b0381168114610ee257600080fd5b600060208284031215614518578081fd5b6142fe82614466565b600080600080600080600080610100898b03121561453d578384fd5b61454689614466565b975061455460208a01614466565b979a9799505050506040860135956060810135956080820135955060a0820135945060c0820135935060e0909101359150565b60008060408385031215614599578182fd5b6145a283614466565b91506020808401356001600160401b03808211156145be578384fd5b818601915086601f8301126145d1578384fd5b8135818111156145e3576145e3614f50565b6145f5601f8201601f19168501614e71565b9150808252878482850101111561460a578485fd5b8084840185840137810190920192909252919491935090915050565b60008060408385031215614638578182fd5b61464183614466565b946020939093013593505050565b600080600060608486031215614663578283fd5b61466c84614466565b95602085013595506040909401359392505050565b60008060408385031215614693578182fd5b82356001600160401b03808211156146a9578384fd5b6146b58683870161447d565b935060208501359150808211156146ca578283fd5b506146d78582860161447d565b9150509250929050565b600080602083850312156146f3578182fd5b82356001600160401b0380821115614709578384fd5b818501915085601f83011261471c578384fd5b81358181111561472a578485fd5b866020808302850101111561473d578485fd5b60209290920196919550909350505050565b60006020808385031215614761578182fd5b82356001600160401b03811115614776578283fd5b8301601f81018513614786578283fd5b803561479461449d82614ea1565b81815283810190838501858402850186018910156147b0578687fd5b8694505b838510156147d25780358352600194909401939185019185016147b4565b50979650505050505050565b6000602082840312156147ef578081fd5b815180151581146142fe578182fd5b60006020828403121561480f578081fd5b5035919050565b60008060408385031215614828578182fd5b8235915061483860208401614466565b90509250929050565b600080600060608486031215614855578081fd5b505081359360208301359350604090920135919050565b600080600080600060a08688031215614883578283fd5b61488c866144f0565b94506020860151935060408601519250606086015191506148af608087016144f0565b90509295509295909350565b6000815180845260208085019450808401835b838110156148f35781516001600160a01b0316875295820195908201906001016148ce565b509495945050505050565b6000815180845260208085019450808401835b838110156148f357815187529582019590820190600101614911565b6002811061494b57634e487b7160e01b600052602160045260246000fd5b9052565b60008251614961818460208701614ef3565b9190910192915050565b6001600160a01b0391909116815260200190565b6001600160a01b0392831681529116602082015260400190565b6000602082526142fe60208301846148bb565b6000606082526149bf60608301866148bb565b82810360208401526149d181866148fe565b905082810360408401526149e581856148fe565b9695505050505050565b60006060808352614a02818401876148fe565b838103602085810191909152865180835287820192820190855b81811015614a67578451614a3184825161492d565b808501516001600160a01b0316848601526040808201519085015286015115158684015293830193608090920191600101614a1c565b505080945050505050826040830152949350505050565b60808101614a8c828761492d565b6001600160a01b0394909416602082015260408101929092521515606090910152919050565b6000602082528251806020840152614ad1816040850160208701614ef3565b601f01601f19169190910160400192915050565b60208082526014908201527314185d5cd8589b194e881b9bdd081c185d5cd95960621b604082015260600190565b60208082526014908201527310dbdb9d1c9858dd081b9bdd08185b1b1bddd95960621b604082015260600190565b602080825260159082015274546f6b656e206e6f74207072656469637461626c6560581b604082015260600190565b60208082526010908201526f14185d5cd8589b194e881c185d5cd95960821b604082015260600190565b60208082526016908201527543616e6e6f74206265207a65726f206164647265737360501b604082015260600190565b6020808252602e908201527f496e697469616c697a61626c653a20636f6e747261637420697320616c72656160408201526d191e481a5b9a5d1a585b1a5e995960921b606082015260800190565b6020808252601a9082015279141c9bde1e4818dbdb9d1c9858dd081b9bdd08185b1b1bddd95960321b604082015260600190565b6020808252818101527f4f776e61626c653a2063616c6c6572206973206e6f7420746865206f776e6572604082015260600190565b602080825260129082015271526f756e64206e6f74206265747461626c6560701b604082015260600190565b6020808252601b908201527f43616e206f6e6c7920626574206f6e63652070657220726f756e640000000000604082015260600190565b6020808252601f908201527f5265656e7472616e637947756172643a207265656e7472616e742063616c6c00604082015260600190565b60208082526015908201527442657420697320746f6f206561726c792f6c61746560581b604082015260600190565b6020808252600c908201526b2737ba1037b832b930ba37b960a11b604082015260600190565b6020808252600990820152682737ba1030b236b4b760b91b604082015260600190565b60208082526017908201527621b0b713ba10383932b234b1ba103337b9103a37b5b2b760491b604082015260600190565b60006101608d83528c60208401528b60408401528a606084015289151560808401528060a0840152614df88184018a6148bb565b905082810360c0840152614e0c81896148fe565b905082810360e0840152614e2081886148fe565b9050828103610100840152614e3581876148fe565b9050828103610120840152614e4a81866148fe565b9050828103610140840152614e5f81856148fe565b9e9d5050505050505050505050505050565b604051601f8201601f191681016001600160401b0381118282101715614e9957614e99614f50565b604052919050565b60006001600160401b03821115614eba57614eba614f50565b5060209081020190565b60008219821115614ed757614ed7614f3a565b500190565b600082821015614eee57614eee614f3a565b500390565b60005b83811015614f0e578181015183820152602001614ef6565b8381111561362e5750506000910152565b6000600019821415614f3357614f33614f3a565b5060010190565b634e487b7160e01b600052601160045260246000fd5b634e487b7160e01b600052604160045260246000fdfe416464726573733a206c6f772d6c6576656c2064656c65676174652063616c6c206661696c6564a2646970667358221220fa4b34ce044f28b7d7307b67eaef60389509ec8e5e82ca559002635448ccefad64736f6c63430008020033",
  "linkReferences": {},
  "deployedLinkReferences": {}
}