{
  "_format": "hh-sol-artifact-1",
  "contractName": "WinnerPredictionPool",
  "sourceName": "contracts/WinnerPredictionPool.sol",
  "abi": [
    {
      "anonymous": false,
      "inputs": [
        {
          "indexed": false,
          "internalType": "address",
          "name": "previousAdmin",
          "type": "address"
        },
        {
          "indexed": false,
          "internalType": "address",
          "name": "newAdmin",
          "type": "address"
        }
      ],
      "name": "AdminChanged",
      "type": "event"
    },
    {
      "anonymous": false,
      "inputs": [
        {
          "indexed": true,
          "internalType": "address",
          "name": "beacon",
          "type": "address"
        }
      ],
      "name": "BeaconUpgraded",
      "type": "event"
    },
    {
      "anonymous": false,
      "inputs": [
        {
          "indexed": true,
          "internalType": "address",
          "name": "user",
          "type": "address"
        },
        {
          "indexed": true,
          "internalType": "uint256",
          "name": "pid",
          "type": "uint256"
        },
        {
          "indexed": false,
          "internalType": "uint256",
          "name": "amount",
          "type": "uint256"
        }
      ],
      "name": "Deposit",
      "type": "event"
    },
    {
      "anonymous": false,
      "inputs": [
        {
          "indexed": true,
          "internalType": "address",
          "name": "user",
          "type": "address"
        },
        {
          "indexed": true,
          "internalType": "uint256",
          "name": "pid",
          "type": "uint256"
        },
        {
          "indexed": false,
          "internalType": "uint256",
          "name": "amount",
          "type": "uint256"
        }
      ],
      "name": "EmergencyWithdraw",
      "type": "event"
    },
    {
      "anonymous": false,
      "inputs": [
        {
          "indexed": true,
          "internalType": "address",
          "name": "previousOwner",
          "type": "address"
        },
        {
          "indexed": true,
          "internalType": "address",
          "name": "newOwner",
          "type": "address"
        }
      ],
      "name": "OwnershipTransferred",
      "type": "event"
    },
    {
      "anonymous": false,
      "inputs": [
        {
          "indexed": false,
          "internalType": "address",
          "name": "account",
          "type": "address"
        }
      ],
      "name": "Paused",
      "type": "event"
    },
    {
      "anonymous": false,
      "inputs": [
        {
          "indexed": false,
          "internalType": "address",
          "name": "account",
          "type": "address"
        }
      ],
      "name": "Unpaused",
      "type": "event"
    },
    {
      "anonymous": false,
      "inputs": [
        {
          "indexed": true,
          "internalType": "address",
          "name": "implementation",
          "type": "address"
        }
      ],
      "name": "Upgraded",
      "type": "event"
    },
    {
      "anonymous": false,
      "inputs": [
        {
          "indexed": true,
          "internalType": "address",
          "name": "user",
          "type": "address"
        },
        {
          "indexed": true,
          "internalType": "uint256",
          "name": "pid",
          "type": "uint256"
        },
        {
          "indexed": false,
          "internalType": "uint256",
          "name": "amount",
          "type": "uint256"
        }
      ],
      "name": "Withdraw",
      "type": "event"
    },
    {
      "inputs": [],
      "name": "BONUS_MULTIPLIER",
      "outputs": [
        {
          "internalType": "uint256",
          "name": "",
          "type": "uint256"
        }
      ],
      "stateMutability": "view",
      "type": "function"
    },
    {
      "inputs": [
        {
          "internalType": "uint256",
          "name": "_epoch",
          "type": "uint256"
        }
      ],
      "name": "add",
      "outputs": [],
      "stateMutability": "nonpayable",
      "type": "function"
    },
    {
      "inputs": [],
      "name": "allocPoint",
      "outputs": [
        {
          "internalType": "uint256",
          "name": "",
          "type": "uint256"
        }
      ],
      "stateMutability": "view",
      "type": "function"
    },
    {
      "inputs": [
        {
          "internalType": "uint256",
          "name": "_pid",
          "type": "uint256"
        },
        {
          "internalType": "uint256",
          "name": "_amount",
          "type": "uint256"
        }
      ],
      "name": "deposit",
      "outputs": [],
      "stateMutability": "nonpayable",
      "type": "function"
    },
    {
      "inputs": [
        {
          "internalType": "uint256",
          "name": "_pid",
          "type": "uint256"
        }
      ],
      "name": "emergencyWithdraw",
      "outputs": [],
      "stateMutability": "nonpayable",
      "type": "function"
    },
    {
      "inputs": [
        {
          "internalType": "uint256",
          "name": "_from",
          "type": "uint256"
        },
        {
          "internalType": "uint256",
          "name": "_to",
          "type": "uint256"
        }
      ],
      "name": "getMultiplier",
      "outputs": [
        {
          "internalType": "uint256",
          "name": "",
          "type": "uint256"
        }
      ],
      "stateMutability": "view",
      "type": "function"
    },
    {
      "inputs": [],
      "name": "getPoolLength",
      "outputs": [
        {
          "internalType": "uint256",
          "name": "",
          "type": "uint256"
        }
      ],
      "stateMutability": "view",
      "type": "function"
    },
    {
      "inputs": [
        {
          "internalType": "contract IBEP20",
          "name": "_pred",
          "type": "address"
        },
        {
          "internalType": "uint256",
          "name": "_predPerBlock",
          "type": "uint256"
        },
        {
          "internalType": "uint256",
          "name": "_startBlock",
          "type": "uint256"
        },
        {
          "internalType": "uint256",
          "name": "_maxPredDeposit",
          "type": "uint256"
        },
        {
          "internalType": "contract PredictionWallet",
          "name": "_wallet",
          "type": "address"
        },
        {
          "internalType": "contract IPrediction",
          "name": "_prediction",
          "type": "address"
        }
      ],
      "name": "initialize",
      "outputs": [],
      "stateMutability": "nonpayable",
      "type": "function"
    },
    {
      "inputs": [],
      "name": "maxPredDeposit",
      "outputs": [
        {
          "internalType": "uint256",
          "name": "",
          "type": "uint256"
        }
      ],
      "stateMutability": "view",
      "type": "function"
    },
    {
      "inputs": [],
      "name": "owner",
      "outputs": [
        {
          "internalType": "address",
          "name": "",
          "type": "address"
        }
      ],
      "stateMutability": "view",
      "type": "function"
    },
    {
      "inputs": [],
      "name": "pause",
      "outputs": [],
      "stateMutability": "nonpayable",
      "type": "function"
    },
    {
      "inputs": [],
      "name": "paused",
      "outputs": [
        {
          "internalType": "bool",
          "name": "",
          "type": "bool"
        }
      ],
      "stateMutability": "view",
      "type": "function"
    },
    {
      "inputs": [
        {
          "internalType": "uint256",
          "name": "_pid",
          "type": "uint256"
        },
        {
          "internalType": "address",
          "name": "_user",
          "type": "address"
        }
      ],
      "name": "pendingPred",
      "outputs": [
        {
          "internalType": "uint256",
          "name": "",
          "type": "uint256"
        }
      ],
      "stateMutability": "view",
      "type": "function"
    },
    {
      "inputs": [
        {
          "internalType": "uint256",
          "name": "",
          "type": "uint256"
        }
      ],
      "name": "poolInfo",
      "outputs": [
        {
          "internalType": "uint256",
          "name": "allocPoint",
          "type": "uint256"
        },
        {
          "internalType": "uint256",
          "name": "lastRewardBlock",
          "type": "uint256"
        },
        {
          "internalType": "uint256",
          "name": "accPredPerShare",
          "type": "uint256"
        },
        {
          "internalType": "uint256",
          "name": "epoch",
          "type": "uint256"
        }
      ],
      "stateMutability": "view",
      "type": "function"
    },
    {
      "inputs": [],
      "name": "poolLength",
      "outputs": [
        {
          "internalType": "uint256",
          "name": "",
          "type": "uint256"
        }
      ],
      "stateMutability": "view",
      "type": "function"
    },
    {
      "inputs": [],
      "name": "pred",
      "outputs": [
        {
          "internalType": "contract IBEP20",
          "name": "",
          "type": "address"
        }
      ],
      "stateMutability": "view",
      "type": "function"
    },
    {
      "inputs": [],
      "name": "predPerBlock",
      "outputs": [
        {
          "internalType": "uint256",
          "name": "",
          "type": "uint256"
        }
      ],
      "stateMutability": "view",
      "type": "function"
    },
    {
      "inputs": [],
      "name": "prediction",
      "outputs": [
        {
          "internalType": "contract IPrediction",
          "name": "",
          "type": "address"
        }
      ],
      "stateMutability": "view",
      "type": "function"
    },
    {
      "inputs": [],
      "name": "renounceOwnership",
      "outputs": [],
      "stateMutability": "nonpayable",
      "type": "function"
    },
    {
      "inputs": [
        {
          "internalType": "uint256",
          "name": "_allocPoint",
          "type": "uint256"
        }
      ],
      "name": "setAllocPoint",
      "outputs": [],
      "stateMutability": "nonpayable",
      "type": "function"
    },
    {
      "inputs": [
        {
          "internalType": "uint256",
          "name": "_maxPredDeposit",
          "type": "uint256"
        }
      ],
      "name": "setMaxPredDeposit",
      "outputs": [],
      "stateMutability": "nonpayable",
      "type": "function"
    },
    {
      "inputs": [],
      "name": "startBlock",
      "outputs": [
        {
          "internalType": "uint256",
          "name": "",
          "type": "uint256"
        }
      ],
      "stateMutability": "view",
      "type": "function"
    },
    {
      "inputs": [],
      "name": "totalRewardDebt",
      "outputs": [
        {
          "internalType": "uint256",
          "name": "",
          "type": "uint256"
        }
      ],
      "stateMutability": "view",
      "type": "function"
    },
    {
      "inputs": [
        {
          "internalType": "address",
          "name": "newOwner",
          "type": "address"
        }
      ],
      "name": "transferOwnership",
      "outputs": [],
      "stateMutability": "nonpayable",
      "type": "function"
    },
    {
      "inputs": [],
      "name": "unpause",
      "outputs": [],
      "stateMutability": "nonpayable",
      "type": "function"
    },
    {
      "inputs": [
        {
          "internalType": "uint256",
          "name": "multiplierNumber",
          "type": "uint256"
        }
      ],
      "name": "updateMultiplier",
      "outputs": [],
      "stateMutability": "nonpayable",
      "type": "function"
    },
    {
      "inputs": [
        {
          "internalType": "uint256",
          "name": "_pid",
          "type": "uint256"
        }
      ],
      "name": "updatePool",
      "outputs": [],
      "stateMutability": "nonpayable",
      "type": "function"
    },
    {
      "inputs": [
        {
          "internalType": "address",
          "name": "newImplementation",
          "type": "address"
        }
      ],
      "name": "upgradeTo",
      "outputs": [],
      "stateMutability": "nonpayable",
      "type": "function"
    },
    {
      "inputs": [
        {
          "internalType": "address",
          "name": "newImplementation",
          "type": "address"
        },
        {
          "internalType": "bytes",
          "name": "data",
          "type": "bytes"
        }
      ],
      "name": "upgradeToAndCall",
      "outputs": [],
      "stateMutability": "payable",
      "type": "function"
    },
    {
      "inputs": [
        {
          "internalType": "uint256",
          "name": "",
          "type": "uint256"
        },
        {
          "internalType": "address",
          "name": "",
          "type": "address"
        }
      ],
      "name": "userInfo",
      "outputs": [
        {
          "internalType": "uint256",
          "name": "amount",
          "type": "uint256"
        },
        {
          "internalType": "uint256",
          "name": "rewardDebt",
          "type": "uint256"
        }
      ],
      "stateMutability": "view",
      "type": "function"
    },
    {
      "inputs": [],
      "name": "wallet",
      "outputs": [
        {
          "internalType": "contract PredictionWallet",
          "name": "",
          "type": "address"
        }
      ],
      "stateMutability": "view",
      "type": "function"
    },
    {
      "inputs": [
        {
          "internalType": "uint256",
          "name": "_pid",
          "type": "uint256"
        },
        {
          "internalType": "uint256",
          "name": "_amount",
          "type": "uint256"
        }
      ],
      "name": "withdraw",
      "outputs": [],
      "stateMutability": "nonpayable",
      "type": "function"
    }
  ],
  "bytecode": "0x608060405234801561001057600080fd5b50612836806100206000396000f3fe6080604052600436106101a35760003560e01c8063715018a6116100e2578063b3944d5211610085578063b3944d52146101a8578063bf9fe138146104ac578063c26780b0146104cc578063d3dd7eb7146104ed578063e0747c9614610504578063e2bbb15814610524578063e5c9ad2e14610544578063f2fde38b14610564576101a3565b8063715018a6146103b457806383bb3877146103c95780638456cb59146103e05780638aa28550146103f55780638da5cb5b1461040b5780638dbb1e3a1461042057806393f1a40b14610440578063ae5241a014610495576101a3565b806348cd4cb11161014a57806348cd4cb1146102c75780634f1ef286146102de57806351eb05a6146102f1578063521eb273146103115780635312ea8e146103315780635c975abb146103515780635ffe6146146103745780636450b8a914610394576101a3565b8063081e3eda146101a85780631003e2d2146101cd5780631526fe27146101ef5780631fc7be891461022f5780632372c916146102455780633659cfe6146102725780633f4ba83a14610292578063441a3e70146102a7575b600080fd5b3480156101b457600080fd5b50610101545b6040519081526020015b60405180910390f35b3480156101d957600080fd5b506101ed6101e836600461238f565b610584565b005b3480156101fb57600080fd5b5061020f61020a36600461238f565b61092e565b6040805194855260208501939093529183015260608201526080016101c4565b34801561023b57600080fd5b506101ba60fd5481565b34801561025157600080fd5b5060fc54610265906001600160a01b031681565b6040516101c49190612570565b34801561027e57600080fd5b506101ed61028d366004612252565b610969565b34801561029e57600080fd5b506101ed610990565b3480156102b357600080fd5b506101ed6102c23660046123ee565b6109c9565b3480156102d357600080fd5b506101ba6101045481565b6101ed6102ec36600461226e565b610b6c565b3480156102fd57600080fd5b506101ed61030c36600461238f565b610b85565b34801561031d57600080fd5b5060ff54610265906001600160a01b031681565b34801561033d57600080fd5b506101ed61034c36600461238f565b610d8e565b34801561035d57600080fd5b5060335460ff1660405190151581526020016101c4565b34801561038057600080fd5b506101ed61038f36600461238f565b610ea1565b3480156103a057600080fd5b506101ba6103af3660046123bf565b610ed5565b3480156103c057600080fd5b506101ed6110b5565b3480156103d557600080fd5b506101ba6101055481565b3480156103ec57600080fd5b506101ed6110ee565b34801561040157600080fd5b506101ba60fe5481565b34801561041757600080fd5b50610265611125565b34801561042c57600080fd5b506101ba61043b3660046123ee565b611134565b34801561044c57600080fd5b5061048061045b3660046123bf565b6101026020908152600092835260408084209091529082529020805460019091015482565b604080519283526020830191909152016101c4565b3480156104a157600080fd5b506101ba6101005481565b3480156104b857600080fd5b506101ed6104c7366004612329565b61114f565b3480156104d857600080fd5b506101ed6104e736600461238f565b61010055565b3480156104f957600080fd5b506101ba6101035481565b34801561051057600080fd5b506101ed61051f36600461238f565b61122d565b34801561053057600080fd5b506101ed61053f3660046123ee565b6112b5565b34801561055057600080fd5b5060fb54610265906001600160a01b031681565b34801561057057600080fd5b506101ed61057f366004612252565b611621565b3361058d611125565b6001600160a01b0316146105bc5760405162461bcd60e51b81526004016105b390612676565b60405180910390fd5b60fc5460405163023c4c9f60e61b8152600481018390526000916001600160a01b031690638f1327c09060240160006040518083038186803b15801561060157600080fd5b505afa158015610615573d6000803e3d6000fd5b505050506040513d6000823e601f3d908101601f1916820160405261063d919081019061240f565b505050505050945050505050806106a75760405162461bcd60e51b815260206004820152602860248201527f526f756e6420776173206e6f74207375636365737366756c206f72206e6f7420604482015267636f6d706c65746560c01b60648201526084016105b3565b60fc5460408051630ecce30160e31b815290516000926001600160a01b031691637667180891600480830192602092919082900301818787803b1580156106ed57600080fd5b505af1158015610701573d6000803e3d6000fd5b505050506040513d601f19601f8201168201806040525081019061072591906123a7565b90508281146108155760fc5460405163023c4c9f60e61b8152600481018390526000916001600160a01b031690638f1327c09060240160006040518083038186803b15801561077357600080fd5b505afa158015610787573d6000803e3d6000fd5b505050506040513d6000823e601f3d908101601f191682016040526107af919081019061240f565b50505050505094505050505080156108135760405162461bcd60e51b815260206004820152602160248201527f43757272656e7420526f756e6420697320616c726561647920636f6d706c65746044820152606560f81b60648201526084016105b3565b505b610101541561091c576101015460009061083190600190612755565b905083610101828154811061085657634e487b7160e01b600052603260045260246000fd5b906000526020600020906004020160030154106108cd5760405162461bcd60e51b815260206004820152602f60248201527f4e65772065706f63682063616e6e6f74206265206c657373206f72206571756160448201526e0d840e8de40e0c2e6e840cae0dec6d608b1b60648201526084016105b3565b6108d681610b85565b6101018054600091906108eb90600190612755565b8154811061090957634e487b7160e01b600052603260045260246000fd5b6000918252602090912060049091020155505b61092961010354846116be565b505050565b610101818154811061093f57600080fd5b60009182526020909120600490910201805460018201546002830154600390930154919350919084565b610972816117d5565b61098d81604051806020016040528060008152506000611804565b50565b33610999611125565b6001600160a01b0316146109bf5760405162461bcd60e51b81526004016105b390612676565b6109c761194b565b565b60335460ff16156109ec5760405162461bcd60e51b81526004016105b3906125fe565b60006101018381548110610a1057634e487b7160e01b600052603260045260246000fd5b60009182526020808320868452610102825260408085203386529092529220805460049092029092019250831115610a7f5760405162461bcd60e51b81526020600482015260126024820152711dda5d1a191c985dce881b9bdd0819dbdbd960721b60448201526064016105b3565b610a8884610b85565b6000610ac98260010154610ac368327cb2734119d3b7a9601e1b610abd876002015487600001546119b190919063ffffffff16565b906119bd565b906119c9565b90508015610adb57610adb33826119d5565b8315610b06578154610aed90856119c9565b825560fb54610b06906001600160a01b03163386611a6d565b60028301548254610b289168327cb2734119d3b7a9601e1b91610abd916119b1565b6001830155604051848152859033907ff279e6a1f5e320cca91135676d9cb6e44ca8a08c0b88342bcdb1144f6511b568906020015b60405180910390a35050505050565b610b75826117d5565b610b8182826001611804565b5050565b60006101018281548110610ba957634e487b7160e01b600052603260045260246000fd5b9060005260206000209060040201905080600101544311610bca575061098d565b60fb546040516370a0823160e01b81526000916001600160a01b0316906370a0823190610bfb903090600401612570565b60206040518083038186803b158015610c1357600080fd5b505afa158015610c27573d6000803e3d6000fd5b505050506040513d601f19601f82011682018060405250810190610c4b91906123a7565b905080610c5f57504360019091015561098d565b6000610c6f836001015443611134565b90506000610c9d61010354610abd8660000154610c9760fd54876119b190919063ffffffff16565b906119b1565b6101055460fb5460ff546040516370a0823160e01b8152939450600093610d3193926001600160a01b03908116926370a0823192610ce19290911690600401612570565b60206040518083038186803b158015610cf957600080fd5b505afa158015610d0d573d6000803e3d6000fd5b505050506040513d601f19601f82011682018060405250810190610ac391906123a7565b9050808210610d3e578091505b610d66610d5b85610abd8568327cb2734119d3b7a9601e1b6119b1565b600287015490611ac3565b600286015561010554610d799083611ac3565b61010555505043600190930192909255505050565b60335460ff16610db05760405162461bcd60e51b81526004016105b3906125d0565b60006101018281548110610dd457634e487b7160e01b600052603260045260246000fd5b60009182526020808320858452610102825260408085203386529092529083208054848255600182018590556002600490940290920192830154929450929091610e37908290610ac39068327cb2734119d3b7a9601e1b90610abd9087906119b1565b9050610105548111610e565761010554610e5190826119c9565b610105555b60fb54610e6d906001600160a01b03163384611a6d565b604051828152859033907fbb757047c2b5f3974fe26b7c10f732e7bce710b0952a71082702781e62ae059590602001610b5d565b33610eaa611125565b6001600160a01b031614610ed05760405162461bcd60e51b81526004016105b390612676565b60fe55565b6000806101018481548110610efa57634e487b7160e01b600052603260045260246000fd5b60009182526020808320878452610102825260408085206001600160a01b03898116875293528085206004948502909201600281015460fb5492516370a0823160e01b815291975092959294929391909116916370a0823191610f5f91309101612570565b60206040518083038186803b158015610f7757600080fd5b505afa158015610f8b573d6000803e3d6000fd5b505050506040513d601f19601f82011682018060405250810190610faf91906123a7565b9050836001015443118015610fc357508015155b1561107b576000610fd8856001015443611134565b9050600061100061010354610abd8860000154610c9760fd54876119b190919063ffffffff16565b6101055460fb5460ff546040516370a0823160e01b815293945060009361104493926001600160a01b03908116926370a0823192610ce19290911690600401612570565b9050808210611051578091505b61107561106e85610abd8568327cb2734119d3b7a9601e1b6119b1565b8690611ac3565b94505050505b6110aa8360010154610ac368327cb2734119d3b7a9601e1b610abd8688600001546119b190919063ffffffff16565b979650505050505050565b336110be611125565b6001600160a01b0316146110e45760405162461bcd60e51b81526004016105b390612676565b6109c76000611acf565b336110f7611125565b6001600160a01b03161461111d5760405162461bcd60e51b81526004016105b390612676565b6109c7611b21565b60c9546001600160a01b031690565b60fe5460009061114890610c9784866119c9565b9392505050565b600054610100900460ff1680611168575060005460ff16155b6111845760405162461bcd60e51b81526004016105b390612628565b600054610100900460ff161580156111af576000805460ff1961ff0019909116610100171660011790555b6111b7611b79565b60fb80546001600160a01b03808a166001600160a01b03199283161790925560fd88905561010487905560ff805486841690831617905560fc805492851692909116919091179055610100849055620f424060fe5560c8610103558015611224576000805461ff00191690555b50505050505050565b33611236611125565b6001600160a01b03161461125c5760405162461bcd60e51b81526004016105b390612676565b6101015460009061126f90600190612755565b905061127a81610b85565b81610101828154811061129d57634e487b7160e01b600052603260045260246000fd5b60009182526020909120600490910201555061010355565b60335460ff16156112d85760405162461bcd60e51b81526004016105b3906125fe565b600061010183815481106112fc57634e487b7160e01b600052603260045260246000fd5b6000918252602091829020604080516080810182526004938402909201805483526001810154948301949094526002840154828201526003909301546060820181905260fc549351630a90b02760e11b81529194506001600160a01b0390931692631521604e926113709233929101612584565b60206040518083038186803b15801561138857600080fd5b505afa15801561139c573d6000803e3d6000fd5b505050506040513d601f19601f820116820180604052508101906113c0919061230f565b6114165760405162461bcd60e51b815260206004820152602160248201527f446964206e6f742077696e20746869732050726564696374696f6e20726f756e6044820152601960fa1b60648201526084016105b3565b600083815261010260209081526040808320338452909152902061143984610b85565b8054156114895760006114758260010154610ac368327cb2734119d3b7a9601e1b610abd876040015187600001546119b190919063ffffffff16565b905080156114875761148733826119d5565b505b82156115bd5760fb546040516370a0823160e01b81526000916001600160a01b0316906370a08231906114c0903090600401612570565b60206040518083038186803b1580156114d857600080fd5b505afa1580156114ec573d6000803e3d6000fd5b505050506040513d601f19601f8201168201806040525081019061151091906123a7565b60fb5490915061152b906001600160a01b0316333087611bfd565b60fb546040516370a0823160e01b815261156b916115639184916001600160a01b0316906370a0823190610ce1903090600401612570565b835490611ac3565b8083556101005410156115bb5760405162461bcd60e51b815260206004820152601860248201527713585e08141491510811195c1bdcda5d0814995858da195960421b60448201526064016105b3565b505b604082015181546115df9168327cb2734119d3b7a9601e1b91610abd916119b1565b6001820155604051838152849033907f90890809c654f11d6e72a28fa60149770a0d11ec6c92319d6ceb2bb0a4ea1a159060200160405180910390a350505050565b3361162a611125565b6001600160a01b0316146116505760405162461bcd60e51b81526004016105b390612676565b6001600160a01b0381166116b55760405162461bcd60e51b815260206004820152602660248201527f4f776e61626c653a206e6577206f776e657220697320746865207a65726f206160448201526564647265737360d01b60648201526084016105b3565b61098d81611acf565b336116c7611125565b6001600160a01b0316146116ed5760405162461bcd60e51b81526004016105b390612676565b60006101045443116117025761010454611704565b435b60408051608081018252948552602085019182526000908501818152606086019485526101018054600181018255925294517f109ea3cebb188b9c1b9fc5bb3920be60dfdc8699098dff92f3d80daaca74768960049092029182015590517f109ea3cebb188b9c1b9fc5bb3920be60dfdc8699098dff92f3d80daaca74768a82015592517f109ea3cebb188b9c1b9fc5bb3920be60dfdc8699098dff92f3d80daaca74768b84015550517f109ea3cebb188b9c1b9fc5bb3920be60dfdc8699098dff92f3d80daaca74768c90910155565b336117de611125565b6001600160a01b03161461098d5760405162461bcd60e51b81526004016105b390612676565b600061180e611c3b565b905061181984611c69565b6000835111806118265750815b15611837576118358484611d15565b505b7f4910fdfa16fed3260ed0e7147f7cc6da11a60208b5b9406d12a635614ffd9143805460ff1661194457805460ff191660011781556040516118b2908690611883908590602401612570565b60408051601f198184030181529190526020810180516001600160e01b0316631b2ce7f360e11b179052611d15565b50805460ff191681556118c3611c3b565b6001600160a01b0316826001600160a01b03161461193b5760405162461bcd60e51b815260206004820152602f60248201527f45524331393637557067726164653a207570677261646520627265616b73206660448201526e75727468657220757067726164657360881b60648201526084016105b3565b61194485611e07565b5050505050565b60335460ff1661196d5760405162461bcd60e51b81526004016105b3906125d0565b6033805460ff191690557f5db9ee0a495bf2e6ff9c91a7834c1ba4fdd244a5e8aa4e537bd38aeae4b073aa335b6040516119a79190612570565b60405180910390a1565b60006111488284612736565b60006111488284612716565b60006111488284612755565b60ff5460405163736a0d4160e11b8152611a65916001600160a01b03169063e6d41a8290611a099086908690600401612584565b602060405180830381600087803b158015611a2357600080fd5b505af1158015611a37573d6000803e3d6000fd5b505050506040513d601f19601f82011682018060405250810190611a5b91906123a7565b61010554906119c9565b610105555050565b6109298363a9059cbb60e01b8484604051602401611a8c929190612584565b60408051601f198184030181529190526020810180516001600160e01b03166001600160e01b031990931692909217909152611e47565b600061114882846126fe565b60c980546001600160a01b038381166001600160a01b0319831681179093556040519116919082907f8be0079c531659141344cd1fd0a4f28419497f9722a3daafe3b4186f6b6457e090600090a35050565b60335460ff1615611b445760405162461bcd60e51b81526004016105b3906125fe565b6033805460ff191660011790557f62e78cea01bee320cd4e420270b5ea74000d11b0c9f74754ebdbfc544b05a25861199a3390565b600054610100900460ff1680611b92575060005460ff16155b611bae5760405162461bcd60e51b81526004016105b390612628565b600054610100900460ff16158015611bd9576000805460ff1961ff0019909116610100171660011790555b611be1611f19565b611be9611f8c565b801561098d576000805461ff001916905550565b6040516001600160a01b0380851660248301528316604482015260648101829052611c359085906323b872dd60e01b90608401611a8c565b50505050565b7f360894a13ba1a3210667c828492db98dca3e2076cc3735a920a3ca505d382bbc546001600160a01b031690565b611c7281611ff5565b611cd45760405162461bcd60e51b815260206004820152602d60248201527f455243313936373a206e657720696d706c656d656e746174696f6e206973206e60448201526c1bdd08184818dbdb9d1c9858dd609a1b60648201526084016105b3565b7f360894a13ba1a3210667c828492db98dca3e2076cc3735a920a3ca505d382bbc80546001600160a01b0319166001600160a01b0392909216919091179055565b6060611d2083611ff5565b611d7b5760405162461bcd60e51b815260206004820152602660248201527f416464726573733a2064656c65676174652063616c6c20746f206e6f6e2d636f6044820152651b9d1c9858dd60d21b60648201526084016105b3565b600080846001600160a01b031684604051611d969190612554565b600060405180830381855af49150503d8060008114611dd1576040519150601f19603f3d011682016040523d82523d6000602084013e611dd6565b606091505b5091509150611dfe82826040518060600160405280602781526020016127da60279139611fff565b95945050505050565b611e1081611c69565b6040516001600160a01b038216907fbc7cd75a20ee27fd9adebab32041f755214dbc6bffa90cc0225b39da2e5c2d3b90600090a250565b6000611e9c826040518060400160405280602081526020017f5361666545524332303a206c6f772d6c6576656c2063616c6c206661696c6564815250856001600160a01b03166120389092919063ffffffff16565b8051909150156109295780806020019051810190611eba919061230f565b6109295760405162461bcd60e51b815260206004820152602a60248201527f5361666545524332303a204552433230206f7065726174696f6e20646964206e6044820152691bdd081cdd58d8d9595960b21b60648201526084016105b3565b600054610100900460ff1680611f32575060005460ff16155b611f4e5760405162461bcd60e51b81526004016105b390612628565b600054610100900460ff16158015611be9576000805460ff1961ff001990911661010017166001179055801561098d576000805461ff001916905550565b600054610100900460ff1680611fa5575060005460ff16155b611fc15760405162461bcd60e51b81526004016105b390612628565b600054610100900460ff16158015611fec576000805460ff1961ff0019909116610100171660011790555b611be933611acf565b803b15155b919050565b6060831561200e575081611148565b82511561201e5782518084602001fd5b8160405162461bcd60e51b81526004016105b3919061259d565b6060612047848460008561204f565b949350505050565b6060824710156120b05760405162461bcd60e51b815260206004820152602660248201527f416464726573733a20696e73756666696369656e742062616c616e636520666f6044820152651c8818d85b1b60d21b60648201526084016105b3565b6120b985611ff5565b6121055760405162461bcd60e51b815260206004820152601d60248201527f416464726573733a2063616c6c20746f206e6f6e2d636f6e747261637400000060448201526064016105b3565b600080866001600160a01b031685876040516121219190612554565b60006040518083038185875af1925050503d806000811461215e576040519150601f19603f3d011682016040523d82523d6000602084013e612163565b606091505b50915091506110aa828286611fff565b600082601f830112612183578081fd5b81516020612198612193836126db565b6126ab565b82815281810190858301838502870184018810156121b4578586fd5b855b858110156121db5781516121c9816127c4565b845292840192908401906001016121b6565b5090979650505050505050565b600082601f8301126121f8578081fd5b81516020612208612193836126db565b8281528181019085830183850287018401881015612224578586fd5b855b858110156121db57815184529284019290840190600101612226565b80518015158114611ffa57600080fd5b600060208284031215612263578081fd5b8135611148816127c4565b60008060408385031215612280578081fd5b823561228b816127c4565b91506020838101356001600160401b03808211156122a7578384fd5b818601915086601f8301126122ba578384fd5b8135818111156122cc576122cc6127ae565b6122de601f8201601f191685016126ab565b915080825287848285010111156122f3578485fd5b8084840185840137810190920192909252919491935090915050565b600060208284031215612320578081fd5b61114882612242565b60008060008060008060c08789031215612341578182fd5b863561234c816127c4565b95506020870135945060408701359350606087013592506080870135612371816127c4565b915060a0870135612381816127c4565b809150509295509295509295565b6000602082840312156123a0578081fd5b5035919050565b6000602082840312156123b8578081fd5b5051919050565b600080604083850312156123d1578182fd5b8235915060208301356123e3816127c4565b809150509250929050565b60008060408385031215612400578182fd5b50508035926020909101359150565b60008060008060008060008060008060006101608c8e031215612430578889fd5b8b519a5060208c0151995060408c0151985060608c0151975061245560808d01612242565b965060a08c01516001600160401b0381111561246f578586fd5b61247b8e828f01612173565b96505060c08c01516001600160401b03811115612496578586fd5b6124a28e828f016121e8565b95505060e08c01516001600160401b038111156124bd578485fd5b6124c98e828f016121e8565b9450506101008c01516001600160401b038111156124e5578384fd5b6124f18e828f016121e8565b9350506101208c01516001600160401b0381111561250d578283fd5b6125198e828f016121e8565b9250506101408c01516001600160401b03811115612535578182fd5b6125418e828f016121e8565b9150509295989b509295989b9093969950565b6000825161256681846020870161276c565b9190910192915050565b6001600160a01b0391909116815260200190565b6001600160a01b03929092168252602082015260400190565b60006020825282518060208401526125bc81604085016020870161276c565b601f01601f19169190910160400192915050565b60208082526014908201527314185d5cd8589b194e881b9bdd081c185d5cd95960621b604082015260600190565b60208082526010908201526f14185d5cd8589b194e881c185d5cd95960821b604082015260600190565b6020808252602e908201527f496e697469616c697a61626c653a20636f6e747261637420697320616c72656160408201526d191e481a5b9a5d1a585b1a5e995960921b606082015260800190565b6020808252818101527f4f776e61626c653a2063616c6c6572206973206e6f7420746865206f776e6572604082015260600190565b604051601f8201601f191681016001600160401b03811182821017156126d3576126d36127ae565b604052919050565b60006001600160401b038211156126f4576126f46127ae565b5060209081020190565b6000821982111561271157612711612798565b500190565b60008261273157634e487b7160e01b81526012600452602481fd5b500490565b600081600019048311821515161561275057612750612798565b500290565b60008282101561276757612767612798565b500390565b60005b8381101561278757818101518382015260200161276f565b83811115611c355750506000910152565b634e487b7160e01b600052601160045260246000fd5b634e487b7160e01b600052604160045260246000fd5b6001600160a01b038116811461098d57600080fdfe416464726573733a206c6f772d6c6576656c2064656c65676174652063616c6c206661696c6564a2646970667358221220fe5778b90205346d5efa2f0a2a71efb8484fc632cda1d9e0e2a112dc985be8b864736f6c63430008020033",
  "linkReferences": {},
  "deployedLinkReferences": {}
}