{
  "_format": "hh-sol-artifact-1",
  "contractName": "WinnerPredictionPool",
  "sourceName": "contracts/WinnerPredictionPool.sol",
  "abi": [
    {
      "anonymous": false,
      "inputs": [
        {
          "indexed": false,
          "internalType": "address",
          "name": "previousAdmin",
          "type": "address"
        },
        {
          "indexed": false,
          "internalType": "address",
          "name": "newAdmin",
          "type": "address"
        }
      ],
      "name": "AdminChanged",
      "type": "event"
    },
    {
      "anonymous": false,
      "inputs": [
        {
          "indexed": true,
          "internalType": "address",
          "name": "beacon",
          "type": "address"
        }
      ],
      "name": "BeaconUpgraded",
      "type": "event"
    },
    {
      "anonymous": false,
      "inputs": [
        {
          "indexed": true,
          "internalType": "address",
          "name": "user",
          "type": "address"
        },
        {
          "indexed": true,
          "internalType": "uint256",
          "name": "pid",
          "type": "uint256"
        },
        {
          "indexed": false,
          "internalType": "uint256",
          "name": "amount",
          "type": "uint256"
        }
      ],
      "name": "Deposit",
      "type": "event"
    },
    {
      "anonymous": false,
      "inputs": [
        {
          "indexed": true,
          "internalType": "address",
          "name": "user",
          "type": "address"
        },
        {
          "indexed": true,
          "internalType": "uint256",
          "name": "pid",
          "type": "uint256"
        },
        {
          "indexed": false,
          "internalType": "uint256",
          "name": "amount",
          "type": "uint256"
        }
      ],
      "name": "EmergencyWithdraw",
      "type": "event"
    },
    {
      "anonymous": false,
      "inputs": [
        {
          "indexed": true,
          "internalType": "address",
          "name": "previousOwner",
          "type": "address"
        },
        {
          "indexed": true,
          "internalType": "address",
          "name": "newOwner",
          "type": "address"
        }
      ],
      "name": "OwnershipTransferred",
      "type": "event"
    },
    {
      "anonymous": false,
      "inputs": [
        {
          "indexed": false,
          "internalType": "address",
          "name": "account",
          "type": "address"
        }
      ],
      "name": "Paused",
      "type": "event"
    },
    {
      "anonymous": false,
      "inputs": [
        {
          "indexed": false,
          "internalType": "address",
          "name": "account",
          "type": "address"
        }
      ],
      "name": "Unpaused",
      "type": "event"
    },
    {
      "anonymous": false,
      "inputs": [
        {
          "indexed": true,
          "internalType": "address",
          "name": "implementation",
          "type": "address"
        }
      ],
      "name": "Upgraded",
      "type": "event"
    },
    {
      "anonymous": false,
      "inputs": [
        {
          "indexed": true,
          "internalType": "address",
          "name": "user",
          "type": "address"
        },
        {
          "indexed": true,
          "internalType": "uint256",
          "name": "pid",
          "type": "uint256"
        },
        {
          "indexed": false,
          "internalType": "uint256",
          "name": "amount",
          "type": "uint256"
        }
      ],
      "name": "Withdraw",
      "type": "event"
    },
    {
      "inputs": [],
      "name": "BONUS_MULTIPLIER",
      "outputs": [
        {
          "internalType": "uint256",
          "name": "",
          "type": "uint256"
        }
      ],
      "stateMutability": "view",
      "type": "function"
    },
    {
      "inputs": [
        {
          "internalType": "uint256",
          "name": "_epoch",
          "type": "uint256"
        }
      ],
      "name": "add",
      "outputs": [],
      "stateMutability": "nonpayable",
      "type": "function"
    },
    {
      "inputs": [],
      "name": "allocPoint",
      "outputs": [
        {
          "internalType": "uint256",
          "name": "",
          "type": "uint256"
        }
      ],
      "stateMutability": "view",
      "type": "function"
    },
    {
      "inputs": [
        {
          "internalType": "uint256",
          "name": "_pid",
          "type": "uint256"
        },
        {
          "internalType": "uint256",
          "name": "_amount",
          "type": "uint256"
        }
      ],
      "name": "deposit",
      "outputs": [],
      "stateMutability": "nonpayable",
      "type": "function"
    },
    {
      "inputs": [
        {
          "internalType": "uint256",
          "name": "_pid",
          "type": "uint256"
        }
      ],
      "name": "emergencyWithdraw",
      "outputs": [],
      "stateMutability": "nonpayable",
      "type": "function"
    },
    {
      "inputs": [
        {
          "internalType": "uint256",
          "name": "_from",
          "type": "uint256"
        },
        {
          "internalType": "uint256",
          "name": "_to",
          "type": "uint256"
        }
      ],
      "name": "getMultiplier",
      "outputs": [
        {
          "internalType": "uint256",
          "name": "",
          "type": "uint256"
        }
      ],
      "stateMutability": "view",
      "type": "function"
    },
    {
      "inputs": [],
      "name": "getPoolLength",
      "outputs": [
        {
          "internalType": "uint256",
          "name": "",
          "type": "uint256"
        }
      ],
      "stateMutability": "view",
      "type": "function"
    },
    {
      "inputs": [
        {
          "internalType": "contract IBEP20",
          "name": "_pred",
          "type": "address"
        },
        {
          "internalType": "uint256",
          "name": "_predPerBlock",
          "type": "uint256"
        },
        {
          "internalType": "uint256",
          "name": "_startBlock",
          "type": "uint256"
        },
        {
          "internalType": "uint256",
          "name": "_maxPredDeposit",
          "type": "uint256"
        },
        {
          "internalType": "contract PredictionWallet",
          "name": "_wallet",
          "type": "address"
        },
        {
          "internalType": "contract IPrediction",
          "name": "_prediction",
          "type": "address"
        }
      ],
      "name": "initialize",
      "outputs": [],
      "stateMutability": "nonpayable",
      "type": "function"
    },
    {
      "inputs": [],
      "name": "maxPredDeposit",
      "outputs": [
        {
          "internalType": "uint256",
          "name": "",
          "type": "uint256"
        }
      ],
      "stateMutability": "view",
      "type": "function"
    },
    {
      "inputs": [],
      "name": "owner",
      "outputs": [
        {
          "internalType": "address",
          "name": "",
          "type": "address"
        }
      ],
      "stateMutability": "view",
      "type": "function"
    },
    {
      "inputs": [],
      "name": "pause",
      "outputs": [],
      "stateMutability": "nonpayable",
      "type": "function"
    },
    {
      "inputs": [],
      "name": "paused",
      "outputs": [
        {
          "internalType": "bool",
          "name": "",
          "type": "bool"
        }
      ],
      "stateMutability": "view",
      "type": "function"
    },
    {
      "inputs": [
        {
          "internalType": "uint256",
          "name": "_pid",
          "type": "uint256"
        },
        {
          "internalType": "address",
          "name": "_user",
          "type": "address"
        }
      ],
      "name": "pendingPred",
      "outputs": [
        {
          "internalType": "uint256",
          "name": "",
          "type": "uint256"
        }
      ],
      "stateMutability": "view",
      "type": "function"
    },
    {
      "inputs": [
        {
          "internalType": "uint256",
          "name": "",
          "type": "uint256"
        }
      ],
      "name": "poolInfo",
      "outputs": [
        {
          "internalType": "uint256",
          "name": "allocPoint",
          "type": "uint256"
        },
        {
          "internalType": "uint256",
          "name": "lastRewardBlock",
          "type": "uint256"
        },
        {
          "internalType": "uint256",
          "name": "accPredPerShare",
          "type": "uint256"
        },
        {
          "internalType": "uint256",
          "name": "epoch",
          "type": "uint256"
        },
        {
          "internalType": "uint256",
          "name": "amount",
          "type": "uint256"
        }
      ],
      "stateMutability": "view",
      "type": "function"
    },
    {
      "inputs": [],
      "name": "poolLength",
      "outputs": [
        {
          "internalType": "uint256",
          "name": "",
          "type": "uint256"
        }
      ],
      "stateMutability": "view",
      "type": "function"
    },
    {
      "inputs": [],
      "name": "pred",
      "outputs": [
        {
          "internalType": "contract IBEP20",
          "name": "",
          "type": "address"
        }
      ],
      "stateMutability": "view",
      "type": "function"
    },
    {
      "inputs": [],
      "name": "predPerBlock",
      "outputs": [
        {
          "internalType": "uint256",
          "name": "",
          "type": "uint256"
        }
      ],
      "stateMutability": "view",
      "type": "function"
    },
    {
      "inputs": [],
      "name": "prediction",
      "outputs": [
        {
          "internalType": "contract IPrediction",
          "name": "",
          "type": "address"
        }
      ],
      "stateMutability": "view",
      "type": "function"
    },
    {
      "inputs": [],
      "name": "renounceOwnership",
      "outputs": [],
      "stateMutability": "nonpayable",
      "type": "function"
    },
    {
      "inputs": [
        {
          "internalType": "uint256",
          "name": "_allocPoint",
          "type": "uint256"
        }
      ],
      "name": "setAllocPoint",
      "outputs": [],
      "stateMutability": "nonpayable",
      "type": "function"
    },
    {
      "inputs": [
        {
          "internalType": "uint256",
          "name": "_maxPredDeposit",
          "type": "uint256"
        }
      ],
      "name": "setMaxPredDeposit",
      "outputs": [],
      "stateMutability": "nonpayable",
      "type": "function"
    },
    {
      "inputs": [],
      "name": "startBlock",
      "outputs": [
        {
          "internalType": "uint256",
          "name": "",
          "type": "uint256"
        }
      ],
      "stateMutability": "view",
      "type": "function"
    },
    {
      "inputs": [],
      "name": "totalRewardDebt",
      "outputs": [
        {
          "internalType": "uint256",
          "name": "",
          "type": "uint256"
        }
      ],
      "stateMutability": "view",
      "type": "function"
    },
    {
      "inputs": [
        {
          "internalType": "address",
          "name": "newOwner",
          "type": "address"
        }
      ],
      "name": "transferOwnership",
      "outputs": [],
      "stateMutability": "nonpayable",
      "type": "function"
    },
    {
      "inputs": [],
      "name": "unpause",
      "outputs": [],
      "stateMutability": "nonpayable",
      "type": "function"
    },
    {
      "inputs": [
        {
          "internalType": "uint256",
          "name": "multiplierNumber",
          "type": "uint256"
        }
      ],
      "name": "updateMultiplier",
      "outputs": [],
      "stateMutability": "nonpayable",
      "type": "function"
    },
    {
      "inputs": [
        {
          "internalType": "uint256",
          "name": "_pid",
          "type": "uint256"
        }
      ],
      "name": "updatePool",
      "outputs": [],
      "stateMutability": "nonpayable",
      "type": "function"
    },
    {
      "inputs": [
        {
          "internalType": "address",
          "name": "newImplementation",
          "type": "address"
        }
      ],
      "name": "upgradeTo",
      "outputs": [],
      "stateMutability": "nonpayable",
      "type": "function"
    },
    {
      "inputs": [
        {
          "internalType": "address",
          "name": "newImplementation",
          "type": "address"
        },
        {
          "internalType": "bytes",
          "name": "data",
          "type": "bytes"
        }
      ],
      "name": "upgradeToAndCall",
      "outputs": [],
      "stateMutability": "payable",
      "type": "function"
    },
    {
      "inputs": [
        {
          "internalType": "uint256",
          "name": "",
          "type": "uint256"
        },
        {
          "internalType": "address",
          "name": "",
          "type": "address"
        }
      ],
      "name": "userInfo",
      "outputs": [
        {
          "internalType": "uint256",
          "name": "amount",
          "type": "uint256"
        },
        {
          "internalType": "uint256",
          "name": "rewardDebt",
          "type": "uint256"
        }
      ],
      "stateMutability": "view",
      "type": "function"
    },
    {
      "inputs": [],
      "name": "wallet",
      "outputs": [
        {
          "internalType": "contract PredictionWallet",
          "name": "",
          "type": "address"
        }
      ],
      "stateMutability": "view",
      "type": "function"
    },
    {
      "inputs": [
        {
          "internalType": "uint256",
          "name": "_pid",
          "type": "uint256"
        },
        {
          "internalType": "uint256",
          "name": "_amount",
          "type": "uint256"
        }
      ],
      "name": "withdraw",
      "outputs": [],
      "stateMutability": "nonpayable",
      "type": "function"
    }
  ],
  "bytecode": "0x608060405234801561001057600080fd5b506129b3806100206000396000f3fe6080604052600436106101a35760003560e01c8063715018a6116100e2578063b3944d5211610085578063b3944d52146101a8578063bf9fe138146104b4578063c26780b0146104d4578063d3dd7eb7146104f5578063e0747c961461050c578063e2bbb1581461052c578063e5c9ad2e1461054c578063f2fde38b1461056c576101a3565b8063715018a6146103bc57806383bb3877146103d15780638456cb59146103e85780638aa28550146103fd5780638da5cb5b146104135780638dbb1e3a1461042857806393f1a40b14610448578063ae5241a01461049d576101a3565b806348cd4cb11161014a57806348cd4cb1146102cf5780634f1ef286146102e657806351eb05a6146102f9578063521eb273146103195780635312ea8e146103395780635c975abb146103595780635ffe61461461037c5780636450b8a91461039c576101a3565b8063081e3eda146101a85780631003e2d2146101cd5780631526fe27146101ef5780631fc7be89146102375780632372c9161461024d5780633659cfe61461027a5780633f4ba83a1461029a578063441a3e70146102af575b600080fd5b3480156101b457600080fd5b50610101545b6040519081526020015b60405180910390f35b3480156101d957600080fd5b506101ed6101e836600461250c565b61058c565b005b3480156101fb57600080fd5b5061020f61020a36600461250c565b610936565b604080519586526020860194909452928401919091526060830152608082015260a0016101c4565b34801561024357600080fd5b506101ba60fd5481565b34801561025957600080fd5b5060fc5461026d906001600160a01b031681565b6040516101c491906126ed565b34801561028657600080fd5b506101ed6102953660046123cf565b610978565b3480156102a657600080fd5b506101ed61099f565b3480156102bb57600080fd5b506101ed6102ca36600461256b565b6109d8565b3480156102db57600080fd5b506101ba6101045481565b6101ed6102f43660046123eb565b610c04565b34801561030557600080fd5b506101ed61031436600461250c565b610c1d565b34801561032557600080fd5b5060ff5461026d906001600160a01b031681565b34801561034557600080fd5b506101ed61035436600461250c565b610e26565b34801561036557600080fd5b5060335460ff1660405190151581526020016101c4565b34801561038857600080fd5b506101ed61039736600461250c565b610f39565b3480156103a857600080fd5b506101ba6103b736600461253c565b610f6d565b3480156103c857600080fd5b506101ed61114d565b3480156103dd57600080fd5b506101ba6101055481565b3480156103f457600080fd5b506101ed611186565b34801561040957600080fd5b506101ba60fe5481565b34801561041f57600080fd5b5061026d6111bd565b34801561043457600080fd5b506101ba61044336600461256b565b6111cc565b34801561045457600080fd5b5061048861046336600461253c565b6101026020908152600092835260408084209091529082529020805460019091015482565b604080519283526020830191909152016101c4565b3480156104a957600080fd5b506101ba6101005481565b3480156104c057600080fd5b506101ed6104cf3660046124a6565b6111e7565b3480156104e057600080fd5b506101ed6104ef36600461250c565b61010055565b34801561050157600080fd5b506101ba6101035481565b34801561051857600080fd5b506101ed61052736600461250c565b6112c5565b34801561053857600080fd5b506101ed61054736600461256b565b61134d565b34801561055857600080fd5b5060fb5461026d906001600160a01b031681565b34801561057857600080fd5b506101ed6105873660046123cf565b611770565b336105956111bd565b6001600160a01b0316146105c45760405162461bcd60e51b81526004016105bb906127f3565b60405180910390fd5b60fc5460405163023c4c9f60e61b8152600481018390526000916001600160a01b031690638f1327c09060240160006040518083038186803b15801561060957600080fd5b505afa15801561061d573d6000803e3d6000fd5b505050506040513d6000823e601f3d908101601f19168201604052610645919081019061258c565b505050505050945050505050806106af5760405162461bcd60e51b815260206004820152602860248201527f526f756e6420776173206e6f74207375636365737366756c206f72206e6f7420604482015267636f6d706c65746560c01b60648201526084016105bb565b60fc5460408051630ecce30160e31b815290516000926001600160a01b031691637667180891600480830192602092919082900301818787803b1580156106f557600080fd5b505af1158015610709573d6000803e3d6000fd5b505050506040513d601f19601f8201168201806040525081019061072d9190612524565b905082811461081d5760fc5460405163023c4c9f60e61b8152600481018390526000916001600160a01b031690638f1327c09060240160006040518083038186803b15801561077b57600080fd5b505afa15801561078f573d6000803e3d6000fd5b505050506040513d6000823e601f3d908101601f191682016040526107b7919081019061258c565b505050505050945050505050801561081b5760405162461bcd60e51b815260206004820152602160248201527f43757272656e7420526f756e6420697320616c726561647920636f6d706c65746044820152606560f81b60648201526084016105bb565b505b61010154156109245761010154600090610839906001906128d2565b905083610101828154811061085e57634e487b7160e01b600052603260045260246000fd5b906000526020600020906005020160030154106108d55760405162461bcd60e51b815260206004820152602f60248201527f4e65772065706f63682063616e6e6f74206265206c657373206f72206571756160448201526e0d840e8de40e0c2e6e840cae0dec6d608b1b60648201526084016105bb565b6108de81610c1d565b6101018054600091906108f3906001906128d2565b8154811061091157634e487b7160e01b600052603260045260246000fd5b6000918252602090912060059091020155505b610931610103548461180d565b505050565b610101818154811061094757600080fd5b6000918252602090912060059091020180546001820154600283015460038401546004909401549294509092909185565b61098181611952565b61099c81604051806020016040528060008152506000611981565b50565b336109a86111bd565b6001600160a01b0316146109ce5760405162461bcd60e51b81526004016105bb906127f3565b6109d6611ac8565b565b60335460ff16156109fb5760405162461bcd60e51b81526004016105bb9061277b565b60006101018381548110610a1f57634e487b7160e01b600052603260045260246000fd5b60009182526020808320868452610102825260408085203386529092529220805460059092029092019250831115610a8e5760405162461bcd60e51b81526020600482015260126024820152711dda5d1a191c985dce881b9bdd0819dbdbd960721b60448201526064016105bb565b610a9784610c1d565b6000610ad88260010154610ad268327cb2734119d3b7a9601e1b610acc87600201548760000154611b2e90919063ffffffff16565b90611b3a565b90611b46565b90508015610aea57610aea3382611b52565b8315610b29578154610afc9085611b46565b82556004830154610b0d9085611b46565b600484015560fb54610b29906001600160a01b03163386611bea565b60028301548254610b4b9168327cb2734119d3b7a9601e1b91610acc91611b2e565b8260010181905550826101018681548110610b7657634e487b7160e01b600052603260045260246000fd5b9060005260206000209060050201600082015481600001556001820154816001015560028201548160020155600382015481600301556004820154816004015590505084336001600160a01b03167ff279e6a1f5e320cca91135676d9cb6e44ca8a08c0b88342bcdb1144f6511b56886604051610bf591815260200190565b60405180910390a35050505050565b610c0d82611952565b610c1982826001611981565b5050565b60006101018281548110610c4157634e487b7160e01b600052603260045260246000fd5b9060005260206000209060050201905080600101544311610c62575061099c565b60fb546040516370a0823160e01b81526000916001600160a01b0316906370a0823190610c939030906004016126ed565b60206040518083038186803b158015610cab57600080fd5b505afa158015610cbf573d6000803e3d6000fd5b505050506040513d601f19601f82011682018060405250810190610ce39190612524565b905080610cf757504360019091015561099c565b6000610d078360010154436111cc565b90506000610d3561010354610acc8660000154610d2f60fd5487611b2e90919063ffffffff16565b90611b2e565b6101055460fb5460ff546040516370a0823160e01b8152939450600093610dc993926001600160a01b03908116926370a0823192610d7992909116906004016126ed565b60206040518083038186803b158015610d9157600080fd5b505afa158015610da5573d6000803e3d6000fd5b505050506040513d601f19601f82011682018060405250810190610ad29190612524565b9050808210610dd6578091505b610dfe610df385610acc8568327cb2734119d3b7a9601e1b611b2e565b600287015490611c40565b600286015561010554610e119083611c40565b61010555505043600190930192909255505050565b60335460ff16610e485760405162461bcd60e51b81526004016105bb9061274d565b60006101018281548110610e6c57634e487b7160e01b600052603260045260246000fd5b60009182526020808320858452610102825260408085203386529092529083208054848255600182018590556002600590940290920192830154929450929091610ecf908290610ad29068327cb2734119d3b7a9601e1b90610acc908790611b2e565b9050610105548111610eee5761010554610ee99082611b46565b610105555b60fb54610f05906001600160a01b03163384611bea565b604051828152859033907fbb757047c2b5f3974fe26b7c10f732e7bce710b0952a71082702781e62ae059590602001610bf5565b33610f426111bd565b6001600160a01b031614610f685760405162461bcd60e51b81526004016105bb906127f3565b60fe55565b6000806101018481548110610f9257634e487b7160e01b600052603260045260246000fd5b60009182526020808320878452610102825260408085206001600160a01b03808a1687529352808520600260059095029092019384015460fb5491516370a0823160e01b815294965091949193919216906370a0823190610ff79030906004016126ed565b60206040518083038186803b15801561100f57600080fd5b505afa158015611023573d6000803e3d6000fd5b505050506040513d601f19601f820116820180604052508101906110479190612524565b905083600101544311801561105b57508015155b156111135760006110708560010154436111cc565b9050600061109861010354610acc8860000154610d2f60fd5487611b2e90919063ffffffff16565b6101055460fb5460ff546040516370a0823160e01b81529394506000936110dc93926001600160a01b03908116926370a0823192610d7992909116906004016126ed565b90508082106110e9578091505b61110d61110685610acc8568327cb2734119d3b7a9601e1b611b2e565b8690611c40565b94505050505b6111428360010154610ad268327cb2734119d3b7a9601e1b610acc868860000154611b2e90919063ffffffff16565b979650505050505050565b336111566111bd565b6001600160a01b03161461117c5760405162461bcd60e51b81526004016105bb906127f3565b6109d66000611c4c565b3361118f6111bd565b6001600160a01b0316146111b55760405162461bcd60e51b81526004016105bb906127f3565b6109d6611c9e565b60c9546001600160a01b031690565b60fe546000906111e090610d2f8486611b46565b9392505050565b600054610100900460ff1680611200575060005460ff16155b61121c5760405162461bcd60e51b81526004016105bb906127a5565b600054610100900460ff16158015611247576000805460ff1961ff0019909116610100171660011790555b61124f611cf6565b60fb80546001600160a01b03808a166001600160a01b03199283161790925560fd88905561010487905560ff805486841690831617905560fc805492851692909116919091179055610100849055620f424060fe5560c86101035580156112bc576000805461ff00191690555b50505050505050565b336112ce6111bd565b6001600160a01b0316146112f45760405162461bcd60e51b81526004016105bb906127f3565b61010154600090611307906001906128d2565b905061131281610c1d565b81610101828154811061133557634e487b7160e01b600052603260045260246000fd5b60009182526020909120600590910201555061010355565b60335460ff16156113705760405162461bcd60e51b81526004016105bb9061277b565b6000610101838154811061139457634e487b7160e01b600052603260045260246000fd5b60009182526020918290206040805160a081018252600590930290910180548352600181015493830193909352600283015482820152600383015460608301819052600493840154608084015260fc549151630a90b02760e11b81529294506001600160a01b0390911692631521604e92611413923392909101612701565b60206040518083038186803b15801561142b57600080fd5b505afa15801561143f573d6000803e3d6000fd5b505050506040513d601f19601f82011682018060405250810190611463919061248c565b6114b95760405162461bcd60e51b815260206004820152602160248201527f446964206e6f742077696e20746869732050726564696374696f6e20726f756e6044820152601960fa1b60648201526084016105bb565b60008381526101026020908152604080832033845290915290206114dc84610c1d565b80541561152c5760006115188260010154610ad268327cb2734119d3b7a9601e1b610acc87604001518760000154611b2e90919063ffffffff16565b9050801561152a5761152a3382611b52565b505b82156116a95760fb546040516370a0823160e01b81526000916001600160a01b0316906370a08231906115639030906004016126ed565b60206040518083038186803b15801561157b57600080fd5b505afa15801561158f573d6000803e3d6000fd5b505050506040513d601f19601f820116820180604052508101906115b39190612524565b60fb549091506115ce906001600160a01b0316333087611d7a565b60fb546040516370a0823160e01b815261160e916116069184916001600160a01b0316906370a0823190610d799030906004016126ed565b835490611c40565b825560fb546040516370a0823160e01b8152611653916116489184916001600160a01b0316906370a0823190610d799030906004016126ed565b608085015190611c40565b608084015261010054825411156116a75760405162461bcd60e51b815260206004820152601860248201527713585e08141491510811195c1bdcda5d0814995858da195960421b60448201526064016105bb565b505b604082015181546116cb9168327cb2734119d3b7a9601e1b91610acc91611b2e565b81600101819055508161010185815481106116f657634e487b7160e01b600052603260045260246000fd5b600091825260209182902083516005909202019081558282015160018201556040808401516002830155606084015160038301556080909301516004909101559051848152859133917f90890809c654f11d6e72a28fa60149770a0d11ec6c92319d6ceb2bb0a4ea1a15910160405180910390a350505050565b336117796111bd565b6001600160a01b03161461179f5760405162461bcd60e51b81526004016105bb906127f3565b6001600160a01b0381166118045760405162461bcd60e51b815260206004820152602660248201527f4f776e61626c653a206e6577206f776e657220697320746865207a65726f206160448201526564647265737360d01b60648201526084016105bb565b61099c81611c4c565b336118166111bd565b6001600160a01b03161461183c5760405162461bcd60e51b81526004016105bb906127f3565b60006101045443116118515761010454611853565b435b6040805160a08101825294855260208501918252600090850181815260608601948552608086018281526101018054600181018255935295517f109ea3cebb188b9c1b9fc5bb3920be60dfdc8699098dff92f3d80daaca74768960059093029283015591517f109ea3cebb188b9c1b9fc5bb3920be60dfdc8699098dff92f3d80daaca74768a82015590517f109ea3cebb188b9c1b9fc5bb3920be60dfdc8699098dff92f3d80daaca74768b82015591517f109ea3cebb188b9c1b9fc5bb3920be60dfdc8699098dff92f3d80daaca74768c8301555090517f109ea3cebb188b9c1b9fc5bb3920be60dfdc8699098dff92f3d80daaca74768d90910155565b3361195b6111bd565b6001600160a01b03161461099c5760405162461bcd60e51b81526004016105bb906127f3565b600061198b611db8565b905061199684611de6565b6000835111806119a35750815b156119b4576119b28484611e92565b505b7f4910fdfa16fed3260ed0e7147f7cc6da11a60208b5b9406d12a635614ffd9143805460ff16611ac157805460ff19166001178155604051611a2f908690611a009085906024016126ed565b60408051601f198184030181529190526020810180516001600160e01b0316631b2ce7f360e11b179052611e92565b50805460ff19168155611a40611db8565b6001600160a01b0316826001600160a01b031614611ab85760405162461bcd60e51b815260206004820152602f60248201527f45524331393637557067726164653a207570677261646520627265616b73206660448201526e75727468657220757067726164657360881b60648201526084016105bb565b611ac185611f84565b5050505050565b60335460ff16611aea5760405162461bcd60e51b81526004016105bb9061274d565b6033805460ff191690557f5db9ee0a495bf2e6ff9c91a7834c1ba4fdd244a5e8aa4e537bd38aeae4b073aa335b604051611b2491906126ed565b60405180910390a1565b60006111e082846128b3565b60006111e08284612893565b60006111e082846128d2565b60ff5460405163736a0d4160e11b8152611be2916001600160a01b03169063e6d41a8290611b869086908690600401612701565b602060405180830381600087803b158015611ba057600080fd5b505af1158015611bb4573d6000803e3d6000fd5b505050506040513d601f19601f82011682018060405250810190611bd89190612524565b6101055490611b46565b610105555050565b6109318363a9059cbb60e01b8484604051602401611c09929190612701565b60408051601f198184030181529190526020810180516001600160e01b03166001600160e01b031990931692909217909152611fc4565b60006111e0828461287b565b60c980546001600160a01b038381166001600160a01b0319831681179093556040519116919082907f8be0079c531659141344cd1fd0a4f28419497f9722a3daafe3b4186f6b6457e090600090a35050565b60335460ff1615611cc15760405162461bcd60e51b81526004016105bb9061277b565b6033805460ff191660011790557f62e78cea01bee320cd4e420270b5ea74000d11b0c9f74754ebdbfc544b05a258611b173390565b600054610100900460ff1680611d0f575060005460ff16155b611d2b5760405162461bcd60e51b81526004016105bb906127a5565b600054610100900460ff16158015611d56576000805460ff1961ff0019909116610100171660011790555b611d5e612096565b611d66612109565b801561099c576000805461ff001916905550565b6040516001600160a01b0380851660248301528316604482015260648101829052611db29085906323b872dd60e01b90608401611c09565b50505050565b7f360894a13ba1a3210667c828492db98dca3e2076cc3735a920a3ca505d382bbc546001600160a01b031690565b611def81612172565b611e515760405162461bcd60e51b815260206004820152602d60248201527f455243313936373a206e657720696d706c656d656e746174696f6e206973206e60448201526c1bdd08184818dbdb9d1c9858dd609a1b60648201526084016105bb565b7f360894a13ba1a3210667c828492db98dca3e2076cc3735a920a3ca505d382bbc80546001600160a01b0319166001600160a01b0392909216919091179055565b6060611e9d83612172565b611ef85760405162461bcd60e51b815260206004820152602660248201527f416464726573733a2064656c65676174652063616c6c20746f206e6f6e2d636f6044820152651b9d1c9858dd60d21b60648201526084016105bb565b600080846001600160a01b031684604051611f1391906126d1565b600060405180830381855af49150503d8060008114611f4e576040519150601f19603f3d011682016040523d82523d6000602084013e611f53565b606091505b5091509150611f7b82826040518060600160405280602781526020016129576027913961217c565b95945050505050565b611f8d81611de6565b6040516001600160a01b038216907fbc7cd75a20ee27fd9adebab32041f755214dbc6bffa90cc0225b39da2e5c2d3b90600090a250565b6000612019826040518060400160405280602081526020017f5361666545524332303a206c6f772d6c6576656c2063616c6c206661696c6564815250856001600160a01b03166121b59092919063ffffffff16565b8051909150156109315780806020019051810190612037919061248c565b6109315760405162461bcd60e51b815260206004820152602a60248201527f5361666545524332303a204552433230206f7065726174696f6e20646964206e6044820152691bdd081cdd58d8d9595960b21b60648201526084016105bb565b600054610100900460ff16806120af575060005460ff16155b6120cb5760405162461bcd60e51b81526004016105bb906127a5565b600054610100900460ff16158015611d66576000805460ff1961ff001990911661010017166001179055801561099c576000805461ff001916905550565b600054610100900460ff1680612122575060005460ff16155b61213e5760405162461bcd60e51b81526004016105bb906127a5565b600054610100900460ff16158015612169576000805460ff1961ff0019909116610100171660011790555b611d6633611c4c565b803b15155b919050565b6060831561218b5750816111e0565b82511561219b5782518084602001fd5b8160405162461bcd60e51b81526004016105bb919061271a565b60606121c484846000856121cc565b949350505050565b60608247101561222d5760405162461bcd60e51b815260206004820152602660248201527f416464726573733a20696e73756666696369656e742062616c616e636520666f6044820152651c8818d85b1b60d21b60648201526084016105bb565b61223685612172565b6122825760405162461bcd60e51b815260206004820152601d60248201527f416464726573733a2063616c6c20746f206e6f6e2d636f6e747261637400000060448201526064016105bb565b600080866001600160a01b0316858760405161229e91906126d1565b60006040518083038185875af1925050503d80600081146122db576040519150601f19603f3d011682016040523d82523d6000602084013e6122e0565b606091505b509150915061114282828661217c565b600082601f830112612300578081fd5b8151602061231561231083612858565b612828565b8281528181019085830183850287018401881015612331578586fd5b855b8581101561235857815161234681612941565b84529284019290840190600101612333565b5090979650505050505050565b600082601f830112612375578081fd5b8151602061238561231083612858565b82815281810190858301838502870184018810156123a1578586fd5b855b85811015612358578151845292840192908401906001016123a3565b8051801515811461217757600080fd5b6000602082840312156123e0578081fd5b81356111e081612941565b600080604083850312156123fd578081fd5b823561240881612941565b91506020838101356001600160401b0380821115612424578384fd5b818601915086601f830112612437578384fd5b8135818111156124495761244961292b565b61245b601f8201601f19168501612828565b91508082528784828501011115612470578485fd5b8084840185840137810190920192909252919491935090915050565b60006020828403121561249d578081fd5b6111e0826123bf565b60008060008060008060c087890312156124be578182fd5b86356124c981612941565b955060208701359450604087013593506060870135925060808701356124ee81612941565b915060a08701356124fe81612941565b809150509295509295509295565b60006020828403121561251d578081fd5b5035919050565b600060208284031215612535578081fd5b5051919050565b6000806040838503121561254e578182fd5b82359150602083013561256081612941565b809150509250929050565b6000806040838503121561257d578182fd5b50508035926020909101359150565b60008060008060008060008060008060006101608c8e0312156125ad578889fd5b8b519a5060208c0151995060408c0151985060608c015197506125d260808d016123bf565b965060a08c01516001600160401b038111156125ec578586fd5b6125f88e828f016122f0565b96505060c08c01516001600160401b03811115612613578586fd5b61261f8e828f01612365565b95505060e08c01516001600160401b0381111561263a578485fd5b6126468e828f01612365565b9450506101008c01516001600160401b03811115612662578384fd5b61266e8e828f01612365565b9350506101208c01516001600160401b0381111561268a578283fd5b6126968e828f01612365565b9250506101408c01516001600160401b038111156126b2578182fd5b6126be8e828f01612365565b9150509295989b509295989b9093969950565b600082516126e38184602087016128e9565b9190910192915050565b6001600160a01b0391909116815260200190565b6001600160a01b03929092168252602082015260400190565b60006020825282518060208401526127398160408501602087016128e9565b601f01601f19169190910160400192915050565b60208082526014908201527314185d5cd8589b194e881b9bdd081c185d5cd95960621b604082015260600190565b60208082526010908201526f14185d5cd8589b194e881c185d5cd95960821b604082015260600190565b6020808252602e908201527f496e697469616c697a61626c653a20636f6e747261637420697320616c72656160408201526d191e481a5b9a5d1a585b1a5e995960921b606082015260800190565b6020808252818101527f4f776e61626c653a2063616c6c6572206973206e6f7420746865206f776e6572604082015260600190565b604051601f8201601f191681016001600160401b03811182821017156128505761285061292b565b604052919050565b60006001600160401b038211156128715761287161292b565b5060209081020190565b6000821982111561288e5761288e612915565b500190565b6000826128ae57634e487b7160e01b81526012600452602481fd5b500490565b60008160001904831182151516156128cd576128cd612915565b500290565b6000828210156128e4576128e4612915565b500390565b60005b838110156129045781810151838201526020016128ec565b83811115611db25750506000910152565b634e487b7160e01b600052601160045260246000fd5b634e487b7160e01b600052604160045260246000fd5b6001600160a01b038116811461099c57600080fdfe416464726573733a206c6f772d6c6576656c2064656c65676174652063616c6c206661696c6564a264697066735822122034d2cb786b675c7185e0239289d897b98b1dd108c0c91f9cbc08add84ce2df5264736f6c63430008020033",
  "linkReferences": {},
  "deployedLinkReferences": {}
}