{
  "_format": "hh-sol-artifact-1",
  "contractName": "WinnerPredictionPool",
  "sourceName": "contracts/WinnerPredictionPool.sol",
  "abi": [
    {
      "anonymous": false,
      "inputs": [
        {
          "indexed": false,
          "internalType": "address",
          "name": "previousAdmin",
          "type": "address"
        },
        {
          "indexed": false,
          "internalType": "address",
          "name": "newAdmin",
          "type": "address"
        }
      ],
      "name": "AdminChanged",
      "type": "event"
    },
    {
      "anonymous": false,
      "inputs": [
        {
          "indexed": true,
          "internalType": "address",
          "name": "beacon",
          "type": "address"
        }
      ],
      "name": "BeaconUpgraded",
      "type": "event"
    },
    {
      "anonymous": false,
      "inputs": [
        {
          "indexed": true,
          "internalType": "address",
          "name": "user",
          "type": "address"
        },
        {
          "indexed": true,
          "internalType": "uint256",
          "name": "pid",
          "type": "uint256"
        },
        {
          "indexed": false,
          "internalType": "uint256",
          "name": "amount",
          "type": "uint256"
        }
      ],
      "name": "Deposit",
      "type": "event"
    },
    {
      "anonymous": false,
      "inputs": [
        {
          "indexed": true,
          "internalType": "address",
          "name": "user",
          "type": "address"
        },
        {
          "indexed": true,
          "internalType": "uint256",
          "name": "pid",
          "type": "uint256"
        },
        {
          "indexed": false,
          "internalType": "uint256",
          "name": "amount",
          "type": "uint256"
        }
      ],
      "name": "EmergencyWithdraw",
      "type": "event"
    },
    {
      "anonymous": false,
      "inputs": [
        {
          "indexed": false,
          "internalType": "address",
          "name": "operator",
          "type": "address"
        }
      ],
      "name": "NewOperatorAddress",
      "type": "event"
    },
    {
      "anonymous": false,
      "inputs": [
        {
          "indexed": true,
          "internalType": "address",
          "name": "previousOwner",
          "type": "address"
        },
        {
          "indexed": true,
          "internalType": "address",
          "name": "newOwner",
          "type": "address"
        }
      ],
      "name": "OwnershipTransferred",
      "type": "event"
    },
    {
      "anonymous": false,
      "inputs": [
        {
          "indexed": false,
          "internalType": "address",
          "name": "account",
          "type": "address"
        }
      ],
      "name": "Paused",
      "type": "event"
    },
    {
      "anonymous": false,
      "inputs": [
        {
          "indexed": false,
          "internalType": "address",
          "name": "account",
          "type": "address"
        }
      ],
      "name": "Unpaused",
      "type": "event"
    },
    {
      "anonymous": false,
      "inputs": [
        {
          "indexed": true,
          "internalType": "address",
          "name": "implementation",
          "type": "address"
        }
      ],
      "name": "Upgraded",
      "type": "event"
    },
    {
      "anonymous": false,
      "inputs": [
        {
          "indexed": true,
          "internalType": "address",
          "name": "user",
          "type": "address"
        },
        {
          "indexed": true,
          "internalType": "uint256",
          "name": "pid",
          "type": "uint256"
        },
        {
          "indexed": false,
          "internalType": "uint256",
          "name": "amount",
          "type": "uint256"
        }
      ],
      "name": "Withdraw",
      "type": "event"
    },
    {
      "inputs": [],
      "name": "BONUS_MULTIPLIER",
      "outputs": [
        {
          "internalType": "uint256",
          "name": "",
          "type": "uint256"
        }
      ],
      "stateMutability": "view",
      "type": "function"
    },
    {
      "inputs": [
        {
          "internalType": "uint256",
          "name": "_epoch",
          "type": "uint256"
        }
      ],
      "name": "add",
      "outputs": [],
      "stateMutability": "nonpayable",
      "type": "function"
    },
    {
      "inputs": [],
      "name": "allocPoint",
      "outputs": [
        {
          "internalType": "uint256",
          "name": "",
          "type": "uint256"
        }
      ],
      "stateMutability": "view",
      "type": "function"
    },
    {
      "inputs": [
        {
          "internalType": "uint256",
          "name": "_pid",
          "type": "uint256"
        },
        {
          "internalType": "uint256",
          "name": "_amount",
          "type": "uint256"
        }
      ],
      "name": "deposit",
      "outputs": [],
      "stateMutability": "nonpayable",
      "type": "function"
    },
    {
      "inputs": [
        {
          "internalType": "uint256",
          "name": "_pid",
          "type": "uint256"
        }
      ],
      "name": "emergencyWithdraw",
      "outputs": [],
      "stateMutability": "nonpayable",
      "type": "function"
    },
    {
      "inputs": [
        {
          "internalType": "uint256",
          "name": "_from",
          "type": "uint256"
        },
        {
          "internalType": "uint256",
          "name": "_to",
          "type": "uint256"
        }
      ],
      "name": "getMultiplier",
      "outputs": [
        {
          "internalType": "uint256",
          "name": "",
          "type": "uint256"
        }
      ],
      "stateMutability": "view",
      "type": "function"
    },
    {
      "inputs": [],
      "name": "getPoolLength",
      "outputs": [
        {
          "internalType": "uint256",
          "name": "",
          "type": "uint256"
        }
      ],
      "stateMutability": "view",
      "type": "function"
    },
    {
      "inputs": [
        {
          "internalType": "address",
          "name": "_operator",
          "type": "address"
        },
        {
          "internalType": "contract IBEP20",
          "name": "_pred",
          "type": "address"
        },
        {
          "internalType": "uint256",
          "name": "_predPerBlock",
          "type": "uint256"
        },
        {
          "internalType": "uint256",
          "name": "_startBlock",
          "type": "uint256"
        },
        {
          "internalType": "uint256",
          "name": "_maxPredDeposit",
          "type": "uint256"
        },
        {
          "internalType": "contract PredictionWallet",
          "name": "_wallet",
          "type": "address"
        },
        {
          "internalType": "contract IPrediction",
          "name": "_prediction",
          "type": "address"
        }
      ],
      "name": "initialize",
      "outputs": [],
      "stateMutability": "nonpayable",
      "type": "function"
    },
    {
      "inputs": [
        {
          "internalType": "address",
          "name": "preder",
          "type": "address"
        },
        {
          "internalType": "uint256",
          "name": "round",
          "type": "uint256"
        }
      ],
      "name": "lostRound",
      "outputs": [
        {
          "internalType": "bool",
          "name": "",
          "type": "bool"
        }
      ],
      "stateMutability": "view",
      "type": "function"
    },
    {
      "inputs": [],
      "name": "maxPredDeposit",
      "outputs": [
        {
          "internalType": "uint256",
          "name": "",
          "type": "uint256"
        }
      ],
      "stateMutability": "view",
      "type": "function"
    },
    {
      "inputs": [],
      "name": "operatorAddress",
      "outputs": [
        {
          "internalType": "address",
          "name": "",
          "type": "address"
        }
      ],
      "stateMutability": "view",
      "type": "function"
    },
    {
      "inputs": [],
      "name": "owner",
      "outputs": [
        {
          "internalType": "address",
          "name": "",
          "type": "address"
        }
      ],
      "stateMutability": "view",
      "type": "function"
    },
    {
      "inputs": [],
      "name": "pause",
      "outputs": [],
      "stateMutability": "nonpayable",
      "type": "function"
    },
    {
      "inputs": [],
      "name": "paused",
      "outputs": [
        {
          "internalType": "bool",
          "name": "",
          "type": "bool"
        }
      ],
      "stateMutability": "view",
      "type": "function"
    },
    {
      "inputs": [
        {
          "internalType": "uint256",
          "name": "_pid",
          "type": "uint256"
        },
        {
          "internalType": "address",
          "name": "_user",
          "type": "address"
        }
      ],
      "name": "pendingPred",
      "outputs": [
        {
          "internalType": "uint256",
          "name": "",
          "type": "uint256"
        }
      ],
      "stateMutability": "view",
      "type": "function"
    },
    {
      "inputs": [
        {
          "internalType": "uint256",
          "name": "",
          "type": "uint256"
        }
      ],
      "name": "poolInfo",
      "outputs": [
        {
          "internalType": "uint256",
          "name": "allocPoint",
          "type": "uint256"
        },
        {
          "internalType": "uint256",
          "name": "lastRewardBlock",
          "type": "uint256"
        },
        {
          "internalType": "uint256",
          "name": "accPredPerShare",
          "type": "uint256"
        },
        {
          "internalType": "uint256",
          "name": "epoch",
          "type": "uint256"
        },
        {
          "internalType": "uint256",
          "name": "amount",
          "type": "uint256"
        }
      ],
      "stateMutability": "view",
      "type": "function"
    },
    {
      "inputs": [],
      "name": "poolLength",
      "outputs": [
        {
          "internalType": "uint256",
          "name": "",
          "type": "uint256"
        }
      ],
      "stateMutability": "view",
      "type": "function"
    },
    {
      "inputs": [],
      "name": "pred",
      "outputs": [
        {
          "internalType": "contract IBEP20",
          "name": "",
          "type": "address"
        }
      ],
      "stateMutability": "view",
      "type": "function"
    },
    {
      "inputs": [],
      "name": "predPerBlock",
      "outputs": [
        {
          "internalType": "uint256",
          "name": "",
          "type": "uint256"
        }
      ],
      "stateMutability": "view",
      "type": "function"
    },
    {
      "inputs": [],
      "name": "prediction",
      "outputs": [
        {
          "internalType": "contract IPrediction",
          "name": "",
          "type": "address"
        }
      ],
      "stateMutability": "view",
      "type": "function"
    },
    {
      "inputs": [],
      "name": "renounceOwnership",
      "outputs": [],
      "stateMutability": "nonpayable",
      "type": "function"
    },
    {
      "inputs": [
        {
          "internalType": "uint256",
          "name": "_allocPoint",
          "type": "uint256"
        }
      ],
      "name": "setAllocPoint",
      "outputs": [],
      "stateMutability": "nonpayable",
      "type": "function"
    },
    {
      "inputs": [
        {
          "internalType": "uint256",
          "name": "_maxPredDeposit",
          "type": "uint256"
        }
      ],
      "name": "setMaxPredDeposit",
      "outputs": [],
      "stateMutability": "nonpayable",
      "type": "function"
    },
    {
      "inputs": [
        {
          "internalType": "address",
          "name": "_operatorAddress",
          "type": "address"
        }
      ],
      "name": "setOperator",
      "outputs": [],
      "stateMutability": "nonpayable",
      "type": "function"
    },
    {
      "inputs": [
        {
          "internalType": "uint256",
          "name": "_allocPoint",
          "type": "uint256"
        }
      ],
      "name": "setPoolAllocPoint",
      "outputs": [],
      "stateMutability": "nonpayable",
      "type": "function"
    },
    {
      "inputs": [],
      "name": "startBlock",
      "outputs": [
        {
          "internalType": "uint256",
          "name": "",
          "type": "uint256"
        }
      ],
      "stateMutability": "view",
      "type": "function"
    },
    {
      "inputs": [],
      "name": "totalRewardDebt",
      "outputs": [
        {
          "internalType": "uint256",
          "name": "",
          "type": "uint256"
        }
      ],
      "stateMutability": "view",
      "type": "function"
    },
    {
      "inputs": [
        {
          "internalType": "address",
          "name": "newOwner",
          "type": "address"
        }
      ],
      "name": "transferOwnership",
      "outputs": [],
      "stateMutability": "nonpayable",
      "type": "function"
    },
    {
      "inputs": [],
      "name": "unpause",
      "outputs": [],
      "stateMutability": "nonpayable",
      "type": "function"
    },
    {
      "inputs": [
        {
          "internalType": "uint256",
          "name": "multiplierNumber",
          "type": "uint256"
        }
      ],
      "name": "updateMultiplier",
      "outputs": [],
      "stateMutability": "nonpayable",
      "type": "function"
    },
    {
      "inputs": [
        {
          "internalType": "uint256",
          "name": "_pid",
          "type": "uint256"
        }
      ],
      "name": "updatePool",
      "outputs": [],
      "stateMutability": "nonpayable",
      "type": "function"
    },
    {
      "inputs": [
        {
          "internalType": "address",
          "name": "newImplementation",
          "type": "address"
        }
      ],
      "name": "upgradeTo",
      "outputs": [],
      "stateMutability": "nonpayable",
      "type": "function"
    },
    {
      "inputs": [
        {
          "internalType": "address",
          "name": "newImplementation",
          "type": "address"
        },
        {
          "internalType": "bytes",
          "name": "data",
          "type": "bytes"
        }
      ],
      "name": "upgradeToAndCall",
      "outputs": [],
      "stateMutability": "payable",
      "type": "function"
    },
    {
      "inputs": [
        {
          "internalType": "uint256",
          "name": "",
          "type": "uint256"
        },
        {
          "internalType": "address",
          "name": "",
          "type": "address"
        }
      ],
      "name": "userInfo",
      "outputs": [
        {
          "internalType": "uint256",
          "name": "amount",
          "type": "uint256"
        },
        {
          "internalType": "uint256",
          "name": "rewardDebt",
          "type": "uint256"
        }
      ],
      "stateMutability": "view",
      "type": "function"
    },
    {
      "inputs": [],
      "name": "wallet",
      "outputs": [
        {
          "internalType": "contract PredictionWallet",
          "name": "",
          "type": "address"
        }
      ],
      "stateMutability": "view",
      "type": "function"
    },
    {
      "inputs": [
        {
          "internalType": "uint256",
          "name": "_pid",
          "type": "uint256"
        },
        {
          "internalType": "uint256",
          "name": "_amount",
          "type": "uint256"
        }
      ],
      "name": "withdraw",
      "outputs": [],
      "stateMutability": "nonpayable",
      "type": "function"
    },
    {
      "inputs": [
        {
          "internalType": "address",
          "name": "preder",
          "type": "address"
        },
        {
          "internalType": "uint256",
          "name": "round",
          "type": "uint256"
        }
      ],
      "name": "wonRound",
      "outputs": [
        {
          "internalType": "bool",
          "name": "",
          "type": "bool"
        }
      ],
      "stateMutability": "view",
      "type": "function"
    }
  ],
  "bytecode": "0x608060405234801561001057600080fd5b50612afb806100206000396000f3fe6080604052600436106101ea5760003560e01c80635ffe614611610113578063ae5241a0116100ab578063d3dd7eb71161006f578063d3dd7eb7146105e2578063e0747c96146105f9578063e2bbb15814610619578063e5c9ad2e14610639578063f2fde38b14610659576101ea565b8063ae5241a01461056a578063b3944d5214610211578063b3ab15fb14610581578063b7a3c110146105a1578063c26780b0146105c1576101ea565b80635ffe6146146104495780636450b8a914610469578063715018a61461048957806383bb38771461049e5780638456cb59146104b55780638aa28550146104ca5780638da5cb5b146104e05780638dbb1e3a146104f557806393f1a40b14610515576101ea565b80633659cfe6116101865780633659cfe6146103525780633f4ba83a14610372578063441a3e701461038757806348cd4cb1146103a75780634f1ef286146103be57806351eb05a6146103d1578063521eb273146103f15780635312ea8e146104115780635c975abb14610431576101ea565b80630729da0b146101ef578063081e3eda146102115780631003e2d214610236578063127effb2146102565780631521604e146102845780631526fe27146102b45780631c8d04e2146102fc5780631fc7be891461031c5780632372c91614610332575b600080fd5b3480156101fb57600080fd5b5061020f61020a366004612595565b610679565b005b34801561021d57600080fd5b50610101545b6040519081526020015b60405180910390f35b34801561024257600080fd5b5061020f610251366004612654565b61076f565b34801561026257600080fd5b5061010654610277906001600160a01b031681565b60405161022d9190612835565b34801561029057600080fd5b506102a461029f36600461260f565b610ae1565b604051901515815260200161022d565b3480156102c057600080fd5b506102d46102cf366004612654565b610b6b565b604080519586526020860194909452928401919091526060830152608082015260a00161022d565b34801561030857600080fd5b506102a461031736600461260f565b610bad565b34801561032857600080fd5b5061022360fd5481565b34801561033e57600080fd5b5060fc54610277906001600160a01b031681565b34801561035e57600080fd5b5061020f61036d3660046124d8565b610be0565b34801561037e57600080fd5b5061020f610c07565b34801561039357600080fd5b5061020f6103a23660046126b3565b610c40565b3480156103b357600080fd5b506102236101045481565b61020f6103cc3660046124f4565b610e6c565b3480156103dd57600080fd5b5061020f6103ec366004612654565b610e85565b3480156103fd57600080fd5b5060ff54610277906001600160a01b031681565b34801561041d57600080fd5b5061020f61042c366004612654565b610ffe565b34801561043d57600080fd5b5060335460ff166102a4565b34801561045557600080fd5b5061020f610464366004612654565b611111565b34801561047557600080fd5b50610223610484366004612684565b611145565b34801561049557600080fd5b5061020f6112a2565b3480156104aa57600080fd5b506102236101055481565b3480156104c157600080fd5b5061020f6112db565b3480156104d657600080fd5b5061022360fe5481565b3480156104ec57600080fd5b50610277611312565b34801561050157600080fd5b506102236105103660046126b3565b611321565b34801561052157600080fd5b50610555610530366004612684565b6101026020908152600092835260408084209091529082529020805460019091015482565b6040805192835260208301919091520161022d565b34801561057657600080fd5b506102236101005481565b34801561058d57600080fd5b5061020f61059c3660046124d8565b61133b565b3480156105ad57600080fd5b5061020f6105bc366004612654565b611410565b3480156105cd57600080fd5b5061020f6105dc366004612654565b61010055565b3480156105ee57600080fd5b506102236101035481565b34801561060557600080fd5b5061020f610614366004612654565b611495565b34801561062557600080fd5b5061020f6106343660046126b3565b6114ca565b34801561064557600080fd5b5060fb54610277906001600160a01b031681565b34801561066557600080fd5b5061020f6106743660046124d8565b611853565b600054610100900460ff1680610692575060005460ff16155b6106b75760405162461bcd60e51b81526004016106ae906128ed565b60405180910390fd5b600054610100900460ff161580156106e2576000805460ff1961ff0019909116610100171660011790555b6106ea6118f0565b61010680546001600160a01b03808b166001600160a01b03199283161790925560fb80548a841690831617905560fd88905561010487905560ff805486841690831617905560fc805492851692909116919091179055610100849055620f424060fe5560c8610103558015610765576000805461ff00191690555b5050505050505050565b60fc5460405163023c4c9f60e61b8152600481018390526000916001600160a01b031690638f1327c09060240160006040518083038186803b1580156107b457600080fd5b505afa1580156107c8573d6000803e3d6000fd5b505050506040513d6000823e601f3d908101601f191682016040526107f091908101906126d4565b5050505050509450505050508061085a5760405162461bcd60e51b815260206004820152602860248201527f526f756e6420776173206e6f74207375636365737366756c206f72206e6f7420604482015267636f6d706c65746560c01b60648201526084016106ae565b60fc5460408051630ecce30160e31b815290516000926001600160a01b031691637667180891600480830192602092919082900301818787803b1580156108a057600080fd5b505af11580156108b4573d6000803e3d6000fd5b505050506040513d601f19601f820116820180604052508101906108d8919061266c565b90508281146109c85760fc5460405163023c4c9f60e61b8152600481018390526000916001600160a01b031690638f1327c09060240160006040518083038186803b15801561092657600080fd5b505afa15801561093a573d6000803e3d6000fd5b505050506040513d6000823e601f3d908101601f1916820160405261096291908101906126d4565b50505050505094505050505080156109c65760405162461bcd60e51b815260206004820152602160248201527f43757272656e7420526f756e6420697320616c726561647920636f6d706c65746044820152606560f81b60648201526084016106ae565b505b6101015415610acf57610101546000906109e490600190612a1a565b9050836101018281548110610a0957634e487b7160e01b600052603260045260246000fd5b90600052602060002090600502016003015410610a805760405162461bcd60e51b815260206004820152602f60248201527f4e65772065706f63682063616e6e6f74206265206c657373206f72206571756160448201526e0d840e8de40e0c2e6e840cae0dec6d608b1b60648201526084016106ae565b610a8981610e85565b610101805460009190610a9e90600190612a1a565b81548110610abc57634e487b7160e01b600052603260045260246000fd5b6000918252602090912060059091020155505b610adc6101035484611974565b505050565b60fc54604051630a90b02760e11b81526000916001600160a01b031690631521604e90610b149086908690600401612849565b60206040518083038186803b158015610b2c57600080fd5b505afa158015610b40573d6000803e3d6000fd5b505050506040513d601f19601f82011682018060405250810190610b64919061263a565b9392505050565b6101018181548110610b7c57600080fd5b6000918252602090912060059091020180546001820154600283015460038401546004909401549294509092909185565b60fc54604051630e46827160e11b81526000916001600160a01b031690631c8d04e290610b149086908690600401612849565b610be981611ad4565b610c0481604051806020016040528060008152506000611b03565b50565b33610c10611312565b6001600160a01b031614610c365760405162461bcd60e51b81526004016106ae9061293b565b610c3e611c4a565b565b60335460ff1615610c635760405162461bcd60e51b81526004016106ae906128c3565b60006101018381548110610c8757634e487b7160e01b600052603260045260246000fd5b60009182526020808320868452610102825260408085203386529092529220805460059092029092019250831115610cf65760405162461bcd60e51b81526020600482015260126024820152711dda5d1a191c985dce881b9bdd0819dbdbd960721b60448201526064016106ae565b610cff84610e85565b6000610d408260010154610d3a68327cb2734119d3b7a9601e1b610d3487600201548760000154611cb090919063ffffffff16565b90611cbc565b90611cc8565b90508015610d5257610d523382611cd4565b8315610d91578154610d649085611cc8565b82556004830154610d759085611cc8565b600484015560fb54610d91906001600160a01b03163386611d6c565b60028301548254610db39168327cb2734119d3b7a9601e1b91610d3491611cb0565b8260010181905550826101018681548110610dde57634e487b7160e01b600052603260045260246000fd5b9060005260206000209060050201600082015481600001556001820154816001015560028201548160020155600382015481600301556004820154816004015590505084336001600160a01b03167ff279e6a1f5e320cca91135676d9cb6e44ca8a08c0b88342bcdb1144f6511b56886604051610e5d91815260200190565b60405180910390a35050505050565b610e7582611ad4565b610e8182826001611b03565b5050565b60006101018281548110610ea957634e487b7160e01b600052603260045260246000fd5b9060005260206000209060050201905080600101544311610eca5750610c04565b6004810154610edf5743600190910155610c04565b6000610eef826001015443611321565b90506000610f0860fd5483611cb090919063ffffffff16565b6101055460fb5460ff546040516370a0823160e01b8152939450600093610f9c93926001600160a01b03908116926370a0823192610f4c9290911690600401612835565b60206040518083038186803b158015610f6457600080fd5b505afa158015610f78573d6000803e3d6000fd5b505050506040513d601f19601f82011682018060405250810190610d3a919061266c565b9050808210610fa9578091505b6004840154610fd790610fcc90610d348568327cb2734119d3b7a9601e1b611cb0565b600286015490611dc2565b600285015561010554610fea9083611dc2565b610105555050436001909201919091555050565b60335460ff166110205760405162461bcd60e51b81526004016106ae90612895565b6000610101828154811061104457634e487b7160e01b600052603260045260246000fd5b600091825260208083208584526101028252604080852033865290925290832080548482556001820185905560026005909402909201928301549294509290916110a7908290610d3a9068327cb2734119d3b7a9601e1b90610d34908790611cb0565b90506101055481116110c657610105546110c19082611cc8565b610105555b60fb546110dd906001600160a01b03163384611d6c565b604051828152859033907fbb757047c2b5f3974fe26b7c10f732e7bce710b0952a71082702781e62ae059590602001610e5d565b3361111a611312565b6001600160a01b0316146111405760405162461bcd60e51b81526004016106ae9061293b565b60fe55565b600080610101848154811061116a57634e487b7160e01b600052603260045260246000fd5b60009182526020808320878452610102825260408085206001600160a01b038916865290925292206002600590920290920190810154600182015491935090431180156111ba5750600483015415155b156112695760006111cf846001015443611321565b905060006111e860fd5483611cb090919063ffffffff16565b6101055460fb5460ff546040516370a0823160e01b815293945060009361122c93926001600160a01b03908116926370a0823192610f4c9290911690600401612835565b9050808210611239578091505b60048601546112639061125c90610d348568327cb2734119d3b7a9601e1b611cb0565b8590611dc2565b93505050505b6112988260010154610d3a68327cb2734119d3b7a9601e1b610d34858760000154611cb090919063ffffffff16565b9695505050505050565b336112ab611312565b6001600160a01b0316146112d15760405162461bcd60e51b81526004016106ae9061293b565b610c3e6000611dce565b336112e4611312565b6001600160a01b03161461130a5760405162461bcd60e51b81526004016106ae9061293b565b610c3e611e20565b60c9546001600160a01b031690565b60fe54600090610b64906113358486611cc8565b90611cb0565b33611344611312565b6001600160a01b03161461136a5760405162461bcd60e51b81526004016106ae9061293b565b6001600160a01b0381166113b95760405162461bcd60e51b815260206004820152601660248201527543616e6e6f74206265207a65726f206164647265737360501b60448201526064016106ae565b61010680546001600160a01b0319166001600160a01b0383161790556040517fc47d127c07bdd56c5ccba00463ce3bd3c1bca71b4670eea6e5d0c02e4aa156e290611405908390612835565b60405180910390a150565b33611419611312565b6001600160a01b03161461143f5760405162461bcd60e51b81526004016106ae9061293b565b6101015460009061145290600190612a1a565b905061145d81610e85565b81610101828154811061148057634e487b7160e01b600052603260045260246000fd5b60009182526020909120600590910201555050565b3361149e611312565b6001600160a01b0316146114c45760405162461bcd60e51b81526004016106ae9061293b565b61010355565b60335460ff16156114ed5760405162461bcd60e51b81526004016106ae906128c3565b6114f682610e85565b6000610101838154811061151a57634e487b7160e01b600052603260045260246000fd5b6000918252602090912060fc546005909202016003810154604051630a90b02760e11b81529193506001600160a01b0390921691631521604e91611562913391600401612849565b60206040518083038186803b15801561157a57600080fd5b505afa15801561158e573d6000803e3d6000fd5b505050506040513d601f19601f820116820180604052508101906115b2919061263a565b6116085760405162461bcd60e51b815260206004820152602160248201527f446964206e6f742077696e20746869732050726564696374696f6e20726f756e6044820152601960fa1b60648201526084016106ae565b600083815261010260209081526040808320338452909152902080541561167257600061165e8260010154610d3a68327cb2734119d3b7a9601e1b610d3487600201548760000154611cb090919063ffffffff16565b90508015611670576116703382611cd4565b505b82156117ef5760fb546040516370a0823160e01b81526000916001600160a01b0316906370a08231906116a9903090600401612835565b60206040518083038186803b1580156116c157600080fd5b505afa1580156116d5573d6000803e3d6000fd5b505050506040513d601f19601f820116820180604052508101906116f9919061266c565b60fb54909150611714906001600160a01b0316333087611e78565b60fb546040516370a0823160e01b81526117549161174c9184916001600160a01b0316906370a0823190610f4c903090600401612835565b835490611dc2565b825560fb546040516370a0823160e01b81526117999161178e9184916001600160a01b0316906370a0823190610f4c903090600401612835565b600485015490611dc2565b600484015561010054825411156117ed5760405162461bcd60e51b815260206004820152601860248201527713585e08141491510811195c1bdcda5d0814995858da195960421b60448201526064016106ae565b505b600282015481546118119168327cb2734119d3b7a9601e1b91610d3491611cb0565b6001820155604051838152849033907f90890809c654f11d6e72a28fa60149770a0d11ec6c92319d6ceb2bb0a4ea1a159060200160405180910390a350505050565b3361185c611312565b6001600160a01b0316146118825760405162461bcd60e51b81526004016106ae9061293b565b6001600160a01b0381166118e75760405162461bcd60e51b815260206004820152602660248201527f4f776e61626c653a206e6577206f776e657220697320746865207a65726f206160448201526564647265737360d01b60648201526084016106ae565b610c0481611dce565b600054610100900460ff1680611909575060005460ff16155b6119255760405162461bcd60e51b81526004016106ae906128ed565b600054610100900460ff16158015611950576000805460ff1961ff0019909116610100171660011790555b611958611eb6565b611960611f29565b8015610c04576000805461ff001916905550565b610106546001600160a01b031633146119be5760405162461bcd60e51b815260206004820152600c60248201526b2737ba1037b832b930ba37b960a11b60448201526064016106ae565b60006101045443116119d357610104546119d5565b435b6040805160a08101825294855260208501918252600090850181815260608601948552608086018281526101018054600181018255935295517f109ea3cebb188b9c1b9fc5bb3920be60dfdc8699098dff92f3d80daaca74768960059093029283015591517f109ea3cebb188b9c1b9fc5bb3920be60dfdc8699098dff92f3d80daaca74768a82015590517f109ea3cebb188b9c1b9fc5bb3920be60dfdc8699098dff92f3d80daaca74768b82015591517f109ea3cebb188b9c1b9fc5bb3920be60dfdc8699098dff92f3d80daaca74768c8301555090517f109ea3cebb188b9c1b9fc5bb3920be60dfdc8699098dff92f3d80daaca74768d90910155565b33611add611312565b6001600160a01b031614610c045760405162461bcd60e51b81526004016106ae9061293b565b6000611b0d611f92565b9050611b1884611fc0565b600083511180611b255750815b15611b3657611b34848461206c565b505b7f4910fdfa16fed3260ed0e7147f7cc6da11a60208b5b9406d12a635614ffd9143805460ff16611c4357805460ff19166001178155604051611bb1908690611b82908590602401612835565b60408051601f198184030181529190526020810180516001600160e01b0316631b2ce7f360e11b17905261206c565b50805460ff19168155611bc2611f92565b6001600160a01b0316826001600160a01b031614611c3a5760405162461bcd60e51b815260206004820152602f60248201527f45524331393637557067726164653a207570677261646520627265616b73206660448201526e75727468657220757067726164657360881b60648201526084016106ae565b611c438561215e565b5050505050565b60335460ff16611c6c5760405162461bcd60e51b81526004016106ae90612895565b6033805460ff191690557f5db9ee0a495bf2e6ff9c91a7834c1ba4fdd244a5e8aa4e537bd38aeae4b073aa335b604051611ca69190612835565b60405180910390a1565b6000610b6482846129fb565b6000610b6482846129db565b6000610b648284612a1a565b60ff5460405163736a0d4160e11b8152611d64916001600160a01b03169063e6d41a8290611d089086908690600401612849565b602060405180830381600087803b158015611d2257600080fd5b505af1158015611d36573d6000803e3d6000fd5b505050506040513d601f19601f82011682018060405250810190611d5a919061266c565b6101055490611cc8565b610105555050565b610adc8363a9059cbb60e01b8484604051602401611d8b929190612849565b60408051601f198184030181529190526020810180516001600160e01b03166001600160e01b03199093169290921790915261219e565b6000610b6482846129c3565b60c980546001600160a01b038381166001600160a01b0319831681179093556040519116919082907f8be0079c531659141344cd1fd0a4f28419497f9722a3daafe3b4186f6b6457e090600090a35050565b60335460ff1615611e435760405162461bcd60e51b81526004016106ae906128c3565b6033805460ff191660011790557f62e78cea01bee320cd4e420270b5ea74000d11b0c9f74754ebdbfc544b05a258611c993390565b6040516001600160a01b0380851660248301528316604482015260648101829052611eb09085906323b872dd60e01b90608401611d8b565b50505050565b600054610100900460ff1680611ecf575060005460ff16155b611eeb5760405162461bcd60e51b81526004016106ae906128ed565b600054610100900460ff16158015611960576000805460ff1961ff0019909116610100171660011790558015610c04576000805461ff001916905550565b600054610100900460ff1680611f42575060005460ff16155b611f5e5760405162461bcd60e51b81526004016106ae906128ed565b600054610100900460ff16158015611f89576000805460ff1961ff0019909116610100171660011790555b61196033611dce565b7f360894a13ba1a3210667c828492db98dca3e2076cc3735a920a3ca505d382bbc546001600160a01b031690565b611fc981612270565b61202b5760405162461bcd60e51b815260206004820152602d60248201527f455243313936373a206e657720696d706c656d656e746174696f6e206973206e60448201526c1bdd08184818dbdb9d1c9858dd609a1b60648201526084016106ae565b7f360894a13ba1a3210667c828492db98dca3e2076cc3735a920a3ca505d382bbc80546001600160a01b0319166001600160a01b0392909216919091179055565b606061207783612270565b6120d25760405162461bcd60e51b815260206004820152602660248201527f416464726573733a2064656c65676174652063616c6c20746f206e6f6e2d636f6044820152651b9d1c9858dd60d21b60648201526084016106ae565b600080846001600160a01b0316846040516120ed9190612819565b600060405180830381855af49150503d8060008114612128576040519150601f19603f3d011682016040523d82523d6000602084013e61212d565b606091505b50915091506121558282604051806060016040528060278152602001612a9f6027913961227a565b95945050505050565b61216781611fc0565b6040516001600160a01b038216907fbc7cd75a20ee27fd9adebab32041f755214dbc6bffa90cc0225b39da2e5c2d3b90600090a250565b60006121f3826040518060400160405280602081526020017f5361666545524332303a206c6f772d6c6576656c2063616c6c206661696c6564815250856001600160a01b03166122b39092919063ffffffff16565b805190915015610adc5780806020019051810190612211919061263a565b610adc5760405162461bcd60e51b815260206004820152602a60248201527f5361666545524332303a204552433230206f7065726174696f6e20646964206e6044820152691bdd081cdd58d8d9595960b21b60648201526084016106ae565b803b15155b919050565b60608315612289575081610b64565b8251156122995782518084602001fd5b8160405162461bcd60e51b81526004016106ae9190612862565b60606122c284846000856122ca565b949350505050565b60608247101561232b5760405162461bcd60e51b815260206004820152602660248201527f416464726573733a20696e73756666696369656e742062616c616e636520666f6044820152651c8818d85b1b60d21b60648201526084016106ae565b61233485612270565b6123805760405162461bcd60e51b815260206004820152601d60248201527f416464726573733a2063616c6c20746f206e6f6e2d636f6e747261637400000060448201526064016106ae565b600080866001600160a01b0316858760405161239c9190612819565b60006040518083038185875af1925050503d80600081146123d9576040519150601f19603f3d011682016040523d82523d6000602084013e6123de565b606091505b50915091506123ee82828661227a565b979650505050505050565b600082601f830112612409578081fd5b8151602061241e612419836129a0565b612970565b828152818101908583018385028701840188101561243a578586fd5b855b8581101561246157815161244f81612a89565b8452928401929084019060010161243c565b5090979650505050505050565b600082601f83011261247e578081fd5b8151602061248e612419836129a0565b82815281810190858301838502870184018810156124aa578586fd5b855b85811015612461578151845292840192908401906001016124ac565b8051801515811461227557600080fd5b6000602082840312156124e9578081fd5b8135610b6481612a89565b60008060408385031215612506578081fd5b823561251181612a89565b91506020838101356001600160401b038082111561252d578384fd5b818601915086601f830112612540578384fd5b81358181111561255257612552612a73565b612564601f8201601f19168501612970565b91508082528784828501011115612579578485fd5b8084840185840137810190920192909252919491935090915050565b600080600080600080600060e0888a0312156125af578283fd5b87356125ba81612a89565b965060208801356125ca81612a89565b955060408801359450606088013593506080880135925060a08801356125ef81612a89565b915060c08801356125ff81612a89565b8091505092959891949750929550565b60008060408385031215612621578182fd5b823561262c81612a89565b946020939093013593505050565b60006020828403121561264b578081fd5b610b64826124c8565b600060208284031215612665578081fd5b5035919050565b60006020828403121561267d578081fd5b5051919050565b60008060408385031215612696578182fd5b8235915060208301356126a881612a89565b809150509250929050565b600080604083850312156126c5578182fd5b50508035926020909101359150565b60008060008060008060008060008060006101608c8e0312156126f5578485fd5b8b519a5060208c0151995060408c0151985060608c0151975061271a60808d016124c8565b965060a08c01516001600160401b03811115612734578586fd5b6127408e828f016123f9565b96505060c08c01516001600160401b0381111561275b578586fd5b6127678e828f0161246e565b95505060e08c01516001600160401b03811115612782578485fd5b61278e8e828f0161246e565b9450506101008c01516001600160401b038111156127aa578384fd5b6127b68e828f0161246e565b9350506101208c01516001600160401b038111156127d2578283fd5b6127de8e828f0161246e565b9250506101408c01516001600160401b038111156127fa578182fd5b6128068e828f0161246e565b9150509295989b509295989b9093969950565b6000825161282b818460208701612a31565b9190910192915050565b6001600160a01b0391909116815260200190565b6001600160a01b03929092168252602082015260400190565b6000602082528251806020840152612881816040850160208701612a31565b601f01601f19169190910160400192915050565b60208082526014908201527314185d5cd8589b194e881b9bdd081c185d5cd95960621b604082015260600190565b60208082526010908201526f14185d5cd8589b194e881c185d5cd95960821b604082015260600190565b6020808252602e908201527f496e697469616c697a61626c653a20636f6e747261637420697320616c72656160408201526d191e481a5b9a5d1a585b1a5e995960921b606082015260800190565b6020808252818101527f4f776e61626c653a2063616c6c6572206973206e6f7420746865206f776e6572604082015260600190565b604051601f8201601f191681016001600160401b038111828210171561299857612998612a73565b604052919050565b60006001600160401b038211156129b9576129b9612a73565b5060209081020190565b600082198211156129d6576129d6612a5d565b500190565b6000826129f657634e487b7160e01b81526012600452602481fd5b500490565b6000816000190483118215151615612a1557612a15612a5d565b500290565b600082821015612a2c57612a2c612a5d565b500390565b60005b83811015612a4c578181015183820152602001612a34565b83811115611eb05750506000910152565b634e487b7160e01b600052601160045260246000fd5b634e487b7160e01b600052604160045260246000fd5b6001600160a01b0381168114610c0457600080fdfe416464726573733a206c6f772d6c6576656c2064656c65676174652063616c6c206661696c6564a2646970667358221220fc60851bdbbbdbf24758838b9266622903a8caaeb39e756a5832ea7fad659cbb64736f6c63430008020033",
  "linkReferences": {},
  "deployedLinkReferences": {}
}