{
	"data": {
		"bytecode": {
			"linkReferences": {},
			"object": "608060405234801561001057600080fd5b50612be4806100206000396000f3fe6080604052600436106102055760003560e01c8063715018a611610113578063b3ab15fb116100ab578063e2bbb1581161006f578063e2bbb1581461061f578063e5c9ad2e1461063f578063e775db301461065f578063f2fde38b14610675578063f54265781461069557610205565b8063b3ab15fb14610587578063b7a3c110146105a7578063c26780b0146105c7578063d3dd7eb7146105e8578063e0747c96146105ff57610205565b8063715018a61461048f57806383bb3877146104a45780638456cb59146104bb5780638aa28550146104d05780638da5cb5b146104e65780638dbb1e3a146104fb57806393f1a40b1461051b578063ae5241a014610570578063b3944d521461020a57610205565b80633f4ba83a116101a157806351eb05a61161016557806351eb05a6146103f6578063521eb273146104165780635312ea8e146104375780635c975abb146104575780635ffe61461461046f57610205565b80633f4ba83a14610377578063441a3e701461038c578063487a6038146103ac57806348cd4cb1146103cc5780634f1ef286146103e357610205565b8063081e3eda1461020a5780631003e2d21461022f578063127effb2146102515780631521604e1461027f5780631526fe27146102af5780631b58a681146102f75780631c8d04e2146103175780632372c916146103375780633659cfe614610357575b600080fd5b34801561021657600080fd5b50610102545b6040519081526020015b60405180910390f35b34801561023b57600080fd5b5061024f61024a366004612719565b6106b5565b005b34801561025d57600080fd5b5061010754610272906001600160a01b031681565b60405161022691906128fa565b34801561028b57600080fd5b5061029f61029a3660046126d4565b610a2c565b6040519015158152602001610226565b3480156102bb57600080fd5b506102cf6102ca366004612719565b610ab6565b604080519586526020860194909452928401919091526060830152608082015260a001610226565b34801561030357600080fd5b5061024f610312366004612647565b610af8565b34801561032357600080fd5b5061029f6103323660046126d4565b610bf3565b34801561034357600080fd5b5060fd54610272906001600160a01b031681565b34801561036357600080fd5b5061024f61037236600461258a565b610c26565b34801561038357600080fd5b5061024f610c4d565b34801561039857600080fd5b5061024f6103a7366004612778565b610c86565b3480156103b857600080fd5b5060fc54610272906001600160a01b031681565b3480156103d857600080fd5b5061021c6101055481565b61024f6103f13660046125a6565b610eb2565b34801561040257600080fd5b5061024f610411366004612719565b610ecb565b34801561042257600080fd5b5061010054610272906001600160a01b031681565b34801561044357600080fd5b5061024f610452366004612719565b611045565b34801561046357600080fd5b5060335460ff1661029f565b34801561047b57600080fd5b5061024f61048a366004612719565b611158565b34801561049b57600080fd5b5061024f61118c565b3480156104b057600080fd5b5061021c6101065481565b3480156104c757600080fd5b5061024f6111c5565b3480156104dc57600080fd5b5061021c60ff5481565b3480156104f257600080fd5b506102726111fc565b34801561050757600080fd5b5061021c610516366004612778565b61120b565b34801561052757600080fd5b5061055b610536366004612749565b6101036020908152600092835260408084209091529082529020805460019091015482565b60408051928352602083019190915201610226565b34801561057c57600080fd5b5061021c6101015481565b34801561059357600080fd5b5061024f6105a236600461258a565b611225565b3480156105b357600080fd5b5061024f6105c2366004612719565b6112fa565b3480156105d357600080fd5b5061024f6105e2366004612719565b61010155565b3480156105f457600080fd5b5061021c6101045481565b34801561060b57600080fd5b5061024f61061a366004612719565b61137f565b34801561062b57600080fd5b5061024f61063a366004612778565b6113b4565b34801561064b57600080fd5b5060fb54610272906001600160a01b031681565b34801561066b57600080fd5b5061021c60fe5481565b34801561068157600080fd5b5061024f61069036600461258a565b6117b4565b3480156106a157600080fd5b5061021c6106b0366004612749565b611851565b60fd5460405163023c4c9f60e61b8152600481018390526000916001600160a01b031690638f1327c09060240160006040518083038186803b1580156106fa57600080fd5b505afa15801561070e573d6000803e3d6000fd5b505050506040513d6000823e601f3d908101601f191682016040526107369190810190612799565b505050505050945050505050806107a55760405162461bcd60e51b815260206004820152602860248201527f526f756e6420776173206e6f74207375636365737366756c206f72206e6f7420604482015267636f6d706c65746560c01b60648201526084015b60405180910390fd5b60fd5460408051630ecce30160e31b815290516000926001600160a01b031691637667180891600480830192602092919082900301818787803b1580156107eb57600080fd5b505af11580156107ff573d6000803e3d6000fd5b505050506040513d601f19601f820116820180604052508101906108239190612731565b90508281146109135760fd5460405163023c4c9f60e61b8152600481018390526000916001600160a01b031690638f1327c09060240160006040518083038186803b15801561087157600080fd5b505afa158015610885573d6000803e3d6000fd5b505050506040513d6000823e601f3d908101601f191682016040526108ad9190810190612799565b50505050505094505050505080156109115760405162461bcd60e51b815260206004820152602160248201527f43757272656e7420526f756e6420697320616c726561647920636f6d706c65746044820152606560f81b606482015260840161079c565b505b6101025415610a1a576101025460009061092f90600190612b03565b905083610102828154811061095457634e487b7160e01b600052603260045260246000fd5b906000526020600020906005020160030154106109cb5760405162461bcd60e51b815260206004820152602f60248201527f4e65772065706f63682063616e6e6f74206265206c657373206f72206571756160448201526e0d840e8de40e0c2e6e840cae0dec6d608b1b606482015260840161079c565b6109d481610ecb565b6101028054600091906109e990600190612b03565b81548110610a0757634e487b7160e01b600052603260045260246000fd5b6000918252602090912060059091020155505b610a2761010454846119af565b505050565b60fd54604051630a90b02760e11b81526000916001600160a01b031690631521604e90610a5f9086908690600401612932565b60206040518083038186803b158015610a7757600080fd5b505afa158015610a8b573d6000803e3d6000fd5b505050506040513d601f19601f82011682018060405250810190610aaf91906126ff565b9392505050565b6101028181548110610ac757600080fd5b6000918252602090912060059091020180546001820154600283015460038401546004909401549294509092909185565b600054610100900460ff1680610b11575060005460ff16155b610b2d5760405162461bcd60e51b815260040161079c906129d6565b600054610100900460ff16158015610b58576000805460ff1961ff0019909116610100171660011790555b610b60611b0f565b61010780546001600160a01b03199081166001600160a01b038c81169190911790925560fb805482168b841617905560fc805482168a841617905560fe8890556101058790556101008054821686841617905560fd8054909116918416919091179055610101849055620f424060ff5560c8610104558015610be8576000805461ff00191690555b505050505050505050565b60fd54604051630e46827160e11b81526000916001600160a01b031690631c8d04e290610a5f9086908690600401612932565b610c2f81611b93565b610c4a81604051806020016040528060008152506000611bc2565b50565b33610c566111fc565b6001600160a01b031614610c7c5760405162461bcd60e51b815260040161079c90612a24565b610c84611d09565b565b60335460ff1615610ca95760405162461bcd60e51b815260040161079c906129ac565b60006101028381548110610ccd57634e487b7160e01b600052603260045260246000fd5b60009182526020808320868452610103825260408085203386529092529220805460059092029092019250831115610d3c5760405162461bcd60e51b81526020600482015260126024820152711dda5d1a191c985dce881b9bdd0819dbdbd960721b604482015260640161079c565b610d4584610ecb565b6000610d868260010154610d8068327cb2734119d3b7a9601e1b610d7a87600201548760000154611d6f90919063ffffffff16565b90611d7b565b90611d87565b90508015610d9857610d983382611d93565b8315610dd7578154610daa9085611d87565b82556004830154610dbb9085611d87565b600484015560fb54610dd7906001600160a01b03163386611e35565b60028301548254610df99168327cb2734119d3b7a9601e1b91610d7a91611d6f565b8260010181905550826101028681548110610e2457634e487b7160e01b600052603260045260246000fd5b9060005260206000209060050201600082015481600001556001820154816001015560028201548160020155600382015481600301556004820154816004015590505084336001600160a01b03167ff279e6a1f5e320cca91135676d9cb6e44ca8a08c0b88342bcdb1144f6511b56886604051610ea391815260200190565b60405180910390a35050505050565b610ebb82611b93565b610ec782826001611bc2565b5050565b60006101028281548110610eef57634e487b7160e01b600052603260045260246000fd5b9060005260206000209060050201905080600101544311610f105750610c4a565b6004810154610f255743600190910155610c4a565b6000610f3582600101544361120b565b90506000610f4e60fe5483611d6f90919063ffffffff16565b6101065460fc54610100546040516370a0823160e01b8152939450600093610fe393926001600160a01b03908116926370a0823192610f9392909116906004016128fa565b60206040518083038186803b158015610fab57600080fd5b505afa158015610fbf573d6000803e3d6000fd5b505050506040513d601f19601f82011682018060405250810190610d809190612731565b9050808210610ff0578091505b600484015461101e9061101390610d7a8568327cb2734119d3b7a9601e1b611d6f565b600286015490611e8b565b6002850155610106546110319083611e8b565b610106555050436001909201919091555050565b60335460ff166110675760405162461bcd60e51b815260040161079c9061297e565b6000610102828154811061108b57634e487b7160e01b600052603260045260246000fd5b600091825260208083208584526101038252604080852033865290925290832080548482556001820185905560026005909402909201928301549294509290916110ee908290610d809068327cb2734119d3b7a9601e1b90610d7a908790611d6f565b905061010654811161110d57610106546111089082611d87565b610106555b60fb54611124906001600160a01b03163384611e35565b604051828152859033907fbb757047c2b5f3974fe26b7c10f732e7bce710b0952a71082702781e62ae059590602001610ea3565b336111616111fc565b6001600160a01b0316146111875760405162461bcd60e51b815260040161079c90612a24565b60ff55565b336111956111fc565b6001600160a01b0316146111bb5760405162461bcd60e51b815260040161079c90612a24565b610c846000611e97565b336111ce6111fc565b6001600160a01b0316146111f45760405162461bcd60e51b815260040161079c90612a24565b610c84611ee9565b60c9546001600160a01b031690565b60ff54600090610aaf9061121f8486611d87565b90611d6f565b3361122e6111fc565b6001600160a01b0316146112545760405162461bcd60e51b815260040161079c90612a24565b6001600160a01b0381166112a35760405162461bcd60e51b815260206004820152601660248201527543616e6e6f74206265207a65726f206164647265737360501b604482015260640161079c565b61010780546001600160a01b0319166001600160a01b0383161790556040517fc47d127c07bdd56c5ccba00463ce3bd3c1bca71b4670eea6e5d0c02e4aa156e2906112ef9083906128fa565b60405180910390a150565b336113036111fc565b6001600160a01b0316146113295760405162461bcd60e51b815260040161079c90612a24565b6101025460009061133c90600190612b03565b905061134781610ecb565b81610102828154811061136a57634e487b7160e01b600052603260045260246000fd5b60009182526020909120600590910201555050565b336113886111fc565b6001600160a01b0316146113ae5760405162461bcd60e51b815260040161079c90612a24565b61010455565b60335460ff16156113d75760405162461bcd60e51b815260040161079c906129ac565b6113e082610ecb565b6000610102838154811061140457634e487b7160e01b600052603260045260246000fd5b6000918252602090912060fd546005909202016003810154604051630e46827160e11b81529193506001600160a01b0390921691631c8d04e29161144c913391600401612932565b60206040518083038186803b15801561146457600080fd5b505afa158015611478573d6000803e3d6000fd5b505050506040513d601f19601f8201168201806040525081019061149c91906126ff565b6114f35760405162461bcd60e51b815260206004820152602260248201527f446964206e6f74206c6f736520746869732050726564696374696f6e20726f756044820152611b9960f21b606482015260840161079c565b600083815261010360209081526040808320338452909152902080541561155d5760006115498260010154610d8068327cb2734119d3b7a9601e1b610d7a87600201548760000154611d6f90919063ffffffff16565b9050801561155b5761155b3382611d93565b505b82156116da5760fb546040516370a0823160e01b81526000916001600160a01b0316906370a08231906115949030906004016128fa565b60206040518083038186803b1580156115ac57600080fd5b505afa1580156115c0573d6000803e3d6000fd5b505050506040513d601f19601f820116820180604052508101906115e49190612731565b60fb549091506115ff906001600160a01b0316333087611f41565b60fb546040516370a0823160e01b815261163f916116379184916001600160a01b0316906370a0823190610f939030906004016128fa565b835490611e8b565b825560fb546040516370a0823160e01b8152611684916116799184916001600160a01b0316906370a0823190610f939030906004016128fa565b600485015490611e8b565b600484015561010154825411156116d85760405162461bcd60e51b815260206004820152601860248201527713585e08141491510811195c1bdcda5d0814995858da195960421b604482015260640161079c565b505b600282015481546116fc9168327cb2734119d3b7a9601e1b91610d7a91611d6f565b816001018190555081610102858154811061172757634e487b7160e01b600052603260045260246000fd5b9060005260206000209060050201600082015481600001556001820154816001015560028201548160020155600382015481600301556004820154816004015590505083336001600160a01b03167f90890809c654f11d6e72a28fa60149770a0d11ec6c92319d6ceb2bb0a4ea1a15856040516117a691815260200190565b60405180910390a350505050565b336117bd6111fc565b6001600160a01b0316146117e35760405162461bcd60e51b815260040161079c90612a24565b6001600160a01b0381166118485760405162461bcd60e51b815260206004820152602660248201527f4f776e61626c653a206e6577206f776e657220697320746865207a65726f206160448201526564647265737360d01b606482015260840161079c565b610c4a81611e97565b600080610102848154811061187657634e487b7160e01b600052603260045260246000fd5b60009182526020808320878452610103825260408085206001600160a01b038916865290925292206002600590920290920190810154600182015491935090431180156118c65750600483015415155b156119765760006118db84600101544361120b565b905060006118f460fe5483611d6f90919063ffffffff16565b6101065460fc54610100546040516370a0823160e01b815293945060009361193993926001600160a01b03908116926370a0823192610f9392909116906004016128fa565b9050808210611946578091505b60048601546119709061196990610d7a8568327cb2734119d3b7a9601e1b611d6f565b8590611e8b565b93505050505b6119a58260010154610d8068327cb2734119d3b7a9601e1b610d7a858760000154611d6f90919063ffffffff16565b9695505050505050565b610107546001600160a01b031633146119f95760405162461bcd60e51b815260206004820152600c60248201526b2737ba1037b832b930ba37b960a11b604482015260640161079c565b6000610105544311611a0e5761010554611a10565b435b6040805160a08101825294855260208501918252600090850181815260608601948552608086018281526101028054600181018255935295517f93bdaa6a4190909b7c3fbe8d42169ffe1cab19f51dfc8db24c71abf849eced4a60059093029283015591517f93bdaa6a4190909b7c3fbe8d42169ffe1cab19f51dfc8db24c71abf849eced4b82015590517f93bdaa6a4190909b7c3fbe8d42169ffe1cab19f51dfc8db24c71abf849eced4c82015591517f93bdaa6a4190909b7c3fbe8d42169ffe1cab19f51dfc8db24c71abf849eced4d8301555090517f93bdaa6a4190909b7c3fbe8d42169ffe1cab19f51dfc8db24c71abf849eced4e90910155565b600054610100900460ff1680611b28575060005460ff16155b611b445760405162461bcd60e51b815260040161079c906129d6565b600054610100900460ff16158015611b6f576000805460ff1961ff0019909116610100171660011790555b611b77611f68565b611b7f611fdb565b8015610c4a576000805461ff001916905550565b33611b9c6111fc565b6001600160a01b031614610c4a5760405162461bcd60e51b815260040161079c90612a24565b6000611bcc612044565b9050611bd784612072565b600083511180611be45750815b15611bf557611bf3848461211e565b505b7f4910fdfa16fed3260ed0e7147f7cc6da11a60208b5b9406d12a635614ffd9143805460ff16611d0257805460ff19166001178155604051611c70908690611c419085906024016128fa565b60408051601f198184030181529190526020810180516001600160e01b0316631b2ce7f360e11b17905261211e565b50805460ff19168155611c81612044565b6001600160a01b0316826001600160a01b031614611cf95760405162461bcd60e51b815260206004820152602f60248201527f45524331393637557067726164653a207570677261646520627265616b73206660448201526e75727468657220757067726164657360881b606482015260840161079c565b611d0285612210565b5050505050565b60335460ff16611d2b5760405162461bcd60e51b815260040161079c9061297e565b6033805460ff191690557f5db9ee0a495bf2e6ff9c91a7834c1ba4fdd244a5e8aa4e537bd38aeae4b073aa335b604051611d6591906128fa565b60405180910390a1565b6000610aaf8284612ae4565b6000610aaf8284612ac4565b6000610aaf8284612b03565b6101005460fc54604051635f6ce21d60e11b8152611e2d926001600160a01b039081169263bed9c43a92611dd192909116908790879060040161290e565b602060405180830381600087803b158015611deb57600080fd5b505af1158015611dff573d6000803e3d6000fd5b505050506040513d601f19601f82011682018060405250810190611e239190612731565b6101065490611d87565b610106555050565b610a278363a9059cbb60e01b8484604051602401611e54929190612932565b60408051601f198184030181529190526020810180516001600160e01b03166001600160e01b031990931692909217909152612250565b6000610aaf8284612aac565b60c980546001600160a01b038381166001600160a01b0319831681179093556040519116919082907f8be0079c531659141344cd1fd0a4f28419497f9722a3daafe3b4186f6b6457e090600090a35050565b60335460ff1615611f0c5760405162461bcd60e51b815260040161079c906129ac565b6033805460ff191660011790557f62e78cea01bee320cd4e420270b5ea74000d11b0c9f74754ebdbfc544b05a258611d583390565b611f62846323b872dd60e01b858585604051602401611e549392919061290e565b50505050565b600054610100900460ff1680611f81575060005460ff16155b611f9d5760405162461bcd60e51b815260040161079c906129d6565b600054610100900460ff16158015611b7f576000805460ff1961ff0019909116610100171660011790558015610c4a576000805461ff001916905550565b600054610100900460ff1680611ff4575060005460ff16155b6120105760405162461bcd60e51b815260040161079c906129d6565b600054610100900460ff1615801561203b576000805460ff1961ff0019909116610100171660011790555b611b7f33611e97565b7f360894a13ba1a3210667c828492db98dca3e2076cc3735a920a3ca505d382bbc546001600160a01b031690565b61207b81612322565b6120dd5760405162461bcd60e51b815260206004820152602d60248201527f455243313936373a206e657720696d706c656d656e746174696f6e206973206e60448201526c1bdd08184818dbdb9d1c9858dd609a1b606482015260840161079c565b7f360894a13ba1a3210667c828492db98dca3e2076cc3735a920a3ca505d382bbc80546001600160a01b0319166001600160a01b0392909216919091179055565b606061212983612322565b6121845760405162461bcd60e51b815260206004820152602660248201527f416464726573733a2064656c65676174652063616c6c20746f206e6f6e2d636f6044820152651b9d1c9858dd60d21b606482015260840161079c565b600080846001600160a01b03168460405161219f91906128de565b600060405180830381855af49150503d80600081146121da576040519150601f19603f3d011682016040523d82523d6000602084013e6121df565b606091505b50915091506122078282604051806060016040528060278152602001612b886027913961232c565b95945050505050565b61221981612072565b6040516001600160a01b038216907fbc7cd75a20ee27fd9adebab32041f755214dbc6bffa90cc0225b39da2e5c2d3b90600090a250565b60006122a5826040518060400160405280602081526020017f5361666545524332303a206c6f772d6c6576656c2063616c6c206661696c6564815250856001600160a01b03166123659092919063ffffffff16565b805190915015610a2757808060200190518101906122c391906126ff565b610a275760405162461bcd60e51b815260206004820152602a60248201527f5361666545524332303a204552433230206f7065726174696f6e20646964206e6044820152691bdd081cdd58d8d9595960b21b606482015260840161079c565b803b15155b919050565b6060831561233b575081610aaf565b82511561234b5782518084602001fd5b8160405162461bcd60e51b815260040161079c919061294b565b6060612374848460008561237c565b949350505050565b6060824710156123dd5760405162461bcd60e51b815260206004820152602660248201527f416464726573733a20696e73756666696369656e742062616c616e636520666f6044820152651c8818d85b1b60d21b606482015260840161079c565b6123e685612322565b6124325760405162461bcd60e51b815260206004820152601d60248201527f416464726573733a2063616c6c20746f206e6f6e2d636f6e7472616374000000604482015260640161079c565b600080866001600160a01b0316858760405161244e91906128de565b60006040518083038185875af1925050503d806000811461248b576040519150601f19603f3d011682016040523d82523d6000602084013e612490565b606091505b50915091506124a082828661232c565b979650505050505050565b600082601f8301126124bb578081fd5b815160206124d06124cb83612a89565b612a59565b82815281810190858301838502870184018810156124ec578586fd5b855b8581101561251357815161250181612b72565b845292840192908401906001016124ee565b5090979650505050505050565b600082601f830112612530578081fd5b815160206125406124cb83612a89565b828152818101908583018385028701840188101561255c578586fd5b855b858110156125135781518452928401929084019060010161255e565b8051801515811461232757600080fd5b60006020828403121561259b578081fd5b8135610aaf81612b72565b600080604083850312156125b8578081fd5b82356125c381612b72565b91506020838101356001600160401b03808211156125df578384fd5b818601915086601f8301126125f2578384fd5b81358181111561260457612604612b5c565b612616601f8201601f19168501612a59565b9150808252878482850101111561262b578485fd5b8084840185840137810190920192909252919491935090915050565b600080600080600080600080610100898b031215612663578384fd5b883561266e81612b72565b9750602089013561267e81612b72565b9650604089013561268e81612b72565b9550606089013594506080890135935060a0890135925060c08901356126b381612b72565b915060e08901356126c381612b72565b809150509295985092959890939650565b600080604083850312156126e6578182fd5b82356126f181612b72565b946020939093013593505050565b600060208284031215612710578081fd5b610aaf8261257a565b60006020828403121561272a578081fd5b5035919050565b600060208284031215612742578081fd5b5051919050565b6000806040838503121561275b578182fd5b82359150602083013561276d81612b72565b809150509250929050565b6000806040838503121561278a578182fd5b50508035926020909101359150565b60008060008060008060008060008060006101608c8e0312156127ba578485fd5b8b519a5060208c0151995060408c0151985060608c015197506127df60808d0161257a565b965060a08c01516001600160401b038111156127f9578586fd5b6128058e828f016124ab565b96505060c08c01516001600160401b03811115612820578586fd5b61282c8e828f01612520565b95505060e08c01516001600160401b03811115612847578384fd5b6128538e828f01612520565b9450506101008c01516001600160401b0381111561286f578384fd5b61287b8e828f01612520565b9350506101208c01516001600160401b03811115612897578283fd5b6128a38e828f01612520565b9250506101408c01516001600160401b038111156128bf578182fd5b6128cb8e828f01612520565b9150509295989b509295989b9093969950565b600082516128f0818460208701612b1a565b9190910192915050565b6001600160a01b0391909116815260200190565b6001600160a01b039384168152919092166020820152604081019190915260600190565b6001600160a01b03929092168252602082015260400190565b600060208252825180602084015261296a816040850160208701612b1a565b601f01601f19169190910160400192915050565b60208082526014908201527314185d5cd8589b194e881b9bdd081c185d5cd95960621b604082015260600190565b60208082526010908201526f14185d5cd8589b194e881c185d5cd95960821b604082015260600190565b6020808252602e908201527f496e697469616c697a61626c653a20636f6e747261637420697320616c72656160408201526d191e481a5b9a5d1a585b1a5e995960921b606082015260800190565b6020808252818101527f4f776e61626c653a2063616c6c6572206973206e6f7420746865206f776e6572604082015260600190565b604051601f8201601f191681016001600160401b0381118282101715612a8157612a81612b5c565b604052919050565b60006001600160401b03821115612aa257612aa2612b5c565b5060209081020190565b60008219821115612abf57612abf612b46565b500190565b600082612adf57634e487b7160e01b81526012600452602481fd5b500490565b6000816000190483118215151615612afe57612afe612b46565b500290565b600082821015612b1557612b15612b46565b500390565b60005b83811015612b35578181015183820152602001612b1d565b83811115611f625750506000910152565b634e487b7160e01b600052601160045260246000fd5b634e487b7160e01b600052604160045260246000fd5b6001600160a01b0381168114610c4a57600080fdfe416464726573733a206c6f772d6c6576656c2064656c65676174652063616c6c206661696c6564a2646970667358221220b1ba50498668d97b5c9bed49b694d1d63895cd9c03db2b322c344a20ff95802564736f6c63430008020033",
			"opcodes": "PUSH1 0x80 PUSH1 0x40 MSTORE CALLVALUE DUP1 ISZERO PUSH2 0x10 JUMPI PUSH1 0x0 DUP1 REVERT JUMPDEST POP PUSH2 0x2BE4 DUP1 PUSH2 0x20 PUSH1 0x0 CODECOPY PUSH1 0x0 RETURN INVALID PUSH1 0x80 PUSH1 0x40 MSTORE PUSH1 0x4 CALLDATASIZE LT PUSH2 0x205 JUMPI PUSH1 0x0 CALLDATALOAD PUSH1 0xE0 SHR DUP1 PUSH4 0x715018A6 GT PUSH2 0x113 JUMPI DUP1 PUSH4 0xB3AB15FB GT PUSH2 0xAB JUMPI DUP1 PUSH4 0xE2BBB158 GT PUSH2 0x6F JUMPI DUP1 PUSH4 0xE2BBB158 EQ PUSH2 0x61F JUMPI DUP1 PUSH4 0xE5C9AD2E EQ PUSH2 0x63F JUMPI DUP1 PUSH4 0xE775DB30 EQ PUSH2 0x65F JUMPI DUP1 PUSH4 0xF2FDE38B EQ PUSH2 0x675 JUMPI DUP1 PUSH4 0xF5426578 EQ PUSH2 0x695 JUMPI PUSH2 0x205 JUMP JUMPDEST DUP1 PUSH4 0xB3AB15FB EQ PUSH2 0x587 JUMPI DUP1 PUSH4 0xB7A3C110 EQ PUSH2 0x5A7 JUMPI DUP1 PUSH4 0xC26780B0 EQ PUSH2 0x5C7 JUMPI DUP1 PUSH4 0xD3DD7EB7 EQ PUSH2 0x5E8 JUMPI DUP1 PUSH4 0xE0747C96 EQ PUSH2 0x5FF JUMPI PUSH2 0x205 JUMP JUMPDEST DUP1 PUSH4 0x715018A6 EQ PUSH2 0x48F JUMPI DUP1 PUSH4 0x83BB3877 EQ PUSH2 0x4A4 JUMPI DUP1 PUSH4 0x8456CB59 EQ PUSH2 0x4BB JUMPI DUP1 PUSH4 0x8AA28550 EQ PUSH2 0x4D0 JUMPI DUP1 PUSH4 0x8DA5CB5B EQ PUSH2 0x4E6 JUMPI DUP1 PUSH4 0x8DBB1E3A EQ PUSH2 0x4FB JUMPI DUP1 PUSH4 0x93F1A40B EQ PUSH2 0x51B JUMPI DUP1 PUSH4 0xAE5241A0 EQ PUSH2 0x570 JUMPI DUP1 PUSH4 0xB3944D52 EQ PUSH2 0x20A JUMPI PUSH2 0x205 JUMP JUMPDEST DUP1 PUSH4 0x3F4BA83A GT PUSH2 0x1A1 JUMPI DUP1 PUSH4 0x51EB05A6 GT PUSH2 0x165 JUMPI DUP1 PUSH4 0x51EB05A6 EQ PUSH2 0x3F6 JUMPI DUP1 PUSH4 0x521EB273 EQ PUSH2 0x416 JUMPI DUP1 PUSH4 0x5312EA8E EQ PUSH2 0x437 JUMPI DUP1 PUSH4 0x5C975ABB EQ PUSH2 0x457 JUMPI DUP1 PUSH4 0x5FFE6146 EQ PUSH2 0x46F JUMPI PUSH2 0x205 JUMP JUMPDEST DUP1 PUSH4 0x3F4BA83A EQ PUSH2 0x377 JUMPI DUP1 PUSH4 0x441A3E70 EQ PUSH2 0x38C JUMPI DUP1 PUSH4 0x487A6038 EQ PUSH2 0x3AC JUMPI DUP1 PUSH4 0x48CD4CB1 EQ PUSH2 0x3CC JUMPI DUP1 PUSH4 0x4F1EF286 EQ PUSH2 0x3E3 JUMPI PUSH2 0x205 JUMP JUMPDEST DUP1 PUSH4 0x81E3EDA EQ PUSH2 0x20A JUMPI DUP1 PUSH4 0x1003E2D2 EQ PUSH2 0x22F JUMPI DUP1 PUSH4 0x127EFFB2 EQ PUSH2 0x251 JUMPI DUP1 PUSH4 0x1521604E EQ PUSH2 0x27F JUMPI DUP1 PUSH4 0x1526FE27 EQ PUSH2 0x2AF JUMPI DUP1 PUSH4 0x1B58A681 EQ PUSH2 0x2F7 JUMPI DUP1 PUSH4 0x1C8D04E2 EQ PUSH2 0x317 JUMPI DUP1 PUSH4 0x2372C916 EQ PUSH2 0x337 JUMPI DUP1 PUSH4 0x3659CFE6 EQ PUSH2 0x357 JUMPI JUMPDEST PUSH1 0x0 DUP1 REVERT JUMPDEST CALLVALUE DUP1 ISZERO PUSH2 0x216 JUMPI PUSH1 0x0 DUP1 REVERT JUMPDEST POP PUSH2 0x102 SLOAD JUMPDEST PUSH1 0x40 MLOAD SWAP1 DUP2 MSTORE PUSH1 0x20 ADD JUMPDEST PUSH1 0x40 MLOAD DUP1 SWAP2 SUB SWAP1 RETURN JUMPDEST CALLVALUE DUP1 ISZERO PUSH2 0x23B JUMPI PUSH1 0x0 DUP1 REVERT JUMPDEST POP PUSH2 0x24F PUSH2 0x24A CALLDATASIZE PUSH1 0x4 PUSH2 0x2719 JUMP JUMPDEST PUSH2 0x6B5 JUMP JUMPDEST STOP JUMPDEST CALLVALUE DUP1 ISZERO PUSH2 0x25D JUMPI PUSH1 0x0 DUP1 REVERT JUMPDEST POP PUSH2 0x107 SLOAD PUSH2 0x272 SWAP1 PUSH1 0x1 PUSH1 0x1 PUSH1 0xA0 SHL SUB AND DUP2 JUMP JUMPDEST PUSH1 0x40 MLOAD PUSH2 0x226 SWAP2 SWAP1 PUSH2 0x28FA JUMP JUMPDEST CALLVALUE DUP1 ISZERO PUSH2 0x28B JUMPI PUSH1 0x0 DUP1 REVERT JUMPDEST POP PUSH2 0x29F PUSH2 0x29A CALLDATASIZE PUSH1 0x4 PUSH2 0x26D4 JUMP JUMPDEST PUSH2 0xA2C JUMP JUMPDEST PUSH1 0x40 MLOAD SWAP1 ISZERO ISZERO DUP2 MSTORE PUSH1 0x20 ADD PUSH2 0x226 JUMP JUMPDEST CALLVALUE DUP1 ISZERO PUSH2 0x2BB JUMPI PUSH1 0x0 DUP1 REVERT JUMPDEST POP PUSH2 0x2CF PUSH2 0x2CA CALLDATASIZE PUSH1 0x4 PUSH2 0x2719 JUMP JUMPDEST PUSH2 0xAB6 JUMP JUMPDEST PUSH1 0x40 DUP1 MLOAD SWAP6 DUP7 MSTORE PUSH1 0x20 DUP7 ADD SWAP5 SWAP1 SWAP5 MSTORE SWAP3 DUP5 ADD SWAP2 SWAP1 SWAP2 MSTORE PUSH1 0x60 DUP4 ADD MSTORE PUSH1 0x80 DUP3 ADD MSTORE PUSH1 0xA0 ADD PUSH2 0x226 JUMP JUMPDEST CALLVALUE DUP1 ISZERO PUSH2 0x303 JUMPI PUSH1 0x0 DUP1 REVERT JUMPDEST POP PUSH2 0x24F PUSH2 0x312 CALLDATASIZE PUSH1 0x4 PUSH2 0x2647 JUMP JUMPDEST PUSH2 0xAF8 JUMP JUMPDEST CALLVALUE DUP1 ISZERO PUSH2 0x323 JUMPI PUSH1 0x0 DUP1 REVERT JUMPDEST POP PUSH2 0x29F PUSH2 0x332 CALLDATASIZE PUSH1 0x4 PUSH2 0x26D4 JUMP JUMPDEST PUSH2 0xBF3 JUMP JUMPDEST CALLVALUE DUP1 ISZERO PUSH2 0x343 JUMPI PUSH1 0x0 DUP1 REVERT JUMPDEST POP PUSH1 0xFD SLOAD PUSH2 0x272 SWAP1 PUSH1 0x1 PUSH1 0x1 PUSH1 0xA0 SHL SUB AND DUP2 JUMP JUMPDEST CALLVALUE DUP1 ISZERO PUSH2 0x363 JUMPI PUSH1 0x0 DUP1 REVERT JUMPDEST POP PUSH2 0x24F PUSH2 0x372 CALLDATASIZE PUSH1 0x4 PUSH2 0x258A JUMP JUMPDEST PUSH2 0xC26 JUMP JUMPDEST CALLVALUE DUP1 ISZERO PUSH2 0x383 JUMPI PUSH1 0x0 DUP1 REVERT JUMPDEST POP PUSH2 0x24F PUSH2 0xC4D JUMP JUMPDEST CALLVALUE DUP1 ISZERO PUSH2 0x398 JUMPI PUSH1 0x0 DUP1 REVERT JUMPDEST POP PUSH2 0x24F PUSH2 0x3A7 CALLDATASIZE PUSH1 0x4 PUSH2 0x2778 JUMP JUMPDEST PUSH2 0xC86 JUMP JUMPDEST CALLVALUE DUP1 ISZERO PUSH2 0x3B8 JUMPI PUSH1 0x0 DUP1 REVERT JUMPDEST POP PUSH1 0xFC SLOAD PUSH2 0x272 SWAP1 PUSH1 0x1 PUSH1 0x1 PUSH1 0xA0 SHL SUB AND DUP2 JUMP JUMPDEST CALLVALUE DUP1 ISZERO PUSH2 0x3D8 JUMPI PUSH1 0x0 DUP1 REVERT JUMPDEST POP PUSH2 0x21C PUSH2 0x105 SLOAD DUP2 JUMP JUMPDEST PUSH2 0x24F PUSH2 0x3F1 CALLDATASIZE PUSH1 0x4 PUSH2 0x25A6 JUMP JUMPDEST PUSH2 0xEB2 JUMP JUMPDEST CALLVALUE DUP1 ISZERO PUSH2 0x402 JUMPI PUSH1 0x0 DUP1 REVERT JUMPDEST POP PUSH2 0x24F PUSH2 0x411 CALLDATASIZE PUSH1 0x4 PUSH2 0x2719 JUMP JUMPDEST PUSH2 0xECB JUMP JUMPDEST CALLVALUE DUP1 ISZERO PUSH2 0x422 JUMPI PUSH1 0x0 DUP1 REVERT JUMPDEST POP PUSH2 0x100 SLOAD PUSH2 0x272 SWAP1 PUSH1 0x1 PUSH1 0x1 PUSH1 0xA0 SHL SUB AND DUP2 JUMP JUMPDEST CALLVALUE DUP1 ISZERO PUSH2 0x443 JUMPI PUSH1 0x0 DUP1 REVERT JUMPDEST POP PUSH2 0x24F PUSH2 0x452 CALLDATASIZE PUSH1 0x4 PUSH2 0x2719 JUMP JUMPDEST PUSH2 0x1045 JUMP JUMPDEST CALLVALUE DUP1 ISZERO PUSH2 0x463 JUMPI PUSH1 0x0 DUP1 REVERT JUMPDEST POP PUSH1 0x33 SLOAD PUSH1 0xFF AND PUSH2 0x29F JUMP JUMPDEST CALLVALUE DUP1 ISZERO PUSH2 0x47B JUMPI PUSH1 0x0 DUP1 REVERT JUMPDEST POP PUSH2 0x24F PUSH2 0x48A CALLDATASIZE PUSH1 0x4 PUSH2 0x2719 JUMP JUMPDEST PUSH2 0x1158 JUMP JUMPDEST CALLVALUE DUP1 ISZERO PUSH2 0x49B JUMPI PUSH1 0x0 DUP1 REVERT JUMPDEST POP PUSH2 0x24F PUSH2 0x118C JUMP JUMPDEST CALLVALUE DUP1 ISZERO PUSH2 0x4B0 JUMPI PUSH1 0x0 DUP1 REVERT JUMPDEST POP PUSH2 0x21C PUSH2 0x106 SLOAD DUP2 JUMP JUMPDEST CALLVALUE DUP1 ISZERO PUSH2 0x4C7 JUMPI PUSH1 0x0 DUP1 REVERT JUMPDEST POP PUSH2 0x24F PUSH2 0x11C5 JUMP JUMPDEST CALLVALUE DUP1 ISZERO PUSH2 0x4DC JUMPI PUSH1 0x0 DUP1 REVERT JUMPDEST POP PUSH2 0x21C PUSH1 0xFF SLOAD DUP2 JUMP JUMPDEST CALLVALUE DUP1 ISZERO PUSH2 0x4F2 JUMPI PUSH1 0x0 DUP1 REVERT JUMPDEST POP PUSH2 0x272 PUSH2 0x11FC JUMP JUMPDEST CALLVALUE DUP1 ISZERO PUSH2 0x507 JUMPI PUSH1 0x0 DUP1 REVERT JUMPDEST POP PUSH2 0x21C PUSH2 0x516 CALLDATASIZE PUSH1 0x4 PUSH2 0x2778 JUMP JUMPDEST PUSH2 0x120B JUMP JUMPDEST CALLVALUE DUP1 ISZERO PUSH2 0x527 JUMPI PUSH1 0x0 DUP1 REVERT JUMPDEST POP PUSH2 0x55B PUSH2 0x536 CALLDATASIZE PUSH1 0x4 PUSH2 0x2749 JUMP JUMPDEST PUSH2 0x103 PUSH1 0x20 SWAP1 DUP2 MSTORE PUSH1 0x0 SWAP3 DUP4 MSTORE PUSH1 0x40 DUP1 DUP5 KECCAK256 SWAP1 SWAP2 MSTORE SWAP1 DUP3 MSTORE SWAP1 KECCAK256 DUP1 SLOAD PUSH1 0x1 SWAP1 SWAP2 ADD SLOAD DUP3 JUMP JUMPDEST PUSH1 0x40 DUP1 MLOAD SWAP3 DUP4 MSTORE PUSH1 0x20 DUP4 ADD SWAP2 SWAP1 SWAP2 MSTORE ADD PUSH2 0x226 JUMP JUMPDEST CALLVALUE DUP1 ISZERO PUSH2 0x57C JUMPI PUSH1 0x0 DUP1 REVERT JUMPDEST POP PUSH2 0x21C PUSH2 0x101 SLOAD DUP2 JUMP JUMPDEST CALLVALUE DUP1 ISZERO PUSH2 0x593 JUMPI PUSH1 0x0 DUP1 REVERT JUMPDEST POP PUSH2 0x24F PUSH2 0x5A2 CALLDATASIZE PUSH1 0x4 PUSH2 0x258A JUMP JUMPDEST PUSH2 0x1225 JUMP JUMPDEST CALLVALUE DUP1 ISZERO PUSH2 0x5B3 JUMPI PUSH1 0x0 DUP1 REVERT JUMPDEST POP PUSH2 0x24F PUSH2 0x5C2 CALLDATASIZE PUSH1 0x4 PUSH2 0x2719 JUMP JUMPDEST PUSH2 0x12FA JUMP JUMPDEST CALLVALUE DUP1 ISZERO PUSH2 0x5D3 JUMPI PUSH1 0x0 DUP1 REVERT JUMPDEST POP PUSH2 0x24F PUSH2 0x5E2 CALLDATASIZE PUSH1 0x4 PUSH2 0x2719 JUMP JUMPDEST PUSH2 0x101 SSTORE JUMP JUMPDEST CALLVALUE DUP1 ISZERO PUSH2 0x5F4 JUMPI PUSH1 0x0 DUP1 REVERT JUMPDEST POP PUSH2 0x21C PUSH2 0x104 SLOAD DUP2 JUMP JUMPDEST CALLVALUE DUP1 ISZERO PUSH2 0x60B JUMPI PUSH1 0x0 DUP1 REVERT JUMPDEST POP PUSH2 0x24F PUSH2 0x61A CALLDATASIZE PUSH1 0x4 PUSH2 0x2719 JUMP JUMPDEST PUSH2 0x137F JUMP JUMPDEST CALLVALUE DUP1 ISZERO PUSH2 0x62B JUMPI PUSH1 0x0 DUP1 REVERT JUMPDEST POP PUSH2 0x24F PUSH2 0x63A CALLDATASIZE PUSH1 0x4 PUSH2 0x2778 JUMP JUMPDEST PUSH2 0x13B4 JUMP JUMPDEST CALLVALUE DUP1 ISZERO PUSH2 0x64B JUMPI PUSH1 0x0 DUP1 REVERT JUMPDEST POP PUSH1 0xFB SLOAD PUSH2 0x272 SWAP1 PUSH1 0x1 PUSH1 0x1 PUSH1 0xA0 SHL SUB AND DUP2 JUMP JUMPDEST CALLVALUE DUP1 ISZERO PUSH2 0x66B JUMPI PUSH1 0x0 DUP1 REVERT JUMPDEST POP PUSH2 0x21C PUSH1 0xFE SLOAD DUP2 JUMP JUMPDEST CALLVALUE DUP1 ISZERO PUSH2 0x681 JUMPI PUSH1 0x0 DUP1 REVERT JUMPDEST POP PUSH2 0x24F PUSH2 0x690 CALLDATASIZE PUSH1 0x4 PUSH2 0x258A JUMP JUMPDEST PUSH2 0x17B4 JUMP JUMPDEST CALLVALUE DUP1 ISZERO PUSH2 0x6A1 JUMPI PUSH1 0x0 DUP1 REVERT JUMPDEST POP PUSH2 0x21C PUSH2 0x6B0 CALLDATASIZE PUSH1 0x4 PUSH2 0x2749 JUMP JUMPDEST PUSH2 0x1851 JUMP JUMPDEST PUSH1 0xFD SLOAD PUSH1 0x40 MLOAD PUSH4 0x23C4C9F PUSH1 0xE6 SHL DUP2 MSTORE PUSH1 0x4 DUP2 ADD DUP4 SWAP1 MSTORE PUSH1 0x0 SWAP2 PUSH1 0x1 PUSH1 0x1 PUSH1 0xA0 SHL SUB AND SWAP1 PUSH4 0x8F1327C0 SWAP1 PUSH1 0x24 ADD PUSH1 0x0 PUSH1 0x40 MLOAD DUP1 DUP4 SUB DUP2 DUP7 DUP1 EXTCODESIZE ISZERO DUP1 ISZERO PUSH2 0x6FA JUMPI PUSH1 0x0 DUP1 REVERT JUMPDEST POP GAS STATICCALL ISZERO DUP1 ISZERO PUSH2 0x70E JUMPI RETURNDATASIZE PUSH1 0x0 DUP1 RETURNDATACOPY RETURNDATASIZE PUSH1 0x0 REVERT JUMPDEST POP POP POP POP PUSH1 0x40 MLOAD RETURNDATASIZE PUSH1 0x0 DUP3 RETURNDATACOPY PUSH1 0x1F RETURNDATASIZE SWAP1 DUP2 ADD PUSH1 0x1F NOT AND DUP3 ADD PUSH1 0x40 MSTORE PUSH2 0x736 SWAP2 SWAP1 DUP2 ADD SWAP1 PUSH2 0x2799 JUMP JUMPDEST POP POP POP POP POP POP SWAP5 POP POP POP POP POP DUP1 PUSH2 0x7A5 JUMPI PUSH1 0x40 MLOAD PUSH3 0x461BCD PUSH1 0xE5 SHL DUP2 MSTORE PUSH1 0x20 PUSH1 0x4 DUP3 ADD MSTORE PUSH1 0x28 PUSH1 0x24 DUP3 ADD MSTORE PUSH32 0x526F756E6420776173206E6F74207375636365737366756C206F72206E6F7420 PUSH1 0x44 DUP3 ADD MSTORE PUSH8 0x636F6D706C657465 PUSH1 0xC0 SHL PUSH1 0x64 DUP3 ADD MSTORE PUSH1 0x84 ADD JUMPDEST PUSH1 0x40 MLOAD DUP1 SWAP2 SUB SWAP1 REVERT JUMPDEST PUSH1 0xFD SLOAD PUSH1 0x40 DUP1 MLOAD PUSH4 0xECCE301 PUSH1 0xE3 SHL DUP2 MSTORE SWAP1 MLOAD PUSH1 0x0 SWAP3 PUSH1 0x1 PUSH1 0x1 PUSH1 0xA0 SHL SUB AND SWAP2 PUSH4 0x76671808 SWAP2 PUSH1 0x4 DUP1 DUP4 ADD SWAP3 PUSH1 0x20 SWAP3 SWAP2 SWAP1 DUP3 SWAP1 SUB ADD DUP2 DUP8 DUP8 DUP1 EXTCODESIZE ISZERO DUP1 ISZERO PUSH2 0x7EB JUMPI PUSH1 0x0 DUP1 REVERT JUMPDEST POP GAS CALL ISZERO DUP1 ISZERO PUSH2 0x7FF JUMPI RETURNDATASIZE PUSH1 0x0 DUP1 RETURNDATACOPY RETURNDATASIZE PUSH1 0x0 REVERT JUMPDEST POP POP POP POP PUSH1 0x40 MLOAD RETURNDATASIZE PUSH1 0x1F NOT PUSH1 0x1F DUP3 ADD AND DUP3 ADD DUP1 PUSH1 0x40 MSTORE POP DUP2 ADD SWAP1 PUSH2 0x823 SWAP2 SWAP1 PUSH2 0x2731 JUMP JUMPDEST SWAP1 POP DUP3 DUP2 EQ PUSH2 0x913 JUMPI PUSH1 0xFD SLOAD PUSH1 0x40 MLOAD PUSH4 0x23C4C9F PUSH1 0xE6 SHL DUP2 MSTORE PUSH1 0x4 DUP2 ADD DUP4 SWAP1 MSTORE PUSH1 0x0 SWAP2 PUSH1 0x1 PUSH1 0x1 PUSH1 0xA0 SHL SUB AND SWAP1 PUSH4 0x8F1327C0 SWAP1 PUSH1 0x24 ADD PUSH1 0x0 PUSH1 0x40 MLOAD DUP1 DUP4 SUB DUP2 DUP7 DUP1 EXTCODESIZE ISZERO DUP1 ISZERO PUSH2 0x871 JUMPI PUSH1 0x0 DUP1 REVERT JUMPDEST POP GAS STATICCALL ISZERO DUP1 ISZERO PUSH2 0x885 JUMPI RETURNDATASIZE PUSH1 0x0 DUP1 RETURNDATACOPY RETURNDATASIZE PUSH1 0x0 REVERT JUMPDEST POP POP POP POP PUSH1 0x40 MLOAD RETURNDATASIZE PUSH1 0x0 DUP3 RETURNDATACOPY PUSH1 0x1F RETURNDATASIZE SWAP1 DUP2 ADD PUSH1 0x1F NOT AND DUP3 ADD PUSH1 0x40 MSTORE PUSH2 0x8AD SWAP2 SWAP1 DUP2 ADD SWAP1 PUSH2 0x2799 JUMP JUMPDEST POP POP POP POP POP POP SWAP5 POP POP POP POP POP DUP1 ISZERO PUSH2 0x911 JUMPI PUSH1 0x40 MLOAD PUSH3 0x461BCD PUSH1 0xE5 SHL DUP2 MSTORE PUSH1 0x20 PUSH1 0x4 DUP3 ADD MSTORE PUSH1 0x21 PUSH1 0x24 DUP3 ADD MSTORE PUSH32 0x43757272656E7420526F756E6420697320616C726561647920636F6D706C6574 PUSH1 0x44 DUP3 ADD MSTORE PUSH1 0x65 PUSH1 0xF8 SHL PUSH1 0x64 DUP3 ADD MSTORE PUSH1 0x84 ADD PUSH2 0x79C JUMP JUMPDEST POP JUMPDEST PUSH2 0x102 SLOAD ISZERO PUSH2 0xA1A JUMPI PUSH2 0x102 SLOAD PUSH1 0x0 SWAP1 PUSH2 0x92F SWAP1 PUSH1 0x1 SWAP1 PUSH2 0x2B03 JUMP JUMPDEST SWAP1 POP DUP4 PUSH2 0x102 DUP3 DUP2 SLOAD DUP2 LT PUSH2 0x954 JUMPI PUSH4 0x4E487B71 PUSH1 0xE0 SHL PUSH1 0x0 MSTORE PUSH1 0x32 PUSH1 0x4 MSTORE PUSH1 0x24 PUSH1 0x0 REVERT JUMPDEST SWAP1 PUSH1 0x0 MSTORE PUSH1 0x20 PUSH1 0x0 KECCAK256 SWAP1 PUSH1 0x5 MUL ADD PUSH1 0x3 ADD SLOAD LT PUSH2 0x9CB JUMPI PUSH1 0x40 MLOAD PUSH3 0x461BCD PUSH1 0xE5 SHL DUP2 MSTORE PUSH1 0x20 PUSH1 0x4 DUP3 ADD MSTORE PUSH1 0x2F PUSH1 0x24 DUP3 ADD MSTORE PUSH32 0x4E65772065706F63682063616E6E6F74206265206C657373206F722065717561 PUSH1 0x44 DUP3 ADD MSTORE PUSH15 0xD840E8DE40E0C2E6E840CAE0DEC6D PUSH1 0x8B SHL PUSH1 0x64 DUP3 ADD MSTORE PUSH1 0x84 ADD PUSH2 0x79C JUMP JUMPDEST PUSH2 0x9D4 DUP2 PUSH2 0xECB JUMP JUMPDEST PUSH2 0x102 DUP1 SLOAD PUSH1 0x0 SWAP2 SWAP1 PUSH2 0x9E9 SWAP1 PUSH1 0x1 SWAP1 PUSH2 0x2B03 JUMP JUMPDEST DUP2 SLOAD DUP2 LT PUSH2 0xA07 JUMPI PUSH4 0x4E487B71 PUSH1 0xE0 SHL PUSH1 0x0 MSTORE PUSH1 0x32 PUSH1 0x4 MSTORE PUSH1 0x24 PUSH1 0x0 REVERT JUMPDEST PUSH1 0x0 SWAP2 DUP3 MSTORE PUSH1 0x20 SWAP1 SWAP2 KECCAK256 PUSH1 0x5 SWAP1 SWAP2 MUL ADD SSTORE POP JUMPDEST PUSH2 0xA27 PUSH2 0x104 SLOAD DUP5 PUSH2 0x19AF JUMP JUMPDEST POP POP POP JUMP JUMPDEST PUSH1 0xFD SLOAD PUSH1 0x40 MLOAD PUSH4 0xA90B027 PUSH1 0xE1 SHL DUP2 MSTORE PUSH1 0x0 SWAP2 PUSH1 0x1 PUSH1 0x1 PUSH1 0xA0 SHL SUB AND SWAP1 PUSH4 0x1521604E SWAP1 PUSH2 0xA5F SWAP1 DUP7 SWAP1 DUP7 SWAP1 PUSH1 0x4 ADD PUSH2 0x2932 JUMP JUMPDEST PUSH1 0x20 PUSH1 0x40 MLOAD DUP1 DUP4 SUB DUP2 DUP7 DUP1 EXTCODESIZE ISZERO DUP1 ISZERO PUSH2 0xA77 JUMPI PUSH1 0x0 DUP1 REVERT JUMPDEST POP GAS STATICCALL ISZERO DUP1 ISZERO PUSH2 0xA8B JUMPI RETURNDATASIZE PUSH1 0x0 DUP1 RETURNDATACOPY RETURNDATASIZE PUSH1 0x0 REVERT JUMPDEST POP POP POP POP PUSH1 0x40 MLOAD RETURNDATASIZE PUSH1 0x1F NOT PUSH1 0x1F DUP3 ADD AND DUP3 ADD DUP1 PUSH1 0x40 MSTORE POP DUP2 ADD SWAP1 PUSH2 0xAAF SWAP2 SWAP1 PUSH2 0x26FF JUMP JUMPDEST SWAP4 SWAP3 POP POP POP JUMP JUMPDEST PUSH2 0x102 DUP2 DUP2 SLOAD DUP2 LT PUSH2 0xAC7 JUMPI PUSH1 0x0 DUP1 REVERT JUMPDEST PUSH1 0x0 SWAP2 DUP3 MSTORE PUSH1 0x20 SWAP1 SWAP2 KECCAK256 PUSH1 0x5 SWAP1 SWAP2 MUL ADD DUP1 SLOAD PUSH1 0x1 DUP3 ADD SLOAD PUSH1 0x2 DUP4 ADD SLOAD PUSH1 0x3 DUP5 ADD SLOAD PUSH1 0x4 SWAP1 SWAP5 ADD SLOAD SWAP3 SWAP5 POP SWAP1 SWAP3 SWAP1 SWAP2 DUP6 JUMP JUMPDEST PUSH1 0x0 SLOAD PUSH2 0x100 SWAP1 DIV PUSH1 0xFF AND DUP1 PUSH2 0xB11 JUMPI POP PUSH1 0x0 SLOAD PUSH1 0xFF AND ISZERO JUMPDEST PUSH2 0xB2D JUMPI PUSH1 0x40 MLOAD PUSH3 0x461BCD PUSH1 0xE5 SHL DUP2 MSTORE PUSH1 0x4 ADD PUSH2 0x79C SWAP1 PUSH2 0x29D6 JUMP JUMPDEST PUSH1 0x0 SLOAD PUSH2 0x100 SWAP1 DIV PUSH1 0xFF AND ISZERO DUP1 ISZERO PUSH2 0xB58 JUMPI PUSH1 0x0 DUP1 SLOAD PUSH1 0xFF NOT PUSH2 0xFF00 NOT SWAP1 SWAP2 AND PUSH2 0x100 OR AND PUSH1 0x1 OR SWAP1 SSTORE JUMPDEST PUSH2 0xB60 PUSH2 0x1B0F JUMP JUMPDEST PUSH2 0x107 DUP1 SLOAD PUSH1 0x1 PUSH1 0x1 PUSH1 0xA0 SHL SUB NOT SWAP1 DUP2 AND PUSH1 0x1 PUSH1 0x1 PUSH1 0xA0 SHL SUB DUP13 DUP2 AND SWAP2 SWAP1 SWAP2 OR SWAP1 SWAP3 SSTORE PUSH1 0xFB DUP1 SLOAD DUP3 AND DUP12 DUP5 AND OR SWAP1 SSTORE PUSH1 0xFC DUP1 SLOAD DUP3 AND DUP11 DUP5 AND OR SWAP1 SSTORE PUSH1 0xFE DUP9 SWAP1 SSTORE PUSH2 0x105 DUP8 SWAP1 SSTORE PUSH2 0x100 DUP1 SLOAD DUP3 AND DUP7 DUP5 AND OR SWAP1 SSTORE PUSH1 0xFD DUP1 SLOAD SWAP1 SWAP2 AND SWAP2 DUP5 AND SWAP2 SWAP1 SWAP2 OR SWAP1 SSTORE PUSH2 0x101 DUP5 SWAP1 SSTORE PUSH3 0xF4240 PUSH1 0xFF SSTORE PUSH1 0xC8 PUSH2 0x104 SSTORE DUP1 ISZERO PUSH2 0xBE8 JUMPI PUSH1 0x0 DUP1 SLOAD PUSH2 0xFF00 NOT AND SWAP1 SSTORE JUMPDEST POP POP POP POP POP POP POP POP POP JUMP JUMPDEST PUSH1 0xFD SLOAD PUSH1 0x40 MLOAD PUSH4 0xE468271 PUSH1 0xE1 SHL DUP2 MSTORE PUSH1 0x0 SWAP2 PUSH1 0x1 PUSH1 0x1 PUSH1 0xA0 SHL SUB AND SWAP1 PUSH4 0x1C8D04E2 SWAP1 PUSH2 0xA5F SWAP1 DUP7 SWAP1 DUP7 SWAP1 PUSH1 0x4 ADD PUSH2 0x2932 JUMP JUMPDEST PUSH2 0xC2F DUP2 PUSH2 0x1B93 JUMP JUMPDEST PUSH2 0xC4A DUP2 PUSH1 0x40 MLOAD DUP1 PUSH1 0x20 ADD PUSH1 0x40 MSTORE DUP1 PUSH1 0x0 DUP2 MSTORE POP PUSH1 0x0 PUSH2 0x1BC2 JUMP JUMPDEST POP JUMP JUMPDEST CALLER PUSH2 0xC56 PUSH2 0x11FC JUMP JUMPDEST PUSH1 0x1 PUSH1 0x1 PUSH1 0xA0 SHL SUB AND EQ PUSH2 0xC7C JUMPI PUSH1 0x40 MLOAD PUSH3 0x461BCD PUSH1 0xE5 SHL DUP2 MSTORE PUSH1 0x4 ADD PUSH2 0x79C SWAP1 PUSH2 0x2A24 JUMP JUMPDEST PUSH2 0xC84 PUSH2 0x1D09 JUMP JUMPDEST JUMP JUMPDEST PUSH1 0x33 SLOAD PUSH1 0xFF AND ISZERO PUSH2 0xCA9 JUMPI PUSH1 0x40 MLOAD PUSH3 0x461BCD PUSH1 0xE5 SHL DUP2 MSTORE PUSH1 0x4 ADD PUSH2 0x79C SWAP1 PUSH2 0x29AC JUMP JUMPDEST PUSH1 0x0 PUSH2 0x102 DUP4 DUP2 SLOAD DUP2 LT PUSH2 0xCCD JUMPI PUSH4 0x4E487B71 PUSH1 0xE0 SHL PUSH1 0x0 MSTORE PUSH1 0x32 PUSH1 0x4 MSTORE PUSH1 0x24 PUSH1 0x0 REVERT JUMPDEST PUSH1 0x0 SWAP2 DUP3 MSTORE PUSH1 0x20 DUP1 DUP4 KECCAK256 DUP7 DUP5 MSTORE PUSH2 0x103 DUP3 MSTORE PUSH1 0x40 DUP1 DUP6 KECCAK256 CALLER DUP7 MSTORE SWAP1 SWAP3 MSTORE SWAP3 KECCAK256 DUP1 SLOAD PUSH1 0x5 SWAP1 SWAP3 MUL SWAP1 SWAP3 ADD SWAP3 POP DUP4 GT ISZERO PUSH2 0xD3C JUMPI PUSH1 0x40 MLOAD PUSH3 0x461BCD PUSH1 0xE5 SHL DUP2 MSTORE PUSH1 0x20 PUSH1 0x4 DUP3 ADD MSTORE PUSH1 0x12 PUSH1 0x24 DUP3 ADD MSTORE PUSH18 0x1DDA5D1A191C985DCE881B9BDD0819DBDBD9 PUSH1 0x72 SHL PUSH1 0x44 DUP3 ADD MSTORE PUSH1 0x64 ADD PUSH2 0x79C JUMP JUMPDEST PUSH2 0xD45 DUP5 PUSH2 0xECB JUMP JUMPDEST PUSH1 0x0 PUSH2 0xD86 DUP3 PUSH1 0x1 ADD SLOAD PUSH2 0xD80 PUSH9 0x327CB2734119D3B7A9 PUSH1 0x1E SHL PUSH2 0xD7A DUP8 PUSH1 0x2 ADD SLOAD DUP8 PUSH1 0x0 ADD SLOAD PUSH2 0x1D6F SWAP1 SWAP2 SWAP1 PUSH4 0xFFFFFFFF AND JUMP JUMPDEST SWAP1 PUSH2 0x1D7B JUMP JUMPDEST SWAP1 PUSH2 0x1D87 JUMP JUMPDEST SWAP1 POP DUP1 ISZERO PUSH2 0xD98 JUMPI PUSH2 0xD98 CALLER DUP3 PUSH2 0x1D93 JUMP JUMPDEST DUP4 ISZERO PUSH2 0xDD7 JUMPI DUP2 SLOAD PUSH2 0xDAA SWAP1 DUP6 PUSH2 0x1D87 JUMP JUMPDEST DUP3 SSTORE PUSH1 0x4 DUP4 ADD SLOAD PUSH2 0xDBB SWAP1 DUP6 PUSH2 0x1D87 JUMP JUMPDEST PUSH1 0x4 DUP5 ADD SSTORE PUSH1 0xFB SLOAD PUSH2 0xDD7 SWAP1 PUSH1 0x1 PUSH1 0x1 PUSH1 0xA0 SHL SUB AND CALLER DUP7 PUSH2 0x1E35 JUMP JUMPDEST PUSH1 0x2 DUP4 ADD SLOAD DUP3 SLOAD PUSH2 0xDF9 SWAP2 PUSH9 0x327CB2734119D3B7A9 PUSH1 0x1E SHL SWAP2 PUSH2 0xD7A SWAP2 PUSH2 0x1D6F JUMP JUMPDEST DUP3 PUSH1 0x1 ADD DUP2 SWAP1 SSTORE POP DUP3 PUSH2 0x102 DUP7 DUP2 SLOAD DUP2 LT PUSH2 0xE24 JUMPI PUSH4 0x4E487B71 PUSH1 0xE0 SHL PUSH1 0x0 MSTORE PUSH1 0x32 PUSH1 0x4 MSTORE PUSH1 0x24 PUSH1 0x0 REVERT JUMPDEST SWAP1 PUSH1 0x0 MSTORE PUSH1 0x20 PUSH1 0x0 KECCAK256 SWAP1 PUSH1 0x5 MUL ADD PUSH1 0x0 DUP3 ADD SLOAD DUP2 PUSH1 0x0 ADD SSTORE PUSH1 0x1 DUP3 ADD SLOAD DUP2 PUSH1 0x1 ADD SSTORE PUSH1 0x2 DUP3 ADD SLOAD DUP2 PUSH1 0x2 ADD SSTORE PUSH1 0x3 DUP3 ADD SLOAD DUP2 PUSH1 0x3 ADD SSTORE PUSH1 0x4 DUP3 ADD SLOAD DUP2 PUSH1 0x4 ADD SSTORE SWAP1 POP POP DUP5 CALLER PUSH1 0x1 PUSH1 0x1 PUSH1 0xA0 SHL SUB AND PUSH32 0xF279E6A1F5E320CCA91135676D9CB6E44CA8A08C0B88342BCDB1144F6511B568 DUP7 PUSH1 0x40 MLOAD PUSH2 0xEA3 SWAP2 DUP2 MSTORE PUSH1 0x20 ADD SWAP1 JUMP JUMPDEST PUSH1 0x40 MLOAD DUP1 SWAP2 SUB SWAP1 LOG3 POP POP POP POP POP JUMP JUMPDEST PUSH2 0xEBB DUP3 PUSH2 0x1B93 JUMP JUMPDEST PUSH2 0xEC7 DUP3 DUP3 PUSH1 0x1 PUSH2 0x1BC2 JUMP JUMPDEST POP POP JUMP JUMPDEST PUSH1 0x0 PUSH2 0x102 DUP3 DUP2 SLOAD DUP2 LT PUSH2 0xEEF JUMPI PUSH4 0x4E487B71 PUSH1 0xE0 SHL PUSH1 0x0 MSTORE PUSH1 0x32 PUSH1 0x4 MSTORE PUSH1 0x24 PUSH1 0x0 REVERT JUMPDEST SWAP1 PUSH1 0x0 MSTORE PUSH1 0x20 PUSH1 0x0 KECCAK256 SWAP1 PUSH1 0x5 MUL ADD SWAP1 POP DUP1 PUSH1 0x1 ADD SLOAD NUMBER GT PUSH2 0xF10 JUMPI POP PUSH2 0xC4A JUMP JUMPDEST PUSH1 0x4 DUP2 ADD SLOAD PUSH2 0xF25 JUMPI NUMBER PUSH1 0x1 SWAP1 SWAP2 ADD SSTORE PUSH2 0xC4A JUMP JUMPDEST PUSH1 0x0 PUSH2 0xF35 DUP3 PUSH1 0x1 ADD SLOAD NUMBER PUSH2 0x120B JUMP JUMPDEST SWAP1 POP PUSH1 0x0 PUSH2 0xF4E PUSH1 0xFE SLOAD DUP4 PUSH2 0x1D6F SWAP1 SWAP2 SWAP1 PUSH4 0xFFFFFFFF AND JUMP JUMPDEST PUSH2 0x106 SLOAD PUSH1 0xFC SLOAD PUSH2 0x100 SLOAD PUSH1 0x40 MLOAD PUSH4 0x70A08231 PUSH1 0xE0 SHL DUP2 MSTORE SWAP4 SWAP5 POP PUSH1 0x0 SWAP4 PUSH2 0xFE3 SWAP4 SWAP3 PUSH1 0x1 PUSH1 0x1 PUSH1 0xA0 SHL SUB SWAP1 DUP2 AND SWAP3 PUSH4 0x70A08231 SWAP3 PUSH2 0xF93 SWAP3 SWAP1 SWAP2 AND SWAP1 PUSH1 0x4 ADD PUSH2 0x28FA JUMP JUMPDEST PUSH1 0x20 PUSH1 0x40 MLOAD DUP1 DUP4 SUB DUP2 DUP7 DUP1 EXTCODESIZE ISZERO DUP1 ISZERO PUSH2 0xFAB JUMPI PUSH1 0x0 DUP1 REVERT JUMPDEST POP GAS STATICCALL ISZERO DUP1 ISZERO PUSH2 0xFBF JUMPI RETURNDATASIZE PUSH1 0x0 DUP1 RETURNDATACOPY RETURNDATASIZE PUSH1 0x0 REVERT JUMPDEST POP POP POP POP PUSH1 0x40 MLOAD RETURNDATASIZE PUSH1 0x1F NOT PUSH1 0x1F DUP3 ADD AND DUP3 ADD DUP1 PUSH1 0x40 MSTORE POP DUP2 ADD SWAP1 PUSH2 0xD80 SWAP2 SWAP1 PUSH2 0x2731 JUMP JUMPDEST SWAP1 POP DUP1 DUP3 LT PUSH2 0xFF0 JUMPI DUP1 SWAP2 POP JUMPDEST PUSH1 0x4 DUP5 ADD SLOAD PUSH2 0x101E SWAP1 PUSH2 0x1013 SWAP1 PUSH2 0xD7A DUP6 PUSH9 0x327CB2734119D3B7A9 PUSH1 0x1E SHL PUSH2 0x1D6F JUMP JUMPDEST PUSH1 0x2 DUP7 ADD SLOAD SWAP1 PUSH2 0x1E8B JUMP JUMPDEST PUSH1 0x2 DUP6 ADD SSTORE PUSH2 0x106 SLOAD PUSH2 0x1031 SWAP1 DUP4 PUSH2 0x1E8B JUMP JUMPDEST PUSH2 0x106 SSTORE POP POP NUMBER PUSH1 0x1 SWAP1 SWAP3 ADD SWAP2 SWAP1 SWAP2 SSTORE POP POP JUMP JUMPDEST PUSH1 0x33 SLOAD PUSH1 0xFF AND PUSH2 0x1067 JUMPI PUSH1 0x40 MLOAD PUSH3 0x461BCD PUSH1 0xE5 SHL DUP2 MSTORE PUSH1 0x4 ADD PUSH2 0x79C SWAP1 PUSH2 0x297E JUMP JUMPDEST PUSH1 0x0 PUSH2 0x102 DUP3 DUP2 SLOAD DUP2 LT PUSH2 0x108B JUMPI PUSH4 0x4E487B71 PUSH1 0xE0 SHL PUSH1 0x0 MSTORE PUSH1 0x32 PUSH1 0x4 MSTORE PUSH1 0x24 PUSH1 0x0 REVERT JUMPDEST PUSH1 0x0 SWAP2 DUP3 MSTORE PUSH1 0x20 DUP1 DUP4 KECCAK256 DUP6 DUP5 MSTORE PUSH2 0x103 DUP3 MSTORE PUSH1 0x40 DUP1 DUP6 KECCAK256 CALLER DUP7 MSTORE SWAP1 SWAP3 MSTORE SWAP1 DUP4 KECCAK256 DUP1 SLOAD DUP5 DUP3 SSTORE PUSH1 0x1 DUP3 ADD DUP6 SWAP1 SSTORE PUSH1 0x2 PUSH1 0x5 SWAP1 SWAP5 MUL SWAP1 SWAP3 ADD SWAP3 DUP4 ADD SLOAD SWAP3 SWAP5 POP SWAP3 SWAP1 SWAP2 PUSH2 0x10EE SWAP1 DUP3 SWAP1 PUSH2 0xD80 SWAP1 PUSH9 0x327CB2734119D3B7A9 PUSH1 0x1E SHL SWAP1 PUSH2 0xD7A SWAP1 DUP8 SWAP1 PUSH2 0x1D6F JUMP JUMPDEST SWAP1 POP PUSH2 0x106 SLOAD DUP2 GT PUSH2 0x110D JUMPI PUSH2 0x106 SLOAD PUSH2 0x1108 SWAP1 DUP3 PUSH2 0x1D87 JUMP JUMPDEST PUSH2 0x106 SSTORE JUMPDEST PUSH1 0xFB SLOAD PUSH2 0x1124 SWAP1 PUSH1 0x1 PUSH1 0x1 PUSH1 0xA0 SHL SUB AND CALLER DUP5 PUSH2 0x1E35 JUMP JUMPDEST PUSH1 0x40 MLOAD DUP3 DUP2 MSTORE DUP6 SWAP1 CALLER SWAP1 PUSH32 0xBB757047C2B5F3974FE26B7C10F732E7BCE710B0952A71082702781E62AE0595 SWAP1 PUSH1 0x20 ADD PUSH2 0xEA3 JUMP JUMPDEST CALLER PUSH2 0x1161 PUSH2 0x11FC JUMP JUMPDEST PUSH1 0x1 PUSH1 0x1 PUSH1 0xA0 SHL SUB AND EQ PUSH2 0x1187 JUMPI PUSH1 0x40 MLOAD PUSH3 0x461BCD PUSH1 0xE5 SHL DUP2 MSTORE PUSH1 0x4 ADD PUSH2 0x79C SWAP1 PUSH2 0x2A24 JUMP JUMPDEST PUSH1 0xFF SSTORE JUMP JUMPDEST CALLER PUSH2 0x1195 PUSH2 0x11FC JUMP JUMPDEST PUSH1 0x1 PUSH1 0x1 PUSH1 0xA0 SHL SUB AND EQ PUSH2 0x11BB JUMPI PUSH1 0x40 MLOAD PUSH3 0x461BCD PUSH1 0xE5 SHL DUP2 MSTORE PUSH1 0x4 ADD PUSH2 0x79C SWAP1 PUSH2 0x2A24 JUMP JUMPDEST PUSH2 0xC84 PUSH1 0x0 PUSH2 0x1E97 JUMP JUMPDEST CALLER PUSH2 0x11CE PUSH2 0x11FC JUMP JUMPDEST PUSH1 0x1 PUSH1 0x1 PUSH1 0xA0 SHL SUB AND EQ PUSH2 0x11F4 JUMPI PUSH1 0x40 MLOAD PUSH3 0x461BCD PUSH1 0xE5 SHL DUP2 MSTORE PUSH1 0x4 ADD PUSH2 0x79C SWAP1 PUSH2 0x2A24 JUMP JUMPDEST PUSH2 0xC84 PUSH2 0x1EE9 JUMP JUMPDEST PUSH1 0xC9 SLOAD PUSH1 0x1 PUSH1 0x1 PUSH1 0xA0 SHL SUB AND SWAP1 JUMP JUMPDEST PUSH1 0xFF SLOAD PUSH1 0x0 SWAP1 PUSH2 0xAAF SWAP1 PUSH2 0x121F DUP5 DUP7 PUSH2 0x1D87 JUMP JUMPDEST SWAP1 PUSH2 0x1D6F JUMP JUMPDEST CALLER PUSH2 0x122E PUSH2 0x11FC JUMP JUMPDEST PUSH1 0x1 PUSH1 0x1 PUSH1 0xA0 SHL SUB AND EQ PUSH2 0x1254 JUMPI PUSH1 0x40 MLOAD PUSH3 0x461BCD PUSH1 0xE5 SHL DUP2 MSTORE PUSH1 0x4 ADD PUSH2 0x79C SWAP1 PUSH2 0x2A24 JUMP JUMPDEST PUSH1 0x1 PUSH1 0x1 PUSH1 0xA0 SHL SUB DUP2 AND PUSH2 0x12A3 JUMPI PUSH1 0x40 MLOAD PUSH3 0x461BCD PUSH1 0xE5 SHL DUP2 MSTORE PUSH1 0x20 PUSH1 0x4 DUP3 ADD MSTORE PUSH1 0x16 PUSH1 0x24 DUP3 ADD MSTORE PUSH22 0x43616E6E6F74206265207A65726F2061646472657373 PUSH1 0x50 SHL PUSH1 0x44 DUP3 ADD MSTORE PUSH1 0x64 ADD PUSH2 0x79C JUMP JUMPDEST PUSH2 0x107 DUP1 SLOAD PUSH1 0x1 PUSH1 0x1 PUSH1 0xA0 SHL SUB NOT AND PUSH1 0x1 PUSH1 0x1 PUSH1 0xA0 SHL SUB DUP4 AND OR SWAP1 SSTORE PUSH1 0x40 MLOAD PUSH32 0xC47D127C07BDD56C5CCBA00463CE3BD3C1BCA71B4670EEA6E5D0C02E4AA156E2 SWAP1 PUSH2 0x12EF SWAP1 DUP4 SWAP1 PUSH2 0x28FA JUMP JUMPDEST PUSH1 0x40 MLOAD DUP1 SWAP2 SUB SWAP1 LOG1 POP JUMP JUMPDEST CALLER PUSH2 0x1303 PUSH2 0x11FC JUMP JUMPDEST PUSH1 0x1 PUSH1 0x1 PUSH1 0xA0 SHL SUB AND EQ PUSH2 0x1329 JUMPI PUSH1 0x40 MLOAD PUSH3 0x461BCD PUSH1 0xE5 SHL DUP2 MSTORE PUSH1 0x4 ADD PUSH2 0x79C SWAP1 PUSH2 0x2A24 JUMP JUMPDEST PUSH2 0x102 SLOAD PUSH1 0x0 SWAP1 PUSH2 0x133C SWAP1 PUSH1 0x1 SWAP1 PUSH2 0x2B03 JUMP JUMPDEST SWAP1 POP PUSH2 0x1347 DUP2 PUSH2 0xECB JUMP JUMPDEST DUP2 PUSH2 0x102 DUP3 DUP2 SLOAD DUP2 LT PUSH2 0x136A JUMPI PUSH4 0x4E487B71 PUSH1 0xE0 SHL PUSH1 0x0 MSTORE PUSH1 0x32 PUSH1 0x4 MSTORE PUSH1 0x24 PUSH1 0x0 REVERT JUMPDEST PUSH1 0x0 SWAP2 DUP3 MSTORE PUSH1 0x20 SWAP1 SWAP2 KECCAK256 PUSH1 0x5 SWAP1 SWAP2 MUL ADD SSTORE POP POP JUMP JUMPDEST CALLER PUSH2 0x1388 PUSH2 0x11FC JUMP JUMPDEST PUSH1 0x1 PUSH1 0x1 PUSH1 0xA0 SHL SUB AND EQ PUSH2 0x13AE JUMPI PUSH1 0x40 MLOAD PUSH3 0x461BCD PUSH1 0xE5 SHL DUP2 MSTORE PUSH1 0x4 ADD PUSH2 0x79C SWAP1 PUSH2 0x2A24 JUMP JUMPDEST PUSH2 0x104 SSTORE JUMP JUMPDEST PUSH1 0x33 SLOAD PUSH1 0xFF AND ISZERO PUSH2 0x13D7 JUMPI PUSH1 0x40 MLOAD PUSH3 0x461BCD PUSH1 0xE5 SHL DUP2 MSTORE PUSH1 0x4 ADD PUSH2 0x79C SWAP1 PUSH2 0x29AC JUMP JUMPDEST PUSH2 0x13E0 DUP3 PUSH2 0xECB JUMP JUMPDEST PUSH1 0x0 PUSH2 0x102 DUP4 DUP2 SLOAD DUP2 LT PUSH2 0x1404 JUMPI PUSH4 0x4E487B71 PUSH1 0xE0 SHL PUSH1 0x0 MSTORE PUSH1 0x32 PUSH1 0x4 MSTORE PUSH1 0x24 PUSH1 0x0 REVERT JUMPDEST PUSH1 0x0 SWAP2 DUP3 MSTORE PUSH1 0x20 SWAP1 SWAP2 KECCAK256 PUSH1 0xFD SLOAD PUSH1 0x5 SWAP1 SWAP3 MUL ADD PUSH1 0x3 DUP2 ADD SLOAD PUSH1 0x40 MLOAD PUSH4 0xE468271 PUSH1 0xE1 SHL DUP2 MSTORE SWAP2 SWAP4 POP PUSH1 0x1 PUSH1 0x1 PUSH1 0xA0 SHL SUB SWAP1 SWAP3 AND SWAP2 PUSH4 0x1C8D04E2 SWAP2 PUSH2 0x144C SWAP2 CALLER SWAP2 PUSH1 0x4 ADD PUSH2 0x2932 JUMP JUMPDEST PUSH1 0x20 PUSH1 0x40 MLOAD DUP1 DUP4 SUB DUP2 DUP7 DUP1 EXTCODESIZE ISZERO DUP1 ISZERO PUSH2 0x1464 JUMPI PUSH1 0x0 DUP1 REVERT JUMPDEST POP GAS STATICCALL ISZERO DUP1 ISZERO PUSH2 0x1478 JUMPI RETURNDATASIZE PUSH1 0x0 DUP1 RETURNDATACOPY RETURNDATASIZE PUSH1 0x0 REVERT JUMPDEST POP POP POP POP PUSH1 0x40 MLOAD RETURNDATASIZE PUSH1 0x1F NOT PUSH1 0x1F DUP3 ADD AND DUP3 ADD DUP1 PUSH1 0x40 MSTORE POP DUP2 ADD SWAP1 PUSH2 0x149C SWAP2 SWAP1 PUSH2 0x26FF JUMP JUMPDEST PUSH2 0x14F3 JUMPI PUSH1 0x40 MLOAD PUSH3 0x461BCD PUSH1 0xE5 SHL DUP2 MSTORE PUSH1 0x20 PUSH1 0x4 DUP3 ADD MSTORE PUSH1 0x22 PUSH1 0x24 DUP3 ADD MSTORE PUSH32 0x446964206E6F74206C6F736520746869732050726564696374696F6E20726F75 PUSH1 0x44 DUP3 ADD MSTORE PUSH2 0x1B99 PUSH1 0xF2 SHL PUSH1 0x64 DUP3 ADD MSTORE PUSH1 0x84 ADD PUSH2 0x79C JUMP JUMPDEST PUSH1 0x0 DUP4 DUP2 MSTORE PUSH2 0x103 PUSH1 0x20 SWAP1 DUP2 MSTORE PUSH1 0x40 DUP1 DUP4 KECCAK256 CALLER DUP5 MSTORE SWAP1 SWAP2 MSTORE SWAP1 KECCAK256 DUP1 SLOAD ISZERO PUSH2 0x155D JUMPI PUSH1 0x0 PUSH2 0x1549 DUP3 PUSH1 0x1 ADD SLOAD PUSH2 0xD80 PUSH9 0x327CB2734119D3B7A9 PUSH1 0x1E SHL PUSH2 0xD7A DUP8 PUSH1 0x2 ADD SLOAD DUP8 PUSH1 0x0 ADD SLOAD PUSH2 0x1D6F SWAP1 SWAP2 SWAP1 PUSH4 0xFFFFFFFF AND JUMP JUMPDEST SWAP1 POP DUP1 ISZERO PUSH2 0x155B JUMPI PUSH2 0x155B CALLER DUP3 PUSH2 0x1D93 JUMP JUMPDEST POP JUMPDEST DUP3 ISZERO PUSH2 0x16DA JUMPI PUSH1 0xFB SLOAD PUSH1 0x40 MLOAD PUSH4 0x70A08231 PUSH1 0xE0 SHL DUP2 MSTORE PUSH1 0x0 SWAP2 PUSH1 0x1 PUSH1 0x1 PUSH1 0xA0 SHL SUB AND SWAP1 PUSH4 0x70A08231 SWAP1 PUSH2 0x1594 SWAP1 ADDRESS SWAP1 PUSH1 0x4 ADD PUSH2 0x28FA JUMP JUMPDEST PUSH1 0x20 PUSH1 0x40 MLOAD DUP1 DUP4 SUB DUP2 DUP7 DUP1 EXTCODESIZE ISZERO DUP1 ISZERO PUSH2 0x15AC JUMPI PUSH1 0x0 DUP1 REVERT JUMPDEST POP GAS STATICCALL ISZERO DUP1 ISZERO PUSH2 0x15C0 JUMPI RETURNDATASIZE PUSH1 0x0 DUP1 RETURNDATACOPY RETURNDATASIZE PUSH1 0x0 REVERT JUMPDEST POP POP POP POP PUSH1 0x40 MLOAD RETURNDATASIZE PUSH1 0x1F NOT PUSH1 0x1F DUP3 ADD AND DUP3 ADD DUP1 PUSH1 0x40 MSTORE POP DUP2 ADD SWAP1 PUSH2 0x15E4 SWAP2 SWAP1 PUSH2 0x2731 JUMP JUMPDEST PUSH1 0xFB SLOAD SWAP1 SWAP2 POP PUSH2 0x15FF SWAP1 PUSH1 0x1 PUSH1 0x1 PUSH1 0xA0 SHL SUB AND CALLER ADDRESS DUP8 PUSH2 0x1F41 JUMP JUMPDEST PUSH1 0xFB SLOAD PUSH1 0x40 MLOAD PUSH4 0x70A08231 PUSH1 0xE0 SHL DUP2 MSTORE PUSH2 0x163F SWAP2 PUSH2 0x1637 SWAP2 DUP5 SWAP2 PUSH1 0x1 PUSH1 0x1 PUSH1 0xA0 SHL SUB AND SWAP1 PUSH4 0x70A08231 SWAP1 PUSH2 0xF93 SWAP1 ADDRESS SWAP1 PUSH1 0x4 ADD PUSH2 0x28FA JUMP JUMPDEST DUP4 SLOAD SWAP1 PUSH2 0x1E8B JUMP JUMPDEST DUP3 SSTORE PUSH1 0xFB SLOAD PUSH1 0x40 MLOAD PUSH4 0x70A08231 PUSH1 0xE0 SHL DUP2 MSTORE PUSH2 0x1684 SWAP2 PUSH2 0x1679 SWAP2 DUP5 SWAP2 PUSH1 0x1 PUSH1 0x1 PUSH1 0xA0 SHL SUB AND SWAP1 PUSH4 0x70A08231 SWAP1 PUSH2 0xF93 SWAP1 ADDRESS SWAP1 PUSH1 0x4 ADD PUSH2 0x28FA JUMP JUMPDEST PUSH1 0x4 DUP6 ADD SLOAD SWAP1 PUSH2 0x1E8B JUMP JUMPDEST PUSH1 0x4 DUP5 ADD SSTORE PUSH2 0x101 SLOAD DUP3 SLOAD GT ISZERO PUSH2 0x16D8 JUMPI PUSH1 0x40 MLOAD PUSH3 0x461BCD PUSH1 0xE5 SHL DUP2 MSTORE PUSH1 0x20 PUSH1 0x4 DUP3 ADD MSTORE PUSH1 0x18 PUSH1 0x24 DUP3 ADD MSTORE PUSH24 0x13585E08141491510811195C1BDCDA5D0814995858DA1959 PUSH1 0x42 SHL PUSH1 0x44 DUP3 ADD MSTORE PUSH1 0x64 ADD PUSH2 0x79C JUMP JUMPDEST POP JUMPDEST PUSH1 0x2 DUP3 ADD SLOAD DUP2 SLOAD PUSH2 0x16FC SWAP2 PUSH9 0x327CB2734119D3B7A9 PUSH1 0x1E SHL SWAP2 PUSH2 0xD7A SWAP2 PUSH2 0x1D6F JUMP JUMPDEST DUP2 PUSH1 0x1 ADD DUP2 SWAP1 SSTORE POP DUP2 PUSH2 0x102 DUP6 DUP2 SLOAD DUP2 LT PUSH2 0x1727 JUMPI PUSH4 0x4E487B71 PUSH1 0xE0 SHL PUSH1 0x0 MSTORE PUSH1 0x32 PUSH1 0x4 MSTORE PUSH1 0x24 PUSH1 0x0 REVERT JUMPDEST SWAP1 PUSH1 0x0 MSTORE PUSH1 0x20 PUSH1 0x0 KECCAK256 SWAP1 PUSH1 0x5 MUL ADD PUSH1 0x0 DUP3 ADD SLOAD DUP2 PUSH1 0x0 ADD SSTORE PUSH1 0x1 DUP3 ADD SLOAD DUP2 PUSH1 0x1 ADD SSTORE PUSH1 0x2 DUP3 ADD SLOAD DUP2 PUSH1 0x2 ADD SSTORE PUSH1 0x3 DUP3 ADD SLOAD DUP2 PUSH1 0x3 ADD SSTORE PUSH1 0x4 DUP3 ADD SLOAD DUP2 PUSH1 0x4 ADD SSTORE SWAP1 POP POP DUP4 CALLER PUSH1 0x1 PUSH1 0x1 PUSH1 0xA0 SHL SUB AND PUSH32 0x90890809C654F11D6E72A28FA60149770A0D11EC6C92319D6CEB2BB0A4EA1A15 DUP6 PUSH1 0x40 MLOAD PUSH2 0x17A6 SWAP2 DUP2 MSTORE PUSH1 0x20 ADD SWAP1 JUMP JUMPDEST PUSH1 0x40 MLOAD DUP1 SWAP2 SUB SWAP1 LOG3 POP POP POP POP JUMP JUMPDEST CALLER PUSH2 0x17BD PUSH2 0x11FC JUMP JUMPDEST PUSH1 0x1 PUSH1 0x1 PUSH1 0xA0 SHL SUB AND EQ PUSH2 0x17E3 JUMPI PUSH1 0x40 MLOAD PUSH3 0x461BCD PUSH1 0xE5 SHL DUP2 MSTORE PUSH1 0x4 ADD PUSH2 0x79C SWAP1 PUSH2 0x2A24 JUMP JUMPDEST PUSH1 0x1 PUSH1 0x1 PUSH1 0xA0 SHL SUB DUP2 AND PUSH2 0x1848 JUMPI PUSH1 0x40 MLOAD PUSH3 0x461BCD PUSH1 0xE5 SHL DUP2 MSTORE PUSH1 0x20 PUSH1 0x4 DUP3 ADD MSTORE PUSH1 0x26 PUSH1 0x24 DUP3 ADD MSTORE PUSH32 0x4F776E61626C653A206E6577206F776E657220697320746865207A65726F2061 PUSH1 0x44 DUP3 ADD MSTORE PUSH6 0x646472657373 PUSH1 0xD0 SHL PUSH1 0x64 DUP3 ADD MSTORE PUSH1 0x84 ADD PUSH2 0x79C JUMP JUMPDEST PUSH2 0xC4A DUP2 PUSH2 0x1E97 JUMP JUMPDEST PUSH1 0x0 DUP1 PUSH2 0x102 DUP5 DUP2 SLOAD DUP2 LT PUSH2 0x1876 JUMPI PUSH4 0x4E487B71 PUSH1 0xE0 SHL PUSH1 0x0 MSTORE PUSH1 0x32 PUSH1 0x4 MSTORE PUSH1 0x24 PUSH1 0x0 REVERT JUMPDEST PUSH1 0x0 SWAP2 DUP3 MSTORE PUSH1 0x20 DUP1 DUP4 KECCAK256 DUP8 DUP5 MSTORE PUSH2 0x103 DUP3 MSTORE PUSH1 0x40 DUP1 DUP6 KECCAK256 PUSH1 0x1 PUSH1 0x1 PUSH1 0xA0 SHL SUB DUP10 AND DUP7 MSTORE SWAP1 SWAP3 MSTORE SWAP3 KECCAK256 PUSH1 0x2 PUSH1 0x5 SWAP1 SWAP3 MUL SWAP1 SWAP3 ADD SWAP1 DUP2 ADD SLOAD PUSH1 0x1 DUP3 ADD SLOAD SWAP2 SWAP4 POP SWAP1 NUMBER GT DUP1 ISZERO PUSH2 0x18C6 JUMPI POP PUSH1 0x4 DUP4 ADD SLOAD ISZERO ISZERO JUMPDEST ISZERO PUSH2 0x1976 JUMPI PUSH1 0x0 PUSH2 0x18DB DUP5 PUSH1 0x1 ADD SLOAD NUMBER PUSH2 0x120B JUMP JUMPDEST SWAP1 POP PUSH1 0x0 PUSH2 0x18F4 PUSH1 0xFE SLOAD DUP4 PUSH2 0x1D6F SWAP1 SWAP2 SWAP1 PUSH4 0xFFFFFFFF AND JUMP JUMPDEST PUSH2 0x106 SLOAD PUSH1 0xFC SLOAD PUSH2 0x100 SLOAD PUSH1 0x40 MLOAD PUSH4 0x70A08231 PUSH1 0xE0 SHL DUP2 MSTORE SWAP4 SWAP5 POP PUSH1 0x0 SWAP4 PUSH2 0x1939 SWAP4 SWAP3 PUSH1 0x1 PUSH1 0x1 PUSH1 0xA0 SHL SUB SWAP1 DUP2 AND SWAP3 PUSH4 0x70A08231 SWAP3 PUSH2 0xF93 SWAP3 SWAP1 SWAP2 AND SWAP1 PUSH1 0x4 ADD PUSH2 0x28FA JUMP JUMPDEST SWAP1 POP DUP1 DUP3 LT PUSH2 0x1946 JUMPI DUP1 SWAP2 POP JUMPDEST PUSH1 0x4 DUP7 ADD SLOAD PUSH2 0x1970 SWAP1 PUSH2 0x1969 SWAP1 PUSH2 0xD7A DUP6 PUSH9 0x327CB2734119D3B7A9 PUSH1 0x1E SHL PUSH2 0x1D6F JUMP JUMPDEST DUP6 SWAP1 PUSH2 0x1E8B JUMP JUMPDEST SWAP4 POP POP POP POP JUMPDEST PUSH2 0x19A5 DUP3 PUSH1 0x1 ADD SLOAD PUSH2 0xD80 PUSH9 0x327CB2734119D3B7A9 PUSH1 0x1E SHL PUSH2 0xD7A DUP6 DUP8 PUSH1 0x0 ADD SLOAD PUSH2 0x1D6F SWAP1 SWAP2 SWAP1 PUSH4 0xFFFFFFFF AND JUMP JUMPDEST SWAP7 SWAP6 POP POP POP POP POP POP JUMP JUMPDEST PUSH2 0x107 SLOAD PUSH1 0x1 PUSH1 0x1 PUSH1 0xA0 SHL SUB AND CALLER EQ PUSH2 0x19F9 JUMPI PUSH1 0x40 MLOAD PUSH3 0x461BCD PUSH1 0xE5 SHL DUP2 MSTORE PUSH1 0x20 PUSH1 0x4 DUP3 ADD MSTORE PUSH1 0xC PUSH1 0x24 DUP3 ADD MSTORE PUSH12 0x2737BA1037B832B930BA37B9 PUSH1 0xA1 SHL PUSH1 0x44 DUP3 ADD MSTORE PUSH1 0x64 ADD PUSH2 0x79C JUMP JUMPDEST PUSH1 0x0 PUSH2 0x105 SLOAD NUMBER GT PUSH2 0x1A0E JUMPI PUSH2 0x105 SLOAD PUSH2 0x1A10 JUMP JUMPDEST NUMBER JUMPDEST PUSH1 0x40 DUP1 MLOAD PUSH1 0xA0 DUP2 ADD DUP3 MSTORE SWAP5 DUP6 MSTORE PUSH1 0x20 DUP6 ADD SWAP2 DUP3 MSTORE PUSH1 0x0 SWAP1 DUP6 ADD DUP2 DUP2 MSTORE PUSH1 0x60 DUP7 ADD SWAP5 DUP6 MSTORE PUSH1 0x80 DUP7 ADD DUP3 DUP2 MSTORE PUSH2 0x102 DUP1 SLOAD PUSH1 0x1 DUP2 ADD DUP3 SSTORE SWAP4 MSTORE SWAP6 MLOAD PUSH32 0x93BDAA6A4190909B7C3FBE8D42169FFE1CAB19F51DFC8DB24C71ABF849ECED4A PUSH1 0x5 SWAP1 SWAP4 MUL SWAP3 DUP4 ADD SSTORE SWAP2 MLOAD PUSH32 0x93BDAA6A4190909B7C3FBE8D42169FFE1CAB19F51DFC8DB24C71ABF849ECED4B DUP3 ADD SSTORE SWAP1 MLOAD PUSH32 0x93BDAA6A4190909B7C3FBE8D42169FFE1CAB19F51DFC8DB24C71ABF849ECED4C DUP3 ADD SSTORE SWAP2 MLOAD PUSH32 0x93BDAA6A4190909B7C3FBE8D42169FFE1CAB19F51DFC8DB24C71ABF849ECED4D DUP4 ADD SSTORE POP SWAP1 MLOAD PUSH32 0x93BDAA6A4190909B7C3FBE8D42169FFE1CAB19F51DFC8DB24C71ABF849ECED4E SWAP1 SWAP2 ADD SSTORE JUMP JUMPDEST PUSH1 0x0 SLOAD PUSH2 0x100 SWAP1 DIV PUSH1 0xFF AND DUP1 PUSH2 0x1B28 JUMPI POP PUSH1 0x0 SLOAD PUSH1 0xFF AND ISZERO JUMPDEST PUSH2 0x1B44 JUMPI PUSH1 0x40 MLOAD PUSH3 0x461BCD PUSH1 0xE5 SHL DUP2 MSTORE PUSH1 0x4 ADD PUSH2 0x79C SWAP1 PUSH2 0x29D6 JUMP JUMPDEST PUSH1 0x0 SLOAD PUSH2 0x100 SWAP1 DIV PUSH1 0xFF AND ISZERO DUP1 ISZERO PUSH2 0x1B6F JUMPI PUSH1 0x0 DUP1 SLOAD PUSH1 0xFF NOT PUSH2 0xFF00 NOT SWAP1 SWAP2 AND PUSH2 0x100 OR AND PUSH1 0x1 OR SWAP1 SSTORE JUMPDEST PUSH2 0x1B77 PUSH2 0x1F68 JUMP JUMPDEST PUSH2 0x1B7F PUSH2 0x1FDB JUMP JUMPDEST DUP1 ISZERO PUSH2 0xC4A JUMPI PUSH1 0x0 DUP1 SLOAD PUSH2 0xFF00 NOT AND SWAP1 SSTORE POP JUMP JUMPDEST CALLER PUSH2 0x1B9C PUSH2 0x11FC JUMP JUMPDEST PUSH1 0x1 PUSH1 0x1 PUSH1 0xA0 SHL SUB AND EQ PUSH2 0xC4A JUMPI PUSH1 0x40 MLOAD PUSH3 0x461BCD PUSH1 0xE5 SHL DUP2 MSTORE PUSH1 0x4 ADD PUSH2 0x79C SWAP1 PUSH2 0x2A24 JUMP JUMPDEST PUSH1 0x0 PUSH2 0x1BCC PUSH2 0x2044 JUMP JUMPDEST SWAP1 POP PUSH2 0x1BD7 DUP5 PUSH2 0x2072 JUMP JUMPDEST PUSH1 0x0 DUP4 MLOAD GT DUP1 PUSH2 0x1BE4 JUMPI POP DUP2 JUMPDEST ISZERO PUSH2 0x1BF5 JUMPI PUSH2 0x1BF3 DUP5 DUP5 PUSH2 0x211E JUMP JUMPDEST POP JUMPDEST PUSH32 0x4910FDFA16FED3260ED0E7147F7CC6DA11A60208B5B9406D12A635614FFD9143 DUP1 SLOAD PUSH1 0xFF AND PUSH2 0x1D02 JUMPI DUP1 SLOAD PUSH1 0xFF NOT AND PUSH1 0x1 OR DUP2 SSTORE PUSH1 0x40 MLOAD PUSH2 0x1C70 SWAP1 DUP7 SWAP1 PUSH2 0x1C41 SWAP1 DUP6 SWAP1 PUSH1 0x24 ADD PUSH2 0x28FA JUMP JUMPDEST PUSH1 0x40 DUP1 MLOAD PUSH1 0x1F NOT DUP2 DUP5 SUB ADD DUP2 MSTORE SWAP2 SWAP1 MSTORE PUSH1 0x20 DUP2 ADD DUP1 MLOAD PUSH1 0x1 PUSH1 0x1 PUSH1 0xE0 SHL SUB AND PUSH4 0x1B2CE7F3 PUSH1 0xE1 SHL OR SWAP1 MSTORE PUSH2 0x211E JUMP JUMPDEST POP DUP1 SLOAD PUSH1 0xFF NOT AND DUP2 SSTORE PUSH2 0x1C81 PUSH2 0x2044 JUMP JUMPDEST PUSH1 0x1 PUSH1 0x1 PUSH1 0xA0 SHL SUB AND DUP3 PUSH1 0x1 PUSH1 0x1 PUSH1 0xA0 SHL SUB AND EQ PUSH2 0x1CF9 JUMPI PUSH1 0x40 MLOAD PUSH3 0x461BCD PUSH1 0xE5 SHL DUP2 MSTORE PUSH1 0x20 PUSH1 0x4 DUP3 ADD MSTORE PUSH1 0x2F PUSH1 0x24 DUP3 ADD MSTORE PUSH32 0x45524331393637557067726164653A207570677261646520627265616B732066 PUSH1 0x44 DUP3 ADD MSTORE PUSH15 0x757274686572207570677261646573 PUSH1 0x88 SHL PUSH1 0x64 DUP3 ADD MSTORE PUSH1 0x84 ADD PUSH2 0x79C JUMP JUMPDEST PUSH2 0x1D02 DUP6 PUSH2 0x2210 JUMP JUMPDEST POP POP POP POP POP JUMP JUMPDEST PUSH1 0x33 SLOAD PUSH1 0xFF AND PUSH2 0x1D2B JUMPI PUSH1 0x40 MLOAD PUSH3 0x461BCD PUSH1 0xE5 SHL DUP2 MSTORE PUSH1 0x4 ADD PUSH2 0x79C SWAP1 PUSH2 0x297E JUMP JUMPDEST PUSH1 0x33 DUP1 SLOAD PUSH1 0xFF NOT AND SWAP1 SSTORE PUSH32 0x5DB9EE0A495BF2E6FF9C91A7834C1BA4FDD244A5E8AA4E537BD38AEAE4B073AA CALLER JUMPDEST PUSH1 0x40 MLOAD PUSH2 0x1D65 SWAP2 SWAP1 PUSH2 0x28FA JUMP JUMPDEST PUSH1 0x40 MLOAD DUP1 SWAP2 SUB SWAP1 LOG1 JUMP JUMPDEST PUSH1 0x0 PUSH2 0xAAF DUP3 DUP5 PUSH2 0x2AE4 JUMP JUMPDEST PUSH1 0x0 PUSH2 0xAAF DUP3 DUP5 PUSH2 0x2AC4 JUMP JUMPDEST PUSH1 0x0 PUSH2 0xAAF DUP3 DUP5 PUSH2 0x2B03 JUMP JUMPDEST PUSH2 0x100 SLOAD PUSH1 0xFC SLOAD PUSH1 0x40 MLOAD PUSH4 0x5F6CE21D PUSH1 0xE1 SHL DUP2 MSTORE PUSH2 0x1E2D SWAP3 PUSH1 0x1 PUSH1 0x1 PUSH1 0xA0 SHL SUB SWAP1 DUP2 AND SWAP3 PUSH4 0xBED9C43A SWAP3 PUSH2 0x1DD1 SWAP3 SWAP1 SWAP2 AND SWAP1 DUP8 SWAP1 DUP8 SWAP1 PUSH1 0x4 ADD PUSH2 0x290E JUMP JUMPDEST PUSH1 0x20 PUSH1 0x40 MLOAD DUP1 DUP4 SUB DUP2 PUSH1 0x0 DUP8 DUP1 EXTCODESIZE ISZERO DUP1 ISZERO PUSH2 0x1DEB JUMPI PUSH1 0x0 DUP1 REVERT JUMPDEST POP GAS CALL ISZERO DUP1 ISZERO PUSH2 0x1DFF JUMPI RETURNDATASIZE PUSH1 0x0 DUP1 RETURNDATACOPY RETURNDATASIZE PUSH1 0x0 REVERT JUMPDEST POP POP POP POP PUSH1 0x40 MLOAD RETURNDATASIZE PUSH1 0x1F NOT PUSH1 0x1F DUP3 ADD AND DUP3 ADD DUP1 PUSH1 0x40 MSTORE POP DUP2 ADD SWAP1 PUSH2 0x1E23 SWAP2 SWAP1 PUSH2 0x2731 JUMP JUMPDEST PUSH2 0x106 SLOAD SWAP1 PUSH2 0x1D87 JUMP JUMPDEST PUSH2 0x106 SSTORE POP POP JUMP JUMPDEST PUSH2 0xA27 DUP4 PUSH4 0xA9059CBB PUSH1 0xE0 SHL DUP5 DUP5 PUSH1 0x40 MLOAD PUSH1 0x24 ADD PUSH2 0x1E54 SWAP3 SWAP2 SWAP1 PUSH2 0x2932 JUMP JUMPDEST PUSH1 0x40 DUP1 MLOAD PUSH1 0x1F NOT DUP2 DUP5 SUB ADD DUP2 MSTORE SWAP2 SWAP1 MSTORE PUSH1 0x20 DUP2 ADD DUP1 MLOAD PUSH1 0x1 PUSH1 0x1 PUSH1 0xE0 SHL SUB AND PUSH1 0x1 PUSH1 0x1 PUSH1 0xE0 SHL SUB NOT SWAP1 SWAP4 AND SWAP3 SWAP1 SWAP3 OR SWAP1 SWAP2 MSTORE PUSH2 0x2250 JUMP JUMPDEST PUSH1 0x0 PUSH2 0xAAF DUP3 DUP5 PUSH2 0x2AAC JUMP JUMPDEST PUSH1 0xC9 DUP1 SLOAD PUSH1 0x1 PUSH1 0x1 PUSH1 0xA0 SHL SUB DUP4 DUP2 AND PUSH1 0x1 PUSH1 0x1 PUSH1 0xA0 SHL SUB NOT DUP4 AND DUP2 OR SWAP1 SWAP4 SSTORE PUSH1 0x40 MLOAD SWAP2 AND SWAP2 SWAP1 DUP3 SWAP1 PUSH32 0x8BE0079C531659141344CD1FD0A4F28419497F9722A3DAAFE3B4186F6B6457E0 SWAP1 PUSH1 0x0 SWAP1 LOG3 POP POP JUMP JUMPDEST PUSH1 0x33 SLOAD PUSH1 0xFF AND ISZERO PUSH2 0x1F0C JUMPI PUSH1 0x40 MLOAD PUSH3 0x461BCD PUSH1 0xE5 SHL DUP2 MSTORE PUSH1 0x4 ADD PUSH2 0x79C SWAP1 PUSH2 0x29AC JUMP JUMPDEST PUSH1 0x33 DUP1 SLOAD PUSH1 0xFF NOT AND PUSH1 0x1 OR SWAP1 SSTORE PUSH32 0x62E78CEA01BEE320CD4E420270B5EA74000D11B0C9F74754EBDBFC544B05A258 PUSH2 0x1D58 CALLER SWAP1 JUMP JUMPDEST PUSH2 0x1F62 DUP5 PUSH4 0x23B872DD PUSH1 0xE0 SHL DUP6 DUP6 DUP6 PUSH1 0x40 MLOAD PUSH1 0x24 ADD PUSH2 0x1E54 SWAP4 SWAP3 SWAP2 SWAP1 PUSH2 0x290E JUMP JUMPDEST POP POP POP POP JUMP JUMPDEST PUSH1 0x0 SLOAD PUSH2 0x100 SWAP1 DIV PUSH1 0xFF AND DUP1 PUSH2 0x1F81 JUMPI POP PUSH1 0x0 SLOAD PUSH1 0xFF AND ISZERO JUMPDEST PUSH2 0x1F9D JUMPI PUSH1 0x40 MLOAD PUSH3 0x461BCD PUSH1 0xE5 SHL DUP2 MSTORE PUSH1 0x4 ADD PUSH2 0x79C SWAP1 PUSH2 0x29D6 JUMP JUMPDEST PUSH1 0x0 SLOAD PUSH2 0x100 SWAP1 DIV PUSH1 0xFF AND ISZERO DUP1 ISZERO PUSH2 0x1B7F JUMPI PUSH1 0x0 DUP1 SLOAD PUSH1 0xFF NOT PUSH2 0xFF00 NOT SWAP1 SWAP2 AND PUSH2 0x100 OR AND PUSH1 0x1 OR SWAP1 SSTORE DUP1 ISZERO PUSH2 0xC4A JUMPI PUSH1 0x0 DUP1 SLOAD PUSH2 0xFF00 NOT AND SWAP1 SSTORE POP JUMP JUMPDEST PUSH1 0x0 SLOAD PUSH2 0x100 SWAP1 DIV PUSH1 0xFF AND DUP1 PUSH2 0x1FF4 JUMPI POP PUSH1 0x0 SLOAD PUSH1 0xFF AND ISZERO JUMPDEST PUSH2 0x2010 JUMPI PUSH1 0x40 MLOAD PUSH3 0x461BCD PUSH1 0xE5 SHL DUP2 MSTORE PUSH1 0x4 ADD PUSH2 0x79C SWAP1 PUSH2 0x29D6 JUMP JUMPDEST PUSH1 0x0 SLOAD PUSH2 0x100 SWAP1 DIV PUSH1 0xFF AND ISZERO DUP1 ISZERO PUSH2 0x203B JUMPI PUSH1 0x0 DUP1 SLOAD PUSH1 0xFF NOT PUSH2 0xFF00 NOT SWAP1 SWAP2 AND PUSH2 0x100 OR AND PUSH1 0x1 OR SWAP1 SSTORE JUMPDEST PUSH2 0x1B7F CALLER PUSH2 0x1E97 JUMP JUMPDEST PUSH32 0x360894A13BA1A3210667C828492DB98DCA3E2076CC3735A920A3CA505D382BBC SLOAD PUSH1 0x1 PUSH1 0x1 PUSH1 0xA0 SHL SUB AND SWAP1 JUMP JUMPDEST PUSH2 0x207B DUP2 PUSH2 0x2322 JUMP JUMPDEST PUSH2 0x20DD JUMPI PUSH1 0x40 MLOAD PUSH3 0x461BCD PUSH1 0xE5 SHL DUP2 MSTORE PUSH1 0x20 PUSH1 0x4 DUP3 ADD MSTORE PUSH1 0x2D PUSH1 0x24 DUP3 ADD MSTORE PUSH32 0x455243313936373A206E657720696D706C656D656E746174696F6E206973206E PUSH1 0x44 DUP3 ADD MSTORE PUSH13 0x1BDD08184818DBDB9D1C9858DD PUSH1 0x9A SHL PUSH1 0x64 DUP3 ADD MSTORE PUSH1 0x84 ADD PUSH2 0x79C JUMP JUMPDEST PUSH32 0x360894A13BA1A3210667C828492DB98DCA3E2076CC3735A920A3CA505D382BBC DUP1 SLOAD PUSH1 0x1 PUSH1 0x1 PUSH1 0xA0 SHL SUB NOT AND PUSH1 0x1 PUSH1 0x1 PUSH1 0xA0 SHL SUB SWAP3 SWAP1 SWAP3 AND SWAP2 SWAP1 SWAP2 OR SWAP1 SSTORE JUMP JUMPDEST PUSH1 0x60 PUSH2 0x2129 DUP4 PUSH2 0x2322 JUMP JUMPDEST PUSH2 0x2184 JUMPI PUSH1 0x40 MLOAD PUSH3 0x461BCD PUSH1 0xE5 SHL DUP2 MSTORE PUSH1 0x20 PUSH1 0x4 DUP3 ADD MSTORE PUSH1 0x26 PUSH1 0x24 DUP3 ADD MSTORE PUSH32 0x416464726573733A2064656C65676174652063616C6C20746F206E6F6E2D636F PUSH1 0x44 DUP3 ADD MSTORE PUSH6 0x1B9D1C9858DD PUSH1 0xD2 SHL PUSH1 0x64 DUP3 ADD MSTORE PUSH1 0x84 ADD PUSH2 0x79C JUMP JUMPDEST PUSH1 0x0 DUP1 DUP5 PUSH1 0x1 PUSH1 0x1 PUSH1 0xA0 SHL SUB AND DUP5 PUSH1 0x40 MLOAD PUSH2 0x219F SWAP2 SWAP1 PUSH2 0x28DE JUMP JUMPDEST PUSH1 0x0 PUSH1 0x40 MLOAD DUP1 DUP4 SUB DUP2 DUP6 GAS DELEGATECALL SWAP2 POP POP RETURNDATASIZE DUP1 PUSH1 0x0 DUP2 EQ PUSH2 0x21DA JUMPI PUSH1 0x40 MLOAD SWAP2 POP PUSH1 0x1F NOT PUSH1 0x3F RETURNDATASIZE ADD AND DUP3 ADD PUSH1 0x40 MSTORE RETURNDATASIZE DUP3 MSTORE RETURNDATASIZE PUSH1 0x0 PUSH1 0x20 DUP5 ADD RETURNDATACOPY PUSH2 0x21DF JUMP JUMPDEST PUSH1 0x60 SWAP2 POP JUMPDEST POP SWAP2 POP SWAP2 POP PUSH2 0x2207 DUP3 DUP3 PUSH1 0x40 MLOAD DUP1 PUSH1 0x60 ADD PUSH1 0x40 MSTORE DUP1 PUSH1 0x27 DUP2 MSTORE PUSH1 0x20 ADD PUSH2 0x2B88 PUSH1 0x27 SWAP2 CODECOPY PUSH2 0x232C JUMP JUMPDEST SWAP6 SWAP5 POP POP POP POP POP JUMP JUMPDEST PUSH2 0x2219 DUP2 PUSH2 0x2072 JUMP JUMPDEST PUSH1 0x40 MLOAD PUSH1 0x1 PUSH1 0x1 PUSH1 0xA0 SHL SUB DUP3 AND SWAP1 PUSH32 0xBC7CD75A20EE27FD9ADEBAB32041F755214DBC6BFFA90CC0225B39DA2E5C2D3B SWAP1 PUSH1 0x0 SWAP1 LOG2 POP JUMP JUMPDEST PUSH1 0x0 PUSH2 0x22A5 DUP3 PUSH1 0x40 MLOAD DUP1 PUSH1 0x40 ADD PUSH1 0x40 MSTORE DUP1 PUSH1 0x20 DUP2 MSTORE PUSH1 0x20 ADD PUSH32 0x5361666545524332303A206C6F772D6C6576656C2063616C6C206661696C6564 DUP2 MSTORE POP DUP6 PUSH1 0x1 PUSH1 0x1 PUSH1 0xA0 SHL SUB AND PUSH2 0x2365 SWAP1 SWAP3 SWAP2 SWAP1 PUSH4 0xFFFFFFFF AND JUMP JUMPDEST DUP1 MLOAD SWAP1 SWAP2 POP ISZERO PUSH2 0xA27 JUMPI DUP1 DUP1 PUSH1 0x20 ADD SWAP1 MLOAD DUP2 ADD SWAP1 PUSH2 0x22C3 SWAP2 SWAP1 PUSH2 0x26FF JUMP JUMPDEST PUSH2 0xA27 JUMPI PUSH1 0x40 MLOAD PUSH3 0x461BCD PUSH1 0xE5 SHL DUP2 MSTORE PUSH1 0x20 PUSH1 0x4 DUP3 ADD MSTORE PUSH1 0x2A PUSH1 0x24 DUP3 ADD MSTORE PUSH32 0x5361666545524332303A204552433230206F7065726174696F6E20646964206E PUSH1 0x44 DUP3 ADD MSTORE PUSH10 0x1BDD081CDD58D8D95959 PUSH1 0xB2 SHL PUSH1 0x64 DUP3 ADD MSTORE PUSH1 0x84 ADD PUSH2 0x79C JUMP JUMPDEST DUP1 EXTCODESIZE ISZERO ISZERO JUMPDEST SWAP2 SWAP1 POP JUMP JUMPDEST PUSH1 0x60 DUP4 ISZERO PUSH2 0x233B JUMPI POP DUP2 PUSH2 0xAAF JUMP JUMPDEST DUP3 MLOAD ISZERO PUSH2 0x234B JUMPI DUP3 MLOAD DUP1 DUP5 PUSH1 0x20 ADD REVERT JUMPDEST DUP2 PUSH1 0x40 MLOAD PUSH3 0x461BCD PUSH1 0xE5 SHL DUP2 MSTORE PUSH1 0x4 ADD PUSH2 0x79C SWAP2 SWAP1 PUSH2 0x294B JUMP JUMPDEST PUSH1 0x60 PUSH2 0x2374 DUP5 DUP5 PUSH1 0x0 DUP6 PUSH2 0x237C JUMP JUMPDEST SWAP5 SWAP4 POP POP POP POP JUMP JUMPDEST PUSH1 0x60 DUP3 SELFBALANCE LT ISZERO PUSH2 0x23DD JUMPI PUSH1 0x40 MLOAD PUSH3 0x461BCD PUSH1 0xE5 SHL DUP2 MSTORE PUSH1 0x20 PUSH1 0x4 DUP3 ADD MSTORE PUSH1 0x26 PUSH1 0x24 DUP3 ADD MSTORE PUSH32 0x416464726573733A20696E73756666696369656E742062616C616E636520666F PUSH1 0x44 DUP3 ADD MSTORE PUSH6 0x1C8818D85B1B PUSH1 0xD2 SHL PUSH1 0x64 DUP3 ADD MSTORE PUSH1 0x84 ADD PUSH2 0x79C JUMP JUMPDEST PUSH2 0x23E6 DUP6 PUSH2 0x2322 JUMP JUMPDEST PUSH2 0x2432 JUMPI PUSH1 0x40 MLOAD PUSH3 0x461BCD PUSH1 0xE5 SHL DUP2 MSTORE PUSH1 0x20 PUSH1 0x4 DUP3 ADD MSTORE PUSH1 0x1D PUSH1 0x24 DUP3 ADD MSTORE PUSH32 0x416464726573733A2063616C6C20746F206E6F6E2D636F6E7472616374000000 PUSH1 0x44 DUP3 ADD MSTORE PUSH1 0x64 ADD PUSH2 0x79C JUMP JUMPDEST PUSH1 0x0 DUP1 DUP7 PUSH1 0x1 PUSH1 0x1 PUSH1 0xA0 SHL SUB AND DUP6 DUP8 PUSH1 0x40 MLOAD PUSH2 0x244E SWAP2 SWAP1 PUSH2 0x28DE JUMP JUMPDEST PUSH1 0x0 PUSH1 0x40 MLOAD DUP1 DUP4 SUB DUP2 DUP6 DUP8 GAS CALL SWAP3 POP POP POP RETURNDATASIZE DUP1 PUSH1 0x0 DUP2 EQ PUSH2 0x248B JUMPI PUSH1 0x40 MLOAD SWAP2 POP PUSH1 0x1F NOT PUSH1 0x3F RETURNDATASIZE ADD AND DUP3 ADD PUSH1 0x40 MSTORE RETURNDATASIZE DUP3 MSTORE RETURNDATASIZE PUSH1 0x0 PUSH1 0x20 DUP5 ADD RETURNDATACOPY PUSH2 0x2490 JUMP JUMPDEST PUSH1 0x60 SWAP2 POP JUMPDEST POP SWAP2 POP SWAP2 POP PUSH2 0x24A0 DUP3 DUP3 DUP7 PUSH2 0x232C JUMP JUMPDEST SWAP8 SWAP7 POP POP POP POP POP POP POP JUMP JUMPDEST PUSH1 0x0 DUP3 PUSH1 0x1F DUP4 ADD SLT PUSH2 0x24BB JUMPI DUP1 DUP2 REVERT JUMPDEST DUP2 MLOAD PUSH1 0x20 PUSH2 0x24D0 PUSH2 0x24CB DUP4 PUSH2 0x2A89 JUMP JUMPDEST PUSH2 0x2A59 JUMP JUMPDEST DUP3 DUP2 MSTORE DUP2 DUP2 ADD SWAP1 DUP6 DUP4 ADD DUP4 DUP6 MUL DUP8 ADD DUP5 ADD DUP9 LT ISZERO PUSH2 0x24EC JUMPI DUP6 DUP7 REVERT JUMPDEST DUP6 JUMPDEST DUP6 DUP2 LT ISZERO PUSH2 0x2513 JUMPI DUP2 MLOAD PUSH2 0x2501 DUP2 PUSH2 0x2B72 JUMP JUMPDEST DUP5 MSTORE SWAP3 DUP5 ADD SWAP3 SWAP1 DUP5 ADD SWAP1 PUSH1 0x1 ADD PUSH2 0x24EE JUMP JUMPDEST POP SWAP1 SWAP8 SWAP7 POP POP POP POP POP POP POP JUMP JUMPDEST PUSH1 0x0 DUP3 PUSH1 0x1F DUP4 ADD SLT PUSH2 0x2530 JUMPI DUP1 DUP2 REVERT JUMPDEST DUP2 MLOAD PUSH1 0x20 PUSH2 0x2540 PUSH2 0x24CB DUP4 PUSH2 0x2A89 JUMP JUMPDEST DUP3 DUP2 MSTORE DUP2 DUP2 ADD SWAP1 DUP6 DUP4 ADD DUP4 DUP6 MUL DUP8 ADD DUP5 ADD DUP9 LT ISZERO PUSH2 0x255C JUMPI DUP6 DUP7 REVERT JUMPDEST DUP6 JUMPDEST DUP6 DUP2 LT ISZERO PUSH2 0x2513 JUMPI DUP2 MLOAD DUP5 MSTORE SWAP3 DUP5 ADD SWAP3 SWAP1 DUP5 ADD SWAP1 PUSH1 0x1 ADD PUSH2 0x255E JUMP JUMPDEST DUP1 MLOAD DUP1 ISZERO ISZERO DUP2 EQ PUSH2 0x2327 JUMPI PUSH1 0x0 DUP1 REVERT JUMPDEST PUSH1 0x0 PUSH1 0x20 DUP3 DUP5 SUB SLT ISZERO PUSH2 0x259B JUMPI DUP1 DUP2 REVERT JUMPDEST DUP2 CALLDATALOAD PUSH2 0xAAF DUP2 PUSH2 0x2B72 JUMP JUMPDEST PUSH1 0x0 DUP1 PUSH1 0x40 DUP4 DUP6 SUB SLT ISZERO PUSH2 0x25B8 JUMPI DUP1 DUP2 REVERT JUMPDEST DUP3 CALLDATALOAD PUSH2 0x25C3 DUP2 PUSH2 0x2B72 JUMP JUMPDEST SWAP2 POP PUSH1 0x20 DUP4 DUP2 ADD CALLDATALOAD PUSH1 0x1 PUSH1 0x1 PUSH1 0x40 SHL SUB DUP1 DUP3 GT ISZERO PUSH2 0x25DF JUMPI DUP4 DUP5 REVERT JUMPDEST DUP2 DUP7 ADD SWAP2 POP DUP7 PUSH1 0x1F DUP4 ADD SLT PUSH2 0x25F2 JUMPI DUP4 DUP5 REVERT JUMPDEST DUP2 CALLDATALOAD DUP2 DUP2 GT ISZERO PUSH2 0x2604 JUMPI PUSH2 0x2604 PUSH2 0x2B5C JUMP JUMPDEST PUSH2 0x2616 PUSH1 0x1F DUP3 ADD PUSH1 0x1F NOT AND DUP6 ADD PUSH2 0x2A59 JUMP JUMPDEST SWAP2 POP DUP1 DUP3 MSTORE DUP8 DUP5 DUP3 DUP6 ADD ADD GT ISZERO PUSH2 0x262B JUMPI DUP5 DUP6 REVERT JUMPDEST DUP1 DUP5 DUP5 ADD DUP6 DUP5 ADD CALLDATACOPY DUP2 ADD SWAP1 SWAP3 ADD SWAP3 SWAP1 SWAP3 MSTORE SWAP2 SWAP5 SWAP2 SWAP4 POP SWAP1 SWAP2 POP POP JUMP JUMPDEST PUSH1 0x0 DUP1 PUSH1 0x0 DUP1 PUSH1 0x0 DUP1 PUSH1 0x0 DUP1 PUSH2 0x100 DUP10 DUP12 SUB SLT ISZERO PUSH2 0x2663 JUMPI DUP4 DUP5 REVERT JUMPDEST DUP9 CALLDATALOAD PUSH2 0x266E DUP2 PUSH2 0x2B72 JUMP JUMPDEST SWAP8 POP PUSH1 0x20 DUP10 ADD CALLDATALOAD PUSH2 0x267E DUP2 PUSH2 0x2B72 JUMP JUMPDEST SWAP7 POP PUSH1 0x40 DUP10 ADD CALLDATALOAD PUSH2 0x268E DUP2 PUSH2 0x2B72 JUMP JUMPDEST SWAP6 POP PUSH1 0x60 DUP10 ADD CALLDATALOAD SWAP5 POP PUSH1 0x80 DUP10 ADD CALLDATALOAD SWAP4 POP PUSH1 0xA0 DUP10 ADD CALLDATALOAD SWAP3 POP PUSH1 0xC0 DUP10 ADD CALLDATALOAD PUSH2 0x26B3 DUP2 PUSH2 0x2B72 JUMP JUMPDEST SWAP2 POP PUSH1 0xE0 DUP10 ADD CALLDATALOAD PUSH2 0x26C3 DUP2 PUSH2 0x2B72 JUMP JUMPDEST DUP1 SWAP2 POP POP SWAP3 SWAP6 SWAP9 POP SWAP3 SWAP6 SWAP9 SWAP1 SWAP4 SWAP7 POP JUMP JUMPDEST PUSH1 0x0 DUP1 PUSH1 0x40 DUP4 DUP6 SUB SLT ISZERO PUSH2 0x26E6 JUMPI DUP2 DUP3 REVERT JUMPDEST DUP3 CALLDATALOAD PUSH2 0x26F1 DUP2 PUSH2 0x2B72 JUMP JUMPDEST SWAP5 PUSH1 0x20 SWAP4 SWAP1 SWAP4 ADD CALLDATALOAD SWAP4 POP POP POP JUMP JUMPDEST PUSH1 0x0 PUSH1 0x20 DUP3 DUP5 SUB SLT ISZERO PUSH2 0x2710 JUMPI DUP1 DUP2 REVERT JUMPDEST PUSH2 0xAAF DUP3 PUSH2 0x257A JUMP JUMPDEST PUSH1 0x0 PUSH1 0x20 DUP3 DUP5 SUB SLT ISZERO PUSH2 0x272A JUMPI DUP1 DUP2 REVERT JUMPDEST POP CALLDATALOAD SWAP2 SWAP1 POP JUMP JUMPDEST PUSH1 0x0 PUSH1 0x20 DUP3 DUP5 SUB SLT ISZERO PUSH2 0x2742 JUMPI DUP1 DUP2 REVERT JUMPDEST POP MLOAD SWAP2 SWAP1 POP JUMP JUMPDEST PUSH1 0x0 DUP1 PUSH1 0x40 DUP4 DUP6 SUB SLT ISZERO PUSH2 0x275B JUMPI DUP2 DUP3 REVERT JUMPDEST DUP3 CALLDATALOAD SWAP2 POP PUSH1 0x20 DUP4 ADD CALLDATALOAD PUSH2 0x276D DUP2 PUSH2 0x2B72 JUMP JUMPDEST DUP1 SWAP2 POP POP SWAP3 POP SWAP3 SWAP1 POP JUMP JUMPDEST PUSH1 0x0 DUP1 PUSH1 0x40 DUP4 DUP6 SUB SLT ISZERO PUSH2 0x278A JUMPI DUP2 DUP3 REVERT JUMPDEST POP POP DUP1 CALLDATALOAD SWAP3 PUSH1 0x20 SWAP1 SWAP2 ADD CALLDATALOAD SWAP2 POP JUMP JUMPDEST PUSH1 0x0 DUP1 PUSH1 0x0 DUP1 PUSH1 0x0 DUP1 PUSH1 0x0 DUP1 PUSH1 0x0 DUP1 PUSH1 0x0 PUSH2 0x160 DUP13 DUP15 SUB SLT ISZERO PUSH2 0x27BA JUMPI DUP5 DUP6 REVERT JUMPDEST DUP12 MLOAD SWAP11 POP PUSH1 0x20 DUP13 ADD MLOAD SWAP10 POP PUSH1 0x40 DUP13 ADD MLOAD SWAP9 POP PUSH1 0x60 DUP13 ADD MLOAD SWAP8 POP PUSH2 0x27DF PUSH1 0x80 DUP14 ADD PUSH2 0x257A JUMP JUMPDEST SWAP7 POP PUSH1 0xA0 DUP13 ADD MLOAD PUSH1 0x1 PUSH1 0x1 PUSH1 0x40 SHL SUB DUP2 GT ISZERO PUSH2 0x27F9 JUMPI DUP6 DUP7 REVERT JUMPDEST PUSH2 0x2805 DUP15 DUP3 DUP16 ADD PUSH2 0x24AB JUMP JUMPDEST SWAP7 POP POP PUSH1 0xC0 DUP13 ADD MLOAD PUSH1 0x1 PUSH1 0x1 PUSH1 0x40 SHL SUB DUP2 GT ISZERO PUSH2 0x2820 JUMPI DUP6 DUP7 REVERT JUMPDEST PUSH2 0x282C DUP15 DUP3 DUP16 ADD PUSH2 0x2520 JUMP JUMPDEST SWAP6 POP POP PUSH1 0xE0 DUP13 ADD MLOAD PUSH1 0x1 PUSH1 0x1 PUSH1 0x40 SHL SUB DUP2 GT ISZERO PUSH2 0x2847 JUMPI DUP4 DUP5 REVERT JUMPDEST PUSH2 0x2853 DUP15 DUP3 DUP16 ADD PUSH2 0x2520 JUMP JUMPDEST SWAP5 POP POP PUSH2 0x100 DUP13 ADD MLOAD PUSH1 0x1 PUSH1 0x1 PUSH1 0x40 SHL SUB DUP2 GT ISZERO PUSH2 0x286F JUMPI DUP4 DUP5 REVERT JUMPDEST PUSH2 0x287B DUP15 DUP3 DUP16 ADD PUSH2 0x2520 JUMP JUMPDEST SWAP4 POP POP PUSH2 0x120 DUP13 ADD MLOAD PUSH1 0x1 PUSH1 0x1 PUSH1 0x40 SHL SUB DUP2 GT ISZERO PUSH2 0x2897 JUMPI DUP3 DUP4 REVERT JUMPDEST PUSH2 0x28A3 DUP15 DUP3 DUP16 ADD PUSH2 0x2520 JUMP JUMPDEST SWAP3 POP POP PUSH2 0x140 DUP13 ADD MLOAD PUSH1 0x1 PUSH1 0x1 PUSH1 0x40 SHL SUB DUP2 GT ISZERO PUSH2 0x28BF JUMPI DUP2 DUP3 REVERT JUMPDEST PUSH2 0x28CB DUP15 DUP3 DUP16 ADD PUSH2 0x2520 JUMP JUMPDEST SWAP2 POP POP SWAP3 SWAP6 SWAP9 SWAP12 POP SWAP3 SWAP6 SWAP9 SWAP12 SWAP1 SWAP4 SWAP7 SWAP10 POP JUMP JUMPDEST PUSH1 0x0 DUP3 MLOAD PUSH2 0x28F0 DUP2 DUP5 PUSH1 0x20 DUP8 ADD PUSH2 0x2B1A JUMP JUMPDEST SWAP2 SWAP1 SWAP2 ADD SWAP3 SWAP2 POP POP JUMP JUMPDEST PUSH1 0x1 PUSH1 0x1 PUSH1 0xA0 SHL SUB SWAP2 SWAP1 SWAP2 AND DUP2 MSTORE PUSH1 0x20 ADD SWAP1 JUMP JUMPDEST PUSH1 0x1 PUSH1 0x1 PUSH1 0xA0 SHL SUB SWAP4 DUP5 AND DUP2 MSTORE SWAP2 SWAP1 SWAP3 AND PUSH1 0x20 DUP3 ADD MSTORE PUSH1 0x40 DUP2 ADD SWAP2 SWAP1 SWAP2 MSTORE PUSH1 0x60 ADD SWAP1 JUMP JUMPDEST PUSH1 0x1 PUSH1 0x1 PUSH1 0xA0 SHL SUB SWAP3 SWAP1 SWAP3 AND DUP3 MSTORE PUSH1 0x20 DUP3 ADD MSTORE PUSH1 0x40 ADD SWAP1 JUMP JUMPDEST PUSH1 0x0 PUSH1 0x20 DUP3 MSTORE DUP3 MLOAD DUP1 PUSH1 0x20 DUP5 ADD MSTORE PUSH2 0x296A DUP2 PUSH1 0x40 DUP6 ADD PUSH1 0x20 DUP8 ADD PUSH2 0x2B1A JUMP JUMPDEST PUSH1 0x1F ADD PUSH1 0x1F NOT AND SWAP2 SWAP1 SWAP2 ADD PUSH1 0x40 ADD SWAP3 SWAP2 POP POP JUMP JUMPDEST PUSH1 0x20 DUP1 DUP3 MSTORE PUSH1 0x14 SWAP1 DUP3 ADD MSTORE PUSH20 0x14185D5CD8589B194E881B9BDD081C185D5CD959 PUSH1 0x62 SHL PUSH1 0x40 DUP3 ADD MSTORE PUSH1 0x60 ADD SWAP1 JUMP JUMPDEST PUSH1 0x20 DUP1 DUP3 MSTORE PUSH1 0x10 SWAP1 DUP3 ADD MSTORE PUSH16 0x14185D5CD8589B194E881C185D5CD959 PUSH1 0x82 SHL PUSH1 0x40 DUP3 ADD MSTORE PUSH1 0x60 ADD SWAP1 JUMP JUMPDEST PUSH1 0x20 DUP1 DUP3 MSTORE PUSH1 0x2E SWAP1 DUP3 ADD MSTORE PUSH32 0x496E697469616C697A61626C653A20636F6E747261637420697320616C726561 PUSH1 0x40 DUP3 ADD MSTORE PUSH14 0x191E481A5B9A5D1A585B1A5E9959 PUSH1 0x92 SHL PUSH1 0x60 DUP3 ADD MSTORE PUSH1 0x80 ADD SWAP1 JUMP JUMPDEST PUSH1 0x20 DUP1 DUP3 MSTORE DUP2 DUP2 ADD MSTORE PUSH32 0x4F776E61626C653A2063616C6C6572206973206E6F7420746865206F776E6572 PUSH1 0x40 DUP3 ADD MSTORE PUSH1 0x60 ADD SWAP1 JUMP JUMPDEST PUSH1 0x40 MLOAD PUSH1 0x1F DUP3 ADD PUSH1 0x1F NOT AND DUP2 ADD PUSH1 0x1 PUSH1 0x1 PUSH1 0x40 SHL SUB DUP2 GT DUP3 DUP3 LT OR ISZERO PUSH2 0x2A81 JUMPI PUSH2 0x2A81 PUSH2 0x2B5C JUMP JUMPDEST PUSH1 0x40 MSTORE SWAP2 SWAP1 POP JUMP JUMPDEST PUSH1 0x0 PUSH1 0x1 PUSH1 0x1 PUSH1 0x40 SHL SUB DUP3 GT ISZERO PUSH2 0x2AA2 JUMPI PUSH2 0x2AA2 PUSH2 0x2B5C JUMP JUMPDEST POP PUSH1 0x20 SWAP1 DUP2 MUL ADD SWAP1 JUMP JUMPDEST PUSH1 0x0 DUP3 NOT DUP3 GT ISZERO PUSH2 0x2ABF JUMPI PUSH2 0x2ABF PUSH2 0x2B46 JUMP JUMPDEST POP ADD SWAP1 JUMP JUMPDEST PUSH1 0x0 DUP3 PUSH2 0x2ADF JUMPI PUSH4 0x4E487B71 PUSH1 0xE0 SHL DUP2 MSTORE PUSH1 0x12 PUSH1 0x4 MSTORE PUSH1 0x24 DUP2 REVERT JUMPDEST POP DIV SWAP1 JUMP JUMPDEST PUSH1 0x0 DUP2 PUSH1 0x0 NOT DIV DUP4 GT DUP3 ISZERO ISZERO AND ISZERO PUSH2 0x2AFE JUMPI PUSH2 0x2AFE PUSH2 0x2B46 JUMP JUMPDEST POP MUL SWAP1 JUMP JUMPDEST PUSH1 0x0 DUP3 DUP3 LT ISZERO PUSH2 0x2B15 JUMPI PUSH2 0x2B15 PUSH2 0x2B46 JUMP JUMPDEST POP SUB SWAP1 JUMP JUMPDEST PUSH1 0x0 JUMPDEST DUP4 DUP2 LT ISZERO PUSH2 0x2B35 JUMPI DUP2 DUP2 ADD MLOAD DUP4 DUP3 ADD MSTORE PUSH1 0x20 ADD PUSH2 0x2B1D JUMP JUMPDEST DUP4 DUP2 GT ISZERO PUSH2 0x1F62 JUMPI POP POP PUSH1 0x0 SWAP2 ADD MSTORE JUMP JUMPDEST PUSH4 0x4E487B71 PUSH1 0xE0 SHL PUSH1 0x0 MSTORE PUSH1 0x11 PUSH1 0x4 MSTORE PUSH1 0x24 PUSH1 0x0 REVERT JUMPDEST PUSH4 0x4E487B71 PUSH1 0xE0 SHL PUSH1 0x0 MSTORE PUSH1 0x41 PUSH1 0x4 MSTORE PUSH1 0x24 PUSH1 0x0 REVERT JUMPDEST PUSH1 0x1 PUSH1 0x1 PUSH1 0xA0 SHL SUB DUP2 AND DUP2 EQ PUSH2 0xC4A JUMPI PUSH1 0x0 DUP1 REVERT INVALID COINBASE PUSH5 0x6472657373 GASPRICE KECCAK256 PUSH13 0x6F772D6C6576656C2064656C65 PUSH8 0x6174652063616C6C KECCAK256 PUSH7 0x61696C6564A264 PUSH10 0x70667358221220B1BA50 0x49 DUP7 PUSH9 0xD97B5C9BED49B694D1 0xD6 CODESIZE SWAP6 0xCD SWAP13 SUB 0xDB 0x2B ORIGIN 0x2C CALLVALUE 0x4A KECCAK256 SELFDESTRUCT SWAP6 DUP1 0x25 PUSH5 0x736F6C6343 STOP ADDMOD MUL STOP CALLER "
		},
		"gasEstimates": {
			"creation": {
				"codeDepositCost": "2247200",
				"executionCost": "2405",
				"totalCost": "2249605"
			},
			"external": {
				"BID()": "1151",
				"BONUS_MULTIPLIER()": "1073",
				"add(uint256)": "infinite",
				"allocPoint()": "1095",
				"bidPerBlock()": "1072",
				"deposit(uint256,uint256)": "infinite",
				"emergencyWithdraw(uint256)": "infinite",
				"getMultiplier(uint256,uint256)": "infinite",
				"getPoolLength()": "1169",
				"initialize(address,address,address,uint256,uint256,uint256,address,address)": "infinite",
				"lostRound(address,uint256)": "infinite",
				"maxPredDeposit()": "1161",
				"operatorAddress()": "1129",
				"owner()": "1181",
				"pause()": "23898",
				"paused()": "1115",
				"pendingBID(uint256,address)": "infinite",
				"poolInfo(uint256)": "5439",
				"poolLength()": "994",
				"pred()": "1127",
				"prediction()": "1239",
				"renounceOwnership()": "23485",
				"setAllocPoint(uint256)": "21242",
				"setMaxPredDeposit(uint256)": "20301",
				"setOperator(address)": "23234",
				"setPoolAllocPoint(uint256)": "infinite",
				"startBlock()": "1096",
				"totalRewardDebt()": "1029",
				"transferOwnership(address)": "infinite",
				"unpause()": "23854",
				"updateMultiplier(uint256)": "21242",
				"updatePool(uint256)": "infinite",
				"upgradeTo(address)": "infinite",
				"upgradeToAndCall(address,bytes)": "infinite",
				"userInfo(uint256,address)": "2310",
				"wallet()": "1128",
				"withdraw(uint256,uint256)": "infinite",
				"wonRound(address,uint256)": "infinite"
			},
			"internal": {
				"_add(uint256,uint256)": "infinite",
				"_authorizeUpgrade(address)": "infinite",
				"safePredTransfer(address,uint256)": "infinite"
			}
		},
		"methodIdentifiers": {
			"BID()": "487a6038",
			"BONUS_MULTIPLIER()": "8aa28550",
			"add(uint256)": "1003e2d2",
			"allocPoint()": "d3dd7eb7",
			"bidPerBlock()": "e775db30",
			"deposit(uint256,uint256)": "e2bbb158",
			"emergencyWithdraw(uint256)": "5312ea8e",
			"getMultiplier(uint256,uint256)": "8dbb1e3a",
			"getPoolLength()": "b3944d52",
			"initialize(address,address,address,uint256,uint256,uint256,address,address)": "1b58a681",
			"lostRound(address,uint256)": "1c8d04e2",
			"maxPredDeposit()": "ae5241a0",
			"operatorAddress()": "127effb2",
			"owner()": "8da5cb5b",
			"pause()": "8456cb59",
			"paused()": "5c975abb",
			"pendingBID(uint256,address)": "f5426578",
			"poolInfo(uint256)": "1526fe27",
			"poolLength()": "081e3eda",
			"pred()": "e5c9ad2e",
			"prediction()": "2372c916",
			"renounceOwnership()": "715018a6",
			"setAllocPoint(uint256)": "e0747c96",
			"setMaxPredDeposit(uint256)": "c26780b0",
			"setOperator(address)": "b3ab15fb",
			"setPoolAllocPoint(uint256)": "b7a3c110",
			"startBlock()": "48cd4cb1",
			"totalRewardDebt()": "83bb3877",
			"transferOwnership(address)": "f2fde38b",
			"unpause()": "3f4ba83a",
			"updateMultiplier(uint256)": "5ffe6146",
			"updatePool(uint256)": "51eb05a6",
			"upgradeTo(address)": "3659cfe6",
			"upgradeToAndCall(address,bytes)": "4f1ef286",
			"userInfo(uint256,address)": "93f1a40b",
			"wallet()": "521eb273",
			"withdraw(uint256,uint256)": "441a3e70",
			"wonRound(address,uint256)": "1521604e"
		}
	},
	"abi": [
		{
			"anonymous": false,
			"inputs": [
				{
					"indexed": false,
					"internalType": "address",
					"name": "previousAdmin",
					"type": "address"
				},
				{
					"indexed": false,
					"internalType": "address",
					"name": "newAdmin",
					"type": "address"
				}
			],
			"name": "AdminChanged",
			"type": "event"
		},
		{
			"anonymous": false,
			"inputs": [
				{
					"indexed": true,
					"internalType": "address",
					"name": "beacon",
					"type": "address"
				}
			],
			"name": "BeaconUpgraded",
			"type": "event"
		},
		{
			"anonymous": false,
			"inputs": [
				{
					"indexed": true,
					"internalType": "address",
					"name": "user",
					"type": "address"
				},
				{
					"indexed": true,
					"internalType": "uint256",
					"name": "pid",
					"type": "uint256"
				},
				{
					"indexed": false,
					"internalType": "uint256",
					"name": "amount",
					"type": "uint256"
				}
			],
			"name": "Deposit",
			"type": "event"
		},
		{
			"anonymous": false,
			"inputs": [
				{
					"indexed": true,
					"internalType": "address",
					"name": "user",
					"type": "address"
				},
				{
					"indexed": true,
					"internalType": "uint256",
					"name": "pid",
					"type": "uint256"
				},
				{
					"indexed": false,
					"internalType": "uint256",
					"name": "amount",
					"type": "uint256"
				}
			],
			"name": "EmergencyWithdraw",
			"type": "event"
		},
		{
			"anonymous": false,
			"inputs": [
				{
					"indexed": false,
					"internalType": "address",
					"name": "operator",
					"type": "address"
				}
			],
			"name": "NewOperatorAddress",
			"type": "event"
		},
		{
			"anonymous": false,
			"inputs": [
				{
					"indexed": true,
					"internalType": "address",
					"name": "previousOwner",
					"type": "address"
				},
				{
					"indexed": true,
					"internalType": "address",
					"name": "newOwner",
					"type": "address"
				}
			],
			"name": "OwnershipTransferred",
			"type": "event"
		},
		{
			"anonymous": false,
			"inputs": [
				{
					"indexed": false,
					"internalType": "address",
					"name": "account",
					"type": "address"
				}
			],
			"name": "Paused",
			"type": "event"
		},
		{
			"anonymous": false,
			"inputs": [
				{
					"indexed": false,
					"internalType": "address",
					"name": "account",
					"type": "address"
				}
			],
			"name": "Unpaused",
			"type": "event"
		},
		{
			"anonymous": false,
			"inputs": [
				{
					"indexed": true,
					"internalType": "address",
					"name": "implementation",
					"type": "address"
				}
			],
			"name": "Upgraded",
			"type": "event"
		},
		{
			"anonymous": false,
			"inputs": [
				{
					"indexed": true,
					"internalType": "address",
					"name": "user",
					"type": "address"
				},
				{
					"indexed": true,
					"internalType": "uint256",
					"name": "pid",
					"type": "uint256"
				},
				{
					"indexed": false,
					"internalType": "uint256",
					"name": "amount",
					"type": "uint256"
				}
			],
			"name": "Withdraw",
			"type": "event"
		},
		{
			"inputs": [],
			"name": "BID",
			"outputs": [
				{
					"internalType": "contract IBEP20",
					"name": "",
					"type": "address"
				}
			],
			"stateMutability": "view",
			"type": "function"
		},
		{
			"inputs": [],
			"name": "BONUS_MULTIPLIER",
			"outputs": [
				{
					"internalType": "uint256",
					"name": "",
					"type": "uint256"
				}
			],
			"stateMutability": "view",
			"type": "function"
		},
		{
			"inputs": [
				{
					"internalType": "uint256",
					"name": "_epoch",
					"type": "uint256"
				}
			],
			"name": "add",
			"outputs": [],
			"stateMutability": "nonpayable",
			"type": "function"
		},
		{
			"inputs": [],
			"name": "allocPoint",
			"outputs": [
				{
					"internalType": "uint256",
					"name": "",
					"type": "uint256"
				}
			],
			"stateMutability": "view",
			"type": "function"
		},
		{
			"inputs": [],
			"name": "bidPerBlock",
			"outputs": [
				{
					"internalType": "uint256",
					"name": "",
					"type": "uint256"
				}
			],
			"stateMutability": "view",
			"type": "function"
		},
		{
			"inputs": [
				{
					"internalType": "uint256",
					"name": "_pid",
					"type": "uint256"
				},
				{
					"internalType": "uint256",
					"name": "_amount",
					"type": "uint256"
				}
			],
			"name": "deposit",
			"outputs": [],
			"stateMutability": "nonpayable",
			"type": "function"
		},
		{
			"inputs": [
				{
					"internalType": "uint256",
					"name": "_pid",
					"type": "uint256"
				}
			],
			"name": "emergencyWithdraw",
			"outputs": [],
			"stateMutability": "nonpayable",
			"type": "function"
		},
		{
			"inputs": [
				{
					"internalType": "uint256",
					"name": "_from",
					"type": "uint256"
				},
				{
					"internalType": "uint256",
					"name": "_to",
					"type": "uint256"
				}
			],
			"name": "getMultiplier",
			"outputs": [
				{
					"internalType": "uint256",
					"name": "",
					"type": "uint256"
				}
			],
			"stateMutability": "view",
			"type": "function"
		},
		{
			"inputs": [],
			"name": "getPoolLength",
			"outputs": [
				{
					"internalType": "uint256",
					"name": "",
					"type": "uint256"
				}
			],
			"stateMutability": "view",
			"type": "function"
		},
		{
			"inputs": [
				{
					"internalType": "address",
					"name": "_operator",
					"type": "address"
				},
				{
					"internalType": "contract IBEP20",
					"name": "_pred",
					"type": "address"
				},
				{
					"internalType": "contract IBEP20",
					"name": "_bid",
					"type": "address"
				},
				{
					"internalType": "uint256",
					"name": "_bidPerBlock",
					"type": "uint256"
				},
				{
					"internalType": "uint256",
					"name": "_startBlock",
					"type": "uint256"
				},
				{
					"internalType": "uint256",
					"name": "_maxPredDeposit",
					"type": "uint256"
				},
				{
					"internalType": "contract PredictionWallet",
					"name": "_wallet",
					"type": "address"
				},
				{
					"internalType": "contract IPrediction",
					"name": "_prediction",
					"type": "address"
				}
			],
			"name": "initialize",
			"outputs": [],
			"stateMutability": "nonpayable",
			"type": "function"
		},
		{
			"inputs": [
				{
					"internalType": "address",
					"name": "preder",
					"type": "address"
				},
				{
					"internalType": "uint256",
					"name": "round",
					"type": "uint256"
				}
			],
			"name": "lostRound",
			"outputs": [
				{
					"internalType": "bool",
					"name": "",
					"type": "bool"
				}
			],
			"stateMutability": "view",
			"type": "function"
		},
		{
			"inputs": [],
			"name": "maxPredDeposit",
			"outputs": [
				{
					"internalType": "uint256",
					"name": "",
					"type": "uint256"
				}
			],
			"stateMutability": "view",
			"type": "function"
		},
		{
			"inputs": [],
			"name": "operatorAddress",
			"outputs": [
				{
					"internalType": "address",
					"name": "",
					"type": "address"
				}
			],
			"stateMutability": "view",
			"type": "function"
		},
		{
			"inputs": [],
			"name": "owner",
			"outputs": [
				{
					"internalType": "address",
					"name": "",
					"type": "address"
				}
			],
			"stateMutability": "view",
			"type": "function"
		},
		{
			"inputs": [],
			"name": "pause",
			"outputs": [],
			"stateMutability": "nonpayable",
			"type": "function"
		},
		{
			"inputs": [],
			"name": "paused",
			"outputs": [
				{
					"internalType": "bool",
					"name": "",
					"type": "bool"
				}
			],
			"stateMutability": "view",
			"type": "function"
		},
		{
			"inputs": [
				{
					"internalType": "uint256",
					"name": "_pid",
					"type": "uint256"
				},
				{
					"internalType": "address",
					"name": "_user",
					"type": "address"
				}
			],
			"name": "pendingBID",
			"outputs": [
				{
					"internalType": "uint256",
					"name": "",
					"type": "uint256"
				}
			],
			"stateMutability": "view",
			"type": "function"
		},
		{
			"inputs": [
				{
					"internalType": "uint256",
					"name": "",
					"type": "uint256"
				}
			],
			"name": "poolInfo",
			"outputs": [
				{
					"internalType": "uint256",
					"name": "allocPoint",
					"type": "uint256"
				},
				{
					"internalType": "uint256",
					"name": "lastRewardBlock",
					"type": "uint256"
				},
				{
					"internalType": "uint256",
					"name": "accBIDPerShare",
					"type": "uint256"
				},
				{
					"internalType": "uint256",
					"name": "epoch",
					"type": "uint256"
				},
				{
					"internalType": "uint256",
					"name": "amount",
					"type": "uint256"
				}
			],
			"stateMutability": "view",
			"type": "function"
		},
		{
			"inputs": [],
			"name": "poolLength",
			"outputs": [
				{
					"internalType": "uint256",
					"name": "",
					"type": "uint256"
				}
			],
			"stateMutability": "view",
			"type": "function"
		},
		{
			"inputs": [],
			"name": "pred",
			"outputs": [
				{
					"internalType": "contract IBEP20",
					"name": "",
					"type": "address"
				}
			],
			"stateMutability": "view",
			"type": "function"
		},
		{
			"inputs": [],
			"name": "prediction",
			"outputs": [
				{
					"internalType": "contract IPrediction",
					"name": "",
					"type": "address"
				}
			],
			"stateMutability": "view",
			"type": "function"
		},
		{
			"inputs": [],
			"name": "renounceOwnership",
			"outputs": [],
			"stateMutability": "nonpayable",
			"type": "function"
		},
		{
			"inputs": [
				{
					"internalType": "uint256",
					"name": "_allocPoint",
					"type": "uint256"
				}
			],
			"name": "setAllocPoint",
			"outputs": [],
			"stateMutability": "nonpayable",
			"type": "function"
		},
		{
			"inputs": [
				{
					"internalType": "uint256",
					"name": "_maxPredDeposit",
					"type": "uint256"
				}
			],
			"name": "setMaxPredDeposit",
			"outputs": [],
			"stateMutability": "nonpayable",
			"type": "function"
		},
		{
			"inputs": [
				{
					"internalType": "address",
					"name": "_operatorAddress",
					"type": "address"
				}
			],
			"name": "setOperator",
			"outputs": [],
			"stateMutability": "nonpayable",
			"type": "function"
		},
		{
			"inputs": [
				{
					"internalType": "uint256",
					"name": "_allocPoint",
					"type": "uint256"
				}
			],
			"name": "setPoolAllocPoint",
			"outputs": [],
			"stateMutability": "nonpayable",
			"type": "function"
		},
		{
			"inputs": [],
			"name": "startBlock",
			"outputs": [
				{
					"internalType": "uint256",
					"name": "",
					"type": "uint256"
				}
			],
			"stateMutability": "view",
			"type": "function"
		},
		{
			"inputs": [],
			"name": "totalRewardDebt",
			"outputs": [
				{
					"internalType": "uint256",
					"name": "",
					"type": "uint256"
				}
			],
			"stateMutability": "view",
			"type": "function"
		},
		{
			"inputs": [
				{
					"internalType": "address",
					"name": "newOwner",
					"type": "address"
				}
			],
			"name": "transferOwnership",
			"outputs": [],
			"stateMutability": "nonpayable",
			"type": "function"
		},
		{
			"inputs": [],
			"name": "unpause",
			"outputs": [],
			"stateMutability": "nonpayable",
			"type": "function"
		},
		{
			"inputs": [
				{
					"internalType": "uint256",
					"name": "multiplierNumber",
					"type": "uint256"
				}
			],
			"name": "updateMultiplier",
			"outputs": [],
			"stateMutability": "nonpayable",
			"type": "function"
		},
		{
			"inputs": [
				{
					"internalType": "uint256",
					"name": "_pid",
					"type": "uint256"
				}
			],
			"name": "updatePool",
			"outputs": [],
			"stateMutability": "nonpayable",
			"type": "function"
		},
		{
			"inputs": [
				{
					"internalType": "address",
					"name": "newImplementation",
					"type": "address"
				}
			],
			"name": "upgradeTo",
			"outputs": [],
			"stateMutability": "nonpayable",
			"type": "function"
		},
		{
			"inputs": [
				{
					"internalType": "address",
					"name": "newImplementation",
					"type": "address"
				},
				{
					"internalType": "bytes",
					"name": "data",
					"type": "bytes"
				}
			],
			"name": "upgradeToAndCall",
			"outputs": [],
			"stateMutability": "payable",
			"type": "function"
		},
		{
			"inputs": [
				{
					"internalType": "uint256",
					"name": "",
					"type": "uint256"
				},
				{
					"internalType": "address",
					"name": "",
					"type": "address"
				}
			],
			"name": "userInfo",
			"outputs": [
				{
					"internalType": "uint256",
					"name": "amount",
					"type": "uint256"
				},
				{
					"internalType": "uint256",
					"name": "rewardDebt",
					"type": "uint256"
				}
			],
			"stateMutability": "view",
			"type": "function"
		},
		{
			"inputs": [],
			"name": "wallet",
			"outputs": [
				{
					"internalType": "contract PredictionWallet",
					"name": "",
					"type": "address"
				}
			],
			"stateMutability": "view",
			"type": "function"
		},
		{
			"inputs": [
				{
					"internalType": "uint256",
					"name": "_pid",
					"type": "uint256"
				},
				{
					"internalType": "uint256",
					"name": "_amount",
					"type": "uint256"
				}
			],
			"name": "withdraw",
			"outputs": [],
			"stateMutability": "nonpayable",
			"type": "function"
		},
		{
			"inputs": [
				{
					"internalType": "address",
					"name": "preder",
					"type": "address"
				},
				{
					"internalType": "uint256",
					"name": "round",
					"type": "uint256"
				}
			],
			"name": "wonRound",
			"outputs": [
				{
					"internalType": "bool",
					"name": "",
					"type": "bool"
				}
			],
			"stateMutability": "view",
			"type": "function"
		}
	]
}