{
	"data": {
		"bytecode": {
			"linkReferences": {},
			"object": "608060405234801561001057600080fd5b50612c14806100206000396000f3fe6080604052600436106101ea5760003560e01c80635ffe614611610113578063ae5241a0116100ab578063d3dd7eb71161006f578063d3dd7eb7146105e2578063e0747c96146105f9578063e2bbb15814610619578063e5c9ad2e14610639578063f2fde38b14610659576101ea565b8063ae5241a01461056a578063b3944d5214610211578063b3ab15fb14610581578063b7a3c110146105a1578063c26780b0146105c1576101ea565b80635ffe61461461044957806363a1fce214610469578063715018a61461048957806383bb38771461049e5780638456cb59146104b55780638aa28550146104ca5780638da5cb5b146104e05780638dbb1e3a146104f557806393f1a40b14610515576101ea565b80633f4ba83a116101865780633f4ba83a1461035c578063441a3e701461037157806348cd4cb1146103915780634f1ef286146103a857806350b48710146103bb57806351eb05a6146103d1578063521eb273146103f15780635312ea8e146104115780635c975abb14610431576101ea565b80630729da0b146101ef578063081e3eda146102115780631003e2d214610236578063127effb2146102565780631521604e146102845780631526fe27146102b45780631c8d04e2146102fc5780632372c9161461031c5780633659cfe61461033c575b600080fd5b3480156101fb57600080fd5b5061020f61020a3660046126ae565b610679565b005b34801561021d57600080fd5b50610101545b6040519081526020015b60405180910390f35b34801561024257600080fd5b5061020f61025136600461276d565b61076f565b34801561026257600080fd5b5061010654610277906001600160a01b031681565b60405161022d919061294e565b34801561029057600080fd5b506102a461029f366004612728565b610ae1565b604051901515815260200161022d565b3480156102c057600080fd5b506102d46102cf36600461276d565b610b6b565b604080519586526020860194909452928401919091526060830152608082015260a00161022d565b34801561030857600080fd5b506102a4610317366004612728565b610bad565b34801561032857600080fd5b5060fc54610277906001600160a01b031681565b34801561034857600080fd5b5061020f6103573660046125f1565b610be0565b34801561036857600080fd5b5061020f610c07565b34801561037d57600080fd5b5061020f61038c3660046127cc565b610c40565b34801561039d57600080fd5b506102236101045481565b61020f6103b636600461260d565b610e6c565b3480156103c757600080fd5b5061022360fd5481565b3480156103dd57600080fd5b5061020f6103ec36600461276d565b610e85565b3480156103fd57600080fd5b5060ff54610277906001600160a01b031681565b34801561041d57600080fd5b5061020f61042c36600461276d565b611008565b34801561043d57600080fd5b5060335460ff166102a4565b34801561045557600080fd5b5061020f61046436600461276d565b61111b565b34801561047557600080fd5b5061022361048436600461279d565b61114f565b34801561049557600080fd5b5061020f6112ff565b3480156104aa57600080fd5b506102236101055481565b3480156104c157600080fd5b5061020f611338565b3480156104d657600080fd5b5061022360fe5481565b3480156104ec57600080fd5b5061027761136f565b34801561050157600080fd5b506102236105103660046127cc565b61137e565b34801561052157600080fd5b5061055561053036600461279d565b6101026020908152600092835260408084209091529082529020805460019091015482565b6040805192835260208301919091520161022d565b34801561057657600080fd5b506102236101005481565b34801561058d57600080fd5b5061020f61059c3660046125f1565b611398565b3480156105ad57600080fd5b5061020f6105bc36600461276d565b61146d565b3480156105cd57600080fd5b5061020f6105dc36600461276d565b61010055565b3480156105ee57600080fd5b506102236101035481565b34801561060557600080fd5b5061020f61061436600461276d565b6114f2565b34801561062557600080fd5b5061020f6106343660046127cc565b611527565b34801561064557600080fd5b5060fb54610277906001600160a01b031681565b34801561066557600080fd5b5061020f6106743660046125f1565b611977565b600054610100900460ff1680610692575060005460ff16155b6106b75760405162461bcd60e51b81526004016106ae90612a06565b60405180910390fd5b600054610100900460ff161580156106e2576000805460ff1961ff0019909116610100171660011790555b6106ea611a14565b61010680546001600160a01b03808b166001600160a01b03199283161790925560fb80548a841690831617905560fd88905561010487905560ff805486841690831617905560fc805492851692909116919091179055610100849055620f424060fe5560c8610103558015610765576000805461ff00191690555b5050505050505050565b60fc5460405163023c4c9f60e61b8152600481018390526000916001600160a01b031690638f1327c09060240160006040518083038186803b1580156107b457600080fd5b505afa1580156107c8573d6000803e3d6000fd5b505050506040513d6000823e601f3d908101601f191682016040526107f091908101906127ed565b5050505050509450505050508061085a5760405162461bcd60e51b815260206004820152602860248201527f526f756e6420776173206e6f74207375636365737366756c206f72206e6f7420604482015267636f6d706c65746560c01b60648201526084016106ae565b60fc5460408051630ecce30160e31b815290516000926001600160a01b031691637667180891600480830192602092919082900301818787803b1580156108a057600080fd5b505af11580156108b4573d6000803e3d6000fd5b505050506040513d601f19601f820116820180604052508101906108d89190612785565b90508281146109c85760fc5460405163023c4c9f60e61b8152600481018390526000916001600160a01b031690638f1327c09060240160006040518083038186803b15801561092657600080fd5b505afa15801561093a573d6000803e3d6000fd5b505050506040513d6000823e601f3d908101601f1916820160405261096291908101906127ed565b50505050505094505050505080156109c65760405162461bcd60e51b815260206004820152602160248201527f43757272656e7420526f756e6420697320616c726561647920636f6d706c65746044820152606560f81b60648201526084016106ae565b505b6101015415610acf57610101546000906109e490600190612b33565b9050836101018281548110610a0957634e487b7160e01b600052603260045260246000fd5b90600052602060002090600502016003015410610a805760405162461bcd60e51b815260206004820152602f60248201527f4e65772065706f63682063616e6e6f74206265206c657373206f72206571756160448201526e0d840e8de40e0c2e6e840cae0dec6d608b1b60648201526084016106ae565b610a8981610e85565b610101805460009190610a9e90600190612b33565b81548110610abc57634e487b7160e01b600052603260045260246000fd5b6000918252602090912060059091020155505b610adc6101035484611a98565b505050565b60fc54604051630a90b02760e11b81526000916001600160a01b031690631521604e90610b149086908690600401612962565b60206040518083038186803b158015610b2c57600080fd5b505afa158015610b40573d6000803e3d6000fd5b505050506040513d601f19601f82011682018060405250810190610b649190612753565b9392505050565b6101018181548110610b7c57600080fd5b6000918252602090912060059091020180546001820154600283015460038401546004909401549294509092909185565b60fc54604051630e46827160e11b81526000916001600160a01b031690631c8d04e290610b149086908690600401612962565b610be981611bf8565b610c0481604051806020016040528060008152506000611c27565b50565b33610c1061136f565b6001600160a01b031614610c365760405162461bcd60e51b81526004016106ae90612a54565b610c3e611d6e565b565b60335460ff1615610c635760405162461bcd60e51b81526004016106ae906129dc565b60006101018381548110610c8757634e487b7160e01b600052603260045260246000fd5b60009182526020808320868452610102825260408085203386529092529220805460059092029092019250831115610cf65760405162461bcd60e51b81526020600482015260126024820152711dda5d1a191c985dce881b9bdd0819dbdbd960721b60448201526064016106ae565b610cff84610e85565b6000610d408260010154610d3a68327cb2734119d3b7a9601e1b610d3487600201548760000154611dd490919063ffffffff16565b90611de0565b90611dec565b90508015610d5257610d523382611df8565b8315610d91578154610d649085611dec565b82556004830154610d759085611dec565b600484015560fb54610d91906001600160a01b03163386611e90565b60028301548254610db39168327cb2734119d3b7a9601e1b91610d3491611dd4565b8260010181905550826101018681548110610dde57634e487b7160e01b600052603260045260246000fd5b9060005260206000209060050201600082015481600001556001820154816001015560028201548160020155600382015481600301556004820154816004015590505084336001600160a01b03167ff279e6a1f5e320cca91135676d9cb6e44ca8a08c0b88342bcdb1144f6511b56886604051610e5d91815260200190565b60405180910390a35050505050565b610e7582611bf8565b610e8182826001611c27565b5050565b60006101018281548110610ea957634e487b7160e01b600052603260045260246000fd5b9060005260206000209060050201905080600101544311610eca5750610c04565b60fb546040516370a0823160e01b81526000916001600160a01b0316906370a0823190610efb90309060040161294e565b60206040518083038186803b158015610f1357600080fd5b505afa158015610f27573d6000803e3d6000fd5b505050506040513d601f19601f82011682018060405250810190610f4b9190612785565b905080610f5f575043600190910155610c04565b6000610f6f83600101544361137e565b90506000610f8860fd5483611dd490919063ffffffff16565b6101055460ff54919250600091610fab916001600160a01b039091163190611dec565b9050808210610fb8578091505b610fe0610fd585610d348568327cb2734119d3b7a9601e1b611dd4565b600287015490611ee6565b600286015561010554610ff39083611ee6565b61010555505043600190930192909255505050565b60335460ff1661102a5760405162461bcd60e51b81526004016106ae906129ae565b6000610101828154811061104e57634e487b7160e01b600052603260045260246000fd5b600091825260208083208584526101028252604080852033865290925290832080548482556001820185905560026005909402909201928301549294509290916110b1908290610d3a9068327cb2734119d3b7a9601e1b90610d34908790611dd4565b90506101055481116110d057610105546110cb9082611dec565b610105555b60fb546110e7906001600160a01b03163384611e90565b604051828152859033907fbb757047c2b5f3974fe26b7c10f732e7bce710b0952a71082702781e62ae059590602001610e5d565b3361112461136f565b6001600160a01b03161461114a5760405162461bcd60e51b81526004016106ae90612a54565b60fe55565b600080610101848154811061117457634e487b7160e01b600052603260045260246000fd5b60009182526020808320878452610102825260408085206001600160a01b03808a1687529352808520600260059095029092019384015460fb5491516370a0823160e01b815294965091949193919216906370a08231906111d990309060040161294e565b60206040518083038186803b1580156111f157600080fd5b505afa158015611205573d6000803e3d6000fd5b505050506040513d601f19601f820116820180604052508101906112299190612785565b905083600101544311801561123d57508015155b156112c557600061125285600101544361137e565b9050600061126b60fd5483611dd490919063ffffffff16565b6101055460ff5491925060009161128e916001600160a01b039091163190611dec565b905080821061129b578091505b6112bf6112b885610d348568327cb2734119d3b7a9601e1b611dd4565b8690611ee6565b94505050505b6112f48360010154610d3a68327cb2734119d3b7a9601e1b610d34868860000154611dd490919063ffffffff16565b979650505050505050565b3361130861136f565b6001600160a01b03161461132e5760405162461bcd60e51b81526004016106ae90612a54565b610c3e6000611ef2565b3361134161136f565b6001600160a01b0316146113675760405162461bcd60e51b81526004016106ae90612a54565b610c3e611f44565b60c9546001600160a01b031690565b60fe54600090610b64906113928486611dec565b90611dd4565b336113a161136f565b6001600160a01b0316146113c75760405162461bcd60e51b81526004016106ae90612a54565b6001600160a01b0381166114165760405162461bcd60e51b815260206004820152601660248201527543616e6e6f74206265207a65726f206164647265737360501b60448201526064016106ae565b61010680546001600160a01b0319166001600160a01b0383161790556040517fc47d127c07bdd56c5ccba00463ce3bd3c1bca71b4670eea6e5d0c02e4aa156e29061146290839061294e565b60405180910390a150565b3361147661136f565b6001600160a01b03161461149c5760405162461bcd60e51b81526004016106ae90612a54565b610101546000906114af90600190612b33565b90506114ba81610e85565b8161010182815481106114dd57634e487b7160e01b600052603260045260246000fd5b60009182526020909120600590910201555050565b336114fb61136f565b6001600160a01b0316146115215760405162461bcd60e51b81526004016106ae90612a54565b61010355565b60335460ff161561154a5760405162461bcd60e51b81526004016106ae906129dc565b61155382610e85565b6000610101838154811061157757634e487b7160e01b600052603260045260246000fd5b6000918252602090912060fc546005909202016003810154604051630e46827160e11b81529193506001600160a01b0390921691631c8d04e2916115bf913391600401612962565b60206040518083038186803b1580156115d757600080fd5b505afa1580156115eb573d6000803e3d6000fd5b505050506040513d601f19601f8201168201806040525081019061160f9190612753565b6116665760405162461bcd60e51b815260206004820152602260248201527f446964206e6f74206c6f736520746869732050726564696374696f6e20726f756044820152611b9960f21b60648201526084016106ae565b60008381526101026020908152604080832033845290915290208054156116d05760006116bc8260010154610d3a68327cb2734119d3b7a9601e1b610d3487600201548760000154611dd490919063ffffffff16565b905080156116ce576116ce3382611df8565b505b821561189d5760fb546040516370a0823160e01b81526000916001600160a01b0316906370a082319061170790309060040161294e565b60206040518083038186803b15801561171f57600080fd5b505afa158015611733573d6000803e3d6000fd5b505050506040513d601f19601f820116820180604052508101906117579190612785565b60fb54909150611772906001600160a01b0316333087611f9c565b60fb546040516370a0823160e01b8152611802916117fa9184916001600160a01b0316906370a08231906117aa90309060040161294e565b60206040518083038186803b1580156117c257600080fd5b505afa1580156117d6573d6000803e3d6000fd5b505050506040513d601f19601f82011682018060405250810190610d3a9190612785565b835490611ee6565b825560fb546040516370a0823160e01b81526118479161183c9184916001600160a01b0316906370a08231906117aa90309060040161294e565b600485015490611ee6565b6004840155610100548254111561189b5760405162461bcd60e51b815260206004820152601860248201527713585e08141491510811195c1bdcda5d0814995858da195960421b60448201526064016106ae565b505b600282015481546118bf9168327cb2734119d3b7a9601e1b91610d3491611dd4565b81600101819055508161010185815481106118ea57634e487b7160e01b600052603260045260246000fd5b9060005260206000209060050201600082015481600001556001820154816001015560028201548160020155600382015481600301556004820154816004015590505083336001600160a01b03167f90890809c654f11d6e72a28fa60149770a0d11ec6c92319d6ceb2bb0a4ea1a158560405161196991815260200190565b60405180910390a350505050565b3361198061136f565b6001600160a01b0316146119a65760405162461bcd60e51b81526004016106ae90612a54565b6001600160a01b038116611a0b5760405162461bcd60e51b815260206004820152602660248201527f4f776e61626c653a206e6577206f776e657220697320746865207a65726f206160448201526564647265737360d01b60648201526084016106ae565b610c0481611ef2565b600054610100900460ff1680611a2d575060005460ff16155b611a495760405162461bcd60e51b81526004016106ae90612a06565b600054610100900460ff16158015611a74576000805460ff1961ff0019909116610100171660011790555b611a7c611fda565b611a8461204d565b8015610c04576000805461ff001916905550565b610106546001600160a01b03163314611ae25760405162461bcd60e51b815260206004820152600c60248201526b2737ba1037b832b930ba37b960a11b60448201526064016106ae565b6000610104544311611af75761010454611af9565b435b6040805160a08101825294855260208501918252600090850181815260608601948552608086018281526101018054600181018255935295517f109ea3cebb188b9c1b9fc5bb3920be60dfdc8699098dff92f3d80daaca74768960059093029283015591517f109ea3cebb188b9c1b9fc5bb3920be60dfdc8699098dff92f3d80daaca74768a82015590517f109ea3cebb188b9c1b9fc5bb3920be60dfdc8699098dff92f3d80daaca74768b82015591517f109ea3cebb188b9c1b9fc5bb3920be60dfdc8699098dff92f3d80daaca74768c8301555090517f109ea3cebb188b9c1b9fc5bb3920be60dfdc8699098dff92f3d80daaca74768d90910155565b33611c0161136f565b6001600160a01b031614610c045760405162461bcd60e51b81526004016106ae90612a54565b6000611c316120b6565b9050611c3c846120e4565b600083511180611c495750815b15611c5a57611c588484612190565b505b7f4910fdfa16fed3260ed0e7147f7cc6da11a60208b5b9406d12a635614ffd9143805460ff16611d6757805460ff19166001178155604051611cd5908690611ca690859060240161294e565b60408051601f198184030181529190526020810180516001600160e01b0316631b2ce7f360e11b179052612190565b50805460ff19168155611ce66120b6565b6001600160a01b0316826001600160a01b031614611d5e5760405162461bcd60e51b815260206004820152602f60248201527f45524331393637557067726164653a207570677261646520627265616b73206660448201526e75727468657220757067726164657360881b60648201526084016106ae565b611d6785612282565b5050505050565b60335460ff16611d905760405162461bcd60e51b81526004016106ae906129ae565b6033805460ff191690557f5db9ee0a495bf2e6ff9c91a7834c1ba4fdd244a5e8aa4e537bd38aeae4b073aa335b604051611dca919061294e565b60405180910390a1565b6000610b648284612b14565b6000610b648284612af4565b6000610b648284612b33565b60ff54604051635944b01760e01b8152611e88916001600160a01b031690635944b01790611e2c9086908690600401612962565b602060405180830381600087803b158015611e4657600080fd5b505af1158015611e5a573d6000803e3d6000fd5b505050506040513d601f19601f82011682018060405250810190611e7e9190612785565b6101055490611dec565b610105555050565b610adc8363a9059cbb60e01b8484604051602401611eaf929190612962565b60408051601f198184030181529190526020810180516001600160e01b03166001600160e01b0319909316929092179091526122c2565b6000610b648284612adc565b60c980546001600160a01b038381166001600160a01b0319831681179093556040519116919082907f8be0079c531659141344cd1fd0a4f28419497f9722a3daafe3b4186f6b6457e090600090a35050565b60335460ff1615611f675760405162461bcd60e51b81526004016106ae906129dc565b6033805460ff191660011790557f62e78cea01bee320cd4e420270b5ea74000d11b0c9f74754ebdbfc544b05a258611dbd3390565b6040516001600160a01b0380851660248301528316604482015260648101829052611fd49085906323b872dd60e01b90608401611eaf565b50505050565b600054610100900460ff1680611ff3575060005460ff16155b61200f5760405162461bcd60e51b81526004016106ae90612a06565b600054610100900460ff16158015611a84576000805460ff1961ff0019909116610100171660011790558015610c04576000805461ff001916905550565b600054610100900460ff1680612066575060005460ff16155b6120825760405162461bcd60e51b81526004016106ae90612a06565b600054610100900460ff161580156120ad576000805460ff1961ff0019909116610100171660011790555b611a8433611ef2565b7f360894a13ba1a3210667c828492db98dca3e2076cc3735a920a3ca505d382bbc546001600160a01b031690565b6120ed81612394565b61214f5760405162461bcd60e51b815260206004820152602d60248201527f455243313936373a206e657720696d706c656d656e746174696f6e206973206e60448201526c1bdd08184818dbdb9d1c9858dd609a1b60648201526084016106ae565b7f360894a13ba1a3210667c828492db98dca3e2076cc3735a920a3ca505d382bbc80546001600160a01b0319166001600160a01b0392909216919091179055565b606061219b83612394565b6121f65760405162461bcd60e51b815260206004820152602660248201527f416464726573733a2064656c65676174652063616c6c20746f206e6f6e2d636f6044820152651b9d1c9858dd60d21b60648201526084016106ae565b600080846001600160a01b0316846040516122119190612932565b600060405180830381855af49150503d806000811461224c576040519150601f19603f3d011682016040523d82523d6000602084013e612251565b606091505b50915091506122798282604051806060016040528060278152602001612bb86027913961239e565b95945050505050565b61228b816120e4565b6040516001600160a01b038216907fbc7cd75a20ee27fd9adebab32041f755214dbc6bffa90cc0225b39da2e5c2d3b90600090a250565b6000612317826040518060400160405280602081526020017f5361666545524332303a206c6f772d6c6576656c2063616c6c206661696c6564815250856001600160a01b03166123d79092919063ffffffff16565b805190915015610adc57808060200190518101906123359190612753565b610adc5760405162461bcd60e51b815260206004820152602a60248201527f5361666545524332303a204552433230206f7065726174696f6e20646964206e6044820152691bdd081cdd58d8d9595960b21b60648201526084016106ae565b803b15155b919050565b606083156123ad575081610b64565b8251156123bd5782518084602001fd5b8160405162461bcd60e51b81526004016106ae919061297b565b60606123e684846000856123ee565b949350505050565b60608247101561244f5760405162461bcd60e51b815260206004820152602660248201527f416464726573733a20696e73756666696369656e742062616c616e636520666f6044820152651c8818d85b1b60d21b60648201526084016106ae565b61245885612394565b6124a45760405162461bcd60e51b815260206004820152601d60248201527f416464726573733a2063616c6c20746f206e6f6e2d636f6e747261637400000060448201526064016106ae565b600080866001600160a01b031685876040516124c09190612932565b60006040518083038185875af1925050503d80600081146124fd576040519150601f19603f3d011682016040523d82523d6000602084013e612502565b606091505b50915091506112f482828661239e565b600082601f830112612522578081fd5b8151602061253761253283612ab9565b612a89565b8281528181019085830183850287018401881015612553578586fd5b855b8581101561257a57815161256881612ba2565b84529284019290840190600101612555565b5090979650505050505050565b600082601f830112612597578081fd5b815160206125a761253283612ab9565b82815281810190858301838502870184018810156125c3578586fd5b855b8581101561257a578151845292840192908401906001016125c5565b8051801515811461239957600080fd5b600060208284031215612602578081fd5b8135610b6481612ba2565b6000806040838503121561261f578081fd5b823561262a81612ba2565b91506020838101356001600160401b0380821115612646578384fd5b818601915086601f830112612659578384fd5b81358181111561266b5761266b612b8c565b61267d601f8201601f19168501612a89565b91508082528784828501011115612692578485fd5b8084840185840137810190920192909252919491935090915050565b600080600080600080600060e0888a0312156126c8578283fd5b87356126d381612ba2565b965060208801356126e381612ba2565b955060408801359450606088013593506080880135925060a088013561270881612ba2565b915060c088013561271881612ba2565b8091505092959891949750929550565b6000806040838503121561273a578182fd5b823561274581612ba2565b946020939093013593505050565b600060208284031215612764578081fd5b610b64826125e1565b60006020828403121561277e578081fd5b5035919050565b600060208284031215612796578081fd5b5051919050565b600080604083850312156127af578182fd5b8235915060208301356127c181612ba2565b809150509250929050565b600080604083850312156127de578182fd5b50508035926020909101359150565b60008060008060008060008060008060006101608c8e03121561280e578485fd5b8b519a5060208c0151995060408c0151985060608c0151975061283360808d016125e1565b965060a08c01516001600160401b0381111561284d578586fd5b6128598e828f01612512565b96505060c08c01516001600160401b03811115612874578586fd5b6128808e828f01612587565b95505060e08c01516001600160401b0381111561289b578485fd5b6128a78e828f01612587565b9450506101008c01516001600160401b038111156128c3578384fd5b6128cf8e828f01612587565b9350506101208c01516001600160401b038111156128eb578283fd5b6128f78e828f01612587565b9250506101408c01516001600160401b03811115612913578182fd5b61291f8e828f01612587565b9150509295989b509295989b9093969950565b60008251612944818460208701612b4a565b9190910192915050565b6001600160a01b0391909116815260200190565b6001600160a01b03929092168252602082015260400190565b600060208252825180602084015261299a816040850160208701612b4a565b601f01601f19169190910160400192915050565b60208082526014908201527314185d5cd8589b194e881b9bdd081c185d5cd95960621b604082015260600190565b60208082526010908201526f14185d5cd8589b194e881c185d5cd95960821b604082015260600190565b6020808252602e908201527f496e697469616c697a61626c653a20636f6e747261637420697320616c72656160408201526d191e481a5b9a5d1a585b1a5e995960921b606082015260800190565b6020808252818101527f4f776e61626c653a2063616c6c6572206973206e6f7420746865206f776e6572604082015260600190565b604051601f8201601f191681016001600160401b0381118282101715612ab157612ab1612b8c565b604052919050565b60006001600160401b03821115612ad257612ad2612b8c565b5060209081020190565b60008219821115612aef57612aef612b76565b500190565b600082612b0f57634e487b7160e01b81526012600452602481fd5b500490565b6000816000190483118215151615612b2e57612b2e612b76565b500290565b600082821015612b4557612b45612b76565b500390565b60005b83811015612b65578181015183820152602001612b4d565b83811115611fd45750506000910152565b634e487b7160e01b600052601160045260246000fd5b634e487b7160e01b600052604160045260246000fd5b6001600160a01b0381168114610c0457600080fdfe416464726573733a206c6f772d6c6576656c2064656c65676174652063616c6c206661696c6564a2646970667358221220a13e520761c20526c84b35ac236c8fd08ff74766dddc6652e554a838da8c68f064736f6c63430008020033",
			"opcodes": "PUSH1 0x80 PUSH1 0x40 MSTORE CALLVALUE DUP1 ISZERO PUSH2 0x10 JUMPI PUSH1 0x0 DUP1 REVERT JUMPDEST POP PUSH2 0x2C14 DUP1 PUSH2 0x20 PUSH1 0x0 CODECOPY PUSH1 0x0 RETURN INVALID PUSH1 0x80 PUSH1 0x40 MSTORE PUSH1 0x4 CALLDATASIZE LT PUSH2 0x1EA JUMPI PUSH1 0x0 CALLDATALOAD PUSH1 0xE0 SHR DUP1 PUSH4 0x5FFE6146 GT PUSH2 0x113 JUMPI DUP1 PUSH4 0xAE5241A0 GT PUSH2 0xAB JUMPI DUP1 PUSH4 0xD3DD7EB7 GT PUSH2 0x6F JUMPI DUP1 PUSH4 0xD3DD7EB7 EQ PUSH2 0x5E2 JUMPI DUP1 PUSH4 0xE0747C96 EQ PUSH2 0x5F9 JUMPI DUP1 PUSH4 0xE2BBB158 EQ PUSH2 0x619 JUMPI DUP1 PUSH4 0xE5C9AD2E EQ PUSH2 0x639 JUMPI DUP1 PUSH4 0xF2FDE38B EQ PUSH2 0x659 JUMPI PUSH2 0x1EA JUMP JUMPDEST DUP1 PUSH4 0xAE5241A0 EQ PUSH2 0x56A JUMPI DUP1 PUSH4 0xB3944D52 EQ PUSH2 0x211 JUMPI DUP1 PUSH4 0xB3AB15FB EQ PUSH2 0x581 JUMPI DUP1 PUSH4 0xB7A3C110 EQ PUSH2 0x5A1 JUMPI DUP1 PUSH4 0xC26780B0 EQ PUSH2 0x5C1 JUMPI PUSH2 0x1EA JUMP JUMPDEST DUP1 PUSH4 0x5FFE6146 EQ PUSH2 0x449 JUMPI DUP1 PUSH4 0x63A1FCE2 EQ PUSH2 0x469 JUMPI DUP1 PUSH4 0x715018A6 EQ PUSH2 0x489 JUMPI DUP1 PUSH4 0x83BB3877 EQ PUSH2 0x49E JUMPI DUP1 PUSH4 0x8456CB59 EQ PUSH2 0x4B5 JUMPI DUP1 PUSH4 0x8AA28550 EQ PUSH2 0x4CA JUMPI DUP1 PUSH4 0x8DA5CB5B EQ PUSH2 0x4E0 JUMPI DUP1 PUSH4 0x8DBB1E3A EQ PUSH2 0x4F5 JUMPI DUP1 PUSH4 0x93F1A40B EQ PUSH2 0x515 JUMPI PUSH2 0x1EA JUMP JUMPDEST DUP1 PUSH4 0x3F4BA83A GT PUSH2 0x186 JUMPI DUP1 PUSH4 0x3F4BA83A EQ PUSH2 0x35C JUMPI DUP1 PUSH4 0x441A3E70 EQ PUSH2 0x371 JUMPI DUP1 PUSH4 0x48CD4CB1 EQ PUSH2 0x391 JUMPI DUP1 PUSH4 0x4F1EF286 EQ PUSH2 0x3A8 JUMPI DUP1 PUSH4 0x50B48710 EQ PUSH2 0x3BB JUMPI DUP1 PUSH4 0x51EB05A6 EQ PUSH2 0x3D1 JUMPI DUP1 PUSH4 0x521EB273 EQ PUSH2 0x3F1 JUMPI DUP1 PUSH4 0x5312EA8E EQ PUSH2 0x411 JUMPI DUP1 PUSH4 0x5C975ABB EQ PUSH2 0x431 JUMPI PUSH2 0x1EA JUMP JUMPDEST DUP1 PUSH4 0x729DA0B EQ PUSH2 0x1EF JUMPI DUP1 PUSH4 0x81E3EDA EQ PUSH2 0x211 JUMPI DUP1 PUSH4 0x1003E2D2 EQ PUSH2 0x236 JUMPI DUP1 PUSH4 0x127EFFB2 EQ PUSH2 0x256 JUMPI DUP1 PUSH4 0x1521604E EQ PUSH2 0x284 JUMPI DUP1 PUSH4 0x1526FE27 EQ PUSH2 0x2B4 JUMPI DUP1 PUSH4 0x1C8D04E2 EQ PUSH2 0x2FC JUMPI DUP1 PUSH4 0x2372C916 EQ PUSH2 0x31C JUMPI DUP1 PUSH4 0x3659CFE6 EQ PUSH2 0x33C JUMPI JUMPDEST PUSH1 0x0 DUP1 REVERT JUMPDEST CALLVALUE DUP1 ISZERO PUSH2 0x1FB JUMPI PUSH1 0x0 DUP1 REVERT JUMPDEST POP PUSH2 0x20F PUSH2 0x20A CALLDATASIZE PUSH1 0x4 PUSH2 0x26AE JUMP JUMPDEST PUSH2 0x679 JUMP JUMPDEST STOP JUMPDEST CALLVALUE DUP1 ISZERO PUSH2 0x21D JUMPI PUSH1 0x0 DUP1 REVERT JUMPDEST POP PUSH2 0x101 SLOAD JUMPDEST PUSH1 0x40 MLOAD SWAP1 DUP2 MSTORE PUSH1 0x20 ADD JUMPDEST PUSH1 0x40 MLOAD DUP1 SWAP2 SUB SWAP1 RETURN JUMPDEST CALLVALUE DUP1 ISZERO PUSH2 0x242 JUMPI PUSH1 0x0 DUP1 REVERT JUMPDEST POP PUSH2 0x20F PUSH2 0x251 CALLDATASIZE PUSH1 0x4 PUSH2 0x276D JUMP JUMPDEST PUSH2 0x76F JUMP JUMPDEST CALLVALUE DUP1 ISZERO PUSH2 0x262 JUMPI PUSH1 0x0 DUP1 REVERT JUMPDEST POP PUSH2 0x106 SLOAD PUSH2 0x277 SWAP1 PUSH1 0x1 PUSH1 0x1 PUSH1 0xA0 SHL SUB AND DUP2 JUMP JUMPDEST PUSH1 0x40 MLOAD PUSH2 0x22D SWAP2 SWAP1 PUSH2 0x294E JUMP JUMPDEST CALLVALUE DUP1 ISZERO PUSH2 0x290 JUMPI PUSH1 0x0 DUP1 REVERT JUMPDEST POP PUSH2 0x2A4 PUSH2 0x29F CALLDATASIZE PUSH1 0x4 PUSH2 0x2728 JUMP JUMPDEST PUSH2 0xAE1 JUMP JUMPDEST PUSH1 0x40 MLOAD SWAP1 ISZERO ISZERO DUP2 MSTORE PUSH1 0x20 ADD PUSH2 0x22D JUMP JUMPDEST CALLVALUE DUP1 ISZERO PUSH2 0x2C0 JUMPI PUSH1 0x0 DUP1 REVERT JUMPDEST POP PUSH2 0x2D4 PUSH2 0x2CF CALLDATASIZE PUSH1 0x4 PUSH2 0x276D JUMP JUMPDEST PUSH2 0xB6B JUMP JUMPDEST PUSH1 0x40 DUP1 MLOAD SWAP6 DUP7 MSTORE PUSH1 0x20 DUP7 ADD SWAP5 SWAP1 SWAP5 MSTORE SWAP3 DUP5 ADD SWAP2 SWAP1 SWAP2 MSTORE PUSH1 0x60 DUP4 ADD MSTORE PUSH1 0x80 DUP3 ADD MSTORE PUSH1 0xA0 ADD PUSH2 0x22D JUMP JUMPDEST CALLVALUE DUP1 ISZERO PUSH2 0x308 JUMPI PUSH1 0x0 DUP1 REVERT JUMPDEST POP PUSH2 0x2A4 PUSH2 0x317 CALLDATASIZE PUSH1 0x4 PUSH2 0x2728 JUMP JUMPDEST PUSH2 0xBAD JUMP JUMPDEST CALLVALUE DUP1 ISZERO PUSH2 0x328 JUMPI PUSH1 0x0 DUP1 REVERT JUMPDEST POP PUSH1 0xFC SLOAD PUSH2 0x277 SWAP1 PUSH1 0x1 PUSH1 0x1 PUSH1 0xA0 SHL SUB AND DUP2 JUMP JUMPDEST CALLVALUE DUP1 ISZERO PUSH2 0x348 JUMPI PUSH1 0x0 DUP1 REVERT JUMPDEST POP PUSH2 0x20F PUSH2 0x357 CALLDATASIZE PUSH1 0x4 PUSH2 0x25F1 JUMP JUMPDEST PUSH2 0xBE0 JUMP JUMPDEST CALLVALUE DUP1 ISZERO PUSH2 0x368 JUMPI PUSH1 0x0 DUP1 REVERT JUMPDEST POP PUSH2 0x20F PUSH2 0xC07 JUMP JUMPDEST CALLVALUE DUP1 ISZERO PUSH2 0x37D JUMPI PUSH1 0x0 DUP1 REVERT JUMPDEST POP PUSH2 0x20F PUSH2 0x38C CALLDATASIZE PUSH1 0x4 PUSH2 0x27CC JUMP JUMPDEST PUSH2 0xC40 JUMP JUMPDEST CALLVALUE DUP1 ISZERO PUSH2 0x39D JUMPI PUSH1 0x0 DUP1 REVERT JUMPDEST POP PUSH2 0x223 PUSH2 0x104 SLOAD DUP2 JUMP JUMPDEST PUSH2 0x20F PUSH2 0x3B6 CALLDATASIZE PUSH1 0x4 PUSH2 0x260D JUMP JUMPDEST PUSH2 0xE6C JUMP JUMPDEST CALLVALUE DUP1 ISZERO PUSH2 0x3C7 JUMPI PUSH1 0x0 DUP1 REVERT JUMPDEST POP PUSH2 0x223 PUSH1 0xFD SLOAD DUP2 JUMP JUMPDEST CALLVALUE DUP1 ISZERO PUSH2 0x3DD JUMPI PUSH1 0x0 DUP1 REVERT JUMPDEST POP PUSH2 0x20F PUSH2 0x3EC CALLDATASIZE PUSH1 0x4 PUSH2 0x276D JUMP JUMPDEST PUSH2 0xE85 JUMP JUMPDEST CALLVALUE DUP1 ISZERO PUSH2 0x3FD JUMPI PUSH1 0x0 DUP1 REVERT JUMPDEST POP PUSH1 0xFF SLOAD PUSH2 0x277 SWAP1 PUSH1 0x1 PUSH1 0x1 PUSH1 0xA0 SHL SUB AND DUP2 JUMP JUMPDEST CALLVALUE DUP1 ISZERO PUSH2 0x41D JUMPI PUSH1 0x0 DUP1 REVERT JUMPDEST POP PUSH2 0x20F PUSH2 0x42C CALLDATASIZE PUSH1 0x4 PUSH2 0x276D JUMP JUMPDEST PUSH2 0x1008 JUMP JUMPDEST CALLVALUE DUP1 ISZERO PUSH2 0x43D JUMPI PUSH1 0x0 DUP1 REVERT JUMPDEST POP PUSH1 0x33 SLOAD PUSH1 0xFF AND PUSH2 0x2A4 JUMP JUMPDEST CALLVALUE DUP1 ISZERO PUSH2 0x455 JUMPI PUSH1 0x0 DUP1 REVERT JUMPDEST POP PUSH2 0x20F PUSH2 0x464 CALLDATASIZE PUSH1 0x4 PUSH2 0x276D JUMP JUMPDEST PUSH2 0x111B JUMP JUMPDEST CALLVALUE DUP1 ISZERO PUSH2 0x475 JUMPI PUSH1 0x0 DUP1 REVERT JUMPDEST POP PUSH2 0x223 PUSH2 0x484 CALLDATASIZE PUSH1 0x4 PUSH2 0x279D JUMP JUMPDEST PUSH2 0x114F JUMP JUMPDEST CALLVALUE DUP1 ISZERO PUSH2 0x495 JUMPI PUSH1 0x0 DUP1 REVERT JUMPDEST POP PUSH2 0x20F PUSH2 0x12FF JUMP JUMPDEST CALLVALUE DUP1 ISZERO PUSH2 0x4AA JUMPI PUSH1 0x0 DUP1 REVERT JUMPDEST POP PUSH2 0x223 PUSH2 0x105 SLOAD DUP2 JUMP JUMPDEST CALLVALUE DUP1 ISZERO PUSH2 0x4C1 JUMPI PUSH1 0x0 DUP1 REVERT JUMPDEST POP PUSH2 0x20F PUSH2 0x1338 JUMP JUMPDEST CALLVALUE DUP1 ISZERO PUSH2 0x4D6 JUMPI PUSH1 0x0 DUP1 REVERT JUMPDEST POP PUSH2 0x223 PUSH1 0xFE SLOAD DUP2 JUMP JUMPDEST CALLVALUE DUP1 ISZERO PUSH2 0x4EC JUMPI PUSH1 0x0 DUP1 REVERT JUMPDEST POP PUSH2 0x277 PUSH2 0x136F JUMP JUMPDEST CALLVALUE DUP1 ISZERO PUSH2 0x501 JUMPI PUSH1 0x0 DUP1 REVERT JUMPDEST POP PUSH2 0x223 PUSH2 0x510 CALLDATASIZE PUSH1 0x4 PUSH2 0x27CC JUMP JUMPDEST PUSH2 0x137E JUMP JUMPDEST CALLVALUE DUP1 ISZERO PUSH2 0x521 JUMPI PUSH1 0x0 DUP1 REVERT JUMPDEST POP PUSH2 0x555 PUSH2 0x530 CALLDATASIZE PUSH1 0x4 PUSH2 0x279D JUMP JUMPDEST PUSH2 0x102 PUSH1 0x20 SWAP1 DUP2 MSTORE PUSH1 0x0 SWAP3 DUP4 MSTORE PUSH1 0x40 DUP1 DUP5 KECCAK256 SWAP1 SWAP2 MSTORE SWAP1 DUP3 MSTORE SWAP1 KECCAK256 DUP1 SLOAD PUSH1 0x1 SWAP1 SWAP2 ADD SLOAD DUP3 JUMP JUMPDEST PUSH1 0x40 DUP1 MLOAD SWAP3 DUP4 MSTORE PUSH1 0x20 DUP4 ADD SWAP2 SWAP1 SWAP2 MSTORE ADD PUSH2 0x22D JUMP JUMPDEST CALLVALUE DUP1 ISZERO PUSH2 0x576 JUMPI PUSH1 0x0 DUP1 REVERT JUMPDEST POP PUSH2 0x223 PUSH2 0x100 SLOAD DUP2 JUMP JUMPDEST CALLVALUE DUP1 ISZERO PUSH2 0x58D JUMPI PUSH1 0x0 DUP1 REVERT JUMPDEST POP PUSH2 0x20F PUSH2 0x59C CALLDATASIZE PUSH1 0x4 PUSH2 0x25F1 JUMP JUMPDEST PUSH2 0x1398 JUMP JUMPDEST CALLVALUE DUP1 ISZERO PUSH2 0x5AD JUMPI PUSH1 0x0 DUP1 REVERT JUMPDEST POP PUSH2 0x20F PUSH2 0x5BC CALLDATASIZE PUSH1 0x4 PUSH2 0x276D JUMP JUMPDEST PUSH2 0x146D JUMP JUMPDEST CALLVALUE DUP1 ISZERO PUSH2 0x5CD JUMPI PUSH1 0x0 DUP1 REVERT JUMPDEST POP PUSH2 0x20F PUSH2 0x5DC CALLDATASIZE PUSH1 0x4 PUSH2 0x276D JUMP JUMPDEST PUSH2 0x100 SSTORE JUMP JUMPDEST CALLVALUE DUP1 ISZERO PUSH2 0x5EE JUMPI PUSH1 0x0 DUP1 REVERT JUMPDEST POP PUSH2 0x223 PUSH2 0x103 SLOAD DUP2 JUMP JUMPDEST CALLVALUE DUP1 ISZERO PUSH2 0x605 JUMPI PUSH1 0x0 DUP1 REVERT JUMPDEST POP PUSH2 0x20F PUSH2 0x614 CALLDATASIZE PUSH1 0x4 PUSH2 0x276D JUMP JUMPDEST PUSH2 0x14F2 JUMP JUMPDEST CALLVALUE DUP1 ISZERO PUSH2 0x625 JUMPI PUSH1 0x0 DUP1 REVERT JUMPDEST POP PUSH2 0x20F PUSH2 0x634 CALLDATASIZE PUSH1 0x4 PUSH2 0x27CC JUMP JUMPDEST PUSH2 0x1527 JUMP JUMPDEST CALLVALUE DUP1 ISZERO PUSH2 0x645 JUMPI PUSH1 0x0 DUP1 REVERT JUMPDEST POP PUSH1 0xFB SLOAD PUSH2 0x277 SWAP1 PUSH1 0x1 PUSH1 0x1 PUSH1 0xA0 SHL SUB AND DUP2 JUMP JUMPDEST CALLVALUE DUP1 ISZERO PUSH2 0x665 JUMPI PUSH1 0x0 DUP1 REVERT JUMPDEST POP PUSH2 0x20F PUSH2 0x674 CALLDATASIZE PUSH1 0x4 PUSH2 0x25F1 JUMP JUMPDEST PUSH2 0x1977 JUMP JUMPDEST PUSH1 0x0 SLOAD PUSH2 0x100 SWAP1 DIV PUSH1 0xFF AND DUP1 PUSH2 0x692 JUMPI POP PUSH1 0x0 SLOAD PUSH1 0xFF AND ISZERO JUMPDEST PUSH2 0x6B7 JUMPI PUSH1 0x40 MLOAD PUSH3 0x461BCD PUSH1 0xE5 SHL DUP2 MSTORE PUSH1 0x4 ADD PUSH2 0x6AE SWAP1 PUSH2 0x2A06 JUMP JUMPDEST PUSH1 0x40 MLOAD DUP1 SWAP2 SUB SWAP1 REVERT JUMPDEST PUSH1 0x0 SLOAD PUSH2 0x100 SWAP1 DIV PUSH1 0xFF AND ISZERO DUP1 ISZERO PUSH2 0x6E2 JUMPI PUSH1 0x0 DUP1 SLOAD PUSH1 0xFF NOT PUSH2 0xFF00 NOT SWAP1 SWAP2 AND PUSH2 0x100 OR AND PUSH1 0x1 OR SWAP1 SSTORE JUMPDEST PUSH2 0x6EA PUSH2 0x1A14 JUMP JUMPDEST PUSH2 0x106 DUP1 SLOAD PUSH1 0x1 PUSH1 0x1 PUSH1 0xA0 SHL SUB DUP1 DUP12 AND PUSH1 0x1 PUSH1 0x1 PUSH1 0xA0 SHL SUB NOT SWAP3 DUP4 AND OR SWAP1 SWAP3 SSTORE PUSH1 0xFB DUP1 SLOAD DUP11 DUP5 AND SWAP1 DUP4 AND OR SWAP1 SSTORE PUSH1 0xFD DUP9 SWAP1 SSTORE PUSH2 0x104 DUP8 SWAP1 SSTORE PUSH1 0xFF DUP1 SLOAD DUP7 DUP5 AND SWAP1 DUP4 AND OR SWAP1 SSTORE PUSH1 0xFC DUP1 SLOAD SWAP3 DUP6 AND SWAP3 SWAP1 SWAP2 AND SWAP2 SWAP1 SWAP2 OR SWAP1 SSTORE PUSH2 0x100 DUP5 SWAP1 SSTORE PUSH3 0xF4240 PUSH1 0xFE SSTORE PUSH1 0xC8 PUSH2 0x103 SSTORE DUP1 ISZERO PUSH2 0x765 JUMPI PUSH1 0x0 DUP1 SLOAD PUSH2 0xFF00 NOT AND SWAP1 SSTORE JUMPDEST POP POP POP POP POP POP POP POP JUMP JUMPDEST PUSH1 0xFC SLOAD PUSH1 0x40 MLOAD PUSH4 0x23C4C9F PUSH1 0xE6 SHL DUP2 MSTORE PUSH1 0x4 DUP2 ADD DUP4 SWAP1 MSTORE PUSH1 0x0 SWAP2 PUSH1 0x1 PUSH1 0x1 PUSH1 0xA0 SHL SUB AND SWAP1 PUSH4 0x8F1327C0 SWAP1 PUSH1 0x24 ADD PUSH1 0x0 PUSH1 0x40 MLOAD DUP1 DUP4 SUB DUP2 DUP7 DUP1 EXTCODESIZE ISZERO DUP1 ISZERO PUSH2 0x7B4 JUMPI PUSH1 0x0 DUP1 REVERT JUMPDEST POP GAS STATICCALL ISZERO DUP1 ISZERO PUSH2 0x7C8 JUMPI RETURNDATASIZE PUSH1 0x0 DUP1 RETURNDATACOPY RETURNDATASIZE PUSH1 0x0 REVERT JUMPDEST POP POP POP POP PUSH1 0x40 MLOAD RETURNDATASIZE PUSH1 0x0 DUP3 RETURNDATACOPY PUSH1 0x1F RETURNDATASIZE SWAP1 DUP2 ADD PUSH1 0x1F NOT AND DUP3 ADD PUSH1 0x40 MSTORE PUSH2 0x7F0 SWAP2 SWAP1 DUP2 ADD SWAP1 PUSH2 0x27ED JUMP JUMPDEST POP POP POP POP POP POP SWAP5 POP POP POP POP POP DUP1 PUSH2 0x85A JUMPI PUSH1 0x40 MLOAD PUSH3 0x461BCD PUSH1 0xE5 SHL DUP2 MSTORE PUSH1 0x20 PUSH1 0x4 DUP3 ADD MSTORE PUSH1 0x28 PUSH1 0x24 DUP3 ADD MSTORE PUSH32 0x526F756E6420776173206E6F74207375636365737366756C206F72206E6F7420 PUSH1 0x44 DUP3 ADD MSTORE PUSH8 0x636F6D706C657465 PUSH1 0xC0 SHL PUSH1 0x64 DUP3 ADD MSTORE PUSH1 0x84 ADD PUSH2 0x6AE JUMP JUMPDEST PUSH1 0xFC SLOAD PUSH1 0x40 DUP1 MLOAD PUSH4 0xECCE301 PUSH1 0xE3 SHL DUP2 MSTORE SWAP1 MLOAD PUSH1 0x0 SWAP3 PUSH1 0x1 PUSH1 0x1 PUSH1 0xA0 SHL SUB AND SWAP2 PUSH4 0x76671808 SWAP2 PUSH1 0x4 DUP1 DUP4 ADD SWAP3 PUSH1 0x20 SWAP3 SWAP2 SWAP1 DUP3 SWAP1 SUB ADD DUP2 DUP8 DUP8 DUP1 EXTCODESIZE ISZERO DUP1 ISZERO PUSH2 0x8A0 JUMPI PUSH1 0x0 DUP1 REVERT JUMPDEST POP GAS CALL ISZERO DUP1 ISZERO PUSH2 0x8B4 JUMPI RETURNDATASIZE PUSH1 0x0 DUP1 RETURNDATACOPY RETURNDATASIZE PUSH1 0x0 REVERT JUMPDEST POP POP POP POP PUSH1 0x40 MLOAD RETURNDATASIZE PUSH1 0x1F NOT PUSH1 0x1F DUP3 ADD AND DUP3 ADD DUP1 PUSH1 0x40 MSTORE POP DUP2 ADD SWAP1 PUSH2 0x8D8 SWAP2 SWAP1 PUSH2 0x2785 JUMP JUMPDEST SWAP1 POP DUP3 DUP2 EQ PUSH2 0x9C8 JUMPI PUSH1 0xFC SLOAD PUSH1 0x40 MLOAD PUSH4 0x23C4C9F PUSH1 0xE6 SHL DUP2 MSTORE PUSH1 0x4 DUP2 ADD DUP4 SWAP1 MSTORE PUSH1 0x0 SWAP2 PUSH1 0x1 PUSH1 0x1 PUSH1 0xA0 SHL SUB AND SWAP1 PUSH4 0x8F1327C0 SWAP1 PUSH1 0x24 ADD PUSH1 0x0 PUSH1 0x40 MLOAD DUP1 DUP4 SUB DUP2 DUP7 DUP1 EXTCODESIZE ISZERO DUP1 ISZERO PUSH2 0x926 JUMPI PUSH1 0x0 DUP1 REVERT JUMPDEST POP GAS STATICCALL ISZERO DUP1 ISZERO PUSH2 0x93A JUMPI RETURNDATASIZE PUSH1 0x0 DUP1 RETURNDATACOPY RETURNDATASIZE PUSH1 0x0 REVERT JUMPDEST POP POP POP POP PUSH1 0x40 MLOAD RETURNDATASIZE PUSH1 0x0 DUP3 RETURNDATACOPY PUSH1 0x1F RETURNDATASIZE SWAP1 DUP2 ADD PUSH1 0x1F NOT AND DUP3 ADD PUSH1 0x40 MSTORE PUSH2 0x962 SWAP2 SWAP1 DUP2 ADD SWAP1 PUSH2 0x27ED JUMP JUMPDEST POP POP POP POP POP POP SWAP5 POP POP POP POP POP DUP1 ISZERO PUSH2 0x9C6 JUMPI PUSH1 0x40 MLOAD PUSH3 0x461BCD PUSH1 0xE5 SHL DUP2 MSTORE PUSH1 0x20 PUSH1 0x4 DUP3 ADD MSTORE PUSH1 0x21 PUSH1 0x24 DUP3 ADD MSTORE PUSH32 0x43757272656E7420526F756E6420697320616C726561647920636F6D706C6574 PUSH1 0x44 DUP3 ADD MSTORE PUSH1 0x65 PUSH1 0xF8 SHL PUSH1 0x64 DUP3 ADD MSTORE PUSH1 0x84 ADD PUSH2 0x6AE JUMP JUMPDEST POP JUMPDEST PUSH2 0x101 SLOAD ISZERO PUSH2 0xACF JUMPI PUSH2 0x101 SLOAD PUSH1 0x0 SWAP1 PUSH2 0x9E4 SWAP1 PUSH1 0x1 SWAP1 PUSH2 0x2B33 JUMP JUMPDEST SWAP1 POP DUP4 PUSH2 0x101 DUP3 DUP2 SLOAD DUP2 LT PUSH2 0xA09 JUMPI PUSH4 0x4E487B71 PUSH1 0xE0 SHL PUSH1 0x0 MSTORE PUSH1 0x32 PUSH1 0x4 MSTORE PUSH1 0x24 PUSH1 0x0 REVERT JUMPDEST SWAP1 PUSH1 0x0 MSTORE PUSH1 0x20 PUSH1 0x0 KECCAK256 SWAP1 PUSH1 0x5 MUL ADD PUSH1 0x3 ADD SLOAD LT PUSH2 0xA80 JUMPI PUSH1 0x40 MLOAD PUSH3 0x461BCD PUSH1 0xE5 SHL DUP2 MSTORE PUSH1 0x20 PUSH1 0x4 DUP3 ADD MSTORE PUSH1 0x2F PUSH1 0x24 DUP3 ADD MSTORE PUSH32 0x4E65772065706F63682063616E6E6F74206265206C657373206F722065717561 PUSH1 0x44 DUP3 ADD MSTORE PUSH15 0xD840E8DE40E0C2E6E840CAE0DEC6D PUSH1 0x8B SHL PUSH1 0x64 DUP3 ADD MSTORE PUSH1 0x84 ADD PUSH2 0x6AE JUMP JUMPDEST PUSH2 0xA89 DUP2 PUSH2 0xE85 JUMP JUMPDEST PUSH2 0x101 DUP1 SLOAD PUSH1 0x0 SWAP2 SWAP1 PUSH2 0xA9E SWAP1 PUSH1 0x1 SWAP1 PUSH2 0x2B33 JUMP JUMPDEST DUP2 SLOAD DUP2 LT PUSH2 0xABC JUMPI PUSH4 0x4E487B71 PUSH1 0xE0 SHL PUSH1 0x0 MSTORE PUSH1 0x32 PUSH1 0x4 MSTORE PUSH1 0x24 PUSH1 0x0 REVERT JUMPDEST PUSH1 0x0 SWAP2 DUP3 MSTORE PUSH1 0x20 SWAP1 SWAP2 KECCAK256 PUSH1 0x5 SWAP1 SWAP2 MUL ADD SSTORE POP JUMPDEST PUSH2 0xADC PUSH2 0x103 SLOAD DUP5 PUSH2 0x1A98 JUMP JUMPDEST POP POP POP JUMP JUMPDEST PUSH1 0xFC SLOAD PUSH1 0x40 MLOAD PUSH4 0xA90B027 PUSH1 0xE1 SHL DUP2 MSTORE PUSH1 0x0 SWAP2 PUSH1 0x1 PUSH1 0x1 PUSH1 0xA0 SHL SUB AND SWAP1 PUSH4 0x1521604E SWAP1 PUSH2 0xB14 SWAP1 DUP7 SWAP1 DUP7 SWAP1 PUSH1 0x4 ADD PUSH2 0x2962 JUMP JUMPDEST PUSH1 0x20 PUSH1 0x40 MLOAD DUP1 DUP4 SUB DUP2 DUP7 DUP1 EXTCODESIZE ISZERO DUP1 ISZERO PUSH2 0xB2C JUMPI PUSH1 0x0 DUP1 REVERT JUMPDEST POP GAS STATICCALL ISZERO DUP1 ISZERO PUSH2 0xB40 JUMPI RETURNDATASIZE PUSH1 0x0 DUP1 RETURNDATACOPY RETURNDATASIZE PUSH1 0x0 REVERT JUMPDEST POP POP POP POP PUSH1 0x40 MLOAD RETURNDATASIZE PUSH1 0x1F NOT PUSH1 0x1F DUP3 ADD AND DUP3 ADD DUP1 PUSH1 0x40 MSTORE POP DUP2 ADD SWAP1 PUSH2 0xB64 SWAP2 SWAP1 PUSH2 0x2753 JUMP JUMPDEST SWAP4 SWAP3 POP POP POP JUMP JUMPDEST PUSH2 0x101 DUP2 DUP2 SLOAD DUP2 LT PUSH2 0xB7C JUMPI PUSH1 0x0 DUP1 REVERT JUMPDEST PUSH1 0x0 SWAP2 DUP3 MSTORE PUSH1 0x20 SWAP1 SWAP2 KECCAK256 PUSH1 0x5 SWAP1 SWAP2 MUL ADD DUP1 SLOAD PUSH1 0x1 DUP3 ADD SLOAD PUSH1 0x2 DUP4 ADD SLOAD PUSH1 0x3 DUP5 ADD SLOAD PUSH1 0x4 SWAP1 SWAP5 ADD SLOAD SWAP3 SWAP5 POP SWAP1 SWAP3 SWAP1 SWAP2 DUP6 JUMP JUMPDEST PUSH1 0xFC SLOAD PUSH1 0x40 MLOAD PUSH4 0xE468271 PUSH1 0xE1 SHL DUP2 MSTORE PUSH1 0x0 SWAP2 PUSH1 0x1 PUSH1 0x1 PUSH1 0xA0 SHL SUB AND SWAP1 PUSH4 0x1C8D04E2 SWAP1 PUSH2 0xB14 SWAP1 DUP7 SWAP1 DUP7 SWAP1 PUSH1 0x4 ADD PUSH2 0x2962 JUMP JUMPDEST PUSH2 0xBE9 DUP2 PUSH2 0x1BF8 JUMP JUMPDEST PUSH2 0xC04 DUP2 PUSH1 0x40 MLOAD DUP1 PUSH1 0x20 ADD PUSH1 0x40 MSTORE DUP1 PUSH1 0x0 DUP2 MSTORE POP PUSH1 0x0 PUSH2 0x1C27 JUMP JUMPDEST POP JUMP JUMPDEST CALLER PUSH2 0xC10 PUSH2 0x136F JUMP JUMPDEST PUSH1 0x1 PUSH1 0x1 PUSH1 0xA0 SHL SUB AND EQ PUSH2 0xC36 JUMPI PUSH1 0x40 MLOAD PUSH3 0x461BCD PUSH1 0xE5 SHL DUP2 MSTORE PUSH1 0x4 ADD PUSH2 0x6AE SWAP1 PUSH2 0x2A54 JUMP JUMPDEST PUSH2 0xC3E PUSH2 0x1D6E JUMP JUMPDEST JUMP JUMPDEST PUSH1 0x33 SLOAD PUSH1 0xFF AND ISZERO PUSH2 0xC63 JUMPI PUSH1 0x40 MLOAD PUSH3 0x461BCD PUSH1 0xE5 SHL DUP2 MSTORE PUSH1 0x4 ADD PUSH2 0x6AE SWAP1 PUSH2 0x29DC JUMP JUMPDEST PUSH1 0x0 PUSH2 0x101 DUP4 DUP2 SLOAD DUP2 LT PUSH2 0xC87 JUMPI PUSH4 0x4E487B71 PUSH1 0xE0 SHL PUSH1 0x0 MSTORE PUSH1 0x32 PUSH1 0x4 MSTORE PUSH1 0x24 PUSH1 0x0 REVERT JUMPDEST PUSH1 0x0 SWAP2 DUP3 MSTORE PUSH1 0x20 DUP1 DUP4 KECCAK256 DUP7 DUP5 MSTORE PUSH2 0x102 DUP3 MSTORE PUSH1 0x40 DUP1 DUP6 KECCAK256 CALLER DUP7 MSTORE SWAP1 SWAP3 MSTORE SWAP3 KECCAK256 DUP1 SLOAD PUSH1 0x5 SWAP1 SWAP3 MUL SWAP1 SWAP3 ADD SWAP3 POP DUP4 GT ISZERO PUSH2 0xCF6 JUMPI PUSH1 0x40 MLOAD PUSH3 0x461BCD PUSH1 0xE5 SHL DUP2 MSTORE PUSH1 0x20 PUSH1 0x4 DUP3 ADD MSTORE PUSH1 0x12 PUSH1 0x24 DUP3 ADD MSTORE PUSH18 0x1DDA5D1A191C985DCE881B9BDD0819DBDBD9 PUSH1 0x72 SHL PUSH1 0x44 DUP3 ADD MSTORE PUSH1 0x64 ADD PUSH2 0x6AE JUMP JUMPDEST PUSH2 0xCFF DUP5 PUSH2 0xE85 JUMP JUMPDEST PUSH1 0x0 PUSH2 0xD40 DUP3 PUSH1 0x1 ADD SLOAD PUSH2 0xD3A PUSH9 0x327CB2734119D3B7A9 PUSH1 0x1E SHL PUSH2 0xD34 DUP8 PUSH1 0x2 ADD SLOAD DUP8 PUSH1 0x0 ADD SLOAD PUSH2 0x1DD4 SWAP1 SWAP2 SWAP1 PUSH4 0xFFFFFFFF AND JUMP JUMPDEST SWAP1 PUSH2 0x1DE0 JUMP JUMPDEST SWAP1 PUSH2 0x1DEC JUMP JUMPDEST SWAP1 POP DUP1 ISZERO PUSH2 0xD52 JUMPI PUSH2 0xD52 CALLER DUP3 PUSH2 0x1DF8 JUMP JUMPDEST DUP4 ISZERO PUSH2 0xD91 JUMPI DUP2 SLOAD PUSH2 0xD64 SWAP1 DUP6 PUSH2 0x1DEC JUMP JUMPDEST DUP3 SSTORE PUSH1 0x4 DUP4 ADD SLOAD PUSH2 0xD75 SWAP1 DUP6 PUSH2 0x1DEC JUMP JUMPDEST PUSH1 0x4 DUP5 ADD SSTORE PUSH1 0xFB SLOAD PUSH2 0xD91 SWAP1 PUSH1 0x1 PUSH1 0x1 PUSH1 0xA0 SHL SUB AND CALLER DUP7 PUSH2 0x1E90 JUMP JUMPDEST PUSH1 0x2 DUP4 ADD SLOAD DUP3 SLOAD PUSH2 0xDB3 SWAP2 PUSH9 0x327CB2734119D3B7A9 PUSH1 0x1E SHL SWAP2 PUSH2 0xD34 SWAP2 PUSH2 0x1DD4 JUMP JUMPDEST DUP3 PUSH1 0x1 ADD DUP2 SWAP1 SSTORE POP DUP3 PUSH2 0x101 DUP7 DUP2 SLOAD DUP2 LT PUSH2 0xDDE JUMPI PUSH4 0x4E487B71 PUSH1 0xE0 SHL PUSH1 0x0 MSTORE PUSH1 0x32 PUSH1 0x4 MSTORE PUSH1 0x24 PUSH1 0x0 REVERT JUMPDEST SWAP1 PUSH1 0x0 MSTORE PUSH1 0x20 PUSH1 0x0 KECCAK256 SWAP1 PUSH1 0x5 MUL ADD PUSH1 0x0 DUP3 ADD SLOAD DUP2 PUSH1 0x0 ADD SSTORE PUSH1 0x1 DUP3 ADD SLOAD DUP2 PUSH1 0x1 ADD SSTORE PUSH1 0x2 DUP3 ADD SLOAD DUP2 PUSH1 0x2 ADD SSTORE PUSH1 0x3 DUP3 ADD SLOAD DUP2 PUSH1 0x3 ADD SSTORE PUSH1 0x4 DUP3 ADD SLOAD DUP2 PUSH1 0x4 ADD SSTORE SWAP1 POP POP DUP5 CALLER PUSH1 0x1 PUSH1 0x1 PUSH1 0xA0 SHL SUB AND PUSH32 0xF279E6A1F5E320CCA91135676D9CB6E44CA8A08C0B88342BCDB1144F6511B568 DUP7 PUSH1 0x40 MLOAD PUSH2 0xE5D SWAP2 DUP2 MSTORE PUSH1 0x20 ADD SWAP1 JUMP JUMPDEST PUSH1 0x40 MLOAD DUP1 SWAP2 SUB SWAP1 LOG3 POP POP POP POP POP JUMP JUMPDEST PUSH2 0xE75 DUP3 PUSH2 0x1BF8 JUMP JUMPDEST PUSH2 0xE81 DUP3 DUP3 PUSH1 0x1 PUSH2 0x1C27 JUMP JUMPDEST POP POP JUMP JUMPDEST PUSH1 0x0 PUSH2 0x101 DUP3 DUP2 SLOAD DUP2 LT PUSH2 0xEA9 JUMPI PUSH4 0x4E487B71 PUSH1 0xE0 SHL PUSH1 0x0 MSTORE PUSH1 0x32 PUSH1 0x4 MSTORE PUSH1 0x24 PUSH1 0x0 REVERT JUMPDEST SWAP1 PUSH1 0x0 MSTORE PUSH1 0x20 PUSH1 0x0 KECCAK256 SWAP1 PUSH1 0x5 MUL ADD SWAP1 POP DUP1 PUSH1 0x1 ADD SLOAD NUMBER GT PUSH2 0xECA JUMPI POP PUSH2 0xC04 JUMP JUMPDEST PUSH1 0xFB SLOAD PUSH1 0x40 MLOAD PUSH4 0x70A08231 PUSH1 0xE0 SHL DUP2 MSTORE PUSH1 0x0 SWAP2 PUSH1 0x1 PUSH1 0x1 PUSH1 0xA0 SHL SUB AND SWAP1 PUSH4 0x70A08231 SWAP1 PUSH2 0xEFB SWAP1 ADDRESS SWAP1 PUSH1 0x4 ADD PUSH2 0x294E JUMP JUMPDEST PUSH1 0x20 PUSH1 0x40 MLOAD DUP1 DUP4 SUB DUP2 DUP7 DUP1 EXTCODESIZE ISZERO DUP1 ISZERO PUSH2 0xF13 JUMPI PUSH1 0x0 DUP1 REVERT JUMPDEST POP GAS STATICCALL ISZERO DUP1 ISZERO PUSH2 0xF27 JUMPI RETURNDATASIZE PUSH1 0x0 DUP1 RETURNDATACOPY RETURNDATASIZE PUSH1 0x0 REVERT JUMPDEST POP POP POP POP PUSH1 0x40 MLOAD RETURNDATASIZE PUSH1 0x1F NOT PUSH1 0x1F DUP3 ADD AND DUP3 ADD DUP1 PUSH1 0x40 MSTORE POP DUP2 ADD SWAP1 PUSH2 0xF4B SWAP2 SWAP1 PUSH2 0x2785 JUMP JUMPDEST SWAP1 POP DUP1 PUSH2 0xF5F JUMPI POP NUMBER PUSH1 0x1 SWAP1 SWAP2 ADD SSTORE PUSH2 0xC04 JUMP JUMPDEST PUSH1 0x0 PUSH2 0xF6F DUP4 PUSH1 0x1 ADD SLOAD NUMBER PUSH2 0x137E JUMP JUMPDEST SWAP1 POP PUSH1 0x0 PUSH2 0xF88 PUSH1 0xFD SLOAD DUP4 PUSH2 0x1DD4 SWAP1 SWAP2 SWAP1 PUSH4 0xFFFFFFFF AND JUMP JUMPDEST PUSH2 0x105 SLOAD PUSH1 0xFF SLOAD SWAP2 SWAP3 POP PUSH1 0x0 SWAP2 PUSH2 0xFAB SWAP2 PUSH1 0x1 PUSH1 0x1 PUSH1 0xA0 SHL SUB SWAP1 SWAP2 AND BALANCE SWAP1 PUSH2 0x1DEC JUMP JUMPDEST SWAP1 POP DUP1 DUP3 LT PUSH2 0xFB8 JUMPI DUP1 SWAP2 POP JUMPDEST PUSH2 0xFE0 PUSH2 0xFD5 DUP6 PUSH2 0xD34 DUP6 PUSH9 0x327CB2734119D3B7A9 PUSH1 0x1E SHL PUSH2 0x1DD4 JUMP JUMPDEST PUSH1 0x2 DUP8 ADD SLOAD SWAP1 PUSH2 0x1EE6 JUMP JUMPDEST PUSH1 0x2 DUP7 ADD SSTORE PUSH2 0x105 SLOAD PUSH2 0xFF3 SWAP1 DUP4 PUSH2 0x1EE6 JUMP JUMPDEST PUSH2 0x105 SSTORE POP POP NUMBER PUSH1 0x1 SWAP1 SWAP4 ADD SWAP3 SWAP1 SWAP3 SSTORE POP POP POP JUMP JUMPDEST PUSH1 0x33 SLOAD PUSH1 0xFF AND PUSH2 0x102A JUMPI PUSH1 0x40 MLOAD PUSH3 0x461BCD PUSH1 0xE5 SHL DUP2 MSTORE PUSH1 0x4 ADD PUSH2 0x6AE SWAP1 PUSH2 0x29AE JUMP JUMPDEST PUSH1 0x0 PUSH2 0x101 DUP3 DUP2 SLOAD DUP2 LT PUSH2 0x104E JUMPI PUSH4 0x4E487B71 PUSH1 0xE0 SHL PUSH1 0x0 MSTORE PUSH1 0x32 PUSH1 0x4 MSTORE PUSH1 0x24 PUSH1 0x0 REVERT JUMPDEST PUSH1 0x0 SWAP2 DUP3 MSTORE PUSH1 0x20 DUP1 DUP4 KECCAK256 DUP6 DUP5 MSTORE PUSH2 0x102 DUP3 MSTORE PUSH1 0x40 DUP1 DUP6 KECCAK256 CALLER DUP7 MSTORE SWAP1 SWAP3 MSTORE SWAP1 DUP4 KECCAK256 DUP1 SLOAD DUP5 DUP3 SSTORE PUSH1 0x1 DUP3 ADD DUP6 SWAP1 SSTORE PUSH1 0x2 PUSH1 0x5 SWAP1 SWAP5 MUL SWAP1 SWAP3 ADD SWAP3 DUP4 ADD SLOAD SWAP3 SWAP5 POP SWAP3 SWAP1 SWAP2 PUSH2 0x10B1 SWAP1 DUP3 SWAP1 PUSH2 0xD3A SWAP1 PUSH9 0x327CB2734119D3B7A9 PUSH1 0x1E SHL SWAP1 PUSH2 0xD34 SWAP1 DUP8 SWAP1 PUSH2 0x1DD4 JUMP JUMPDEST SWAP1 POP PUSH2 0x105 SLOAD DUP2 GT PUSH2 0x10D0 JUMPI PUSH2 0x105 SLOAD PUSH2 0x10CB SWAP1 DUP3 PUSH2 0x1DEC JUMP JUMPDEST PUSH2 0x105 SSTORE JUMPDEST PUSH1 0xFB SLOAD PUSH2 0x10E7 SWAP1 PUSH1 0x1 PUSH1 0x1 PUSH1 0xA0 SHL SUB AND CALLER DUP5 PUSH2 0x1E90 JUMP JUMPDEST PUSH1 0x40 MLOAD DUP3 DUP2 MSTORE DUP6 SWAP1 CALLER SWAP1 PUSH32 0xBB757047C2B5F3974FE26B7C10F732E7BCE710B0952A71082702781E62AE0595 SWAP1 PUSH1 0x20 ADD PUSH2 0xE5D JUMP JUMPDEST CALLER PUSH2 0x1124 PUSH2 0x136F JUMP JUMPDEST PUSH1 0x1 PUSH1 0x1 PUSH1 0xA0 SHL SUB AND EQ PUSH2 0x114A JUMPI PUSH1 0x40 MLOAD PUSH3 0x461BCD PUSH1 0xE5 SHL DUP2 MSTORE PUSH1 0x4 ADD PUSH2 0x6AE SWAP1 PUSH2 0x2A54 JUMP JUMPDEST PUSH1 0xFE SSTORE JUMP JUMPDEST PUSH1 0x0 DUP1 PUSH2 0x101 DUP5 DUP2 SLOAD DUP2 LT PUSH2 0x1174 JUMPI PUSH4 0x4E487B71 PUSH1 0xE0 SHL PUSH1 0x0 MSTORE PUSH1 0x32 PUSH1 0x4 MSTORE PUSH1 0x24 PUSH1 0x0 REVERT JUMPDEST PUSH1 0x0 SWAP2 DUP3 MSTORE PUSH1 0x20 DUP1 DUP4 KECCAK256 DUP8 DUP5 MSTORE PUSH2 0x102 DUP3 MSTORE PUSH1 0x40 DUP1 DUP6 KECCAK256 PUSH1 0x1 PUSH1 0x1 PUSH1 0xA0 SHL SUB DUP1 DUP11 AND DUP8 MSTORE SWAP4 MSTORE DUP1 DUP6 KECCAK256 PUSH1 0x2 PUSH1 0x5 SWAP1 SWAP6 MUL SWAP1 SWAP3 ADD SWAP4 DUP5 ADD SLOAD PUSH1 0xFB SLOAD SWAP2 MLOAD PUSH4 0x70A08231 PUSH1 0xE0 SHL DUP2 MSTORE SWAP5 SWAP7 POP SWAP2 SWAP5 SWAP2 SWAP4 SWAP2 SWAP3 AND SWAP1 PUSH4 0x70A08231 SWAP1 PUSH2 0x11D9 SWAP1 ADDRESS SWAP1 PUSH1 0x4 ADD PUSH2 0x294E JUMP JUMPDEST PUSH1 0x20 PUSH1 0x40 MLOAD DUP1 DUP4 SUB DUP2 DUP7 DUP1 EXTCODESIZE ISZERO DUP1 ISZERO PUSH2 0x11F1 JUMPI PUSH1 0x0 DUP1 REVERT JUMPDEST POP GAS STATICCALL ISZERO DUP1 ISZERO PUSH2 0x1205 JUMPI RETURNDATASIZE PUSH1 0x0 DUP1 RETURNDATACOPY RETURNDATASIZE PUSH1 0x0 REVERT JUMPDEST POP POP POP POP PUSH1 0x40 MLOAD RETURNDATASIZE PUSH1 0x1F NOT PUSH1 0x1F DUP3 ADD AND DUP3 ADD DUP1 PUSH1 0x40 MSTORE POP DUP2 ADD SWAP1 PUSH2 0x1229 SWAP2 SWAP1 PUSH2 0x2785 JUMP JUMPDEST SWAP1 POP DUP4 PUSH1 0x1 ADD SLOAD NUMBER GT DUP1 ISZERO PUSH2 0x123D JUMPI POP DUP1 ISZERO ISZERO JUMPDEST ISZERO PUSH2 0x12C5 JUMPI PUSH1 0x0 PUSH2 0x1252 DUP6 PUSH1 0x1 ADD SLOAD NUMBER PUSH2 0x137E JUMP JUMPDEST SWAP1 POP PUSH1 0x0 PUSH2 0x126B PUSH1 0xFD SLOAD DUP4 PUSH2 0x1DD4 SWAP1 SWAP2 SWAP1 PUSH4 0xFFFFFFFF AND JUMP JUMPDEST PUSH2 0x105 SLOAD PUSH1 0xFF SLOAD SWAP2 SWAP3 POP PUSH1 0x0 SWAP2 PUSH2 0x128E SWAP2 PUSH1 0x1 PUSH1 0x1 PUSH1 0xA0 SHL SUB SWAP1 SWAP2 AND BALANCE SWAP1 PUSH2 0x1DEC JUMP JUMPDEST SWAP1 POP DUP1 DUP3 LT PUSH2 0x129B JUMPI DUP1 SWAP2 POP JUMPDEST PUSH2 0x12BF PUSH2 0x12B8 DUP6 PUSH2 0xD34 DUP6 PUSH9 0x327CB2734119D3B7A9 PUSH1 0x1E SHL PUSH2 0x1DD4 JUMP JUMPDEST DUP7 SWAP1 PUSH2 0x1EE6 JUMP JUMPDEST SWAP5 POP POP POP POP JUMPDEST PUSH2 0x12F4 DUP4 PUSH1 0x1 ADD SLOAD PUSH2 0xD3A PUSH9 0x327CB2734119D3B7A9 PUSH1 0x1E SHL PUSH2 0xD34 DUP7 DUP9 PUSH1 0x0 ADD SLOAD PUSH2 0x1DD4 SWAP1 SWAP2 SWAP1 PUSH4 0xFFFFFFFF AND JUMP JUMPDEST SWAP8 SWAP7 POP POP POP POP POP POP POP JUMP JUMPDEST CALLER PUSH2 0x1308 PUSH2 0x136F JUMP JUMPDEST PUSH1 0x1 PUSH1 0x1 PUSH1 0xA0 SHL SUB AND EQ PUSH2 0x132E JUMPI PUSH1 0x40 MLOAD PUSH3 0x461BCD PUSH1 0xE5 SHL DUP2 MSTORE PUSH1 0x4 ADD PUSH2 0x6AE SWAP1 PUSH2 0x2A54 JUMP JUMPDEST PUSH2 0xC3E PUSH1 0x0 PUSH2 0x1EF2 JUMP JUMPDEST CALLER PUSH2 0x1341 PUSH2 0x136F JUMP JUMPDEST PUSH1 0x1 PUSH1 0x1 PUSH1 0xA0 SHL SUB AND EQ PUSH2 0x1367 JUMPI PUSH1 0x40 MLOAD PUSH3 0x461BCD PUSH1 0xE5 SHL DUP2 MSTORE PUSH1 0x4 ADD PUSH2 0x6AE SWAP1 PUSH2 0x2A54 JUMP JUMPDEST PUSH2 0xC3E PUSH2 0x1F44 JUMP JUMPDEST PUSH1 0xC9 SLOAD PUSH1 0x1 PUSH1 0x1 PUSH1 0xA0 SHL SUB AND SWAP1 JUMP JUMPDEST PUSH1 0xFE SLOAD PUSH1 0x0 SWAP1 PUSH2 0xB64 SWAP1 PUSH2 0x1392 DUP5 DUP7 PUSH2 0x1DEC JUMP JUMPDEST SWAP1 PUSH2 0x1DD4 JUMP JUMPDEST CALLER PUSH2 0x13A1 PUSH2 0x136F JUMP JUMPDEST PUSH1 0x1 PUSH1 0x1 PUSH1 0xA0 SHL SUB AND EQ PUSH2 0x13C7 JUMPI PUSH1 0x40 MLOAD PUSH3 0x461BCD PUSH1 0xE5 SHL DUP2 MSTORE PUSH1 0x4 ADD PUSH2 0x6AE SWAP1 PUSH2 0x2A54 JUMP JUMPDEST PUSH1 0x1 PUSH1 0x1 PUSH1 0xA0 SHL SUB DUP2 AND PUSH2 0x1416 JUMPI PUSH1 0x40 MLOAD PUSH3 0x461BCD PUSH1 0xE5 SHL DUP2 MSTORE PUSH1 0x20 PUSH1 0x4 DUP3 ADD MSTORE PUSH1 0x16 PUSH1 0x24 DUP3 ADD MSTORE PUSH22 0x43616E6E6F74206265207A65726F2061646472657373 PUSH1 0x50 SHL PUSH1 0x44 DUP3 ADD MSTORE PUSH1 0x64 ADD PUSH2 0x6AE JUMP JUMPDEST PUSH2 0x106 DUP1 SLOAD PUSH1 0x1 PUSH1 0x1 PUSH1 0xA0 SHL SUB NOT AND PUSH1 0x1 PUSH1 0x1 PUSH1 0xA0 SHL SUB DUP4 AND OR SWAP1 SSTORE PUSH1 0x40 MLOAD PUSH32 0xC47D127C07BDD56C5CCBA00463CE3BD3C1BCA71B4670EEA6E5D0C02E4AA156E2 SWAP1 PUSH2 0x1462 SWAP1 DUP4 SWAP1 PUSH2 0x294E JUMP JUMPDEST PUSH1 0x40 MLOAD DUP1 SWAP2 SUB SWAP1 LOG1 POP JUMP JUMPDEST CALLER PUSH2 0x1476 PUSH2 0x136F JUMP JUMPDEST PUSH1 0x1 PUSH1 0x1 PUSH1 0xA0 SHL SUB AND EQ PUSH2 0x149C JUMPI PUSH1 0x40 MLOAD PUSH3 0x461BCD PUSH1 0xE5 SHL DUP2 MSTORE PUSH1 0x4 ADD PUSH2 0x6AE SWAP1 PUSH2 0x2A54 JUMP JUMPDEST PUSH2 0x101 SLOAD PUSH1 0x0 SWAP1 PUSH2 0x14AF SWAP1 PUSH1 0x1 SWAP1 PUSH2 0x2B33 JUMP JUMPDEST SWAP1 POP PUSH2 0x14BA DUP2 PUSH2 0xE85 JUMP JUMPDEST DUP2 PUSH2 0x101 DUP3 DUP2 SLOAD DUP2 LT PUSH2 0x14DD JUMPI PUSH4 0x4E487B71 PUSH1 0xE0 SHL PUSH1 0x0 MSTORE PUSH1 0x32 PUSH1 0x4 MSTORE PUSH1 0x24 PUSH1 0x0 REVERT JUMPDEST PUSH1 0x0 SWAP2 DUP3 MSTORE PUSH1 0x20 SWAP1 SWAP2 KECCAK256 PUSH1 0x5 SWAP1 SWAP2 MUL ADD SSTORE POP POP JUMP JUMPDEST CALLER PUSH2 0x14FB PUSH2 0x136F JUMP JUMPDEST PUSH1 0x1 PUSH1 0x1 PUSH1 0xA0 SHL SUB AND EQ PUSH2 0x1521 JUMPI PUSH1 0x40 MLOAD PUSH3 0x461BCD PUSH1 0xE5 SHL DUP2 MSTORE PUSH1 0x4 ADD PUSH2 0x6AE SWAP1 PUSH2 0x2A54 JUMP JUMPDEST PUSH2 0x103 SSTORE JUMP JUMPDEST PUSH1 0x33 SLOAD PUSH1 0xFF AND ISZERO PUSH2 0x154A JUMPI PUSH1 0x40 MLOAD PUSH3 0x461BCD PUSH1 0xE5 SHL DUP2 MSTORE PUSH1 0x4 ADD PUSH2 0x6AE SWAP1 PUSH2 0x29DC JUMP JUMPDEST PUSH2 0x1553 DUP3 PUSH2 0xE85 JUMP JUMPDEST PUSH1 0x0 PUSH2 0x101 DUP4 DUP2 SLOAD DUP2 LT PUSH2 0x1577 JUMPI PUSH4 0x4E487B71 PUSH1 0xE0 SHL PUSH1 0x0 MSTORE PUSH1 0x32 PUSH1 0x4 MSTORE PUSH1 0x24 PUSH1 0x0 REVERT JUMPDEST PUSH1 0x0 SWAP2 DUP3 MSTORE PUSH1 0x20 SWAP1 SWAP2 KECCAK256 PUSH1 0xFC SLOAD PUSH1 0x5 SWAP1 SWAP3 MUL ADD PUSH1 0x3 DUP2 ADD SLOAD PUSH1 0x40 MLOAD PUSH4 0xE468271 PUSH1 0xE1 SHL DUP2 MSTORE SWAP2 SWAP4 POP PUSH1 0x1 PUSH1 0x1 PUSH1 0xA0 SHL SUB SWAP1 SWAP3 AND SWAP2 PUSH4 0x1C8D04E2 SWAP2 PUSH2 0x15BF SWAP2 CALLER SWAP2 PUSH1 0x4 ADD PUSH2 0x2962 JUMP JUMPDEST PUSH1 0x20 PUSH1 0x40 MLOAD DUP1 DUP4 SUB DUP2 DUP7 DUP1 EXTCODESIZE ISZERO DUP1 ISZERO PUSH2 0x15D7 JUMPI PUSH1 0x0 DUP1 REVERT JUMPDEST POP GAS STATICCALL ISZERO DUP1 ISZERO PUSH2 0x15EB JUMPI RETURNDATASIZE PUSH1 0x0 DUP1 RETURNDATACOPY RETURNDATASIZE PUSH1 0x0 REVERT JUMPDEST POP POP POP POP PUSH1 0x40 MLOAD RETURNDATASIZE PUSH1 0x1F NOT PUSH1 0x1F DUP3 ADD AND DUP3 ADD DUP1 PUSH1 0x40 MSTORE POP DUP2 ADD SWAP1 PUSH2 0x160F SWAP2 SWAP1 PUSH2 0x2753 JUMP JUMPDEST PUSH2 0x1666 JUMPI PUSH1 0x40 MLOAD PUSH3 0x461BCD PUSH1 0xE5 SHL DUP2 MSTORE PUSH1 0x20 PUSH1 0x4 DUP3 ADD MSTORE PUSH1 0x22 PUSH1 0x24 DUP3 ADD MSTORE PUSH32 0x446964206E6F74206C6F736520746869732050726564696374696F6E20726F75 PUSH1 0x44 DUP3 ADD MSTORE PUSH2 0x1B99 PUSH1 0xF2 SHL PUSH1 0x64 DUP3 ADD MSTORE PUSH1 0x84 ADD PUSH2 0x6AE JUMP JUMPDEST PUSH1 0x0 DUP4 DUP2 MSTORE PUSH2 0x102 PUSH1 0x20 SWAP1 DUP2 MSTORE PUSH1 0x40 DUP1 DUP4 KECCAK256 CALLER DUP5 MSTORE SWAP1 SWAP2 MSTORE SWAP1 KECCAK256 DUP1 SLOAD ISZERO PUSH2 0x16D0 JUMPI PUSH1 0x0 PUSH2 0x16BC DUP3 PUSH1 0x1 ADD SLOAD PUSH2 0xD3A PUSH9 0x327CB2734119D3B7A9 PUSH1 0x1E SHL PUSH2 0xD34 DUP8 PUSH1 0x2 ADD SLOAD DUP8 PUSH1 0x0 ADD SLOAD PUSH2 0x1DD4 SWAP1 SWAP2 SWAP1 PUSH4 0xFFFFFFFF AND JUMP JUMPDEST SWAP1 POP DUP1 ISZERO PUSH2 0x16CE JUMPI PUSH2 0x16CE CALLER DUP3 PUSH2 0x1DF8 JUMP JUMPDEST POP JUMPDEST DUP3 ISZERO PUSH2 0x189D JUMPI PUSH1 0xFB SLOAD PUSH1 0x40 MLOAD PUSH4 0x70A08231 PUSH1 0xE0 SHL DUP2 MSTORE PUSH1 0x0 SWAP2 PUSH1 0x1 PUSH1 0x1 PUSH1 0xA0 SHL SUB AND SWAP1 PUSH4 0x70A08231 SWAP1 PUSH2 0x1707 SWAP1 ADDRESS SWAP1 PUSH1 0x4 ADD PUSH2 0x294E JUMP JUMPDEST PUSH1 0x20 PUSH1 0x40 MLOAD DUP1 DUP4 SUB DUP2 DUP7 DUP1 EXTCODESIZE ISZERO DUP1 ISZERO PUSH2 0x171F JUMPI PUSH1 0x0 DUP1 REVERT JUMPDEST POP GAS STATICCALL ISZERO DUP1 ISZERO PUSH2 0x1733 JUMPI RETURNDATASIZE PUSH1 0x0 DUP1 RETURNDATACOPY RETURNDATASIZE PUSH1 0x0 REVERT JUMPDEST POP POP POP POP PUSH1 0x40 MLOAD RETURNDATASIZE PUSH1 0x1F NOT PUSH1 0x1F DUP3 ADD AND DUP3 ADD DUP1 PUSH1 0x40 MSTORE POP DUP2 ADD SWAP1 PUSH2 0x1757 SWAP2 SWAP1 PUSH2 0x2785 JUMP JUMPDEST PUSH1 0xFB SLOAD SWAP1 SWAP2 POP PUSH2 0x1772 SWAP1 PUSH1 0x1 PUSH1 0x1 PUSH1 0xA0 SHL SUB AND CALLER ADDRESS DUP8 PUSH2 0x1F9C JUMP JUMPDEST PUSH1 0xFB SLOAD PUSH1 0x40 MLOAD PUSH4 0x70A08231 PUSH1 0xE0 SHL DUP2 MSTORE PUSH2 0x1802 SWAP2 PUSH2 0x17FA SWAP2 DUP5 SWAP2 PUSH1 0x1 PUSH1 0x1 PUSH1 0xA0 SHL SUB AND SWAP1 PUSH4 0x70A08231 SWAP1 PUSH2 0x17AA SWAP1 ADDRESS SWAP1 PUSH1 0x4 ADD PUSH2 0x294E JUMP JUMPDEST PUSH1 0x20 PUSH1 0x40 MLOAD DUP1 DUP4 SUB DUP2 DUP7 DUP1 EXTCODESIZE ISZERO DUP1 ISZERO PUSH2 0x17C2 JUMPI PUSH1 0x0 DUP1 REVERT JUMPDEST POP GAS STATICCALL ISZERO DUP1 ISZERO PUSH2 0x17D6 JUMPI RETURNDATASIZE PUSH1 0x0 DUP1 RETURNDATACOPY RETURNDATASIZE PUSH1 0x0 REVERT JUMPDEST POP POP POP POP PUSH1 0x40 MLOAD RETURNDATASIZE PUSH1 0x1F NOT PUSH1 0x1F DUP3 ADD AND DUP3 ADD DUP1 PUSH1 0x40 MSTORE POP DUP2 ADD SWAP1 PUSH2 0xD3A SWAP2 SWAP1 PUSH2 0x2785 JUMP JUMPDEST DUP4 SLOAD SWAP1 PUSH2 0x1EE6 JUMP JUMPDEST DUP3 SSTORE PUSH1 0xFB SLOAD PUSH1 0x40 MLOAD PUSH4 0x70A08231 PUSH1 0xE0 SHL DUP2 MSTORE PUSH2 0x1847 SWAP2 PUSH2 0x183C SWAP2 DUP5 SWAP2 PUSH1 0x1 PUSH1 0x1 PUSH1 0xA0 SHL SUB AND SWAP1 PUSH4 0x70A08231 SWAP1 PUSH2 0x17AA SWAP1 ADDRESS SWAP1 PUSH1 0x4 ADD PUSH2 0x294E JUMP JUMPDEST PUSH1 0x4 DUP6 ADD SLOAD SWAP1 PUSH2 0x1EE6 JUMP JUMPDEST PUSH1 0x4 DUP5 ADD SSTORE PUSH2 0x100 SLOAD DUP3 SLOAD GT ISZERO PUSH2 0x189B JUMPI PUSH1 0x40 MLOAD PUSH3 0x461BCD PUSH1 0xE5 SHL DUP2 MSTORE PUSH1 0x20 PUSH1 0x4 DUP3 ADD MSTORE PUSH1 0x18 PUSH1 0x24 DUP3 ADD MSTORE PUSH24 0x13585E08141491510811195C1BDCDA5D0814995858DA1959 PUSH1 0x42 SHL PUSH1 0x44 DUP3 ADD MSTORE PUSH1 0x64 ADD PUSH2 0x6AE JUMP JUMPDEST POP JUMPDEST PUSH1 0x2 DUP3 ADD SLOAD DUP2 SLOAD PUSH2 0x18BF SWAP2 PUSH9 0x327CB2734119D3B7A9 PUSH1 0x1E SHL SWAP2 PUSH2 0xD34 SWAP2 PUSH2 0x1DD4 JUMP JUMPDEST DUP2 PUSH1 0x1 ADD DUP2 SWAP1 SSTORE POP DUP2 PUSH2 0x101 DUP6 DUP2 SLOAD DUP2 LT PUSH2 0x18EA JUMPI PUSH4 0x4E487B71 PUSH1 0xE0 SHL PUSH1 0x0 MSTORE PUSH1 0x32 PUSH1 0x4 MSTORE PUSH1 0x24 PUSH1 0x0 REVERT JUMPDEST SWAP1 PUSH1 0x0 MSTORE PUSH1 0x20 PUSH1 0x0 KECCAK256 SWAP1 PUSH1 0x5 MUL ADD PUSH1 0x0 DUP3 ADD SLOAD DUP2 PUSH1 0x0 ADD SSTORE PUSH1 0x1 DUP3 ADD SLOAD DUP2 PUSH1 0x1 ADD SSTORE PUSH1 0x2 DUP3 ADD SLOAD DUP2 PUSH1 0x2 ADD SSTORE PUSH1 0x3 DUP3 ADD SLOAD DUP2 PUSH1 0x3 ADD SSTORE PUSH1 0x4 DUP3 ADD SLOAD DUP2 PUSH1 0x4 ADD SSTORE SWAP1 POP POP DUP4 CALLER PUSH1 0x1 PUSH1 0x1 PUSH1 0xA0 SHL SUB AND PUSH32 0x90890809C654F11D6E72A28FA60149770A0D11EC6C92319D6CEB2BB0A4EA1A15 DUP6 PUSH1 0x40 MLOAD PUSH2 0x1969 SWAP2 DUP2 MSTORE PUSH1 0x20 ADD SWAP1 JUMP JUMPDEST PUSH1 0x40 MLOAD DUP1 SWAP2 SUB SWAP1 LOG3 POP POP POP POP JUMP JUMPDEST CALLER PUSH2 0x1980 PUSH2 0x136F JUMP JUMPDEST PUSH1 0x1 PUSH1 0x1 PUSH1 0xA0 SHL SUB AND EQ PUSH2 0x19A6 JUMPI PUSH1 0x40 MLOAD PUSH3 0x461BCD PUSH1 0xE5 SHL DUP2 MSTORE PUSH1 0x4 ADD PUSH2 0x6AE SWAP1 PUSH2 0x2A54 JUMP JUMPDEST PUSH1 0x1 PUSH1 0x1 PUSH1 0xA0 SHL SUB DUP2 AND PUSH2 0x1A0B JUMPI PUSH1 0x40 MLOAD PUSH3 0x461BCD PUSH1 0xE5 SHL DUP2 MSTORE PUSH1 0x20 PUSH1 0x4 DUP3 ADD MSTORE PUSH1 0x26 PUSH1 0x24 DUP3 ADD MSTORE PUSH32 0x4F776E61626C653A206E6577206F776E657220697320746865207A65726F2061 PUSH1 0x44 DUP3 ADD MSTORE PUSH6 0x646472657373 PUSH1 0xD0 SHL PUSH1 0x64 DUP3 ADD MSTORE PUSH1 0x84 ADD PUSH2 0x6AE JUMP JUMPDEST PUSH2 0xC04 DUP2 PUSH2 0x1EF2 JUMP JUMPDEST PUSH1 0x0 SLOAD PUSH2 0x100 SWAP1 DIV PUSH1 0xFF AND DUP1 PUSH2 0x1A2D JUMPI POP PUSH1 0x0 SLOAD PUSH1 0xFF AND ISZERO JUMPDEST PUSH2 0x1A49 JUMPI PUSH1 0x40 MLOAD PUSH3 0x461BCD PUSH1 0xE5 SHL DUP2 MSTORE PUSH1 0x4 ADD PUSH2 0x6AE SWAP1 PUSH2 0x2A06 JUMP JUMPDEST PUSH1 0x0 SLOAD PUSH2 0x100 SWAP1 DIV PUSH1 0xFF AND ISZERO DUP1 ISZERO PUSH2 0x1A74 JUMPI PUSH1 0x0 DUP1 SLOAD PUSH1 0xFF NOT PUSH2 0xFF00 NOT SWAP1 SWAP2 AND PUSH2 0x100 OR AND PUSH1 0x1 OR SWAP1 SSTORE JUMPDEST PUSH2 0x1A7C PUSH2 0x1FDA JUMP JUMPDEST PUSH2 0x1A84 PUSH2 0x204D JUMP JUMPDEST DUP1 ISZERO PUSH2 0xC04 JUMPI PUSH1 0x0 DUP1 SLOAD PUSH2 0xFF00 NOT AND SWAP1 SSTORE POP JUMP JUMPDEST PUSH2 0x106 SLOAD PUSH1 0x1 PUSH1 0x1 PUSH1 0xA0 SHL SUB AND CALLER EQ PUSH2 0x1AE2 JUMPI PUSH1 0x40 MLOAD PUSH3 0x461BCD PUSH1 0xE5 SHL DUP2 MSTORE PUSH1 0x20 PUSH1 0x4 DUP3 ADD MSTORE PUSH1 0xC PUSH1 0x24 DUP3 ADD MSTORE PUSH12 0x2737BA1037B832B930BA37B9 PUSH1 0xA1 SHL PUSH1 0x44 DUP3 ADD MSTORE PUSH1 0x64 ADD PUSH2 0x6AE JUMP JUMPDEST PUSH1 0x0 PUSH2 0x104 SLOAD NUMBER GT PUSH2 0x1AF7 JUMPI PUSH2 0x104 SLOAD PUSH2 0x1AF9 JUMP JUMPDEST NUMBER JUMPDEST PUSH1 0x40 DUP1 MLOAD PUSH1 0xA0 DUP2 ADD DUP3 MSTORE SWAP5 DUP6 MSTORE PUSH1 0x20 DUP6 ADD SWAP2 DUP3 MSTORE PUSH1 0x0 SWAP1 DUP6 ADD DUP2 DUP2 MSTORE PUSH1 0x60 DUP7 ADD SWAP5 DUP6 MSTORE PUSH1 0x80 DUP7 ADD DUP3 DUP2 MSTORE PUSH2 0x101 DUP1 SLOAD PUSH1 0x1 DUP2 ADD DUP3 SSTORE SWAP4 MSTORE SWAP6 MLOAD PUSH32 0x109EA3CEBB188B9C1B9FC5BB3920BE60DFDC8699098DFF92F3D80DAACA747689 PUSH1 0x5 SWAP1 SWAP4 MUL SWAP3 DUP4 ADD SSTORE SWAP2 MLOAD PUSH32 0x109EA3CEBB188B9C1B9FC5BB3920BE60DFDC8699098DFF92F3D80DAACA74768A DUP3 ADD SSTORE SWAP1 MLOAD PUSH32 0x109EA3CEBB188B9C1B9FC5BB3920BE60DFDC8699098DFF92F3D80DAACA74768B DUP3 ADD SSTORE SWAP2 MLOAD PUSH32 0x109EA3CEBB188B9C1B9FC5BB3920BE60DFDC8699098DFF92F3D80DAACA74768C DUP4 ADD SSTORE POP SWAP1 MLOAD PUSH32 0x109EA3CEBB188B9C1B9FC5BB3920BE60DFDC8699098DFF92F3D80DAACA74768D SWAP1 SWAP2 ADD SSTORE JUMP JUMPDEST CALLER PUSH2 0x1C01 PUSH2 0x136F JUMP JUMPDEST PUSH1 0x1 PUSH1 0x1 PUSH1 0xA0 SHL SUB AND EQ PUSH2 0xC04 JUMPI PUSH1 0x40 MLOAD PUSH3 0x461BCD PUSH1 0xE5 SHL DUP2 MSTORE PUSH1 0x4 ADD PUSH2 0x6AE SWAP1 PUSH2 0x2A54 JUMP JUMPDEST PUSH1 0x0 PUSH2 0x1C31 PUSH2 0x20B6 JUMP JUMPDEST SWAP1 POP PUSH2 0x1C3C DUP5 PUSH2 0x20E4 JUMP JUMPDEST PUSH1 0x0 DUP4 MLOAD GT DUP1 PUSH2 0x1C49 JUMPI POP DUP2 JUMPDEST ISZERO PUSH2 0x1C5A JUMPI PUSH2 0x1C58 DUP5 DUP5 PUSH2 0x2190 JUMP JUMPDEST POP JUMPDEST PUSH32 0x4910FDFA16FED3260ED0E7147F7CC6DA11A60208B5B9406D12A635614FFD9143 DUP1 SLOAD PUSH1 0xFF AND PUSH2 0x1D67 JUMPI DUP1 SLOAD PUSH1 0xFF NOT AND PUSH1 0x1 OR DUP2 SSTORE PUSH1 0x40 MLOAD PUSH2 0x1CD5 SWAP1 DUP7 SWAP1 PUSH2 0x1CA6 SWAP1 DUP6 SWAP1 PUSH1 0x24 ADD PUSH2 0x294E JUMP JUMPDEST PUSH1 0x40 DUP1 MLOAD PUSH1 0x1F NOT DUP2 DUP5 SUB ADD DUP2 MSTORE SWAP2 SWAP1 MSTORE PUSH1 0x20 DUP2 ADD DUP1 MLOAD PUSH1 0x1 PUSH1 0x1 PUSH1 0xE0 SHL SUB AND PUSH4 0x1B2CE7F3 PUSH1 0xE1 SHL OR SWAP1 MSTORE PUSH2 0x2190 JUMP JUMPDEST POP DUP1 SLOAD PUSH1 0xFF NOT AND DUP2 SSTORE PUSH2 0x1CE6 PUSH2 0x20B6 JUMP JUMPDEST PUSH1 0x1 PUSH1 0x1 PUSH1 0xA0 SHL SUB AND DUP3 PUSH1 0x1 PUSH1 0x1 PUSH1 0xA0 SHL SUB AND EQ PUSH2 0x1D5E JUMPI PUSH1 0x40 MLOAD PUSH3 0x461BCD PUSH1 0xE5 SHL DUP2 MSTORE PUSH1 0x20 PUSH1 0x4 DUP3 ADD MSTORE PUSH1 0x2F PUSH1 0x24 DUP3 ADD MSTORE PUSH32 0x45524331393637557067726164653A207570677261646520627265616B732066 PUSH1 0x44 DUP3 ADD MSTORE PUSH15 0x757274686572207570677261646573 PUSH1 0x88 SHL PUSH1 0x64 DUP3 ADD MSTORE PUSH1 0x84 ADD PUSH2 0x6AE JUMP JUMPDEST PUSH2 0x1D67 DUP6 PUSH2 0x2282 JUMP JUMPDEST POP POP POP POP POP JUMP JUMPDEST PUSH1 0x33 SLOAD PUSH1 0xFF AND PUSH2 0x1D90 JUMPI PUSH1 0x40 MLOAD PUSH3 0x461BCD PUSH1 0xE5 SHL DUP2 MSTORE PUSH1 0x4 ADD PUSH2 0x6AE SWAP1 PUSH2 0x29AE JUMP JUMPDEST PUSH1 0x33 DUP1 SLOAD PUSH1 0xFF NOT AND SWAP1 SSTORE PUSH32 0x5DB9EE0A495BF2E6FF9C91A7834C1BA4FDD244A5E8AA4E537BD38AEAE4B073AA CALLER JUMPDEST PUSH1 0x40 MLOAD PUSH2 0x1DCA SWAP2 SWAP1 PUSH2 0x294E JUMP JUMPDEST PUSH1 0x40 MLOAD DUP1 SWAP2 SUB SWAP1 LOG1 JUMP JUMPDEST PUSH1 0x0 PUSH2 0xB64 DUP3 DUP5 PUSH2 0x2B14 JUMP JUMPDEST PUSH1 0x0 PUSH2 0xB64 DUP3 DUP5 PUSH2 0x2AF4 JUMP JUMPDEST PUSH1 0x0 PUSH2 0xB64 DUP3 DUP5 PUSH2 0x2B33 JUMP JUMPDEST PUSH1 0xFF SLOAD PUSH1 0x40 MLOAD PUSH4 0x5944B017 PUSH1 0xE0 SHL DUP2 MSTORE PUSH2 0x1E88 SWAP2 PUSH1 0x1 PUSH1 0x1 PUSH1 0xA0 SHL SUB AND SWAP1 PUSH4 0x5944B017 SWAP1 PUSH2 0x1E2C SWAP1 DUP7 SWAP1 DUP7 SWAP1 PUSH1 0x4 ADD PUSH2 0x2962 JUMP JUMPDEST PUSH1 0x20 PUSH1 0x40 MLOAD DUP1 DUP4 SUB DUP2 PUSH1 0x0 DUP8 DUP1 EXTCODESIZE ISZERO DUP1 ISZERO PUSH2 0x1E46 JUMPI PUSH1 0x0 DUP1 REVERT JUMPDEST POP GAS CALL ISZERO DUP1 ISZERO PUSH2 0x1E5A JUMPI RETURNDATASIZE PUSH1 0x0 DUP1 RETURNDATACOPY RETURNDATASIZE PUSH1 0x0 REVERT JUMPDEST POP POP POP POP PUSH1 0x40 MLOAD RETURNDATASIZE PUSH1 0x1F NOT PUSH1 0x1F DUP3 ADD AND DUP3 ADD DUP1 PUSH1 0x40 MSTORE POP DUP2 ADD SWAP1 PUSH2 0x1E7E SWAP2 SWAP1 PUSH2 0x2785 JUMP JUMPDEST PUSH2 0x105 SLOAD SWAP1 PUSH2 0x1DEC JUMP JUMPDEST PUSH2 0x105 SSTORE POP POP JUMP JUMPDEST PUSH2 0xADC DUP4 PUSH4 0xA9059CBB PUSH1 0xE0 SHL DUP5 DUP5 PUSH1 0x40 MLOAD PUSH1 0x24 ADD PUSH2 0x1EAF SWAP3 SWAP2 SWAP1 PUSH2 0x2962 JUMP JUMPDEST PUSH1 0x40 DUP1 MLOAD PUSH1 0x1F NOT DUP2 DUP5 SUB ADD DUP2 MSTORE SWAP2 SWAP1 MSTORE PUSH1 0x20 DUP2 ADD DUP1 MLOAD PUSH1 0x1 PUSH1 0x1 PUSH1 0xE0 SHL SUB AND PUSH1 0x1 PUSH1 0x1 PUSH1 0xE0 SHL SUB NOT SWAP1 SWAP4 AND SWAP3 SWAP1 SWAP3 OR SWAP1 SWAP2 MSTORE PUSH2 0x22C2 JUMP JUMPDEST PUSH1 0x0 PUSH2 0xB64 DUP3 DUP5 PUSH2 0x2ADC JUMP JUMPDEST PUSH1 0xC9 DUP1 SLOAD PUSH1 0x1 PUSH1 0x1 PUSH1 0xA0 SHL SUB DUP4 DUP2 AND PUSH1 0x1 PUSH1 0x1 PUSH1 0xA0 SHL SUB NOT DUP4 AND DUP2 OR SWAP1 SWAP4 SSTORE PUSH1 0x40 MLOAD SWAP2 AND SWAP2 SWAP1 DUP3 SWAP1 PUSH32 0x8BE0079C531659141344CD1FD0A4F28419497F9722A3DAAFE3B4186F6B6457E0 SWAP1 PUSH1 0x0 SWAP1 LOG3 POP POP JUMP JUMPDEST PUSH1 0x33 SLOAD PUSH1 0xFF AND ISZERO PUSH2 0x1F67 JUMPI PUSH1 0x40 MLOAD PUSH3 0x461BCD PUSH1 0xE5 SHL DUP2 MSTORE PUSH1 0x4 ADD PUSH2 0x6AE SWAP1 PUSH2 0x29DC JUMP JUMPDEST PUSH1 0x33 DUP1 SLOAD PUSH1 0xFF NOT AND PUSH1 0x1 OR SWAP1 SSTORE PUSH32 0x62E78CEA01BEE320CD4E420270B5EA74000D11B0C9F74754EBDBFC544B05A258 PUSH2 0x1DBD CALLER SWAP1 JUMP JUMPDEST PUSH1 0x40 MLOAD PUSH1 0x1 PUSH1 0x1 PUSH1 0xA0 SHL SUB DUP1 DUP6 AND PUSH1 0x24 DUP4 ADD MSTORE DUP4 AND PUSH1 0x44 DUP3 ADD MSTORE PUSH1 0x64 DUP2 ADD DUP3 SWAP1 MSTORE PUSH2 0x1FD4 SWAP1 DUP6 SWAP1 PUSH4 0x23B872DD PUSH1 0xE0 SHL SWAP1 PUSH1 0x84 ADD PUSH2 0x1EAF JUMP JUMPDEST POP POP POP POP JUMP JUMPDEST PUSH1 0x0 SLOAD PUSH2 0x100 SWAP1 DIV PUSH1 0xFF AND DUP1 PUSH2 0x1FF3 JUMPI POP PUSH1 0x0 SLOAD PUSH1 0xFF AND ISZERO JUMPDEST PUSH2 0x200F JUMPI PUSH1 0x40 MLOAD PUSH3 0x461BCD PUSH1 0xE5 SHL DUP2 MSTORE PUSH1 0x4 ADD PUSH2 0x6AE SWAP1 PUSH2 0x2A06 JUMP JUMPDEST PUSH1 0x0 SLOAD PUSH2 0x100 SWAP1 DIV PUSH1 0xFF AND ISZERO DUP1 ISZERO PUSH2 0x1A84 JUMPI PUSH1 0x0 DUP1 SLOAD PUSH1 0xFF NOT PUSH2 0xFF00 NOT SWAP1 SWAP2 AND PUSH2 0x100 OR AND PUSH1 0x1 OR SWAP1 SSTORE DUP1 ISZERO PUSH2 0xC04 JUMPI PUSH1 0x0 DUP1 SLOAD PUSH2 0xFF00 NOT AND SWAP1 SSTORE POP JUMP JUMPDEST PUSH1 0x0 SLOAD PUSH2 0x100 SWAP1 DIV PUSH1 0xFF AND DUP1 PUSH2 0x2066 JUMPI POP PUSH1 0x0 SLOAD PUSH1 0xFF AND ISZERO JUMPDEST PUSH2 0x2082 JUMPI PUSH1 0x40 MLOAD PUSH3 0x461BCD PUSH1 0xE5 SHL DUP2 MSTORE PUSH1 0x4 ADD PUSH2 0x6AE SWAP1 PUSH2 0x2A06 JUMP JUMPDEST PUSH1 0x0 SLOAD PUSH2 0x100 SWAP1 DIV PUSH1 0xFF AND ISZERO DUP1 ISZERO PUSH2 0x20AD JUMPI PUSH1 0x0 DUP1 SLOAD PUSH1 0xFF NOT PUSH2 0xFF00 NOT SWAP1 SWAP2 AND PUSH2 0x100 OR AND PUSH1 0x1 OR SWAP1 SSTORE JUMPDEST PUSH2 0x1A84 CALLER PUSH2 0x1EF2 JUMP JUMPDEST PUSH32 0x360894A13BA1A3210667C828492DB98DCA3E2076CC3735A920A3CA505D382BBC SLOAD PUSH1 0x1 PUSH1 0x1 PUSH1 0xA0 SHL SUB AND SWAP1 JUMP JUMPDEST PUSH2 0x20ED DUP2 PUSH2 0x2394 JUMP JUMPDEST PUSH2 0x214F JUMPI PUSH1 0x40 MLOAD PUSH3 0x461BCD PUSH1 0xE5 SHL DUP2 MSTORE PUSH1 0x20 PUSH1 0x4 DUP3 ADD MSTORE PUSH1 0x2D PUSH1 0x24 DUP3 ADD MSTORE PUSH32 0x455243313936373A206E657720696D706C656D656E746174696F6E206973206E PUSH1 0x44 DUP3 ADD MSTORE PUSH13 0x1BDD08184818DBDB9D1C9858DD PUSH1 0x9A SHL PUSH1 0x64 DUP3 ADD MSTORE PUSH1 0x84 ADD PUSH2 0x6AE JUMP JUMPDEST PUSH32 0x360894A13BA1A3210667C828492DB98DCA3E2076CC3735A920A3CA505D382BBC DUP1 SLOAD PUSH1 0x1 PUSH1 0x1 PUSH1 0xA0 SHL SUB NOT AND PUSH1 0x1 PUSH1 0x1 PUSH1 0xA0 SHL SUB SWAP3 SWAP1 SWAP3 AND SWAP2 SWAP1 SWAP2 OR SWAP1 SSTORE JUMP JUMPDEST PUSH1 0x60 PUSH2 0x219B DUP4 PUSH2 0x2394 JUMP JUMPDEST PUSH2 0x21F6 JUMPI PUSH1 0x40 MLOAD PUSH3 0x461BCD PUSH1 0xE5 SHL DUP2 MSTORE PUSH1 0x20 PUSH1 0x4 DUP3 ADD MSTORE PUSH1 0x26 PUSH1 0x24 DUP3 ADD MSTORE PUSH32 0x416464726573733A2064656C65676174652063616C6C20746F206E6F6E2D636F PUSH1 0x44 DUP3 ADD MSTORE PUSH6 0x1B9D1C9858DD PUSH1 0xD2 SHL PUSH1 0x64 DUP3 ADD MSTORE PUSH1 0x84 ADD PUSH2 0x6AE JUMP JUMPDEST PUSH1 0x0 DUP1 DUP5 PUSH1 0x1 PUSH1 0x1 PUSH1 0xA0 SHL SUB AND DUP5 PUSH1 0x40 MLOAD PUSH2 0x2211 SWAP2 SWAP1 PUSH2 0x2932 JUMP JUMPDEST PUSH1 0x0 PUSH1 0x40 MLOAD DUP1 DUP4 SUB DUP2 DUP6 GAS DELEGATECALL SWAP2 POP POP RETURNDATASIZE DUP1 PUSH1 0x0 DUP2 EQ PUSH2 0x224C JUMPI PUSH1 0x40 MLOAD SWAP2 POP PUSH1 0x1F NOT PUSH1 0x3F RETURNDATASIZE ADD AND DUP3 ADD PUSH1 0x40 MSTORE RETURNDATASIZE DUP3 MSTORE RETURNDATASIZE PUSH1 0x0 PUSH1 0x20 DUP5 ADD RETURNDATACOPY PUSH2 0x2251 JUMP JUMPDEST PUSH1 0x60 SWAP2 POP JUMPDEST POP SWAP2 POP SWAP2 POP PUSH2 0x2279 DUP3 DUP3 PUSH1 0x40 MLOAD DUP1 PUSH1 0x60 ADD PUSH1 0x40 MSTORE DUP1 PUSH1 0x27 DUP2 MSTORE PUSH1 0x20 ADD PUSH2 0x2BB8 PUSH1 0x27 SWAP2 CODECOPY PUSH2 0x239E JUMP JUMPDEST SWAP6 SWAP5 POP POP POP POP POP JUMP JUMPDEST PUSH2 0x228B DUP2 PUSH2 0x20E4 JUMP JUMPDEST PUSH1 0x40 MLOAD PUSH1 0x1 PUSH1 0x1 PUSH1 0xA0 SHL SUB DUP3 AND SWAP1 PUSH32 0xBC7CD75A20EE27FD9ADEBAB32041F755214DBC6BFFA90CC0225B39DA2E5C2D3B SWAP1 PUSH1 0x0 SWAP1 LOG2 POP JUMP JUMPDEST PUSH1 0x0 PUSH2 0x2317 DUP3 PUSH1 0x40 MLOAD DUP1 PUSH1 0x40 ADD PUSH1 0x40 MSTORE DUP1 PUSH1 0x20 DUP2 MSTORE PUSH1 0x20 ADD PUSH32 0x5361666545524332303A206C6F772D6C6576656C2063616C6C206661696C6564 DUP2 MSTORE POP DUP6 PUSH1 0x1 PUSH1 0x1 PUSH1 0xA0 SHL SUB AND PUSH2 0x23D7 SWAP1 SWAP3 SWAP2 SWAP1 PUSH4 0xFFFFFFFF AND JUMP JUMPDEST DUP1 MLOAD SWAP1 SWAP2 POP ISZERO PUSH2 0xADC JUMPI DUP1 DUP1 PUSH1 0x20 ADD SWAP1 MLOAD DUP2 ADD SWAP1 PUSH2 0x2335 SWAP2 SWAP1 PUSH2 0x2753 JUMP JUMPDEST PUSH2 0xADC JUMPI PUSH1 0x40 MLOAD PUSH3 0x461BCD PUSH1 0xE5 SHL DUP2 MSTORE PUSH1 0x20 PUSH1 0x4 DUP3 ADD MSTORE PUSH1 0x2A PUSH1 0x24 DUP3 ADD MSTORE PUSH32 0x5361666545524332303A204552433230206F7065726174696F6E20646964206E PUSH1 0x44 DUP3 ADD MSTORE PUSH10 0x1BDD081CDD58D8D95959 PUSH1 0xB2 SHL PUSH1 0x64 DUP3 ADD MSTORE PUSH1 0x84 ADD PUSH2 0x6AE JUMP JUMPDEST DUP1 EXTCODESIZE ISZERO ISZERO JUMPDEST SWAP2 SWAP1 POP JUMP JUMPDEST PUSH1 0x60 DUP4 ISZERO PUSH2 0x23AD JUMPI POP DUP2 PUSH2 0xB64 JUMP JUMPDEST DUP3 MLOAD ISZERO PUSH2 0x23BD JUMPI DUP3 MLOAD DUP1 DUP5 PUSH1 0x20 ADD REVERT JUMPDEST DUP2 PUSH1 0x40 MLOAD PUSH3 0x461BCD PUSH1 0xE5 SHL DUP2 MSTORE PUSH1 0x4 ADD PUSH2 0x6AE SWAP2 SWAP1 PUSH2 0x297B JUMP JUMPDEST PUSH1 0x60 PUSH2 0x23E6 DUP5 DUP5 PUSH1 0x0 DUP6 PUSH2 0x23EE JUMP JUMPDEST SWAP5 SWAP4 POP POP POP POP JUMP JUMPDEST PUSH1 0x60 DUP3 SELFBALANCE LT ISZERO PUSH2 0x244F JUMPI PUSH1 0x40 MLOAD PUSH3 0x461BCD PUSH1 0xE5 SHL DUP2 MSTORE PUSH1 0x20 PUSH1 0x4 DUP3 ADD MSTORE PUSH1 0x26 PUSH1 0x24 DUP3 ADD MSTORE PUSH32 0x416464726573733A20696E73756666696369656E742062616C616E636520666F PUSH1 0x44 DUP3 ADD MSTORE PUSH6 0x1C8818D85B1B PUSH1 0xD2 SHL PUSH1 0x64 DUP3 ADD MSTORE PUSH1 0x84 ADD PUSH2 0x6AE JUMP JUMPDEST PUSH2 0x2458 DUP6 PUSH2 0x2394 JUMP JUMPDEST PUSH2 0x24A4 JUMPI PUSH1 0x40 MLOAD PUSH3 0x461BCD PUSH1 0xE5 SHL DUP2 MSTORE PUSH1 0x20 PUSH1 0x4 DUP3 ADD MSTORE PUSH1 0x1D PUSH1 0x24 DUP3 ADD MSTORE PUSH32 0x416464726573733A2063616C6C20746F206E6F6E2D636F6E7472616374000000 PUSH1 0x44 DUP3 ADD MSTORE PUSH1 0x64 ADD PUSH2 0x6AE JUMP JUMPDEST PUSH1 0x0 DUP1 DUP7 PUSH1 0x1 PUSH1 0x1 PUSH1 0xA0 SHL SUB AND DUP6 DUP8 PUSH1 0x40 MLOAD PUSH2 0x24C0 SWAP2 SWAP1 PUSH2 0x2932 JUMP JUMPDEST PUSH1 0x0 PUSH1 0x40 MLOAD DUP1 DUP4 SUB DUP2 DUP6 DUP8 GAS CALL SWAP3 POP POP POP RETURNDATASIZE DUP1 PUSH1 0x0 DUP2 EQ PUSH2 0x24FD JUMPI PUSH1 0x40 MLOAD SWAP2 POP PUSH1 0x1F NOT PUSH1 0x3F RETURNDATASIZE ADD AND DUP3 ADD PUSH1 0x40 MSTORE RETURNDATASIZE DUP3 MSTORE RETURNDATASIZE PUSH1 0x0 PUSH1 0x20 DUP5 ADD RETURNDATACOPY PUSH2 0x2502 JUMP JUMPDEST PUSH1 0x60 SWAP2 POP JUMPDEST POP SWAP2 POP SWAP2 POP PUSH2 0x12F4 DUP3 DUP3 DUP7 PUSH2 0x239E JUMP JUMPDEST PUSH1 0x0 DUP3 PUSH1 0x1F DUP4 ADD SLT PUSH2 0x2522 JUMPI DUP1 DUP2 REVERT JUMPDEST DUP2 MLOAD PUSH1 0x20 PUSH2 0x2537 PUSH2 0x2532 DUP4 PUSH2 0x2AB9 JUMP JUMPDEST PUSH2 0x2A89 JUMP JUMPDEST DUP3 DUP2 MSTORE DUP2 DUP2 ADD SWAP1 DUP6 DUP4 ADD DUP4 DUP6 MUL DUP8 ADD DUP5 ADD DUP9 LT ISZERO PUSH2 0x2553 JUMPI DUP6 DUP7 REVERT JUMPDEST DUP6 JUMPDEST DUP6 DUP2 LT ISZERO PUSH2 0x257A JUMPI DUP2 MLOAD PUSH2 0x2568 DUP2 PUSH2 0x2BA2 JUMP JUMPDEST DUP5 MSTORE SWAP3 DUP5 ADD SWAP3 SWAP1 DUP5 ADD SWAP1 PUSH1 0x1 ADD PUSH2 0x2555 JUMP JUMPDEST POP SWAP1 SWAP8 SWAP7 POP POP POP POP POP POP POP JUMP JUMPDEST PUSH1 0x0 DUP3 PUSH1 0x1F DUP4 ADD SLT PUSH2 0x2597 JUMPI DUP1 DUP2 REVERT JUMPDEST DUP2 MLOAD PUSH1 0x20 PUSH2 0x25A7 PUSH2 0x2532 DUP4 PUSH2 0x2AB9 JUMP JUMPDEST DUP3 DUP2 MSTORE DUP2 DUP2 ADD SWAP1 DUP6 DUP4 ADD DUP4 DUP6 MUL DUP8 ADD DUP5 ADD DUP9 LT ISZERO PUSH2 0x25C3 JUMPI DUP6 DUP7 REVERT JUMPDEST DUP6 JUMPDEST DUP6 DUP2 LT ISZERO PUSH2 0x257A JUMPI DUP2 MLOAD DUP5 MSTORE SWAP3 DUP5 ADD SWAP3 SWAP1 DUP5 ADD SWAP1 PUSH1 0x1 ADD PUSH2 0x25C5 JUMP JUMPDEST DUP1 MLOAD DUP1 ISZERO ISZERO DUP2 EQ PUSH2 0x2399 JUMPI PUSH1 0x0 DUP1 REVERT JUMPDEST PUSH1 0x0 PUSH1 0x20 DUP3 DUP5 SUB SLT ISZERO PUSH2 0x2602 JUMPI DUP1 DUP2 REVERT JUMPDEST DUP2 CALLDATALOAD PUSH2 0xB64 DUP2 PUSH2 0x2BA2 JUMP JUMPDEST PUSH1 0x0 DUP1 PUSH1 0x40 DUP4 DUP6 SUB SLT ISZERO PUSH2 0x261F JUMPI DUP1 DUP2 REVERT JUMPDEST DUP3 CALLDATALOAD PUSH2 0x262A DUP2 PUSH2 0x2BA2 JUMP JUMPDEST SWAP2 POP PUSH1 0x20 DUP4 DUP2 ADD CALLDATALOAD PUSH1 0x1 PUSH1 0x1 PUSH1 0x40 SHL SUB DUP1 DUP3 GT ISZERO PUSH2 0x2646 JUMPI DUP4 DUP5 REVERT JUMPDEST DUP2 DUP7 ADD SWAP2 POP DUP7 PUSH1 0x1F DUP4 ADD SLT PUSH2 0x2659 JUMPI DUP4 DUP5 REVERT JUMPDEST DUP2 CALLDATALOAD DUP2 DUP2 GT ISZERO PUSH2 0x266B JUMPI PUSH2 0x266B PUSH2 0x2B8C JUMP JUMPDEST PUSH2 0x267D PUSH1 0x1F DUP3 ADD PUSH1 0x1F NOT AND DUP6 ADD PUSH2 0x2A89 JUMP JUMPDEST SWAP2 POP DUP1 DUP3 MSTORE DUP8 DUP5 DUP3 DUP6 ADD ADD GT ISZERO PUSH2 0x2692 JUMPI DUP5 DUP6 REVERT JUMPDEST DUP1 DUP5 DUP5 ADD DUP6 DUP5 ADD CALLDATACOPY DUP2 ADD SWAP1 SWAP3 ADD SWAP3 SWAP1 SWAP3 MSTORE SWAP2 SWAP5 SWAP2 SWAP4 POP SWAP1 SWAP2 POP POP JUMP JUMPDEST PUSH1 0x0 DUP1 PUSH1 0x0 DUP1 PUSH1 0x0 DUP1 PUSH1 0x0 PUSH1 0xE0 DUP9 DUP11 SUB SLT ISZERO PUSH2 0x26C8 JUMPI DUP3 DUP4 REVERT JUMPDEST DUP8 CALLDATALOAD PUSH2 0x26D3 DUP2 PUSH2 0x2BA2 JUMP JUMPDEST SWAP7 POP PUSH1 0x20 DUP9 ADD CALLDATALOAD PUSH2 0x26E3 DUP2 PUSH2 0x2BA2 JUMP JUMPDEST SWAP6 POP PUSH1 0x40 DUP9 ADD CALLDATALOAD SWAP5 POP PUSH1 0x60 DUP9 ADD CALLDATALOAD SWAP4 POP PUSH1 0x80 DUP9 ADD CALLDATALOAD SWAP3 POP PUSH1 0xA0 DUP9 ADD CALLDATALOAD PUSH2 0x2708 DUP2 PUSH2 0x2BA2 JUMP JUMPDEST SWAP2 POP PUSH1 0xC0 DUP9 ADD CALLDATALOAD PUSH2 0x2718 DUP2 PUSH2 0x2BA2 JUMP JUMPDEST DUP1 SWAP2 POP POP SWAP3 SWAP6 SWAP9 SWAP2 SWAP5 SWAP8 POP SWAP3 SWAP6 POP JUMP JUMPDEST PUSH1 0x0 DUP1 PUSH1 0x40 DUP4 DUP6 SUB SLT ISZERO PUSH2 0x273A JUMPI DUP2 DUP3 REVERT JUMPDEST DUP3 CALLDATALOAD PUSH2 0x2745 DUP2 PUSH2 0x2BA2 JUMP JUMPDEST SWAP5 PUSH1 0x20 SWAP4 SWAP1 SWAP4 ADD CALLDATALOAD SWAP4 POP POP POP JUMP JUMPDEST PUSH1 0x0 PUSH1 0x20 DUP3 DUP5 SUB SLT ISZERO PUSH2 0x2764 JUMPI DUP1 DUP2 REVERT JUMPDEST PUSH2 0xB64 DUP3 PUSH2 0x25E1 JUMP JUMPDEST PUSH1 0x0 PUSH1 0x20 DUP3 DUP5 SUB SLT ISZERO PUSH2 0x277E JUMPI DUP1 DUP2 REVERT JUMPDEST POP CALLDATALOAD SWAP2 SWAP1 POP JUMP JUMPDEST PUSH1 0x0 PUSH1 0x20 DUP3 DUP5 SUB SLT ISZERO PUSH2 0x2796 JUMPI DUP1 DUP2 REVERT JUMPDEST POP MLOAD SWAP2 SWAP1 POP JUMP JUMPDEST PUSH1 0x0 DUP1 PUSH1 0x40 DUP4 DUP6 SUB SLT ISZERO PUSH2 0x27AF JUMPI DUP2 DUP3 REVERT JUMPDEST DUP3 CALLDATALOAD SWAP2 POP PUSH1 0x20 DUP4 ADD CALLDATALOAD PUSH2 0x27C1 DUP2 PUSH2 0x2BA2 JUMP JUMPDEST DUP1 SWAP2 POP POP SWAP3 POP SWAP3 SWAP1 POP JUMP JUMPDEST PUSH1 0x0 DUP1 PUSH1 0x40 DUP4 DUP6 SUB SLT ISZERO PUSH2 0x27DE JUMPI DUP2 DUP3 REVERT JUMPDEST POP POP DUP1 CALLDATALOAD SWAP3 PUSH1 0x20 SWAP1 SWAP2 ADD CALLDATALOAD SWAP2 POP JUMP JUMPDEST PUSH1 0x0 DUP1 PUSH1 0x0 DUP1 PUSH1 0x0 DUP1 PUSH1 0x0 DUP1 PUSH1 0x0 DUP1 PUSH1 0x0 PUSH2 0x160 DUP13 DUP15 SUB SLT ISZERO PUSH2 0x280E JUMPI DUP5 DUP6 REVERT JUMPDEST DUP12 MLOAD SWAP11 POP PUSH1 0x20 DUP13 ADD MLOAD SWAP10 POP PUSH1 0x40 DUP13 ADD MLOAD SWAP9 POP PUSH1 0x60 DUP13 ADD MLOAD SWAP8 POP PUSH2 0x2833 PUSH1 0x80 DUP14 ADD PUSH2 0x25E1 JUMP JUMPDEST SWAP7 POP PUSH1 0xA0 DUP13 ADD MLOAD PUSH1 0x1 PUSH1 0x1 PUSH1 0x40 SHL SUB DUP2 GT ISZERO PUSH2 0x284D JUMPI DUP6 DUP7 REVERT JUMPDEST PUSH2 0x2859 DUP15 DUP3 DUP16 ADD PUSH2 0x2512 JUMP JUMPDEST SWAP7 POP POP PUSH1 0xC0 DUP13 ADD MLOAD PUSH1 0x1 PUSH1 0x1 PUSH1 0x40 SHL SUB DUP2 GT ISZERO PUSH2 0x2874 JUMPI DUP6 DUP7 REVERT JUMPDEST PUSH2 0x2880 DUP15 DUP3 DUP16 ADD PUSH2 0x2587 JUMP JUMPDEST SWAP6 POP POP PUSH1 0xE0 DUP13 ADD MLOAD PUSH1 0x1 PUSH1 0x1 PUSH1 0x40 SHL SUB DUP2 GT ISZERO PUSH2 0x289B JUMPI DUP5 DUP6 REVERT JUMPDEST PUSH2 0x28A7 DUP15 DUP3 DUP16 ADD PUSH2 0x2587 JUMP JUMPDEST SWAP5 POP POP PUSH2 0x100 DUP13 ADD MLOAD PUSH1 0x1 PUSH1 0x1 PUSH1 0x40 SHL SUB DUP2 GT ISZERO PUSH2 0x28C3 JUMPI DUP4 DUP5 REVERT JUMPDEST PUSH2 0x28CF DUP15 DUP3 DUP16 ADD PUSH2 0x2587 JUMP JUMPDEST SWAP4 POP POP PUSH2 0x120 DUP13 ADD MLOAD PUSH1 0x1 PUSH1 0x1 PUSH1 0x40 SHL SUB DUP2 GT ISZERO PUSH2 0x28EB JUMPI DUP3 DUP4 REVERT JUMPDEST PUSH2 0x28F7 DUP15 DUP3 DUP16 ADD PUSH2 0x2587 JUMP JUMPDEST SWAP3 POP POP PUSH2 0x140 DUP13 ADD MLOAD PUSH1 0x1 PUSH1 0x1 PUSH1 0x40 SHL SUB DUP2 GT ISZERO PUSH2 0x2913 JUMPI DUP2 DUP3 REVERT JUMPDEST PUSH2 0x291F DUP15 DUP3 DUP16 ADD PUSH2 0x2587 JUMP JUMPDEST SWAP2 POP POP SWAP3 SWAP6 SWAP9 SWAP12 POP SWAP3 SWAP6 SWAP9 SWAP12 SWAP1 SWAP4 SWAP7 SWAP10 POP JUMP JUMPDEST PUSH1 0x0 DUP3 MLOAD PUSH2 0x2944 DUP2 DUP5 PUSH1 0x20 DUP8 ADD PUSH2 0x2B4A JUMP JUMPDEST SWAP2 SWAP1 SWAP2 ADD SWAP3 SWAP2 POP POP JUMP JUMPDEST PUSH1 0x1 PUSH1 0x1 PUSH1 0xA0 SHL SUB SWAP2 SWAP1 SWAP2 AND DUP2 MSTORE PUSH1 0x20 ADD SWAP1 JUMP JUMPDEST PUSH1 0x1 PUSH1 0x1 PUSH1 0xA0 SHL SUB SWAP3 SWAP1 SWAP3 AND DUP3 MSTORE PUSH1 0x20 DUP3 ADD MSTORE PUSH1 0x40 ADD SWAP1 JUMP JUMPDEST PUSH1 0x0 PUSH1 0x20 DUP3 MSTORE DUP3 MLOAD DUP1 PUSH1 0x20 DUP5 ADD MSTORE PUSH2 0x299A DUP2 PUSH1 0x40 DUP6 ADD PUSH1 0x20 DUP8 ADD PUSH2 0x2B4A JUMP JUMPDEST PUSH1 0x1F ADD PUSH1 0x1F NOT AND SWAP2 SWAP1 SWAP2 ADD PUSH1 0x40 ADD SWAP3 SWAP2 POP POP JUMP JUMPDEST PUSH1 0x20 DUP1 DUP3 MSTORE PUSH1 0x14 SWAP1 DUP3 ADD MSTORE PUSH20 0x14185D5CD8589B194E881B9BDD081C185D5CD959 PUSH1 0x62 SHL PUSH1 0x40 DUP3 ADD MSTORE PUSH1 0x60 ADD SWAP1 JUMP JUMPDEST PUSH1 0x20 DUP1 DUP3 MSTORE PUSH1 0x10 SWAP1 DUP3 ADD MSTORE PUSH16 0x14185D5CD8589B194E881C185D5CD959 PUSH1 0x82 SHL PUSH1 0x40 DUP3 ADD MSTORE PUSH1 0x60 ADD SWAP1 JUMP JUMPDEST PUSH1 0x20 DUP1 DUP3 MSTORE PUSH1 0x2E SWAP1 DUP3 ADD MSTORE PUSH32 0x496E697469616C697A61626C653A20636F6E747261637420697320616C726561 PUSH1 0x40 DUP3 ADD MSTORE PUSH14 0x191E481A5B9A5D1A585B1A5E9959 PUSH1 0x92 SHL PUSH1 0x60 DUP3 ADD MSTORE PUSH1 0x80 ADD SWAP1 JUMP JUMPDEST PUSH1 0x20 DUP1 DUP3 MSTORE DUP2 DUP2 ADD MSTORE PUSH32 0x4F776E61626C653A2063616C6C6572206973206E6F7420746865206F776E6572 PUSH1 0x40 DUP3 ADD MSTORE PUSH1 0x60 ADD SWAP1 JUMP JUMPDEST PUSH1 0x40 MLOAD PUSH1 0x1F DUP3 ADD PUSH1 0x1F NOT AND DUP2 ADD PUSH1 0x1 PUSH1 0x1 PUSH1 0x40 SHL SUB DUP2 GT DUP3 DUP3 LT OR ISZERO PUSH2 0x2AB1 JUMPI PUSH2 0x2AB1 PUSH2 0x2B8C JUMP JUMPDEST PUSH1 0x40 MSTORE SWAP2 SWAP1 POP JUMP JUMPDEST PUSH1 0x0 PUSH1 0x1 PUSH1 0x1 PUSH1 0x40 SHL SUB DUP3 GT ISZERO PUSH2 0x2AD2 JUMPI PUSH2 0x2AD2 PUSH2 0x2B8C JUMP JUMPDEST POP PUSH1 0x20 SWAP1 DUP2 MUL ADD SWAP1 JUMP JUMPDEST PUSH1 0x0 DUP3 NOT DUP3 GT ISZERO PUSH2 0x2AEF JUMPI PUSH2 0x2AEF PUSH2 0x2B76 JUMP JUMPDEST POP ADD SWAP1 JUMP JUMPDEST PUSH1 0x0 DUP3 PUSH2 0x2B0F JUMPI PUSH4 0x4E487B71 PUSH1 0xE0 SHL DUP2 MSTORE PUSH1 0x12 PUSH1 0x4 MSTORE PUSH1 0x24 DUP2 REVERT JUMPDEST POP DIV SWAP1 JUMP JUMPDEST PUSH1 0x0 DUP2 PUSH1 0x0 NOT DIV DUP4 GT DUP3 ISZERO ISZERO AND ISZERO PUSH2 0x2B2E JUMPI PUSH2 0x2B2E PUSH2 0x2B76 JUMP JUMPDEST POP MUL SWAP1 JUMP JUMPDEST PUSH1 0x0 DUP3 DUP3 LT ISZERO PUSH2 0x2B45 JUMPI PUSH2 0x2B45 PUSH2 0x2B76 JUMP JUMPDEST POP SUB SWAP1 JUMP JUMPDEST PUSH1 0x0 JUMPDEST DUP4 DUP2 LT ISZERO PUSH2 0x2B65 JUMPI DUP2 DUP2 ADD MLOAD DUP4 DUP3 ADD MSTORE PUSH1 0x20 ADD PUSH2 0x2B4D JUMP JUMPDEST DUP4 DUP2 GT ISZERO PUSH2 0x1FD4 JUMPI POP POP PUSH1 0x0 SWAP2 ADD MSTORE JUMP JUMPDEST PUSH4 0x4E487B71 PUSH1 0xE0 SHL PUSH1 0x0 MSTORE PUSH1 0x11 PUSH1 0x4 MSTORE PUSH1 0x24 PUSH1 0x0 REVERT JUMPDEST PUSH4 0x4E487B71 PUSH1 0xE0 SHL PUSH1 0x0 MSTORE PUSH1 0x41 PUSH1 0x4 MSTORE PUSH1 0x24 PUSH1 0x0 REVERT JUMPDEST PUSH1 0x1 PUSH1 0x1 PUSH1 0xA0 SHL SUB DUP2 AND DUP2 EQ PUSH2 0xC04 JUMPI PUSH1 0x0 DUP1 REVERT INVALID COINBASE PUSH5 0x6472657373 GASPRICE KECCAK256 PUSH13 0x6F772D6C6576656C2064656C65 PUSH8 0x6174652063616C6C KECCAK256 PUSH7 0x61696C6564A264 PUSH10 0x70667358221220A13E52 SMOD PUSH2 0xC205 0x26 0xC8 0x4B CALLDATALOAD 0xAC 0x23 PUSH13 0x8FD08FF74766DDDC6652E554A8 CODESIZE 0xDA DUP13 PUSH9 0xF064736F6C63430008 MUL STOP CALLER "
		},
		"gasEstimates": {
			"creation": {
				"codeDepositCost": "2256800",
				"executionCost": "2412",
				"totalCost": "2259212"
			},
			"external": {
				"BONUS_MULTIPLIER()": "1117",
				"add(uint256)": "infinite",
				"allocPoint()": "1028",
				"bnbPerBlock()": "1095",
				"deposit(uint256,uint256)": "infinite",
				"emergencyWithdraw(uint256)": "infinite",
				"getMultiplier(uint256,uint256)": "infinite",
				"getPoolLength()": "1037",
				"initialize(address,address,uint256,uint256,uint256,address,address)": "infinite",
				"lostRound(address,uint256)": "infinite",
				"maxPredDeposit()": "1029",
				"operatorAddress()": "1151",
				"owner()": "1225",
				"pause()": "23942",
				"paused()": "1203",
				"pendingBNB(uint256,address)": "infinite",
				"poolInfo(uint256)": "5461",
				"poolLength()": "1016",
				"pred()": "1171",
				"prediction()": "1239",
				"renounceOwnership()": "23529",
				"setAllocPoint(uint256)": "21175",
				"setMaxPredDeposit(uint256)": "20345",
				"setOperator(address)": "23278",
				"setPoolAllocPoint(uint256)": "infinite",
				"startBlock()": "1051",
				"totalRewardDebt()": "1073",
				"transferOwnership(address)": "infinite",
				"unpause()": "23831",
				"updateMultiplier(uint256)": "21132",
				"updatePool(uint256)": "infinite",
				"upgradeTo(address)": "infinite",
				"upgradeToAndCall(address,bytes)": "infinite",
				"userInfo(uint256,address)": "2354",
				"wallet()": "1216",
				"withdraw(uint256,uint256)": "infinite",
				"wonRound(address,uint256)": "infinite"
			},
			"internal": {
				"_add(uint256,uint256)": "infinite",
				"_authorizeUpgrade(address)": "infinite",
				"safePredTransfer(address,uint256)": "infinite"
			}
		},
		"methodIdentifiers": {
			"BONUS_MULTIPLIER()": "8aa28550",
			"add(uint256)": "1003e2d2",
			"allocPoint()": "d3dd7eb7",
			"bnbPerBlock()": "50b48710",
			"deposit(uint256,uint256)": "e2bbb158",
			"emergencyWithdraw(uint256)": "5312ea8e",
			"getMultiplier(uint256,uint256)": "8dbb1e3a",
			"getPoolLength()": "b3944d52",
			"initialize(address,address,uint256,uint256,uint256,address,address)": "0729da0b",
			"lostRound(address,uint256)": "1c8d04e2",
			"maxPredDeposit()": "ae5241a0",
			"operatorAddress()": "127effb2",
			"owner()": "8da5cb5b",
			"pause()": "8456cb59",
			"paused()": "5c975abb",
			"pendingBNB(uint256,address)": "63a1fce2",
			"poolInfo(uint256)": "1526fe27",
			"poolLength()": "081e3eda",
			"pred()": "e5c9ad2e",
			"prediction()": "2372c916",
			"renounceOwnership()": "715018a6",
			"setAllocPoint(uint256)": "e0747c96",
			"setMaxPredDeposit(uint256)": "c26780b0",
			"setOperator(address)": "b3ab15fb",
			"setPoolAllocPoint(uint256)": "b7a3c110",
			"startBlock()": "48cd4cb1",
			"totalRewardDebt()": "83bb3877",
			"transferOwnership(address)": "f2fde38b",
			"unpause()": "3f4ba83a",
			"updateMultiplier(uint256)": "5ffe6146",
			"updatePool(uint256)": "51eb05a6",
			"upgradeTo(address)": "3659cfe6",
			"upgradeToAndCall(address,bytes)": "4f1ef286",
			"userInfo(uint256,address)": "93f1a40b",
			"wallet()": "521eb273",
			"withdraw(uint256,uint256)": "441a3e70",
			"wonRound(address,uint256)": "1521604e"
		}
	},
	"abi": [
		{
			"anonymous": false,
			"inputs": [
				{
					"indexed": false,
					"internalType": "address",
					"name": "previousAdmin",
					"type": "address"
				},
				{
					"indexed": false,
					"internalType": "address",
					"name": "newAdmin",
					"type": "address"
				}
			],
			"name": "AdminChanged",
			"type": "event"
		},
		{
			"anonymous": false,
			"inputs": [
				{
					"indexed": true,
					"internalType": "address",
					"name": "beacon",
					"type": "address"
				}
			],
			"name": "BeaconUpgraded",
			"type": "event"
		},
		{
			"anonymous": false,
			"inputs": [
				{
					"indexed": true,
					"internalType": "address",
					"name": "user",
					"type": "address"
				},
				{
					"indexed": true,
					"internalType": "uint256",
					"name": "pid",
					"type": "uint256"
				},
				{
					"indexed": false,
					"internalType": "uint256",
					"name": "amount",
					"type": "uint256"
				}
			],
			"name": "Deposit",
			"type": "event"
		},
		{
			"anonymous": false,
			"inputs": [
				{
					"indexed": true,
					"internalType": "address",
					"name": "user",
					"type": "address"
				},
				{
					"indexed": true,
					"internalType": "uint256",
					"name": "pid",
					"type": "uint256"
				},
				{
					"indexed": false,
					"internalType": "uint256",
					"name": "amount",
					"type": "uint256"
				}
			],
			"name": "EmergencyWithdraw",
			"type": "event"
		},
		{
			"anonymous": false,
			"inputs": [
				{
					"indexed": false,
					"internalType": "address",
					"name": "operator",
					"type": "address"
				}
			],
			"name": "NewOperatorAddress",
			"type": "event"
		},
		{
			"anonymous": false,
			"inputs": [
				{
					"indexed": true,
					"internalType": "address",
					"name": "previousOwner",
					"type": "address"
				},
				{
					"indexed": true,
					"internalType": "address",
					"name": "newOwner",
					"type": "address"
				}
			],
			"name": "OwnershipTransferred",
			"type": "event"
		},
		{
			"anonymous": false,
			"inputs": [
				{
					"indexed": false,
					"internalType": "address",
					"name": "account",
					"type": "address"
				}
			],
			"name": "Paused",
			"type": "event"
		},
		{
			"anonymous": false,
			"inputs": [
				{
					"indexed": false,
					"internalType": "address",
					"name": "account",
					"type": "address"
				}
			],
			"name": "Unpaused",
			"type": "event"
		},
		{
			"anonymous": false,
			"inputs": [
				{
					"indexed": true,
					"internalType": "address",
					"name": "implementation",
					"type": "address"
				}
			],
			"name": "Upgraded",
			"type": "event"
		},
		{
			"anonymous": false,
			"inputs": [
				{
					"indexed": true,
					"internalType": "address",
					"name": "user",
					"type": "address"
				},
				{
					"indexed": true,
					"internalType": "uint256",
					"name": "pid",
					"type": "uint256"
				},
				{
					"indexed": false,
					"internalType": "uint256",
					"name": "amount",
					"type": "uint256"
				}
			],
			"name": "Withdraw",
			"type": "event"
		},
		{
			"inputs": [],
			"name": "BONUS_MULTIPLIER",
			"outputs": [
				{
					"internalType": "uint256",
					"name": "",
					"type": "uint256"
				}
			],
			"stateMutability": "view",
			"type": "function"
		},
		{
			"inputs": [
				{
					"internalType": "uint256",
					"name": "_epoch",
					"type": "uint256"
				}
			],
			"name": "add",
			"outputs": [],
			"stateMutability": "nonpayable",
			"type": "function"
		},
		{
			"inputs": [],
			"name": "allocPoint",
			"outputs": [
				{
					"internalType": "uint256",
					"name": "",
					"type": "uint256"
				}
			],
			"stateMutability": "view",
			"type": "function"
		},
		{
			"inputs": [],
			"name": "bnbPerBlock",
			"outputs": [
				{
					"internalType": "uint256",
					"name": "",
					"type": "uint256"
				}
			],
			"stateMutability": "view",
			"type": "function"
		},
		{
			"inputs": [
				{
					"internalType": "uint256",
					"name": "_pid",
					"type": "uint256"
				},
				{
					"internalType": "uint256",
					"name": "_amount",
					"type": "uint256"
				}
			],
			"name": "deposit",
			"outputs": [],
			"stateMutability": "nonpayable",
			"type": "function"
		},
		{
			"inputs": [
				{
					"internalType": "uint256",
					"name": "_pid",
					"type": "uint256"
				}
			],
			"name": "emergencyWithdraw",
			"outputs": [],
			"stateMutability": "nonpayable",
			"type": "function"
		},
		{
			"inputs": [
				{
					"internalType": "uint256",
					"name": "_from",
					"type": "uint256"
				},
				{
					"internalType": "uint256",
					"name": "_to",
					"type": "uint256"
				}
			],
			"name": "getMultiplier",
			"outputs": [
				{
					"internalType": "uint256",
					"name": "",
					"type": "uint256"
				}
			],
			"stateMutability": "view",
			"type": "function"
		},
		{
			"inputs": [],
			"name": "getPoolLength",
			"outputs": [
				{
					"internalType": "uint256",
					"name": "",
					"type": "uint256"
				}
			],
			"stateMutability": "view",
			"type": "function"
		},
		{
			"inputs": [
				{
					"internalType": "address",
					"name": "_operator",
					"type": "address"
				},
				{
					"internalType": "contract IBEP20",
					"name": "_pred",
					"type": "address"
				},
				{
					"internalType": "uint256",
					"name": "_bnbPerBlock",
					"type": "uint256"
				},
				{
					"internalType": "uint256",
					"name": "_startBlock",
					"type": "uint256"
				},
				{
					"internalType": "uint256",
					"name": "_maxPredDeposit",
					"type": "uint256"
				},
				{
					"internalType": "contract PredictionWallet",
					"name": "_wallet",
					"type": "address"
				},
				{
					"internalType": "contract IPrediction",
					"name": "_prediction",
					"type": "address"
				}
			],
			"name": "initialize",
			"outputs": [],
			"stateMutability": "nonpayable",
			"type": "function"
		},
		{
			"inputs": [
				{
					"internalType": "address",
					"name": "preder",
					"type": "address"
				},
				{
					"internalType": "uint256",
					"name": "round",
					"type": "uint256"
				}
			],
			"name": "lostRound",
			"outputs": [
				{
					"internalType": "bool",
					"name": "",
					"type": "bool"
				}
			],
			"stateMutability": "view",
			"type": "function"
		},
		{
			"inputs": [],
			"name": "maxPredDeposit",
			"outputs": [
				{
					"internalType": "uint256",
					"name": "",
					"type": "uint256"
				}
			],
			"stateMutability": "view",
			"type": "function"
		},
		{
			"inputs": [],
			"name": "operatorAddress",
			"outputs": [
				{
					"internalType": "address",
					"name": "",
					"type": "address"
				}
			],
			"stateMutability": "view",
			"type": "function"
		},
		{
			"inputs": [],
			"name": "owner",
			"outputs": [
				{
					"internalType": "address",
					"name": "",
					"type": "address"
				}
			],
			"stateMutability": "view",
			"type": "function"
		},
		{
			"inputs": [],
			"name": "pause",
			"outputs": [],
			"stateMutability": "nonpayable",
			"type": "function"
		},
		{
			"inputs": [],
			"name": "paused",
			"outputs": [
				{
					"internalType": "bool",
					"name": "",
					"type": "bool"
				}
			],
			"stateMutability": "view",
			"type": "function"
		},
		{
			"inputs": [
				{
					"internalType": "uint256",
					"name": "_pid",
					"type": "uint256"
				},
				{
					"internalType": "address",
					"name": "_user",
					"type": "address"
				}
			],
			"name": "pendingBNB",
			"outputs": [
				{
					"internalType": "uint256",
					"name": "",
					"type": "uint256"
				}
			],
			"stateMutability": "view",
			"type": "function"
		},
		{
			"inputs": [
				{
					"internalType": "uint256",
					"name": "",
					"type": "uint256"
				}
			],
			"name": "poolInfo",
			"outputs": [
				{
					"internalType": "uint256",
					"name": "allocPoint",
					"type": "uint256"
				},
				{
					"internalType": "uint256",
					"name": "lastRewardBlock",
					"type": "uint256"
				},
				{
					"internalType": "uint256",
					"name": "accBNBPerShare",
					"type": "uint256"
				},
				{
					"internalType": "uint256",
					"name": "epoch",
					"type": "uint256"
				},
				{
					"internalType": "uint256",
					"name": "amount",
					"type": "uint256"
				}
			],
			"stateMutability": "view",
			"type": "function"
		},
		{
			"inputs": [],
			"name": "poolLength",
			"outputs": [
				{
					"internalType": "uint256",
					"name": "",
					"type": "uint256"
				}
			],
			"stateMutability": "view",
			"type": "function"
		},
		{
			"inputs": [],
			"name": "pred",
			"outputs": [
				{
					"internalType": "contract IBEP20",
					"name": "",
					"type": "address"
				}
			],
			"stateMutability": "view",
			"type": "function"
		},
		{
			"inputs": [],
			"name": "prediction",
			"outputs": [
				{
					"internalType": "contract IPrediction",
					"name": "",
					"type": "address"
				}
			],
			"stateMutability": "view",
			"type": "function"
		},
		{
			"inputs": [],
			"name": "renounceOwnership",
			"outputs": [],
			"stateMutability": "nonpayable",
			"type": "function"
		},
		{
			"inputs": [
				{
					"internalType": "uint256",
					"name": "_allocPoint",
					"type": "uint256"
				}
			],
			"name": "setAllocPoint",
			"outputs": [],
			"stateMutability": "nonpayable",
			"type": "function"
		},
		{
			"inputs": [
				{
					"internalType": "uint256",
					"name": "_maxPredDeposit",
					"type": "uint256"
				}
			],
			"name": "setMaxPredDeposit",
			"outputs": [],
			"stateMutability": "nonpayable",
			"type": "function"
		},
		{
			"inputs": [
				{
					"internalType": "address",
					"name": "_operatorAddress",
					"type": "address"
				}
			],
			"name": "setOperator",
			"outputs": [],
			"stateMutability": "nonpayable",
			"type": "function"
		},
		{
			"inputs": [
				{
					"internalType": "uint256",
					"name": "_allocPoint",
					"type": "uint256"
				}
			],
			"name": "setPoolAllocPoint",
			"outputs": [],
			"stateMutability": "nonpayable",
			"type": "function"
		},
		{
			"inputs": [],
			"name": "startBlock",
			"outputs": [
				{
					"internalType": "uint256",
					"name": "",
					"type": "uint256"
				}
			],
			"stateMutability": "view",
			"type": "function"
		},
		{
			"inputs": [],
			"name": "totalRewardDebt",
			"outputs": [
				{
					"internalType": "uint256",
					"name": "",
					"type": "uint256"
				}
			],
			"stateMutability": "view",
			"type": "function"
		},
		{
			"inputs": [
				{
					"internalType": "address",
					"name": "newOwner",
					"type": "address"
				}
			],
			"name": "transferOwnership",
			"outputs": [],
			"stateMutability": "nonpayable",
			"type": "function"
		},
		{
			"inputs": [],
			"name": "unpause",
			"outputs": [],
			"stateMutability": "nonpayable",
			"type": "function"
		},
		{
			"inputs": [
				{
					"internalType": "uint256",
					"name": "multiplierNumber",
					"type": "uint256"
				}
			],
			"name": "updateMultiplier",
			"outputs": [],
			"stateMutability": "nonpayable",
			"type": "function"
		},
		{
			"inputs": [
				{
					"internalType": "uint256",
					"name": "_pid",
					"type": "uint256"
				}
			],
			"name": "updatePool",
			"outputs": [],
			"stateMutability": "nonpayable",
			"type": "function"
		},
		{
			"inputs": [
				{
					"internalType": "address",
					"name": "newImplementation",
					"type": "address"
				}
			],
			"name": "upgradeTo",
			"outputs": [],
			"stateMutability": "nonpayable",
			"type": "function"
		},
		{
			"inputs": [
				{
					"internalType": "address",
					"name": "newImplementation",
					"type": "address"
				},
				{
					"internalType": "bytes",
					"name": "data",
					"type": "bytes"
				}
			],
			"name": "upgradeToAndCall",
			"outputs": [],
			"stateMutability": "payable",
			"type": "function"
		},
		{
			"inputs": [
				{
					"internalType": "uint256",
					"name": "",
					"type": "uint256"
				},
				{
					"internalType": "address",
					"name": "",
					"type": "address"
				}
			],
			"name": "userInfo",
			"outputs": [
				{
					"internalType": "uint256",
					"name": "amount",
					"type": "uint256"
				},
				{
					"internalType": "uint256",
					"name": "rewardDebt",
					"type": "uint256"
				}
			],
			"stateMutability": "view",
			"type": "function"
		},
		{
			"inputs": [],
			"name": "wallet",
			"outputs": [
				{
					"internalType": "contract PredictionWallet",
					"name": "",
					"type": "address"
				}
			],
			"stateMutability": "view",
			"type": "function"
		},
		{
			"inputs": [
				{
					"internalType": "uint256",
					"name": "_pid",
					"type": "uint256"
				},
				{
					"internalType": "uint256",
					"name": "_amount",
					"type": "uint256"
				}
			],
			"name": "withdraw",
			"outputs": [],
			"stateMutability": "nonpayable",
			"type": "function"
		},
		{
			"inputs": [
				{
					"internalType": "address",
					"name": "preder",
					"type": "address"
				},
				{
					"internalType": "uint256",
					"name": "round",
					"type": "uint256"
				}
			],
			"name": "wonRound",
			"outputs": [
				{
					"internalType": "bool",
					"name": "",
					"type": "bool"
				}
			],
			"stateMutability": "view",
			"type": "function"
		}
	]
}