{
	"data": {
		"bytecode": {
			"linkReferences": {},
			"object": "608060405234801561001057600080fd5b50612972806100206000396000f3fe6080604052600436106101a35760003560e01c8063715018a6116100e2578063b3944d5211610085578063b3944d52146101a8578063bf9fe138146104b4578063c26780b0146104d4578063d3dd7eb7146104f5578063e0747c961461050c578063e2bbb1581461052c578063e5c9ad2e1461054c578063f2fde38b1461056c576101a3565b8063715018a6146103bc57806383bb3877146103d15780638456cb59146103e85780638aa28550146103fd5780638da5cb5b146104135780638dbb1e3a1461042857806393f1a40b14610448578063ae5241a01461049d576101a3565b80634f1ef2861161014a5780634f1ef286146102d057806350b48710146102e357806351eb05a6146102f9578063521eb273146103195780635312ea8e146103395780635c975abb146103595780635ffe61461461037c57806363a1fce21461039c576101a3565b8063081e3eda146101a85780631003e2d2146101cd5780631526fe27146101ef5780632372c916146102375780633659cfe6146102645780633f4ba83a14610284578063441a3e701461029957806348cd4cb1146102b9575b600080fd5b3480156101b457600080fd5b50610101545b6040519081526020015b60405180910390f35b3480156101d957600080fd5b506101ed6101e83660046124cb565b61058c565b005b3480156101fb57600080fd5b5061020f61020a3660046124cb565b610936565b604080519586526020860194909452928401919091526060830152608082015260a0016101c4565b34801561024357600080fd5b5060fc54610257906001600160a01b031681565b6040516101c491906126ac565b34801561027057600080fd5b506101ed61027f36600461238e565b610978565b34801561029057600080fd5b506101ed61099f565b3480156102a557600080fd5b506101ed6102b436600461252a565b6109d8565b3480156102c557600080fd5b506101ba6101045481565b6101ed6102de3660046123aa565b610c04565b3480156102ef57600080fd5b506101ba60fd5481565b34801561030557600080fd5b506101ed6103143660046124cb565b610c1d565b34801561032557600080fd5b5060ff54610257906001600160a01b031681565b34801561034557600080fd5b506101ed6103543660046124cb565b610db5565b34801561036557600080fd5b5060335460ff1660405190151581526020016101c4565b34801561038857600080fd5b506101ed6103973660046124cb565b610ec8565b3480156103a857600080fd5b506101ba6103b73660046124fb565b610efc565b3480156103c857600080fd5b506101ed6110bb565b3480156103dd57600080fd5b506101ba6101055481565b3480156103f457600080fd5b506101ed6110f4565b34801561040957600080fd5b506101ba60fe5481565b34801561041f57600080fd5b5061025761112b565b34801561043457600080fd5b506101ba61044336600461252a565b61113a565b34801561045457600080fd5b506104886104633660046124fb565b6101026020908152600092835260408084209091529082529020805460019091015482565b604080519283526020830191909152016101c4565b3480156104a957600080fd5b506101ba6101005481565b3480156104c057600080fd5b506101ed6104cf366004612465565b611155565b3480156104e057600080fd5b506101ed6104ef3660046124cb565b61010055565b34801561050157600080fd5b506101ba6101035481565b34801561051857600080fd5b506101ed6105273660046124cb565b611233565b34801561053857600080fd5b506101ed61054736600461252a565b6112bb565b34801561055857600080fd5b5060fb54610257906001600160a01b031681565b34801561057857600080fd5b506101ed61058736600461238e565b61172f565b3361059561112b565b6001600160a01b0316146105c45760405162461bcd60e51b81526004016105bb906127b2565b60405180910390fd5b60fc5460405163023c4c9f60e61b8152600481018390526000916001600160a01b031690638f1327c09060240160006040518083038186803b15801561060957600080fd5b505afa15801561061d573d6000803e3d6000fd5b505050506040513d6000823e601f3d908101601f19168201604052610645919081019061254b565b505050505050945050505050806106af5760405162461bcd60e51b815260206004820152602860248201527f526f756e6420776173206e6f74207375636365737366756c206f72206e6f7420604482015267636f6d706c65746560c01b60648201526084016105bb565b60fc5460408051630ecce30160e31b815290516000926001600160a01b031691637667180891600480830192602092919082900301818787803b1580156106f557600080fd5b505af1158015610709573d6000803e3d6000fd5b505050506040513d601f19601f8201168201806040525081019061072d91906124e3565b905082811461081d5760fc5460405163023c4c9f60e61b8152600481018390526000916001600160a01b031690638f1327c09060240160006040518083038186803b15801561077b57600080fd5b505afa15801561078f573d6000803e3d6000fd5b505050506040513d6000823e601f3d908101601f191682016040526107b7919081019061254b565b505050505050945050505050801561081b5760405162461bcd60e51b815260206004820152602160248201527f43757272656e7420526f756e6420697320616c726561647920636f6d706c65746044820152606560f81b60648201526084016105bb565b505b6101015415610924576101015460009061083990600190612891565b905083610101828154811061085e57634e487b7160e01b600052603260045260246000fd5b906000526020600020906005020160030154106108d55760405162461bcd60e51b815260206004820152602f60248201527f4e65772065706f63682063616e6e6f74206265206c657373206f72206571756160448201526e0d840e8de40e0c2e6e840cae0dec6d608b1b60648201526084016105bb565b6108de81610c1d565b6101018054600091906108f390600190612891565b8154811061091157634e487b7160e01b600052603260045260246000fd5b6000918252602090912060059091020155505b61093161010354846117cc565b505050565b610101818154811061094757600080fd5b6000918252602090912060059091020180546001820154600283015460038401546004909401549294509092909185565b61098181611911565b61099c81604051806020016040528060008152506000611940565b50565b336109a861112b565b6001600160a01b0316146109ce5760405162461bcd60e51b81526004016105bb906127b2565b6109d6611a87565b565b60335460ff16156109fb5760405162461bcd60e51b81526004016105bb9061273a565b60006101018381548110610a1f57634e487b7160e01b600052603260045260246000fd5b60009182526020808320868452610102825260408085203386529092529220805460059092029092019250831115610a8e5760405162461bcd60e51b81526020600482015260126024820152711dda5d1a191c985dce881b9bdd0819dbdbd960721b60448201526064016105bb565b610a9784610c1d565b6000610ad88260010154610ad268327cb2734119d3b7a9601e1b610acc87600201548760000154611aed90919063ffffffff16565b90611af9565b90611b05565b90508015610aea57610aea3382611b11565b8315610b29578154610afc9085611b05565b82556004830154610b0d9085611b05565b600484015560fb54610b29906001600160a01b03163386611ba9565b60028301548254610b4b9168327cb2734119d3b7a9601e1b91610acc91611aed565b8260010181905550826101018681548110610b7657634e487b7160e01b600052603260045260246000fd5b9060005260206000209060050201600082015481600001556001820154816001015560028201548160020155600382015481600301556004820154816004015590505084336001600160a01b03167ff279e6a1f5e320cca91135676d9cb6e44ca8a08c0b88342bcdb1144f6511b56886604051610bf591815260200190565b60405180910390a35050505050565b610c0d82611911565b610c1982826001611940565b5050565b60006101018281548110610c4157634e487b7160e01b600052603260045260246000fd5b9060005260206000209060050201905080600101544311610c62575061099c565b60fb546040516370a0823160e01b81526000916001600160a01b0316906370a0823190610c939030906004016126ac565b60206040518083038186803b158015610cab57600080fd5b505afa158015610cbf573d6000803e3d6000fd5b505050506040513d601f19601f82011682018060405250810190610ce391906124e3565b905080610cf757504360019091015561099c565b6000610d0783600101544361113a565b90506000610d3561010354610acc8660000154610d2f60fd5487611aed90919063ffffffff16565b90611aed565b6101055460ff54919250600091610d58916001600160a01b039091163190611b05565b9050808210610d65578091505b610d8d610d8285610acc8568327cb2734119d3b7a9601e1b611aed565b600287015490611bff565b600286015561010554610da09083611bff565b61010555505043600190930192909255505050565b60335460ff16610dd75760405162461bcd60e51b81526004016105bb9061270c565b60006101018281548110610dfb57634e487b7160e01b600052603260045260246000fd5b60009182526020808320858452610102825260408085203386529092529083208054848255600182018590556002600590940290920192830154929450929091610e5e908290610ad29068327cb2734119d3b7a9601e1b90610acc908790611aed565b9050610105548111610e7d5761010554610e789082611b05565b610105555b60fb54610e94906001600160a01b03163384611ba9565b604051828152859033907fbb757047c2b5f3974fe26b7c10f732e7bce710b0952a71082702781e62ae059590602001610bf5565b33610ed161112b565b6001600160a01b031614610ef75760405162461bcd60e51b81526004016105bb906127b2565b60fe55565b6000806101018481548110610f2157634e487b7160e01b600052603260045260246000fd5b60009182526020808320878452610102825260408085206001600160a01b03808a1687529352808520600260059095029092019384015460fb5491516370a0823160e01b815294965091949193919216906370a0823190610f869030906004016126ac565b60206040518083038186803b158015610f9e57600080fd5b505afa158015610fb2573d6000803e3d6000fd5b505050506040513d601f19601f82011682018060405250810190610fd691906124e3565b9050836001015443118015610fea57508015155b15611081576000610fff85600101544361113a565b9050600061102761010354610acc8860000154610d2f60fd5487611aed90919063ffffffff16565b6101055460ff5491925060009161104a916001600160a01b039091163190611b05565b9050808210611057578091505b61107b61107485610acc8568327cb2734119d3b7a9601e1b611aed565b8690611bff565b94505050505b6110b08360010154610ad268327cb2734119d3b7a9601e1b610acc868860000154611aed90919063ffffffff16565b979650505050505050565b336110c461112b565b6001600160a01b0316146110ea5760405162461bcd60e51b81526004016105bb906127b2565b6109d66000611c0b565b336110fd61112b565b6001600160a01b0316146111235760405162461bcd60e51b81526004016105bb906127b2565b6109d6611c5d565b60c9546001600160a01b031690565b60fe5460009061114e90610d2f8486611b05565b9392505050565b600054610100900460ff168061116e575060005460ff16155b61118a5760405162461bcd60e51b81526004016105bb90612764565b600054610100900460ff161580156111b5576000805460ff1961ff0019909116610100171660011790555b6111bd611cb5565b60fb80546001600160a01b03808a166001600160a01b03199283161790925560fd88905561010487905560ff805486841690831617905560fc805492851692909116919091179055610100849055620f424060fe5560c861010355801561122a576000805461ff00191690555b50505050505050565b3361123c61112b565b6001600160a01b0316146112625760405162461bcd60e51b81526004016105bb906127b2565b6101015460009061127590600190612891565b905061128081610c1d565b8161010182815481106112a357634e487b7160e01b600052603260045260246000fd5b60009182526020909120600590910201555061010355565b60335460ff16156112de5760405162461bcd60e51b81526004016105bb9061273a565b6000610101838154811061130257634e487b7160e01b600052603260045260246000fd5b60009182526020918290206040805160a081018252600590930290910180548352600181015493830193909352600283015482820152600383015460608301819052600493840154608084015260fc549151630e46827160e11b81529294506001600160a01b0390911692631c8d04e2926113819233929091016126c0565b60206040518083038186803b15801561139957600080fd5b505afa1580156113ad573d6000803e3d6000fd5b505050506040513d601f19601f820116820180604052508101906113d1919061244b565b6114285760405162461bcd60e51b815260206004820152602260248201527f446964206e6f74206c6f736520746869732050726564696374696f6e20726f756044820152611b9960f21b60648201526084016105bb565b600083815261010260209081526040808320338452909152902061144b84610c1d565b80541561149b5760006114878260010154610ad268327cb2734119d3b7a9601e1b610acc87604001518760000154611aed90919063ffffffff16565b90508015611499576114993382611b11565b505b82156116685760fb546040516370a0823160e01b81526000916001600160a01b0316906370a08231906114d29030906004016126ac565b60206040518083038186803b1580156114ea57600080fd5b505afa1580156114fe573d6000803e3d6000fd5b505050506040513d601f19601f8201168201806040525081019061152291906124e3565b60fb5490915061153d906001600160a01b0316333087611d39565b60fb546040516370a0823160e01b81526115cd916115c59184916001600160a01b0316906370a08231906115759030906004016126ac565b60206040518083038186803b15801561158d57600080fd5b505afa1580156115a1573d6000803e3d6000fd5b505050506040513d601f19601f82011682018060405250810190610ad291906124e3565b835490611bff565b825560fb546040516370a0823160e01b8152611612916116079184916001600160a01b0316906370a08231906115759030906004016126ac565b608085015190611bff565b608084015261010054825411156116665760405162461bcd60e51b815260206004820152601860248201527713585e08141491510811195c1bdcda5d0814995858da195960421b60448201526064016105bb565b505b6040820151815461168a9168327cb2734119d3b7a9601e1b91610acc91611aed565b81600101819055508161010185815481106116b557634e487b7160e01b600052603260045260246000fd5b600091825260209182902083516005909202019081558282015160018201556040808401516002830155606084015160038301556080909301516004909101559051848152859133917f90890809c654f11d6e72a28fa60149770a0d11ec6c92319d6ceb2bb0a4ea1a15910160405180910390a350505050565b3361173861112b565b6001600160a01b03161461175e5760405162461bcd60e51b81526004016105bb906127b2565b6001600160a01b0381166117c35760405162461bcd60e51b815260206004820152602660248201527f4f776e61626c653a206e6577206f776e657220697320746865207a65726f206160448201526564647265737360d01b60648201526084016105bb565b61099c81611c0b565b336117d561112b565b6001600160a01b0316146117fb5760405162461bcd60e51b81526004016105bb906127b2565b60006101045443116118105761010454611812565b435b6040805160a08101825294855260208501918252600090850181815260608601948552608086018281526101018054600181018255935295517f109ea3cebb188b9c1b9fc5bb3920be60dfdc8699098dff92f3d80daaca74768960059093029283015591517f109ea3cebb188b9c1b9fc5bb3920be60dfdc8699098dff92f3d80daaca74768a82015590517f109ea3cebb188b9c1b9fc5bb3920be60dfdc8699098dff92f3d80daaca74768b82015591517f109ea3cebb188b9c1b9fc5bb3920be60dfdc8699098dff92f3d80daaca74768c8301555090517f109ea3cebb188b9c1b9fc5bb3920be60dfdc8699098dff92f3d80daaca74768d90910155565b3361191a61112b565b6001600160a01b03161461099c5760405162461bcd60e51b81526004016105bb906127b2565b600061194a611d77565b905061195584611da5565b6000835111806119625750815b15611973576119718484611e51565b505b7f4910fdfa16fed3260ed0e7147f7cc6da11a60208b5b9406d12a635614ffd9143805460ff16611a8057805460ff191660011781556040516119ee9086906119bf9085906024016126ac565b60408051601f198184030181529190526020810180516001600160e01b0316631b2ce7f360e11b179052611e51565b50805460ff191681556119ff611d77565b6001600160a01b0316826001600160a01b031614611a775760405162461bcd60e51b815260206004820152602f60248201527f45524331393637557067726164653a207570677261646520627265616b73206660448201526e75727468657220757067726164657360881b60648201526084016105bb565b611a8085611f43565b5050505050565b60335460ff16611aa95760405162461bcd60e51b81526004016105bb9061270c565b6033805460ff191690557f5db9ee0a495bf2e6ff9c91a7834c1ba4fdd244a5e8aa4e537bd38aeae4b073aa335b604051611ae391906126ac565b60405180910390a1565b600061114e8284612872565b600061114e8284612852565b600061114e8284612891565b60ff54604051635944b01760e01b8152611ba1916001600160a01b031690635944b01790611b4590869086906004016126c0565b602060405180830381600087803b158015611b5f57600080fd5b505af1158015611b73573d6000803e3d6000fd5b505050506040513d601f19601f82011682018060405250810190611b9791906124e3565b6101055490611b05565b610105555050565b6109318363a9059cbb60e01b8484604051602401611bc89291906126c0565b60408051601f198184030181529190526020810180516001600160e01b03166001600160e01b031990931692909217909152611f83565b600061114e828461283a565b60c980546001600160a01b038381166001600160a01b0319831681179093556040519116919082907f8be0079c531659141344cd1fd0a4f28419497f9722a3daafe3b4186f6b6457e090600090a35050565b60335460ff1615611c805760405162461bcd60e51b81526004016105bb9061273a565b6033805460ff191660011790557f62e78cea01bee320cd4e420270b5ea74000d11b0c9f74754ebdbfc544b05a258611ad63390565b600054610100900460ff1680611cce575060005460ff16155b611cea5760405162461bcd60e51b81526004016105bb90612764565b600054610100900460ff16158015611d15576000805460ff1961ff0019909116610100171660011790555b611d1d612055565b611d256120c8565b801561099c576000805461ff001916905550565b6040516001600160a01b0380851660248301528316604482015260648101829052611d719085906323b872dd60e01b90608401611bc8565b50505050565b7f360894a13ba1a3210667c828492db98dca3e2076cc3735a920a3ca505d382bbc546001600160a01b031690565b611dae81612131565b611e105760405162461bcd60e51b815260206004820152602d60248201527f455243313936373a206e657720696d706c656d656e746174696f6e206973206e60448201526c1bdd08184818dbdb9d1c9858dd609a1b60648201526084016105bb565b7f360894a13ba1a3210667c828492db98dca3e2076cc3735a920a3ca505d382bbc80546001600160a01b0319166001600160a01b0392909216919091179055565b6060611e5c83612131565b611eb75760405162461bcd60e51b815260206004820152602660248201527f416464726573733a2064656c65676174652063616c6c20746f206e6f6e2d636f6044820152651b9d1c9858dd60d21b60648201526084016105bb565b600080846001600160a01b031684604051611ed29190612690565b600060405180830381855af49150503d8060008114611f0d576040519150601f19603f3d011682016040523d82523d6000602084013e611f12565b606091505b5091509150611f3a82826040518060600160405280602781526020016129166027913961213b565b95945050505050565b611f4c81611da5565b6040516001600160a01b038216907fbc7cd75a20ee27fd9adebab32041f755214dbc6bffa90cc0225b39da2e5c2d3b90600090a250565b6000611fd8826040518060400160405280602081526020017f5361666545524332303a206c6f772d6c6576656c2063616c6c206661696c6564815250856001600160a01b03166121749092919063ffffffff16565b8051909150156109315780806020019051810190611ff6919061244b565b6109315760405162461bcd60e51b815260206004820152602a60248201527f5361666545524332303a204552433230206f7065726174696f6e20646964206e6044820152691bdd081cdd58d8d9595960b21b60648201526084016105bb565b600054610100900460ff168061206e575060005460ff16155b61208a5760405162461bcd60e51b81526004016105bb90612764565b600054610100900460ff16158015611d25576000805460ff1961ff001990911661010017166001179055801561099c576000805461ff001916905550565b600054610100900460ff16806120e1575060005460ff16155b6120fd5760405162461bcd60e51b81526004016105bb90612764565b600054610100900460ff16158015612128576000805460ff1961ff0019909116610100171660011790555b611d2533611c0b565b803b15155b919050565b6060831561214a57508161114e565b82511561215a5782518084602001fd5b8160405162461bcd60e51b81526004016105bb91906126d9565b6060612183848460008561218b565b949350505050565b6060824710156121ec5760405162461bcd60e51b815260206004820152602660248201527f416464726573733a20696e73756666696369656e742062616c616e636520666f6044820152651c8818d85b1b60d21b60648201526084016105bb565b6121f585612131565b6122415760405162461bcd60e51b815260206004820152601d60248201527f416464726573733a2063616c6c20746f206e6f6e2d636f6e747261637400000060448201526064016105bb565b600080866001600160a01b0316858760405161225d9190612690565b60006040518083038185875af1925050503d806000811461229a576040519150601f19603f3d011682016040523d82523d6000602084013e61229f565b606091505b50915091506110b082828661213b565b600082601f8301126122bf578081fd5b815160206122d46122cf83612817565b6127e7565b82815281810190858301838502870184018810156122f0578586fd5b855b8581101561231757815161230581612900565b845292840192908401906001016122f2565b5090979650505050505050565b600082601f830112612334578081fd5b815160206123446122cf83612817565b8281528181019085830183850287018401881015612360578586fd5b855b8581101561231757815184529284019290840190600101612362565b8051801515811461213657600080fd5b60006020828403121561239f578081fd5b813561114e81612900565b600080604083850312156123bc578081fd5b82356123c781612900565b91506020838101356001600160401b03808211156123e3578384fd5b818601915086601f8301126123f6578384fd5b813581811115612408576124086128ea565b61241a601f8201601f191685016127e7565b9150808252878482850101111561242f578485fd5b8084840185840137810190920192909252919491935090915050565b60006020828403121561245c578081fd5b61114e8261237e565b60008060008060008060c0878903121561247d578182fd5b863561248881612900565b955060208701359450604087013593506060870135925060808701356124ad81612900565b915060a08701356124bd81612900565b809150509295509295509295565b6000602082840312156124dc578081fd5b5035919050565b6000602082840312156124f4578081fd5b5051919050565b6000806040838503121561250d578182fd5b82359150602083013561251f81612900565b809150509250929050565b6000806040838503121561253c578182fd5b50508035926020909101359150565b60008060008060008060008060008060006101608c8e03121561256c578889fd5b8b519a5060208c0151995060408c0151985060608c0151975061259160808d0161237e565b965060a08c01516001600160401b038111156125ab578586fd5b6125b78e828f016122af565b96505060c08c01516001600160401b038111156125d2578586fd5b6125de8e828f01612324565b95505060e08c01516001600160401b038111156125f9578485fd5b6126058e828f01612324565b9450506101008c01516001600160401b03811115612621578384fd5b61262d8e828f01612324565b9350506101208c01516001600160401b03811115612649578283fd5b6126558e828f01612324565b9250506101408c01516001600160401b03811115612671578182fd5b61267d8e828f01612324565b9150509295989b509295989b9093969950565b600082516126a28184602087016128a8565b9190910192915050565b6001600160a01b0391909116815260200190565b6001600160a01b03929092168252602082015260400190565b60006020825282518060208401526126f88160408501602087016128a8565b601f01601f19169190910160400192915050565b60208082526014908201527314185d5cd8589b194e881b9bdd081c185d5cd95960621b604082015260600190565b60208082526010908201526f14185d5cd8589b194e881c185d5cd95960821b604082015260600190565b6020808252602e908201527f496e697469616c697a61626c653a20636f6e747261637420697320616c72656160408201526d191e481a5b9a5d1a585b1a5e995960921b606082015260800190565b6020808252818101527f4f776e61626c653a2063616c6c6572206973206e6f7420746865206f776e6572604082015260600190565b604051601f8201601f191681016001600160401b038111828210171561280f5761280f6128ea565b604052919050565b60006001600160401b03821115612830576128306128ea565b5060209081020190565b6000821982111561284d5761284d6128d4565b500190565b60008261286d57634e487b7160e01b81526012600452602481fd5b500490565b600081600019048311821515161561288c5761288c6128d4565b500290565b6000828210156128a3576128a36128d4565b500390565b60005b838110156128c35781810151838201526020016128ab565b83811115611d715750506000910152565b634e487b7160e01b600052601160045260246000fd5b634e487b7160e01b600052604160045260246000fd5b6001600160a01b038116811461099c57600080fdfe416464726573733a206c6f772d6c6576656c2064656c65676174652063616c6c206661696c6564a26469706673582212203ad0ed3b7dab9801e31d6c6c18f625044d6614f485e5fc10e4d250f32e4dcd6464736f6c63430008020033",
			"opcodes": "PUSH1 0x80 PUSH1 0x40 MSTORE CALLVALUE DUP1 ISZERO PUSH2 0x10 JUMPI PUSH1 0x0 DUP1 REVERT JUMPDEST POP PUSH2 0x2972 DUP1 PUSH2 0x20 PUSH1 0x0 CODECOPY PUSH1 0x0 RETURN INVALID PUSH1 0x80 PUSH1 0x40 MSTORE PUSH1 0x4 CALLDATASIZE LT PUSH2 0x1A3 JUMPI PUSH1 0x0 CALLDATALOAD PUSH1 0xE0 SHR DUP1 PUSH4 0x715018A6 GT PUSH2 0xE2 JUMPI DUP1 PUSH4 0xB3944D52 GT PUSH2 0x85 JUMPI DUP1 PUSH4 0xB3944D52 EQ PUSH2 0x1A8 JUMPI DUP1 PUSH4 0xBF9FE138 EQ PUSH2 0x4B4 JUMPI DUP1 PUSH4 0xC26780B0 EQ PUSH2 0x4D4 JUMPI DUP1 PUSH4 0xD3DD7EB7 EQ PUSH2 0x4F5 JUMPI DUP1 PUSH4 0xE0747C96 EQ PUSH2 0x50C JUMPI DUP1 PUSH4 0xE2BBB158 EQ PUSH2 0x52C JUMPI DUP1 PUSH4 0xE5C9AD2E EQ PUSH2 0x54C JUMPI DUP1 PUSH4 0xF2FDE38B EQ PUSH2 0x56C JUMPI PUSH2 0x1A3 JUMP JUMPDEST DUP1 PUSH4 0x715018A6 EQ PUSH2 0x3BC JUMPI DUP1 PUSH4 0x83BB3877 EQ PUSH2 0x3D1 JUMPI DUP1 PUSH4 0x8456CB59 EQ PUSH2 0x3E8 JUMPI DUP1 PUSH4 0x8AA28550 EQ PUSH2 0x3FD JUMPI DUP1 PUSH4 0x8DA5CB5B EQ PUSH2 0x413 JUMPI DUP1 PUSH4 0x8DBB1E3A EQ PUSH2 0x428 JUMPI DUP1 PUSH4 0x93F1A40B EQ PUSH2 0x448 JUMPI DUP1 PUSH4 0xAE5241A0 EQ PUSH2 0x49D JUMPI PUSH2 0x1A3 JUMP JUMPDEST DUP1 PUSH4 0x4F1EF286 GT PUSH2 0x14A JUMPI DUP1 PUSH4 0x4F1EF286 EQ PUSH2 0x2D0 JUMPI DUP1 PUSH4 0x50B48710 EQ PUSH2 0x2E3 JUMPI DUP1 PUSH4 0x51EB05A6 EQ PUSH2 0x2F9 JUMPI DUP1 PUSH4 0x521EB273 EQ PUSH2 0x319 JUMPI DUP1 PUSH4 0x5312EA8E EQ PUSH2 0x339 JUMPI DUP1 PUSH4 0x5C975ABB EQ PUSH2 0x359 JUMPI DUP1 PUSH4 0x5FFE6146 EQ PUSH2 0x37C JUMPI DUP1 PUSH4 0x63A1FCE2 EQ PUSH2 0x39C JUMPI PUSH2 0x1A3 JUMP JUMPDEST DUP1 PUSH4 0x81E3EDA EQ PUSH2 0x1A8 JUMPI DUP1 PUSH4 0x1003E2D2 EQ PUSH2 0x1CD JUMPI DUP1 PUSH4 0x1526FE27 EQ PUSH2 0x1EF JUMPI DUP1 PUSH4 0x2372C916 EQ PUSH2 0x237 JUMPI DUP1 PUSH4 0x3659CFE6 EQ PUSH2 0x264 JUMPI DUP1 PUSH4 0x3F4BA83A EQ PUSH2 0x284 JUMPI DUP1 PUSH4 0x441A3E70 EQ PUSH2 0x299 JUMPI DUP1 PUSH4 0x48CD4CB1 EQ PUSH2 0x2B9 JUMPI JUMPDEST PUSH1 0x0 DUP1 REVERT JUMPDEST CALLVALUE DUP1 ISZERO PUSH2 0x1B4 JUMPI PUSH1 0x0 DUP1 REVERT JUMPDEST POP PUSH2 0x101 SLOAD JUMPDEST PUSH1 0x40 MLOAD SWAP1 DUP2 MSTORE PUSH1 0x20 ADD JUMPDEST PUSH1 0x40 MLOAD DUP1 SWAP2 SUB SWAP1 RETURN JUMPDEST CALLVALUE DUP1 ISZERO PUSH2 0x1D9 JUMPI PUSH1 0x0 DUP1 REVERT JUMPDEST POP PUSH2 0x1ED PUSH2 0x1E8 CALLDATASIZE PUSH1 0x4 PUSH2 0x24CB JUMP JUMPDEST PUSH2 0x58C JUMP JUMPDEST STOP JUMPDEST CALLVALUE DUP1 ISZERO PUSH2 0x1FB JUMPI PUSH1 0x0 DUP1 REVERT JUMPDEST POP PUSH2 0x20F PUSH2 0x20A CALLDATASIZE PUSH1 0x4 PUSH2 0x24CB JUMP JUMPDEST PUSH2 0x936 JUMP JUMPDEST PUSH1 0x40 DUP1 MLOAD SWAP6 DUP7 MSTORE PUSH1 0x20 DUP7 ADD SWAP5 SWAP1 SWAP5 MSTORE SWAP3 DUP5 ADD SWAP2 SWAP1 SWAP2 MSTORE PUSH1 0x60 DUP4 ADD MSTORE PUSH1 0x80 DUP3 ADD MSTORE PUSH1 0xA0 ADD PUSH2 0x1C4 JUMP JUMPDEST CALLVALUE DUP1 ISZERO PUSH2 0x243 JUMPI PUSH1 0x0 DUP1 REVERT JUMPDEST POP PUSH1 0xFC SLOAD PUSH2 0x257 SWAP1 PUSH1 0x1 PUSH1 0x1 PUSH1 0xA0 SHL SUB AND DUP2 JUMP JUMPDEST PUSH1 0x40 MLOAD PUSH2 0x1C4 SWAP2 SWAP1 PUSH2 0x26AC JUMP JUMPDEST CALLVALUE DUP1 ISZERO PUSH2 0x270 JUMPI PUSH1 0x0 DUP1 REVERT JUMPDEST POP PUSH2 0x1ED PUSH2 0x27F CALLDATASIZE PUSH1 0x4 PUSH2 0x238E JUMP JUMPDEST PUSH2 0x978 JUMP JUMPDEST CALLVALUE DUP1 ISZERO PUSH2 0x290 JUMPI PUSH1 0x0 DUP1 REVERT JUMPDEST POP PUSH2 0x1ED PUSH2 0x99F JUMP JUMPDEST CALLVALUE DUP1 ISZERO PUSH2 0x2A5 JUMPI PUSH1 0x0 DUP1 REVERT JUMPDEST POP PUSH2 0x1ED PUSH2 0x2B4 CALLDATASIZE PUSH1 0x4 PUSH2 0x252A JUMP JUMPDEST PUSH2 0x9D8 JUMP JUMPDEST CALLVALUE DUP1 ISZERO PUSH2 0x2C5 JUMPI PUSH1 0x0 DUP1 REVERT JUMPDEST POP PUSH2 0x1BA PUSH2 0x104 SLOAD DUP2 JUMP JUMPDEST PUSH2 0x1ED PUSH2 0x2DE CALLDATASIZE PUSH1 0x4 PUSH2 0x23AA JUMP JUMPDEST PUSH2 0xC04 JUMP JUMPDEST CALLVALUE DUP1 ISZERO PUSH2 0x2EF JUMPI PUSH1 0x0 DUP1 REVERT JUMPDEST POP PUSH2 0x1BA PUSH1 0xFD SLOAD DUP2 JUMP JUMPDEST CALLVALUE DUP1 ISZERO PUSH2 0x305 JUMPI PUSH1 0x0 DUP1 REVERT JUMPDEST POP PUSH2 0x1ED PUSH2 0x314 CALLDATASIZE PUSH1 0x4 PUSH2 0x24CB JUMP JUMPDEST PUSH2 0xC1D JUMP JUMPDEST CALLVALUE DUP1 ISZERO PUSH2 0x325 JUMPI PUSH1 0x0 DUP1 REVERT JUMPDEST POP PUSH1 0xFF SLOAD PUSH2 0x257 SWAP1 PUSH1 0x1 PUSH1 0x1 PUSH1 0xA0 SHL SUB AND DUP2 JUMP JUMPDEST CALLVALUE DUP1 ISZERO PUSH2 0x345 JUMPI PUSH1 0x0 DUP1 REVERT JUMPDEST POP PUSH2 0x1ED PUSH2 0x354 CALLDATASIZE PUSH1 0x4 PUSH2 0x24CB JUMP JUMPDEST PUSH2 0xDB5 JUMP JUMPDEST CALLVALUE DUP1 ISZERO PUSH2 0x365 JUMPI PUSH1 0x0 DUP1 REVERT JUMPDEST POP PUSH1 0x33 SLOAD PUSH1 0xFF AND PUSH1 0x40 MLOAD SWAP1 ISZERO ISZERO DUP2 MSTORE PUSH1 0x20 ADD PUSH2 0x1C4 JUMP JUMPDEST CALLVALUE DUP1 ISZERO PUSH2 0x388 JUMPI PUSH1 0x0 DUP1 REVERT JUMPDEST POP PUSH2 0x1ED PUSH2 0x397 CALLDATASIZE PUSH1 0x4 PUSH2 0x24CB JUMP JUMPDEST PUSH2 0xEC8 JUMP JUMPDEST CALLVALUE DUP1 ISZERO PUSH2 0x3A8 JUMPI PUSH1 0x0 DUP1 REVERT JUMPDEST POP PUSH2 0x1BA PUSH2 0x3B7 CALLDATASIZE PUSH1 0x4 PUSH2 0x24FB JUMP JUMPDEST PUSH2 0xEFC JUMP JUMPDEST CALLVALUE DUP1 ISZERO PUSH2 0x3C8 JUMPI PUSH1 0x0 DUP1 REVERT JUMPDEST POP PUSH2 0x1ED PUSH2 0x10BB JUMP JUMPDEST CALLVALUE DUP1 ISZERO PUSH2 0x3DD JUMPI PUSH1 0x0 DUP1 REVERT JUMPDEST POP PUSH2 0x1BA PUSH2 0x105 SLOAD DUP2 JUMP JUMPDEST CALLVALUE DUP1 ISZERO PUSH2 0x3F4 JUMPI PUSH1 0x0 DUP1 REVERT JUMPDEST POP PUSH2 0x1ED PUSH2 0x10F4 JUMP JUMPDEST CALLVALUE DUP1 ISZERO PUSH2 0x409 JUMPI PUSH1 0x0 DUP1 REVERT JUMPDEST POP PUSH2 0x1BA PUSH1 0xFE SLOAD DUP2 JUMP JUMPDEST CALLVALUE DUP1 ISZERO PUSH2 0x41F JUMPI PUSH1 0x0 DUP1 REVERT JUMPDEST POP PUSH2 0x257 PUSH2 0x112B JUMP JUMPDEST CALLVALUE DUP1 ISZERO PUSH2 0x434 JUMPI PUSH1 0x0 DUP1 REVERT JUMPDEST POP PUSH2 0x1BA PUSH2 0x443 CALLDATASIZE PUSH1 0x4 PUSH2 0x252A JUMP JUMPDEST PUSH2 0x113A JUMP JUMPDEST CALLVALUE DUP1 ISZERO PUSH2 0x454 JUMPI PUSH1 0x0 DUP1 REVERT JUMPDEST POP PUSH2 0x488 PUSH2 0x463 CALLDATASIZE PUSH1 0x4 PUSH2 0x24FB JUMP JUMPDEST PUSH2 0x102 PUSH1 0x20 SWAP1 DUP2 MSTORE PUSH1 0x0 SWAP3 DUP4 MSTORE PUSH1 0x40 DUP1 DUP5 KECCAK256 SWAP1 SWAP2 MSTORE SWAP1 DUP3 MSTORE SWAP1 KECCAK256 DUP1 SLOAD PUSH1 0x1 SWAP1 SWAP2 ADD SLOAD DUP3 JUMP JUMPDEST PUSH1 0x40 DUP1 MLOAD SWAP3 DUP4 MSTORE PUSH1 0x20 DUP4 ADD SWAP2 SWAP1 SWAP2 MSTORE ADD PUSH2 0x1C4 JUMP JUMPDEST CALLVALUE DUP1 ISZERO PUSH2 0x4A9 JUMPI PUSH1 0x0 DUP1 REVERT JUMPDEST POP PUSH2 0x1BA PUSH2 0x100 SLOAD DUP2 JUMP JUMPDEST CALLVALUE DUP1 ISZERO PUSH2 0x4C0 JUMPI PUSH1 0x0 DUP1 REVERT JUMPDEST POP PUSH2 0x1ED PUSH2 0x4CF CALLDATASIZE PUSH1 0x4 PUSH2 0x2465 JUMP JUMPDEST PUSH2 0x1155 JUMP JUMPDEST CALLVALUE DUP1 ISZERO PUSH2 0x4E0 JUMPI PUSH1 0x0 DUP1 REVERT JUMPDEST POP PUSH2 0x1ED PUSH2 0x4EF CALLDATASIZE PUSH1 0x4 PUSH2 0x24CB JUMP JUMPDEST PUSH2 0x100 SSTORE JUMP JUMPDEST CALLVALUE DUP1 ISZERO PUSH2 0x501 JUMPI PUSH1 0x0 DUP1 REVERT JUMPDEST POP PUSH2 0x1BA PUSH2 0x103 SLOAD DUP2 JUMP JUMPDEST CALLVALUE DUP1 ISZERO PUSH2 0x518 JUMPI PUSH1 0x0 DUP1 REVERT JUMPDEST POP PUSH2 0x1ED PUSH2 0x527 CALLDATASIZE PUSH1 0x4 PUSH2 0x24CB JUMP JUMPDEST PUSH2 0x1233 JUMP JUMPDEST CALLVALUE DUP1 ISZERO PUSH2 0x538 JUMPI PUSH1 0x0 DUP1 REVERT JUMPDEST POP PUSH2 0x1ED PUSH2 0x547 CALLDATASIZE PUSH1 0x4 PUSH2 0x252A JUMP JUMPDEST PUSH2 0x12BB JUMP JUMPDEST CALLVALUE DUP1 ISZERO PUSH2 0x558 JUMPI PUSH1 0x0 DUP1 REVERT JUMPDEST POP PUSH1 0xFB SLOAD PUSH2 0x257 SWAP1 PUSH1 0x1 PUSH1 0x1 PUSH1 0xA0 SHL SUB AND DUP2 JUMP JUMPDEST CALLVALUE DUP1 ISZERO PUSH2 0x578 JUMPI PUSH1 0x0 DUP1 REVERT JUMPDEST POP PUSH2 0x1ED PUSH2 0x587 CALLDATASIZE PUSH1 0x4 PUSH2 0x238E JUMP JUMPDEST PUSH2 0x172F JUMP JUMPDEST CALLER PUSH2 0x595 PUSH2 0x112B JUMP JUMPDEST PUSH1 0x1 PUSH1 0x1 PUSH1 0xA0 SHL SUB AND EQ PUSH2 0x5C4 JUMPI PUSH1 0x40 MLOAD PUSH3 0x461BCD PUSH1 0xE5 SHL DUP2 MSTORE PUSH1 0x4 ADD PUSH2 0x5BB SWAP1 PUSH2 0x27B2 JUMP JUMPDEST PUSH1 0x40 MLOAD DUP1 SWAP2 SUB SWAP1 REVERT JUMPDEST PUSH1 0xFC SLOAD PUSH1 0x40 MLOAD PUSH4 0x23C4C9F PUSH1 0xE6 SHL DUP2 MSTORE PUSH1 0x4 DUP2 ADD DUP4 SWAP1 MSTORE PUSH1 0x0 SWAP2 PUSH1 0x1 PUSH1 0x1 PUSH1 0xA0 SHL SUB AND SWAP1 PUSH4 0x8F1327C0 SWAP1 PUSH1 0x24 ADD PUSH1 0x0 PUSH1 0x40 MLOAD DUP1 DUP4 SUB DUP2 DUP7 DUP1 EXTCODESIZE ISZERO DUP1 ISZERO PUSH2 0x609 JUMPI PUSH1 0x0 DUP1 REVERT JUMPDEST POP GAS STATICCALL ISZERO DUP1 ISZERO PUSH2 0x61D JUMPI RETURNDATASIZE PUSH1 0x0 DUP1 RETURNDATACOPY RETURNDATASIZE PUSH1 0x0 REVERT JUMPDEST POP POP POP POP PUSH1 0x40 MLOAD RETURNDATASIZE PUSH1 0x0 DUP3 RETURNDATACOPY PUSH1 0x1F RETURNDATASIZE SWAP1 DUP2 ADD PUSH1 0x1F NOT AND DUP3 ADD PUSH1 0x40 MSTORE PUSH2 0x645 SWAP2 SWAP1 DUP2 ADD SWAP1 PUSH2 0x254B JUMP JUMPDEST POP POP POP POP POP POP SWAP5 POP POP POP POP POP DUP1 PUSH2 0x6AF JUMPI PUSH1 0x40 MLOAD PUSH3 0x461BCD PUSH1 0xE5 SHL DUP2 MSTORE PUSH1 0x20 PUSH1 0x4 DUP3 ADD MSTORE PUSH1 0x28 PUSH1 0x24 DUP3 ADD MSTORE PUSH32 0x526F756E6420776173206E6F74207375636365737366756C206F72206E6F7420 PUSH1 0x44 DUP3 ADD MSTORE PUSH8 0x636F6D706C657465 PUSH1 0xC0 SHL PUSH1 0x64 DUP3 ADD MSTORE PUSH1 0x84 ADD PUSH2 0x5BB JUMP JUMPDEST PUSH1 0xFC SLOAD PUSH1 0x40 DUP1 MLOAD PUSH4 0xECCE301 PUSH1 0xE3 SHL DUP2 MSTORE SWAP1 MLOAD PUSH1 0x0 SWAP3 PUSH1 0x1 PUSH1 0x1 PUSH1 0xA0 SHL SUB AND SWAP2 PUSH4 0x76671808 SWAP2 PUSH1 0x4 DUP1 DUP4 ADD SWAP3 PUSH1 0x20 SWAP3 SWAP2 SWAP1 DUP3 SWAP1 SUB ADD DUP2 DUP8 DUP8 DUP1 EXTCODESIZE ISZERO DUP1 ISZERO PUSH2 0x6F5 JUMPI PUSH1 0x0 DUP1 REVERT JUMPDEST POP GAS CALL ISZERO DUP1 ISZERO PUSH2 0x709 JUMPI RETURNDATASIZE PUSH1 0x0 DUP1 RETURNDATACOPY RETURNDATASIZE PUSH1 0x0 REVERT JUMPDEST POP POP POP POP PUSH1 0x40 MLOAD RETURNDATASIZE PUSH1 0x1F NOT PUSH1 0x1F DUP3 ADD AND DUP3 ADD DUP1 PUSH1 0x40 MSTORE POP DUP2 ADD SWAP1 PUSH2 0x72D SWAP2 SWAP1 PUSH2 0x24E3 JUMP JUMPDEST SWAP1 POP DUP3 DUP2 EQ PUSH2 0x81D JUMPI PUSH1 0xFC SLOAD PUSH1 0x40 MLOAD PUSH4 0x23C4C9F PUSH1 0xE6 SHL DUP2 MSTORE PUSH1 0x4 DUP2 ADD DUP4 SWAP1 MSTORE PUSH1 0x0 SWAP2 PUSH1 0x1 PUSH1 0x1 PUSH1 0xA0 SHL SUB AND SWAP1 PUSH4 0x8F1327C0 SWAP1 PUSH1 0x24 ADD PUSH1 0x0 PUSH1 0x40 MLOAD DUP1 DUP4 SUB DUP2 DUP7 DUP1 EXTCODESIZE ISZERO DUP1 ISZERO PUSH2 0x77B JUMPI PUSH1 0x0 DUP1 REVERT JUMPDEST POP GAS STATICCALL ISZERO DUP1 ISZERO PUSH2 0x78F JUMPI RETURNDATASIZE PUSH1 0x0 DUP1 RETURNDATACOPY RETURNDATASIZE PUSH1 0x0 REVERT JUMPDEST POP POP POP POP PUSH1 0x40 MLOAD RETURNDATASIZE PUSH1 0x0 DUP3 RETURNDATACOPY PUSH1 0x1F RETURNDATASIZE SWAP1 DUP2 ADD PUSH1 0x1F NOT AND DUP3 ADD PUSH1 0x40 MSTORE PUSH2 0x7B7 SWAP2 SWAP1 DUP2 ADD SWAP1 PUSH2 0x254B JUMP JUMPDEST POP POP POP POP POP POP SWAP5 POP POP POP POP POP DUP1 ISZERO PUSH2 0x81B JUMPI PUSH1 0x40 MLOAD PUSH3 0x461BCD PUSH1 0xE5 SHL DUP2 MSTORE PUSH1 0x20 PUSH1 0x4 DUP3 ADD MSTORE PUSH1 0x21 PUSH1 0x24 DUP3 ADD MSTORE PUSH32 0x43757272656E7420526F756E6420697320616C726561647920636F6D706C6574 PUSH1 0x44 DUP3 ADD MSTORE PUSH1 0x65 PUSH1 0xF8 SHL PUSH1 0x64 DUP3 ADD MSTORE PUSH1 0x84 ADD PUSH2 0x5BB JUMP JUMPDEST POP JUMPDEST PUSH2 0x101 SLOAD ISZERO PUSH2 0x924 JUMPI PUSH2 0x101 SLOAD PUSH1 0x0 SWAP1 PUSH2 0x839 SWAP1 PUSH1 0x1 SWAP1 PUSH2 0x2891 JUMP JUMPDEST SWAP1 POP DUP4 PUSH2 0x101 DUP3 DUP2 SLOAD DUP2 LT PUSH2 0x85E JUMPI PUSH4 0x4E487B71 PUSH1 0xE0 SHL PUSH1 0x0 MSTORE PUSH1 0x32 PUSH1 0x4 MSTORE PUSH1 0x24 PUSH1 0x0 REVERT JUMPDEST SWAP1 PUSH1 0x0 MSTORE PUSH1 0x20 PUSH1 0x0 KECCAK256 SWAP1 PUSH1 0x5 MUL ADD PUSH1 0x3 ADD SLOAD LT PUSH2 0x8D5 JUMPI PUSH1 0x40 MLOAD PUSH3 0x461BCD PUSH1 0xE5 SHL DUP2 MSTORE PUSH1 0x20 PUSH1 0x4 DUP3 ADD MSTORE PUSH1 0x2F PUSH1 0x24 DUP3 ADD MSTORE PUSH32 0x4E65772065706F63682063616E6E6F74206265206C657373206F722065717561 PUSH1 0x44 DUP3 ADD MSTORE PUSH15 0xD840E8DE40E0C2E6E840CAE0DEC6D PUSH1 0x8B SHL PUSH1 0x64 DUP3 ADD MSTORE PUSH1 0x84 ADD PUSH2 0x5BB JUMP JUMPDEST PUSH2 0x8DE DUP2 PUSH2 0xC1D JUMP JUMPDEST PUSH2 0x101 DUP1 SLOAD PUSH1 0x0 SWAP2 SWAP1 PUSH2 0x8F3 SWAP1 PUSH1 0x1 SWAP1 PUSH2 0x2891 JUMP JUMPDEST DUP2 SLOAD DUP2 LT PUSH2 0x911 JUMPI PUSH4 0x4E487B71 PUSH1 0xE0 SHL PUSH1 0x0 MSTORE PUSH1 0x32 PUSH1 0x4 MSTORE PUSH1 0x24 PUSH1 0x0 REVERT JUMPDEST PUSH1 0x0 SWAP2 DUP3 MSTORE PUSH1 0x20 SWAP1 SWAP2 KECCAK256 PUSH1 0x5 SWAP1 SWAP2 MUL ADD SSTORE POP JUMPDEST PUSH2 0x931 PUSH2 0x103 SLOAD DUP5 PUSH2 0x17CC JUMP JUMPDEST POP POP POP JUMP JUMPDEST PUSH2 0x101 DUP2 DUP2 SLOAD DUP2 LT PUSH2 0x947 JUMPI PUSH1 0x0 DUP1 REVERT JUMPDEST PUSH1 0x0 SWAP2 DUP3 MSTORE PUSH1 0x20 SWAP1 SWAP2 KECCAK256 PUSH1 0x5 SWAP1 SWAP2 MUL ADD DUP1 SLOAD PUSH1 0x1 DUP3 ADD SLOAD PUSH1 0x2 DUP4 ADD SLOAD PUSH1 0x3 DUP5 ADD SLOAD PUSH1 0x4 SWAP1 SWAP5 ADD SLOAD SWAP3 SWAP5 POP SWAP1 SWAP3 SWAP1 SWAP2 DUP6 JUMP JUMPDEST PUSH2 0x981 DUP2 PUSH2 0x1911 JUMP JUMPDEST PUSH2 0x99C DUP2 PUSH1 0x40 MLOAD DUP1 PUSH1 0x20 ADD PUSH1 0x40 MSTORE DUP1 PUSH1 0x0 DUP2 MSTORE POP PUSH1 0x0 PUSH2 0x1940 JUMP JUMPDEST POP JUMP JUMPDEST CALLER PUSH2 0x9A8 PUSH2 0x112B JUMP JUMPDEST PUSH1 0x1 PUSH1 0x1 PUSH1 0xA0 SHL SUB AND EQ PUSH2 0x9CE JUMPI PUSH1 0x40 MLOAD PUSH3 0x461BCD PUSH1 0xE5 SHL DUP2 MSTORE PUSH1 0x4 ADD PUSH2 0x5BB SWAP1 PUSH2 0x27B2 JUMP JUMPDEST PUSH2 0x9D6 PUSH2 0x1A87 JUMP JUMPDEST JUMP JUMPDEST PUSH1 0x33 SLOAD PUSH1 0xFF AND ISZERO PUSH2 0x9FB JUMPI PUSH1 0x40 MLOAD PUSH3 0x461BCD PUSH1 0xE5 SHL DUP2 MSTORE PUSH1 0x4 ADD PUSH2 0x5BB SWAP1 PUSH2 0x273A JUMP JUMPDEST PUSH1 0x0 PUSH2 0x101 DUP4 DUP2 SLOAD DUP2 LT PUSH2 0xA1F JUMPI PUSH4 0x4E487B71 PUSH1 0xE0 SHL PUSH1 0x0 MSTORE PUSH1 0x32 PUSH1 0x4 MSTORE PUSH1 0x24 PUSH1 0x0 REVERT JUMPDEST PUSH1 0x0 SWAP2 DUP3 MSTORE PUSH1 0x20 DUP1 DUP4 KECCAK256 DUP7 DUP5 MSTORE PUSH2 0x102 DUP3 MSTORE PUSH1 0x40 DUP1 DUP6 KECCAK256 CALLER DUP7 MSTORE SWAP1 SWAP3 MSTORE SWAP3 KECCAK256 DUP1 SLOAD PUSH1 0x5 SWAP1 SWAP3 MUL SWAP1 SWAP3 ADD SWAP3 POP DUP4 GT ISZERO PUSH2 0xA8E JUMPI PUSH1 0x40 MLOAD PUSH3 0x461BCD PUSH1 0xE5 SHL DUP2 MSTORE PUSH1 0x20 PUSH1 0x4 DUP3 ADD MSTORE PUSH1 0x12 PUSH1 0x24 DUP3 ADD MSTORE PUSH18 0x1DDA5D1A191C985DCE881B9BDD0819DBDBD9 PUSH1 0x72 SHL PUSH1 0x44 DUP3 ADD MSTORE PUSH1 0x64 ADD PUSH2 0x5BB JUMP JUMPDEST PUSH2 0xA97 DUP5 PUSH2 0xC1D JUMP JUMPDEST PUSH1 0x0 PUSH2 0xAD8 DUP3 PUSH1 0x1 ADD SLOAD PUSH2 0xAD2 PUSH9 0x327CB2734119D3B7A9 PUSH1 0x1E SHL PUSH2 0xACC DUP8 PUSH1 0x2 ADD SLOAD DUP8 PUSH1 0x0 ADD SLOAD PUSH2 0x1AED SWAP1 SWAP2 SWAP1 PUSH4 0xFFFFFFFF AND JUMP JUMPDEST SWAP1 PUSH2 0x1AF9 JUMP JUMPDEST SWAP1 PUSH2 0x1B05 JUMP JUMPDEST SWAP1 POP DUP1 ISZERO PUSH2 0xAEA JUMPI PUSH2 0xAEA CALLER DUP3 PUSH2 0x1B11 JUMP JUMPDEST DUP4 ISZERO PUSH2 0xB29 JUMPI DUP2 SLOAD PUSH2 0xAFC SWAP1 DUP6 PUSH2 0x1B05 JUMP JUMPDEST DUP3 SSTORE PUSH1 0x4 DUP4 ADD SLOAD PUSH2 0xB0D SWAP1 DUP6 PUSH2 0x1B05 JUMP JUMPDEST PUSH1 0x4 DUP5 ADD SSTORE PUSH1 0xFB SLOAD PUSH2 0xB29 SWAP1 PUSH1 0x1 PUSH1 0x1 PUSH1 0xA0 SHL SUB AND CALLER DUP7 PUSH2 0x1BA9 JUMP JUMPDEST PUSH1 0x2 DUP4 ADD SLOAD DUP3 SLOAD PUSH2 0xB4B SWAP2 PUSH9 0x327CB2734119D3B7A9 PUSH1 0x1E SHL SWAP2 PUSH2 0xACC SWAP2 PUSH2 0x1AED JUMP JUMPDEST DUP3 PUSH1 0x1 ADD DUP2 SWAP1 SSTORE POP DUP3 PUSH2 0x101 DUP7 DUP2 SLOAD DUP2 LT PUSH2 0xB76 JUMPI PUSH4 0x4E487B71 PUSH1 0xE0 SHL PUSH1 0x0 MSTORE PUSH1 0x32 PUSH1 0x4 MSTORE PUSH1 0x24 PUSH1 0x0 REVERT JUMPDEST SWAP1 PUSH1 0x0 MSTORE PUSH1 0x20 PUSH1 0x0 KECCAK256 SWAP1 PUSH1 0x5 MUL ADD PUSH1 0x0 DUP3 ADD SLOAD DUP2 PUSH1 0x0 ADD SSTORE PUSH1 0x1 DUP3 ADD SLOAD DUP2 PUSH1 0x1 ADD SSTORE PUSH1 0x2 DUP3 ADD SLOAD DUP2 PUSH1 0x2 ADD SSTORE PUSH1 0x3 DUP3 ADD SLOAD DUP2 PUSH1 0x3 ADD SSTORE PUSH1 0x4 DUP3 ADD SLOAD DUP2 PUSH1 0x4 ADD SSTORE SWAP1 POP POP DUP5 CALLER PUSH1 0x1 PUSH1 0x1 PUSH1 0xA0 SHL SUB AND PUSH32 0xF279E6A1F5E320CCA91135676D9CB6E44CA8A08C0B88342BCDB1144F6511B568 DUP7 PUSH1 0x40 MLOAD PUSH2 0xBF5 SWAP2 DUP2 MSTORE PUSH1 0x20 ADD SWAP1 JUMP JUMPDEST PUSH1 0x40 MLOAD DUP1 SWAP2 SUB SWAP1 LOG3 POP POP POP POP POP JUMP JUMPDEST PUSH2 0xC0D DUP3 PUSH2 0x1911 JUMP JUMPDEST PUSH2 0xC19 DUP3 DUP3 PUSH1 0x1 PUSH2 0x1940 JUMP JUMPDEST POP POP JUMP JUMPDEST PUSH1 0x0 PUSH2 0x101 DUP3 DUP2 SLOAD DUP2 LT PUSH2 0xC41 JUMPI PUSH4 0x4E487B71 PUSH1 0xE0 SHL PUSH1 0x0 MSTORE PUSH1 0x32 PUSH1 0x4 MSTORE PUSH1 0x24 PUSH1 0x0 REVERT JUMPDEST SWAP1 PUSH1 0x0 MSTORE PUSH1 0x20 PUSH1 0x0 KECCAK256 SWAP1 PUSH1 0x5 MUL ADD SWAP1 POP DUP1 PUSH1 0x1 ADD SLOAD NUMBER GT PUSH2 0xC62 JUMPI POP PUSH2 0x99C JUMP JUMPDEST PUSH1 0xFB SLOAD PUSH1 0x40 MLOAD PUSH4 0x70A08231 PUSH1 0xE0 SHL DUP2 MSTORE PUSH1 0x0 SWAP2 PUSH1 0x1 PUSH1 0x1 PUSH1 0xA0 SHL SUB AND SWAP1 PUSH4 0x70A08231 SWAP1 PUSH2 0xC93 SWAP1 ADDRESS SWAP1 PUSH1 0x4 ADD PUSH2 0x26AC JUMP JUMPDEST PUSH1 0x20 PUSH1 0x40 MLOAD DUP1 DUP4 SUB DUP2 DUP7 DUP1 EXTCODESIZE ISZERO DUP1 ISZERO PUSH2 0xCAB JUMPI PUSH1 0x0 DUP1 REVERT JUMPDEST POP GAS STATICCALL ISZERO DUP1 ISZERO PUSH2 0xCBF JUMPI RETURNDATASIZE PUSH1 0x0 DUP1 RETURNDATACOPY RETURNDATASIZE PUSH1 0x0 REVERT JUMPDEST POP POP POP POP PUSH1 0x40 MLOAD RETURNDATASIZE PUSH1 0x1F NOT PUSH1 0x1F DUP3 ADD AND DUP3 ADD DUP1 PUSH1 0x40 MSTORE POP DUP2 ADD SWAP1 PUSH2 0xCE3 SWAP2 SWAP1 PUSH2 0x24E3 JUMP JUMPDEST SWAP1 POP DUP1 PUSH2 0xCF7 JUMPI POP NUMBER PUSH1 0x1 SWAP1 SWAP2 ADD SSTORE PUSH2 0x99C JUMP JUMPDEST PUSH1 0x0 PUSH2 0xD07 DUP4 PUSH1 0x1 ADD SLOAD NUMBER PUSH2 0x113A JUMP JUMPDEST SWAP1 POP PUSH1 0x0 PUSH2 0xD35 PUSH2 0x103 SLOAD PUSH2 0xACC DUP7 PUSH1 0x0 ADD SLOAD PUSH2 0xD2F PUSH1 0xFD SLOAD DUP8 PUSH2 0x1AED SWAP1 SWAP2 SWAP1 PUSH4 0xFFFFFFFF AND JUMP JUMPDEST SWAP1 PUSH2 0x1AED JUMP JUMPDEST PUSH2 0x105 SLOAD PUSH1 0xFF SLOAD SWAP2 SWAP3 POP PUSH1 0x0 SWAP2 PUSH2 0xD58 SWAP2 PUSH1 0x1 PUSH1 0x1 PUSH1 0xA0 SHL SUB SWAP1 SWAP2 AND BALANCE SWAP1 PUSH2 0x1B05 JUMP JUMPDEST SWAP1 POP DUP1 DUP3 LT PUSH2 0xD65 JUMPI DUP1 SWAP2 POP JUMPDEST PUSH2 0xD8D PUSH2 0xD82 DUP6 PUSH2 0xACC DUP6 PUSH9 0x327CB2734119D3B7A9 PUSH1 0x1E SHL PUSH2 0x1AED JUMP JUMPDEST PUSH1 0x2 DUP8 ADD SLOAD SWAP1 PUSH2 0x1BFF JUMP JUMPDEST PUSH1 0x2 DUP7 ADD SSTORE PUSH2 0x105 SLOAD PUSH2 0xDA0 SWAP1 DUP4 PUSH2 0x1BFF JUMP JUMPDEST PUSH2 0x105 SSTORE POP POP NUMBER PUSH1 0x1 SWAP1 SWAP4 ADD SWAP3 SWAP1 SWAP3 SSTORE POP POP POP JUMP JUMPDEST PUSH1 0x33 SLOAD PUSH1 0xFF AND PUSH2 0xDD7 JUMPI PUSH1 0x40 MLOAD PUSH3 0x461BCD PUSH1 0xE5 SHL DUP2 MSTORE PUSH1 0x4 ADD PUSH2 0x5BB SWAP1 PUSH2 0x270C JUMP JUMPDEST PUSH1 0x0 PUSH2 0x101 DUP3 DUP2 SLOAD DUP2 LT PUSH2 0xDFB JUMPI PUSH4 0x4E487B71 PUSH1 0xE0 SHL PUSH1 0x0 MSTORE PUSH1 0x32 PUSH1 0x4 MSTORE PUSH1 0x24 PUSH1 0x0 REVERT JUMPDEST PUSH1 0x0 SWAP2 DUP3 MSTORE PUSH1 0x20 DUP1 DUP4 KECCAK256 DUP6 DUP5 MSTORE PUSH2 0x102 DUP3 MSTORE PUSH1 0x40 DUP1 DUP6 KECCAK256 CALLER DUP7 MSTORE SWAP1 SWAP3 MSTORE SWAP1 DUP4 KECCAK256 DUP1 SLOAD DUP5 DUP3 SSTORE PUSH1 0x1 DUP3 ADD DUP6 SWAP1 SSTORE PUSH1 0x2 PUSH1 0x5 SWAP1 SWAP5 MUL SWAP1 SWAP3 ADD SWAP3 DUP4 ADD SLOAD SWAP3 SWAP5 POP SWAP3 SWAP1 SWAP2 PUSH2 0xE5E SWAP1 DUP3 SWAP1 PUSH2 0xAD2 SWAP1 PUSH9 0x327CB2734119D3B7A9 PUSH1 0x1E SHL SWAP1 PUSH2 0xACC SWAP1 DUP8 SWAP1 PUSH2 0x1AED JUMP JUMPDEST SWAP1 POP PUSH2 0x105 SLOAD DUP2 GT PUSH2 0xE7D JUMPI PUSH2 0x105 SLOAD PUSH2 0xE78 SWAP1 DUP3 PUSH2 0x1B05 JUMP JUMPDEST PUSH2 0x105 SSTORE JUMPDEST PUSH1 0xFB SLOAD PUSH2 0xE94 SWAP1 PUSH1 0x1 PUSH1 0x1 PUSH1 0xA0 SHL SUB AND CALLER DUP5 PUSH2 0x1BA9 JUMP JUMPDEST PUSH1 0x40 MLOAD DUP3 DUP2 MSTORE DUP6 SWAP1 CALLER SWAP1 PUSH32 0xBB757047C2B5F3974FE26B7C10F732E7BCE710B0952A71082702781E62AE0595 SWAP1 PUSH1 0x20 ADD PUSH2 0xBF5 JUMP JUMPDEST CALLER PUSH2 0xED1 PUSH2 0x112B JUMP JUMPDEST PUSH1 0x1 PUSH1 0x1 PUSH1 0xA0 SHL SUB AND EQ PUSH2 0xEF7 JUMPI PUSH1 0x40 MLOAD PUSH3 0x461BCD PUSH1 0xE5 SHL DUP2 MSTORE PUSH1 0x4 ADD PUSH2 0x5BB SWAP1 PUSH2 0x27B2 JUMP JUMPDEST PUSH1 0xFE SSTORE JUMP JUMPDEST PUSH1 0x0 DUP1 PUSH2 0x101 DUP5 DUP2 SLOAD DUP2 LT PUSH2 0xF21 JUMPI PUSH4 0x4E487B71 PUSH1 0xE0 SHL PUSH1 0x0 MSTORE PUSH1 0x32 PUSH1 0x4 MSTORE PUSH1 0x24 PUSH1 0x0 REVERT JUMPDEST PUSH1 0x0 SWAP2 DUP3 MSTORE PUSH1 0x20 DUP1 DUP4 KECCAK256 DUP8 DUP5 MSTORE PUSH2 0x102 DUP3 MSTORE PUSH1 0x40 DUP1 DUP6 KECCAK256 PUSH1 0x1 PUSH1 0x1 PUSH1 0xA0 SHL SUB DUP1 DUP11 AND DUP8 MSTORE SWAP4 MSTORE DUP1 DUP6 KECCAK256 PUSH1 0x2 PUSH1 0x5 SWAP1 SWAP6 MUL SWAP1 SWAP3 ADD SWAP4 DUP5 ADD SLOAD PUSH1 0xFB SLOAD SWAP2 MLOAD PUSH4 0x70A08231 PUSH1 0xE0 SHL DUP2 MSTORE SWAP5 SWAP7 POP SWAP2 SWAP5 SWAP2 SWAP4 SWAP2 SWAP3 AND SWAP1 PUSH4 0x70A08231 SWAP1 PUSH2 0xF86 SWAP1 ADDRESS SWAP1 PUSH1 0x4 ADD PUSH2 0x26AC JUMP JUMPDEST PUSH1 0x20 PUSH1 0x40 MLOAD DUP1 DUP4 SUB DUP2 DUP7 DUP1 EXTCODESIZE ISZERO DUP1 ISZERO PUSH2 0xF9E JUMPI PUSH1 0x0 DUP1 REVERT JUMPDEST POP GAS STATICCALL ISZERO DUP1 ISZERO PUSH2 0xFB2 JUMPI RETURNDATASIZE PUSH1 0x0 DUP1 RETURNDATACOPY RETURNDATASIZE PUSH1 0x0 REVERT JUMPDEST POP POP POP POP PUSH1 0x40 MLOAD RETURNDATASIZE PUSH1 0x1F NOT PUSH1 0x1F DUP3 ADD AND DUP3 ADD DUP1 PUSH1 0x40 MSTORE POP DUP2 ADD SWAP1 PUSH2 0xFD6 SWAP2 SWAP1 PUSH2 0x24E3 JUMP JUMPDEST SWAP1 POP DUP4 PUSH1 0x1 ADD SLOAD NUMBER GT DUP1 ISZERO PUSH2 0xFEA JUMPI POP DUP1 ISZERO ISZERO JUMPDEST ISZERO PUSH2 0x1081 JUMPI PUSH1 0x0 PUSH2 0xFFF DUP6 PUSH1 0x1 ADD SLOAD NUMBER PUSH2 0x113A JUMP JUMPDEST SWAP1 POP PUSH1 0x0 PUSH2 0x1027 PUSH2 0x103 SLOAD PUSH2 0xACC DUP9 PUSH1 0x0 ADD SLOAD PUSH2 0xD2F PUSH1 0xFD SLOAD DUP8 PUSH2 0x1AED SWAP1 SWAP2 SWAP1 PUSH4 0xFFFFFFFF AND JUMP JUMPDEST PUSH2 0x105 SLOAD PUSH1 0xFF SLOAD SWAP2 SWAP3 POP PUSH1 0x0 SWAP2 PUSH2 0x104A SWAP2 PUSH1 0x1 PUSH1 0x1 PUSH1 0xA0 SHL SUB SWAP1 SWAP2 AND BALANCE SWAP1 PUSH2 0x1B05 JUMP JUMPDEST SWAP1 POP DUP1 DUP3 LT PUSH2 0x1057 JUMPI DUP1 SWAP2 POP JUMPDEST PUSH2 0x107B PUSH2 0x1074 DUP6 PUSH2 0xACC DUP6 PUSH9 0x327CB2734119D3B7A9 PUSH1 0x1E SHL PUSH2 0x1AED JUMP JUMPDEST DUP7 SWAP1 PUSH2 0x1BFF JUMP JUMPDEST SWAP5 POP POP POP POP JUMPDEST PUSH2 0x10B0 DUP4 PUSH1 0x1 ADD SLOAD PUSH2 0xAD2 PUSH9 0x327CB2734119D3B7A9 PUSH1 0x1E SHL PUSH2 0xACC DUP7 DUP9 PUSH1 0x0 ADD SLOAD PUSH2 0x1AED SWAP1 SWAP2 SWAP1 PUSH4 0xFFFFFFFF AND JUMP JUMPDEST SWAP8 SWAP7 POP POP POP POP POP POP POP JUMP JUMPDEST CALLER PUSH2 0x10C4 PUSH2 0x112B JUMP JUMPDEST PUSH1 0x1 PUSH1 0x1 PUSH1 0xA0 SHL SUB AND EQ PUSH2 0x10EA JUMPI PUSH1 0x40 MLOAD PUSH3 0x461BCD PUSH1 0xE5 SHL DUP2 MSTORE PUSH1 0x4 ADD PUSH2 0x5BB SWAP1 PUSH2 0x27B2 JUMP JUMPDEST PUSH2 0x9D6 PUSH1 0x0 PUSH2 0x1C0B JUMP JUMPDEST CALLER PUSH2 0x10FD PUSH2 0x112B JUMP JUMPDEST PUSH1 0x1 PUSH1 0x1 PUSH1 0xA0 SHL SUB AND EQ PUSH2 0x1123 JUMPI PUSH1 0x40 MLOAD PUSH3 0x461BCD PUSH1 0xE5 SHL DUP2 MSTORE PUSH1 0x4 ADD PUSH2 0x5BB SWAP1 PUSH2 0x27B2 JUMP JUMPDEST PUSH2 0x9D6 PUSH2 0x1C5D JUMP JUMPDEST PUSH1 0xC9 SLOAD PUSH1 0x1 PUSH1 0x1 PUSH1 0xA0 SHL SUB AND SWAP1 JUMP JUMPDEST PUSH1 0xFE SLOAD PUSH1 0x0 SWAP1 PUSH2 0x114E SWAP1 PUSH2 0xD2F DUP5 DUP7 PUSH2 0x1B05 JUMP JUMPDEST SWAP4 SWAP3 POP POP POP JUMP JUMPDEST PUSH1 0x0 SLOAD PUSH2 0x100 SWAP1 DIV PUSH1 0xFF AND DUP1 PUSH2 0x116E JUMPI POP PUSH1 0x0 SLOAD PUSH1 0xFF AND ISZERO JUMPDEST PUSH2 0x118A JUMPI PUSH1 0x40 MLOAD PUSH3 0x461BCD PUSH1 0xE5 SHL DUP2 MSTORE PUSH1 0x4 ADD PUSH2 0x5BB SWAP1 PUSH2 0x2764 JUMP JUMPDEST PUSH1 0x0 SLOAD PUSH2 0x100 SWAP1 DIV PUSH1 0xFF AND ISZERO DUP1 ISZERO PUSH2 0x11B5 JUMPI PUSH1 0x0 DUP1 SLOAD PUSH1 0xFF NOT PUSH2 0xFF00 NOT SWAP1 SWAP2 AND PUSH2 0x100 OR AND PUSH1 0x1 OR SWAP1 SSTORE JUMPDEST PUSH2 0x11BD PUSH2 0x1CB5 JUMP JUMPDEST PUSH1 0xFB DUP1 SLOAD PUSH1 0x1 PUSH1 0x1 PUSH1 0xA0 SHL SUB DUP1 DUP11 AND PUSH1 0x1 PUSH1 0x1 PUSH1 0xA0 SHL SUB NOT SWAP3 DUP4 AND OR SWAP1 SWAP3 SSTORE PUSH1 0xFD DUP9 SWAP1 SSTORE PUSH2 0x104 DUP8 SWAP1 SSTORE PUSH1 0xFF DUP1 SLOAD DUP7 DUP5 AND SWAP1 DUP4 AND OR SWAP1 SSTORE PUSH1 0xFC DUP1 SLOAD SWAP3 DUP6 AND SWAP3 SWAP1 SWAP2 AND SWAP2 SWAP1 SWAP2 OR SWAP1 SSTORE PUSH2 0x100 DUP5 SWAP1 SSTORE PUSH3 0xF4240 PUSH1 0xFE SSTORE PUSH1 0xC8 PUSH2 0x103 SSTORE DUP1 ISZERO PUSH2 0x122A JUMPI PUSH1 0x0 DUP1 SLOAD PUSH2 0xFF00 NOT AND SWAP1 SSTORE JUMPDEST POP POP POP POP POP POP POP JUMP JUMPDEST CALLER PUSH2 0x123C PUSH2 0x112B JUMP JUMPDEST PUSH1 0x1 PUSH1 0x1 PUSH1 0xA0 SHL SUB AND EQ PUSH2 0x1262 JUMPI PUSH1 0x40 MLOAD PUSH3 0x461BCD PUSH1 0xE5 SHL DUP2 MSTORE PUSH1 0x4 ADD PUSH2 0x5BB SWAP1 PUSH2 0x27B2 JUMP JUMPDEST PUSH2 0x101 SLOAD PUSH1 0x0 SWAP1 PUSH2 0x1275 SWAP1 PUSH1 0x1 SWAP1 PUSH2 0x2891 JUMP JUMPDEST SWAP1 POP PUSH2 0x1280 DUP2 PUSH2 0xC1D JUMP JUMPDEST DUP2 PUSH2 0x101 DUP3 DUP2 SLOAD DUP2 LT PUSH2 0x12A3 JUMPI PUSH4 0x4E487B71 PUSH1 0xE0 SHL PUSH1 0x0 MSTORE PUSH1 0x32 PUSH1 0x4 MSTORE PUSH1 0x24 PUSH1 0x0 REVERT JUMPDEST PUSH1 0x0 SWAP2 DUP3 MSTORE PUSH1 0x20 SWAP1 SWAP2 KECCAK256 PUSH1 0x5 SWAP1 SWAP2 MUL ADD SSTORE POP PUSH2 0x103 SSTORE JUMP JUMPDEST PUSH1 0x33 SLOAD PUSH1 0xFF AND ISZERO PUSH2 0x12DE JUMPI PUSH1 0x40 MLOAD PUSH3 0x461BCD PUSH1 0xE5 SHL DUP2 MSTORE PUSH1 0x4 ADD PUSH2 0x5BB SWAP1 PUSH2 0x273A JUMP JUMPDEST PUSH1 0x0 PUSH2 0x101 DUP4 DUP2 SLOAD DUP2 LT PUSH2 0x1302 JUMPI PUSH4 0x4E487B71 PUSH1 0xE0 SHL PUSH1 0x0 MSTORE PUSH1 0x32 PUSH1 0x4 MSTORE PUSH1 0x24 PUSH1 0x0 REVERT JUMPDEST PUSH1 0x0 SWAP2 DUP3 MSTORE PUSH1 0x20 SWAP2 DUP3 SWAP1 KECCAK256 PUSH1 0x40 DUP1 MLOAD PUSH1 0xA0 DUP2 ADD DUP3 MSTORE PUSH1 0x5 SWAP1 SWAP4 MUL SWAP1 SWAP2 ADD DUP1 SLOAD DUP4 MSTORE PUSH1 0x1 DUP2 ADD SLOAD SWAP4 DUP4 ADD SWAP4 SWAP1 SWAP4 MSTORE PUSH1 0x2 DUP4 ADD SLOAD DUP3 DUP3 ADD MSTORE PUSH1 0x3 DUP4 ADD SLOAD PUSH1 0x60 DUP4 ADD DUP2 SWAP1 MSTORE PUSH1 0x4 SWAP4 DUP5 ADD SLOAD PUSH1 0x80 DUP5 ADD MSTORE PUSH1 0xFC SLOAD SWAP2 MLOAD PUSH4 0xE468271 PUSH1 0xE1 SHL DUP2 MSTORE SWAP3 SWAP5 POP PUSH1 0x1 PUSH1 0x1 PUSH1 0xA0 SHL SUB SWAP1 SWAP2 AND SWAP3 PUSH4 0x1C8D04E2 SWAP3 PUSH2 0x1381 SWAP3 CALLER SWAP3 SWAP1 SWAP2 ADD PUSH2 0x26C0 JUMP JUMPDEST PUSH1 0x20 PUSH1 0x40 MLOAD DUP1 DUP4 SUB DUP2 DUP7 DUP1 EXTCODESIZE ISZERO DUP1 ISZERO PUSH2 0x1399 JUMPI PUSH1 0x0 DUP1 REVERT JUMPDEST POP GAS STATICCALL ISZERO DUP1 ISZERO PUSH2 0x13AD JUMPI RETURNDATASIZE PUSH1 0x0 DUP1 RETURNDATACOPY RETURNDATASIZE PUSH1 0x0 REVERT JUMPDEST POP POP POP POP PUSH1 0x40 MLOAD RETURNDATASIZE PUSH1 0x1F NOT PUSH1 0x1F DUP3 ADD AND DUP3 ADD DUP1 PUSH1 0x40 MSTORE POP DUP2 ADD SWAP1 PUSH2 0x13D1 SWAP2 SWAP1 PUSH2 0x244B JUMP JUMPDEST PUSH2 0x1428 JUMPI PUSH1 0x40 MLOAD PUSH3 0x461BCD PUSH1 0xE5 SHL DUP2 MSTORE PUSH1 0x20 PUSH1 0x4 DUP3 ADD MSTORE PUSH1 0x22 PUSH1 0x24 DUP3 ADD MSTORE PUSH32 0x446964206E6F74206C6F736520746869732050726564696374696F6E20726F75 PUSH1 0x44 DUP3 ADD MSTORE PUSH2 0x1B99 PUSH1 0xF2 SHL PUSH1 0x64 DUP3 ADD MSTORE PUSH1 0x84 ADD PUSH2 0x5BB JUMP JUMPDEST PUSH1 0x0 DUP4 DUP2 MSTORE PUSH2 0x102 PUSH1 0x20 SWAP1 DUP2 MSTORE PUSH1 0x40 DUP1 DUP4 KECCAK256 CALLER DUP5 MSTORE SWAP1 SWAP2 MSTORE SWAP1 KECCAK256 PUSH2 0x144B DUP5 PUSH2 0xC1D JUMP JUMPDEST DUP1 SLOAD ISZERO PUSH2 0x149B JUMPI PUSH1 0x0 PUSH2 0x1487 DUP3 PUSH1 0x1 ADD SLOAD PUSH2 0xAD2 PUSH9 0x327CB2734119D3B7A9 PUSH1 0x1E SHL PUSH2 0xACC DUP8 PUSH1 0x40 ADD MLOAD DUP8 PUSH1 0x0 ADD SLOAD PUSH2 0x1AED SWAP1 SWAP2 SWAP1 PUSH4 0xFFFFFFFF AND JUMP JUMPDEST SWAP1 POP DUP1 ISZERO PUSH2 0x1499 JUMPI PUSH2 0x1499 CALLER DUP3 PUSH2 0x1B11 JUMP JUMPDEST POP JUMPDEST DUP3 ISZERO PUSH2 0x1668 JUMPI PUSH1 0xFB SLOAD PUSH1 0x40 MLOAD PUSH4 0x70A08231 PUSH1 0xE0 SHL DUP2 MSTORE PUSH1 0x0 SWAP2 PUSH1 0x1 PUSH1 0x1 PUSH1 0xA0 SHL SUB AND SWAP1 PUSH4 0x70A08231 SWAP1 PUSH2 0x14D2 SWAP1 ADDRESS SWAP1 PUSH1 0x4 ADD PUSH2 0x26AC JUMP JUMPDEST PUSH1 0x20 PUSH1 0x40 MLOAD DUP1 DUP4 SUB DUP2 DUP7 DUP1 EXTCODESIZE ISZERO DUP1 ISZERO PUSH2 0x14EA JUMPI PUSH1 0x0 DUP1 REVERT JUMPDEST POP GAS STATICCALL ISZERO DUP1 ISZERO PUSH2 0x14FE JUMPI RETURNDATASIZE PUSH1 0x0 DUP1 RETURNDATACOPY RETURNDATASIZE PUSH1 0x0 REVERT JUMPDEST POP POP POP POP PUSH1 0x40 MLOAD RETURNDATASIZE PUSH1 0x1F NOT PUSH1 0x1F DUP3 ADD AND DUP3 ADD DUP1 PUSH1 0x40 MSTORE POP DUP2 ADD SWAP1 PUSH2 0x1522 SWAP2 SWAP1 PUSH2 0x24E3 JUMP JUMPDEST PUSH1 0xFB SLOAD SWAP1 SWAP2 POP PUSH2 0x153D SWAP1 PUSH1 0x1 PUSH1 0x1 PUSH1 0xA0 SHL SUB AND CALLER ADDRESS DUP8 PUSH2 0x1D39 JUMP JUMPDEST PUSH1 0xFB SLOAD PUSH1 0x40 MLOAD PUSH4 0x70A08231 PUSH1 0xE0 SHL DUP2 MSTORE PUSH2 0x15CD SWAP2 PUSH2 0x15C5 SWAP2 DUP5 SWAP2 PUSH1 0x1 PUSH1 0x1 PUSH1 0xA0 SHL SUB AND SWAP1 PUSH4 0x70A08231 SWAP1 PUSH2 0x1575 SWAP1 ADDRESS SWAP1 PUSH1 0x4 ADD PUSH2 0x26AC JUMP JUMPDEST PUSH1 0x20 PUSH1 0x40 MLOAD DUP1 DUP4 SUB DUP2 DUP7 DUP1 EXTCODESIZE ISZERO DUP1 ISZERO PUSH2 0x158D JUMPI PUSH1 0x0 DUP1 REVERT JUMPDEST POP GAS STATICCALL ISZERO DUP1 ISZERO PUSH2 0x15A1 JUMPI RETURNDATASIZE PUSH1 0x0 DUP1 RETURNDATACOPY RETURNDATASIZE PUSH1 0x0 REVERT JUMPDEST POP POP POP POP PUSH1 0x40 MLOAD RETURNDATASIZE PUSH1 0x1F NOT PUSH1 0x1F DUP3 ADD AND DUP3 ADD DUP1 PUSH1 0x40 MSTORE POP DUP2 ADD SWAP1 PUSH2 0xAD2 SWAP2 SWAP1 PUSH2 0x24E3 JUMP JUMPDEST DUP4 SLOAD SWAP1 PUSH2 0x1BFF JUMP JUMPDEST DUP3 SSTORE PUSH1 0xFB SLOAD PUSH1 0x40 MLOAD PUSH4 0x70A08231 PUSH1 0xE0 SHL DUP2 MSTORE PUSH2 0x1612 SWAP2 PUSH2 0x1607 SWAP2 DUP5 SWAP2 PUSH1 0x1 PUSH1 0x1 PUSH1 0xA0 SHL SUB AND SWAP1 PUSH4 0x70A08231 SWAP1 PUSH2 0x1575 SWAP1 ADDRESS SWAP1 PUSH1 0x4 ADD PUSH2 0x26AC JUMP JUMPDEST PUSH1 0x80 DUP6 ADD MLOAD SWAP1 PUSH2 0x1BFF JUMP JUMPDEST PUSH1 0x80 DUP5 ADD MSTORE PUSH2 0x100 SLOAD DUP3 SLOAD GT ISZERO PUSH2 0x1666 JUMPI PUSH1 0x40 MLOAD PUSH3 0x461BCD PUSH1 0xE5 SHL DUP2 MSTORE PUSH1 0x20 PUSH1 0x4 DUP3 ADD MSTORE PUSH1 0x18 PUSH1 0x24 DUP3 ADD MSTORE PUSH24 0x13585E08141491510811195C1BDCDA5D0814995858DA1959 PUSH1 0x42 SHL PUSH1 0x44 DUP3 ADD MSTORE PUSH1 0x64 ADD PUSH2 0x5BB JUMP JUMPDEST POP JUMPDEST PUSH1 0x40 DUP3 ADD MLOAD DUP2 SLOAD PUSH2 0x168A SWAP2 PUSH9 0x327CB2734119D3B7A9 PUSH1 0x1E SHL SWAP2 PUSH2 0xACC SWAP2 PUSH2 0x1AED JUMP JUMPDEST DUP2 PUSH1 0x1 ADD DUP2 SWAP1 SSTORE POP DUP2 PUSH2 0x101 DUP6 DUP2 SLOAD DUP2 LT PUSH2 0x16B5 JUMPI PUSH4 0x4E487B71 PUSH1 0xE0 SHL PUSH1 0x0 MSTORE PUSH1 0x32 PUSH1 0x4 MSTORE PUSH1 0x24 PUSH1 0x0 REVERT JUMPDEST PUSH1 0x0 SWAP2 DUP3 MSTORE PUSH1 0x20 SWAP2 DUP3 SWAP1 KECCAK256 DUP4 MLOAD PUSH1 0x5 SWAP1 SWAP3 MUL ADD SWAP1 DUP2 SSTORE DUP3 DUP3 ADD MLOAD PUSH1 0x1 DUP3 ADD SSTORE PUSH1 0x40 DUP1 DUP5 ADD MLOAD PUSH1 0x2 DUP4 ADD SSTORE PUSH1 0x60 DUP5 ADD MLOAD PUSH1 0x3 DUP4 ADD SSTORE PUSH1 0x80 SWAP1 SWAP4 ADD MLOAD PUSH1 0x4 SWAP1 SWAP2 ADD SSTORE SWAP1 MLOAD DUP5 DUP2 MSTORE DUP6 SWAP2 CALLER SWAP2 PUSH32 0x90890809C654F11D6E72A28FA60149770A0D11EC6C92319D6CEB2BB0A4EA1A15 SWAP2 ADD PUSH1 0x40 MLOAD DUP1 SWAP2 SUB SWAP1 LOG3 POP POP POP POP JUMP JUMPDEST CALLER PUSH2 0x1738 PUSH2 0x112B JUMP JUMPDEST PUSH1 0x1 PUSH1 0x1 PUSH1 0xA0 SHL SUB AND EQ PUSH2 0x175E JUMPI PUSH1 0x40 MLOAD PUSH3 0x461BCD PUSH1 0xE5 SHL DUP2 MSTORE PUSH1 0x4 ADD PUSH2 0x5BB SWAP1 PUSH2 0x27B2 JUMP JUMPDEST PUSH1 0x1 PUSH1 0x1 PUSH1 0xA0 SHL SUB DUP2 AND PUSH2 0x17C3 JUMPI PUSH1 0x40 MLOAD PUSH3 0x461BCD PUSH1 0xE5 SHL DUP2 MSTORE PUSH1 0x20 PUSH1 0x4 DUP3 ADD MSTORE PUSH1 0x26 PUSH1 0x24 DUP3 ADD MSTORE PUSH32 0x4F776E61626C653A206E6577206F776E657220697320746865207A65726F2061 PUSH1 0x44 DUP3 ADD MSTORE PUSH6 0x646472657373 PUSH1 0xD0 SHL PUSH1 0x64 DUP3 ADD MSTORE PUSH1 0x84 ADD PUSH2 0x5BB JUMP JUMPDEST PUSH2 0x99C DUP2 PUSH2 0x1C0B JUMP JUMPDEST CALLER PUSH2 0x17D5 PUSH2 0x112B JUMP JUMPDEST PUSH1 0x1 PUSH1 0x1 PUSH1 0xA0 SHL SUB AND EQ PUSH2 0x17FB JUMPI PUSH1 0x40 MLOAD PUSH3 0x461BCD PUSH1 0xE5 SHL DUP2 MSTORE PUSH1 0x4 ADD PUSH2 0x5BB SWAP1 PUSH2 0x27B2 JUMP JUMPDEST PUSH1 0x0 PUSH2 0x104 SLOAD NUMBER GT PUSH2 0x1810 JUMPI PUSH2 0x104 SLOAD PUSH2 0x1812 JUMP JUMPDEST NUMBER JUMPDEST PUSH1 0x40 DUP1 MLOAD PUSH1 0xA0 DUP2 ADD DUP3 MSTORE SWAP5 DUP6 MSTORE PUSH1 0x20 DUP6 ADD SWAP2 DUP3 MSTORE PUSH1 0x0 SWAP1 DUP6 ADD DUP2 DUP2 MSTORE PUSH1 0x60 DUP7 ADD SWAP5 DUP6 MSTORE PUSH1 0x80 DUP7 ADD DUP3 DUP2 MSTORE PUSH2 0x101 DUP1 SLOAD PUSH1 0x1 DUP2 ADD DUP3 SSTORE SWAP4 MSTORE SWAP6 MLOAD PUSH32 0x109EA3CEBB188B9C1B9FC5BB3920BE60DFDC8699098DFF92F3D80DAACA747689 PUSH1 0x5 SWAP1 SWAP4 MUL SWAP3 DUP4 ADD SSTORE SWAP2 MLOAD PUSH32 0x109EA3CEBB188B9C1B9FC5BB3920BE60DFDC8699098DFF92F3D80DAACA74768A DUP3 ADD SSTORE SWAP1 MLOAD PUSH32 0x109EA3CEBB188B9C1B9FC5BB3920BE60DFDC8699098DFF92F3D80DAACA74768B DUP3 ADD SSTORE SWAP2 MLOAD PUSH32 0x109EA3CEBB188B9C1B9FC5BB3920BE60DFDC8699098DFF92F3D80DAACA74768C DUP4 ADD SSTORE POP SWAP1 MLOAD PUSH32 0x109EA3CEBB188B9C1B9FC5BB3920BE60DFDC8699098DFF92F3D80DAACA74768D SWAP1 SWAP2 ADD SSTORE JUMP JUMPDEST CALLER PUSH2 0x191A PUSH2 0x112B JUMP JUMPDEST PUSH1 0x1 PUSH1 0x1 PUSH1 0xA0 SHL SUB AND EQ PUSH2 0x99C JUMPI PUSH1 0x40 MLOAD PUSH3 0x461BCD PUSH1 0xE5 SHL DUP2 MSTORE PUSH1 0x4 ADD PUSH2 0x5BB SWAP1 PUSH2 0x27B2 JUMP JUMPDEST PUSH1 0x0 PUSH2 0x194A PUSH2 0x1D77 JUMP JUMPDEST SWAP1 POP PUSH2 0x1955 DUP5 PUSH2 0x1DA5 JUMP JUMPDEST PUSH1 0x0 DUP4 MLOAD GT DUP1 PUSH2 0x1962 JUMPI POP DUP2 JUMPDEST ISZERO PUSH2 0x1973 JUMPI PUSH2 0x1971 DUP5 DUP5 PUSH2 0x1E51 JUMP JUMPDEST POP JUMPDEST PUSH32 0x4910FDFA16FED3260ED0E7147F7CC6DA11A60208B5B9406D12A635614FFD9143 DUP1 SLOAD PUSH1 0xFF AND PUSH2 0x1A80 JUMPI DUP1 SLOAD PUSH1 0xFF NOT AND PUSH1 0x1 OR DUP2 SSTORE PUSH1 0x40 MLOAD PUSH2 0x19EE SWAP1 DUP7 SWAP1 PUSH2 0x19BF SWAP1 DUP6 SWAP1 PUSH1 0x24 ADD PUSH2 0x26AC JUMP JUMPDEST PUSH1 0x40 DUP1 MLOAD PUSH1 0x1F NOT DUP2 DUP5 SUB ADD DUP2 MSTORE SWAP2 SWAP1 MSTORE PUSH1 0x20 DUP2 ADD DUP1 MLOAD PUSH1 0x1 PUSH1 0x1 PUSH1 0xE0 SHL SUB AND PUSH4 0x1B2CE7F3 PUSH1 0xE1 SHL OR SWAP1 MSTORE PUSH2 0x1E51 JUMP JUMPDEST POP DUP1 SLOAD PUSH1 0xFF NOT AND DUP2 SSTORE PUSH2 0x19FF PUSH2 0x1D77 JUMP JUMPDEST PUSH1 0x1 PUSH1 0x1 PUSH1 0xA0 SHL SUB AND DUP3 PUSH1 0x1 PUSH1 0x1 PUSH1 0xA0 SHL SUB AND EQ PUSH2 0x1A77 JUMPI PUSH1 0x40 MLOAD PUSH3 0x461BCD PUSH1 0xE5 SHL DUP2 MSTORE PUSH1 0x20 PUSH1 0x4 DUP3 ADD MSTORE PUSH1 0x2F PUSH1 0x24 DUP3 ADD MSTORE PUSH32 0x45524331393637557067726164653A207570677261646520627265616B732066 PUSH1 0x44 DUP3 ADD MSTORE PUSH15 0x757274686572207570677261646573 PUSH1 0x88 SHL PUSH1 0x64 DUP3 ADD MSTORE PUSH1 0x84 ADD PUSH2 0x5BB JUMP JUMPDEST PUSH2 0x1A80 DUP6 PUSH2 0x1F43 JUMP JUMPDEST POP POP POP POP POP JUMP JUMPDEST PUSH1 0x33 SLOAD PUSH1 0xFF AND PUSH2 0x1AA9 JUMPI PUSH1 0x40 MLOAD PUSH3 0x461BCD PUSH1 0xE5 SHL DUP2 MSTORE PUSH1 0x4 ADD PUSH2 0x5BB SWAP1 PUSH2 0x270C JUMP JUMPDEST PUSH1 0x33 DUP1 SLOAD PUSH1 0xFF NOT AND SWAP1 SSTORE PUSH32 0x5DB9EE0A495BF2E6FF9C91A7834C1BA4FDD244A5E8AA4E537BD38AEAE4B073AA CALLER JUMPDEST PUSH1 0x40 MLOAD PUSH2 0x1AE3 SWAP2 SWAP1 PUSH2 0x26AC JUMP JUMPDEST PUSH1 0x40 MLOAD DUP1 SWAP2 SUB SWAP1 LOG1 JUMP JUMPDEST PUSH1 0x0 PUSH2 0x114E DUP3 DUP5 PUSH2 0x2872 JUMP JUMPDEST PUSH1 0x0 PUSH2 0x114E DUP3 DUP5 PUSH2 0x2852 JUMP JUMPDEST PUSH1 0x0 PUSH2 0x114E DUP3 DUP5 PUSH2 0x2891 JUMP JUMPDEST PUSH1 0xFF SLOAD PUSH1 0x40 MLOAD PUSH4 0x5944B017 PUSH1 0xE0 SHL DUP2 MSTORE PUSH2 0x1BA1 SWAP2 PUSH1 0x1 PUSH1 0x1 PUSH1 0xA0 SHL SUB AND SWAP1 PUSH4 0x5944B017 SWAP1 PUSH2 0x1B45 SWAP1 DUP7 SWAP1 DUP7 SWAP1 PUSH1 0x4 ADD PUSH2 0x26C0 JUMP JUMPDEST PUSH1 0x20 PUSH1 0x40 MLOAD DUP1 DUP4 SUB DUP2 PUSH1 0x0 DUP8 DUP1 EXTCODESIZE ISZERO DUP1 ISZERO PUSH2 0x1B5F JUMPI PUSH1 0x0 DUP1 REVERT JUMPDEST POP GAS CALL ISZERO DUP1 ISZERO PUSH2 0x1B73 JUMPI RETURNDATASIZE PUSH1 0x0 DUP1 RETURNDATACOPY RETURNDATASIZE PUSH1 0x0 REVERT JUMPDEST POP POP POP POP PUSH1 0x40 MLOAD RETURNDATASIZE PUSH1 0x1F NOT PUSH1 0x1F DUP3 ADD AND DUP3 ADD DUP1 PUSH1 0x40 MSTORE POP DUP2 ADD SWAP1 PUSH2 0x1B97 SWAP2 SWAP1 PUSH2 0x24E3 JUMP JUMPDEST PUSH2 0x105 SLOAD SWAP1 PUSH2 0x1B05 JUMP JUMPDEST PUSH2 0x105 SSTORE POP POP JUMP JUMPDEST PUSH2 0x931 DUP4 PUSH4 0xA9059CBB PUSH1 0xE0 SHL DUP5 DUP5 PUSH1 0x40 MLOAD PUSH1 0x24 ADD PUSH2 0x1BC8 SWAP3 SWAP2 SWAP1 PUSH2 0x26C0 JUMP JUMPDEST PUSH1 0x40 DUP1 MLOAD PUSH1 0x1F NOT DUP2 DUP5 SUB ADD DUP2 MSTORE SWAP2 SWAP1 MSTORE PUSH1 0x20 DUP2 ADD DUP1 MLOAD PUSH1 0x1 PUSH1 0x1 PUSH1 0xE0 SHL SUB AND PUSH1 0x1 PUSH1 0x1 PUSH1 0xE0 SHL SUB NOT SWAP1 SWAP4 AND SWAP3 SWAP1 SWAP3 OR SWAP1 SWAP2 MSTORE PUSH2 0x1F83 JUMP JUMPDEST PUSH1 0x0 PUSH2 0x114E DUP3 DUP5 PUSH2 0x283A JUMP JUMPDEST PUSH1 0xC9 DUP1 SLOAD PUSH1 0x1 PUSH1 0x1 PUSH1 0xA0 SHL SUB DUP4 DUP2 AND PUSH1 0x1 PUSH1 0x1 PUSH1 0xA0 SHL SUB NOT DUP4 AND DUP2 OR SWAP1 SWAP4 SSTORE PUSH1 0x40 MLOAD SWAP2 AND SWAP2 SWAP1 DUP3 SWAP1 PUSH32 0x8BE0079C531659141344CD1FD0A4F28419497F9722A3DAAFE3B4186F6B6457E0 SWAP1 PUSH1 0x0 SWAP1 LOG3 POP POP JUMP JUMPDEST PUSH1 0x33 SLOAD PUSH1 0xFF AND ISZERO PUSH2 0x1C80 JUMPI PUSH1 0x40 MLOAD PUSH3 0x461BCD PUSH1 0xE5 SHL DUP2 MSTORE PUSH1 0x4 ADD PUSH2 0x5BB SWAP1 PUSH2 0x273A JUMP JUMPDEST PUSH1 0x33 DUP1 SLOAD PUSH1 0xFF NOT AND PUSH1 0x1 OR SWAP1 SSTORE PUSH32 0x62E78CEA01BEE320CD4E420270B5EA74000D11B0C9F74754EBDBFC544B05A258 PUSH2 0x1AD6 CALLER SWAP1 JUMP JUMPDEST PUSH1 0x0 SLOAD PUSH2 0x100 SWAP1 DIV PUSH1 0xFF AND DUP1 PUSH2 0x1CCE JUMPI POP PUSH1 0x0 SLOAD PUSH1 0xFF AND ISZERO JUMPDEST PUSH2 0x1CEA JUMPI PUSH1 0x40 MLOAD PUSH3 0x461BCD PUSH1 0xE5 SHL DUP2 MSTORE PUSH1 0x4 ADD PUSH2 0x5BB SWAP1 PUSH2 0x2764 JUMP JUMPDEST PUSH1 0x0 SLOAD PUSH2 0x100 SWAP1 DIV PUSH1 0xFF AND ISZERO DUP1 ISZERO PUSH2 0x1D15 JUMPI PUSH1 0x0 DUP1 SLOAD PUSH1 0xFF NOT PUSH2 0xFF00 NOT SWAP1 SWAP2 AND PUSH2 0x100 OR AND PUSH1 0x1 OR SWAP1 SSTORE JUMPDEST PUSH2 0x1D1D PUSH2 0x2055 JUMP JUMPDEST PUSH2 0x1D25 PUSH2 0x20C8 JUMP JUMPDEST DUP1 ISZERO PUSH2 0x99C JUMPI PUSH1 0x0 DUP1 SLOAD PUSH2 0xFF00 NOT AND SWAP1 SSTORE POP JUMP JUMPDEST PUSH1 0x40 MLOAD PUSH1 0x1 PUSH1 0x1 PUSH1 0xA0 SHL SUB DUP1 DUP6 AND PUSH1 0x24 DUP4 ADD MSTORE DUP4 AND PUSH1 0x44 DUP3 ADD MSTORE PUSH1 0x64 DUP2 ADD DUP3 SWAP1 MSTORE PUSH2 0x1D71 SWAP1 DUP6 SWAP1 PUSH4 0x23B872DD PUSH1 0xE0 SHL SWAP1 PUSH1 0x84 ADD PUSH2 0x1BC8 JUMP JUMPDEST POP POP POP POP JUMP JUMPDEST PUSH32 0x360894A13BA1A3210667C828492DB98DCA3E2076CC3735A920A3CA505D382BBC SLOAD PUSH1 0x1 PUSH1 0x1 PUSH1 0xA0 SHL SUB AND SWAP1 JUMP JUMPDEST PUSH2 0x1DAE DUP2 PUSH2 0x2131 JUMP JUMPDEST PUSH2 0x1E10 JUMPI PUSH1 0x40 MLOAD PUSH3 0x461BCD PUSH1 0xE5 SHL DUP2 MSTORE PUSH1 0x20 PUSH1 0x4 DUP3 ADD MSTORE PUSH1 0x2D PUSH1 0x24 DUP3 ADD MSTORE PUSH32 0x455243313936373A206E657720696D706C656D656E746174696F6E206973206E PUSH1 0x44 DUP3 ADD MSTORE PUSH13 0x1BDD08184818DBDB9D1C9858DD PUSH1 0x9A SHL PUSH1 0x64 DUP3 ADD MSTORE PUSH1 0x84 ADD PUSH2 0x5BB JUMP JUMPDEST PUSH32 0x360894A13BA1A3210667C828492DB98DCA3E2076CC3735A920A3CA505D382BBC DUP1 SLOAD PUSH1 0x1 PUSH1 0x1 PUSH1 0xA0 SHL SUB NOT AND PUSH1 0x1 PUSH1 0x1 PUSH1 0xA0 SHL SUB SWAP3 SWAP1 SWAP3 AND SWAP2 SWAP1 SWAP2 OR SWAP1 SSTORE JUMP JUMPDEST PUSH1 0x60 PUSH2 0x1E5C DUP4 PUSH2 0x2131 JUMP JUMPDEST PUSH2 0x1EB7 JUMPI PUSH1 0x40 MLOAD PUSH3 0x461BCD PUSH1 0xE5 SHL DUP2 MSTORE PUSH1 0x20 PUSH1 0x4 DUP3 ADD MSTORE PUSH1 0x26 PUSH1 0x24 DUP3 ADD MSTORE PUSH32 0x416464726573733A2064656C65676174652063616C6C20746F206E6F6E2D636F PUSH1 0x44 DUP3 ADD MSTORE PUSH6 0x1B9D1C9858DD PUSH1 0xD2 SHL PUSH1 0x64 DUP3 ADD MSTORE PUSH1 0x84 ADD PUSH2 0x5BB JUMP JUMPDEST PUSH1 0x0 DUP1 DUP5 PUSH1 0x1 PUSH1 0x1 PUSH1 0xA0 SHL SUB AND DUP5 PUSH1 0x40 MLOAD PUSH2 0x1ED2 SWAP2 SWAP1 PUSH2 0x2690 JUMP JUMPDEST PUSH1 0x0 PUSH1 0x40 MLOAD DUP1 DUP4 SUB DUP2 DUP6 GAS DELEGATECALL SWAP2 POP POP RETURNDATASIZE DUP1 PUSH1 0x0 DUP2 EQ PUSH2 0x1F0D JUMPI PUSH1 0x40 MLOAD SWAP2 POP PUSH1 0x1F NOT PUSH1 0x3F RETURNDATASIZE ADD AND DUP3 ADD PUSH1 0x40 MSTORE RETURNDATASIZE DUP3 MSTORE RETURNDATASIZE PUSH1 0x0 PUSH1 0x20 DUP5 ADD RETURNDATACOPY PUSH2 0x1F12 JUMP JUMPDEST PUSH1 0x60 SWAP2 POP JUMPDEST POP SWAP2 POP SWAP2 POP PUSH2 0x1F3A DUP3 DUP3 PUSH1 0x40 MLOAD DUP1 PUSH1 0x60 ADD PUSH1 0x40 MSTORE DUP1 PUSH1 0x27 DUP2 MSTORE PUSH1 0x20 ADD PUSH2 0x2916 PUSH1 0x27 SWAP2 CODECOPY PUSH2 0x213B JUMP JUMPDEST SWAP6 SWAP5 POP POP POP POP POP JUMP JUMPDEST PUSH2 0x1F4C DUP2 PUSH2 0x1DA5 JUMP JUMPDEST PUSH1 0x40 MLOAD PUSH1 0x1 PUSH1 0x1 PUSH1 0xA0 SHL SUB DUP3 AND SWAP1 PUSH32 0xBC7CD75A20EE27FD9ADEBAB32041F755214DBC6BFFA90CC0225B39DA2E5C2D3B SWAP1 PUSH1 0x0 SWAP1 LOG2 POP JUMP JUMPDEST PUSH1 0x0 PUSH2 0x1FD8 DUP3 PUSH1 0x40 MLOAD DUP1 PUSH1 0x40 ADD PUSH1 0x40 MSTORE DUP1 PUSH1 0x20 DUP2 MSTORE PUSH1 0x20 ADD PUSH32 0x5361666545524332303A206C6F772D6C6576656C2063616C6C206661696C6564 DUP2 MSTORE POP DUP6 PUSH1 0x1 PUSH1 0x1 PUSH1 0xA0 SHL SUB AND PUSH2 0x2174 SWAP1 SWAP3 SWAP2 SWAP1 PUSH4 0xFFFFFFFF AND JUMP JUMPDEST DUP1 MLOAD SWAP1 SWAP2 POP ISZERO PUSH2 0x931 JUMPI DUP1 DUP1 PUSH1 0x20 ADD SWAP1 MLOAD DUP2 ADD SWAP1 PUSH2 0x1FF6 SWAP2 SWAP1 PUSH2 0x244B JUMP JUMPDEST PUSH2 0x931 JUMPI PUSH1 0x40 MLOAD PUSH3 0x461BCD PUSH1 0xE5 SHL DUP2 MSTORE PUSH1 0x20 PUSH1 0x4 DUP3 ADD MSTORE PUSH1 0x2A PUSH1 0x24 DUP3 ADD MSTORE PUSH32 0x5361666545524332303A204552433230206F7065726174696F6E20646964206E PUSH1 0x44 DUP3 ADD MSTORE PUSH10 0x1BDD081CDD58D8D95959 PUSH1 0xB2 SHL PUSH1 0x64 DUP3 ADD MSTORE PUSH1 0x84 ADD PUSH2 0x5BB JUMP JUMPDEST PUSH1 0x0 SLOAD PUSH2 0x100 SWAP1 DIV PUSH1 0xFF AND DUP1 PUSH2 0x206E JUMPI POP PUSH1 0x0 SLOAD PUSH1 0xFF AND ISZERO JUMPDEST PUSH2 0x208A JUMPI PUSH1 0x40 MLOAD PUSH3 0x461BCD PUSH1 0xE5 SHL DUP2 MSTORE PUSH1 0x4 ADD PUSH2 0x5BB SWAP1 PUSH2 0x2764 JUMP JUMPDEST PUSH1 0x0 SLOAD PUSH2 0x100 SWAP1 DIV PUSH1 0xFF AND ISZERO DUP1 ISZERO PUSH2 0x1D25 JUMPI PUSH1 0x0 DUP1 SLOAD PUSH1 0xFF NOT PUSH2 0xFF00 NOT SWAP1 SWAP2 AND PUSH2 0x100 OR AND PUSH1 0x1 OR SWAP1 SSTORE DUP1 ISZERO PUSH2 0x99C JUMPI PUSH1 0x0 DUP1 SLOAD PUSH2 0xFF00 NOT AND SWAP1 SSTORE POP JUMP JUMPDEST PUSH1 0x0 SLOAD PUSH2 0x100 SWAP1 DIV PUSH1 0xFF AND DUP1 PUSH2 0x20E1 JUMPI POP PUSH1 0x0 SLOAD PUSH1 0xFF AND ISZERO JUMPDEST PUSH2 0x20FD JUMPI PUSH1 0x40 MLOAD PUSH3 0x461BCD PUSH1 0xE5 SHL DUP2 MSTORE PUSH1 0x4 ADD PUSH2 0x5BB SWAP1 PUSH2 0x2764 JUMP JUMPDEST PUSH1 0x0 SLOAD PUSH2 0x100 SWAP1 DIV PUSH1 0xFF AND ISZERO DUP1 ISZERO PUSH2 0x2128 JUMPI PUSH1 0x0 DUP1 SLOAD PUSH1 0xFF NOT PUSH2 0xFF00 NOT SWAP1 SWAP2 AND PUSH2 0x100 OR AND PUSH1 0x1 OR SWAP1 SSTORE JUMPDEST PUSH2 0x1D25 CALLER PUSH2 0x1C0B JUMP JUMPDEST DUP1 EXTCODESIZE ISZERO ISZERO JUMPDEST SWAP2 SWAP1 POP JUMP JUMPDEST PUSH1 0x60 DUP4 ISZERO PUSH2 0x214A JUMPI POP DUP2 PUSH2 0x114E JUMP JUMPDEST DUP3 MLOAD ISZERO PUSH2 0x215A JUMPI DUP3 MLOAD DUP1 DUP5 PUSH1 0x20 ADD REVERT JUMPDEST DUP2 PUSH1 0x40 MLOAD PUSH3 0x461BCD PUSH1 0xE5 SHL DUP2 MSTORE PUSH1 0x4 ADD PUSH2 0x5BB SWAP2 SWAP1 PUSH2 0x26D9 JUMP JUMPDEST PUSH1 0x60 PUSH2 0x2183 DUP5 DUP5 PUSH1 0x0 DUP6 PUSH2 0x218B JUMP JUMPDEST SWAP5 SWAP4 POP POP POP POP JUMP JUMPDEST PUSH1 0x60 DUP3 SELFBALANCE LT ISZERO PUSH2 0x21EC JUMPI PUSH1 0x40 MLOAD PUSH3 0x461BCD PUSH1 0xE5 SHL DUP2 MSTORE PUSH1 0x20 PUSH1 0x4 DUP3 ADD MSTORE PUSH1 0x26 PUSH1 0x24 DUP3 ADD MSTORE PUSH32 0x416464726573733A20696E73756666696369656E742062616C616E636520666F PUSH1 0x44 DUP3 ADD MSTORE PUSH6 0x1C8818D85B1B PUSH1 0xD2 SHL PUSH1 0x64 DUP3 ADD MSTORE PUSH1 0x84 ADD PUSH2 0x5BB JUMP JUMPDEST PUSH2 0x21F5 DUP6 PUSH2 0x2131 JUMP JUMPDEST PUSH2 0x2241 JUMPI PUSH1 0x40 MLOAD PUSH3 0x461BCD PUSH1 0xE5 SHL DUP2 MSTORE PUSH1 0x20 PUSH1 0x4 DUP3 ADD MSTORE PUSH1 0x1D PUSH1 0x24 DUP3 ADD MSTORE PUSH32 0x416464726573733A2063616C6C20746F206E6F6E2D636F6E7472616374000000 PUSH1 0x44 DUP3 ADD MSTORE PUSH1 0x64 ADD PUSH2 0x5BB JUMP JUMPDEST PUSH1 0x0 DUP1 DUP7 PUSH1 0x1 PUSH1 0x1 PUSH1 0xA0 SHL SUB AND DUP6 DUP8 PUSH1 0x40 MLOAD PUSH2 0x225D SWAP2 SWAP1 PUSH2 0x2690 JUMP JUMPDEST PUSH1 0x0 PUSH1 0x40 MLOAD DUP1 DUP4 SUB DUP2 DUP6 DUP8 GAS CALL SWAP3 POP POP POP RETURNDATASIZE DUP1 PUSH1 0x0 DUP2 EQ PUSH2 0x229A JUMPI PUSH1 0x40 MLOAD SWAP2 POP PUSH1 0x1F NOT PUSH1 0x3F RETURNDATASIZE ADD AND DUP3 ADD PUSH1 0x40 MSTORE RETURNDATASIZE DUP3 MSTORE RETURNDATASIZE PUSH1 0x0 PUSH1 0x20 DUP5 ADD RETURNDATACOPY PUSH2 0x229F JUMP JUMPDEST PUSH1 0x60 SWAP2 POP JUMPDEST POP SWAP2 POP SWAP2 POP PUSH2 0x10B0 DUP3 DUP3 DUP7 PUSH2 0x213B JUMP JUMPDEST PUSH1 0x0 DUP3 PUSH1 0x1F DUP4 ADD SLT PUSH2 0x22BF JUMPI DUP1 DUP2 REVERT JUMPDEST DUP2 MLOAD PUSH1 0x20 PUSH2 0x22D4 PUSH2 0x22CF DUP4 PUSH2 0x2817 JUMP JUMPDEST PUSH2 0x27E7 JUMP JUMPDEST DUP3 DUP2 MSTORE DUP2 DUP2 ADD SWAP1 DUP6 DUP4 ADD DUP4 DUP6 MUL DUP8 ADD DUP5 ADD DUP9 LT ISZERO PUSH2 0x22F0 JUMPI DUP6 DUP7 REVERT JUMPDEST DUP6 JUMPDEST DUP6 DUP2 LT ISZERO PUSH2 0x2317 JUMPI DUP2 MLOAD PUSH2 0x2305 DUP2 PUSH2 0x2900 JUMP JUMPDEST DUP5 MSTORE SWAP3 DUP5 ADD SWAP3 SWAP1 DUP5 ADD SWAP1 PUSH1 0x1 ADD PUSH2 0x22F2 JUMP JUMPDEST POP SWAP1 SWAP8 SWAP7 POP POP POP POP POP POP POP JUMP JUMPDEST PUSH1 0x0 DUP3 PUSH1 0x1F DUP4 ADD SLT PUSH2 0x2334 JUMPI DUP1 DUP2 REVERT JUMPDEST DUP2 MLOAD PUSH1 0x20 PUSH2 0x2344 PUSH2 0x22CF DUP4 PUSH2 0x2817 JUMP JUMPDEST DUP3 DUP2 MSTORE DUP2 DUP2 ADD SWAP1 DUP6 DUP4 ADD DUP4 DUP6 MUL DUP8 ADD DUP5 ADD DUP9 LT ISZERO PUSH2 0x2360 JUMPI DUP6 DUP7 REVERT JUMPDEST DUP6 JUMPDEST DUP6 DUP2 LT ISZERO PUSH2 0x2317 JUMPI DUP2 MLOAD DUP5 MSTORE SWAP3 DUP5 ADD SWAP3 SWAP1 DUP5 ADD SWAP1 PUSH1 0x1 ADD PUSH2 0x2362 JUMP JUMPDEST DUP1 MLOAD DUP1 ISZERO ISZERO DUP2 EQ PUSH2 0x2136 JUMPI PUSH1 0x0 DUP1 REVERT JUMPDEST PUSH1 0x0 PUSH1 0x20 DUP3 DUP5 SUB SLT ISZERO PUSH2 0x239F JUMPI DUP1 DUP2 REVERT JUMPDEST DUP2 CALLDATALOAD PUSH2 0x114E DUP2 PUSH2 0x2900 JUMP JUMPDEST PUSH1 0x0 DUP1 PUSH1 0x40 DUP4 DUP6 SUB SLT ISZERO PUSH2 0x23BC JUMPI DUP1 DUP2 REVERT JUMPDEST DUP3 CALLDATALOAD PUSH2 0x23C7 DUP2 PUSH2 0x2900 JUMP JUMPDEST SWAP2 POP PUSH1 0x20 DUP4 DUP2 ADD CALLDATALOAD PUSH1 0x1 PUSH1 0x1 PUSH1 0x40 SHL SUB DUP1 DUP3 GT ISZERO PUSH2 0x23E3 JUMPI DUP4 DUP5 REVERT JUMPDEST DUP2 DUP7 ADD SWAP2 POP DUP7 PUSH1 0x1F DUP4 ADD SLT PUSH2 0x23F6 JUMPI DUP4 DUP5 REVERT JUMPDEST DUP2 CALLDATALOAD DUP2 DUP2 GT ISZERO PUSH2 0x2408 JUMPI PUSH2 0x2408 PUSH2 0x28EA JUMP JUMPDEST PUSH2 0x241A PUSH1 0x1F DUP3 ADD PUSH1 0x1F NOT AND DUP6 ADD PUSH2 0x27E7 JUMP JUMPDEST SWAP2 POP DUP1 DUP3 MSTORE DUP8 DUP5 DUP3 DUP6 ADD ADD GT ISZERO PUSH2 0x242F JUMPI DUP5 DUP6 REVERT JUMPDEST DUP1 DUP5 DUP5 ADD DUP6 DUP5 ADD CALLDATACOPY DUP2 ADD SWAP1 SWAP3 ADD SWAP3 SWAP1 SWAP3 MSTORE SWAP2 SWAP5 SWAP2 SWAP4 POP SWAP1 SWAP2 POP POP JUMP JUMPDEST PUSH1 0x0 PUSH1 0x20 DUP3 DUP5 SUB SLT ISZERO PUSH2 0x245C JUMPI DUP1 DUP2 REVERT JUMPDEST PUSH2 0x114E DUP3 PUSH2 0x237E JUMP JUMPDEST PUSH1 0x0 DUP1 PUSH1 0x0 DUP1 PUSH1 0x0 DUP1 PUSH1 0xC0 DUP8 DUP10 SUB SLT ISZERO PUSH2 0x247D JUMPI DUP2 DUP3 REVERT JUMPDEST DUP7 CALLDATALOAD PUSH2 0x2488 DUP2 PUSH2 0x2900 JUMP JUMPDEST SWAP6 POP PUSH1 0x20 DUP8 ADD CALLDATALOAD SWAP5 POP PUSH1 0x40 DUP8 ADD CALLDATALOAD SWAP4 POP PUSH1 0x60 DUP8 ADD CALLDATALOAD SWAP3 POP PUSH1 0x80 DUP8 ADD CALLDATALOAD PUSH2 0x24AD DUP2 PUSH2 0x2900 JUMP JUMPDEST SWAP2 POP PUSH1 0xA0 DUP8 ADD CALLDATALOAD PUSH2 0x24BD DUP2 PUSH2 0x2900 JUMP JUMPDEST DUP1 SWAP2 POP POP SWAP3 SWAP6 POP SWAP3 SWAP6 POP SWAP3 SWAP6 JUMP JUMPDEST PUSH1 0x0 PUSH1 0x20 DUP3 DUP5 SUB SLT ISZERO PUSH2 0x24DC JUMPI DUP1 DUP2 REVERT JUMPDEST POP CALLDATALOAD SWAP2 SWAP1 POP JUMP JUMPDEST PUSH1 0x0 PUSH1 0x20 DUP3 DUP5 SUB SLT ISZERO PUSH2 0x24F4 JUMPI DUP1 DUP2 REVERT JUMPDEST POP MLOAD SWAP2 SWAP1 POP JUMP JUMPDEST PUSH1 0x0 DUP1 PUSH1 0x40 DUP4 DUP6 SUB SLT ISZERO PUSH2 0x250D JUMPI DUP2 DUP3 REVERT JUMPDEST DUP3 CALLDATALOAD SWAP2 POP PUSH1 0x20 DUP4 ADD CALLDATALOAD PUSH2 0x251F DUP2 PUSH2 0x2900 JUMP JUMPDEST DUP1 SWAP2 POP POP SWAP3 POP SWAP3 SWAP1 POP JUMP JUMPDEST PUSH1 0x0 DUP1 PUSH1 0x40 DUP4 DUP6 SUB SLT ISZERO PUSH2 0x253C JUMPI DUP2 DUP3 REVERT JUMPDEST POP POP DUP1 CALLDATALOAD SWAP3 PUSH1 0x20 SWAP1 SWAP2 ADD CALLDATALOAD SWAP2 POP JUMP JUMPDEST PUSH1 0x0 DUP1 PUSH1 0x0 DUP1 PUSH1 0x0 DUP1 PUSH1 0x0 DUP1 PUSH1 0x0 DUP1 PUSH1 0x0 PUSH2 0x160 DUP13 DUP15 SUB SLT ISZERO PUSH2 0x256C JUMPI DUP9 DUP10 REVERT JUMPDEST DUP12 MLOAD SWAP11 POP PUSH1 0x20 DUP13 ADD MLOAD SWAP10 POP PUSH1 0x40 DUP13 ADD MLOAD SWAP9 POP PUSH1 0x60 DUP13 ADD MLOAD SWAP8 POP PUSH2 0x2591 PUSH1 0x80 DUP14 ADD PUSH2 0x237E JUMP JUMPDEST SWAP7 POP PUSH1 0xA0 DUP13 ADD MLOAD PUSH1 0x1 PUSH1 0x1 PUSH1 0x40 SHL SUB DUP2 GT ISZERO PUSH2 0x25AB JUMPI DUP6 DUP7 REVERT JUMPDEST PUSH2 0x25B7 DUP15 DUP3 DUP16 ADD PUSH2 0x22AF JUMP JUMPDEST SWAP7 POP POP PUSH1 0xC0 DUP13 ADD MLOAD PUSH1 0x1 PUSH1 0x1 PUSH1 0x40 SHL SUB DUP2 GT ISZERO PUSH2 0x25D2 JUMPI DUP6 DUP7 REVERT JUMPDEST PUSH2 0x25DE DUP15 DUP3 DUP16 ADD PUSH2 0x2324 JUMP JUMPDEST SWAP6 POP POP PUSH1 0xE0 DUP13 ADD MLOAD PUSH1 0x1 PUSH1 0x1 PUSH1 0x40 SHL SUB DUP2 GT ISZERO PUSH2 0x25F9 JUMPI DUP5 DUP6 REVERT JUMPDEST PUSH2 0x2605 DUP15 DUP3 DUP16 ADD PUSH2 0x2324 JUMP JUMPDEST SWAP5 POP POP PUSH2 0x100 DUP13 ADD MLOAD PUSH1 0x1 PUSH1 0x1 PUSH1 0x40 SHL SUB DUP2 GT ISZERO PUSH2 0x2621 JUMPI DUP4 DUP5 REVERT JUMPDEST PUSH2 0x262D DUP15 DUP3 DUP16 ADD PUSH2 0x2324 JUMP JUMPDEST SWAP4 POP POP PUSH2 0x120 DUP13 ADD MLOAD PUSH1 0x1 PUSH1 0x1 PUSH1 0x40 SHL SUB DUP2 GT ISZERO PUSH2 0x2649 JUMPI DUP3 DUP4 REVERT JUMPDEST PUSH2 0x2655 DUP15 DUP3 DUP16 ADD PUSH2 0x2324 JUMP JUMPDEST SWAP3 POP POP PUSH2 0x140 DUP13 ADD MLOAD PUSH1 0x1 PUSH1 0x1 PUSH1 0x40 SHL SUB DUP2 GT ISZERO PUSH2 0x2671 JUMPI DUP2 DUP3 REVERT JUMPDEST PUSH2 0x267D DUP15 DUP3 DUP16 ADD PUSH2 0x2324 JUMP JUMPDEST SWAP2 POP POP SWAP3 SWAP6 SWAP9 SWAP12 POP SWAP3 SWAP6 SWAP9 SWAP12 SWAP1 SWAP4 SWAP7 SWAP10 POP JUMP JUMPDEST PUSH1 0x0 DUP3 MLOAD PUSH2 0x26A2 DUP2 DUP5 PUSH1 0x20 DUP8 ADD PUSH2 0x28A8 JUMP JUMPDEST SWAP2 SWAP1 SWAP2 ADD SWAP3 SWAP2 POP POP JUMP JUMPDEST PUSH1 0x1 PUSH1 0x1 PUSH1 0xA0 SHL SUB SWAP2 SWAP1 SWAP2 AND DUP2 MSTORE PUSH1 0x20 ADD SWAP1 JUMP JUMPDEST PUSH1 0x1 PUSH1 0x1 PUSH1 0xA0 SHL SUB SWAP3 SWAP1 SWAP3 AND DUP3 MSTORE PUSH1 0x20 DUP3 ADD MSTORE PUSH1 0x40 ADD SWAP1 JUMP JUMPDEST PUSH1 0x0 PUSH1 0x20 DUP3 MSTORE DUP3 MLOAD DUP1 PUSH1 0x20 DUP5 ADD MSTORE PUSH2 0x26F8 DUP2 PUSH1 0x40 DUP6 ADD PUSH1 0x20 DUP8 ADD PUSH2 0x28A8 JUMP JUMPDEST PUSH1 0x1F ADD PUSH1 0x1F NOT AND SWAP2 SWAP1 SWAP2 ADD PUSH1 0x40 ADD SWAP3 SWAP2 POP POP JUMP JUMPDEST PUSH1 0x20 DUP1 DUP3 MSTORE PUSH1 0x14 SWAP1 DUP3 ADD MSTORE PUSH20 0x14185D5CD8589B194E881B9BDD081C185D5CD959 PUSH1 0x62 SHL PUSH1 0x40 DUP3 ADD MSTORE PUSH1 0x60 ADD SWAP1 JUMP JUMPDEST PUSH1 0x20 DUP1 DUP3 MSTORE PUSH1 0x10 SWAP1 DUP3 ADD MSTORE PUSH16 0x14185D5CD8589B194E881C185D5CD959 PUSH1 0x82 SHL PUSH1 0x40 DUP3 ADD MSTORE PUSH1 0x60 ADD SWAP1 JUMP JUMPDEST PUSH1 0x20 DUP1 DUP3 MSTORE PUSH1 0x2E SWAP1 DUP3 ADD MSTORE PUSH32 0x496E697469616C697A61626C653A20636F6E747261637420697320616C726561 PUSH1 0x40 DUP3 ADD MSTORE PUSH14 0x191E481A5B9A5D1A585B1A5E9959 PUSH1 0x92 SHL PUSH1 0x60 DUP3 ADD MSTORE PUSH1 0x80 ADD SWAP1 JUMP JUMPDEST PUSH1 0x20 DUP1 DUP3 MSTORE DUP2 DUP2 ADD MSTORE PUSH32 0x4F776E61626C653A2063616C6C6572206973206E6F7420746865206F776E6572 PUSH1 0x40 DUP3 ADD MSTORE PUSH1 0x60 ADD SWAP1 JUMP JUMPDEST PUSH1 0x40 MLOAD PUSH1 0x1F DUP3 ADD PUSH1 0x1F NOT AND DUP2 ADD PUSH1 0x1 PUSH1 0x1 PUSH1 0x40 SHL SUB DUP2 GT DUP3 DUP3 LT OR ISZERO PUSH2 0x280F JUMPI PUSH2 0x280F PUSH2 0x28EA JUMP JUMPDEST PUSH1 0x40 MSTORE SWAP2 SWAP1 POP JUMP JUMPDEST PUSH1 0x0 PUSH1 0x1 PUSH1 0x1 PUSH1 0x40 SHL SUB DUP3 GT ISZERO PUSH2 0x2830 JUMPI PUSH2 0x2830 PUSH2 0x28EA JUMP JUMPDEST POP PUSH1 0x20 SWAP1 DUP2 MUL ADD SWAP1 JUMP JUMPDEST PUSH1 0x0 DUP3 NOT DUP3 GT ISZERO PUSH2 0x284D JUMPI PUSH2 0x284D PUSH2 0x28D4 JUMP JUMPDEST POP ADD SWAP1 JUMP JUMPDEST PUSH1 0x0 DUP3 PUSH2 0x286D JUMPI PUSH4 0x4E487B71 PUSH1 0xE0 SHL DUP2 MSTORE PUSH1 0x12 PUSH1 0x4 MSTORE PUSH1 0x24 DUP2 REVERT JUMPDEST POP DIV SWAP1 JUMP JUMPDEST PUSH1 0x0 DUP2 PUSH1 0x0 NOT DIV DUP4 GT DUP3 ISZERO ISZERO AND ISZERO PUSH2 0x288C JUMPI PUSH2 0x288C PUSH2 0x28D4 JUMP JUMPDEST POP MUL SWAP1 JUMP JUMPDEST PUSH1 0x0 DUP3 DUP3 LT ISZERO PUSH2 0x28A3 JUMPI PUSH2 0x28A3 PUSH2 0x28D4 JUMP JUMPDEST POP SUB SWAP1 JUMP JUMPDEST PUSH1 0x0 JUMPDEST DUP4 DUP2 LT ISZERO PUSH2 0x28C3 JUMPI DUP2 DUP2 ADD MLOAD DUP4 DUP3 ADD MSTORE PUSH1 0x20 ADD PUSH2 0x28AB JUMP JUMPDEST DUP4 DUP2 GT ISZERO PUSH2 0x1D71 JUMPI POP POP PUSH1 0x0 SWAP2 ADD MSTORE JUMP JUMPDEST PUSH4 0x4E487B71 PUSH1 0xE0 SHL PUSH1 0x0 MSTORE PUSH1 0x11 PUSH1 0x4 MSTORE PUSH1 0x24 PUSH1 0x0 REVERT JUMPDEST PUSH4 0x4E487B71 PUSH1 0xE0 SHL PUSH1 0x0 MSTORE PUSH1 0x41 PUSH1 0x4 MSTORE PUSH1 0x24 PUSH1 0x0 REVERT JUMPDEST PUSH1 0x1 PUSH1 0x1 PUSH1 0xA0 SHL SUB DUP2 AND DUP2 EQ PUSH2 0x99C JUMPI PUSH1 0x0 DUP1 REVERT INVALID COINBASE PUSH5 0x6472657373 GASPRICE KECCAK256 PUSH13 0x6F772D6C6576656C2064656C65 PUSH8 0x6174652063616C6C KECCAK256 PUSH7 0x61696C6564A264 PUSH10 0x706673582212203AD0ED EXTCODESIZE PUSH30 0xAB9801E31D6C6C18F625044D6614F485E5FC10E4D250F32E4DCD6464736F PUSH13 0x63430008020033000000000000 "
		},
		"gasEstimates": {
			"creation": {
				"codeDepositCost": "2122000",
				"executionCost": "2258",
				"totalCost": "2124258"
			},
			"external": {
				"BONUS_MULTIPLIER()": "1073",
				"add(uint256)": "infinite",
				"allocPoint()": "1072",
				"bnbPerBlock()": "1029",
				"deposit(uint256,uint256)": "infinite",
				"emergencyWithdraw(uint256)": "infinite",
				"getMultiplier(uint256,uint256)": "infinite",
				"getPoolLength()": "992",
				"initialize(address,uint256,uint256,uint256,address,address)": "infinite",
				"maxPredDeposit()": "1161",
				"owner()": "1181",
				"pause()": "23898",
				"paused()": "1125",
				"pendingBNB(uint256,address)": "infinite",
				"poolInfo(uint256)": "5395",
				"poolLength()": "994",
				"pred()": "1215",
				"prediction()": "1151",
				"renounceOwnership()": "23485",
				"setAllocPoint(uint256)": "infinite",
				"setMaxPredDeposit(uint256)": "20278",
				"startBlock()": "1162",
				"totalRewardDebt()": "1029",
				"transferOwnership(address)": "infinite",
				"unpause()": "23942",
				"updateMultiplier(uint256)": "21264",
				"updatePool(uint256)": "infinite",
				"upgradeTo(address)": "infinite",
				"upgradeToAndCall(address,bytes)": "infinite",
				"userInfo(uint256,address)": "2310",
				"wallet()": "1150",
				"withdraw(uint256,uint256)": "infinite"
			},
			"internal": {
				"_add(uint256,uint256)": "infinite",
				"_authorizeUpgrade(address)": "infinite",
				"safePredTransfer(address,uint256)": "infinite"
			}
		},
		"methodIdentifiers": {
			"BONUS_MULTIPLIER()": "8aa28550",
			"add(uint256)": "1003e2d2",
			"allocPoint()": "d3dd7eb7",
			"bnbPerBlock()": "50b48710",
			"deposit(uint256,uint256)": "e2bbb158",
			"emergencyWithdraw(uint256)": "5312ea8e",
			"getMultiplier(uint256,uint256)": "8dbb1e3a",
			"getPoolLength()": "b3944d52",
			"initialize(address,uint256,uint256,uint256,address,address)": "bf9fe138",
			"maxPredDeposit()": "ae5241a0",
			"owner()": "8da5cb5b",
			"pause()": "8456cb59",
			"paused()": "5c975abb",
			"pendingBNB(uint256,address)": "63a1fce2",
			"poolInfo(uint256)": "1526fe27",
			"poolLength()": "081e3eda",
			"pred()": "e5c9ad2e",
			"prediction()": "2372c916",
			"renounceOwnership()": "715018a6",
			"setAllocPoint(uint256)": "e0747c96",
			"setMaxPredDeposit(uint256)": "c26780b0",
			"startBlock()": "48cd4cb1",
			"totalRewardDebt()": "83bb3877",
			"transferOwnership(address)": "f2fde38b",
			"unpause()": "3f4ba83a",
			"updateMultiplier(uint256)": "5ffe6146",
			"updatePool(uint256)": "51eb05a6",
			"upgradeTo(address)": "3659cfe6",
			"upgradeToAndCall(address,bytes)": "4f1ef286",
			"userInfo(uint256,address)": "93f1a40b",
			"wallet()": "521eb273",
			"withdraw(uint256,uint256)": "441a3e70"
		}
	},
	"abi": [
		{
			"anonymous": false,
			"inputs": [
				{
					"indexed": false,
					"internalType": "address",
					"name": "previousAdmin",
					"type": "address"
				},
				{
					"indexed": false,
					"internalType": "address",
					"name": "newAdmin",
					"type": "address"
				}
			],
			"name": "AdminChanged",
			"type": "event"
		},
		{
			"anonymous": false,
			"inputs": [
				{
					"indexed": true,
					"internalType": "address",
					"name": "beacon",
					"type": "address"
				}
			],
			"name": "BeaconUpgraded",
			"type": "event"
		},
		{
			"anonymous": false,
			"inputs": [
				{
					"indexed": true,
					"internalType": "address",
					"name": "user",
					"type": "address"
				},
				{
					"indexed": true,
					"internalType": "uint256",
					"name": "pid",
					"type": "uint256"
				},
				{
					"indexed": false,
					"internalType": "uint256",
					"name": "amount",
					"type": "uint256"
				}
			],
			"name": "Deposit",
			"type": "event"
		},
		{
			"anonymous": false,
			"inputs": [
				{
					"indexed": true,
					"internalType": "address",
					"name": "user",
					"type": "address"
				},
				{
					"indexed": true,
					"internalType": "uint256",
					"name": "pid",
					"type": "uint256"
				},
				{
					"indexed": false,
					"internalType": "uint256",
					"name": "amount",
					"type": "uint256"
				}
			],
			"name": "EmergencyWithdraw",
			"type": "event"
		},
		{
			"anonymous": false,
			"inputs": [
				{
					"indexed": true,
					"internalType": "address",
					"name": "previousOwner",
					"type": "address"
				},
				{
					"indexed": true,
					"internalType": "address",
					"name": "newOwner",
					"type": "address"
				}
			],
			"name": "OwnershipTransferred",
			"type": "event"
		},
		{
			"anonymous": false,
			"inputs": [
				{
					"indexed": false,
					"internalType": "address",
					"name": "account",
					"type": "address"
				}
			],
			"name": "Paused",
			"type": "event"
		},
		{
			"anonymous": false,
			"inputs": [
				{
					"indexed": false,
					"internalType": "address",
					"name": "account",
					"type": "address"
				}
			],
			"name": "Unpaused",
			"type": "event"
		},
		{
			"anonymous": false,
			"inputs": [
				{
					"indexed": true,
					"internalType": "address",
					"name": "implementation",
					"type": "address"
				}
			],
			"name": "Upgraded",
			"type": "event"
		},
		{
			"anonymous": false,
			"inputs": [
				{
					"indexed": true,
					"internalType": "address",
					"name": "user",
					"type": "address"
				},
				{
					"indexed": true,
					"internalType": "uint256",
					"name": "pid",
					"type": "uint256"
				},
				{
					"indexed": false,
					"internalType": "uint256",
					"name": "amount",
					"type": "uint256"
				}
			],
			"name": "Withdraw",
			"type": "event"
		},
		{
			"inputs": [],
			"name": "BONUS_MULTIPLIER",
			"outputs": [
				{
					"internalType": "uint256",
					"name": "",
					"type": "uint256"
				}
			],
			"stateMutability": "view",
			"type": "function"
		},
		{
			"inputs": [
				{
					"internalType": "uint256",
					"name": "_epoch",
					"type": "uint256"
				}
			],
			"name": "add",
			"outputs": [],
			"stateMutability": "nonpayable",
			"type": "function"
		},
		{
			"inputs": [],
			"name": "allocPoint",
			"outputs": [
				{
					"internalType": "uint256",
					"name": "",
					"type": "uint256"
				}
			],
			"stateMutability": "view",
			"type": "function"
		},
		{
			"inputs": [],
			"name": "bnbPerBlock",
			"outputs": [
				{
					"internalType": "uint256",
					"name": "",
					"type": "uint256"
				}
			],
			"stateMutability": "view",
			"type": "function"
		},
		{
			"inputs": [
				{
					"internalType": "uint256",
					"name": "_pid",
					"type": "uint256"
				},
				{
					"internalType": "uint256",
					"name": "_amount",
					"type": "uint256"
				}
			],
			"name": "deposit",
			"outputs": [],
			"stateMutability": "nonpayable",
			"type": "function"
		},
		{
			"inputs": [
				{
					"internalType": "uint256",
					"name": "_pid",
					"type": "uint256"
				}
			],
			"name": "emergencyWithdraw",
			"outputs": [],
			"stateMutability": "nonpayable",
			"type": "function"
		},
		{
			"inputs": [
				{
					"internalType": "uint256",
					"name": "_from",
					"type": "uint256"
				},
				{
					"internalType": "uint256",
					"name": "_to",
					"type": "uint256"
				}
			],
			"name": "getMultiplier",
			"outputs": [
				{
					"internalType": "uint256",
					"name": "",
					"type": "uint256"
				}
			],
			"stateMutability": "view",
			"type": "function"
		},
		{
			"inputs": [],
			"name": "getPoolLength",
			"outputs": [
				{
					"internalType": "uint256",
					"name": "",
					"type": "uint256"
				}
			],
			"stateMutability": "view",
			"type": "function"
		},
		{
			"inputs": [
				{
					"internalType": "contract IBEP20",
					"name": "_pred",
					"type": "address"
				},
				{
					"internalType": "uint256",
					"name": "_bnbPerBlock",
					"type": "uint256"
				},
				{
					"internalType": "uint256",
					"name": "_startBlock",
					"type": "uint256"
				},
				{
					"internalType": "uint256",
					"name": "_maxPredDeposit",
					"type": "uint256"
				},
				{
					"internalType": "contract PredictionWallet",
					"name": "_wallet",
					"type": "address"
				},
				{
					"internalType": "contract IPrediction",
					"name": "_prediction",
					"type": "address"
				}
			],
			"name": "initialize",
			"outputs": [],
			"stateMutability": "nonpayable",
			"type": "function"
		},
		{
			"inputs": [],
			"name": "maxPredDeposit",
			"outputs": [
				{
					"internalType": "uint256",
					"name": "",
					"type": "uint256"
				}
			],
			"stateMutability": "view",
			"type": "function"
		},
		{
			"inputs": [],
			"name": "owner",
			"outputs": [
				{
					"internalType": "address",
					"name": "",
					"type": "address"
				}
			],
			"stateMutability": "view",
			"type": "function"
		},
		{
			"inputs": [],
			"name": "pause",
			"outputs": [],
			"stateMutability": "nonpayable",
			"type": "function"
		},
		{
			"inputs": [],
			"name": "paused",
			"outputs": [
				{
					"internalType": "bool",
					"name": "",
					"type": "bool"
				}
			],
			"stateMutability": "view",
			"type": "function"
		},
		{
			"inputs": [
				{
					"internalType": "uint256",
					"name": "_pid",
					"type": "uint256"
				},
				{
					"internalType": "address",
					"name": "_user",
					"type": "address"
				}
			],
			"name": "pendingBNB",
			"outputs": [
				{
					"internalType": "uint256",
					"name": "",
					"type": "uint256"
				}
			],
			"stateMutability": "view",
			"type": "function"
		},
		{
			"inputs": [
				{
					"internalType": "uint256",
					"name": "",
					"type": "uint256"
				}
			],
			"name": "poolInfo",
			"outputs": [
				{
					"internalType": "uint256",
					"name": "allocPoint",
					"type": "uint256"
				},
				{
					"internalType": "uint256",
					"name": "lastRewardBlock",
					"type": "uint256"
				},
				{
					"internalType": "uint256",
					"name": "accBNBPerShare",
					"type": "uint256"
				},
				{
					"internalType": "uint256",
					"name": "epoch",
					"type": "uint256"
				},
				{
					"internalType": "uint256",
					"name": "amount",
					"type": "uint256"
				}
			],
			"stateMutability": "view",
			"type": "function"
		},
		{
			"inputs": [],
			"name": "poolLength",
			"outputs": [
				{
					"internalType": "uint256",
					"name": "",
					"type": "uint256"
				}
			],
			"stateMutability": "view",
			"type": "function"
		},
		{
			"inputs": [],
			"name": "pred",
			"outputs": [
				{
					"internalType": "contract IBEP20",
					"name": "",
					"type": "address"
				}
			],
			"stateMutability": "view",
			"type": "function"
		},
		{
			"inputs": [],
			"name": "prediction",
			"outputs": [
				{
					"internalType": "contract IPrediction",
					"name": "",
					"type": "address"
				}
			],
			"stateMutability": "view",
			"type": "function"
		},
		{
			"inputs": [],
			"name": "renounceOwnership",
			"outputs": [],
			"stateMutability": "nonpayable",
			"type": "function"
		},
		{
			"inputs": [
				{
					"internalType": "uint256",
					"name": "_allocPoint",
					"type": "uint256"
				}
			],
			"name": "setAllocPoint",
			"outputs": [],
			"stateMutability": "nonpayable",
			"type": "function"
		},
		{
			"inputs": [
				{
					"internalType": "uint256",
					"name": "_maxPredDeposit",
					"type": "uint256"
				}
			],
			"name": "setMaxPredDeposit",
			"outputs": [],
			"stateMutability": "nonpayable",
			"type": "function"
		},
		{
			"inputs": [],
			"name": "startBlock",
			"outputs": [
				{
					"internalType": "uint256",
					"name": "",
					"type": "uint256"
				}
			],
			"stateMutability": "view",
			"type": "function"
		},
		{
			"inputs": [],
			"name": "totalRewardDebt",
			"outputs": [
				{
					"internalType": "uint256",
					"name": "",
					"type": "uint256"
				}
			],
			"stateMutability": "view",
			"type": "function"
		},
		{
			"inputs": [
				{
					"internalType": "address",
					"name": "newOwner",
					"type": "address"
				}
			],
			"name": "transferOwnership",
			"outputs": [],
			"stateMutability": "nonpayable",
			"type": "function"
		},
		{
			"inputs": [],
			"name": "unpause",
			"outputs": [],
			"stateMutability": "nonpayable",
			"type": "function"
		},
		{
			"inputs": [
				{
					"internalType": "uint256",
					"name": "multiplierNumber",
					"type": "uint256"
				}
			],
			"name": "updateMultiplier",
			"outputs": [],
			"stateMutability": "nonpayable",
			"type": "function"
		},
		{
			"inputs": [
				{
					"internalType": "uint256",
					"name": "_pid",
					"type": "uint256"
				}
			],
			"name": "updatePool",
			"outputs": [],
			"stateMutability": "nonpayable",
			"type": "function"
		},
		{
			"inputs": [
				{
					"internalType": "address",
					"name": "newImplementation",
					"type": "address"
				}
			],
			"name": "upgradeTo",
			"outputs": [],
			"stateMutability": "nonpayable",
			"type": "function"
		},
		{
			"inputs": [
				{
					"internalType": "address",
					"name": "newImplementation",
					"type": "address"
				},
				{
					"internalType": "bytes",
					"name": "data",
					"type": "bytes"
				}
			],
			"name": "upgradeToAndCall",
			"outputs": [],
			"stateMutability": "payable",
			"type": "function"
		},
		{
			"inputs": [
				{
					"internalType": "uint256",
					"name": "",
					"type": "uint256"
				},
				{
					"internalType": "address",
					"name": "",
					"type": "address"
				}
			],
			"name": "userInfo",
			"outputs": [
				{
					"internalType": "uint256",
					"name": "amount",
					"type": "uint256"
				},
				{
					"internalType": "uint256",
					"name": "rewardDebt",
					"type": "uint256"
				}
			],
			"stateMutability": "view",
			"type": "function"
		},
		{
			"inputs": [],
			"name": "wallet",
			"outputs": [
				{
					"internalType": "contract PredictionWallet",
					"name": "",
					"type": "address"
				}
			],
			"stateMutability": "view",
			"type": "function"
		},
		{
			"inputs": [
				{
					"internalType": "uint256",
					"name": "_pid",
					"type": "uint256"
				},
				{
					"internalType": "uint256",
					"name": "_amount",
					"type": "uint256"
				}
			],
			"name": "withdraw",
			"outputs": [],
			"stateMutability": "nonpayable",
			"type": "function"
		}
	]
}