{
	"data": {
		"bytecode": {
			"linkReferences": {},
			"object": "60806040523480156200001157600080fd5b5061962980620000226000396000f3fe6080604052600436106102fe5760003560e01c80637667180811610190578063addd5099116100dc578063e5c9ad2e11610095578063f2b3c8091161006f578063f2b3c80914610b5d578063f2fde38b14610b88578063fc6f946814610bb1578063ff59bcd014610bdc576102fe565b8063e5c9ad2e14610adc578063eaba236114610b07578063ec32470314610b32576102fe565b8063addd5099146109bc578063b29a8140146109f9578063b3ab15fb14610a22578063cf2f503914610a4b578063d24257c014610a74578063dd1f759614610a9f576102fe565b80638ba796af116101495780638f1327c0116101235780638f1327c0146108e257806390df00c614610929578063951fd60014610952578063aa6ca80814610991576102fe565b80638ba796af1461084d5780638c65c81f146108765780638da5cb5b146108b7576102fe565b8063766718081461073b57806378d5f781146107665780637b3039651461078f5780637bf41254146107ce5780637d1cd04f1461080b5780638456cb5914610836576102fe565b806355e3f0861161024f57806362bfdf0411610208578063704b6c02116101e2578063704b6c02146106a4578063715018a6146106cd5780637285c58b146106e4578063749aa2d914610724576102fe565b806362bfdf04146106295780636ba4c138146106525780636e36c6781461067b576102fe565b806355e3f0861461053d57806357abd0f81461055457806358f7f6d21461057d5780635c975abb146105a85780635ea9417c146105d357806360554011146105fe576102fe565b8063296a80a9116102bc5780633f4ba83a116102965780633f4ba83a146104a45780634f1ef286146104bb5780634f64b2be146104d757806353a79d7414610514576102fe565b8063296a80a9146104275780633659cfe614610450578063368acb0914610479576102fe565b80623bdc7414610303578063127effb21461031a5780631521604e146103455780631c8d04e21461038257806324360ae4146103bf578063273867d4146103ea575b600080fd5b34801561030f57600080fd5b50610318610c05565b005b34801561032657600080fd5b5061032f610dfc565b60405161033c91906180ac565b60405180910390f35b34801561035157600080fd5b5061036c60048036038101906103679190617579565b610e23565b6040516103799190618203565b60405180910390f35b34801561038e57600080fd5b506103a960048036038101906103a49190617579565b61120b565b6040516103b69190618203565b60405180910390f35b3480156103cb57600080fd5b506103d46115f4565b6040516103e1919061875b565b60405180910390f35b3480156103f657600080fd5b50610411600480360381019061040c919061744a565b6115fb565b60405161041e919061875b565b60405180910390f35b34801561043357600080fd5b5061044e60048036038101906104499190617748565b611648565b005b34801561045c57600080fd5b506104776004803603810190610472919061744a565b611d0e565b005b34801561048557600080fd5b5061048e611d35565b60405161049b919061875b565b60405180910390f35b3480156104b057600080fd5b506104b9611d3c565b005b6104d560048036038101906104d09190617525565b611e4e565b005b3480156104e357600080fd5b506104fe60048036038101906104f9919061771f565b611e67565b60405161050b91906180ac565b60405180910390f35b34801561052057600080fd5b5061053b6004803603810190610536919061771f565b611ea7565b005b34801561054957600080fd5b5061055261200c565b005b34801561056057600080fd5b5061057b60048036038101906105769190617748565b612130565b005b34801561058957600080fd5b506105926127f6565b60405161059f91906180ac565b60405180910390f35b3480156105b457600080fd5b506105bd61280e565b6040516105ca9190618203565b60405180910390f35b3480156105df57600080fd5b506105e8612825565b6040516105f5919061875b565b60405180910390f35b34801561060a57600080fd5b5061061361282c565b604051610620919061875b565b60405180910390f35b34801561063557600080fd5b50610650600480360381019061064b9190617604565b612833565b005b34801561065e57600080fd5b5061067960048036038101906106749190617670565b612dc4565b005b34801561068757600080fd5b506106a2600480360381019061069d919061771f565b6131a2565b005b3480156106b057600080fd5b506106cb60048036038101906106c6919061744a565b6132bc565b005b3480156106d957600080fd5b506106e2613424565b005b3480156106f057600080fd5b5061070b60048036038101906107069190617748565b6134ac565b60405161071b9493929190618254565b60405180910390f35b34801561073057600080fd5b50610739613524565b005b34801561074757600080fd5b5061075061363b565b60405161075d919061875b565b60405180910390f35b34801561077257600080fd5b5061078d60048036038101906107889190617604565b613642565b005b34801561079b57600080fd5b506107b660048036038101906107b1919061771f565b613bd9565b6040516107c593929190618172565b60405180910390f35b3480156107da57600080fd5b506107f560048036038101906107f09190617748565b613e60565b6040516108029190618203565b60405180910390f35b34801561081757600080fd5b50610820614034565b60405161082d919061875b565b60405180910390f35b34801561084257600080fd5b5061084b61403b565b005b34801561085957600080fd5b50610874600480360381019061086f9190617473565b6141a7565b005b34801561088257600080fd5b5061089d6004803603810190610898919061771f565b614344565b6040516108ae95949392919061879f565b60405180910390f35b3480156108c357600080fd5b506108cc614388565b6040516108d991906180ac565b60405180910390f35b3480156108ee57600080fd5b506109096004803603810190610904919061771f565b6143b2565b6040516109209b9a999897969594939291906187f2565b60405180910390f35b34801561093557600080fd5b50610950600480360381019061094b9190617784565b614964565b005b34801561095e57600080fd5b50610979600480360381019061097491906175b5565b614b16565b604051610988939291906181be565b60405180910390f35b34801561099d57600080fd5b506109a6614fac565b6040516109b39190618150565b60405180910390f35b3480156109c857600080fd5b506109e360048036038101906109de919061744a565b61503b565b6040516109f0919061821e565b60405180910390f35b348015610a0557600080fd5b50610a206004803603810190610a1b9190617579565b61506f565b005b348015610a2e57600080fd5b50610a496004803603810190610a44919061744a565b6151eb565b005b348015610a5757600080fd5b50610a726004803603810190610a6d919061771f565b615368565b005b348015610a8057600080fd5b50610a89615482565b604051610a96919061875b565b60405180910390f35b348015610aab57600080fd5b50610ac66004803603810190610ac19190617579565b615489565b604051610ad3919061875b565b60405180910390f35b348015610ae857600080fd5b50610af16154bb565b604051610afe9190618239565b60405180910390f35b348015610b1357600080fd5b50610b1c6154d3565b604051610b29919061875b565b60405180910390f35b348015610b3e57600080fd5b50610b476154da565b604051610b54919061875b565b60405180910390f35b348015610b6957600080fd5b50610b726154e1565b604051610b7f919061875b565b60405180910390f35b348015610b9457600080fd5b50610baf6004803603810190610baa919061744a565b6154e7565b005b348015610bbd57600080fd5b50610bc66155df565b604051610bd391906180ac565b60405180910390f35b348015610be857600080fd5b50610c036004803603810190610bfe91906176b5565b615606565b005b60026097541415610c4b576040517f08c379a0000000000000000000000000000000000000000000000000000000008152600401610c429061867b565b60405180910390fd5b600260978190555061012d60009054906101000a900473ffffffffffffffffffffffffffffffffffffffff1673ffffffffffffffffffffffffffffffffffffffff163373ffffffffffffffffffffffffffffffffffffffff1614610ce4576040517f08c379a0000000000000000000000000000000000000000000000000000000008152600401610cdb9061871b565b60405180910390fd5b600061013354905060006101338190555073b2d7b35539a543bbe4c74965488ffe33c6721f0d73ffffffffffffffffffffffffffffffffffffffff1663a9059cbb61012d60009054906101000a900473ffffffffffffffffffffffffffffffffffffffff16836040518363ffffffff1660e01b8152600401610d67929190618127565b602060405180830381600087803b158015610d8157600080fd5b505af1158015610d95573d6000803e3d6000fd5b505050506040513d601f19601f82011682018060405250810190610db991906176f6565b507fb9197c6b8e21274bd1e2d9c956a88af5cfee510f630fab3f046300f88b42236181604051610de9919061875b565b60405180910390a1506001609781905550565b61012e60009054906101000a900473ffffffffffffffffffffffffffffffffffffffff1681565b600080610138600084815260200190815260200160002060008573ffffffffffffffffffffffffffffffffffffffff1673ffffffffffffffffffffffffffffffffffffffff1681526020019081526020016000206040518060800160405290816000820160009054906101000a900460ff166001811115610ecd577f4e487b7100000000000000000000000000000000000000000000000000000000600052602160045260246000fd5b6001811115610f05577f4e487b7100000000000000000000000000000000000000000000000000000000600052602160045260246000fd5b81526020016000820160019054906101000a900473ffffffffffffffffffffffffffffffffffffffff1673ffffffffffffffffffffffffffffffffffffffff1673ffffffffffffffffffffffffffffffffffffffff168152602001600182015481526020016002820160009054906101000a900460ff1615151515815250509050600073ffffffffffffffffffffffffffffffffffffffff16816020015173ffffffffffffffffffffffffffffffffffffffff161480610fc6575080606001515b80610ff35750610139600084815260200190815260200160002060040160009054906101000a900460ff16155b15611002576000915050611205565b6101396000848152602001908152602001600020600b016000826020015173ffffffffffffffffffffffffffffffffffffffff1673ffffffffffffffffffffffffffffffffffffffff168152602001908152602001600020546101396000858152602001908152602001600020600a016000836020015173ffffffffffffffffffffffffffffffffffffffff1673ffffffffffffffffffffffffffffffffffffffff1681526020019081526020016000205414156110c4576000915050611205565b60006101396000858152602001908152602001600020600b016000836020015173ffffffffffffffffffffffffffffffffffffffff1673ffffffffffffffffffffffffffffffffffffffff168152602001908152602001600020546101396000868152602001908152602001600020600a016000846020015173ffffffffffffffffffffffffffffffffffffffff1673ffffffffffffffffffffffffffffffffffffffff1681526020019081526020016000205413611184576000611187565b60015b90508060018111156111c2577f4e487b7100000000000000000000000000000000000000000000000000000000600052602160045260246000fd5b826000015160018111156111ff577f4e487b7100000000000000000000000000000000000000000000000000000000600052602160045260246000fd5b14925050505b92915050565b600080610138600084815260200190815260200160002060008573ffffffffffffffffffffffffffffffffffffffff1673ffffffffffffffffffffffffffffffffffffffff1681526020019081526020016000206040518060800160405290816000820160009054906101000a900460ff1660018111156112b5577f4e487b7100000000000000000000000000000000000000000000000000000000600052602160045260246000fd5b60018111156112ed577f4e487b7100000000000000000000000000000000000000000000000000000000600052602160045260246000fd5b81526020016000820160019054906101000a900473ffffffffffffffffffffffffffffffffffffffff1673ffffffffffffffffffffffffffffffffffffffff1673ffffffffffffffffffffffffffffffffffffffff168152602001600182015481526020016002820160009054906101000a900460ff1615151515815250509050600073ffffffffffffffffffffffffffffffffffffffff16816020015173ffffffffffffffffffffffffffffffffffffffff1614806113ae575080606001515b806113db5750610139600084815260200190815260200160002060040160009054906101000a900460ff16155b156113ea5760009150506115ee565b6101396000848152602001908152602001600020600b016000826020015173ffffffffffffffffffffffffffffffffffffffff1673ffffffffffffffffffffffffffffffffffffffff168152602001908152602001600020546101396000858152602001908152602001600020600a016000836020015173ffffffffffffffffffffffffffffffffffffffff1673ffffffffffffffffffffffffffffffffffffffff1681526020019081526020016000205414156114ac5760019150506115ee565b60006101396000858152602001908152602001600020600b016000836020015173ffffffffffffffffffffffffffffffffffffffff1673ffffffffffffffffffffffffffffffffffffffff168152602001908152602001600020546101396000868152602001908152602001600020600a016000846020015173ffffffffffffffffffffffffffffffffffffffff1673ffffffffffffffffffffffffffffffffffffffff168152602001908152602001600020541361156c57600061156f565b60015b90508060018111156115aa577f4e487b7100000000000000000000000000000000000000000000000000000000600052602160045260246000fd5b826000015160018111156115e7577f4e487b7100000000000000000000000000000000000000000000000000000000600052602160045260246000fd5b1415925050505b92915050565b6101315481565b600061013a60008373ffffffffffffffffffffffffffffffffffffffff1673ffffffffffffffffffffffffffffffffffffffff168152602001908152602001600020805490509050919050565b61165061280e565b15611690576040517f08c379a00000000000000000000000000000000000000000000000000000000081526004016116879061847b565b60405180910390fd5b600260975414156116d6576040517f08c379a00000000000000000000000000000000000000000000000000000000081526004016116cd9061867b565b60405180910390fd5b60026097819055506116e733615cab565b15611727576040517f08c379a000000000000000000000000000000000000000000000000000000000815260040161171e9061839b565b60405180910390fd5b3273ffffffffffffffffffffffffffffffffffffffff163373ffffffffffffffffffffffffffffffffffffffff1614611795576040517f08c379a000000000000000000000000000000000000000000000000000000000815260040161178c906184db565b60405180910390fd5b6101355482146117da576040517f08c379a00000000000000000000000000000000000000000000000000000000081526004016117d19061869b565b60405180910390fd5b6117e382615cbe565b611822576040517f08c379a00000000000000000000000000000000000000000000000000000000081526004016118199061855b565b60405180910390fd5b6000610138600084815260200190815260200160002060003373ffffffffffffffffffffffffffffffffffffffff1673ffffffffffffffffffffffffffffffffffffffff16815260200190815260200160002060010154146118b9576040517f08c379a00000000000000000000000000000000000000000000000000000000081526004016118b09061861b565b60405180910390fd5b600073ffffffffffffffffffffffffffffffffffffffff1661013b60008373ffffffffffffffffffffffffffffffffffffffff1673ffffffffffffffffffffffffffffffffffffffff16815260200190815260200160002060009054906101000a900473ffffffffffffffffffffffffffffffffffffffff1673ffffffffffffffffffffffffffffffffffffffff161415611989576040517f08c379a00000000000000000000000000000000000000000000000000000000081526004016119809061873b565b60405180910390fd5b61013454610139600084815260200190815260200160002060070160008373ffffffffffffffffffffffffffffffffffffffff1673ffffffffffffffffffffffffffffffffffffffff1681526020019081526020016000205411156119ed57600080fd5b6000610132549050611a3633308373b2d7b35539a543bbe4c74965488ffe33c6721f0d73ffffffffffffffffffffffffffffffffffffffff16615d34909392919063ffffffff16565b600061013960008581526020019081526020016000209050818160030154611a5e9190618a8b565b81600301819055506001610139600086815260200190815260200160002060070160008573ffffffffffffffffffffffffffffffffffffffff1673ffffffffffffffffffffffffffffffffffffffff1681526020019081526020016000206000828254611acb9190618a8b565b925050819055506001610139600086815260200190815260200160002060090160008573ffffffffffffffffffffffffffffffffffffffff1673ffffffffffffffffffffffffffffffffffffffff1681526020019081526020016000206000828254611b379190618a8b565b925050819055506000610138600086815260200190815260200160002060003373ffffffffffffffffffffffffffffffffffffffff1673ffffffffffffffffffffffffffffffffffffffff168152602001908152602001600020905060018160000160006101000a81548160ff02191690836001811115611be1577f4e487b7100000000000000000000000000000000000000000000000000000000600052602160045260246000fd5b0217905550828160010181905550838160000160016101000a81548173ffffffffffffffffffffffffffffffffffffffff021916908373ffffffffffffffffffffffffffffffffffffffff16021790555061013a60003373ffffffffffffffffffffffffffffffffffffffff1673ffffffffffffffffffffffffffffffffffffffff1681526020019081526020016000208590806001815401808255809150506001900390600052602060002001600090919091909150558373ffffffffffffffffffffffffffffffffffffffff16853373ffffffffffffffffffffffffffffffffffffffff167fa5b25d36f56cd85e4b0c405e26aa36e3ccd1bd65be483beb9fd00199e7fe034586604051611cf7919061875b565b60405180910390a450505060016097819055505050565b611d1781615dbd565b611d3281604051806020016040528060008152506000615e3c565b50565b6101335481565b611d4461280e565b611d83576040517f08c379a0000000000000000000000000000000000000000000000000000000008152600401611d7a906182bb565b60405180910390fd5b61012d60009054906101000a900473ffffffffffffffffffffffffffffffffffffffff1673ffffffffffffffffffffffffffffffffffffffff163373ffffffffffffffffffffffffffffffffffffffff1614611e14576040517f08c379a0000000000000000000000000000000000000000000000000000000008152600401611e0b9061871b565b60405180910390fd5b611e1c61600d565b610135547faaa520fdd7d2c83061d632fa017b0432407e798818af63ea908589fceda39ab760405160405180910390a2565b611e5782615dbd565b611e6382826001615e3c565b5050565b61013c8181548110611e7857600080fd5b906000526020600020016000915054906101000a900473ffffffffffffffffffffffffffffffffffffffff1681565b611eaf61280e565b611eee576040517f08c379a0000000000000000000000000000000000000000000000000000000008152600401611ee5906182bb565b60405180910390fd5b61012d60009054906101000a900473ffffffffffffffffffffffffffffffffffffffff1673ffffffffffffffffffffffffffffffffffffffff163373ffffffffffffffffffffffffffffffffffffffff1614611f7f576040517f08c379a0000000000000000000000000000000000000000000000000000000008152600401611f769061871b565b60405180910390fd5b6000811415611fc3576040517f08c379a0000000000000000000000000000000000000000000000000000000008152600401611fba9061857b565b60405180910390fd5b8061013281905550610135547f756a45c9025a507f68e64742cf8cdddcfed355f7bc0f53c062b31f698cd3cf7661013254604051612001919061875b565b60405180910390a250565b61201461280e565b15612054576040517f08c379a000000000000000000000000000000000000000000000000000000000815260040161204b9061847b565b60405180910390fd5b61012e60009054906101000a900473ffffffffffffffffffffffffffffffffffffffff1673ffffffffffffffffffffffffffffffffffffffff163373ffffffffffffffffffffffffffffffffffffffff16146120e5576040517f08c379a00000000000000000000000000000000000000000000000000000000081526004016120dc906186fb565b60405180910390fd5b6001610135546120f59190618a8b565b61013581905550600161013554111561211957612114610135546160af565b612126565b61212561013554616188565b5b61212e616204565b565b61213861280e565b15612178576040517f08c379a000000000000000000000000000000000000000000000000000000000815260040161216f9061847b565b60405180910390fd5b600260975414156121be576040517f08c379a00000000000000000000000000000000000000000000000000000000081526004016121b59061867b565b60405180910390fd5b60026097819055506121cf33615cab565b1561220f576040517f08c379a00000000000000000000000000000000000000000000000000000000081526004016122069061839b565b60405180910390fd5b3273ffffffffffffffffffffffffffffffffffffffff163373ffffffffffffffffffffffffffffffffffffffff161461227d576040517f08c379a0000000000000000000000000000000000000000000000000000000008152600401612274906184db565b60405180910390fd5b6101355482146122c2576040517f08c379a00000000000000000000000000000000000000000000000000000000081526004016122b99061869b565b60405180910390fd5b6122cb82615cbe565b61230a576040517f08c379a00000000000000000000000000000000000000000000000000000000081526004016123019061855b565b60405180910390fd5b6000610138600084815260200190815260200160002060003373ffffffffffffffffffffffffffffffffffffffff1673ffffffffffffffffffffffffffffffffffffffff16815260200190815260200160002060010154146123a1576040517f08c379a00000000000000000000000000000000000000000000000000000000081526004016123989061861b565b60405180910390fd5b600073ffffffffffffffffffffffffffffffffffffffff1661013b60008373ffffffffffffffffffffffffffffffffffffffff1673ffffffffffffffffffffffffffffffffffffffff16815260200190815260200160002060009054906101000a900473ffffffffffffffffffffffffffffffffffffffff1673ffffffffffffffffffffffffffffffffffffffff161415612471576040517f08c379a00000000000000000000000000000000000000000000000000000000081526004016124689061873b565b60405180910390fd5b61013454610139600084815260200190815260200160002060070160008373ffffffffffffffffffffffffffffffffffffffff1673ffffffffffffffffffffffffffffffffffffffff1681526020019081526020016000205411156124d557600080fd5b600061013254905061251e33308373b2d7b35539a543bbe4c74965488ffe33c6721f0d73ffffffffffffffffffffffffffffffffffffffff16615d34909392919063ffffffff16565b6000610139600085815260200190815260200160002090508181600301546125469190618a8b565b81600301819055506001610139600086815260200190815260200160002060070160008573ffffffffffffffffffffffffffffffffffffffff1673ffffffffffffffffffffffffffffffffffffffff16815260200190815260200160002060008282546125b39190618a8b565b925050819055506001610139600086815260200190815260200160002060080160008573ffffffffffffffffffffffffffffffffffffffff1673ffffffffffffffffffffffffffffffffffffffff168152602001908152602001600020600082825461261f9190618a8b565b925050819055506000610138600086815260200190815260200160002060003373ffffffffffffffffffffffffffffffffffffffff1673ffffffffffffffffffffffffffffffffffffffff168152602001908152602001600020905060008160000160006101000a81548160ff021916908360018111156126c9577f4e487b7100000000000000000000000000000000000000000000000000000000600052602160045260246000fd5b0217905550828160010181905550838160000160016101000a81548173ffffffffffffffffffffffffffffffffffffffff021916908373ffffffffffffffffffffffffffffffffffffffff16021790555061013a60003373ffffffffffffffffffffffffffffffffffffffff1673ffffffffffffffffffffffffffffffffffffffff1681526020019081526020016000208590806001815401808255809150506001900390600052602060002001600090919091909150558373ffffffffffffffffffffffffffffffffffffffff16853373ffffffffffffffffffffffffffffffffffffffff167fd6901fb0fb7d389370275133fe2d4b4cadcef7f51e8683d3e1faccb425908a10866040516127df919061875b565b60405180910390a450505060016097819055505050565b73eeeeeeeeeeeeeeeeeeeeeeeeeeeeeeeeeeeeeeee81565b6000606560009054906101000a900460ff16905090565b6101345481565b6101375481565b61283b61280e565b1561287b576040517f08c379a00000000000000000000000000000000000000000000000000000000081526004016128729061847b565b60405180910390fd5b61012d60009054906101000a900473ffffffffffffffffffffffffffffffffffffffff1673ffffffffffffffffffffffffffffffffffffffff163373ffffffffffffffffffffffffffffffffffffffff161461290c576040517f08c379a00000000000000000000000000000000000000000000000000000000081526004016129039061871b565b60405180910390fd5b60005b8251811015612dbf57600073ffffffffffffffffffffffffffffffffffffffff16838281518110612969577f4e487b7100000000000000000000000000000000000000000000000000000000600052603260045260246000fd5b602002602001015173ffffffffffffffffffffffffffffffffffffffff1614158015612a025750600073ffffffffffffffffffffffffffffffffffffffff168282815181106129e1577f4e487b7100000000000000000000000000000000000000000000000000000000600052603260045260246000fd5b602002602001015173ffffffffffffffffffffffffffffffffffffffff1614155b612a41576040517f08c379a0000000000000000000000000000000000000000000000000000000008152600401612a38906183db565b60405180910390fd5b600073ffffffffffffffffffffffffffffffffffffffff1661013b6000858481518110612a97577f4e487b7100000000000000000000000000000000000000000000000000000000600052603260045260246000fd5b602002602001015173ffffffffffffffffffffffffffffffffffffffff1673ffffffffffffffffffffffffffffffffffffffff16815260200190815260200160002060009054906101000a900473ffffffffffffffffffffffffffffffffffffffff1673ffffffffffffffffffffffffffffffffffffffff1614612b50576040517f08c379a0000000000000000000000000000000000000000000000000000000008152600401612b47906182fb565b60405180910390fd5b61013c838281518110612b8c577f4e487b7100000000000000000000000000000000000000000000000000000000600052603260045260246000fd5b60200260200101519080600181540180825580915050600190039060005260206000200160009091909190916101000a81548173ffffffffffffffffffffffffffffffffffffffff021916908373ffffffffffffffffffffffffffffffffffffffff160217905550818181518110612c2d577f4e487b7100000000000000000000000000000000000000000000000000000000600052603260045260246000fd5b602002602001015161013b6000858481518110612c73577f4e487b7100000000000000000000000000000000000000000000000000000000600052603260045260246000fd5b602002602001015173ffffffffffffffffffffffffffffffffffffffff1673ffffffffffffffffffffffffffffffffffffffff16815260200190815260200160002060006101000a81548173ffffffffffffffffffffffffffffffffffffffff021916908373ffffffffffffffffffffffffffffffffffffffff1602179055507fdffbd9ded1c09446f09377de547142dcce7dc541c8b0b028142b1eba7026b9e7838281518110612d4d577f4e487b7100000000000000000000000000000000000000000000000000000000600052603260045260246000fd5b6020026020010151838381518110612d8e577f4e487b7100000000000000000000000000000000000000000000000000000000600052603260045260246000fd5b6020026020010151604051612da49291906180c7565b60405180910390a18080612db790618c5d565b91505061290f565b505050565b60026097541415612e0a576040517f08c379a0000000000000000000000000000000000000000000000000000000008152600401612e019061867b565b60405180910390fd5b6002609781905550612e1b33615cab565b15612e5b576040517f08c379a0000000000000000000000000000000000000000000000000000000008152600401612e529061839b565b60405180910390fd5b3273ffffffffffffffffffffffffffffffffffffffff163373ffffffffffffffffffffffffffffffffffffffff1614612ec9576040517f08c379a0000000000000000000000000000000000000000000000000000000008152600401612ec0906184db565b60405180910390fd5b600080600090505b8383905081101561315557612f25848483818110612f18577f4e487b7100000000000000000000000000000000000000000000000000000000600052603260045260246000fd5b9050602002013533613e60565b612f64576040517f08c379a0000000000000000000000000000000000000000000000000000000008152600401612f5b906182db565b60405180910390fd5b60016101386000868685818110612fa4577f4e487b7100000000000000000000000000000000000000000000000000000000600052603260045260246000fd5b90506020020135815260200190815260200160002060003373ffffffffffffffffffffffffffffffffffffffff1673ffffffffffffffffffffffffffffffffffffffff16815260200190815260200160002060020160006101000a81548160ff021916908315150217905550610138600085858481811061304e577f4e487b7100000000000000000000000000000000000000000000000000000000600052603260045260246000fd5b90506020020135815260200190815260200160002060003373ffffffffffffffffffffffffffffffffffffffff1673ffffffffffffffffffffffffffffffffffffffff16815260200190815260200160002060010154826130af9190618a8b565b91508383828181106130ea577f4e487b7100000000000000000000000000000000000000000000000000000000600052603260045260246000fd5b905060200201353373ffffffffffffffffffffffffffffffffffffffff167f34fcbac0073d7c3d388e51312faf357774904998eeb8fca628b9e6f65ee1cbf76101325460405161313a919061875b565b60405180910390a3808061314d90618c5d565b915050612ed1565b50613195338273b2d7b35539a543bbe4c74965488ffe33c6721f0d73ffffffffffffffffffffffffffffffffffffffff166163bc9092919063ffffffff16565b5060016097819055505050565b6131aa61280e565b6131e9576040517f08c379a00000000000000000000000000000000000000000000000000000000081526004016131e0906182bb565b60405180910390fd5b61012d60009054906101000a900473ffffffffffffffffffffffffffffffffffffffff1673ffffffffffffffffffffffffffffffffffffffff163373ffffffffffffffffffffffffffffffffffffffff161461327a576040517f08c379a00000000000000000000000000000000000000000000000000000000081526004016132719061871b565b60405180910390fd5b80610134819055507f40494135fc3982f9f9b9d5b6088aeee5160b1bf3cb18f59b9f317228111da8f7816040516132b1919061875b565b60405180910390a150565b6132c4616442565b73ffffffffffffffffffffffffffffffffffffffff166132e2614388565b73ffffffffffffffffffffffffffffffffffffffff1614613338576040517f08c379a000000000000000000000000000000000000000000000000000000000815260040161332f9061853b565b60405180910390fd5b600073ffffffffffffffffffffffffffffffffffffffff168173ffffffffffffffffffffffffffffffffffffffff1614156133a8576040517f08c379a000000000000000000000000000000000000000000000000000000000815260040161339f9061849b565b60405180910390fd5b8061012d60006101000a81548173ffffffffffffffffffffffffffffffffffffffff021916908373ffffffffffffffffffffffffffffffffffffffff1602179055507f137b621413925496477d46e5055ac0d56178bdd724ba8bf843afceef18268ba38160405161341991906180ac565b60405180910390a150565b61342c616442565b73ffffffffffffffffffffffffffffffffffffffff1661344a614388565b73ffffffffffffffffffffffffffffffffffffffff16146134a0576040517f08c379a00000000000000000000000000000000000000000000000000000000081526004016134979061853b565b60405180910390fd5b6134aa600061644a565b565b610138602052816000526040600020602052806000526040600020600091509150508060000160009054906101000a900460ff16908060000160019054906101000a900473ffffffffffffffffffffffffffffffffffffffff16908060010154908060020160009054906101000a900460ff16905084565b61352c61280e565b1561356c576040517f08c379a00000000000000000000000000000000000000000000000000000000081526004016135639061847b565b60405180910390fd5b61012e60009054906101000a900473ffffffffffffffffffffffffffffffffffffffff1673ffffffffffffffffffffffffffffffffffffffff163373ffffffffffffffffffffffffffffffffffffffff16146135fd576040517f08c379a00000000000000000000000000000000000000000000000000000000081526004016135f4906186fb565b60405180910390fd5b613605616510565b61013960006101355481526020019081526020016000206003015461013360008282546136329190618a8b565b92505081905550565b6101355481565b61364a61280e565b613689576040517f08c379a0000000000000000000000000000000000000000000000000000000008152600401613680906182bb565b60405180910390fd5b61012d60009054906101000a900473ffffffffffffffffffffffffffffffffffffffff1673ffffffffffffffffffffffffffffffffffffffff163373ffffffffffffffffffffffffffffffffffffffff161461371a576040517f08c379a00000000000000000000000000000000000000000000000000000000081526004016137119061871b565b60405180910390fd5b60005b8251811015613bd457600073ffffffffffffffffffffffffffffffffffffffff16828281518110613777577f4e487b7100000000000000000000000000000000000000000000000000000000600052603260045260246000fd5b602002602001015173ffffffffffffffffffffffffffffffffffffffff1614156137d6576040517f08c379a00000000000000000000000000000000000000000000000000000000081526004016137cd9061849b565b60405180910390fd5b600073ffffffffffffffffffffffffffffffffffffffff1661013b600085848151811061382c577f4e487b7100000000000000000000000000000000000000000000000000000000600052603260045260246000fd5b602002602001015173ffffffffffffffffffffffffffffffffffffffff1673ffffffffffffffffffffffffffffffffffffffff16815260200190815260200160002060009054906101000a900473ffffffffffffffffffffffffffffffffffffffff1673ffffffffffffffffffffffffffffffffffffffff1614156138e6576040517f08c379a00000000000000000000000000000000000000000000000000000000081526004016138dd9061843b565b60405180910390fd5b81818151811061391f577f4e487b7100000000000000000000000000000000000000000000000000000000600052603260045260246000fd5b602002602001015161013b6000858481518110613965577f4e487b7100000000000000000000000000000000000000000000000000000000600052603260045260246000fd5b602002602001015173ffffffffffffffffffffffffffffffffffffffff1673ffffffffffffffffffffffffffffffffffffffff16815260200190815260200160002060006101000a81548173ffffffffffffffffffffffffffffffffffffffff021916908373ffffffffffffffffffffffffffffffffffffffff16021790555061013b6000848381518110613a23577f4e487b7100000000000000000000000000000000000000000000000000000000600052603260045260246000fd5b602002602001015173ffffffffffffffffffffffffffffffffffffffff1673ffffffffffffffffffffffffffffffffffffffff16815260200190815260200160002060009054906101000a900473ffffffffffffffffffffffffffffffffffffffff1673ffffffffffffffffffffffffffffffffffffffff1663feaf968c6040518163ffffffff1660e01b815260040160a06040518083038186803b158015613acb57600080fd5b505afa158015613adf573d6000803e3d6000fd5b505050506040513d601f19601f82011682018060405250810190613b0391906177d3565b50505050507f08763b8c90c5db415d7b7f0e18ec87eda82e24e52e2ea8135d44e17db46d85bb828281518110613b62577f4e487b7100000000000000000000000000000000000000000000000000000000600052603260045260246000fd5b6020026020010151848381518110613ba3577f4e487b7100000000000000000000000000000000000000000000000000000000600052603260045260246000fd5b6020026020010151604051613bb99291906180c7565b60405180910390a18080613bcc90618c5d565b91505061371d565b505050565b6060806060613be6614fac565b9250825167ffffffffffffffff811115613c29577f4e487b7100000000000000000000000000000000000000000000000000000000600052604160045260246000fd5b604051908082528060200260200182016040528015613c575781602001602082028036833780820191505090505b509150825167ffffffffffffffff811115613c9b577f4e487b7100000000000000000000000000000000000000000000000000000000600052604160045260246000fd5b604051908082528060200260200182016040528015613cc95781602001602082028036833780820191505090505b50905060006101396000868152602001908152602001600020905060005b8451811015613e57576000858281518110613d2b577f4e487b7100000000000000000000000000000000000000000000000000000000600052603260045260246000fd5b602002602001015190508260080160008273ffffffffffffffffffffffffffffffffffffffff1673ffffffffffffffffffffffffffffffffffffffff16815260200190815260200160002054858381518110613db0577f4e487b7100000000000000000000000000000000000000000000000000000000600052603260045260246000fd5b6020026020010181815250508260090160008273ffffffffffffffffffffffffffffffffffffffff1673ffffffffffffffffffffffffffffffffffffffff16815260200190815260200160002054848381518110613e37577f4e487b7100000000000000000000000000000000000000000000000000000000600052603260045260246000fd5b602002602001018181525050508080613e4f90618c5d565b915050613ce7565b50509193909250565b600080610138600085815260200190815260200160002060008473ffffffffffffffffffffffffffffffffffffffff1673ffffffffffffffffffffffffffffffffffffffff1681526020019081526020016000206040518060800160405290816000820160009054906101000a900460ff166001811115613f0a577f4e487b7100000000000000000000000000000000000000000000000000000000600052602160045260246000fd5b6001811115613f42577f4e487b7100000000000000000000000000000000000000000000000000000000600052602160045260246000fd5b81526020016000820160019054906101000a900473ffffffffffffffffffffffffffffffffffffffff1673ffffffffffffffffffffffffffffffffffffffff1673ffffffffffffffffffffffffffffffffffffffff168152602001600182015481526020016002820160009054906101000a900460ff16151515158152505090506000610139600086815260200190815260200160002090508060040160009054906101000a900460ff16158015613ffc57508160600151155b8015614019575061012f5481600201546140169190618a8b565b42115b801561402a57506000826040015114155b9250505092915050565b6101305481565b61404361280e565b15614083576040517f08c379a000000000000000000000000000000000000000000000000000000000815260040161407a9061847b565b60405180910390fd5b61012d60009054906101000a900473ffffffffffffffffffffffffffffffffffffffff1673ffffffffffffffffffffffffffffffffffffffff163373ffffffffffffffffffffffffffffffffffffffff16148061412e575061012e60009054906101000a900473ffffffffffffffffffffffffffffffffffffffff1673ffffffffffffffffffffffffffffffffffffffff163373ffffffffffffffffffffffffffffffffffffffff16145b61416d576040517f08c379a00000000000000000000000000000000000000000000000000000000081526004016141649061841b565b60405180910390fd5b614175616683565b610135547f68b095021b1f40fe513109f513c66692f0b3219aee674a69f4efc57badb8201d60405160405180910390a2565b600060019054906101000a900460ff16806141cd575060008054906101000a900460ff16155b61420c576040517f08c379a0000000000000000000000000000000000000000000000000000000008152600401614203906184bb565b60405180910390fd5b60008060019054906101000a900460ff16159050801561425c576001600060016101000a81548160ff02191690831515021790555060016000806101000a81548160ff0219169083151502179055505b614264616726565b8861012d60006101000a81548173ffffffffffffffffffffffffffffffffffffffff021916908373ffffffffffffffffffffffffffffffffffffffff1602179055508761012e60006101000a81548173ffffffffffffffffffffffffffffffffffffffff021916908373ffffffffffffffffffffffffffffffffffffffff16021790555086610130819055508561012f81905550836101328190555082610137819055508161013481905550846101318190555080156143395760008060016101000a81548160ff0219169083151502179055505b505050505050505050565b6101396020528060005260406000206000915090508060000154908060010154908060020154908060030154908060040160009054906101000a900460ff16905085565b6000603360009054906101000a900473ffffffffffffffffffffffffffffffffffffffff16905090565b60008060008060006060806060806060808b9a50600061013960008e8152602001908152602001600020905080600101549a5080600201549950806003015498508060040160009054906101000a900460ff16975061440f614fac565b9650865167ffffffffffffffff811115614452577f4e487b7100000000000000000000000000000000000000000000000000000000600052604160045260246000fd5b6040519080825280602002602001820160405280156144805781602001602082028036833780820191505090505b509550865167ffffffffffffffff8111156144c4577f4e487b7100000000000000000000000000000000000000000000000000000000600052604160045260246000fd5b6040519080825280602002602001820160405280156144f25781602001602082028036833780820191505090505b509450865167ffffffffffffffff811115614536577f4e487b7100000000000000000000000000000000000000000000000000000000600052604160045260246000fd5b6040519080825280602002602001820160405280156145645781602001602082028036833780820191505090505b509350865167ffffffffffffffff8111156145a8577f4e487b7100000000000000000000000000000000000000000000000000000000600052604160045260246000fd5b6040519080825280602002602001820160405280156145d65781602001602082028036833780820191505090505b509250865167ffffffffffffffff81111561461a577f4e487b7100000000000000000000000000000000000000000000000000000000600052604160045260246000fd5b6040519080825280602002602001820160405280156146485781602001602082028036833780820191505090505b50915060005b8751811015614953576000888281518110614692577f4e487b7100000000000000000000000000000000000000000000000000000000600052603260045260246000fd5b6020026020010151905082600a0160008273ffffffffffffffffffffffffffffffffffffffff1673ffffffffffffffffffffffffffffffffffffffff16815260200190815260200160002054888381518110614717577f4e487b7100000000000000000000000000000000000000000000000000000000600052603260045260246000fd5b60200260200101818152505082600b0160008273ffffffffffffffffffffffffffffffffffffffff1673ffffffffffffffffffffffffffffffffffffffff1681526020019081526020016000205487838151811061479e577f4e487b7100000000000000000000000000000000000000000000000000000000600052603260045260246000fd5b6020026020010181815250508260050160008273ffffffffffffffffffffffffffffffffffffffff1673ffffffffffffffffffffffffffffffffffffffff16815260200190815260200160002054868381518110614825577f4e487b7100000000000000000000000000000000000000000000000000000000600052603260045260246000fd5b6020026020010181815250508260060160008273ffffffffffffffffffffffffffffffffffffffff1673ffffffffffffffffffffffffffffffffffffffff168152602001908152602001600020548583815181106148ac577f4e487b7100000000000000000000000000000000000000000000000000000000600052603260045260246000fd5b6020026020010181815250508260070160008273ffffffffffffffffffffffffffffffffffffffff1673ffffffffffffffffffffffffffffffffffffffff16815260200190815260200160002054848381518110614933577f4e487b7100000000000000000000000000000000000000000000000000000000600052603260045260246000fd5b60200260200101818152505050808061494b90618c5d565b91505061464e565b505091939597999b90929496989a50565b61496c61280e565b6149ab576040517f08c379a00000000000000000000000000000000000000000000000000000000081526004016149a2906182bb565b60405180910390fd5b61012d60009054906101000a900473ffffffffffffffffffffffffffffffffffffffff1673ffffffffffffffffffffffffffffffffffffffff163373ffffffffffffffffffffffffffffffffffffffff1614614a3c576040517f08c379a0000000000000000000000000000000000000000000000000000000008152600401614a339061871b565b60405180910390fd5b818310614a7e576040517f08c379a0000000000000000000000000000000000000000000000000000000008152600401614a75906183bb565b60405180910390fd5b818110614ac0576040517f08c379a0000000000000000000000000000000000000000000000000000000008152600401614ab7906186db565b60405180910390fd5b8261012f81905550816101308190555080610131819055507fe60149e0431fec12df63dfab5fce2a9cefe9a4d3df5f41cb626f579ae1f2b91a8383604051614b09929190618776565b60405180910390a1505050565b6060806000808490508561013a60008973ffffffffffffffffffffffffffffffffffffffff1673ffffffffffffffffffffffffffffffffffffffff16815260200190815260200160002080549050614b6e9190618ae1565b811115614bc7578561013a60008973ffffffffffffffffffffffffffffffffffffffff1673ffffffffffffffffffffffffffffffffffffffff16815260200190815260200160002080549050614bc49190618ae1565b90505b60008167ffffffffffffffff811115614c09577f4e487b7100000000000000000000000000000000000000000000000000000000600052604160045260246000fd5b604051908082528060200260200182016040528015614c375781602001602082028036833780820191505090505b50905060008267ffffffffffffffff811115614c7c577f4e487b7100000000000000000000000000000000000000000000000000000000600052604160045260246000fd5b604051908082528060200260200182016040528015614cb557816020015b614ca2617176565b815260200190600190039081614c9a5790505b50905060005b83811015614f8b5761013a60008b73ffffffffffffffffffffffffffffffffffffffff1673ffffffffffffffffffffffffffffffffffffffff168152602001908152602001600020818a614d0f9190618a8b565b81548110614d46577f4e487b7100000000000000000000000000000000000000000000000000000000600052603260045260246000fd5b9060005260206000200154838281518110614d8a577f4e487b7100000000000000000000000000000000000000000000000000000000600052603260045260246000fd5b6020026020010181815250506101386000848381518110614dd4577f4e487b7100000000000000000000000000000000000000000000000000000000600052603260045260246000fd5b6020026020010151815260200190815260200160002060008b73ffffffffffffffffffffffffffffffffffffffff1673ffffffffffffffffffffffffffffffffffffffff1681526020019081526020016000206040518060800160405290816000820160009054906101000a900460ff166001811115614e7d577f4e487b7100000000000000000000000000000000000000000000000000000000600052602160045260246000fd5b6001811115614eb5577f4e487b7100000000000000000000000000000000000000000000000000000000600052602160045260246000fd5b81526020016000820160019054906101000a900473ffffffffffffffffffffffffffffffffffffffff1673ffffffffffffffffffffffffffffffffffffffff1673ffffffffffffffffffffffffffffffffffffffff168152602001600182015481526020016002820160009054906101000a900460ff161515151581525050828281518110614f6d577f4e487b7100000000000000000000000000000000000000000000000000000000600052603260045260246000fd5b60200260200101819052508080614f8390618c5d565b915050614cbb565b508181848a614f9a9190618a8b565b95509550955050505093509350939050565b606061013c80548060200260200160405190810160405280929190818152602001828054801561503157602002820191906000526020600020905b8160009054906101000a900473ffffffffffffffffffffffffffffffffffffffff1673ffffffffffffffffffffffffffffffffffffffff1681526020019060010190808311614fe7575b5050505050905090565b61013b6020528060005260406000206000915054906101000a900473ffffffffffffffffffffffffffffffffffffffff1681565b615077616442565b73ffffffffffffffffffffffffffffffffffffffff16615095614388565b73ffffffffffffffffffffffffffffffffffffffff16146150eb576040517f08c379a00000000000000000000000000000000000000000000000000000000081526004016150e29061853b565b60405180910390fd5b73b2d7b35539a543bbe4c74965488ffe33c6721f0d73ffffffffffffffffffffffffffffffffffffffff168273ffffffffffffffffffffffffffffffffffffffff16141561516e576040517f08c379a0000000000000000000000000000000000000000000000000000000008152600401615165906185fb565b60405180910390fd5b61519933828473ffffffffffffffffffffffffffffffffffffffff166163bc9092919063ffffffff16565b8173ffffffffffffffffffffffffffffffffffffffff167f14f11966a996e0629572e51064726d2057a80fbd34efc066682c06a71dbb6e98826040516151df919061875b565b60405180910390a25050565b61012d60009054906101000a900473ffffffffffffffffffffffffffffffffffffffff1673ffffffffffffffffffffffffffffffffffffffff163373ffffffffffffffffffffffffffffffffffffffff161461527c576040517f08c379a00000000000000000000000000000000000000000000000000000000081526004016152739061871b565b60405180910390fd5b600073ffffffffffffffffffffffffffffffffffffffff168173ffffffffffffffffffffffffffffffffffffffff1614156152ec576040517f08c379a00000000000000000000000000000000000000000000000000000000081526004016152e39061849b565b60405180910390fd5b8061012e60006101000a81548173ffffffffffffffffffffffffffffffffffffffff021916908373ffffffffffffffffffffffffffffffffffffffff1602179055507fc47d127c07bdd56c5ccba00463ce3bd3c1bca71b4670eea6e5d0c02e4aa156e28160405161535d91906180ac565b60405180910390a150565b61537061280e565b6153af576040517f08c379a00000000000000000000000000000000000000000000000000000000081526004016153a6906182bb565b60405180910390fd5b61012d60009054906101000a900473ffffffffffffffffffffffffffffffffffffffff1673ffffffffffffffffffffffffffffffffffffffff163373ffffffffffffffffffffffffffffffffffffffff1614615440576040517f08c379a00000000000000000000000000000000000000000000000000000000081526004016154379061871b565b60405180910390fd5b80610137819055507f93ccaceac092ffb842c46b8718667a13a80e9058dcd0bd403d0b47215b30da0781604051615477919061875b565b60405180910390a150565b6101325481565b61013a60205281600052604060002081815481106154a657600080fd5b90600052602060002001600091509150505481565b73b2d7b35539a543bbe4c74965488ffe33c6721f0d81565b61012f5481565b6101365481565b6103e881565b6154ef616442565b73ffffffffffffffffffffffffffffffffffffffff1661550d614388565b73ffffffffffffffffffffffffffffffffffffffff1614615563576040517f08c379a000000000000000000000000000000000000000000000000000000000815260040161555a9061853b565b60405180910390fd5b600073ffffffffffffffffffffffffffffffffffffffff168173ffffffffffffffffffffffffffffffffffffffff1614156155d3576040517f08c379a00000000000000000000000000000000000000000000000000000000081526004016155ca9061835b565b60405180910390fd5b6155dc8161644a565b50565b61012d60009054906101000a900473ffffffffffffffffffffffffffffffffffffffff1681565b61560e61280e565b1561564e576040517f08c379a00000000000000000000000000000000000000000000000000000000081526004016156459061847b565b60405180910390fd5b61012d60009054906101000a900473ffffffffffffffffffffffffffffffffffffffff1673ffffffffffffffffffffffffffffffffffffffff163373ffffffffffffffffffffffffffffffffffffffff16146156df576040517f08c379a00000000000000000000000000000000000000000000000000000000081526004016156d69061871b565b60405180910390fd5b60005b8151811015615ca757600073ffffffffffffffffffffffffffffffffffffffff1661013c83838151811061573f577f4e487b7100000000000000000000000000000000000000000000000000000000600052603260045260246000fd5b60200260200101518154811061577e577f4e487b7100000000000000000000000000000000000000000000000000000000600052603260045260246000fd5b9060005260206000200160009054906101000a900473ffffffffffffffffffffffffffffffffffffffff1673ffffffffffffffffffffffffffffffffffffffff161415615800576040517f08c379a00000000000000000000000000000000000000000000000000000000081526004016157f79061843b565b60405180910390fd5b61013b600061013c848481518110615841577f4e487b7100000000000000000000000000000000000000000000000000000000600052603260045260246000fd5b602002602001015181548110615880577f4e487b7100000000000000000000000000000000000000000000000000000000600052603260045260246000fd5b9060005260206000200160009054906101000a900473ffffffffffffffffffffffffffffffffffffffff1673ffffffffffffffffffffffffffffffffffffffff1673ffffffffffffffffffffffffffffffffffffffff16815260200190815260200160002060006101000a81549073ffffffffffffffffffffffffffffffffffffffff021916905561013c600161013c8054905061591e9190618ae1565b81548110615955577f4e487b7100000000000000000000000000000000000000000000000000000000600052603260045260246000fd5b9060005260206000200160009054906101000a900473ffffffffffffffffffffffffffffffffffffffff1661013c8383815181106159bc577f4e487b7100000000000000000000000000000000000000000000000000000000600052603260045260246000fd5b6020026020010151815481106159fb577f4e487b7100000000000000000000000000000000000000000000000000000000600052603260045260246000fd5b9060005260206000200160006101000a81548173ffffffffffffffffffffffffffffffffffffffff021916908373ffffffffffffffffffffffffffffffffffffffff16021790555061013c805480615a7c577f4e487b7100000000000000000000000000000000000000000000000000000000600052603160045260246000fd5b6001900381819060005260206000200160006101000a81549073ffffffffffffffffffffffffffffffffffffffff021916905590557fbbe55b1ff108e23e5ff1a6f5d36946eec15ec0ca0ded2bfed4cdcf697ca9046061013c838381518110615b0e577f4e487b7100000000000000000000000000000000000000000000000000000000600052603260045260246000fd5b602002602001015181548110615b4d577f4e487b7100000000000000000000000000000000000000000000000000000000600052603260045260246000fd5b9060005260206000200160009054906101000a900473ffffffffffffffffffffffffffffffffffffffff1661013b600061013c868681518110615bb9577f4e487b7100000000000000000000000000000000000000000000000000000000600052603260045260246000fd5b602002602001015181548110615bf8577f4e487b7100000000000000000000000000000000000000000000000000000000600052603260045260246000fd5b9060005260206000200160009054906101000a900473ffffffffffffffffffffffffffffffffffffffff1673ffffffffffffffffffffffffffffffffffffffff1673ffffffffffffffffffffffffffffffffffffffff16815260200190815260200160002060009054906101000a900473ffffffffffffffffffffffffffffffffffffffff16604051615c8c9291906180c7565b60405180910390a18080615c9f90618c5d565b9150506156e2565b5050565b600080823b905060008111915050919050565b60008061013960008481526020019081526020016000206001015414158015615cfd575061013960008381526020019081526020016000206001015442115b8015615d2d575061013154610139600084815260200190815260200160002060010154615d2a9190618a8b565b42105b9050919050565b615db7846323b872dd60e01b858585604051602401615d55939291906180f0565b604051602081830303815290604052907bffffffffffffffffffffffffffffffffffffffffffffffffffffffff19166020820180517bffffffffffffffffffffffffffffffffffffffffffffffffffffffff838183161783525050505061680f565b50505050565b615dc5616442565b73ffffffffffffffffffffffffffffffffffffffff16615de3614388565b73ffffffffffffffffffffffffffffffffffffffff1614615e39576040517f08c379a0000000000000000000000000000000000000000000000000000000008152600401615e309061853b565b60405180910390fd5b50565b6000615e466168d6565b9050615e518461692d565b600083511180615e5e5750815b15615e6f57615e6d84846169e6565b505b6000615e9d7f4910fdfa16fed3260ed0e7147f7cc6da11a60208b5b9406d12a635614ffd914360001b616aca565b90508060000160009054906101000a900460ff166160065760018160000160006101000a81548160ff021916908315150217905550615f698583604051602401615ee791906180ac565b6040516020818303038152906040527f3659cfe6000000000000000000000000000000000000000000000000000000007bffffffffffffffffffffffffffffffffffffffffffffffffffffffff19166020820180517bffffffffffffffffffffffffffffffffffffffffffffffffffffffff83818316178352505050506169e6565b5060008160000160006101000a81548160ff021916908315150217905550615f8f6168d6565b73ffffffffffffffffffffffffffffffffffffffff168273ffffffffffffffffffffffffffffffffffffffff1614615ffc576040517f08c379a0000000000000000000000000000000000000000000000000000000008152600401615ff39061833b565b60405180910390fd5b61600585616ad4565b5b5050505050565b61601561280e565b616054576040517f08c379a000000000000000000000000000000000000000000000000000000000815260040161604b906182bb565b60405180910390fd5b6000606560006101000a81548160ff0219169083151502179055507f5db9ee0a495bf2e6ff9c91a7834c1ba4fdd244a5e8aa4e537bd38aeae4b073aa616098616442565b6040516160a591906180ac565b60405180910390a1565b600061013960006001846160c39190618ae1565b8152602001908152602001600020600201541415616116576040517f08c379a000000000000000000000000000000000000000000000000000000000815260040161610d906184fb565b60405180910390fd5b61013960006001836161289190618ae1565b81526020019081526020016000206002015442101561617c576040517f08c379a00000000000000000000000000000000000000000000000000000000081526004016161739061859b565b60405180910390fd5b61618581616188565b50565b60006101396000838152602001908152602001600020905042816001018190555061013054426161b89190618a8b565b816002018190555081816000018190555060008160030181905550817f939f42374aa9bf1d8d8cd56d8a9110cb040cd8dfeae44080c6fcf2645e51b45260405160405180910390a25050565b60006101396000610135548152602001908152602001600020905060005b61013c805490508110156163b857600061013c828154811061626d577f4e487b7100000000000000000000000000000000000000000000000000000000600052603260045260246000fd5b9060005260206000200160009054906101000a900473ffffffffffffffffffffffffffffffffffffffff16905060008061630661013b60008573ffffffffffffffffffffffffffffffffffffffff1673ffffffffffffffffffffffffffffffffffffffff16815260200190815260200160002060009054906101000a900473ffffffffffffffffffffffffffffffffffffffff16616b23565b915091508085600a0160008573ffffffffffffffffffffffffffffffffffffffff1673ffffffffffffffffffffffffffffffffffffffff168152602001908152602001600020819055508169ffffffffffffffffffff168560050160008573ffffffffffffffffffffffffffffffffffffffff1673ffffffffffffffffffffffffffffffffffffffff1681526020019081526020016000208190555050505080806163b090618c5d565b915050616222565b5050565b61643d8363a9059cbb60e01b84846040516024016163db929190618127565b604051602081830303815290604052907bffffffffffffffffffffffffffffffffffffffffffffffffffffffff19166020820180517bffffffffffffffffffffffffffffffffffffffffffffffffffffffff838183161783525050505061680f565b505050565b600033905090565b6000603360009054906101000a900473ffffffffffffffffffffffffffffffffffffffff16905081603360006101000a81548173ffffffffffffffffffffffffffffffffffffffff021916908373ffffffffffffffffffffffffffffffffffffffff1602179055508173ffffffffffffffffffffffffffffffffffffffff168173ffffffffffffffffffffffffffffffffffffffff167f8be0079c531659141344cd1fd0a4f28419497f9722a3daafe3b4186f6b6457e060405160405180910390a35050565b6000610139600061013554815260200190815260200160002060010154141561656e576040517f08c379a00000000000000000000000000000000000000000000000000000000081526004016165659061831b565b60405180910390fd5b6101396000610135548152602001908152602001600020600201544210156165cb576040517f08c379a00000000000000000000000000000000000000000000000000000000081526004016165c2906183fb565b60405180910390fd5b61012f546101396000610135548152602001908152602001600020600201546165f49190618a8b565b421115616636576040517f08c379a000000000000000000000000000000000000000000000000000000000815260040161662d9061865b565b60405180910390fd5b60006101396000610135548152602001908152602001600020905042816002018190555061666381616c67565b60018160040160006101000a81548160ff02191690831515021790555050565b61668b61280e565b156166cb576040517f08c379a00000000000000000000000000000000000000000000000000000000081526004016166c29061847b565b60405180910390fd5b6001606560006101000a81548160ff0219169083151502179055507f62e78cea01bee320cd4e420270b5ea74000d11b0c9f74754ebdbfc544b05a25861670f616442565b60405161671c91906180ac565b60405180910390a1565b600060019054906101000a900460ff168061674c575060008054906101000a900460ff16155b61678b576040517f08c379a0000000000000000000000000000000000000000000000000000000008152600401616782906184bb565b60405180910390fd5b60008060019054906101000a900460ff1615905080156167db576001600060016101000a81548160ff02191690831515021790555060016000806101000a81548160ff0219169083151502179055505b6167e3616e04565b6167eb616edd565b801561680c5760008060016101000a81548160ff0219169083151502179055505b50565b6000616871826040518060400160405280602081526020017f5361666545524332303a206c6f772d6c6576656c2063616c6c206661696c65648152508573ffffffffffffffffffffffffffffffffffffffff16616fc69092919063ffffffff16565b90506000815111156168d1578080602001905181019061689191906176f6565b6168d0576040517f08c379a00000000000000000000000000000000000000000000000000000000081526004016168c79061863b565b60405180910390fd5b5b505050565b60006169047f360894a13ba1a3210667c828492db98dca3e2076cc3735a920a3ca505d382bbc60001b616fde565b60000160009054906101000a900473ffffffffffffffffffffffffffffffffffffffff16905090565b61693681616fe8565b616975576040517f08c379a000000000000000000000000000000000000000000000000000000000815260040161696c9061851b565b60405180910390fd5b806169a27f360894a13ba1a3210667c828492db98dca3e2076cc3735a920a3ca505d382bbc60001b616fde565b60000160006101000a81548173ffffffffffffffffffffffffffffffffffffffff021916908373ffffffffffffffffffffffffffffffffffffffff16021790555050565b60606169f183616fe8565b616a30576040517f08c379a0000000000000000000000000000000000000000000000000000000008152600401616a27906185bb565b60405180910390fd5b6000808473ffffffffffffffffffffffffffffffffffffffff1684604051616a589190618095565b600060405180830381855af49150503d8060008114616a93576040519150601f19603f3d011682016040523d82523d6000602084013e616a98565b606091505b5091509150616ac082826040518060600160405280602781526020016195cd60279139616ffb565b9250505092915050565b6000819050919050565b616add8161692d565b8073ffffffffffffffffffffffffffffffffffffffff167fbc7cd75a20ee27fd9adebab32041f755214dbc6bffa90cc0225b39da2e5c2d3b60405160405180910390a250565b60008060006101375442616b379190618a8b565b905060008060008673ffffffffffffffffffffffffffffffffffffffff1663feaf968c6040518163ffffffff1660e01b815260040160a06040518083038186803b158015616b8457600080fd5b505afa158015616b98573d6000803e3d6000fd5b505050506040513d601f19601f82011682018060405250810190616bbc91906177d3565b509350509250925083811115616c07576040517f08c379a0000000000000000000000000000000000000000000000000000000008152600401616bfe906186bb565b60405180910390fd5b610136548369ffffffffffffffffffff1611616c58576040517f08c379a0000000000000000000000000000000000000000000000000000000008152600401616c4f9061837b565b60405180910390fd5b82829550955050505050915091565b60005b61013c80549050811015616e0057600061013c8281548110616cb5577f4e487b7100000000000000000000000000000000000000000000000000000000600052603260045260246000fd5b9060005260206000200160009054906101000a900473ffffffffffffffffffffffffffffffffffffffff169050600080616d4e61013b60008573ffffffffffffffffffffffffffffffffffffffff1673ffffffffffffffffffffffffffffffffffffffff16815260200190815260200160002060009054906101000a900473ffffffffffffffffffffffffffffffffffffffff16616b23565b915091508085600b0160008573ffffffffffffffffffffffffffffffffffffffff1673ffffffffffffffffffffffffffffffffffffffff168152602001908152602001600020819055508169ffffffffffffffffffff168560060160008573ffffffffffffffffffffffffffffffffffffffff1673ffffffffffffffffffffffffffffffffffffffff168152602001908152602001600020819055505050508080616df890618c5d565b915050616c6a565b5050565b600060019054906101000a900460ff1680616e2a575060008054906101000a900460ff16155b616e69576040517f08c379a0000000000000000000000000000000000000000000000000000000008152600401616e60906184bb565b60405180910390fd5b60008060019054906101000a900460ff161590508015616eb9576001600060016101000a81548160ff02191690831515021790555060016000806101000a81548160ff0219169083151502179055505b8015616eda5760008060016101000a81548160ff0219169083151502179055505b50565b600060019054906101000a900460ff1680616f03575060008054906101000a900460ff16155b616f42576040517f08c379a0000000000000000000000000000000000000000000000000000000008152600401616f39906184bb565b60405180910390fd5b60008060019054906101000a900460ff161590508015616f92576001600060016101000a81548160ff02191690831515021790555060016000806101000a81548160ff0219169083151502179055505b616fa2616f9d616442565b61644a565b8015616fc35760008060016101000a81548160ff0219169083151502179055505b50565b6060616fd58484600085617062565b90509392505050565b6000819050919050565b600080823b905060008111915050919050565b6060831561700b5782905061705b565b60008351111561701e5782518084602001fd5b816040517f08c379a00000000000000000000000000000000000000000000000000000000081526004016170529190618299565b60405180910390fd5b9392505050565b6060824710156170a7576040517f08c379a000000000000000000000000000000000000000000000000000000000815260040161709e9061845b565b60405180910390fd5b6170b085616fe8565b6170ef576040517f08c379a00000000000000000000000000000000000000000000000000000000081526004016170e6906185db565b60405180910390fd5b6000808673ffffffffffffffffffffffffffffffffffffffff1685876040516171189190618095565b60006040518083038185875af1925050503d8060008114617155576040519150601f19603f3d011682016040523d82523d6000602084013e61715a565b606091505b509150915061716a828286616ffb565b92505050949350505050565b6040518060800160405280600060018111156171bb577f4e487b7100000000000000000000000000000000000000000000000000000000600052602160045260246000fd5b8152602001600073ffffffffffffffffffffffffffffffffffffffff168152602001600081526020016000151581525090565b60006172016171fc846188ec565b6188c7565b9050808382526020820190508285602086028201111561722057600080fd5b60005b8581101561725057816172368882617304565b845260208401935060208301925050600181019050617223565b5050509392505050565b600061726d61726884618918565b6188c7565b9050808382526020820190508285602086028201111561728c57600080fd5b60005b858110156172bc57816172a2888261740b565b84526020840193506020830192505060018101905061728f565b5050509392505050565b60006172d96172d484618944565b6188c7565b9050828152602081018484840111156172f157600080fd5b6172fc848285618bea565b509392505050565b60008135905061731381619559565b92915050565b600082601f83011261732a57600080fd5b813561733a8482602086016171ee565b91505092915050565b60008083601f84011261735557600080fd5b8235905067ffffffffffffffff81111561736e57600080fd5b60208301915083602082028301111561738657600080fd5b9250929050565b600082601f83011261739e57600080fd5b81356173ae84826020860161725a565b91505092915050565b6000815190506173c681619570565b92915050565b600082601f8301126173dd57600080fd5b81356173ed8482602086016172c6565b91505092915050565b60008151905061740581619587565b92915050565b60008135905061741a8161959e565b92915050565b60008151905061742f8161959e565b92915050565b600081519050617444816195b5565b92915050565b60006020828403121561745c57600080fd5b600061746a84828501617304565b91505092915050565b600080600080600080600080610100898b03121561749057600080fd5b600061749e8b828c01617304565b98505060206174af8b828c01617304565b97505060406174c08b828c0161740b565b96505060606174d18b828c0161740b565b95505060806174e28b828c0161740b565b94505060a06174f38b828c0161740b565b93505060c06175048b828c0161740b565b92505060e06175158b828c0161740b565b9150509295985092959890939650565b6000806040838503121561753857600080fd5b600061754685828601617304565b925050602083013567ffffffffffffffff81111561756357600080fd5b61756f858286016173cc565b9150509250929050565b6000806040838503121561758c57600080fd5b600061759a85828601617304565b92505060206175ab8582860161740b565b9150509250929050565b6000806000606084860312156175ca57600080fd5b60006175d886828701617304565b93505060206175e98682870161740b565b92505060406175fa8682870161740b565b9150509250925092565b6000806040838503121561761757600080fd5b600083013567ffffffffffffffff81111561763157600080fd5b61763d85828601617319565b925050602083013567ffffffffffffffff81111561765a57600080fd5b61766685828601617319565b9150509250929050565b6000806020838503121561768357600080fd5b600083013567ffffffffffffffff81111561769d57600080fd5b6176a985828601617343565b92509250509250929050565b6000602082840312156176c757600080fd5b600082013567ffffffffffffffff8111156176e157600080fd5b6176ed8482850161738d565b91505092915050565b60006020828403121561770857600080fd5b6000617716848285016173b7565b91505092915050565b60006020828403121561773157600080fd5b600061773f8482850161740b565b91505092915050565b6000806040838503121561775b57600080fd5b60006177698582860161740b565b925050602061777a85828601617304565b9150509250929050565b60008060006060848603121561779957600080fd5b60006177a78682870161740b565b93505060206177b88682870161740b565b92505060406177c98682870161740b565b9150509250925092565b600080600080600060a086880312156177eb57600080fd5b60006177f988828901617435565b955050602061780a888289016173f6565b945050604061781b88828901617420565b935050606061782c88828901617420565b925050608061783d88828901617435565b9150509295509295909350565b600061785683836178aa565b60208301905092915050565b600061786e8383617acb565b60208301905092915050565b60006178868383618022565b60808301905092915050565b600061789e8383618077565b60208301905092915050565b6178b381618b15565b82525050565b6178c281618b15565b82525050565b60006178d3826189b5565b6178dd8185618a2b565b93506178e883618975565b8060005b83811015617919578151617900888261784a565b975061790b836189f7565b9250506001810190506178ec565b5085935050505092915050565b6000617931826189c0565b61793b8185618a3c565b935061794683618985565b8060005b8381101561797757815161795e8882617862565b975061796983618a04565b92505060018101905061794a565b5085935050505092915050565b600061798f826189cb565b6179998185618a4d565b93506179a483618995565b8060005b838110156179d55781516179bc888261787a565b97506179c783618a11565b9250506001810190506179a8565b5085935050505092915050565b60006179ed826189d6565b6179f78185618a5e565b9350617a02836189a5565b8060005b83811015617a33578151617a1a8882617892565b9750617a2583618a1e565b925050600181019050617a06565b5085935050505092915050565b617a4981618b27565b82525050565b617a5881618b27565b82525050565b6000617a69826189e1565b617a738185618a6f565b9350617a83818560208601618bf9565b80840191505092915050565b617a9881618b90565b82525050565b617aa781618bb4565b82525050565b617ab681618bd8565b82525050565b617ac581618bd8565b82525050565b617ad481618b46565b82525050565b6000617ae5826189ec565b617aef8185618a7a565b9350617aff818560208601618bf9565b617b0881618d33565b840191505092915050565b6000617b20601483618a7a565b9150617b2b82618d44565b602082019050919050565b6000617b43601783618a7a565b9150617b4e82618d6d565b602082019050919050565b6000617b66601f83618a7a565b9150617b7182618d96565b602082019050919050565b6000617b89601183618a7a565b9150617b9482618dbf565b602082019050919050565b6000617bac602f83618a7a565b9150617bb782618de8565b604082019050919050565b6000617bcf602683618a7a565b9150617bda82618e37565b604082019050919050565b6000617bf2603d83618a7a565b9150617bfd82618e86565b604082019050919050565b6000617c15601483618a7a565b9150617c2082618ed5565b602082019050919050565b6000617c38603183618a7a565b9150617c4382618efe565b604082019050919050565b6000617c5b602583618a7a565b9150617c6682618f4d565b604082019050919050565b6000617c7e601683618a7a565b9150617c8982618f9c565b602082019050919050565b6000617ca1601283618a7a565b9150617cac82618fc5565b602082019050919050565b6000617cc4601583618a7a565b9150617ccf82618fee565b602082019050919050565b6000617ce7602683618a7a565b9150617cf282619017565b604082019050919050565b6000617d0a601083618a7a565b9150617d1582619066565b602082019050919050565b6000617d2d601683618a7a565b9150617d388261908f565b602082019050919050565b6000617d50602e83618a7a565b9150617d5b826190b8565b604082019050919050565b6000617d73601a83618a7a565b9150617d7e82619107565b602082019050919050565b6000617d96602e83618a7a565b9150617da182619130565b604082019050919050565b6000617db9602d83618a7a565b9150617dc48261917f565b604082019050919050565b6000617ddc602083618a7a565b9150617de7826191ce565b602082019050919050565b6000617dff601283618a7a565b9150617e0a826191f7565b602082019050919050565b6000617e22601583618a7a565b9150617e2d82619220565b602082019050919050565b6000617e45603583618a7a565b9150617e5082619249565b604082019050919050565b6000617e68602683618a7a565b9150617e7382619298565b604082019050919050565b6000617e8b601d83618a7a565b9150617e96826192e7565b602082019050919050565b6000617eae601883618a7a565b9150617eb982619310565b602082019050919050565b6000617ed1601b83618a7a565b9150617edc82619339565b602082019050919050565b6000617ef4602a83618a7a565b9150617eff82619362565b604082019050919050565b6000617f17601683618a7a565b9150617f22826193b1565b602082019050919050565b6000617f3a601f83618a7a565b9150617f45826193da565b602082019050919050565b6000617f5d601583618a7a565b9150617f6882619403565b602082019050919050565b6000617f80602e83618a7a565b9150617f8b8261942c565b604082019050919050565b6000617fa3602e83618a7a565b9150617fae8261947b565b604082019050919050565b6000617fc6600c83618a7a565b9150617fd1826194ca565b602082019050919050565b6000617fe9600983618a7a565b9150617ff4826194f3565b602082019050919050565b600061800c601783618a7a565b91506180178261951c565b602082019050919050565b6080820160008201516180386000850182617aad565b50602082015161804b60208501826178aa565b50604082015161805e6040850182618077565b5060608201516180716060850182617a40565b50505050565b61808081618b70565b82525050565b61808f81618b70565b82525050565b60006180a18284617a5e565b915081905092915050565b60006020820190506180c160008301846178b9565b92915050565b60006040820190506180dc60008301856178b9565b6180e960208301846178b9565b9392505050565b600060608201905061810560008301866178b9565b61811260208301856178b9565b61811f6040830184618086565b949350505050565b600060408201905061813c60008301856178b9565b6181496020830184618086565b9392505050565b6000602082019050818103600083015261816a81846178c8565b905092915050565b6000606082019050818103600083015261818c81866178c8565b905081810360208301526181a081856179e2565b905081810360408301526181b481846179e2565b9050949350505050565b600060608201905081810360008301526181d881866179e2565b905081810360208301526181ec8185617984565b90506181fb6040830184618086565b949350505050565b60006020820190506182186000830184617a4f565b92915050565b60006020820190506182336000830184617a8f565b92915050565b600060208201905061824e6000830184617a9e565b92915050565b60006080820190506182696000830187617abc565b61827660208301866178b9565b6182836040830185618086565b6182906060830184617a4f565b95945050505050565b600060208201905081810360008301526182b38184617ada565b905092915050565b600060208201905081810360008301526182d481617b13565b9050919050565b600060208201905081810360008301526182f481617b36565b9050919050565b6000602082019050818103600083015261831481617b59565b9050919050565b6000602082019050818103600083015261833481617b7c565b9050919050565b6000602082019050818103600083015261835481617b9f565b9050919050565b6000602082019050818103600083015261837481617bc2565b9050919050565b6000602082019050818103600083015261839481617be5565b9050919050565b600060208201905081810360008301526183b481617c08565b9050919050565b600060208201905081810360008301526183d481617c2b565b9050919050565b600060208201905081810360008301526183f481617c4e565b9050919050565b6000602082019050818103600083015261841481617c71565b9050919050565b6000602082019050818103600083015261843481617c94565b9050919050565b6000602082019050818103600083015261845481617cb7565b9050919050565b6000602082019050818103600083015261847481617cda565b9050919050565b6000602082019050818103600083015261849481617cfd565b9050919050565b600060208201905081810360008301526184b481617d20565b9050919050565b600060208201905081810360008301526184d481617d43565b9050919050565b600060208201905081810360008301526184f481617d66565b9050919050565b6000602082019050818103600083015261851481617d89565b9050919050565b6000602082019050818103600083015261853481617dac565b9050919050565b6000602082019050818103600083015261855481617dcf565b9050919050565b6000602082019050818103600083015261857481617df2565b9050919050565b6000602082019050818103600083015261859481617e15565b9050919050565b600060208201905081810360008301526185b481617e38565b9050919050565b600060208201905081810360008301526185d481617e5b565b9050919050565b600060208201905081810360008301526185f481617e7e565b9050919050565b6000602082019050818103600083015261861481617ea1565b9050919050565b6000602082019050818103600083015261863481617ec4565b9050919050565b6000602082019050818103600083015261865481617ee7565b9050919050565b6000602082019050818103600083015261867481617f0a565b9050919050565b6000602082019050818103600083015261869481617f2d565b9050919050565b600060208201905081810360008301526186b481617f50565b9050919050565b600060208201905081810360008301526186d481617f73565b9050919050565b600060208201905081810360008301526186f481617f96565b9050919050565b6000602082019050818103600083015261871481617fb9565b9050919050565b6000602082019050818103600083015261873481617fdc565b9050919050565b6000602082019050818103600083015261875481617fff565b9050919050565b60006020820190506187706000830184618086565b92915050565b600060408201905061878b6000830185618086565b6187986020830184618086565b9392505050565b600060a0820190506187b46000830188618086565b6187c16020830187618086565b6187ce6040830186618086565b6187db6060830185618086565b6187e86080830184617a4f565b9695505050505050565b600061016082019050618808600083018e618086565b618815602083018d618086565b618822604083018c618086565b61882f606083018b618086565b61883c608083018a617a4f565b81810360a083015261884e81896178c8565b905081810360c08301526188628188617926565b905081810360e08301526188768187617926565b905081810361010083015261888b81866179e2565b90508181036101208301526188a081856179e2565b90508181036101408301526188b581846179e2565b90509c9b505050505050505050505050565b60006188d16188e2565b90506188dd8282618c2c565b919050565b6000604051905090565b600067ffffffffffffffff82111561890757618906618d04565b5b602082029050602081019050919050565b600067ffffffffffffffff82111561893357618932618d04565b5b602082029050602081019050919050565b600067ffffffffffffffff82111561895f5761895e618d04565b5b61896882618d33565b9050602081019050919050565b6000819050602082019050919050565b6000819050602082019050919050565b6000819050602082019050919050565b6000819050602082019050919050565b600081519050919050565b600081519050919050565b600081519050919050565b600081519050919050565b600081519050919050565b600081519050919050565b6000602082019050919050565b6000602082019050919050565b6000602082019050919050565b6000602082019050919050565b600082825260208201905092915050565b600082825260208201905092915050565b600082825260208201905092915050565b600082825260208201905092915050565b600081905092915050565b600082825260208201905092915050565b6000618a9682618b70565b9150618aa183618b70565b9250827fffffffffffffffffffffffffffffffffffffffffffffffffffffffffffffffff03821115618ad657618ad5618ca6565b5b828201905092915050565b6000618aec82618b70565b9150618af783618b70565b925082821015618b0a57618b09618ca6565b5b828203905092915050565b6000618b2082618b50565b9050919050565b60008115159050919050565b6000819050618b4182619545565b919050565b6000819050919050565b600073ffffffffffffffffffffffffffffffffffffffff82169050919050565b6000819050919050565b600069ffffffffffffffffffff82169050919050565b6000618b9b82618ba2565b9050919050565b6000618bad82618b50565b9050919050565b6000618bbf82618bc6565b9050919050565b6000618bd182618b50565b9050919050565b6000618be382618b33565b9050919050565b82818337600083830152505050565b60005b83811015618c17578082015181840152602081019050618bfc565b83811115618c26576000848401525b50505050565b618c3582618d33565b810181811067ffffffffffffffff82111715618c5457618c53618d04565b5b80604052505050565b6000618c6882618b70565b91507fffffffffffffffffffffffffffffffffffffffffffffffffffffffffffffffff821415618c9b57618c9a618ca6565b5b600182019050919050565b7f4e487b7100000000000000000000000000000000000000000000000000000000600052601160045260246000fd5b7f4e487b7100000000000000000000000000000000000000000000000000000000600052602160045260246000fd5b7f4e487b7100000000000000000000000000000000000000000000000000000000600052604160045260246000fd5b6000601f19601f8301169050919050565b7f5061757361626c653a206e6f7420706175736564000000000000000000000000600082015250565b7f4e6f7420656c696769626c6520666f7220726566756e64000000000000000000600082015250565b7f507265646963746f696e3a2043616e6e6f742072656164206120746f6b656e00600082015250565b7f526f756e64206e6f742073746172746564000000000000000000000000000000600082015250565b7f45524331393637557067726164653a207570677261646520627265616b73206660008201527f7572746865722075706772616465730000000000000000000000000000000000602082015250565b7f4f776e61626c653a206e6577206f776e657220697320746865207a65726f206160008201527f6464726573730000000000000000000000000000000000000000000000000000602082015250565b7f4f7261636c652075706461746520726f756e644964206d757374206265206c6160008201527f72676572207468616e206f7261636c654c6174657374526f756e644964000000602082015250565b7f436f6e7472616374206e6f7420616c6c6f776564000000000000000000000000600082015250565b7f6275666665725365636f6e6473206d75737420626520696e666572696f72207460008201527f6f20696e74657276616c5365636f6e6473000000000000000000000000000000602082015250565b7f507265646963746f696e3a2043616e6e6f74206164642061207a65726f20616460008201527f6472657373000000000000000000000000000000000000000000000000000000602082015250565b7f4e6f742079657420636c6f736554696d657374616d7000000000000000000000600082015250565b7f4e6f74206f70657261746f722f61646d696e0000000000000000000000000000600082015250565b7f546f6b656e206e6f74207072656469637461626c650000000000000000000000600082015250565b7f416464726573733a20696e73756666696369656e742062616c616e636520666f60008201527f722063616c6c0000000000000000000000000000000000000000000000000000602082015250565b7f5061757361626c653a2070617573656400000000000000000000000000000000600082015250565b7f43616e6e6f74206265207a65726f206164647265737300000000000000000000600082015250565b7f496e697469616c697a61626c653a20636f6e747261637420697320616c72656160008201527f647920696e697469616c697a6564000000000000000000000000000000000000602082015250565b7f50726f787920636f6e7472616374206e6f7420616c6c6f776564000000000000600082015250565b7f43616e206f6e6c7920737461727420726f756e6420616674657220726f756e6460008201527f206e2d312068617320656e646564000000000000000000000000000000000000602082015250565b7f455243313936373a206e657720696d706c656d656e746174696f6e206973206e60008201527f6f74206120636f6e747261637400000000000000000000000000000000000000602082015250565b7f4f776e61626c653a2063616c6c6572206973206e6f7420746865206f776e6572600082015250565b7f526f756e64206e6f74206265747461626c650000000000000000000000000000600082015250565b7f4d757374206265207375706572696f7220746f20300000000000000000000000600082015250565b7f43616e206f6e6c79207374617274206e657720726f756e64206166746572207260008201527f6f756e64206e2d3120656e6454696d657374616d700000000000000000000000602082015250565b7f416464726573733a2064656c65676174652063616c6c20746f206e6f6e2d636f60008201527f6e74726163740000000000000000000000000000000000000000000000000000602082015250565b7f416464726573733a2063616c6c20746f206e6f6e2d636f6e7472616374000000600082015250565b7f507265642063616e6e6f74206265207265636f76657265640000000000000000600082015250565b7f43616e206f6e6c7920626574206f6e63652070657220726f756e640000000000600082015250565b7f5361666545524332303a204552433230206f7065726174696f6e20646964206e60008201527f6f74207375636365656400000000000000000000000000000000000000000000602082015250565b7f4275666665725365636f6e647320657863656564656400000000000000000000600082015250565b7f5265656e7472616e637947756172643a207265656e7472616e742063616c6c00600082015250565b7f42657420697320746f6f206561726c792f6c6174650000000000000000000000600082015250565b7f4f7261636c6520757064617465206578636565646564206d61782074696d657360008201527f74616d7020616c6c6f77616e6365000000000000000000000000000000000000602082015250565b7f6265745365636f6e6473206d75737420626520696e666572696f7220746f206960008201527f6e74657276616c5365636f6e6473000000000000000000000000000000000000602082015250565b7f4e6f74206f70657261746f720000000000000000000000000000000000000000600082015250565b7f4e6f742061646d696e0000000000000000000000000000000000000000000000600082015250565b7f43616e2774207072656469637420666f7220746f6b656e000000000000000000600082015250565b6002811061955657619555618cd5565b5b50565b61956281618b15565b811461956d57600080fd5b50565b61957981618b27565b811461958457600080fd5b50565b61959081618b46565b811461959b57600080fd5b50565b6195a781618b70565b81146195b257600080fd5b50565b6195be81618b7a565b81146195c957600080fd5b5056fe416464726573733a206c6f772d6c6576656c2064656c65676174652063616c6c206661696c6564a2646970667358221220b733f04538e85cc97c0e9746d34d39de9016615eec38a6619c4470e6f652c6f964736f6c63430008020033",
			"opcodes": "PUSH1 0x80 PUSH1 0x40 MSTORE CALLVALUE DUP1 ISZERO PUSH3 0x11 JUMPI PUSH1 0x0 DUP1 REVERT JUMPDEST POP PUSH2 0x9629 DUP1 PUSH3 0x22 PUSH1 0x0 CODECOPY PUSH1 0x0 RETURN INVALID PUSH1 0x80 PUSH1 0x40 MSTORE PUSH1 0x4 CALLDATASIZE LT PUSH2 0x2FE JUMPI PUSH1 0x0 CALLDATALOAD PUSH1 0xE0 SHR DUP1 PUSH4 0x76671808 GT PUSH2 0x190 JUMPI DUP1 PUSH4 0xADDD5099 GT PUSH2 0xDC JUMPI DUP1 PUSH4 0xE5C9AD2E GT PUSH2 0x95 JUMPI DUP1 PUSH4 0xF2B3C809 GT PUSH2 0x6F JUMPI DUP1 PUSH4 0xF2B3C809 EQ PUSH2 0xB5D JUMPI DUP1 PUSH4 0xF2FDE38B EQ PUSH2 0xB88 JUMPI DUP1 PUSH4 0xFC6F9468 EQ PUSH2 0xBB1 JUMPI DUP1 PUSH4 0xFF59BCD0 EQ PUSH2 0xBDC JUMPI PUSH2 0x2FE JUMP JUMPDEST DUP1 PUSH4 0xE5C9AD2E EQ PUSH2 0xADC JUMPI DUP1 PUSH4 0xEABA2361 EQ PUSH2 0xB07 JUMPI DUP1 PUSH4 0xEC324703 EQ PUSH2 0xB32 JUMPI PUSH2 0x2FE JUMP JUMPDEST DUP1 PUSH4 0xADDD5099 EQ PUSH2 0x9BC JUMPI DUP1 PUSH4 0xB29A8140 EQ PUSH2 0x9F9 JUMPI DUP1 PUSH4 0xB3AB15FB EQ PUSH2 0xA22 JUMPI DUP1 PUSH4 0xCF2F5039 EQ PUSH2 0xA4B JUMPI DUP1 PUSH4 0xD24257C0 EQ PUSH2 0xA74 JUMPI DUP1 PUSH4 0xDD1F7596 EQ PUSH2 0xA9F JUMPI PUSH2 0x2FE JUMP JUMPDEST DUP1 PUSH4 0x8BA796AF GT PUSH2 0x149 JUMPI DUP1 PUSH4 0x8F1327C0 GT PUSH2 0x123 JUMPI DUP1 PUSH4 0x8F1327C0 EQ PUSH2 0x8E2 JUMPI DUP1 PUSH4 0x90DF00C6 EQ PUSH2 0x929 JUMPI DUP1 PUSH4 0x951FD600 EQ PUSH2 0x952 JUMPI DUP1 PUSH4 0xAA6CA808 EQ PUSH2 0x991 JUMPI PUSH2 0x2FE JUMP JUMPDEST DUP1 PUSH4 0x8BA796AF EQ PUSH2 0x84D JUMPI DUP1 PUSH4 0x8C65C81F EQ PUSH2 0x876 JUMPI DUP1 PUSH4 0x8DA5CB5B EQ PUSH2 0x8B7 JUMPI PUSH2 0x2FE JUMP JUMPDEST DUP1 PUSH4 0x76671808 EQ PUSH2 0x73B JUMPI DUP1 PUSH4 0x78D5F781 EQ PUSH2 0x766 JUMPI DUP1 PUSH4 0x7B303965 EQ PUSH2 0x78F JUMPI DUP1 PUSH4 0x7BF41254 EQ PUSH2 0x7CE JUMPI DUP1 PUSH4 0x7D1CD04F EQ PUSH2 0x80B JUMPI DUP1 PUSH4 0x8456CB59 EQ PUSH2 0x836 JUMPI PUSH2 0x2FE JUMP JUMPDEST DUP1 PUSH4 0x55E3F086 GT PUSH2 0x24F JUMPI DUP1 PUSH4 0x62BFDF04 GT PUSH2 0x208 JUMPI DUP1 PUSH4 0x704B6C02 GT PUSH2 0x1E2 JUMPI DUP1 PUSH4 0x704B6C02 EQ PUSH2 0x6A4 JUMPI DUP1 PUSH4 0x715018A6 EQ PUSH2 0x6CD JUMPI DUP1 PUSH4 0x7285C58B EQ PUSH2 0x6E4 JUMPI DUP1 PUSH4 0x749AA2D9 EQ PUSH2 0x724 JUMPI PUSH2 0x2FE JUMP JUMPDEST DUP1 PUSH4 0x62BFDF04 EQ PUSH2 0x629 JUMPI DUP1 PUSH4 0x6BA4C138 EQ PUSH2 0x652 JUMPI DUP1 PUSH4 0x6E36C678 EQ PUSH2 0x67B JUMPI PUSH2 0x2FE JUMP JUMPDEST DUP1 PUSH4 0x55E3F086 EQ PUSH2 0x53D JUMPI DUP1 PUSH4 0x57ABD0F8 EQ PUSH2 0x554 JUMPI DUP1 PUSH4 0x58F7F6D2 EQ PUSH2 0x57D JUMPI DUP1 PUSH4 0x5C975ABB EQ PUSH2 0x5A8 JUMPI DUP1 PUSH4 0x5EA9417C EQ PUSH2 0x5D3 JUMPI DUP1 PUSH4 0x60554011 EQ PUSH2 0x5FE JUMPI PUSH2 0x2FE JUMP JUMPDEST DUP1 PUSH4 0x296A80A9 GT PUSH2 0x2BC JUMPI DUP1 PUSH4 0x3F4BA83A GT PUSH2 0x296 JUMPI DUP1 PUSH4 0x3F4BA83A EQ PUSH2 0x4A4 JUMPI DUP1 PUSH4 0x4F1EF286 EQ PUSH2 0x4BB JUMPI DUP1 PUSH4 0x4F64B2BE EQ PUSH2 0x4D7 JUMPI DUP1 PUSH4 0x53A79D74 EQ PUSH2 0x514 JUMPI PUSH2 0x2FE JUMP JUMPDEST DUP1 PUSH4 0x296A80A9 EQ PUSH2 0x427 JUMPI DUP1 PUSH4 0x3659CFE6 EQ PUSH2 0x450 JUMPI DUP1 PUSH4 0x368ACB09 EQ PUSH2 0x479 JUMPI PUSH2 0x2FE JUMP JUMPDEST DUP1 PUSH3 0x3BDC74 EQ PUSH2 0x303 JUMPI DUP1 PUSH4 0x127EFFB2 EQ PUSH2 0x31A JUMPI DUP1 PUSH4 0x1521604E EQ PUSH2 0x345 JUMPI DUP1 PUSH4 0x1C8D04E2 EQ PUSH2 0x382 JUMPI DUP1 PUSH4 0x24360AE4 EQ PUSH2 0x3BF JUMPI DUP1 PUSH4 0x273867D4 EQ PUSH2 0x3EA JUMPI JUMPDEST PUSH1 0x0 DUP1 REVERT JUMPDEST CALLVALUE DUP1 ISZERO PUSH2 0x30F JUMPI PUSH1 0x0 DUP1 REVERT JUMPDEST POP PUSH2 0x318 PUSH2 0xC05 JUMP JUMPDEST STOP JUMPDEST CALLVALUE DUP1 ISZERO PUSH2 0x326 JUMPI PUSH1 0x0 DUP1 REVERT JUMPDEST POP PUSH2 0x32F PUSH2 0xDFC JUMP JUMPDEST PUSH1 0x40 MLOAD PUSH2 0x33C SWAP2 SWAP1 PUSH2 0x80AC JUMP JUMPDEST PUSH1 0x40 MLOAD DUP1 SWAP2 SUB SWAP1 RETURN JUMPDEST CALLVALUE DUP1 ISZERO PUSH2 0x351 JUMPI PUSH1 0x0 DUP1 REVERT JUMPDEST POP PUSH2 0x36C PUSH1 0x4 DUP1 CALLDATASIZE SUB DUP2 ADD SWAP1 PUSH2 0x367 SWAP2 SWAP1 PUSH2 0x7579 JUMP JUMPDEST PUSH2 0xE23 JUMP JUMPDEST PUSH1 0x40 MLOAD PUSH2 0x379 SWAP2 SWAP1 PUSH2 0x8203 JUMP JUMPDEST PUSH1 0x40 MLOAD DUP1 SWAP2 SUB SWAP1 RETURN JUMPDEST CALLVALUE DUP1 ISZERO PUSH2 0x38E JUMPI PUSH1 0x0 DUP1 REVERT JUMPDEST POP PUSH2 0x3A9 PUSH1 0x4 DUP1 CALLDATASIZE SUB DUP2 ADD SWAP1 PUSH2 0x3A4 SWAP2 SWAP1 PUSH2 0x7579 JUMP JUMPDEST PUSH2 0x120B JUMP JUMPDEST PUSH1 0x40 MLOAD PUSH2 0x3B6 SWAP2 SWAP1 PUSH2 0x8203 JUMP JUMPDEST PUSH1 0x40 MLOAD DUP1 SWAP2 SUB SWAP1 RETURN JUMPDEST CALLVALUE DUP1 ISZERO PUSH2 0x3CB JUMPI PUSH1 0x0 DUP1 REVERT JUMPDEST POP PUSH2 0x3D4 PUSH2 0x15F4 JUMP JUMPDEST PUSH1 0x40 MLOAD PUSH2 0x3E1 SWAP2 SWAP1 PUSH2 0x875B JUMP JUMPDEST PUSH1 0x40 MLOAD DUP1 SWAP2 SUB SWAP1 RETURN JUMPDEST CALLVALUE DUP1 ISZERO PUSH2 0x3F6 JUMPI PUSH1 0x0 DUP1 REVERT JUMPDEST POP PUSH2 0x411 PUSH1 0x4 DUP1 CALLDATASIZE SUB DUP2 ADD SWAP1 PUSH2 0x40C SWAP2 SWAP1 PUSH2 0x744A JUMP JUMPDEST PUSH2 0x15FB JUMP JUMPDEST PUSH1 0x40 MLOAD PUSH2 0x41E SWAP2 SWAP1 PUSH2 0x875B JUMP JUMPDEST PUSH1 0x40 MLOAD DUP1 SWAP2 SUB SWAP1 RETURN JUMPDEST CALLVALUE DUP1 ISZERO PUSH2 0x433 JUMPI PUSH1 0x0 DUP1 REVERT JUMPDEST POP PUSH2 0x44E PUSH1 0x4 DUP1 CALLDATASIZE SUB DUP2 ADD SWAP1 PUSH2 0x449 SWAP2 SWAP1 PUSH2 0x7748 JUMP JUMPDEST PUSH2 0x1648 JUMP JUMPDEST STOP JUMPDEST CALLVALUE DUP1 ISZERO PUSH2 0x45C JUMPI PUSH1 0x0 DUP1 REVERT JUMPDEST POP PUSH2 0x477 PUSH1 0x4 DUP1 CALLDATASIZE SUB DUP2 ADD SWAP1 PUSH2 0x472 SWAP2 SWAP1 PUSH2 0x744A JUMP JUMPDEST PUSH2 0x1D0E JUMP JUMPDEST STOP JUMPDEST CALLVALUE DUP1 ISZERO PUSH2 0x485 JUMPI PUSH1 0x0 DUP1 REVERT JUMPDEST POP PUSH2 0x48E PUSH2 0x1D35 JUMP JUMPDEST PUSH1 0x40 MLOAD PUSH2 0x49B SWAP2 SWAP1 PUSH2 0x875B JUMP JUMPDEST PUSH1 0x40 MLOAD DUP1 SWAP2 SUB SWAP1 RETURN JUMPDEST CALLVALUE DUP1 ISZERO PUSH2 0x4B0 JUMPI PUSH1 0x0 DUP1 REVERT JUMPDEST POP PUSH2 0x4B9 PUSH2 0x1D3C JUMP JUMPDEST STOP JUMPDEST PUSH2 0x4D5 PUSH1 0x4 DUP1 CALLDATASIZE SUB DUP2 ADD SWAP1 PUSH2 0x4D0 SWAP2 SWAP1 PUSH2 0x7525 JUMP JUMPDEST PUSH2 0x1E4E JUMP JUMPDEST STOP JUMPDEST CALLVALUE DUP1 ISZERO PUSH2 0x4E3 JUMPI PUSH1 0x0 DUP1 REVERT JUMPDEST POP PUSH2 0x4FE PUSH1 0x4 DUP1 CALLDATASIZE SUB DUP2 ADD SWAP1 PUSH2 0x4F9 SWAP2 SWAP1 PUSH2 0x771F JUMP JUMPDEST PUSH2 0x1E67 JUMP JUMPDEST PUSH1 0x40 MLOAD PUSH2 0x50B SWAP2 SWAP1 PUSH2 0x80AC JUMP JUMPDEST PUSH1 0x40 MLOAD DUP1 SWAP2 SUB SWAP1 RETURN JUMPDEST CALLVALUE DUP1 ISZERO PUSH2 0x520 JUMPI PUSH1 0x0 DUP1 REVERT JUMPDEST POP PUSH2 0x53B PUSH1 0x4 DUP1 CALLDATASIZE SUB DUP2 ADD SWAP1 PUSH2 0x536 SWAP2 SWAP1 PUSH2 0x771F JUMP JUMPDEST PUSH2 0x1EA7 JUMP JUMPDEST STOP JUMPDEST CALLVALUE DUP1 ISZERO PUSH2 0x549 JUMPI PUSH1 0x0 DUP1 REVERT JUMPDEST POP PUSH2 0x552 PUSH2 0x200C JUMP JUMPDEST STOP JUMPDEST CALLVALUE DUP1 ISZERO PUSH2 0x560 JUMPI PUSH1 0x0 DUP1 REVERT JUMPDEST POP PUSH2 0x57B PUSH1 0x4 DUP1 CALLDATASIZE SUB DUP2 ADD SWAP1 PUSH2 0x576 SWAP2 SWAP1 PUSH2 0x7748 JUMP JUMPDEST PUSH2 0x2130 JUMP JUMPDEST STOP JUMPDEST CALLVALUE DUP1 ISZERO PUSH2 0x589 JUMPI PUSH1 0x0 DUP1 REVERT JUMPDEST POP PUSH2 0x592 PUSH2 0x27F6 JUMP JUMPDEST PUSH1 0x40 MLOAD PUSH2 0x59F SWAP2 SWAP1 PUSH2 0x80AC JUMP JUMPDEST PUSH1 0x40 MLOAD DUP1 SWAP2 SUB SWAP1 RETURN JUMPDEST CALLVALUE DUP1 ISZERO PUSH2 0x5B4 JUMPI PUSH1 0x0 DUP1 REVERT JUMPDEST POP PUSH2 0x5BD PUSH2 0x280E JUMP JUMPDEST PUSH1 0x40 MLOAD PUSH2 0x5CA SWAP2 SWAP1 PUSH2 0x8203 JUMP JUMPDEST PUSH1 0x40 MLOAD DUP1 SWAP2 SUB SWAP1 RETURN JUMPDEST CALLVALUE DUP1 ISZERO PUSH2 0x5DF JUMPI PUSH1 0x0 DUP1 REVERT JUMPDEST POP PUSH2 0x5E8 PUSH2 0x2825 JUMP JUMPDEST PUSH1 0x40 MLOAD PUSH2 0x5F5 SWAP2 SWAP1 PUSH2 0x875B JUMP JUMPDEST PUSH1 0x40 MLOAD DUP1 SWAP2 SUB SWAP1 RETURN JUMPDEST CALLVALUE DUP1 ISZERO PUSH2 0x60A JUMPI PUSH1 0x0 DUP1 REVERT JUMPDEST POP PUSH2 0x613 PUSH2 0x282C JUMP JUMPDEST PUSH1 0x40 MLOAD PUSH2 0x620 SWAP2 SWAP1 PUSH2 0x875B JUMP JUMPDEST PUSH1 0x40 MLOAD DUP1 SWAP2 SUB SWAP1 RETURN JUMPDEST CALLVALUE DUP1 ISZERO PUSH2 0x635 JUMPI PUSH1 0x0 DUP1 REVERT JUMPDEST POP PUSH2 0x650 PUSH1 0x4 DUP1 CALLDATASIZE SUB DUP2 ADD SWAP1 PUSH2 0x64B SWAP2 SWAP1 PUSH2 0x7604 JUMP JUMPDEST PUSH2 0x2833 JUMP JUMPDEST STOP JUMPDEST CALLVALUE DUP1 ISZERO PUSH2 0x65E JUMPI PUSH1 0x0 DUP1 REVERT JUMPDEST POP PUSH2 0x679 PUSH1 0x4 DUP1 CALLDATASIZE SUB DUP2 ADD SWAP1 PUSH2 0x674 SWAP2 SWAP1 PUSH2 0x7670 JUMP JUMPDEST PUSH2 0x2DC4 JUMP JUMPDEST STOP JUMPDEST CALLVALUE DUP1 ISZERO PUSH2 0x687 JUMPI PUSH1 0x0 DUP1 REVERT JUMPDEST POP PUSH2 0x6A2 PUSH1 0x4 DUP1 CALLDATASIZE SUB DUP2 ADD SWAP1 PUSH2 0x69D SWAP2 SWAP1 PUSH2 0x771F JUMP JUMPDEST PUSH2 0x31A2 JUMP JUMPDEST STOP JUMPDEST CALLVALUE DUP1 ISZERO PUSH2 0x6B0 JUMPI PUSH1 0x0 DUP1 REVERT JUMPDEST POP PUSH2 0x6CB PUSH1 0x4 DUP1 CALLDATASIZE SUB DUP2 ADD SWAP1 PUSH2 0x6C6 SWAP2 SWAP1 PUSH2 0x744A JUMP JUMPDEST PUSH2 0x32BC JUMP JUMPDEST STOP JUMPDEST CALLVALUE DUP1 ISZERO PUSH2 0x6D9 JUMPI PUSH1 0x0 DUP1 REVERT JUMPDEST POP PUSH2 0x6E2 PUSH2 0x3424 JUMP JUMPDEST STOP JUMPDEST CALLVALUE DUP1 ISZERO PUSH2 0x6F0 JUMPI PUSH1 0x0 DUP1 REVERT JUMPDEST POP PUSH2 0x70B PUSH1 0x4 DUP1 CALLDATASIZE SUB DUP2 ADD SWAP1 PUSH2 0x706 SWAP2 SWAP1 PUSH2 0x7748 JUMP JUMPDEST PUSH2 0x34AC JUMP JUMPDEST PUSH1 0x40 MLOAD PUSH2 0x71B SWAP5 SWAP4 SWAP3 SWAP2 SWAP1 PUSH2 0x8254 JUMP JUMPDEST PUSH1 0x40 MLOAD DUP1 SWAP2 SUB SWAP1 RETURN JUMPDEST CALLVALUE DUP1 ISZERO PUSH2 0x730 JUMPI PUSH1 0x0 DUP1 REVERT JUMPDEST POP PUSH2 0x739 PUSH2 0x3524 JUMP JUMPDEST STOP JUMPDEST CALLVALUE DUP1 ISZERO PUSH2 0x747 JUMPI PUSH1 0x0 DUP1 REVERT JUMPDEST POP PUSH2 0x750 PUSH2 0x363B JUMP JUMPDEST PUSH1 0x40 MLOAD PUSH2 0x75D SWAP2 SWAP1 PUSH2 0x875B JUMP JUMPDEST PUSH1 0x40 MLOAD DUP1 SWAP2 SUB SWAP1 RETURN JUMPDEST CALLVALUE DUP1 ISZERO PUSH2 0x772 JUMPI PUSH1 0x0 DUP1 REVERT JUMPDEST POP PUSH2 0x78D PUSH1 0x4 DUP1 CALLDATASIZE SUB DUP2 ADD SWAP1 PUSH2 0x788 SWAP2 SWAP1 PUSH2 0x7604 JUMP JUMPDEST PUSH2 0x3642 JUMP JUMPDEST STOP JUMPDEST CALLVALUE DUP1 ISZERO PUSH2 0x79B JUMPI PUSH1 0x0 DUP1 REVERT JUMPDEST POP PUSH2 0x7B6 PUSH1 0x4 DUP1 CALLDATASIZE SUB DUP2 ADD SWAP1 PUSH2 0x7B1 SWAP2 SWAP1 PUSH2 0x771F JUMP JUMPDEST PUSH2 0x3BD9 JUMP JUMPDEST PUSH1 0x40 MLOAD PUSH2 0x7C5 SWAP4 SWAP3 SWAP2 SWAP1 PUSH2 0x8172 JUMP JUMPDEST PUSH1 0x40 MLOAD DUP1 SWAP2 SUB SWAP1 RETURN JUMPDEST CALLVALUE DUP1 ISZERO PUSH2 0x7DA JUMPI PUSH1 0x0 DUP1 REVERT JUMPDEST POP PUSH2 0x7F5 PUSH1 0x4 DUP1 CALLDATASIZE SUB DUP2 ADD SWAP1 PUSH2 0x7F0 SWAP2 SWAP1 PUSH2 0x7748 JUMP JUMPDEST PUSH2 0x3E60 JUMP JUMPDEST PUSH1 0x40 MLOAD PUSH2 0x802 SWAP2 SWAP1 PUSH2 0x8203 JUMP JUMPDEST PUSH1 0x40 MLOAD DUP1 SWAP2 SUB SWAP1 RETURN JUMPDEST CALLVALUE DUP1 ISZERO PUSH2 0x817 JUMPI PUSH1 0x0 DUP1 REVERT JUMPDEST POP PUSH2 0x820 PUSH2 0x4034 JUMP JUMPDEST PUSH1 0x40 MLOAD PUSH2 0x82D SWAP2 SWAP1 PUSH2 0x875B JUMP JUMPDEST PUSH1 0x40 MLOAD DUP1 SWAP2 SUB SWAP1 RETURN JUMPDEST CALLVALUE DUP1 ISZERO PUSH2 0x842 JUMPI PUSH1 0x0 DUP1 REVERT JUMPDEST POP PUSH2 0x84B PUSH2 0x403B JUMP JUMPDEST STOP JUMPDEST CALLVALUE DUP1 ISZERO PUSH2 0x859 JUMPI PUSH1 0x0 DUP1 REVERT JUMPDEST POP PUSH2 0x874 PUSH1 0x4 DUP1 CALLDATASIZE SUB DUP2 ADD SWAP1 PUSH2 0x86F SWAP2 SWAP1 PUSH2 0x7473 JUMP JUMPDEST PUSH2 0x41A7 JUMP JUMPDEST STOP JUMPDEST CALLVALUE DUP1 ISZERO PUSH2 0x882 JUMPI PUSH1 0x0 DUP1 REVERT JUMPDEST POP PUSH2 0x89D PUSH1 0x4 DUP1 CALLDATASIZE SUB DUP2 ADD SWAP1 PUSH2 0x898 SWAP2 SWAP1 PUSH2 0x771F JUMP JUMPDEST PUSH2 0x4344 JUMP JUMPDEST PUSH1 0x40 MLOAD PUSH2 0x8AE SWAP6 SWAP5 SWAP4 SWAP3 SWAP2 SWAP1 PUSH2 0x879F JUMP JUMPDEST PUSH1 0x40 MLOAD DUP1 SWAP2 SUB SWAP1 RETURN JUMPDEST CALLVALUE DUP1 ISZERO PUSH2 0x8C3 JUMPI PUSH1 0x0 DUP1 REVERT JUMPDEST POP PUSH2 0x8CC PUSH2 0x4388 JUMP JUMPDEST PUSH1 0x40 MLOAD PUSH2 0x8D9 SWAP2 SWAP1 PUSH2 0x80AC JUMP JUMPDEST PUSH1 0x40 MLOAD DUP1 SWAP2 SUB SWAP1 RETURN JUMPDEST CALLVALUE DUP1 ISZERO PUSH2 0x8EE JUMPI PUSH1 0x0 DUP1 REVERT JUMPDEST POP PUSH2 0x909 PUSH1 0x4 DUP1 CALLDATASIZE SUB DUP2 ADD SWAP1 PUSH2 0x904 SWAP2 SWAP1 PUSH2 0x771F JUMP JUMPDEST PUSH2 0x43B2 JUMP JUMPDEST PUSH1 0x40 MLOAD PUSH2 0x920 SWAP12 SWAP11 SWAP10 SWAP9 SWAP8 SWAP7 SWAP6 SWAP5 SWAP4 SWAP3 SWAP2 SWAP1 PUSH2 0x87F2 JUMP JUMPDEST PUSH1 0x40 MLOAD DUP1 SWAP2 SUB SWAP1 RETURN JUMPDEST CALLVALUE DUP1 ISZERO PUSH2 0x935 JUMPI PUSH1 0x0 DUP1 REVERT JUMPDEST POP PUSH2 0x950 PUSH1 0x4 DUP1 CALLDATASIZE SUB DUP2 ADD SWAP1 PUSH2 0x94B SWAP2 SWAP1 PUSH2 0x7784 JUMP JUMPDEST PUSH2 0x4964 JUMP JUMPDEST STOP JUMPDEST CALLVALUE DUP1 ISZERO PUSH2 0x95E JUMPI PUSH1 0x0 DUP1 REVERT JUMPDEST POP PUSH2 0x979 PUSH1 0x4 DUP1 CALLDATASIZE SUB DUP2 ADD SWAP1 PUSH2 0x974 SWAP2 SWAP1 PUSH2 0x75B5 JUMP JUMPDEST PUSH2 0x4B16 JUMP JUMPDEST PUSH1 0x40 MLOAD PUSH2 0x988 SWAP4 SWAP3 SWAP2 SWAP1 PUSH2 0x81BE JUMP JUMPDEST PUSH1 0x40 MLOAD DUP1 SWAP2 SUB SWAP1 RETURN JUMPDEST CALLVALUE DUP1 ISZERO PUSH2 0x99D JUMPI PUSH1 0x0 DUP1 REVERT JUMPDEST POP PUSH2 0x9A6 PUSH2 0x4FAC JUMP JUMPDEST PUSH1 0x40 MLOAD PUSH2 0x9B3 SWAP2 SWAP1 PUSH2 0x8150 JUMP JUMPDEST PUSH1 0x40 MLOAD DUP1 SWAP2 SUB SWAP1 RETURN JUMPDEST CALLVALUE DUP1 ISZERO PUSH2 0x9C8 JUMPI PUSH1 0x0 DUP1 REVERT JUMPDEST POP PUSH2 0x9E3 PUSH1 0x4 DUP1 CALLDATASIZE SUB DUP2 ADD SWAP1 PUSH2 0x9DE SWAP2 SWAP1 PUSH2 0x744A JUMP JUMPDEST PUSH2 0x503B JUMP JUMPDEST PUSH1 0x40 MLOAD PUSH2 0x9F0 SWAP2 SWAP1 PUSH2 0x821E JUMP JUMPDEST PUSH1 0x40 MLOAD DUP1 SWAP2 SUB SWAP1 RETURN JUMPDEST CALLVALUE DUP1 ISZERO PUSH2 0xA05 JUMPI PUSH1 0x0 DUP1 REVERT JUMPDEST POP PUSH2 0xA20 PUSH1 0x4 DUP1 CALLDATASIZE SUB DUP2 ADD SWAP1 PUSH2 0xA1B SWAP2 SWAP1 PUSH2 0x7579 JUMP JUMPDEST PUSH2 0x506F JUMP JUMPDEST STOP JUMPDEST CALLVALUE DUP1 ISZERO PUSH2 0xA2E JUMPI PUSH1 0x0 DUP1 REVERT JUMPDEST POP PUSH2 0xA49 PUSH1 0x4 DUP1 CALLDATASIZE SUB DUP2 ADD SWAP1 PUSH2 0xA44 SWAP2 SWAP1 PUSH2 0x744A JUMP JUMPDEST PUSH2 0x51EB JUMP JUMPDEST STOP JUMPDEST CALLVALUE DUP1 ISZERO PUSH2 0xA57 JUMPI PUSH1 0x0 DUP1 REVERT JUMPDEST POP PUSH2 0xA72 PUSH1 0x4 DUP1 CALLDATASIZE SUB DUP2 ADD SWAP1 PUSH2 0xA6D SWAP2 SWAP1 PUSH2 0x771F JUMP JUMPDEST PUSH2 0x5368 JUMP JUMPDEST STOP JUMPDEST CALLVALUE DUP1 ISZERO PUSH2 0xA80 JUMPI PUSH1 0x0 DUP1 REVERT JUMPDEST POP PUSH2 0xA89 PUSH2 0x5482 JUMP JUMPDEST PUSH1 0x40 MLOAD PUSH2 0xA96 SWAP2 SWAP1 PUSH2 0x875B JUMP JUMPDEST PUSH1 0x40 MLOAD DUP1 SWAP2 SUB SWAP1 RETURN JUMPDEST CALLVALUE DUP1 ISZERO PUSH2 0xAAB JUMPI PUSH1 0x0 DUP1 REVERT JUMPDEST POP PUSH2 0xAC6 PUSH1 0x4 DUP1 CALLDATASIZE SUB DUP2 ADD SWAP1 PUSH2 0xAC1 SWAP2 SWAP1 PUSH2 0x7579 JUMP JUMPDEST PUSH2 0x5489 JUMP JUMPDEST PUSH1 0x40 MLOAD PUSH2 0xAD3 SWAP2 SWAP1 PUSH2 0x875B JUMP JUMPDEST PUSH1 0x40 MLOAD DUP1 SWAP2 SUB SWAP1 RETURN JUMPDEST CALLVALUE DUP1 ISZERO PUSH2 0xAE8 JUMPI PUSH1 0x0 DUP1 REVERT JUMPDEST POP PUSH2 0xAF1 PUSH2 0x54BB JUMP JUMPDEST PUSH1 0x40 MLOAD PUSH2 0xAFE SWAP2 SWAP1 PUSH2 0x8239 JUMP JUMPDEST PUSH1 0x40 MLOAD DUP1 SWAP2 SUB SWAP1 RETURN JUMPDEST CALLVALUE DUP1 ISZERO PUSH2 0xB13 JUMPI PUSH1 0x0 DUP1 REVERT JUMPDEST POP PUSH2 0xB1C PUSH2 0x54D3 JUMP JUMPDEST PUSH1 0x40 MLOAD PUSH2 0xB29 SWAP2 SWAP1 PUSH2 0x875B JUMP JUMPDEST PUSH1 0x40 MLOAD DUP1 SWAP2 SUB SWAP1 RETURN JUMPDEST CALLVALUE DUP1 ISZERO PUSH2 0xB3E JUMPI PUSH1 0x0 DUP1 REVERT JUMPDEST POP PUSH2 0xB47 PUSH2 0x54DA JUMP JUMPDEST PUSH1 0x40 MLOAD PUSH2 0xB54 SWAP2 SWAP1 PUSH2 0x875B JUMP JUMPDEST PUSH1 0x40 MLOAD DUP1 SWAP2 SUB SWAP1 RETURN JUMPDEST CALLVALUE DUP1 ISZERO PUSH2 0xB69 JUMPI PUSH1 0x0 DUP1 REVERT JUMPDEST POP PUSH2 0xB72 PUSH2 0x54E1 JUMP JUMPDEST PUSH1 0x40 MLOAD PUSH2 0xB7F SWAP2 SWAP1 PUSH2 0x875B JUMP JUMPDEST PUSH1 0x40 MLOAD DUP1 SWAP2 SUB SWAP1 RETURN JUMPDEST CALLVALUE DUP1 ISZERO PUSH2 0xB94 JUMPI PUSH1 0x0 DUP1 REVERT JUMPDEST POP PUSH2 0xBAF PUSH1 0x4 DUP1 CALLDATASIZE SUB DUP2 ADD SWAP1 PUSH2 0xBAA SWAP2 SWAP1 PUSH2 0x744A JUMP JUMPDEST PUSH2 0x54E7 JUMP JUMPDEST STOP JUMPDEST CALLVALUE DUP1 ISZERO PUSH2 0xBBD JUMPI PUSH1 0x0 DUP1 REVERT JUMPDEST POP PUSH2 0xBC6 PUSH2 0x55DF JUMP JUMPDEST PUSH1 0x40 MLOAD PUSH2 0xBD3 SWAP2 SWAP1 PUSH2 0x80AC JUMP JUMPDEST PUSH1 0x40 MLOAD DUP1 SWAP2 SUB SWAP1 RETURN JUMPDEST CALLVALUE DUP1 ISZERO PUSH2 0xBE8 JUMPI PUSH1 0x0 DUP1 REVERT JUMPDEST POP PUSH2 0xC03 PUSH1 0x4 DUP1 CALLDATASIZE SUB DUP2 ADD SWAP1 PUSH2 0xBFE SWAP2 SWAP1 PUSH2 0x76B5 JUMP JUMPDEST PUSH2 0x5606 JUMP JUMPDEST STOP JUMPDEST PUSH1 0x2 PUSH1 0x97 SLOAD EQ ISZERO PUSH2 0xC4B JUMPI PUSH1 0x40 MLOAD PUSH32 0x8C379A000000000000000000000000000000000000000000000000000000000 DUP2 MSTORE PUSH1 0x4 ADD PUSH2 0xC42 SWAP1 PUSH2 0x867B JUMP JUMPDEST PUSH1 0x40 MLOAD DUP1 SWAP2 SUB SWAP1 REVERT JUMPDEST PUSH1 0x2 PUSH1 0x97 DUP2 SWAP1 SSTORE POP PUSH2 0x12D PUSH1 0x0 SWAP1 SLOAD SWAP1 PUSH2 0x100 EXP SWAP1 DIV PUSH20 0xFFFFFFFFFFFFFFFFFFFFFFFFFFFFFFFFFFFFFFFF AND PUSH20 0xFFFFFFFFFFFFFFFFFFFFFFFFFFFFFFFFFFFFFFFF AND CALLER PUSH20 0xFFFFFFFFFFFFFFFFFFFFFFFFFFFFFFFFFFFFFFFF AND EQ PUSH2 0xCE4 JUMPI PUSH1 0x40 MLOAD PUSH32 0x8C379A000000000000000000000000000000000000000000000000000000000 DUP2 MSTORE PUSH1 0x4 ADD PUSH2 0xCDB SWAP1 PUSH2 0x871B JUMP JUMPDEST PUSH1 0x40 MLOAD DUP1 SWAP2 SUB SWAP1 REVERT JUMPDEST PUSH1 0x0 PUSH2 0x133 SLOAD SWAP1 POP PUSH1 0x0 PUSH2 0x133 DUP2 SWAP1 SSTORE POP PUSH20 0xB2D7B35539A543BBE4C74965488FFE33C6721F0D PUSH20 0xFFFFFFFFFFFFFFFFFFFFFFFFFFFFFFFFFFFFFFFF AND PUSH4 0xA9059CBB PUSH2 0x12D PUSH1 0x0 SWAP1 SLOAD SWAP1 PUSH2 0x100 EXP SWAP1 DIV PUSH20 0xFFFFFFFFFFFFFFFFFFFFFFFFFFFFFFFFFFFFFFFF AND DUP4 PUSH1 0x40 MLOAD DUP4 PUSH4 0xFFFFFFFF AND PUSH1 0xE0 SHL DUP2 MSTORE PUSH1 0x4 ADD PUSH2 0xD67 SWAP3 SWAP2 SWAP1 PUSH2 0x8127 JUMP JUMPDEST PUSH1 0x20 PUSH1 0x40 MLOAD DUP1 DUP4 SUB DUP2 PUSH1 0x0 DUP8 DUP1 EXTCODESIZE ISZERO DUP1 ISZERO PUSH2 0xD81 JUMPI PUSH1 0x0 DUP1 REVERT JUMPDEST POP GAS CALL ISZERO DUP1 ISZERO PUSH2 0xD95 JUMPI RETURNDATASIZE PUSH1 0x0 DUP1 RETURNDATACOPY RETURNDATASIZE PUSH1 0x0 REVERT JUMPDEST POP POP POP POP PUSH1 0x40 MLOAD RETURNDATASIZE PUSH1 0x1F NOT PUSH1 0x1F DUP3 ADD AND DUP3 ADD DUP1 PUSH1 0x40 MSTORE POP DUP2 ADD SWAP1 PUSH2 0xDB9 SWAP2 SWAP1 PUSH2 0x76F6 JUMP JUMPDEST POP PUSH32 0xB9197C6B8E21274BD1E2D9C956A88AF5CFEE510F630FAB3F046300F88B422361 DUP2 PUSH1 0x40 MLOAD PUSH2 0xDE9 SWAP2 SWAP1 PUSH2 0x875B JUMP JUMPDEST PUSH1 0x40 MLOAD DUP1 SWAP2 SUB SWAP1 LOG1 POP PUSH1 0x1 PUSH1 0x97 DUP2 SWAP1 SSTORE POP JUMP JUMPDEST PUSH2 0x12E PUSH1 0x0 SWAP1 SLOAD SWAP1 PUSH2 0x100 EXP SWAP1 DIV PUSH20 0xFFFFFFFFFFFFFFFFFFFFFFFFFFFFFFFFFFFFFFFF AND DUP2 JUMP JUMPDEST PUSH1 0x0 DUP1 PUSH2 0x138 PUSH1 0x0 DUP5 DUP2 MSTORE PUSH1 0x20 ADD SWAP1 DUP2 MSTORE PUSH1 0x20 ADD PUSH1 0x0 KECCAK256 PUSH1 0x0 DUP6 PUSH20 0xFFFFFFFFFFFFFFFFFFFFFFFFFFFFFFFFFFFFFFFF AND PUSH20 0xFFFFFFFFFFFFFFFFFFFFFFFFFFFFFFFFFFFFFFFF AND DUP2 MSTORE PUSH1 0x20 ADD SWAP1 DUP2 MSTORE PUSH1 0x20 ADD PUSH1 0x0 KECCAK256 PUSH1 0x40 MLOAD DUP1 PUSH1 0x80 ADD PUSH1 0x40 MSTORE SWAP1 DUP2 PUSH1 0x0 DUP3 ADD PUSH1 0x0 SWAP1 SLOAD SWAP1 PUSH2 0x100 EXP SWAP1 DIV PUSH1 0xFF AND PUSH1 0x1 DUP2 GT ISZERO PUSH2 0xECD JUMPI PUSH32 0x4E487B7100000000000000000000000000000000000000000000000000000000 PUSH1 0x0 MSTORE PUSH1 0x21 PUSH1 0x4 MSTORE PUSH1 0x24 PUSH1 0x0 REVERT JUMPDEST PUSH1 0x1 DUP2 GT ISZERO PUSH2 0xF05 JUMPI PUSH32 0x4E487B7100000000000000000000000000000000000000000000000000000000 PUSH1 0x0 MSTORE PUSH1 0x21 PUSH1 0x4 MSTORE PUSH1 0x24 PUSH1 0x0 REVERT JUMPDEST DUP2 MSTORE PUSH1 0x20 ADD PUSH1 0x0 DUP3 ADD PUSH1 0x1 SWAP1 SLOAD SWAP1 PUSH2 0x100 EXP SWAP1 DIV PUSH20 0xFFFFFFFFFFFFFFFFFFFFFFFFFFFFFFFFFFFFFFFF AND PUSH20 0xFFFFFFFFFFFFFFFFFFFFFFFFFFFFFFFFFFFFFFFF AND PUSH20 0xFFFFFFFFFFFFFFFFFFFFFFFFFFFFFFFFFFFFFFFF AND DUP2 MSTORE PUSH1 0x20 ADD PUSH1 0x1 DUP3 ADD SLOAD DUP2 MSTORE PUSH1 0x20 ADD PUSH1 0x2 DUP3 ADD PUSH1 0x0 SWAP1 SLOAD SWAP1 PUSH2 0x100 EXP SWAP1 DIV PUSH1 0xFF AND ISZERO ISZERO ISZERO ISZERO DUP2 MSTORE POP POP SWAP1 POP PUSH1 0x0 PUSH20 0xFFFFFFFFFFFFFFFFFFFFFFFFFFFFFFFFFFFFFFFF AND DUP2 PUSH1 0x20 ADD MLOAD PUSH20 0xFFFFFFFFFFFFFFFFFFFFFFFFFFFFFFFFFFFFFFFF AND EQ DUP1 PUSH2 0xFC6 JUMPI POP DUP1 PUSH1 0x60 ADD MLOAD JUMPDEST DUP1 PUSH2 0xFF3 JUMPI POP PUSH2 0x139 PUSH1 0x0 DUP5 DUP2 MSTORE PUSH1 0x20 ADD SWAP1 DUP2 MSTORE PUSH1 0x20 ADD PUSH1 0x0 KECCAK256 PUSH1 0x4 ADD PUSH1 0x0 SWAP1 SLOAD SWAP1 PUSH2 0x100 EXP SWAP1 DIV PUSH1 0xFF AND ISZERO JUMPDEST ISZERO PUSH2 0x1002 JUMPI PUSH1 0x0 SWAP2 POP POP PUSH2 0x1205 JUMP JUMPDEST PUSH2 0x139 PUSH1 0x0 DUP5 DUP2 MSTORE PUSH1 0x20 ADD SWAP1 DUP2 MSTORE PUSH1 0x20 ADD PUSH1 0x0 KECCAK256 PUSH1 0xB ADD PUSH1 0x0 DUP3 PUSH1 0x20 ADD MLOAD PUSH20 0xFFFFFFFFFFFFFFFFFFFFFFFFFFFFFFFFFFFFFFFF AND PUSH20 0xFFFFFFFFFFFFFFFFFFFFFFFFFFFFFFFFFFFFFFFF AND DUP2 MSTORE PUSH1 0x20 ADD SWAP1 DUP2 MSTORE PUSH1 0x20 ADD PUSH1 0x0 KECCAK256 SLOAD PUSH2 0x139 PUSH1 0x0 DUP6 DUP2 MSTORE PUSH1 0x20 ADD SWAP1 DUP2 MSTORE PUSH1 0x20 ADD PUSH1 0x0 KECCAK256 PUSH1 0xA ADD PUSH1 0x0 DUP4 PUSH1 0x20 ADD MLOAD PUSH20 0xFFFFFFFFFFFFFFFFFFFFFFFFFFFFFFFFFFFFFFFF AND PUSH20 0xFFFFFFFFFFFFFFFFFFFFFFFFFFFFFFFFFFFFFFFF AND DUP2 MSTORE PUSH1 0x20 ADD SWAP1 DUP2 MSTORE PUSH1 0x20 ADD PUSH1 0x0 KECCAK256 SLOAD EQ ISZERO PUSH2 0x10C4 JUMPI PUSH1 0x0 SWAP2 POP POP PUSH2 0x1205 JUMP JUMPDEST PUSH1 0x0 PUSH2 0x139 PUSH1 0x0 DUP6 DUP2 MSTORE PUSH1 0x20 ADD SWAP1 DUP2 MSTORE PUSH1 0x20 ADD PUSH1 0x0 KECCAK256 PUSH1 0xB ADD PUSH1 0x0 DUP4 PUSH1 0x20 ADD MLOAD PUSH20 0xFFFFFFFFFFFFFFFFFFFFFFFFFFFFFFFFFFFFFFFF AND PUSH20 0xFFFFFFFFFFFFFFFFFFFFFFFFFFFFFFFFFFFFFFFF AND DUP2 MSTORE PUSH1 0x20 ADD SWAP1 DUP2 MSTORE PUSH1 0x20 ADD PUSH1 0x0 KECCAK256 SLOAD PUSH2 0x139 PUSH1 0x0 DUP7 DUP2 MSTORE PUSH1 0x20 ADD SWAP1 DUP2 MSTORE PUSH1 0x20 ADD PUSH1 0x0 KECCAK256 PUSH1 0xA ADD PUSH1 0x0 DUP5 PUSH1 0x20 ADD MLOAD PUSH20 0xFFFFFFFFFFFFFFFFFFFFFFFFFFFFFFFFFFFFFFFF AND PUSH20 0xFFFFFFFFFFFFFFFFFFFFFFFFFFFFFFFFFFFFFFFF AND DUP2 MSTORE PUSH1 0x20 ADD SWAP1 DUP2 MSTORE PUSH1 0x20 ADD PUSH1 0x0 KECCAK256 SLOAD SGT PUSH2 0x1184 JUMPI PUSH1 0x0 PUSH2 0x1187 JUMP JUMPDEST PUSH1 0x1 JUMPDEST SWAP1 POP DUP1 PUSH1 0x1 DUP2 GT ISZERO PUSH2 0x11C2 JUMPI PUSH32 0x4E487B7100000000000000000000000000000000000000000000000000000000 PUSH1 0x0 MSTORE PUSH1 0x21 PUSH1 0x4 MSTORE PUSH1 0x24 PUSH1 0x0 REVERT JUMPDEST DUP3 PUSH1 0x0 ADD MLOAD PUSH1 0x1 DUP2 GT ISZERO PUSH2 0x11FF JUMPI PUSH32 0x4E487B7100000000000000000000000000000000000000000000000000000000 PUSH1 0x0 MSTORE PUSH1 0x21 PUSH1 0x4 MSTORE PUSH1 0x24 PUSH1 0x0 REVERT JUMPDEST EQ SWAP3 POP POP POP JUMPDEST SWAP3 SWAP2 POP POP JUMP JUMPDEST PUSH1 0x0 DUP1 PUSH2 0x138 PUSH1 0x0 DUP5 DUP2 MSTORE PUSH1 0x20 ADD SWAP1 DUP2 MSTORE PUSH1 0x20 ADD PUSH1 0x0 KECCAK256 PUSH1 0x0 DUP6 PUSH20 0xFFFFFFFFFFFFFFFFFFFFFFFFFFFFFFFFFFFFFFFF AND PUSH20 0xFFFFFFFFFFFFFFFFFFFFFFFFFFFFFFFFFFFFFFFF AND DUP2 MSTORE PUSH1 0x20 ADD SWAP1 DUP2 MSTORE PUSH1 0x20 ADD PUSH1 0x0 KECCAK256 PUSH1 0x40 MLOAD DUP1 PUSH1 0x80 ADD PUSH1 0x40 MSTORE SWAP1 DUP2 PUSH1 0x0 DUP3 ADD PUSH1 0x0 SWAP1 SLOAD SWAP1 PUSH2 0x100 EXP SWAP1 DIV PUSH1 0xFF AND PUSH1 0x1 DUP2 GT ISZERO PUSH2 0x12B5 JUMPI PUSH32 0x4E487B7100000000000000000000000000000000000000000000000000000000 PUSH1 0x0 MSTORE PUSH1 0x21 PUSH1 0x4 MSTORE PUSH1 0x24 PUSH1 0x0 REVERT JUMPDEST PUSH1 0x1 DUP2 GT ISZERO PUSH2 0x12ED JUMPI PUSH32 0x4E487B7100000000000000000000000000000000000000000000000000000000 PUSH1 0x0 MSTORE PUSH1 0x21 PUSH1 0x4 MSTORE PUSH1 0x24 PUSH1 0x0 REVERT JUMPDEST DUP2 MSTORE PUSH1 0x20 ADD PUSH1 0x0 DUP3 ADD PUSH1 0x1 SWAP1 SLOAD SWAP1 PUSH2 0x100 EXP SWAP1 DIV PUSH20 0xFFFFFFFFFFFFFFFFFFFFFFFFFFFFFFFFFFFFFFFF AND PUSH20 0xFFFFFFFFFFFFFFFFFFFFFFFFFFFFFFFFFFFFFFFF AND PUSH20 0xFFFFFFFFFFFFFFFFFFFFFFFFFFFFFFFFFFFFFFFF AND DUP2 MSTORE PUSH1 0x20 ADD PUSH1 0x1 DUP3 ADD SLOAD DUP2 MSTORE PUSH1 0x20 ADD PUSH1 0x2 DUP3 ADD PUSH1 0x0 SWAP1 SLOAD SWAP1 PUSH2 0x100 EXP SWAP1 DIV PUSH1 0xFF AND ISZERO ISZERO ISZERO ISZERO DUP2 MSTORE POP POP SWAP1 POP PUSH1 0x0 PUSH20 0xFFFFFFFFFFFFFFFFFFFFFFFFFFFFFFFFFFFFFFFF AND DUP2 PUSH1 0x20 ADD MLOAD PUSH20 0xFFFFFFFFFFFFFFFFFFFFFFFFFFFFFFFFFFFFFFFF AND EQ DUP1 PUSH2 0x13AE JUMPI POP DUP1 PUSH1 0x60 ADD MLOAD JUMPDEST DUP1 PUSH2 0x13DB JUMPI POP PUSH2 0x139 PUSH1 0x0 DUP5 DUP2 MSTORE PUSH1 0x20 ADD SWAP1 DUP2 MSTORE PUSH1 0x20 ADD PUSH1 0x0 KECCAK256 PUSH1 0x4 ADD PUSH1 0x0 SWAP1 SLOAD SWAP1 PUSH2 0x100 EXP SWAP1 DIV PUSH1 0xFF AND ISZERO JUMPDEST ISZERO PUSH2 0x13EA JUMPI PUSH1 0x0 SWAP2 POP POP PUSH2 0x15EE JUMP JUMPDEST PUSH2 0x139 PUSH1 0x0 DUP5 DUP2 MSTORE PUSH1 0x20 ADD SWAP1 DUP2 MSTORE PUSH1 0x20 ADD PUSH1 0x0 KECCAK256 PUSH1 0xB ADD PUSH1 0x0 DUP3 PUSH1 0x20 ADD MLOAD PUSH20 0xFFFFFFFFFFFFFFFFFFFFFFFFFFFFFFFFFFFFFFFF AND PUSH20 0xFFFFFFFFFFFFFFFFFFFFFFFFFFFFFFFFFFFFFFFF AND DUP2 MSTORE PUSH1 0x20 ADD SWAP1 DUP2 MSTORE PUSH1 0x20 ADD PUSH1 0x0 KECCAK256 SLOAD PUSH2 0x139 PUSH1 0x0 DUP6 DUP2 MSTORE PUSH1 0x20 ADD SWAP1 DUP2 MSTORE PUSH1 0x20 ADD PUSH1 0x0 KECCAK256 PUSH1 0xA ADD PUSH1 0x0 DUP4 PUSH1 0x20 ADD MLOAD PUSH20 0xFFFFFFFFFFFFFFFFFFFFFFFFFFFFFFFFFFFFFFFF AND PUSH20 0xFFFFFFFFFFFFFFFFFFFFFFFFFFFFFFFFFFFFFFFF AND DUP2 MSTORE PUSH1 0x20 ADD SWAP1 DUP2 MSTORE PUSH1 0x20 ADD PUSH1 0x0 KECCAK256 SLOAD EQ ISZERO PUSH2 0x14AC JUMPI PUSH1 0x1 SWAP2 POP POP PUSH2 0x15EE JUMP JUMPDEST PUSH1 0x0 PUSH2 0x139 PUSH1 0x0 DUP6 DUP2 MSTORE PUSH1 0x20 ADD SWAP1 DUP2 MSTORE PUSH1 0x20 ADD PUSH1 0x0 KECCAK256 PUSH1 0xB ADD PUSH1 0x0 DUP4 PUSH1 0x20 ADD MLOAD PUSH20 0xFFFFFFFFFFFFFFFFFFFFFFFFFFFFFFFFFFFFFFFF AND PUSH20 0xFFFFFFFFFFFFFFFFFFFFFFFFFFFFFFFFFFFFFFFF AND DUP2 MSTORE PUSH1 0x20 ADD SWAP1 DUP2 MSTORE PUSH1 0x20 ADD PUSH1 0x0 KECCAK256 SLOAD PUSH2 0x139 PUSH1 0x0 DUP7 DUP2 MSTORE PUSH1 0x20 ADD SWAP1 DUP2 MSTORE PUSH1 0x20 ADD PUSH1 0x0 KECCAK256 PUSH1 0xA ADD PUSH1 0x0 DUP5 PUSH1 0x20 ADD MLOAD PUSH20 0xFFFFFFFFFFFFFFFFFFFFFFFFFFFFFFFFFFFFFFFF AND PUSH20 0xFFFFFFFFFFFFFFFFFFFFFFFFFFFFFFFFFFFFFFFF AND DUP2 MSTORE PUSH1 0x20 ADD SWAP1 DUP2 MSTORE PUSH1 0x20 ADD PUSH1 0x0 KECCAK256 SLOAD SGT PUSH2 0x156C JUMPI PUSH1 0x0 PUSH2 0x156F JUMP JUMPDEST PUSH1 0x1 JUMPDEST SWAP1 POP DUP1 PUSH1 0x1 DUP2 GT ISZERO PUSH2 0x15AA JUMPI PUSH32 0x4E487B7100000000000000000000000000000000000000000000000000000000 PUSH1 0x0 MSTORE PUSH1 0x21 PUSH1 0x4 MSTORE PUSH1 0x24 PUSH1 0x0 REVERT JUMPDEST DUP3 PUSH1 0x0 ADD MLOAD PUSH1 0x1 DUP2 GT ISZERO PUSH2 0x15E7 JUMPI PUSH32 0x4E487B7100000000000000000000000000000000000000000000000000000000 PUSH1 0x0 MSTORE PUSH1 0x21 PUSH1 0x4 MSTORE PUSH1 0x24 PUSH1 0x0 REVERT JUMPDEST EQ ISZERO SWAP3 POP POP POP JUMPDEST SWAP3 SWAP2 POP POP JUMP JUMPDEST PUSH2 0x131 SLOAD DUP2 JUMP JUMPDEST PUSH1 0x0 PUSH2 0x13A PUSH1 0x0 DUP4 PUSH20 0xFFFFFFFFFFFFFFFFFFFFFFFFFFFFFFFFFFFFFFFF AND PUSH20 0xFFFFFFFFFFFFFFFFFFFFFFFFFFFFFFFFFFFFFFFF AND DUP2 MSTORE PUSH1 0x20 ADD SWAP1 DUP2 MSTORE PUSH1 0x20 ADD PUSH1 0x0 KECCAK256 DUP1 SLOAD SWAP1 POP SWAP1 POP SWAP2 SWAP1 POP JUMP JUMPDEST PUSH2 0x1650 PUSH2 0x280E JUMP JUMPDEST ISZERO PUSH2 0x1690 JUMPI PUSH1 0x40 MLOAD PUSH32 0x8C379A000000000000000000000000000000000000000000000000000000000 DUP2 MSTORE PUSH1 0x4 ADD PUSH2 0x1687 SWAP1 PUSH2 0x847B JUMP JUMPDEST PUSH1 0x40 MLOAD DUP1 SWAP2 SUB SWAP1 REVERT JUMPDEST PUSH1 0x2 PUSH1 0x97 SLOAD EQ ISZERO PUSH2 0x16D6 JUMPI PUSH1 0x40 MLOAD PUSH32 0x8C379A000000000000000000000000000000000000000000000000000000000 DUP2 MSTORE PUSH1 0x4 ADD PUSH2 0x16CD SWAP1 PUSH2 0x867B JUMP JUMPDEST PUSH1 0x40 MLOAD DUP1 SWAP2 SUB SWAP1 REVERT JUMPDEST PUSH1 0x2 PUSH1 0x97 DUP2 SWAP1 SSTORE POP PUSH2 0x16E7 CALLER PUSH2 0x5CAB JUMP JUMPDEST ISZERO PUSH2 0x1727 JUMPI PUSH1 0x40 MLOAD PUSH32 0x8C379A000000000000000000000000000000000000000000000000000000000 DUP2 MSTORE PUSH1 0x4 ADD PUSH2 0x171E SWAP1 PUSH2 0x839B JUMP JUMPDEST PUSH1 0x40 MLOAD DUP1 SWAP2 SUB SWAP1 REVERT JUMPDEST ORIGIN PUSH20 0xFFFFFFFFFFFFFFFFFFFFFFFFFFFFFFFFFFFFFFFF AND CALLER PUSH20 0xFFFFFFFFFFFFFFFFFFFFFFFFFFFFFFFFFFFFFFFF AND EQ PUSH2 0x1795 JUMPI PUSH1 0x40 MLOAD PUSH32 0x8C379A000000000000000000000000000000000000000000000000000000000 DUP2 MSTORE PUSH1 0x4 ADD PUSH2 0x178C SWAP1 PUSH2 0x84DB JUMP JUMPDEST PUSH1 0x40 MLOAD DUP1 SWAP2 SUB SWAP1 REVERT JUMPDEST PUSH2 0x135 SLOAD DUP3 EQ PUSH2 0x17DA JUMPI PUSH1 0x40 MLOAD PUSH32 0x8C379A000000000000000000000000000000000000000000000000000000000 DUP2 MSTORE PUSH1 0x4 ADD PUSH2 0x17D1 SWAP1 PUSH2 0x869B JUMP JUMPDEST PUSH1 0x40 MLOAD DUP1 SWAP2 SUB SWAP1 REVERT JUMPDEST PUSH2 0x17E3 DUP3 PUSH2 0x5CBE JUMP JUMPDEST PUSH2 0x1822 JUMPI PUSH1 0x40 MLOAD PUSH32 0x8C379A000000000000000000000000000000000000000000000000000000000 DUP2 MSTORE PUSH1 0x4 ADD PUSH2 0x1819 SWAP1 PUSH2 0x855B JUMP JUMPDEST PUSH1 0x40 MLOAD DUP1 SWAP2 SUB SWAP1 REVERT JUMPDEST PUSH1 0x0 PUSH2 0x138 PUSH1 0x0 DUP5 DUP2 MSTORE PUSH1 0x20 ADD SWAP1 DUP2 MSTORE PUSH1 0x20 ADD PUSH1 0x0 KECCAK256 PUSH1 0x0 CALLER PUSH20 0xFFFFFFFFFFFFFFFFFFFFFFFFFFFFFFFFFFFFFFFF AND PUSH20 0xFFFFFFFFFFFFFFFFFFFFFFFFFFFFFFFFFFFFFFFF AND DUP2 MSTORE PUSH1 0x20 ADD SWAP1 DUP2 MSTORE PUSH1 0x20 ADD PUSH1 0x0 KECCAK256 PUSH1 0x1 ADD SLOAD EQ PUSH2 0x18B9 JUMPI PUSH1 0x40 MLOAD PUSH32 0x8C379A000000000000000000000000000000000000000000000000000000000 DUP2 MSTORE PUSH1 0x4 ADD PUSH2 0x18B0 SWAP1 PUSH2 0x861B JUMP JUMPDEST PUSH1 0x40 MLOAD DUP1 SWAP2 SUB SWAP1 REVERT JUMPDEST PUSH1 0x0 PUSH20 0xFFFFFFFFFFFFFFFFFFFFFFFFFFFFFFFFFFFFFFFF AND PUSH2 0x13B PUSH1 0x0 DUP4 PUSH20 0xFFFFFFFFFFFFFFFFFFFFFFFFFFFFFFFFFFFFFFFF AND PUSH20 0xFFFFFFFFFFFFFFFFFFFFFFFFFFFFFFFFFFFFFFFF AND DUP2 MSTORE PUSH1 0x20 ADD SWAP1 DUP2 MSTORE PUSH1 0x20 ADD PUSH1 0x0 KECCAK256 PUSH1 0x0 SWAP1 SLOAD SWAP1 PUSH2 0x100 EXP SWAP1 DIV PUSH20 0xFFFFFFFFFFFFFFFFFFFFFFFFFFFFFFFFFFFFFFFF AND PUSH20 0xFFFFFFFFFFFFFFFFFFFFFFFFFFFFFFFFFFFFFFFF AND EQ ISZERO PUSH2 0x1989 JUMPI PUSH1 0x40 MLOAD PUSH32 0x8C379A000000000000000000000000000000000000000000000000000000000 DUP2 MSTORE PUSH1 0x4 ADD PUSH2 0x1980 SWAP1 PUSH2 0x873B JUMP JUMPDEST PUSH1 0x40 MLOAD DUP1 SWAP2 SUB SWAP1 REVERT JUMPDEST PUSH2 0x134 SLOAD PUSH2 0x139 PUSH1 0x0 DUP5 DUP2 MSTORE PUSH1 0x20 ADD SWAP1 DUP2 MSTORE PUSH1 0x20 ADD PUSH1 0x0 KECCAK256 PUSH1 0x7 ADD PUSH1 0x0 DUP4 PUSH20 0xFFFFFFFFFFFFFFFFFFFFFFFFFFFFFFFFFFFFFFFF AND PUSH20 0xFFFFFFFFFFFFFFFFFFFFFFFFFFFFFFFFFFFFFFFF AND DUP2 MSTORE PUSH1 0x20 ADD SWAP1 DUP2 MSTORE PUSH1 0x20 ADD PUSH1 0x0 KECCAK256 SLOAD GT ISZERO PUSH2 0x19ED JUMPI PUSH1 0x0 DUP1 REVERT JUMPDEST PUSH1 0x0 PUSH2 0x132 SLOAD SWAP1 POP PUSH2 0x1A36 CALLER ADDRESS DUP4 PUSH20 0xB2D7B35539A543BBE4C74965488FFE33C6721F0D PUSH20 0xFFFFFFFFFFFFFFFFFFFFFFFFFFFFFFFFFFFFFFFF AND PUSH2 0x5D34 SWAP1 SWAP4 SWAP3 SWAP2 SWAP1 PUSH4 0xFFFFFFFF AND JUMP JUMPDEST PUSH1 0x0 PUSH2 0x139 PUSH1 0x0 DUP6 DUP2 MSTORE PUSH1 0x20 ADD SWAP1 DUP2 MSTORE PUSH1 0x20 ADD PUSH1 0x0 KECCAK256 SWAP1 POP DUP2 DUP2 PUSH1 0x3 ADD SLOAD PUSH2 0x1A5E SWAP2 SWAP1 PUSH2 0x8A8B JUMP JUMPDEST DUP2 PUSH1 0x3 ADD DUP2 SWAP1 SSTORE POP PUSH1 0x1 PUSH2 0x139 PUSH1 0x0 DUP7 DUP2 MSTORE PUSH1 0x20 ADD SWAP1 DUP2 MSTORE PUSH1 0x20 ADD PUSH1 0x0 KECCAK256 PUSH1 0x7 ADD PUSH1 0x0 DUP6 PUSH20 0xFFFFFFFFFFFFFFFFFFFFFFFFFFFFFFFFFFFFFFFF AND PUSH20 0xFFFFFFFFFFFFFFFFFFFFFFFFFFFFFFFFFFFFFFFF AND DUP2 MSTORE PUSH1 0x20 ADD SWAP1 DUP2 MSTORE PUSH1 0x20 ADD PUSH1 0x0 KECCAK256 PUSH1 0x0 DUP3 DUP3 SLOAD PUSH2 0x1ACB SWAP2 SWAP1 PUSH2 0x8A8B JUMP JUMPDEST SWAP3 POP POP DUP2 SWAP1 SSTORE POP PUSH1 0x1 PUSH2 0x139 PUSH1 0x0 DUP7 DUP2 MSTORE PUSH1 0x20 ADD SWAP1 DUP2 MSTORE PUSH1 0x20 ADD PUSH1 0x0 KECCAK256 PUSH1 0x9 ADD PUSH1 0x0 DUP6 PUSH20 0xFFFFFFFFFFFFFFFFFFFFFFFFFFFFFFFFFFFFFFFF AND PUSH20 0xFFFFFFFFFFFFFFFFFFFFFFFFFFFFFFFFFFFFFFFF AND DUP2 MSTORE PUSH1 0x20 ADD SWAP1 DUP2 MSTORE PUSH1 0x20 ADD PUSH1 0x0 KECCAK256 PUSH1 0x0 DUP3 DUP3 SLOAD PUSH2 0x1B37 SWAP2 SWAP1 PUSH2 0x8A8B JUMP JUMPDEST SWAP3 POP POP DUP2 SWAP1 SSTORE POP PUSH1 0x0 PUSH2 0x138 PUSH1 0x0 DUP7 DUP2 MSTORE PUSH1 0x20 ADD SWAP1 DUP2 MSTORE PUSH1 0x20 ADD PUSH1 0x0 KECCAK256 PUSH1 0x0 CALLER PUSH20 0xFFFFFFFFFFFFFFFFFFFFFFFFFFFFFFFFFFFFFFFF AND PUSH20 0xFFFFFFFFFFFFFFFFFFFFFFFFFFFFFFFFFFFFFFFF AND DUP2 MSTORE PUSH1 0x20 ADD SWAP1 DUP2 MSTORE PUSH1 0x20 ADD PUSH1 0x0 KECCAK256 SWAP1 POP PUSH1 0x1 DUP2 PUSH1 0x0 ADD PUSH1 0x0 PUSH2 0x100 EXP DUP2 SLOAD DUP2 PUSH1 0xFF MUL NOT AND SWAP1 DUP4 PUSH1 0x1 DUP2 GT ISZERO PUSH2 0x1BE1 JUMPI PUSH32 0x4E487B7100000000000000000000000000000000000000000000000000000000 PUSH1 0x0 MSTORE PUSH1 0x21 PUSH1 0x4 MSTORE PUSH1 0x24 PUSH1 0x0 REVERT JUMPDEST MUL OR SWAP1 SSTORE POP DUP3 DUP2 PUSH1 0x1 ADD DUP2 SWAP1 SSTORE POP DUP4 DUP2 PUSH1 0x0 ADD PUSH1 0x1 PUSH2 0x100 EXP DUP2 SLOAD DUP2 PUSH20 0xFFFFFFFFFFFFFFFFFFFFFFFFFFFFFFFFFFFFFFFF MUL NOT AND SWAP1 DUP4 PUSH20 0xFFFFFFFFFFFFFFFFFFFFFFFFFFFFFFFFFFFFFFFF AND MUL OR SWAP1 SSTORE POP PUSH2 0x13A PUSH1 0x0 CALLER PUSH20 0xFFFFFFFFFFFFFFFFFFFFFFFFFFFFFFFFFFFFFFFF AND PUSH20 0xFFFFFFFFFFFFFFFFFFFFFFFFFFFFFFFFFFFFFFFF AND DUP2 MSTORE PUSH1 0x20 ADD SWAP1 DUP2 MSTORE PUSH1 0x20 ADD PUSH1 0x0 KECCAK256 DUP6 SWAP1 DUP1 PUSH1 0x1 DUP2 SLOAD ADD DUP1 DUP3 SSTORE DUP1 SWAP2 POP POP PUSH1 0x1 SWAP1 SUB SWAP1 PUSH1 0x0 MSTORE PUSH1 0x20 PUSH1 0x0 KECCAK256 ADD PUSH1 0x0 SWAP1 SWAP2 SWAP1 SWAP2 SWAP1 SWAP2 POP SSTORE DUP4 PUSH20 0xFFFFFFFFFFFFFFFFFFFFFFFFFFFFFFFFFFFFFFFF AND DUP6 CALLER PUSH20 0xFFFFFFFFFFFFFFFFFFFFFFFFFFFFFFFFFFFFFFFF AND PUSH32 0xA5B25D36F56CD85E4B0C405E26AA36E3CCD1BD65BE483BEB9FD00199E7FE0345 DUP7 PUSH1 0x40 MLOAD PUSH2 0x1CF7 SWAP2 SWAP1 PUSH2 0x875B JUMP JUMPDEST PUSH1 0x40 MLOAD DUP1 SWAP2 SUB SWAP1 LOG4 POP POP POP PUSH1 0x1 PUSH1 0x97 DUP2 SWAP1 SSTORE POP POP POP JUMP JUMPDEST PUSH2 0x1D17 DUP2 PUSH2 0x5DBD JUMP JUMPDEST PUSH2 0x1D32 DUP2 PUSH1 0x40 MLOAD DUP1 PUSH1 0x20 ADD PUSH1 0x40 MSTORE DUP1 PUSH1 0x0 DUP2 MSTORE POP PUSH1 0x0 PUSH2 0x5E3C JUMP JUMPDEST POP JUMP JUMPDEST PUSH2 0x133 SLOAD DUP2 JUMP JUMPDEST PUSH2 0x1D44 PUSH2 0x280E JUMP JUMPDEST PUSH2 0x1D83 JUMPI PUSH1 0x40 MLOAD PUSH32 0x8C379A000000000000000000000000000000000000000000000000000000000 DUP2 MSTORE PUSH1 0x4 ADD PUSH2 0x1D7A SWAP1 PUSH2 0x82BB JUMP JUMPDEST PUSH1 0x40 MLOAD DUP1 SWAP2 SUB SWAP1 REVERT JUMPDEST PUSH2 0x12D PUSH1 0x0 SWAP1 SLOAD SWAP1 PUSH2 0x100 EXP SWAP1 DIV PUSH20 0xFFFFFFFFFFFFFFFFFFFFFFFFFFFFFFFFFFFFFFFF AND PUSH20 0xFFFFFFFFFFFFFFFFFFFFFFFFFFFFFFFFFFFFFFFF AND CALLER PUSH20 0xFFFFFFFFFFFFFFFFFFFFFFFFFFFFFFFFFFFFFFFF AND EQ PUSH2 0x1E14 JUMPI PUSH1 0x40 MLOAD PUSH32 0x8C379A000000000000000000000000000000000000000000000000000000000 DUP2 MSTORE PUSH1 0x4 ADD PUSH2 0x1E0B SWAP1 PUSH2 0x871B JUMP JUMPDEST PUSH1 0x40 MLOAD DUP1 SWAP2 SUB SWAP1 REVERT JUMPDEST PUSH2 0x1E1C PUSH2 0x600D JUMP JUMPDEST PUSH2 0x135 SLOAD PUSH32 0xAAA520FDD7D2C83061D632FA017B0432407E798818AF63EA908589FCEDA39AB7 PUSH1 0x40 MLOAD PUSH1 0x40 MLOAD DUP1 SWAP2 SUB SWAP1 LOG2 JUMP JUMPDEST PUSH2 0x1E57 DUP3 PUSH2 0x5DBD JUMP JUMPDEST PUSH2 0x1E63 DUP3 DUP3 PUSH1 0x1 PUSH2 0x5E3C JUMP JUMPDEST POP POP JUMP JUMPDEST PUSH2 0x13C DUP2 DUP2 SLOAD DUP2 LT PUSH2 0x1E78 JUMPI PUSH1 0x0 DUP1 REVERT JUMPDEST SWAP1 PUSH1 0x0 MSTORE PUSH1 0x20 PUSH1 0x0 KECCAK256 ADD PUSH1 0x0 SWAP2 POP SLOAD SWAP1 PUSH2 0x100 EXP SWAP1 DIV PUSH20 0xFFFFFFFFFFFFFFFFFFFFFFFFFFFFFFFFFFFFFFFF AND DUP2 JUMP JUMPDEST PUSH2 0x1EAF PUSH2 0x280E JUMP JUMPDEST PUSH2 0x1EEE JUMPI PUSH1 0x40 MLOAD PUSH32 0x8C379A000000000000000000000000000000000000000000000000000000000 DUP2 MSTORE PUSH1 0x4 ADD PUSH2 0x1EE5 SWAP1 PUSH2 0x82BB JUMP JUMPDEST PUSH1 0x40 MLOAD DUP1 SWAP2 SUB SWAP1 REVERT JUMPDEST PUSH2 0x12D PUSH1 0x0 SWAP1 SLOAD SWAP1 PUSH2 0x100 EXP SWAP1 DIV PUSH20 0xFFFFFFFFFFFFFFFFFFFFFFFFFFFFFFFFFFFFFFFF AND PUSH20 0xFFFFFFFFFFFFFFFFFFFFFFFFFFFFFFFFFFFFFFFF AND CALLER PUSH20 0xFFFFFFFFFFFFFFFFFFFFFFFFFFFFFFFFFFFFFFFF AND EQ PUSH2 0x1F7F JUMPI PUSH1 0x40 MLOAD PUSH32 0x8C379A000000000000000000000000000000000000000000000000000000000 DUP2 MSTORE PUSH1 0x4 ADD PUSH2 0x1F76 SWAP1 PUSH2 0x871B JUMP JUMPDEST PUSH1 0x40 MLOAD DUP1 SWAP2 SUB SWAP1 REVERT JUMPDEST PUSH1 0x0 DUP2 EQ ISZERO PUSH2 0x1FC3 JUMPI PUSH1 0x40 MLOAD PUSH32 0x8C379A000000000000000000000000000000000000000000000000000000000 DUP2 MSTORE PUSH1 0x4 ADD PUSH2 0x1FBA SWAP1 PUSH2 0x857B JUMP JUMPDEST PUSH1 0x40 MLOAD DUP1 SWAP2 SUB SWAP1 REVERT JUMPDEST DUP1 PUSH2 0x132 DUP2 SWAP1 SSTORE POP PUSH2 0x135 SLOAD PUSH32 0x756A45C9025A507F68E64742CF8CDDDCFED355F7BC0F53C062B31F698CD3CF76 PUSH2 0x132 SLOAD PUSH1 0x40 MLOAD PUSH2 0x2001 SWAP2 SWAP1 PUSH2 0x875B JUMP JUMPDEST PUSH1 0x40 MLOAD DUP1 SWAP2 SUB SWAP1 LOG2 POP JUMP JUMPDEST PUSH2 0x2014 PUSH2 0x280E JUMP JUMPDEST ISZERO PUSH2 0x2054 JUMPI PUSH1 0x40 MLOAD PUSH32 0x8C379A000000000000000000000000000000000000000000000000000000000 DUP2 MSTORE PUSH1 0x4 ADD PUSH2 0x204B SWAP1 PUSH2 0x847B JUMP JUMPDEST PUSH1 0x40 MLOAD DUP1 SWAP2 SUB SWAP1 REVERT JUMPDEST PUSH2 0x12E PUSH1 0x0 SWAP1 SLOAD SWAP1 PUSH2 0x100 EXP SWAP1 DIV PUSH20 0xFFFFFFFFFFFFFFFFFFFFFFFFFFFFFFFFFFFFFFFF AND PUSH20 0xFFFFFFFFFFFFFFFFFFFFFFFFFFFFFFFFFFFFFFFF AND CALLER PUSH20 0xFFFFFFFFFFFFFFFFFFFFFFFFFFFFFFFFFFFFFFFF AND EQ PUSH2 0x20E5 JUMPI PUSH1 0x40 MLOAD PUSH32 0x8C379A000000000000000000000000000000000000000000000000000000000 DUP2 MSTORE PUSH1 0x4 ADD PUSH2 0x20DC SWAP1 PUSH2 0x86FB JUMP JUMPDEST PUSH1 0x40 MLOAD DUP1 SWAP2 SUB SWAP1 REVERT JUMPDEST PUSH1 0x1 PUSH2 0x135 SLOAD PUSH2 0x20F5 SWAP2 SWAP1 PUSH2 0x8A8B JUMP JUMPDEST PUSH2 0x135 DUP2 SWAP1 SSTORE POP PUSH1 0x1 PUSH2 0x135 SLOAD GT ISZERO PUSH2 0x2119 JUMPI PUSH2 0x2114 PUSH2 0x135 SLOAD PUSH2 0x60AF JUMP JUMPDEST PUSH2 0x2126 JUMP JUMPDEST PUSH2 0x2125 PUSH2 0x135 SLOAD PUSH2 0x6188 JUMP JUMPDEST JUMPDEST PUSH2 0x212E PUSH2 0x6204 JUMP JUMPDEST JUMP JUMPDEST PUSH2 0x2138 PUSH2 0x280E JUMP JUMPDEST ISZERO PUSH2 0x2178 JUMPI PUSH1 0x40 MLOAD PUSH32 0x8C379A000000000000000000000000000000000000000000000000000000000 DUP2 MSTORE PUSH1 0x4 ADD PUSH2 0x216F SWAP1 PUSH2 0x847B JUMP JUMPDEST PUSH1 0x40 MLOAD DUP1 SWAP2 SUB SWAP1 REVERT JUMPDEST PUSH1 0x2 PUSH1 0x97 SLOAD EQ ISZERO PUSH2 0x21BE JUMPI PUSH1 0x40 MLOAD PUSH32 0x8C379A000000000000000000000000000000000000000000000000000000000 DUP2 MSTORE PUSH1 0x4 ADD PUSH2 0x21B5 SWAP1 PUSH2 0x867B JUMP JUMPDEST PUSH1 0x40 MLOAD DUP1 SWAP2 SUB SWAP1 REVERT JUMPDEST PUSH1 0x2 PUSH1 0x97 DUP2 SWAP1 SSTORE POP PUSH2 0x21CF CALLER PUSH2 0x5CAB JUMP JUMPDEST ISZERO PUSH2 0x220F JUMPI PUSH1 0x40 MLOAD PUSH32 0x8C379A000000000000000000000000000000000000000000000000000000000 DUP2 MSTORE PUSH1 0x4 ADD PUSH2 0x2206 SWAP1 PUSH2 0x839B JUMP JUMPDEST PUSH1 0x40 MLOAD DUP1 SWAP2 SUB SWAP1 REVERT JUMPDEST ORIGIN PUSH20 0xFFFFFFFFFFFFFFFFFFFFFFFFFFFFFFFFFFFFFFFF AND CALLER PUSH20 0xFFFFFFFFFFFFFFFFFFFFFFFFFFFFFFFFFFFFFFFF AND EQ PUSH2 0x227D JUMPI PUSH1 0x40 MLOAD PUSH32 0x8C379A000000000000000000000000000000000000000000000000000000000 DUP2 MSTORE PUSH1 0x4 ADD PUSH2 0x2274 SWAP1 PUSH2 0x84DB JUMP JUMPDEST PUSH1 0x40 MLOAD DUP1 SWAP2 SUB SWAP1 REVERT JUMPDEST PUSH2 0x135 SLOAD DUP3 EQ PUSH2 0x22C2 JUMPI PUSH1 0x40 MLOAD PUSH32 0x8C379A000000000000000000000000000000000000000000000000000000000 DUP2 MSTORE PUSH1 0x4 ADD PUSH2 0x22B9 SWAP1 PUSH2 0x869B JUMP JUMPDEST PUSH1 0x40 MLOAD DUP1 SWAP2 SUB SWAP1 REVERT JUMPDEST PUSH2 0x22CB DUP3 PUSH2 0x5CBE JUMP JUMPDEST PUSH2 0x230A JUMPI PUSH1 0x40 MLOAD PUSH32 0x8C379A000000000000000000000000000000000000000000000000000000000 DUP2 MSTORE PUSH1 0x4 ADD PUSH2 0x2301 SWAP1 PUSH2 0x855B JUMP JUMPDEST PUSH1 0x40 MLOAD DUP1 SWAP2 SUB SWAP1 REVERT JUMPDEST PUSH1 0x0 PUSH2 0x138 PUSH1 0x0 DUP5 DUP2 MSTORE PUSH1 0x20 ADD SWAP1 DUP2 MSTORE PUSH1 0x20 ADD PUSH1 0x0 KECCAK256 PUSH1 0x0 CALLER PUSH20 0xFFFFFFFFFFFFFFFFFFFFFFFFFFFFFFFFFFFFFFFF AND PUSH20 0xFFFFFFFFFFFFFFFFFFFFFFFFFFFFFFFFFFFFFFFF AND DUP2 MSTORE PUSH1 0x20 ADD SWAP1 DUP2 MSTORE PUSH1 0x20 ADD PUSH1 0x0 KECCAK256 PUSH1 0x1 ADD SLOAD EQ PUSH2 0x23A1 JUMPI PUSH1 0x40 MLOAD PUSH32 0x8C379A000000000000000000000000000000000000000000000000000000000 DUP2 MSTORE PUSH1 0x4 ADD PUSH2 0x2398 SWAP1 PUSH2 0x861B JUMP JUMPDEST PUSH1 0x40 MLOAD DUP1 SWAP2 SUB SWAP1 REVERT JUMPDEST PUSH1 0x0 PUSH20 0xFFFFFFFFFFFFFFFFFFFFFFFFFFFFFFFFFFFFFFFF AND PUSH2 0x13B PUSH1 0x0 DUP4 PUSH20 0xFFFFFFFFFFFFFFFFFFFFFFFFFFFFFFFFFFFFFFFF AND PUSH20 0xFFFFFFFFFFFFFFFFFFFFFFFFFFFFFFFFFFFFFFFF AND DUP2 MSTORE PUSH1 0x20 ADD SWAP1 DUP2 MSTORE PUSH1 0x20 ADD PUSH1 0x0 KECCAK256 PUSH1 0x0 SWAP1 SLOAD SWAP1 PUSH2 0x100 EXP SWAP1 DIV PUSH20 0xFFFFFFFFFFFFFFFFFFFFFFFFFFFFFFFFFFFFFFFF AND PUSH20 0xFFFFFFFFFFFFFFFFFFFFFFFFFFFFFFFFFFFFFFFF AND EQ ISZERO PUSH2 0x2471 JUMPI PUSH1 0x40 MLOAD PUSH32 0x8C379A000000000000000000000000000000000000000000000000000000000 DUP2 MSTORE PUSH1 0x4 ADD PUSH2 0x2468 SWAP1 PUSH2 0x873B JUMP JUMPDEST PUSH1 0x40 MLOAD DUP1 SWAP2 SUB SWAP1 REVERT JUMPDEST PUSH2 0x134 SLOAD PUSH2 0x139 PUSH1 0x0 DUP5 DUP2 MSTORE PUSH1 0x20 ADD SWAP1 DUP2 MSTORE PUSH1 0x20 ADD PUSH1 0x0 KECCAK256 PUSH1 0x7 ADD PUSH1 0x0 DUP4 PUSH20 0xFFFFFFFFFFFFFFFFFFFFFFFFFFFFFFFFFFFFFFFF AND PUSH20 0xFFFFFFFFFFFFFFFFFFFFFFFFFFFFFFFFFFFFFFFF AND DUP2 MSTORE PUSH1 0x20 ADD SWAP1 DUP2 MSTORE PUSH1 0x20 ADD PUSH1 0x0 KECCAK256 SLOAD GT ISZERO PUSH2 0x24D5 JUMPI PUSH1 0x0 DUP1 REVERT JUMPDEST PUSH1 0x0 PUSH2 0x132 SLOAD SWAP1 POP PUSH2 0x251E CALLER ADDRESS DUP4 PUSH20 0xB2D7B35539A543BBE4C74965488FFE33C6721F0D PUSH20 0xFFFFFFFFFFFFFFFFFFFFFFFFFFFFFFFFFFFFFFFF AND PUSH2 0x5D34 SWAP1 SWAP4 SWAP3 SWAP2 SWAP1 PUSH4 0xFFFFFFFF AND JUMP JUMPDEST PUSH1 0x0 PUSH2 0x139 PUSH1 0x0 DUP6 DUP2 MSTORE PUSH1 0x20 ADD SWAP1 DUP2 MSTORE PUSH1 0x20 ADD PUSH1 0x0 KECCAK256 SWAP1 POP DUP2 DUP2 PUSH1 0x3 ADD SLOAD PUSH2 0x2546 SWAP2 SWAP1 PUSH2 0x8A8B JUMP JUMPDEST DUP2 PUSH1 0x3 ADD DUP2 SWAP1 SSTORE POP PUSH1 0x1 PUSH2 0x139 PUSH1 0x0 DUP7 DUP2 MSTORE PUSH1 0x20 ADD SWAP1 DUP2 MSTORE PUSH1 0x20 ADD PUSH1 0x0 KECCAK256 PUSH1 0x7 ADD PUSH1 0x0 DUP6 PUSH20 0xFFFFFFFFFFFFFFFFFFFFFFFFFFFFFFFFFFFFFFFF AND PUSH20 0xFFFFFFFFFFFFFFFFFFFFFFFFFFFFFFFFFFFFFFFF AND DUP2 MSTORE PUSH1 0x20 ADD SWAP1 DUP2 MSTORE PUSH1 0x20 ADD PUSH1 0x0 KECCAK256 PUSH1 0x0 DUP3 DUP3 SLOAD PUSH2 0x25B3 SWAP2 SWAP1 PUSH2 0x8A8B JUMP JUMPDEST SWAP3 POP POP DUP2 SWAP1 SSTORE POP PUSH1 0x1 PUSH2 0x139 PUSH1 0x0 DUP7 DUP2 MSTORE PUSH1 0x20 ADD SWAP1 DUP2 MSTORE PUSH1 0x20 ADD PUSH1 0x0 KECCAK256 PUSH1 0x8 ADD PUSH1 0x0 DUP6 PUSH20 0xFFFFFFFFFFFFFFFFFFFFFFFFFFFFFFFFFFFFFFFF AND PUSH20 0xFFFFFFFFFFFFFFFFFFFFFFFFFFFFFFFFFFFFFFFF AND DUP2 MSTORE PUSH1 0x20 ADD SWAP1 DUP2 MSTORE PUSH1 0x20 ADD PUSH1 0x0 KECCAK256 PUSH1 0x0 DUP3 DUP3 SLOAD PUSH2 0x261F SWAP2 SWAP1 PUSH2 0x8A8B JUMP JUMPDEST SWAP3 POP POP DUP2 SWAP1 SSTORE POP PUSH1 0x0 PUSH2 0x138 PUSH1 0x0 DUP7 DUP2 MSTORE PUSH1 0x20 ADD SWAP1 DUP2 MSTORE PUSH1 0x20 ADD PUSH1 0x0 KECCAK256 PUSH1 0x0 CALLER PUSH20 0xFFFFFFFFFFFFFFFFFFFFFFFFFFFFFFFFFFFFFFFF AND PUSH20 0xFFFFFFFFFFFFFFFFFFFFFFFFFFFFFFFFFFFFFFFF AND DUP2 MSTORE PUSH1 0x20 ADD SWAP1 DUP2 MSTORE PUSH1 0x20 ADD PUSH1 0x0 KECCAK256 SWAP1 POP PUSH1 0x0 DUP2 PUSH1 0x0 ADD PUSH1 0x0 PUSH2 0x100 EXP DUP2 SLOAD DUP2 PUSH1 0xFF MUL NOT AND SWAP1 DUP4 PUSH1 0x1 DUP2 GT ISZERO PUSH2 0x26C9 JUMPI PUSH32 0x4E487B7100000000000000000000000000000000000000000000000000000000 PUSH1 0x0 MSTORE PUSH1 0x21 PUSH1 0x4 MSTORE PUSH1 0x24 PUSH1 0x0 REVERT JUMPDEST MUL OR SWAP1 SSTORE POP DUP3 DUP2 PUSH1 0x1 ADD DUP2 SWAP1 SSTORE POP DUP4 DUP2 PUSH1 0x0 ADD PUSH1 0x1 PUSH2 0x100 EXP DUP2 SLOAD DUP2 PUSH20 0xFFFFFFFFFFFFFFFFFFFFFFFFFFFFFFFFFFFFFFFF MUL NOT AND SWAP1 DUP4 PUSH20 0xFFFFFFFFFFFFFFFFFFFFFFFFFFFFFFFFFFFFFFFF AND MUL OR SWAP1 SSTORE POP PUSH2 0x13A PUSH1 0x0 CALLER PUSH20 0xFFFFFFFFFFFFFFFFFFFFFFFFFFFFFFFFFFFFFFFF AND PUSH20 0xFFFFFFFFFFFFFFFFFFFFFFFFFFFFFFFFFFFFFFFF AND DUP2 MSTORE PUSH1 0x20 ADD SWAP1 DUP2 MSTORE PUSH1 0x20 ADD PUSH1 0x0 KECCAK256 DUP6 SWAP1 DUP1 PUSH1 0x1 DUP2 SLOAD ADD DUP1 DUP3 SSTORE DUP1 SWAP2 POP POP PUSH1 0x1 SWAP1 SUB SWAP1 PUSH1 0x0 MSTORE PUSH1 0x20 PUSH1 0x0 KECCAK256 ADD PUSH1 0x0 SWAP1 SWAP2 SWAP1 SWAP2 SWAP1 SWAP2 POP SSTORE DUP4 PUSH20 0xFFFFFFFFFFFFFFFFFFFFFFFFFFFFFFFFFFFFFFFF AND DUP6 CALLER PUSH20 0xFFFFFFFFFFFFFFFFFFFFFFFFFFFFFFFFFFFFFFFF AND PUSH32 0xD6901FB0FB7D389370275133FE2D4B4CADCEF7F51E8683D3E1FACCB425908A10 DUP7 PUSH1 0x40 MLOAD PUSH2 0x27DF SWAP2 SWAP1 PUSH2 0x875B JUMP JUMPDEST PUSH1 0x40 MLOAD DUP1 SWAP2 SUB SWAP1 LOG4 POP POP POP PUSH1 0x1 PUSH1 0x97 DUP2 SWAP1 SSTORE POP POP POP JUMP JUMPDEST PUSH20 0xEEEEEEEEEEEEEEEEEEEEEEEEEEEEEEEEEEEEEEEE DUP2 JUMP JUMPDEST PUSH1 0x0 PUSH1 0x65 PUSH1 0x0 SWAP1 SLOAD SWAP1 PUSH2 0x100 EXP SWAP1 DIV PUSH1 0xFF AND SWAP1 POP SWAP1 JUMP JUMPDEST PUSH2 0x134 SLOAD DUP2 JUMP JUMPDEST PUSH2 0x137 SLOAD DUP2 JUMP JUMPDEST PUSH2 0x283B PUSH2 0x280E JUMP JUMPDEST ISZERO PUSH2 0x287B JUMPI PUSH1 0x40 MLOAD PUSH32 0x8C379A000000000000000000000000000000000000000000000000000000000 DUP2 MSTORE PUSH1 0x4 ADD PUSH2 0x2872 SWAP1 PUSH2 0x847B JUMP JUMPDEST PUSH1 0x40 MLOAD DUP1 SWAP2 SUB SWAP1 REVERT JUMPDEST PUSH2 0x12D PUSH1 0x0 SWAP1 SLOAD SWAP1 PUSH2 0x100 EXP SWAP1 DIV PUSH20 0xFFFFFFFFFFFFFFFFFFFFFFFFFFFFFFFFFFFFFFFF AND PUSH20 0xFFFFFFFFFFFFFFFFFFFFFFFFFFFFFFFFFFFFFFFF AND CALLER PUSH20 0xFFFFFFFFFFFFFFFFFFFFFFFFFFFFFFFFFFFFFFFF AND EQ PUSH2 0x290C JUMPI PUSH1 0x40 MLOAD PUSH32 0x8C379A000000000000000000000000000000000000000000000000000000000 DUP2 MSTORE PUSH1 0x4 ADD PUSH2 0x2903 SWAP1 PUSH2 0x871B JUMP JUMPDEST PUSH1 0x40 MLOAD DUP1 SWAP2 SUB SWAP1 REVERT JUMPDEST PUSH1 0x0 JUMPDEST DUP3 MLOAD DUP2 LT ISZERO PUSH2 0x2DBF JUMPI PUSH1 0x0 PUSH20 0xFFFFFFFFFFFFFFFFFFFFFFFFFFFFFFFFFFFFFFFF AND DUP4 DUP3 DUP2 MLOAD DUP2 LT PUSH2 0x2969 JUMPI PUSH32 0x4E487B7100000000000000000000000000000000000000000000000000000000 PUSH1 0x0 MSTORE PUSH1 0x32 PUSH1 0x4 MSTORE PUSH1 0x24 PUSH1 0x0 REVERT JUMPDEST PUSH1 0x20 MUL PUSH1 0x20 ADD ADD MLOAD PUSH20 0xFFFFFFFFFFFFFFFFFFFFFFFFFFFFFFFFFFFFFFFF AND EQ ISZERO DUP1 ISZERO PUSH2 0x2A02 JUMPI POP PUSH1 0x0 PUSH20 0xFFFFFFFFFFFFFFFFFFFFFFFFFFFFFFFFFFFFFFFF AND DUP3 DUP3 DUP2 MLOAD DUP2 LT PUSH2 0x29E1 JUMPI PUSH32 0x4E487B7100000000000000000000000000000000000000000000000000000000 PUSH1 0x0 MSTORE PUSH1 0x32 PUSH1 0x4 MSTORE PUSH1 0x24 PUSH1 0x0 REVERT JUMPDEST PUSH1 0x20 MUL PUSH1 0x20 ADD ADD MLOAD PUSH20 0xFFFFFFFFFFFFFFFFFFFFFFFFFFFFFFFFFFFFFFFF AND EQ ISZERO JUMPDEST PUSH2 0x2A41 JUMPI PUSH1 0x40 MLOAD PUSH32 0x8C379A000000000000000000000000000000000000000000000000000000000 DUP2 MSTORE PUSH1 0x4 ADD PUSH2 0x2A38 SWAP1 PUSH2 0x83DB JUMP JUMPDEST PUSH1 0x40 MLOAD DUP1 SWAP2 SUB SWAP1 REVERT JUMPDEST PUSH1 0x0 PUSH20 0xFFFFFFFFFFFFFFFFFFFFFFFFFFFFFFFFFFFFFFFF AND PUSH2 0x13B PUSH1 0x0 DUP6 DUP5 DUP2 MLOAD DUP2 LT PUSH2 0x2A97 JUMPI PUSH32 0x4E487B7100000000000000000000000000000000000000000000000000000000 PUSH1 0x0 MSTORE PUSH1 0x32 PUSH1 0x4 MSTORE PUSH1 0x24 PUSH1 0x0 REVERT JUMPDEST PUSH1 0x20 MUL PUSH1 0x20 ADD ADD MLOAD PUSH20 0xFFFFFFFFFFFFFFFFFFFFFFFFFFFFFFFFFFFFFFFF AND PUSH20 0xFFFFFFFFFFFFFFFFFFFFFFFFFFFFFFFFFFFFFFFF AND DUP2 MSTORE PUSH1 0x20 ADD SWAP1 DUP2 MSTORE PUSH1 0x20 ADD PUSH1 0x0 KECCAK256 PUSH1 0x0 SWAP1 SLOAD SWAP1 PUSH2 0x100 EXP SWAP1 DIV PUSH20 0xFFFFFFFFFFFFFFFFFFFFFFFFFFFFFFFFFFFFFFFF AND PUSH20 0xFFFFFFFFFFFFFFFFFFFFFFFFFFFFFFFFFFFFFFFF AND EQ PUSH2 0x2B50 JUMPI PUSH1 0x40 MLOAD PUSH32 0x8C379A000000000000000000000000000000000000000000000000000000000 DUP2 MSTORE PUSH1 0x4 ADD PUSH2 0x2B47 SWAP1 PUSH2 0x82FB JUMP JUMPDEST PUSH1 0x40 MLOAD DUP1 SWAP2 SUB SWAP1 REVERT JUMPDEST PUSH2 0x13C DUP4 DUP3 DUP2 MLOAD DUP2 LT PUSH2 0x2B8C JUMPI PUSH32 0x4E487B7100000000000000000000000000000000000000000000000000000000 PUSH1 0x0 MSTORE PUSH1 0x32 PUSH1 0x4 MSTORE PUSH1 0x24 PUSH1 0x0 REVERT JUMPDEST PUSH1 0x20 MUL PUSH1 0x20 ADD ADD MLOAD SWAP1 DUP1 PUSH1 0x1 DUP2 SLOAD ADD DUP1 DUP3 SSTORE DUP1 SWAP2 POP POP PUSH1 0x1 SWAP1 SUB SWAP1 PUSH1 0x0 MSTORE PUSH1 0x20 PUSH1 0x0 KECCAK256 ADD PUSH1 0x0 SWAP1 SWAP2 SWAP1 SWAP2 SWAP1 SWAP2 PUSH2 0x100 EXP DUP2 SLOAD DUP2 PUSH20 0xFFFFFFFFFFFFFFFFFFFFFFFFFFFFFFFFFFFFFFFF MUL NOT AND SWAP1 DUP4 PUSH20 0xFFFFFFFFFFFFFFFFFFFFFFFFFFFFFFFFFFFFFFFF AND MUL OR SWAP1 SSTORE POP DUP2 DUP2 DUP2 MLOAD DUP2 LT PUSH2 0x2C2D JUMPI PUSH32 0x4E487B7100000000000000000000000000000000000000000000000000000000 PUSH1 0x0 MSTORE PUSH1 0x32 PUSH1 0x4 MSTORE PUSH1 0x24 PUSH1 0x0 REVERT JUMPDEST PUSH1 0x20 MUL PUSH1 0x20 ADD ADD MLOAD PUSH2 0x13B PUSH1 0x0 DUP6 DUP5 DUP2 MLOAD DUP2 LT PUSH2 0x2C73 JUMPI PUSH32 0x4E487B7100000000000000000000000000000000000000000000000000000000 PUSH1 0x0 MSTORE PUSH1 0x32 PUSH1 0x4 MSTORE PUSH1 0x24 PUSH1 0x0 REVERT JUMPDEST PUSH1 0x20 MUL PUSH1 0x20 ADD ADD MLOAD PUSH20 0xFFFFFFFFFFFFFFFFFFFFFFFFFFFFFFFFFFFFFFFF AND PUSH20 0xFFFFFFFFFFFFFFFFFFFFFFFFFFFFFFFFFFFFFFFF AND DUP2 MSTORE PUSH1 0x20 ADD SWAP1 DUP2 MSTORE PUSH1 0x20 ADD PUSH1 0x0 KECCAK256 PUSH1 0x0 PUSH2 0x100 EXP DUP2 SLOAD DUP2 PUSH20 0xFFFFFFFFFFFFFFFFFFFFFFFFFFFFFFFFFFFFFFFF MUL NOT AND SWAP1 DUP4 PUSH20 0xFFFFFFFFFFFFFFFFFFFFFFFFFFFFFFFFFFFFFFFF AND MUL OR SWAP1 SSTORE POP PUSH32 0xDFFBD9DED1C09446F09377DE547142DCCE7DC541C8B0B028142B1EBA7026B9E7 DUP4 DUP3 DUP2 MLOAD DUP2 LT PUSH2 0x2D4D JUMPI PUSH32 0x4E487B7100000000000000000000000000000000000000000000000000000000 PUSH1 0x0 MSTORE PUSH1 0x32 PUSH1 0x4 MSTORE PUSH1 0x24 PUSH1 0x0 REVERT JUMPDEST PUSH1 0x20 MUL PUSH1 0x20 ADD ADD MLOAD DUP4 DUP4 DUP2 MLOAD DUP2 LT PUSH2 0x2D8E JUMPI PUSH32 0x4E487B7100000000000000000000000000000000000000000000000000000000 PUSH1 0x0 MSTORE PUSH1 0x32 PUSH1 0x4 MSTORE PUSH1 0x24 PUSH1 0x0 REVERT JUMPDEST PUSH1 0x20 MUL PUSH1 0x20 ADD ADD MLOAD PUSH1 0x40 MLOAD PUSH2 0x2DA4 SWAP3 SWAP2 SWAP1 PUSH2 0x80C7 JUMP JUMPDEST PUSH1 0x40 MLOAD DUP1 SWAP2 SUB SWAP1 LOG1 DUP1 DUP1 PUSH2 0x2DB7 SWAP1 PUSH2 0x8C5D JUMP JUMPDEST SWAP2 POP POP PUSH2 0x290F JUMP JUMPDEST POP POP POP JUMP JUMPDEST PUSH1 0x2 PUSH1 0x97 SLOAD EQ ISZERO PUSH2 0x2E0A JUMPI PUSH1 0x40 MLOAD PUSH32 0x8C379A000000000000000000000000000000000000000000000000000000000 DUP2 MSTORE PUSH1 0x4 ADD PUSH2 0x2E01 SWAP1 PUSH2 0x867B JUMP JUMPDEST PUSH1 0x40 MLOAD DUP1 SWAP2 SUB SWAP1 REVERT JUMPDEST PUSH1 0x2 PUSH1 0x97 DUP2 SWAP1 SSTORE POP PUSH2 0x2E1B CALLER PUSH2 0x5CAB JUMP JUMPDEST ISZERO PUSH2 0x2E5B JUMPI PUSH1 0x40 MLOAD PUSH32 0x8C379A000000000000000000000000000000000000000000000000000000000 DUP2 MSTORE PUSH1 0x4 ADD PUSH2 0x2E52 SWAP1 PUSH2 0x839B JUMP JUMPDEST PUSH1 0x40 MLOAD DUP1 SWAP2 SUB SWAP1 REVERT JUMPDEST ORIGIN PUSH20 0xFFFFFFFFFFFFFFFFFFFFFFFFFFFFFFFFFFFFFFFF AND CALLER PUSH20 0xFFFFFFFFFFFFFFFFFFFFFFFFFFFFFFFFFFFFFFFF AND EQ PUSH2 0x2EC9 JUMPI PUSH1 0x40 MLOAD PUSH32 0x8C379A000000000000000000000000000000000000000000000000000000000 DUP2 MSTORE PUSH1 0x4 ADD PUSH2 0x2EC0 SWAP1 PUSH2 0x84DB JUMP JUMPDEST PUSH1 0x40 MLOAD DUP1 SWAP2 SUB SWAP1 REVERT JUMPDEST PUSH1 0x0 DUP1 PUSH1 0x0 SWAP1 POP JUMPDEST DUP4 DUP4 SWAP1 POP DUP2 LT ISZERO PUSH2 0x3155 JUMPI PUSH2 0x2F25 DUP5 DUP5 DUP4 DUP2 DUP2 LT PUSH2 0x2F18 JUMPI PUSH32 0x4E487B7100000000000000000000000000000000000000000000000000000000 PUSH1 0x0 MSTORE PUSH1 0x32 PUSH1 0x4 MSTORE PUSH1 0x24 PUSH1 0x0 REVERT JUMPDEST SWAP1 POP PUSH1 0x20 MUL ADD CALLDATALOAD CALLER PUSH2 0x3E60 JUMP JUMPDEST PUSH2 0x2F64 JUMPI PUSH1 0x40 MLOAD PUSH32 0x8C379A000000000000000000000000000000000000000000000000000000000 DUP2 MSTORE PUSH1 0x4 ADD PUSH2 0x2F5B SWAP1 PUSH2 0x82DB JUMP JUMPDEST PUSH1 0x40 MLOAD DUP1 SWAP2 SUB SWAP1 REVERT JUMPDEST PUSH1 0x1 PUSH2 0x138 PUSH1 0x0 DUP7 DUP7 DUP6 DUP2 DUP2 LT PUSH2 0x2FA4 JUMPI PUSH32 0x4E487B7100000000000000000000000000000000000000000000000000000000 PUSH1 0x0 MSTORE PUSH1 0x32 PUSH1 0x4 MSTORE PUSH1 0x24 PUSH1 0x0 REVERT JUMPDEST SWAP1 POP PUSH1 0x20 MUL ADD CALLDATALOAD DUP2 MSTORE PUSH1 0x20 ADD SWAP1 DUP2 MSTORE PUSH1 0x20 ADD PUSH1 0x0 KECCAK256 PUSH1 0x0 CALLER PUSH20 0xFFFFFFFFFFFFFFFFFFFFFFFFFFFFFFFFFFFFFFFF AND PUSH20 0xFFFFFFFFFFFFFFFFFFFFFFFFFFFFFFFFFFFFFFFF AND DUP2 MSTORE PUSH1 0x20 ADD SWAP1 DUP2 MSTORE PUSH1 0x20 ADD PUSH1 0x0 KECCAK256 PUSH1 0x2 ADD PUSH1 0x0 PUSH2 0x100 EXP DUP2 SLOAD DUP2 PUSH1 0xFF MUL NOT AND SWAP1 DUP4 ISZERO ISZERO MUL OR SWAP1 SSTORE POP PUSH2 0x138 PUSH1 0x0 DUP6 DUP6 DUP5 DUP2 DUP2 LT PUSH2 0x304E JUMPI PUSH32 0x4E487B7100000000000000000000000000000000000000000000000000000000 PUSH1 0x0 MSTORE PUSH1 0x32 PUSH1 0x4 MSTORE PUSH1 0x24 PUSH1 0x0 REVERT JUMPDEST SWAP1 POP PUSH1 0x20 MUL ADD CALLDATALOAD DUP2 MSTORE PUSH1 0x20 ADD SWAP1 DUP2 MSTORE PUSH1 0x20 ADD PUSH1 0x0 KECCAK256 PUSH1 0x0 CALLER PUSH20 0xFFFFFFFFFFFFFFFFFFFFFFFFFFFFFFFFFFFFFFFF AND PUSH20 0xFFFFFFFFFFFFFFFFFFFFFFFFFFFFFFFFFFFFFFFF AND DUP2 MSTORE PUSH1 0x20 ADD SWAP1 DUP2 MSTORE PUSH1 0x20 ADD PUSH1 0x0 KECCAK256 PUSH1 0x1 ADD SLOAD DUP3 PUSH2 0x30AF SWAP2 SWAP1 PUSH2 0x8A8B JUMP JUMPDEST SWAP2 POP DUP4 DUP4 DUP3 DUP2 DUP2 LT PUSH2 0x30EA JUMPI PUSH32 0x4E487B7100000000000000000000000000000000000000000000000000000000 PUSH1 0x0 MSTORE PUSH1 0x32 PUSH1 0x4 MSTORE PUSH1 0x24 PUSH1 0x0 REVERT JUMPDEST SWAP1 POP PUSH1 0x20 MUL ADD CALLDATALOAD CALLER PUSH20 0xFFFFFFFFFFFFFFFFFFFFFFFFFFFFFFFFFFFFFFFF AND PUSH32 0x34FCBAC0073D7C3D388E51312FAF357774904998EEB8FCA628B9E6F65EE1CBF7 PUSH2 0x132 SLOAD PUSH1 0x40 MLOAD PUSH2 0x313A SWAP2 SWAP1 PUSH2 0x875B JUMP JUMPDEST PUSH1 0x40 MLOAD DUP1 SWAP2 SUB SWAP1 LOG3 DUP1 DUP1 PUSH2 0x314D SWAP1 PUSH2 0x8C5D JUMP JUMPDEST SWAP2 POP POP PUSH2 0x2ED1 JUMP JUMPDEST POP PUSH2 0x3195 CALLER DUP3 PUSH20 0xB2D7B35539A543BBE4C74965488FFE33C6721F0D PUSH20 0xFFFFFFFFFFFFFFFFFFFFFFFFFFFFFFFFFFFFFFFF AND PUSH2 0x63BC SWAP1 SWAP3 SWAP2 SWAP1 PUSH4 0xFFFFFFFF AND JUMP JUMPDEST POP PUSH1 0x1 PUSH1 0x97 DUP2 SWAP1 SSTORE POP POP POP JUMP JUMPDEST PUSH2 0x31AA PUSH2 0x280E JUMP JUMPDEST PUSH2 0x31E9 JUMPI PUSH1 0x40 MLOAD PUSH32 0x8C379A000000000000000000000000000000000000000000000000000000000 DUP2 MSTORE PUSH1 0x4 ADD PUSH2 0x31E0 SWAP1 PUSH2 0x82BB JUMP JUMPDEST PUSH1 0x40 MLOAD DUP1 SWAP2 SUB SWAP1 REVERT JUMPDEST PUSH2 0x12D PUSH1 0x0 SWAP1 SLOAD SWAP1 PUSH2 0x100 EXP SWAP1 DIV PUSH20 0xFFFFFFFFFFFFFFFFFFFFFFFFFFFFFFFFFFFFFFFF AND PUSH20 0xFFFFFFFFFFFFFFFFFFFFFFFFFFFFFFFFFFFFFFFF AND CALLER PUSH20 0xFFFFFFFFFFFFFFFFFFFFFFFFFFFFFFFFFFFFFFFF AND EQ PUSH2 0x327A JUMPI PUSH1 0x40 MLOAD PUSH32 0x8C379A000000000000000000000000000000000000000000000000000000000 DUP2 MSTORE PUSH1 0x4 ADD PUSH2 0x3271 SWAP1 PUSH2 0x871B JUMP JUMPDEST PUSH1 0x40 MLOAD DUP1 SWAP2 SUB SWAP1 REVERT JUMPDEST DUP1 PUSH2 0x134 DUP2 SWAP1 SSTORE POP PUSH32 0x40494135FC3982F9F9B9D5B6088AEEE5160B1BF3CB18F59B9F317228111DA8F7 DUP2 PUSH1 0x40 MLOAD PUSH2 0x32B1 SWAP2 SWAP1 PUSH2 0x875B JUMP JUMPDEST PUSH1 0x40 MLOAD DUP1 SWAP2 SUB SWAP1 LOG1 POP JUMP JUMPDEST PUSH2 0x32C4 PUSH2 0x6442 JUMP JUMPDEST PUSH20 0xFFFFFFFFFFFFFFFFFFFFFFFFFFFFFFFFFFFFFFFF AND PUSH2 0x32E2 PUSH2 0x4388 JUMP JUMPDEST PUSH20 0xFFFFFFFFFFFFFFFFFFFFFFFFFFFFFFFFFFFFFFFF AND EQ PUSH2 0x3338 JUMPI PUSH1 0x40 MLOAD PUSH32 0x8C379A000000000000000000000000000000000000000000000000000000000 DUP2 MSTORE PUSH1 0x4 ADD PUSH2 0x332F SWAP1 PUSH2 0x853B JUMP JUMPDEST PUSH1 0x40 MLOAD DUP1 SWAP2 SUB SWAP1 REVERT JUMPDEST PUSH1 0x0 PUSH20 0xFFFFFFFFFFFFFFFFFFFFFFFFFFFFFFFFFFFFFFFF AND DUP2 PUSH20 0xFFFFFFFFFFFFFFFFFFFFFFFFFFFFFFFFFFFFFFFF AND EQ ISZERO PUSH2 0x33A8 JUMPI PUSH1 0x40 MLOAD PUSH32 0x8C379A000000000000000000000000000000000000000000000000000000000 DUP2 MSTORE PUSH1 0x4 ADD PUSH2 0x339F SWAP1 PUSH2 0x849B JUMP JUMPDEST PUSH1 0x40 MLOAD DUP1 SWAP2 SUB SWAP1 REVERT JUMPDEST DUP1 PUSH2 0x12D PUSH1 0x0 PUSH2 0x100 EXP DUP2 SLOAD DUP2 PUSH20 0xFFFFFFFFFFFFFFFFFFFFFFFFFFFFFFFFFFFFFFFF MUL NOT AND SWAP1 DUP4 PUSH20 0xFFFFFFFFFFFFFFFFFFFFFFFFFFFFFFFFFFFFFFFF AND MUL OR SWAP1 SSTORE POP PUSH32 0x137B621413925496477D46E5055AC0D56178BDD724BA8BF843AFCEEF18268BA3 DUP2 PUSH1 0x40 MLOAD PUSH2 0x3419 SWAP2 SWAP1 PUSH2 0x80AC JUMP JUMPDEST PUSH1 0x40 MLOAD DUP1 SWAP2 SUB SWAP1 LOG1 POP JUMP JUMPDEST PUSH2 0x342C PUSH2 0x6442 JUMP JUMPDEST PUSH20 0xFFFFFFFFFFFFFFFFFFFFFFFFFFFFFFFFFFFFFFFF AND PUSH2 0x344A PUSH2 0x4388 JUMP JUMPDEST PUSH20 0xFFFFFFFFFFFFFFFFFFFFFFFFFFFFFFFFFFFFFFFF AND EQ PUSH2 0x34A0 JUMPI PUSH1 0x40 MLOAD PUSH32 0x8C379A000000000000000000000000000000000000000000000000000000000 DUP2 MSTORE PUSH1 0x4 ADD PUSH2 0x3497 SWAP1 PUSH2 0x853B JUMP JUMPDEST PUSH1 0x40 MLOAD DUP1 SWAP2 SUB SWAP1 REVERT JUMPDEST PUSH2 0x34AA PUSH1 0x0 PUSH2 0x644A JUMP JUMPDEST JUMP JUMPDEST PUSH2 0x138 PUSH1 0x20 MSTORE DUP2 PUSH1 0x0 MSTORE PUSH1 0x40 PUSH1 0x0 KECCAK256 PUSH1 0x20 MSTORE DUP1 PUSH1 0x0 MSTORE PUSH1 0x40 PUSH1 0x0 KECCAK256 PUSH1 0x0 SWAP2 POP SWAP2 POP POP DUP1 PUSH1 0x0 ADD PUSH1 0x0 SWAP1 SLOAD SWAP1 PUSH2 0x100 EXP SWAP1 DIV PUSH1 0xFF AND SWAP1 DUP1 PUSH1 0x0 ADD PUSH1 0x1 SWAP1 SLOAD SWAP1 PUSH2 0x100 EXP SWAP1 DIV PUSH20 0xFFFFFFFFFFFFFFFFFFFFFFFFFFFFFFFFFFFFFFFF AND SWAP1 DUP1 PUSH1 0x1 ADD SLOAD SWAP1 DUP1 PUSH1 0x2 ADD PUSH1 0x0 SWAP1 SLOAD SWAP1 PUSH2 0x100 EXP SWAP1 DIV PUSH1 0xFF AND SWAP1 POP DUP5 JUMP JUMPDEST PUSH2 0x352C PUSH2 0x280E JUMP JUMPDEST ISZERO PUSH2 0x356C JUMPI PUSH1 0x40 MLOAD PUSH32 0x8C379A000000000000000000000000000000000000000000000000000000000 DUP2 MSTORE PUSH1 0x4 ADD PUSH2 0x3563 SWAP1 PUSH2 0x847B JUMP JUMPDEST PUSH1 0x40 MLOAD DUP1 SWAP2 SUB SWAP1 REVERT JUMPDEST PUSH2 0x12E PUSH1 0x0 SWAP1 SLOAD SWAP1 PUSH2 0x100 EXP SWAP1 DIV PUSH20 0xFFFFFFFFFFFFFFFFFFFFFFFFFFFFFFFFFFFFFFFF AND PUSH20 0xFFFFFFFFFFFFFFFFFFFFFFFFFFFFFFFFFFFFFFFF AND CALLER PUSH20 0xFFFFFFFFFFFFFFFFFFFFFFFFFFFFFFFFFFFFFFFF AND EQ PUSH2 0x35FD JUMPI PUSH1 0x40 MLOAD PUSH32 0x8C379A000000000000000000000000000000000000000000000000000000000 DUP2 MSTORE PUSH1 0x4 ADD PUSH2 0x35F4 SWAP1 PUSH2 0x86FB JUMP JUMPDEST PUSH1 0x40 MLOAD DUP1 SWAP2 SUB SWAP1 REVERT JUMPDEST PUSH2 0x3605 PUSH2 0x6510 JUMP JUMPDEST PUSH2 0x139 PUSH1 0x0 PUSH2 0x135 SLOAD DUP2 MSTORE PUSH1 0x20 ADD SWAP1 DUP2 MSTORE PUSH1 0x20 ADD PUSH1 0x0 KECCAK256 PUSH1 0x3 ADD SLOAD PUSH2 0x133 PUSH1 0x0 DUP3 DUP3 SLOAD PUSH2 0x3632 SWAP2 SWAP1 PUSH2 0x8A8B JUMP JUMPDEST SWAP3 POP POP DUP2 SWAP1 SSTORE POP JUMP JUMPDEST PUSH2 0x135 SLOAD DUP2 JUMP JUMPDEST PUSH2 0x364A PUSH2 0x280E JUMP JUMPDEST PUSH2 0x3689 JUMPI PUSH1 0x40 MLOAD PUSH32 0x8C379A000000000000000000000000000000000000000000000000000000000 DUP2 MSTORE PUSH1 0x4 ADD PUSH2 0x3680 SWAP1 PUSH2 0x82BB JUMP JUMPDEST PUSH1 0x40 MLOAD DUP1 SWAP2 SUB SWAP1 REVERT JUMPDEST PUSH2 0x12D PUSH1 0x0 SWAP1 SLOAD SWAP1 PUSH2 0x100 EXP SWAP1 DIV PUSH20 0xFFFFFFFFFFFFFFFFFFFFFFFFFFFFFFFFFFFFFFFF AND PUSH20 0xFFFFFFFFFFFFFFFFFFFFFFFFFFFFFFFFFFFFFFFF AND CALLER PUSH20 0xFFFFFFFFFFFFFFFFFFFFFFFFFFFFFFFFFFFFFFFF AND EQ PUSH2 0x371A JUMPI PUSH1 0x40 MLOAD PUSH32 0x8C379A000000000000000000000000000000000000000000000000000000000 DUP2 MSTORE PUSH1 0x4 ADD PUSH2 0x3711 SWAP1 PUSH2 0x871B JUMP JUMPDEST PUSH1 0x40 MLOAD DUP1 SWAP2 SUB SWAP1 REVERT JUMPDEST PUSH1 0x0 JUMPDEST DUP3 MLOAD DUP2 LT ISZERO PUSH2 0x3BD4 JUMPI PUSH1 0x0 PUSH20 0xFFFFFFFFFFFFFFFFFFFFFFFFFFFFFFFFFFFFFFFF AND DUP3 DUP3 DUP2 MLOAD DUP2 LT PUSH2 0x3777 JUMPI PUSH32 0x4E487B7100000000000000000000000000000000000000000000000000000000 PUSH1 0x0 MSTORE PUSH1 0x32 PUSH1 0x4 MSTORE PUSH1 0x24 PUSH1 0x0 REVERT JUMPDEST PUSH1 0x20 MUL PUSH1 0x20 ADD ADD MLOAD PUSH20 0xFFFFFFFFFFFFFFFFFFFFFFFFFFFFFFFFFFFFFFFF AND EQ ISZERO PUSH2 0x37D6 JUMPI PUSH1 0x40 MLOAD PUSH32 0x8C379A000000000000000000000000000000000000000000000000000000000 DUP2 MSTORE PUSH1 0x4 ADD PUSH2 0x37CD SWAP1 PUSH2 0x849B JUMP JUMPDEST PUSH1 0x40 MLOAD DUP1 SWAP2 SUB SWAP1 REVERT JUMPDEST PUSH1 0x0 PUSH20 0xFFFFFFFFFFFFFFFFFFFFFFFFFFFFFFFFFFFFFFFF AND PUSH2 0x13B PUSH1 0x0 DUP6 DUP5 DUP2 MLOAD DUP2 LT PUSH2 0x382C JUMPI PUSH32 0x4E487B7100000000000000000000000000000000000000000000000000000000 PUSH1 0x0 MSTORE PUSH1 0x32 PUSH1 0x4 MSTORE PUSH1 0x24 PUSH1 0x0 REVERT JUMPDEST PUSH1 0x20 MUL PUSH1 0x20 ADD ADD MLOAD PUSH20 0xFFFFFFFFFFFFFFFFFFFFFFFFFFFFFFFFFFFFFFFF AND PUSH20 0xFFFFFFFFFFFFFFFFFFFFFFFFFFFFFFFFFFFFFFFF AND DUP2 MSTORE PUSH1 0x20 ADD SWAP1 DUP2 MSTORE PUSH1 0x20 ADD PUSH1 0x0 KECCAK256 PUSH1 0x0 SWAP1 SLOAD SWAP1 PUSH2 0x100 EXP SWAP1 DIV PUSH20 0xFFFFFFFFFFFFFFFFFFFFFFFFFFFFFFFFFFFFFFFF AND PUSH20 0xFFFFFFFFFFFFFFFFFFFFFFFFFFFFFFFFFFFFFFFF AND EQ ISZERO PUSH2 0x38E6 JUMPI PUSH1 0x40 MLOAD PUSH32 0x8C379A000000000000000000000000000000000000000000000000000000000 DUP2 MSTORE PUSH1 0x4 ADD PUSH2 0x38DD SWAP1 PUSH2 0x843B JUMP JUMPDEST PUSH1 0x40 MLOAD DUP1 SWAP2 SUB SWAP1 REVERT JUMPDEST DUP2 DUP2 DUP2 MLOAD DUP2 LT PUSH2 0x391F JUMPI PUSH32 0x4E487B7100000000000000000000000000000000000000000000000000000000 PUSH1 0x0 MSTORE PUSH1 0x32 PUSH1 0x4 MSTORE PUSH1 0x24 PUSH1 0x0 REVERT JUMPDEST PUSH1 0x20 MUL PUSH1 0x20 ADD ADD MLOAD PUSH2 0x13B PUSH1 0x0 DUP6 DUP5 DUP2 MLOAD DUP2 LT PUSH2 0x3965 JUMPI PUSH32 0x4E487B7100000000000000000000000000000000000000000000000000000000 PUSH1 0x0 MSTORE PUSH1 0x32 PUSH1 0x4 MSTORE PUSH1 0x24 PUSH1 0x0 REVERT JUMPDEST PUSH1 0x20 MUL PUSH1 0x20 ADD ADD MLOAD PUSH20 0xFFFFFFFFFFFFFFFFFFFFFFFFFFFFFFFFFFFFFFFF AND PUSH20 0xFFFFFFFFFFFFFFFFFFFFFFFFFFFFFFFFFFFFFFFF AND DUP2 MSTORE PUSH1 0x20 ADD SWAP1 DUP2 MSTORE PUSH1 0x20 ADD PUSH1 0x0 KECCAK256 PUSH1 0x0 PUSH2 0x100 EXP DUP2 SLOAD DUP2 PUSH20 0xFFFFFFFFFFFFFFFFFFFFFFFFFFFFFFFFFFFFFFFF MUL NOT AND SWAP1 DUP4 PUSH20 0xFFFFFFFFFFFFFFFFFFFFFFFFFFFFFFFFFFFFFFFF AND MUL OR SWAP1 SSTORE POP PUSH2 0x13B PUSH1 0x0 DUP5 DUP4 DUP2 MLOAD DUP2 LT PUSH2 0x3A23 JUMPI PUSH32 0x4E487B7100000000000000000000000000000000000000000000000000000000 PUSH1 0x0 MSTORE PUSH1 0x32 PUSH1 0x4 MSTORE PUSH1 0x24 PUSH1 0x0 REVERT JUMPDEST PUSH1 0x20 MUL PUSH1 0x20 ADD ADD MLOAD PUSH20 0xFFFFFFFFFFFFFFFFFFFFFFFFFFFFFFFFFFFFFFFF AND PUSH20 0xFFFFFFFFFFFFFFFFFFFFFFFFFFFFFFFFFFFFFFFF AND DUP2 MSTORE PUSH1 0x20 ADD SWAP1 DUP2 MSTORE PUSH1 0x20 ADD PUSH1 0x0 KECCAK256 PUSH1 0x0 SWAP1 SLOAD SWAP1 PUSH2 0x100 EXP SWAP1 DIV PUSH20 0xFFFFFFFFFFFFFFFFFFFFFFFFFFFFFFFFFFFFFFFF AND PUSH20 0xFFFFFFFFFFFFFFFFFFFFFFFFFFFFFFFFFFFFFFFF AND PUSH4 0xFEAF968C PUSH1 0x40 MLOAD DUP2 PUSH4 0xFFFFFFFF AND PUSH1 0xE0 SHL DUP2 MSTORE PUSH1 0x4 ADD PUSH1 0xA0 PUSH1 0x40 MLOAD DUP1 DUP4 SUB DUP2 DUP7 DUP1 EXTCODESIZE ISZERO DUP1 ISZERO PUSH2 0x3ACB JUMPI PUSH1 0x0 DUP1 REVERT JUMPDEST POP GAS STATICCALL ISZERO DUP1 ISZERO PUSH2 0x3ADF JUMPI RETURNDATASIZE PUSH1 0x0 DUP1 RETURNDATACOPY RETURNDATASIZE PUSH1 0x0 REVERT JUMPDEST POP POP POP POP PUSH1 0x40 MLOAD RETURNDATASIZE PUSH1 0x1F NOT PUSH1 0x1F DUP3 ADD AND DUP3 ADD DUP1 PUSH1 0x40 MSTORE POP DUP2 ADD SWAP1 PUSH2 0x3B03 SWAP2 SWAP1 PUSH2 0x77D3 JUMP JUMPDEST POP POP POP POP POP PUSH32 0x8763B8C90C5DB415D7B7F0E18EC87EDA82E24E52E2EA8135D44E17DB46D85BB DUP3 DUP3 DUP2 MLOAD DUP2 LT PUSH2 0x3B62 JUMPI PUSH32 0x4E487B7100000000000000000000000000000000000000000000000000000000 PUSH1 0x0 MSTORE PUSH1 0x32 PUSH1 0x4 MSTORE PUSH1 0x24 PUSH1 0x0 REVERT JUMPDEST PUSH1 0x20 MUL PUSH1 0x20 ADD ADD MLOAD DUP5 DUP4 DUP2 MLOAD DUP2 LT PUSH2 0x3BA3 JUMPI PUSH32 0x4E487B7100000000000000000000000000000000000000000000000000000000 PUSH1 0x0 MSTORE PUSH1 0x32 PUSH1 0x4 MSTORE PUSH1 0x24 PUSH1 0x0 REVERT JUMPDEST PUSH1 0x20 MUL PUSH1 0x20 ADD ADD MLOAD PUSH1 0x40 MLOAD PUSH2 0x3BB9 SWAP3 SWAP2 SWAP1 PUSH2 0x80C7 JUMP JUMPDEST PUSH1 0x40 MLOAD DUP1 SWAP2 SUB SWAP1 LOG1 DUP1 DUP1 PUSH2 0x3BCC SWAP1 PUSH2 0x8C5D JUMP JUMPDEST SWAP2 POP POP PUSH2 0x371D JUMP JUMPDEST POP POP POP JUMP JUMPDEST PUSH1 0x60 DUP1 PUSH1 0x60 PUSH2 0x3BE6 PUSH2 0x4FAC JUMP JUMPDEST SWAP3 POP DUP3 MLOAD PUSH8 0xFFFFFFFFFFFFFFFF DUP2 GT ISZERO PUSH2 0x3C29 JUMPI PUSH32 0x4E487B7100000000000000000000000000000000000000000000000000000000 PUSH1 0x0 MSTORE PUSH1 0x41 PUSH1 0x4 MSTORE PUSH1 0x24 PUSH1 0x0 REVERT JUMPDEST PUSH1 0x40 MLOAD SWAP1 DUP1 DUP3 MSTORE DUP1 PUSH1 0x20 MUL PUSH1 0x20 ADD DUP3 ADD PUSH1 0x40 MSTORE DUP1 ISZERO PUSH2 0x3C57 JUMPI DUP2 PUSH1 0x20 ADD PUSH1 0x20 DUP3 MUL DUP1 CALLDATASIZE DUP4 CALLDATACOPY DUP1 DUP3 ADD SWAP2 POP POP SWAP1 POP JUMPDEST POP SWAP2 POP DUP3 MLOAD PUSH8 0xFFFFFFFFFFFFFFFF DUP2 GT ISZERO PUSH2 0x3C9B JUMPI PUSH32 0x4E487B7100000000000000000000000000000000000000000000000000000000 PUSH1 0x0 MSTORE PUSH1 0x41 PUSH1 0x4 MSTORE PUSH1 0x24 PUSH1 0x0 REVERT JUMPDEST PUSH1 0x40 MLOAD SWAP1 DUP1 DUP3 MSTORE DUP1 PUSH1 0x20 MUL PUSH1 0x20 ADD DUP3 ADD PUSH1 0x40 MSTORE DUP1 ISZERO PUSH2 0x3CC9 JUMPI DUP2 PUSH1 0x20 ADD PUSH1 0x20 DUP3 MUL DUP1 CALLDATASIZE DUP4 CALLDATACOPY DUP1 DUP3 ADD SWAP2 POP POP SWAP1 POP JUMPDEST POP SWAP1 POP PUSH1 0x0 PUSH2 0x139 PUSH1 0x0 DUP7 DUP2 MSTORE PUSH1 0x20 ADD SWAP1 DUP2 MSTORE PUSH1 0x20 ADD PUSH1 0x0 KECCAK256 SWAP1 POP PUSH1 0x0 JUMPDEST DUP5 MLOAD DUP2 LT ISZERO PUSH2 0x3E57 JUMPI PUSH1 0x0 DUP6 DUP3 DUP2 MLOAD DUP2 LT PUSH2 0x3D2B JUMPI PUSH32 0x4E487B7100000000000000000000000000000000000000000000000000000000 PUSH1 0x0 MSTORE PUSH1 0x32 PUSH1 0x4 MSTORE PUSH1 0x24 PUSH1 0x0 REVERT JUMPDEST PUSH1 0x20 MUL PUSH1 0x20 ADD ADD MLOAD SWAP1 POP DUP3 PUSH1 0x8 ADD PUSH1 0x0 DUP3 PUSH20 0xFFFFFFFFFFFFFFFFFFFFFFFFFFFFFFFFFFFFFFFF AND PUSH20 0xFFFFFFFFFFFFFFFFFFFFFFFFFFFFFFFFFFFFFFFF AND DUP2 MSTORE PUSH1 0x20 ADD SWAP1 DUP2 MSTORE PUSH1 0x20 ADD PUSH1 0x0 KECCAK256 SLOAD DUP6 DUP4 DUP2 MLOAD DUP2 LT PUSH2 0x3DB0 JUMPI PUSH32 0x4E487B7100000000000000000000000000000000000000000000000000000000 PUSH1 0x0 MSTORE PUSH1 0x32 PUSH1 0x4 MSTORE PUSH1 0x24 PUSH1 0x0 REVERT JUMPDEST PUSH1 0x20 MUL PUSH1 0x20 ADD ADD DUP2 DUP2 MSTORE POP POP DUP3 PUSH1 0x9 ADD PUSH1 0x0 DUP3 PUSH20 0xFFFFFFFFFFFFFFFFFFFFFFFFFFFFFFFFFFFFFFFF AND PUSH20 0xFFFFFFFFFFFFFFFFFFFFFFFFFFFFFFFFFFFFFFFF AND DUP2 MSTORE PUSH1 0x20 ADD SWAP1 DUP2 MSTORE PUSH1 0x20 ADD PUSH1 0x0 KECCAK256 SLOAD DUP5 DUP4 DUP2 MLOAD DUP2 LT PUSH2 0x3E37 JUMPI PUSH32 0x4E487B7100000000000000000000000000000000000000000000000000000000 PUSH1 0x0 MSTORE PUSH1 0x32 PUSH1 0x4 MSTORE PUSH1 0x24 PUSH1 0x0 REVERT JUMPDEST PUSH1 0x20 MUL PUSH1 0x20 ADD ADD DUP2 DUP2 MSTORE POP POP POP DUP1 DUP1 PUSH2 0x3E4F SWAP1 PUSH2 0x8C5D JUMP JUMPDEST SWAP2 POP POP PUSH2 0x3CE7 JUMP JUMPDEST POP POP SWAP2 SWAP4 SWAP1 SWAP3 POP JUMP JUMPDEST PUSH1 0x0 DUP1 PUSH2 0x138 PUSH1 0x0 DUP6 DUP2 MSTORE PUSH1 0x20 ADD SWAP1 DUP2 MSTORE PUSH1 0x20 ADD PUSH1 0x0 KECCAK256 PUSH1 0x0 DUP5 PUSH20 0xFFFFFFFFFFFFFFFFFFFFFFFFFFFFFFFFFFFFFFFF AND PUSH20 0xFFFFFFFFFFFFFFFFFFFFFFFFFFFFFFFFFFFFFFFF AND DUP2 MSTORE PUSH1 0x20 ADD SWAP1 DUP2 MSTORE PUSH1 0x20 ADD PUSH1 0x0 KECCAK256 PUSH1 0x40 MLOAD DUP1 PUSH1 0x80 ADD PUSH1 0x40 MSTORE SWAP1 DUP2 PUSH1 0x0 DUP3 ADD PUSH1 0x0 SWAP1 SLOAD SWAP1 PUSH2 0x100 EXP SWAP1 DIV PUSH1 0xFF AND PUSH1 0x1 DUP2 GT ISZERO PUSH2 0x3F0A JUMPI PUSH32 0x4E487B7100000000000000000000000000000000000000000000000000000000 PUSH1 0x0 MSTORE PUSH1 0x21 PUSH1 0x4 MSTORE PUSH1 0x24 PUSH1 0x0 REVERT JUMPDEST PUSH1 0x1 DUP2 GT ISZERO PUSH2 0x3F42 JUMPI PUSH32 0x4E487B7100000000000000000000000000000000000000000000000000000000 PUSH1 0x0 MSTORE PUSH1 0x21 PUSH1 0x4 MSTORE PUSH1 0x24 PUSH1 0x0 REVERT JUMPDEST DUP2 MSTORE PUSH1 0x20 ADD PUSH1 0x0 DUP3 ADD PUSH1 0x1 SWAP1 SLOAD SWAP1 PUSH2 0x100 EXP SWAP1 DIV PUSH20 0xFFFFFFFFFFFFFFFFFFFFFFFFFFFFFFFFFFFFFFFF AND PUSH20 0xFFFFFFFFFFFFFFFFFFFFFFFFFFFFFFFFFFFFFFFF AND PUSH20 0xFFFFFFFFFFFFFFFFFFFFFFFFFFFFFFFFFFFFFFFF AND DUP2 MSTORE PUSH1 0x20 ADD PUSH1 0x1 DUP3 ADD SLOAD DUP2 MSTORE PUSH1 0x20 ADD PUSH1 0x2 DUP3 ADD PUSH1 0x0 SWAP1 SLOAD SWAP1 PUSH2 0x100 EXP SWAP1 DIV PUSH1 0xFF AND ISZERO ISZERO ISZERO ISZERO DUP2 MSTORE POP POP SWAP1 POP PUSH1 0x0 PUSH2 0x139 PUSH1 0x0 DUP7 DUP2 MSTORE PUSH1 0x20 ADD SWAP1 DUP2 MSTORE PUSH1 0x20 ADD PUSH1 0x0 KECCAK256 SWAP1 POP DUP1 PUSH1 0x4 ADD PUSH1 0x0 SWAP1 SLOAD SWAP1 PUSH2 0x100 EXP SWAP1 DIV PUSH1 0xFF AND ISZERO DUP1 ISZERO PUSH2 0x3FFC JUMPI POP DUP2 PUSH1 0x60 ADD MLOAD ISZERO JUMPDEST DUP1 ISZERO PUSH2 0x4019 JUMPI POP PUSH2 0x12F SLOAD DUP2 PUSH1 0x2 ADD SLOAD PUSH2 0x4016 SWAP2 SWAP1 PUSH2 0x8A8B JUMP JUMPDEST TIMESTAMP GT JUMPDEST DUP1 ISZERO PUSH2 0x402A JUMPI POP PUSH1 0x0 DUP3 PUSH1 0x40 ADD MLOAD EQ ISZERO JUMPDEST SWAP3 POP POP POP SWAP3 SWAP2 POP POP JUMP JUMPDEST PUSH2 0x130 SLOAD DUP2 JUMP JUMPDEST PUSH2 0x4043 PUSH2 0x280E JUMP JUMPDEST ISZERO PUSH2 0x4083 JUMPI PUSH1 0x40 MLOAD PUSH32 0x8C379A000000000000000000000000000000000000000000000000000000000 DUP2 MSTORE PUSH1 0x4 ADD PUSH2 0x407A SWAP1 PUSH2 0x847B JUMP JUMPDEST PUSH1 0x40 MLOAD DUP1 SWAP2 SUB SWAP1 REVERT JUMPDEST PUSH2 0x12D PUSH1 0x0 SWAP1 SLOAD SWAP1 PUSH2 0x100 EXP SWAP1 DIV PUSH20 0xFFFFFFFFFFFFFFFFFFFFFFFFFFFFFFFFFFFFFFFF AND PUSH20 0xFFFFFFFFFFFFFFFFFFFFFFFFFFFFFFFFFFFFFFFF AND CALLER PUSH20 0xFFFFFFFFFFFFFFFFFFFFFFFFFFFFFFFFFFFFFFFF AND EQ DUP1 PUSH2 0x412E JUMPI POP PUSH2 0x12E PUSH1 0x0 SWAP1 SLOAD SWAP1 PUSH2 0x100 EXP SWAP1 DIV PUSH20 0xFFFFFFFFFFFFFFFFFFFFFFFFFFFFFFFFFFFFFFFF AND PUSH20 0xFFFFFFFFFFFFFFFFFFFFFFFFFFFFFFFFFFFFFFFF AND CALLER PUSH20 0xFFFFFFFFFFFFFFFFFFFFFFFFFFFFFFFFFFFFFFFF AND EQ JUMPDEST PUSH2 0x416D JUMPI PUSH1 0x40 MLOAD PUSH32 0x8C379A000000000000000000000000000000000000000000000000000000000 DUP2 MSTORE PUSH1 0x4 ADD PUSH2 0x4164 SWAP1 PUSH2 0x841B JUMP JUMPDEST PUSH1 0x40 MLOAD DUP1 SWAP2 SUB SWAP1 REVERT JUMPDEST PUSH2 0x4175 PUSH2 0x6683 JUMP JUMPDEST PUSH2 0x135 SLOAD PUSH32 0x68B095021B1F40FE513109F513C66692F0B3219AEE674A69F4EFC57BADB8201D PUSH1 0x40 MLOAD PUSH1 0x40 MLOAD DUP1 SWAP2 SUB SWAP1 LOG2 JUMP JUMPDEST PUSH1 0x0 PUSH1 0x1 SWAP1 SLOAD SWAP1 PUSH2 0x100 EXP SWAP1 DIV PUSH1 0xFF AND DUP1 PUSH2 0x41CD JUMPI POP PUSH1 0x0 DUP1 SLOAD SWAP1 PUSH2 0x100 EXP SWAP1 DIV PUSH1 0xFF AND ISZERO JUMPDEST PUSH2 0x420C JUMPI PUSH1 0x40 MLOAD PUSH32 0x8C379A000000000000000000000000000000000000000000000000000000000 DUP2 MSTORE PUSH1 0x4 ADD PUSH2 0x4203 SWAP1 PUSH2 0x84BB JUMP JUMPDEST PUSH1 0x40 MLOAD DUP1 SWAP2 SUB SWAP1 REVERT JUMPDEST PUSH1 0x0 DUP1 PUSH1 0x1 SWAP1 SLOAD SWAP1 PUSH2 0x100 EXP SWAP1 DIV PUSH1 0xFF AND ISZERO SWAP1 POP DUP1 ISZERO PUSH2 0x425C JUMPI PUSH1 0x1 PUSH1 0x0 PUSH1 0x1 PUSH2 0x100 EXP DUP2 SLOAD DUP2 PUSH1 0xFF MUL NOT AND SWAP1 DUP4 ISZERO ISZERO MUL OR SWAP1 SSTORE POP PUSH1 0x1 PUSH1 0x0 DUP1 PUSH2 0x100 EXP DUP2 SLOAD DUP2 PUSH1 0xFF MUL NOT AND SWAP1 DUP4 ISZERO ISZERO MUL OR SWAP1 SSTORE POP JUMPDEST PUSH2 0x4264 PUSH2 0x6726 JUMP JUMPDEST DUP9 PUSH2 0x12D PUSH1 0x0 PUSH2 0x100 EXP DUP2 SLOAD DUP2 PUSH20 0xFFFFFFFFFFFFFFFFFFFFFFFFFFFFFFFFFFFFFFFF MUL NOT AND SWAP1 DUP4 PUSH20 0xFFFFFFFFFFFFFFFFFFFFFFFFFFFFFFFFFFFFFFFF AND MUL OR SWAP1 SSTORE POP DUP8 PUSH2 0x12E PUSH1 0x0 PUSH2 0x100 EXP DUP2 SLOAD DUP2 PUSH20 0xFFFFFFFFFFFFFFFFFFFFFFFFFFFFFFFFFFFFFFFF MUL NOT AND SWAP1 DUP4 PUSH20 0xFFFFFFFFFFFFFFFFFFFFFFFFFFFFFFFFFFFFFFFF AND MUL OR SWAP1 SSTORE POP DUP7 PUSH2 0x130 DUP2 SWAP1 SSTORE POP DUP6 PUSH2 0x12F DUP2 SWAP1 SSTORE POP DUP4 PUSH2 0x132 DUP2 SWAP1 SSTORE POP DUP3 PUSH2 0x137 DUP2 SWAP1 SSTORE POP DUP2 PUSH2 0x134 DUP2 SWAP1 SSTORE POP DUP5 PUSH2 0x131 DUP2 SWAP1 SSTORE POP DUP1 ISZERO PUSH2 0x4339 JUMPI PUSH1 0x0 DUP1 PUSH1 0x1 PUSH2 0x100 EXP DUP2 SLOAD DUP2 PUSH1 0xFF MUL NOT AND SWAP1 DUP4 ISZERO ISZERO MUL OR SWAP1 SSTORE POP JUMPDEST POP POP POP POP POP POP POP POP POP JUMP JUMPDEST PUSH2 0x139 PUSH1 0x20 MSTORE DUP1 PUSH1 0x0 MSTORE PUSH1 0x40 PUSH1 0x0 KECCAK256 PUSH1 0x0 SWAP2 POP SWAP1 POP DUP1 PUSH1 0x0 ADD SLOAD SWAP1 DUP1 PUSH1 0x1 ADD SLOAD SWAP1 DUP1 PUSH1 0x2 ADD SLOAD SWAP1 DUP1 PUSH1 0x3 ADD SLOAD SWAP1 DUP1 PUSH1 0x4 ADD PUSH1 0x0 SWAP1 SLOAD SWAP1 PUSH2 0x100 EXP SWAP1 DIV PUSH1 0xFF AND SWAP1 POP DUP6 JUMP JUMPDEST PUSH1 0x0 PUSH1 0x33 PUSH1 0x0 SWAP1 SLOAD SWAP1 PUSH2 0x100 EXP SWAP1 DIV PUSH20 0xFFFFFFFFFFFFFFFFFFFFFFFFFFFFFFFFFFFFFFFF AND SWAP1 POP SWAP1 JUMP JUMPDEST PUSH1 0x0 DUP1 PUSH1 0x0 DUP1 PUSH1 0x0 PUSH1 0x60 DUP1 PUSH1 0x60 DUP1 PUSH1 0x60 DUP1 DUP12 SWAP11 POP PUSH1 0x0 PUSH2 0x139 PUSH1 0x0 DUP15 DUP2 MSTORE PUSH1 0x20 ADD SWAP1 DUP2 MSTORE PUSH1 0x20 ADD PUSH1 0x0 KECCAK256 SWAP1 POP DUP1 PUSH1 0x1 ADD SLOAD SWAP11 POP DUP1 PUSH1 0x2 ADD SLOAD SWAP10 POP DUP1 PUSH1 0x3 ADD SLOAD SWAP9 POP DUP1 PUSH1 0x4 ADD PUSH1 0x0 SWAP1 SLOAD SWAP1 PUSH2 0x100 EXP SWAP1 DIV PUSH1 0xFF AND SWAP8 POP PUSH2 0x440F PUSH2 0x4FAC JUMP JUMPDEST SWAP7 POP DUP7 MLOAD PUSH8 0xFFFFFFFFFFFFFFFF DUP2 GT ISZERO PUSH2 0x4452 JUMPI PUSH32 0x4E487B7100000000000000000000000000000000000000000000000000000000 PUSH1 0x0 MSTORE PUSH1 0x41 PUSH1 0x4 MSTORE PUSH1 0x24 PUSH1 0x0 REVERT JUMPDEST PUSH1 0x40 MLOAD SWAP1 DUP1 DUP3 MSTORE DUP1 PUSH1 0x20 MUL PUSH1 0x20 ADD DUP3 ADD PUSH1 0x40 MSTORE DUP1 ISZERO PUSH2 0x4480 JUMPI DUP2 PUSH1 0x20 ADD PUSH1 0x20 DUP3 MUL DUP1 CALLDATASIZE DUP4 CALLDATACOPY DUP1 DUP3 ADD SWAP2 POP POP SWAP1 POP JUMPDEST POP SWAP6 POP DUP7 MLOAD PUSH8 0xFFFFFFFFFFFFFFFF DUP2 GT ISZERO PUSH2 0x44C4 JUMPI PUSH32 0x4E487B7100000000000000000000000000000000000000000000000000000000 PUSH1 0x0 MSTORE PUSH1 0x41 PUSH1 0x4 MSTORE PUSH1 0x24 PUSH1 0x0 REVERT JUMPDEST PUSH1 0x40 MLOAD SWAP1 DUP1 DUP3 MSTORE DUP1 PUSH1 0x20 MUL PUSH1 0x20 ADD DUP3 ADD PUSH1 0x40 MSTORE DUP1 ISZERO PUSH2 0x44F2 JUMPI DUP2 PUSH1 0x20 ADD PUSH1 0x20 DUP3 MUL DUP1 CALLDATASIZE DUP4 CALLDATACOPY DUP1 DUP3 ADD SWAP2 POP POP SWAP1 POP JUMPDEST POP SWAP5 POP DUP7 MLOAD PUSH8 0xFFFFFFFFFFFFFFFF DUP2 GT ISZERO PUSH2 0x4536 JUMPI PUSH32 0x4E487B7100000000000000000000000000000000000000000000000000000000 PUSH1 0x0 MSTORE PUSH1 0x41 PUSH1 0x4 MSTORE PUSH1 0x24 PUSH1 0x0 REVERT JUMPDEST PUSH1 0x40 MLOAD SWAP1 DUP1 DUP3 MSTORE DUP1 PUSH1 0x20 MUL PUSH1 0x20 ADD DUP3 ADD PUSH1 0x40 MSTORE DUP1 ISZERO PUSH2 0x4564 JUMPI DUP2 PUSH1 0x20 ADD PUSH1 0x20 DUP3 MUL DUP1 CALLDATASIZE DUP4 CALLDATACOPY DUP1 DUP3 ADD SWAP2 POP POP SWAP1 POP JUMPDEST POP SWAP4 POP DUP7 MLOAD PUSH8 0xFFFFFFFFFFFFFFFF DUP2 GT ISZERO PUSH2 0x45A8 JUMPI PUSH32 0x4E487B7100000000000000000000000000000000000000000000000000000000 PUSH1 0x0 MSTORE PUSH1 0x41 PUSH1 0x4 MSTORE PUSH1 0x24 PUSH1 0x0 REVERT JUMPDEST PUSH1 0x40 MLOAD SWAP1 DUP1 DUP3 MSTORE DUP1 PUSH1 0x20 MUL PUSH1 0x20 ADD DUP3 ADD PUSH1 0x40 MSTORE DUP1 ISZERO PUSH2 0x45D6 JUMPI DUP2 PUSH1 0x20 ADD PUSH1 0x20 DUP3 MUL DUP1 CALLDATASIZE DUP4 CALLDATACOPY DUP1 DUP3 ADD SWAP2 POP POP SWAP1 POP JUMPDEST POP SWAP3 POP DUP7 MLOAD PUSH8 0xFFFFFFFFFFFFFFFF DUP2 GT ISZERO PUSH2 0x461A JUMPI PUSH32 0x4E487B7100000000000000000000000000000000000000000000000000000000 PUSH1 0x0 MSTORE PUSH1 0x41 PUSH1 0x4 MSTORE PUSH1 0x24 PUSH1 0x0 REVERT JUMPDEST PUSH1 0x40 MLOAD SWAP1 DUP1 DUP3 MSTORE DUP1 PUSH1 0x20 MUL PUSH1 0x20 ADD DUP3 ADD PUSH1 0x40 MSTORE DUP1 ISZERO PUSH2 0x4648 JUMPI DUP2 PUSH1 0x20 ADD PUSH1 0x20 DUP3 MUL DUP1 CALLDATASIZE DUP4 CALLDATACOPY DUP1 DUP3 ADD SWAP2 POP POP SWAP1 POP JUMPDEST POP SWAP2 POP PUSH1 0x0 JUMPDEST DUP8 MLOAD DUP2 LT ISZERO PUSH2 0x4953 JUMPI PUSH1 0x0 DUP9 DUP3 DUP2 MLOAD DUP2 LT PUSH2 0x4692 JUMPI PUSH32 0x4E487B7100000000000000000000000000000000000000000000000000000000 PUSH1 0x0 MSTORE PUSH1 0x32 PUSH1 0x4 MSTORE PUSH1 0x24 PUSH1 0x0 REVERT JUMPDEST PUSH1 0x20 MUL PUSH1 0x20 ADD ADD MLOAD SWAP1 POP DUP3 PUSH1 0xA ADD PUSH1 0x0 DUP3 PUSH20 0xFFFFFFFFFFFFFFFFFFFFFFFFFFFFFFFFFFFFFFFF AND PUSH20 0xFFFFFFFFFFFFFFFFFFFFFFFFFFFFFFFFFFFFFFFF AND DUP2 MSTORE PUSH1 0x20 ADD SWAP1 DUP2 MSTORE PUSH1 0x20 ADD PUSH1 0x0 KECCAK256 SLOAD DUP9 DUP4 DUP2 MLOAD DUP2 LT PUSH2 0x4717 JUMPI PUSH32 0x4E487B7100000000000000000000000000000000000000000000000000000000 PUSH1 0x0 MSTORE PUSH1 0x32 PUSH1 0x4 MSTORE PUSH1 0x24 PUSH1 0x0 REVERT JUMPDEST PUSH1 0x20 MUL PUSH1 0x20 ADD ADD DUP2 DUP2 MSTORE POP POP DUP3 PUSH1 0xB ADD PUSH1 0x0 DUP3 PUSH20 0xFFFFFFFFFFFFFFFFFFFFFFFFFFFFFFFFFFFFFFFF AND PUSH20 0xFFFFFFFFFFFFFFFFFFFFFFFFFFFFFFFFFFFFFFFF AND DUP2 MSTORE PUSH1 0x20 ADD SWAP1 DUP2 MSTORE PUSH1 0x20 ADD PUSH1 0x0 KECCAK256 SLOAD DUP8 DUP4 DUP2 MLOAD DUP2 LT PUSH2 0x479E JUMPI PUSH32 0x4E487B7100000000000000000000000000000000000000000000000000000000 PUSH1 0x0 MSTORE PUSH1 0x32 PUSH1 0x4 MSTORE PUSH1 0x24 PUSH1 0x0 REVERT JUMPDEST PUSH1 0x20 MUL PUSH1 0x20 ADD ADD DUP2 DUP2 MSTORE POP POP DUP3 PUSH1 0x5 ADD PUSH1 0x0 DUP3 PUSH20 0xFFFFFFFFFFFFFFFFFFFFFFFFFFFFFFFFFFFFFFFF AND PUSH20 0xFFFFFFFFFFFFFFFFFFFFFFFFFFFFFFFFFFFFFFFF AND DUP2 MSTORE PUSH1 0x20 ADD SWAP1 DUP2 MSTORE PUSH1 0x20 ADD PUSH1 0x0 KECCAK256 SLOAD DUP7 DUP4 DUP2 MLOAD DUP2 LT PUSH2 0x4825 JUMPI PUSH32 0x4E487B7100000000000000000000000000000000000000000000000000000000 PUSH1 0x0 MSTORE PUSH1 0x32 PUSH1 0x4 MSTORE PUSH1 0x24 PUSH1 0x0 REVERT JUMPDEST PUSH1 0x20 MUL PUSH1 0x20 ADD ADD DUP2 DUP2 MSTORE POP POP DUP3 PUSH1 0x6 ADD PUSH1 0x0 DUP3 PUSH20 0xFFFFFFFFFFFFFFFFFFFFFFFFFFFFFFFFFFFFFFFF AND PUSH20 0xFFFFFFFFFFFFFFFFFFFFFFFFFFFFFFFFFFFFFFFF AND DUP2 MSTORE PUSH1 0x20 ADD SWAP1 DUP2 MSTORE PUSH1 0x20 ADD PUSH1 0x0 KECCAK256 SLOAD DUP6 DUP4 DUP2 MLOAD DUP2 LT PUSH2 0x48AC JUMPI PUSH32 0x4E487B7100000000000000000000000000000000000000000000000000000000 PUSH1 0x0 MSTORE PUSH1 0x32 PUSH1 0x4 MSTORE PUSH1 0x24 PUSH1 0x0 REVERT JUMPDEST PUSH1 0x20 MUL PUSH1 0x20 ADD ADD DUP2 DUP2 MSTORE POP POP DUP3 PUSH1 0x7 ADD PUSH1 0x0 DUP3 PUSH20 0xFFFFFFFFFFFFFFFFFFFFFFFFFFFFFFFFFFFFFFFF AND PUSH20 0xFFFFFFFFFFFFFFFFFFFFFFFFFFFFFFFFFFFFFFFF AND DUP2 MSTORE PUSH1 0x20 ADD SWAP1 DUP2 MSTORE PUSH1 0x20 ADD PUSH1 0x0 KECCAK256 SLOAD DUP5 DUP4 DUP2 MLOAD DUP2 LT PUSH2 0x4933 JUMPI PUSH32 0x4E487B7100000000000000000000000000000000000000000000000000000000 PUSH1 0x0 MSTORE PUSH1 0x32 PUSH1 0x4 MSTORE PUSH1 0x24 PUSH1 0x0 REVERT JUMPDEST PUSH1 0x20 MUL PUSH1 0x20 ADD ADD DUP2 DUP2 MSTORE POP POP POP DUP1 DUP1 PUSH2 0x494B SWAP1 PUSH2 0x8C5D JUMP JUMPDEST SWAP2 POP POP PUSH2 0x464E JUMP JUMPDEST POP POP SWAP2 SWAP4 SWAP6 SWAP8 SWAP10 SWAP12 SWAP1 SWAP3 SWAP5 SWAP7 SWAP9 SWAP11 POP JUMP JUMPDEST PUSH2 0x496C PUSH2 0x280E JUMP JUMPDEST PUSH2 0x49AB JUMPI PUSH1 0x40 MLOAD PUSH32 0x8C379A000000000000000000000000000000000000000000000000000000000 DUP2 MSTORE PUSH1 0x4 ADD PUSH2 0x49A2 SWAP1 PUSH2 0x82BB JUMP JUMPDEST PUSH1 0x40 MLOAD DUP1 SWAP2 SUB SWAP1 REVERT JUMPDEST PUSH2 0x12D PUSH1 0x0 SWAP1 SLOAD SWAP1 PUSH2 0x100 EXP SWAP1 DIV PUSH20 0xFFFFFFFFFFFFFFFFFFFFFFFFFFFFFFFFFFFFFFFF AND PUSH20 0xFFFFFFFFFFFFFFFFFFFFFFFFFFFFFFFFFFFFFFFF AND CALLER PUSH20 0xFFFFFFFFFFFFFFFFFFFFFFFFFFFFFFFFFFFFFFFF AND EQ PUSH2 0x4A3C JUMPI PUSH1 0x40 MLOAD PUSH32 0x8C379A000000000000000000000000000000000000000000000000000000000 DUP2 MSTORE PUSH1 0x4 ADD PUSH2 0x4A33 SWAP1 PUSH2 0x871B JUMP JUMPDEST PUSH1 0x40 MLOAD DUP1 SWAP2 SUB SWAP1 REVERT JUMPDEST DUP2 DUP4 LT PUSH2 0x4A7E JUMPI PUSH1 0x40 MLOAD PUSH32 0x8C379A000000000000000000000000000000000000000000000000000000000 DUP2 MSTORE PUSH1 0x4 ADD PUSH2 0x4A75 SWAP1 PUSH2 0x83BB JUMP JUMPDEST PUSH1 0x40 MLOAD DUP1 SWAP2 SUB SWAP1 REVERT JUMPDEST DUP2 DUP2 LT PUSH2 0x4AC0 JUMPI PUSH1 0x40 MLOAD PUSH32 0x8C379A000000000000000000000000000000000000000000000000000000000 DUP2 MSTORE PUSH1 0x4 ADD PUSH2 0x4AB7 SWAP1 PUSH2 0x86DB JUMP JUMPDEST PUSH1 0x40 MLOAD DUP1 SWAP2 SUB SWAP1 REVERT JUMPDEST DUP3 PUSH2 0x12F DUP2 SWAP1 SSTORE POP DUP2 PUSH2 0x130 DUP2 SWAP1 SSTORE POP DUP1 PUSH2 0x131 DUP2 SWAP1 SSTORE POP PUSH32 0xE60149E0431FEC12DF63DFAB5FCE2A9CEFE9A4D3DF5F41CB626F579AE1F2B91A DUP4 DUP4 PUSH1 0x40 MLOAD PUSH2 0x4B09 SWAP3 SWAP2 SWAP1 PUSH2 0x8776 JUMP JUMPDEST PUSH1 0x40 MLOAD DUP1 SWAP2 SUB SWAP1 LOG1 POP POP POP JUMP JUMPDEST PUSH1 0x60 DUP1 PUSH1 0x0 DUP1 DUP5 SWAP1 POP DUP6 PUSH2 0x13A PUSH1 0x0 DUP10 PUSH20 0xFFFFFFFFFFFFFFFFFFFFFFFFFFFFFFFFFFFFFFFF AND PUSH20 0xFFFFFFFFFFFFFFFFFFFFFFFFFFFFFFFFFFFFFFFF AND DUP2 MSTORE PUSH1 0x20 ADD SWAP1 DUP2 MSTORE PUSH1 0x20 ADD PUSH1 0x0 KECCAK256 DUP1 SLOAD SWAP1 POP PUSH2 0x4B6E SWAP2 SWAP1 PUSH2 0x8AE1 JUMP JUMPDEST DUP2 GT ISZERO PUSH2 0x4BC7 JUMPI DUP6 PUSH2 0x13A PUSH1 0x0 DUP10 PUSH20 0xFFFFFFFFFFFFFFFFFFFFFFFFFFFFFFFFFFFFFFFF AND PUSH20 0xFFFFFFFFFFFFFFFFFFFFFFFFFFFFFFFFFFFFFFFF AND DUP2 MSTORE PUSH1 0x20 ADD SWAP1 DUP2 MSTORE PUSH1 0x20 ADD PUSH1 0x0 KECCAK256 DUP1 SLOAD SWAP1 POP PUSH2 0x4BC4 SWAP2 SWAP1 PUSH2 0x8AE1 JUMP JUMPDEST SWAP1 POP JUMPDEST PUSH1 0x0 DUP2 PUSH8 0xFFFFFFFFFFFFFFFF DUP2 GT ISZERO PUSH2 0x4C09 JUMPI PUSH32 0x4E487B7100000000000000000000000000000000000000000000000000000000 PUSH1 0x0 MSTORE PUSH1 0x41 PUSH1 0x4 MSTORE PUSH1 0x24 PUSH1 0x0 REVERT JUMPDEST PUSH1 0x40 MLOAD SWAP1 DUP1 DUP3 MSTORE DUP1 PUSH1 0x20 MUL PUSH1 0x20 ADD DUP3 ADD PUSH1 0x40 MSTORE DUP1 ISZERO PUSH2 0x4C37 JUMPI DUP2 PUSH1 0x20 ADD PUSH1 0x20 DUP3 MUL DUP1 CALLDATASIZE DUP4 CALLDATACOPY DUP1 DUP3 ADD SWAP2 POP POP SWAP1 POP JUMPDEST POP SWAP1 POP PUSH1 0x0 DUP3 PUSH8 0xFFFFFFFFFFFFFFFF DUP2 GT ISZERO PUSH2 0x4C7C JUMPI PUSH32 0x4E487B7100000000000000000000000000000000000000000000000000000000 PUSH1 0x0 MSTORE PUSH1 0x41 PUSH1 0x4 MSTORE PUSH1 0x24 PUSH1 0x0 REVERT JUMPDEST PUSH1 0x40 MLOAD SWAP1 DUP1 DUP3 MSTORE DUP1 PUSH1 0x20 MUL PUSH1 0x20 ADD DUP3 ADD PUSH1 0x40 MSTORE DUP1 ISZERO PUSH2 0x4CB5 JUMPI DUP2 PUSH1 0x20 ADD JUMPDEST PUSH2 0x4CA2 PUSH2 0x7176 JUMP JUMPDEST DUP2 MSTORE PUSH1 0x20 ADD SWAP1 PUSH1 0x1 SWAP1 SUB SWAP1 DUP2 PUSH2 0x4C9A JUMPI SWAP1 POP JUMPDEST POP SWAP1 POP PUSH1 0x0 JUMPDEST DUP4 DUP2 LT ISZERO PUSH2 0x4F8B JUMPI PUSH2 0x13A PUSH1 0x0 DUP12 PUSH20 0xFFFFFFFFFFFFFFFFFFFFFFFFFFFFFFFFFFFFFFFF AND PUSH20 0xFFFFFFFFFFFFFFFFFFFFFFFFFFFFFFFFFFFFFFFF AND DUP2 MSTORE PUSH1 0x20 ADD SWAP1 DUP2 MSTORE PUSH1 0x20 ADD PUSH1 0x0 KECCAK256 DUP2 DUP11 PUSH2 0x4D0F SWAP2 SWAP1 PUSH2 0x8A8B JUMP JUMPDEST DUP2 SLOAD DUP2 LT PUSH2 0x4D46 JUMPI PUSH32 0x4E487B7100000000000000000000000000000000000000000000000000000000 PUSH1 0x0 MSTORE PUSH1 0x32 PUSH1 0x4 MSTORE PUSH1 0x24 PUSH1 0x0 REVERT JUMPDEST SWAP1 PUSH1 0x0 MSTORE PUSH1 0x20 PUSH1 0x0 KECCAK256 ADD SLOAD DUP4 DUP3 DUP2 MLOAD DUP2 LT PUSH2 0x4D8A JUMPI PUSH32 0x4E487B7100000000000000000000000000000000000000000000000000000000 PUSH1 0x0 MSTORE PUSH1 0x32 PUSH1 0x4 MSTORE PUSH1 0x24 PUSH1 0x0 REVERT JUMPDEST PUSH1 0x20 MUL PUSH1 0x20 ADD ADD DUP2 DUP2 MSTORE POP POP PUSH2 0x138 PUSH1 0x0 DUP5 DUP4 DUP2 MLOAD DUP2 LT PUSH2 0x4DD4 JUMPI PUSH32 0x4E487B7100000000000000000000000000000000000000000000000000000000 PUSH1 0x0 MSTORE PUSH1 0x32 PUSH1 0x4 MSTORE PUSH1 0x24 PUSH1 0x0 REVERT JUMPDEST PUSH1 0x20 MUL PUSH1 0x20 ADD ADD MLOAD DUP2 MSTORE PUSH1 0x20 ADD SWAP1 DUP2 MSTORE PUSH1 0x20 ADD PUSH1 0x0 KECCAK256 PUSH1 0x0 DUP12 PUSH20 0xFFFFFFFFFFFFFFFFFFFFFFFFFFFFFFFFFFFFFFFF AND PUSH20 0xFFFFFFFFFFFFFFFFFFFFFFFFFFFFFFFFFFFFFFFF AND DUP2 MSTORE PUSH1 0x20 ADD SWAP1 DUP2 MSTORE PUSH1 0x20 ADD PUSH1 0x0 KECCAK256 PUSH1 0x40 MLOAD DUP1 PUSH1 0x80 ADD PUSH1 0x40 MSTORE SWAP1 DUP2 PUSH1 0x0 DUP3 ADD PUSH1 0x0 SWAP1 SLOAD SWAP1 PUSH2 0x100 EXP SWAP1 DIV PUSH1 0xFF AND PUSH1 0x1 DUP2 GT ISZERO PUSH2 0x4E7D JUMPI PUSH32 0x4E487B7100000000000000000000000000000000000000000000000000000000 PUSH1 0x0 MSTORE PUSH1 0x21 PUSH1 0x4 MSTORE PUSH1 0x24 PUSH1 0x0 REVERT JUMPDEST PUSH1 0x1 DUP2 GT ISZERO PUSH2 0x4EB5 JUMPI PUSH32 0x4E487B7100000000000000000000000000000000000000000000000000000000 PUSH1 0x0 MSTORE PUSH1 0x21 PUSH1 0x4 MSTORE PUSH1 0x24 PUSH1 0x0 REVERT JUMPDEST DUP2 MSTORE PUSH1 0x20 ADD PUSH1 0x0 DUP3 ADD PUSH1 0x1 SWAP1 SLOAD SWAP1 PUSH2 0x100 EXP SWAP1 DIV PUSH20 0xFFFFFFFFFFFFFFFFFFFFFFFFFFFFFFFFFFFFFFFF AND PUSH20 0xFFFFFFFFFFFFFFFFFFFFFFFFFFFFFFFFFFFFFFFF AND PUSH20 0xFFFFFFFFFFFFFFFFFFFFFFFFFFFFFFFFFFFFFFFF AND DUP2 MSTORE PUSH1 0x20 ADD PUSH1 0x1 DUP3 ADD SLOAD DUP2 MSTORE PUSH1 0x20 ADD PUSH1 0x2 DUP3 ADD PUSH1 0x0 SWAP1 SLOAD SWAP1 PUSH2 0x100 EXP SWAP1 DIV PUSH1 0xFF AND ISZERO ISZERO ISZERO ISZERO DUP2 MSTORE POP POP DUP3 DUP3 DUP2 MLOAD DUP2 LT PUSH2 0x4F6D JUMPI PUSH32 0x4E487B7100000000000000000000000000000000000000000000000000000000 PUSH1 0x0 MSTORE PUSH1 0x32 PUSH1 0x4 MSTORE PUSH1 0x24 PUSH1 0x0 REVERT JUMPDEST PUSH1 0x20 MUL PUSH1 0x20 ADD ADD DUP2 SWAP1 MSTORE POP DUP1 DUP1 PUSH2 0x4F83 SWAP1 PUSH2 0x8C5D JUMP JUMPDEST SWAP2 POP POP PUSH2 0x4CBB JUMP JUMPDEST POP DUP2 DUP2 DUP5 DUP11 PUSH2 0x4F9A SWAP2 SWAP1 PUSH2 0x8A8B JUMP JUMPDEST SWAP6 POP SWAP6 POP SWAP6 POP POP POP POP SWAP4 POP SWAP4 POP SWAP4 SWAP1 POP JUMP JUMPDEST PUSH1 0x60 PUSH2 0x13C DUP1 SLOAD DUP1 PUSH1 0x20 MUL PUSH1 0x20 ADD PUSH1 0x40 MLOAD SWAP1 DUP2 ADD PUSH1 0x40 MSTORE DUP1 SWAP3 SWAP2 SWAP1 DUP2 DUP2 MSTORE PUSH1 0x20 ADD DUP3 DUP1 SLOAD DUP1 ISZERO PUSH2 0x5031 JUMPI PUSH1 0x20 MUL DUP3 ADD SWAP2 SWAP1 PUSH1 0x0 MSTORE PUSH1 0x20 PUSH1 0x0 KECCAK256 SWAP1 JUMPDEST DUP2 PUSH1 0x0 SWAP1 SLOAD SWAP1 PUSH2 0x100 EXP SWAP1 DIV PUSH20 0xFFFFFFFFFFFFFFFFFFFFFFFFFFFFFFFFFFFFFFFF AND PUSH20 0xFFFFFFFFFFFFFFFFFFFFFFFFFFFFFFFFFFFFFFFF AND DUP2 MSTORE PUSH1 0x20 ADD SWAP1 PUSH1 0x1 ADD SWAP1 DUP1 DUP4 GT PUSH2 0x4FE7 JUMPI JUMPDEST POP POP POP POP POP SWAP1 POP SWAP1 JUMP JUMPDEST PUSH2 0x13B PUSH1 0x20 MSTORE DUP1 PUSH1 0x0 MSTORE PUSH1 0x40 PUSH1 0x0 KECCAK256 PUSH1 0x0 SWAP2 POP SLOAD SWAP1 PUSH2 0x100 EXP SWAP1 DIV PUSH20 0xFFFFFFFFFFFFFFFFFFFFFFFFFFFFFFFFFFFFFFFF AND DUP2 JUMP JUMPDEST PUSH2 0x5077 PUSH2 0x6442 JUMP JUMPDEST PUSH20 0xFFFFFFFFFFFFFFFFFFFFFFFFFFFFFFFFFFFFFFFF AND PUSH2 0x5095 PUSH2 0x4388 JUMP JUMPDEST PUSH20 0xFFFFFFFFFFFFFFFFFFFFFFFFFFFFFFFFFFFFFFFF AND EQ PUSH2 0x50EB JUMPI PUSH1 0x40 MLOAD PUSH32 0x8C379A000000000000000000000000000000000000000000000000000000000 DUP2 MSTORE PUSH1 0x4 ADD PUSH2 0x50E2 SWAP1 PUSH2 0x853B JUMP JUMPDEST PUSH1 0x40 MLOAD DUP1 SWAP2 SUB SWAP1 REVERT JUMPDEST PUSH20 0xB2D7B35539A543BBE4C74965488FFE33C6721F0D PUSH20 0xFFFFFFFFFFFFFFFFFFFFFFFFFFFFFFFFFFFFFFFF AND DUP3 PUSH20 0xFFFFFFFFFFFFFFFFFFFFFFFFFFFFFFFFFFFFFFFF AND EQ ISZERO PUSH2 0x516E JUMPI PUSH1 0x40 MLOAD PUSH32 0x8C379A000000000000000000000000000000000000000000000000000000000 DUP2 MSTORE PUSH1 0x4 ADD PUSH2 0x5165 SWAP1 PUSH2 0x85FB JUMP JUMPDEST PUSH1 0x40 MLOAD DUP1 SWAP2 SUB SWAP1 REVERT JUMPDEST PUSH2 0x5199 CALLER DUP3 DUP5 PUSH20 0xFFFFFFFFFFFFFFFFFFFFFFFFFFFFFFFFFFFFFFFF AND PUSH2 0x63BC SWAP1 SWAP3 SWAP2 SWAP1 PUSH4 0xFFFFFFFF AND JUMP JUMPDEST DUP2 PUSH20 0xFFFFFFFFFFFFFFFFFFFFFFFFFFFFFFFFFFFFFFFF AND PUSH32 0x14F11966A996E0629572E51064726D2057A80FBD34EFC066682C06A71DBB6E98 DUP3 PUSH1 0x40 MLOAD PUSH2 0x51DF SWAP2 SWAP1 PUSH2 0x875B JUMP JUMPDEST PUSH1 0x40 MLOAD DUP1 SWAP2 SUB SWAP1 LOG2 POP POP JUMP JUMPDEST PUSH2 0x12D PUSH1 0x0 SWAP1 SLOAD SWAP1 PUSH2 0x100 EXP SWAP1 DIV PUSH20 0xFFFFFFFFFFFFFFFFFFFFFFFFFFFFFFFFFFFFFFFF AND PUSH20 0xFFFFFFFFFFFFFFFFFFFFFFFFFFFFFFFFFFFFFFFF AND CALLER PUSH20 0xFFFFFFFFFFFFFFFFFFFFFFFFFFFFFFFFFFFFFFFF AND EQ PUSH2 0x527C JUMPI PUSH1 0x40 MLOAD PUSH32 0x8C379A000000000000000000000000000000000000000000000000000000000 DUP2 MSTORE PUSH1 0x4 ADD PUSH2 0x5273 SWAP1 PUSH2 0x871B JUMP JUMPDEST PUSH1 0x40 MLOAD DUP1 SWAP2 SUB SWAP1 REVERT JUMPDEST PUSH1 0x0 PUSH20 0xFFFFFFFFFFFFFFFFFFFFFFFFFFFFFFFFFFFFFFFF AND DUP2 PUSH20 0xFFFFFFFFFFFFFFFFFFFFFFFFFFFFFFFFFFFFFFFF AND EQ ISZERO PUSH2 0x52EC JUMPI PUSH1 0x40 MLOAD PUSH32 0x8C379A000000000000000000000000000000000000000000000000000000000 DUP2 MSTORE PUSH1 0x4 ADD PUSH2 0x52E3 SWAP1 PUSH2 0x849B JUMP JUMPDEST PUSH1 0x40 MLOAD DUP1 SWAP2 SUB SWAP1 REVERT JUMPDEST DUP1 PUSH2 0x12E PUSH1 0x0 PUSH2 0x100 EXP DUP2 SLOAD DUP2 PUSH20 0xFFFFFFFFFFFFFFFFFFFFFFFFFFFFFFFFFFFFFFFF MUL NOT AND SWAP1 DUP4 PUSH20 0xFFFFFFFFFFFFFFFFFFFFFFFFFFFFFFFFFFFFFFFF AND MUL OR SWAP1 SSTORE POP PUSH32 0xC47D127C07BDD56C5CCBA00463CE3BD3C1BCA71B4670EEA6E5D0C02E4AA156E2 DUP2 PUSH1 0x40 MLOAD PUSH2 0x535D SWAP2 SWAP1 PUSH2 0x80AC JUMP JUMPDEST PUSH1 0x40 MLOAD DUP1 SWAP2 SUB SWAP1 LOG1 POP JUMP JUMPDEST PUSH2 0x5370 PUSH2 0x280E JUMP JUMPDEST PUSH2 0x53AF JUMPI PUSH1 0x40 MLOAD PUSH32 0x8C379A000000000000000000000000000000000000000000000000000000000 DUP2 MSTORE PUSH1 0x4 ADD PUSH2 0x53A6 SWAP1 PUSH2 0x82BB JUMP JUMPDEST PUSH1 0x40 MLOAD DUP1 SWAP2 SUB SWAP1 REVERT JUMPDEST PUSH2 0x12D PUSH1 0x0 SWAP1 SLOAD SWAP1 PUSH2 0x100 EXP SWAP1 DIV PUSH20 0xFFFFFFFFFFFFFFFFFFFFFFFFFFFFFFFFFFFFFFFF AND PUSH20 0xFFFFFFFFFFFFFFFFFFFFFFFFFFFFFFFFFFFFFFFF AND CALLER PUSH20 0xFFFFFFFFFFFFFFFFFFFFFFFFFFFFFFFFFFFFFFFF AND EQ PUSH2 0x5440 JUMPI PUSH1 0x40 MLOAD PUSH32 0x8C379A000000000000000000000000000000000000000000000000000000000 DUP2 MSTORE PUSH1 0x4 ADD PUSH2 0x5437 SWAP1 PUSH2 0x871B JUMP JUMPDEST PUSH1 0x40 MLOAD DUP1 SWAP2 SUB SWAP1 REVERT JUMPDEST DUP1 PUSH2 0x137 DUP2 SWAP1 SSTORE POP PUSH32 0x93CCACEAC092FFB842C46B8718667A13A80E9058DCD0BD403D0B47215B30DA07 DUP2 PUSH1 0x40 MLOAD PUSH2 0x5477 SWAP2 SWAP1 PUSH2 0x875B JUMP JUMPDEST PUSH1 0x40 MLOAD DUP1 SWAP2 SUB SWAP1 LOG1 POP JUMP JUMPDEST PUSH2 0x132 SLOAD DUP2 JUMP JUMPDEST PUSH2 0x13A PUSH1 0x20 MSTORE DUP2 PUSH1 0x0 MSTORE PUSH1 0x40 PUSH1 0x0 KECCAK256 DUP2 DUP2 SLOAD DUP2 LT PUSH2 0x54A6 JUMPI PUSH1 0x0 DUP1 REVERT JUMPDEST SWAP1 PUSH1 0x0 MSTORE PUSH1 0x20 PUSH1 0x0 KECCAK256 ADD PUSH1 0x0 SWAP2 POP SWAP2 POP POP SLOAD DUP2 JUMP JUMPDEST PUSH20 0xB2D7B35539A543BBE4C74965488FFE33C6721F0D DUP2 JUMP JUMPDEST PUSH2 0x12F SLOAD DUP2 JUMP JUMPDEST PUSH2 0x136 SLOAD DUP2 JUMP JUMPDEST PUSH2 0x3E8 DUP2 JUMP JUMPDEST PUSH2 0x54EF PUSH2 0x6442 JUMP JUMPDEST PUSH20 0xFFFFFFFFFFFFFFFFFFFFFFFFFFFFFFFFFFFFFFFF AND PUSH2 0x550D PUSH2 0x4388 JUMP JUMPDEST PUSH20 0xFFFFFFFFFFFFFFFFFFFFFFFFFFFFFFFFFFFFFFFF AND EQ PUSH2 0x5563 JUMPI PUSH1 0x40 MLOAD PUSH32 0x8C379A000000000000000000000000000000000000000000000000000000000 DUP2 MSTORE PUSH1 0x4 ADD PUSH2 0x555A SWAP1 PUSH2 0x853B JUMP JUMPDEST PUSH1 0x40 MLOAD DUP1 SWAP2 SUB SWAP1 REVERT JUMPDEST PUSH1 0x0 PUSH20 0xFFFFFFFFFFFFFFFFFFFFFFFFFFFFFFFFFFFFFFFF AND DUP2 PUSH20 0xFFFFFFFFFFFFFFFFFFFFFFFFFFFFFFFFFFFFFFFF AND EQ ISZERO PUSH2 0x55D3 JUMPI PUSH1 0x40 MLOAD PUSH32 0x8C379A000000000000000000000000000000000000000000000000000000000 DUP2 MSTORE PUSH1 0x4 ADD PUSH2 0x55CA SWAP1 PUSH2 0x835B JUMP JUMPDEST PUSH1 0x40 MLOAD DUP1 SWAP2 SUB SWAP1 REVERT JUMPDEST PUSH2 0x55DC DUP2 PUSH2 0x644A JUMP JUMPDEST POP JUMP JUMPDEST PUSH2 0x12D PUSH1 0x0 SWAP1 SLOAD SWAP1 PUSH2 0x100 EXP SWAP1 DIV PUSH20 0xFFFFFFFFFFFFFFFFFFFFFFFFFFFFFFFFFFFFFFFF AND DUP2 JUMP JUMPDEST PUSH2 0x560E PUSH2 0x280E JUMP JUMPDEST ISZERO PUSH2 0x564E JUMPI PUSH1 0x40 MLOAD PUSH32 0x8C379A000000000000000000000000000000000000000000000000000000000 DUP2 MSTORE PUSH1 0x4 ADD PUSH2 0x5645 SWAP1 PUSH2 0x847B JUMP JUMPDEST PUSH1 0x40 MLOAD DUP1 SWAP2 SUB SWAP1 REVERT JUMPDEST PUSH2 0x12D PUSH1 0x0 SWAP1 SLOAD SWAP1 PUSH2 0x100 EXP SWAP1 DIV PUSH20 0xFFFFFFFFFFFFFFFFFFFFFFFFFFFFFFFFFFFFFFFF AND PUSH20 0xFFFFFFFFFFFFFFFFFFFFFFFFFFFFFFFFFFFFFFFF AND CALLER PUSH20 0xFFFFFFFFFFFFFFFFFFFFFFFFFFFFFFFFFFFFFFFF AND EQ PUSH2 0x56DF JUMPI PUSH1 0x40 MLOAD PUSH32 0x8C379A000000000000000000000000000000000000000000000000000000000 DUP2 MSTORE PUSH1 0x4 ADD PUSH2 0x56D6 SWAP1 PUSH2 0x871B JUMP JUMPDEST PUSH1 0x40 MLOAD DUP1 SWAP2 SUB SWAP1 REVERT JUMPDEST PUSH1 0x0 JUMPDEST DUP2 MLOAD DUP2 LT ISZERO PUSH2 0x5CA7 JUMPI PUSH1 0x0 PUSH20 0xFFFFFFFFFFFFFFFFFFFFFFFFFFFFFFFFFFFFFFFF AND PUSH2 0x13C DUP4 DUP4 DUP2 MLOAD DUP2 LT PUSH2 0x573F JUMPI PUSH32 0x4E487B7100000000000000000000000000000000000000000000000000000000 PUSH1 0x0 MSTORE PUSH1 0x32 PUSH1 0x4 MSTORE PUSH1 0x24 PUSH1 0x0 REVERT JUMPDEST PUSH1 0x20 MUL PUSH1 0x20 ADD ADD MLOAD DUP2 SLOAD DUP2 LT PUSH2 0x577E JUMPI PUSH32 0x4E487B7100000000000000000000000000000000000000000000000000000000 PUSH1 0x0 MSTORE PUSH1 0x32 PUSH1 0x4 MSTORE PUSH1 0x24 PUSH1 0x0 REVERT JUMPDEST SWAP1 PUSH1 0x0 MSTORE PUSH1 0x20 PUSH1 0x0 KECCAK256 ADD PUSH1 0x0 SWAP1 SLOAD SWAP1 PUSH2 0x100 EXP SWAP1 DIV PUSH20 0xFFFFFFFFFFFFFFFFFFFFFFFFFFFFFFFFFFFFFFFF AND PUSH20 0xFFFFFFFFFFFFFFFFFFFFFFFFFFFFFFFFFFFFFFFF AND EQ ISZERO PUSH2 0x5800 JUMPI PUSH1 0x40 MLOAD PUSH32 0x8C379A000000000000000000000000000000000000000000000000000000000 DUP2 MSTORE PUSH1 0x4 ADD PUSH2 0x57F7 SWAP1 PUSH2 0x843B JUMP JUMPDEST PUSH1 0x40 MLOAD DUP1 SWAP2 SUB SWAP1 REVERT JUMPDEST PUSH2 0x13B PUSH1 0x0 PUSH2 0x13C DUP5 DUP5 DUP2 MLOAD DUP2 LT PUSH2 0x5841 JUMPI PUSH32 0x4E487B7100000000000000000000000000000000000000000000000000000000 PUSH1 0x0 MSTORE PUSH1 0x32 PUSH1 0x4 MSTORE PUSH1 0x24 PUSH1 0x0 REVERT JUMPDEST PUSH1 0x20 MUL PUSH1 0x20 ADD ADD MLOAD DUP2 SLOAD DUP2 LT PUSH2 0x5880 JUMPI PUSH32 0x4E487B7100000000000000000000000000000000000000000000000000000000 PUSH1 0x0 MSTORE PUSH1 0x32 PUSH1 0x4 MSTORE PUSH1 0x24 PUSH1 0x0 REVERT JUMPDEST SWAP1 PUSH1 0x0 MSTORE PUSH1 0x20 PUSH1 0x0 KECCAK256 ADD PUSH1 0x0 SWAP1 SLOAD SWAP1 PUSH2 0x100 EXP SWAP1 DIV PUSH20 0xFFFFFFFFFFFFFFFFFFFFFFFFFFFFFFFFFFFFFFFF AND PUSH20 0xFFFFFFFFFFFFFFFFFFFFFFFFFFFFFFFFFFFFFFFF AND PUSH20 0xFFFFFFFFFFFFFFFFFFFFFFFFFFFFFFFFFFFFFFFF AND DUP2 MSTORE PUSH1 0x20 ADD SWAP1 DUP2 MSTORE PUSH1 0x20 ADD PUSH1 0x0 KECCAK256 PUSH1 0x0 PUSH2 0x100 EXP DUP2 SLOAD SWAP1 PUSH20 0xFFFFFFFFFFFFFFFFFFFFFFFFFFFFFFFFFFFFFFFF MUL NOT AND SWAP1 SSTORE PUSH2 0x13C PUSH1 0x1 PUSH2 0x13C DUP1 SLOAD SWAP1 POP PUSH2 0x591E SWAP2 SWAP1 PUSH2 0x8AE1 JUMP JUMPDEST DUP2 SLOAD DUP2 LT PUSH2 0x5955 JUMPI PUSH32 0x4E487B7100000000000000000000000000000000000000000000000000000000 PUSH1 0x0 MSTORE PUSH1 0x32 PUSH1 0x4 MSTORE PUSH1 0x24 PUSH1 0x0 REVERT JUMPDEST SWAP1 PUSH1 0x0 MSTORE PUSH1 0x20 PUSH1 0x0 KECCAK256 ADD PUSH1 0x0 SWAP1 SLOAD SWAP1 PUSH2 0x100 EXP SWAP1 DIV PUSH20 0xFFFFFFFFFFFFFFFFFFFFFFFFFFFFFFFFFFFFFFFF AND PUSH2 0x13C DUP4 DUP4 DUP2 MLOAD DUP2 LT PUSH2 0x59BC JUMPI PUSH32 0x4E487B7100000000000000000000000000000000000000000000000000000000 PUSH1 0x0 MSTORE PUSH1 0x32 PUSH1 0x4 MSTORE PUSH1 0x24 PUSH1 0x0 REVERT JUMPDEST PUSH1 0x20 MUL PUSH1 0x20 ADD ADD MLOAD DUP2 SLOAD DUP2 LT PUSH2 0x59FB JUMPI PUSH32 0x4E487B7100000000000000000000000000000000000000000000000000000000 PUSH1 0x0 MSTORE PUSH1 0x32 PUSH1 0x4 MSTORE PUSH1 0x24 PUSH1 0x0 REVERT JUMPDEST SWAP1 PUSH1 0x0 MSTORE PUSH1 0x20 PUSH1 0x0 KECCAK256 ADD PUSH1 0x0 PUSH2 0x100 EXP DUP2 SLOAD DUP2 PUSH20 0xFFFFFFFFFFFFFFFFFFFFFFFFFFFFFFFFFFFFFFFF MUL NOT AND SWAP1 DUP4 PUSH20 0xFFFFFFFFFFFFFFFFFFFFFFFFFFFFFFFFFFFFFFFF AND MUL OR SWAP1 SSTORE POP PUSH2 0x13C DUP1 SLOAD DUP1 PUSH2 0x5A7C JUMPI PUSH32 0x4E487B7100000000000000000000000000000000000000000000000000000000 PUSH1 0x0 MSTORE PUSH1 0x31 PUSH1 0x4 MSTORE PUSH1 0x24 PUSH1 0x0 REVERT JUMPDEST PUSH1 0x1 SWAP1 SUB DUP2 DUP2 SWAP1 PUSH1 0x0 MSTORE PUSH1 0x20 PUSH1 0x0 KECCAK256 ADD PUSH1 0x0 PUSH2 0x100 EXP DUP2 SLOAD SWAP1 PUSH20 0xFFFFFFFFFFFFFFFFFFFFFFFFFFFFFFFFFFFFFFFF MUL NOT AND SWAP1 SSTORE SWAP1 SSTORE PUSH32 0xBBE55B1FF108E23E5FF1A6F5D36946EEC15EC0CA0DED2BFED4CDCF697CA90460 PUSH2 0x13C DUP4 DUP4 DUP2 MLOAD DUP2 LT PUSH2 0x5B0E JUMPI PUSH32 0x4E487B7100000000000000000000000000000000000000000000000000000000 PUSH1 0x0 MSTORE PUSH1 0x32 PUSH1 0x4 MSTORE PUSH1 0x24 PUSH1 0x0 REVERT JUMPDEST PUSH1 0x20 MUL PUSH1 0x20 ADD ADD MLOAD DUP2 SLOAD DUP2 LT PUSH2 0x5B4D JUMPI PUSH32 0x4E487B7100000000000000000000000000000000000000000000000000000000 PUSH1 0x0 MSTORE PUSH1 0x32 PUSH1 0x4 MSTORE PUSH1 0x24 PUSH1 0x0 REVERT JUMPDEST SWAP1 PUSH1 0x0 MSTORE PUSH1 0x20 PUSH1 0x0 KECCAK256 ADD PUSH1 0x0 SWAP1 SLOAD SWAP1 PUSH2 0x100 EXP SWAP1 DIV PUSH20 0xFFFFFFFFFFFFFFFFFFFFFFFFFFFFFFFFFFFFFFFF AND PUSH2 0x13B PUSH1 0x0 PUSH2 0x13C DUP7 DUP7 DUP2 MLOAD DUP2 LT PUSH2 0x5BB9 JUMPI PUSH32 0x4E487B7100000000000000000000000000000000000000000000000000000000 PUSH1 0x0 MSTORE PUSH1 0x32 PUSH1 0x4 MSTORE PUSH1 0x24 PUSH1 0x0 REVERT JUMPDEST PUSH1 0x20 MUL PUSH1 0x20 ADD ADD MLOAD DUP2 SLOAD DUP2 LT PUSH2 0x5BF8 JUMPI PUSH32 0x4E487B7100000000000000000000000000000000000000000000000000000000 PUSH1 0x0 MSTORE PUSH1 0x32 PUSH1 0x4 MSTORE PUSH1 0x24 PUSH1 0x0 REVERT JUMPDEST SWAP1 PUSH1 0x0 MSTORE PUSH1 0x20 PUSH1 0x0 KECCAK256 ADD PUSH1 0x0 SWAP1 SLOAD SWAP1 PUSH2 0x100 EXP SWAP1 DIV PUSH20 0xFFFFFFFFFFFFFFFFFFFFFFFFFFFFFFFFFFFFFFFF AND PUSH20 0xFFFFFFFFFFFFFFFFFFFFFFFFFFFFFFFFFFFFFFFF AND PUSH20 0xFFFFFFFFFFFFFFFFFFFFFFFFFFFFFFFFFFFFFFFF AND DUP2 MSTORE PUSH1 0x20 ADD SWAP1 DUP2 MSTORE PUSH1 0x20 ADD PUSH1 0x0 KECCAK256 PUSH1 0x0 SWAP1 SLOAD SWAP1 PUSH2 0x100 EXP SWAP1 DIV PUSH20 0xFFFFFFFFFFFFFFFFFFFFFFFFFFFFFFFFFFFFFFFF AND PUSH1 0x40 MLOAD PUSH2 0x5C8C SWAP3 SWAP2 SWAP1 PUSH2 0x80C7 JUMP JUMPDEST PUSH1 0x40 MLOAD DUP1 SWAP2 SUB SWAP1 LOG1 DUP1 DUP1 PUSH2 0x5C9F SWAP1 PUSH2 0x8C5D JUMP JUMPDEST SWAP2 POP POP PUSH2 0x56E2 JUMP JUMPDEST POP POP JUMP JUMPDEST PUSH1 0x0 DUP1 DUP3 EXTCODESIZE SWAP1 POP PUSH1 0x0 DUP2 GT SWAP2 POP POP SWAP2 SWAP1 POP JUMP JUMPDEST PUSH1 0x0 DUP1 PUSH2 0x139 PUSH1 0x0 DUP5 DUP2 MSTORE PUSH1 0x20 ADD SWAP1 DUP2 MSTORE PUSH1 0x20 ADD PUSH1 0x0 KECCAK256 PUSH1 0x1 ADD SLOAD EQ ISZERO DUP1 ISZERO PUSH2 0x5CFD JUMPI POP PUSH2 0x139 PUSH1 0x0 DUP4 DUP2 MSTORE PUSH1 0x20 ADD SWAP1 DUP2 MSTORE PUSH1 0x20 ADD PUSH1 0x0 KECCAK256 PUSH1 0x1 ADD SLOAD TIMESTAMP GT JUMPDEST DUP1 ISZERO PUSH2 0x5D2D JUMPI POP PUSH2 0x131 SLOAD PUSH2 0x139 PUSH1 0x0 DUP5 DUP2 MSTORE PUSH1 0x20 ADD SWAP1 DUP2 MSTORE PUSH1 0x20 ADD PUSH1 0x0 KECCAK256 PUSH1 0x1 ADD SLOAD PUSH2 0x5D2A SWAP2 SWAP1 PUSH2 0x8A8B JUMP JUMPDEST TIMESTAMP LT JUMPDEST SWAP1 POP SWAP2 SWAP1 POP JUMP JUMPDEST PUSH2 0x5DB7 DUP5 PUSH4 0x23B872DD PUSH1 0xE0 SHL DUP6 DUP6 DUP6 PUSH1 0x40 MLOAD PUSH1 0x24 ADD PUSH2 0x5D55 SWAP4 SWAP3 SWAP2 SWAP1 PUSH2 0x80F0 JUMP JUMPDEST PUSH1 0x40 MLOAD PUSH1 0x20 DUP2 DUP4 SUB SUB DUP2 MSTORE SWAP1 PUSH1 0x40 MSTORE SWAP1 PUSH28 0xFFFFFFFFFFFFFFFFFFFFFFFFFFFFFFFFFFFFFFFFFFFFFFFFFFFFFFFF NOT AND PUSH1 0x20 DUP3 ADD DUP1 MLOAD PUSH28 0xFFFFFFFFFFFFFFFFFFFFFFFFFFFFFFFFFFFFFFFFFFFFFFFFFFFFFFFF DUP4 DUP2 DUP4 AND OR DUP4 MSTORE POP POP POP POP PUSH2 0x680F JUMP JUMPDEST POP POP POP POP JUMP JUMPDEST PUSH2 0x5DC5 PUSH2 0x6442 JUMP JUMPDEST PUSH20 0xFFFFFFFFFFFFFFFFFFFFFFFFFFFFFFFFFFFFFFFF AND PUSH2 0x5DE3 PUSH2 0x4388 JUMP JUMPDEST PUSH20 0xFFFFFFFFFFFFFFFFFFFFFFFFFFFFFFFFFFFFFFFF AND EQ PUSH2 0x5E39 JUMPI PUSH1 0x40 MLOAD PUSH32 0x8C379A000000000000000000000000000000000000000000000000000000000 DUP2 MSTORE PUSH1 0x4 ADD PUSH2 0x5E30 SWAP1 PUSH2 0x853B JUMP JUMPDEST PUSH1 0x40 MLOAD DUP1 SWAP2 SUB SWAP1 REVERT JUMPDEST POP JUMP JUMPDEST PUSH1 0x0 PUSH2 0x5E46 PUSH2 0x68D6 JUMP JUMPDEST SWAP1 POP PUSH2 0x5E51 DUP5 PUSH2 0x692D JUMP JUMPDEST PUSH1 0x0 DUP4 MLOAD GT DUP1 PUSH2 0x5E5E JUMPI POP DUP2 JUMPDEST ISZERO PUSH2 0x5E6F JUMPI PUSH2 0x5E6D DUP5 DUP5 PUSH2 0x69E6 JUMP JUMPDEST POP JUMPDEST PUSH1 0x0 PUSH2 0x5E9D PUSH32 0x4910FDFA16FED3260ED0E7147F7CC6DA11A60208B5B9406D12A635614FFD9143 PUSH1 0x0 SHL PUSH2 0x6ACA JUMP JUMPDEST SWAP1 POP DUP1 PUSH1 0x0 ADD PUSH1 0x0 SWAP1 SLOAD SWAP1 PUSH2 0x100 EXP SWAP1 DIV PUSH1 0xFF AND PUSH2 0x6006 JUMPI PUSH1 0x1 DUP2 PUSH1 0x0 ADD PUSH1 0x0 PUSH2 0x100 EXP DUP2 SLOAD DUP2 PUSH1 0xFF MUL NOT AND SWAP1 DUP4 ISZERO ISZERO MUL OR SWAP1 SSTORE POP PUSH2 0x5F69 DUP6 DUP4 PUSH1 0x40 MLOAD PUSH1 0x24 ADD PUSH2 0x5EE7 SWAP2 SWAP1 PUSH2 0x80AC JUMP JUMPDEST PUSH1 0x40 MLOAD PUSH1 0x20 DUP2 DUP4 SUB SUB DUP2 MSTORE SWAP1 PUSH1 0x40 MSTORE PUSH32 0x3659CFE600000000000000000000000000000000000000000000000000000000 PUSH28 0xFFFFFFFFFFFFFFFFFFFFFFFFFFFFFFFFFFFFFFFFFFFFFFFFFFFFFFFF NOT AND PUSH1 0x20 DUP3 ADD DUP1 MLOAD PUSH28 0xFFFFFFFFFFFFFFFFFFFFFFFFFFFFFFFFFFFFFFFFFFFFFFFFFFFFFFFF DUP4 DUP2 DUP4 AND OR DUP4 MSTORE POP POP POP POP PUSH2 0x69E6 JUMP JUMPDEST POP PUSH1 0x0 DUP2 PUSH1 0x0 ADD PUSH1 0x0 PUSH2 0x100 EXP DUP2 SLOAD DUP2 PUSH1 0xFF MUL NOT AND SWAP1 DUP4 ISZERO ISZERO MUL OR SWAP1 SSTORE POP PUSH2 0x5F8F PUSH2 0x68D6 JUMP JUMPDEST PUSH20 0xFFFFFFFFFFFFFFFFFFFFFFFFFFFFFFFFFFFFFFFF AND DUP3 PUSH20 0xFFFFFFFFFFFFFFFFFFFFFFFFFFFFFFFFFFFFFFFF AND EQ PUSH2 0x5FFC JUMPI PUSH1 0x40 MLOAD PUSH32 0x8C379A000000000000000000000000000000000000000000000000000000000 DUP2 MSTORE PUSH1 0x4 ADD PUSH2 0x5FF3 SWAP1 PUSH2 0x833B JUMP JUMPDEST PUSH1 0x40 MLOAD DUP1 SWAP2 SUB SWAP1 REVERT JUMPDEST PUSH2 0x6005 DUP6 PUSH2 0x6AD4 JUMP JUMPDEST JUMPDEST POP POP POP POP POP JUMP JUMPDEST PUSH2 0x6015 PUSH2 0x280E JUMP JUMPDEST PUSH2 0x6054 JUMPI PUSH1 0x40 MLOAD PUSH32 0x8C379A000000000000000000000000000000000000000000000000000000000 DUP2 MSTORE PUSH1 0x4 ADD PUSH2 0x604B SWAP1 PUSH2 0x82BB JUMP JUMPDEST PUSH1 0x40 MLOAD DUP1 SWAP2 SUB SWAP1 REVERT JUMPDEST PUSH1 0x0 PUSH1 0x65 PUSH1 0x0 PUSH2 0x100 EXP DUP2 SLOAD DUP2 PUSH1 0xFF MUL NOT AND SWAP1 DUP4 ISZERO ISZERO MUL OR SWAP1 SSTORE POP PUSH32 0x5DB9EE0A495BF2E6FF9C91A7834C1BA4FDD244A5E8AA4E537BD38AEAE4B073AA PUSH2 0x6098 PUSH2 0x6442 JUMP JUMPDEST PUSH1 0x40 MLOAD PUSH2 0x60A5 SWAP2 SWAP1 PUSH2 0x80AC JUMP JUMPDEST PUSH1 0x40 MLOAD DUP1 SWAP2 SUB SWAP1 LOG1 JUMP JUMPDEST PUSH1 0x0 PUSH2 0x139 PUSH1 0x0 PUSH1 0x1 DUP5 PUSH2 0x60C3 SWAP2 SWAP1 PUSH2 0x8AE1 JUMP JUMPDEST DUP2 MSTORE PUSH1 0x20 ADD SWAP1 DUP2 MSTORE PUSH1 0x20 ADD PUSH1 0x0 KECCAK256 PUSH1 0x2 ADD SLOAD EQ ISZERO PUSH2 0x6116 JUMPI PUSH1 0x40 MLOAD PUSH32 0x8C379A000000000000000000000000000000000000000000000000000000000 DUP2 MSTORE PUSH1 0x4 ADD PUSH2 0x610D SWAP1 PUSH2 0x84FB JUMP JUMPDEST PUSH1 0x40 MLOAD DUP1 SWAP2 SUB SWAP1 REVERT JUMPDEST PUSH2 0x139 PUSH1 0x0 PUSH1 0x1 DUP4 PUSH2 0x6128 SWAP2 SWAP1 PUSH2 0x8AE1 JUMP JUMPDEST DUP2 MSTORE PUSH1 0x20 ADD SWAP1 DUP2 MSTORE PUSH1 0x20 ADD PUSH1 0x0 KECCAK256 PUSH1 0x2 ADD SLOAD TIMESTAMP LT ISZERO PUSH2 0x617C JUMPI PUSH1 0x40 MLOAD PUSH32 0x8C379A000000000000000000000000000000000000000000000000000000000 DUP2 MSTORE PUSH1 0x4 ADD PUSH2 0x6173 SWAP1 PUSH2 0x859B JUMP JUMPDEST PUSH1 0x40 MLOAD DUP1 SWAP2 SUB SWAP1 REVERT JUMPDEST PUSH2 0x6185 DUP2 PUSH2 0x6188 JUMP JUMPDEST POP JUMP JUMPDEST PUSH1 0x0 PUSH2 0x139 PUSH1 0x0 DUP4 DUP2 MSTORE PUSH1 0x20 ADD SWAP1 DUP2 MSTORE PUSH1 0x20 ADD PUSH1 0x0 KECCAK256 SWAP1 POP TIMESTAMP DUP2 PUSH1 0x1 ADD DUP2 SWAP1 SSTORE POP PUSH2 0x130 SLOAD TIMESTAMP PUSH2 0x61B8 SWAP2 SWAP1 PUSH2 0x8A8B JUMP JUMPDEST DUP2 PUSH1 0x2 ADD DUP2 SWAP1 SSTORE POP DUP2 DUP2 PUSH1 0x0 ADD DUP2 SWAP1 SSTORE POP PUSH1 0x0 DUP2 PUSH1 0x3 ADD DUP2 SWAP1 SSTORE POP DUP2 PUSH32 0x939F42374AA9BF1D8D8CD56D8A9110CB040CD8DFEAE44080C6FCF2645E51B452 PUSH1 0x40 MLOAD PUSH1 0x40 MLOAD DUP1 SWAP2 SUB SWAP1 LOG2 POP POP JUMP JUMPDEST PUSH1 0x0 PUSH2 0x139 PUSH1 0x0 PUSH2 0x135 SLOAD DUP2 MSTORE PUSH1 0x20 ADD SWAP1 DUP2 MSTORE PUSH1 0x20 ADD PUSH1 0x0 KECCAK256 SWAP1 POP PUSH1 0x0 JUMPDEST PUSH2 0x13C DUP1 SLOAD SWAP1 POP DUP2 LT ISZERO PUSH2 0x63B8 JUMPI PUSH1 0x0 PUSH2 0x13C DUP3 DUP2 SLOAD DUP2 LT PUSH2 0x626D JUMPI PUSH32 0x4E487B7100000000000000000000000000000000000000000000000000000000 PUSH1 0x0 MSTORE PUSH1 0x32 PUSH1 0x4 MSTORE PUSH1 0x24 PUSH1 0x0 REVERT JUMPDEST SWAP1 PUSH1 0x0 MSTORE PUSH1 0x20 PUSH1 0x0 KECCAK256 ADD PUSH1 0x0 SWAP1 SLOAD SWAP1 PUSH2 0x100 EXP SWAP1 DIV PUSH20 0xFFFFFFFFFFFFFFFFFFFFFFFFFFFFFFFFFFFFFFFF AND SWAP1 POP PUSH1 0x0 DUP1 PUSH2 0x6306 PUSH2 0x13B PUSH1 0x0 DUP6 PUSH20 0xFFFFFFFFFFFFFFFFFFFFFFFFFFFFFFFFFFFFFFFF AND PUSH20 0xFFFFFFFFFFFFFFFFFFFFFFFFFFFFFFFFFFFFFFFF AND DUP2 MSTORE PUSH1 0x20 ADD SWAP1 DUP2 MSTORE PUSH1 0x20 ADD PUSH1 0x0 KECCAK256 PUSH1 0x0 SWAP1 SLOAD SWAP1 PUSH2 0x100 EXP SWAP1 DIV PUSH20 0xFFFFFFFFFFFFFFFFFFFFFFFFFFFFFFFFFFFFFFFF AND PUSH2 0x6B23 JUMP JUMPDEST SWAP2 POP SWAP2 POP DUP1 DUP6 PUSH1 0xA ADD PUSH1 0x0 DUP6 PUSH20 0xFFFFFFFFFFFFFFFFFFFFFFFFFFFFFFFFFFFFFFFF AND PUSH20 0xFFFFFFFFFFFFFFFFFFFFFFFFFFFFFFFFFFFFFFFF AND DUP2 MSTORE PUSH1 0x20 ADD SWAP1 DUP2 MSTORE PUSH1 0x20 ADD PUSH1 0x0 KECCAK256 DUP2 SWAP1 SSTORE POP DUP2 PUSH10 0xFFFFFFFFFFFFFFFFFFFF AND DUP6 PUSH1 0x5 ADD PUSH1 0x0 DUP6 PUSH20 0xFFFFFFFFFFFFFFFFFFFFFFFFFFFFFFFFFFFFFFFF AND PUSH20 0xFFFFFFFFFFFFFFFFFFFFFFFFFFFFFFFFFFFFFFFF AND DUP2 MSTORE PUSH1 0x20 ADD SWAP1 DUP2 MSTORE PUSH1 0x20 ADD PUSH1 0x0 KECCAK256 DUP2 SWAP1 SSTORE POP POP POP POP DUP1 DUP1 PUSH2 0x63B0 SWAP1 PUSH2 0x8C5D JUMP JUMPDEST SWAP2 POP POP PUSH2 0x6222 JUMP JUMPDEST POP POP JUMP JUMPDEST PUSH2 0x643D DUP4 PUSH4 0xA9059CBB PUSH1 0xE0 SHL DUP5 DUP5 PUSH1 0x40 MLOAD PUSH1 0x24 ADD PUSH2 0x63DB SWAP3 SWAP2 SWAP1 PUSH2 0x8127 JUMP JUMPDEST PUSH1 0x40 MLOAD PUSH1 0x20 DUP2 DUP4 SUB SUB DUP2 MSTORE SWAP1 PUSH1 0x40 MSTORE SWAP1 PUSH28 0xFFFFFFFFFFFFFFFFFFFFFFFFFFFFFFFFFFFFFFFFFFFFFFFFFFFFFFFF NOT AND PUSH1 0x20 DUP3 ADD DUP1 MLOAD PUSH28 0xFFFFFFFFFFFFFFFFFFFFFFFFFFFFFFFFFFFFFFFFFFFFFFFFFFFFFFFF DUP4 DUP2 DUP4 AND OR DUP4 MSTORE POP POP POP POP PUSH2 0x680F JUMP JUMPDEST POP POP POP JUMP JUMPDEST PUSH1 0x0 CALLER SWAP1 POP SWAP1 JUMP JUMPDEST PUSH1 0x0 PUSH1 0x33 PUSH1 0x0 SWAP1 SLOAD SWAP1 PUSH2 0x100 EXP SWAP1 DIV PUSH20 0xFFFFFFFFFFFFFFFFFFFFFFFFFFFFFFFFFFFFFFFF AND SWAP1 POP DUP2 PUSH1 0x33 PUSH1 0x0 PUSH2 0x100 EXP DUP2 SLOAD DUP2 PUSH20 0xFFFFFFFFFFFFFFFFFFFFFFFFFFFFFFFFFFFFFFFF MUL NOT AND SWAP1 DUP4 PUSH20 0xFFFFFFFFFFFFFFFFFFFFFFFFFFFFFFFFFFFFFFFF AND MUL OR SWAP1 SSTORE POP DUP2 PUSH20 0xFFFFFFFFFFFFFFFFFFFFFFFFFFFFFFFFFFFFFFFF AND DUP2 PUSH20 0xFFFFFFFFFFFFFFFFFFFFFFFFFFFFFFFFFFFFFFFF AND PUSH32 0x8BE0079C531659141344CD1FD0A4F28419497F9722A3DAAFE3B4186F6B6457E0 PUSH1 0x40 MLOAD PUSH1 0x40 MLOAD DUP1 SWAP2 SUB SWAP1 LOG3 POP POP JUMP JUMPDEST PUSH1 0x0 PUSH2 0x139 PUSH1 0x0 PUSH2 0x135 SLOAD DUP2 MSTORE PUSH1 0x20 ADD SWAP1 DUP2 MSTORE PUSH1 0x20 ADD PUSH1 0x0 KECCAK256 PUSH1 0x1 ADD SLOAD EQ ISZERO PUSH2 0x656E JUMPI PUSH1 0x40 MLOAD PUSH32 0x8C379A000000000000000000000000000000000000000000000000000000000 DUP2 MSTORE PUSH1 0x4 ADD PUSH2 0x6565 SWAP1 PUSH2 0x831B JUMP JUMPDEST PUSH1 0x40 MLOAD DUP1 SWAP2 SUB SWAP1 REVERT JUMPDEST PUSH2 0x139 PUSH1 0x0 PUSH2 0x135 SLOAD DUP2 MSTORE PUSH1 0x20 ADD SWAP1 DUP2 MSTORE PUSH1 0x20 ADD PUSH1 0x0 KECCAK256 PUSH1 0x2 ADD SLOAD TIMESTAMP LT ISZERO PUSH2 0x65CB JUMPI PUSH1 0x40 MLOAD PUSH32 0x8C379A000000000000000000000000000000000000000000000000000000000 DUP2 MSTORE PUSH1 0x4 ADD PUSH2 0x65C2 SWAP1 PUSH2 0x83FB JUMP JUMPDEST PUSH1 0x40 MLOAD DUP1 SWAP2 SUB SWAP1 REVERT JUMPDEST PUSH2 0x12F SLOAD PUSH2 0x139 PUSH1 0x0 PUSH2 0x135 SLOAD DUP2 MSTORE PUSH1 0x20 ADD SWAP1 DUP2 MSTORE PUSH1 0x20 ADD PUSH1 0x0 KECCAK256 PUSH1 0x2 ADD SLOAD PUSH2 0x65F4 SWAP2 SWAP1 PUSH2 0x8A8B JUMP JUMPDEST TIMESTAMP GT ISZERO PUSH2 0x6636 JUMPI PUSH1 0x40 MLOAD PUSH32 0x8C379A000000000000000000000000000000000000000000000000000000000 DUP2 MSTORE PUSH1 0x4 ADD PUSH2 0x662D SWAP1 PUSH2 0x865B JUMP JUMPDEST PUSH1 0x40 MLOAD DUP1 SWAP2 SUB SWAP1 REVERT JUMPDEST PUSH1 0x0 PUSH2 0x139 PUSH1 0x0 PUSH2 0x135 SLOAD DUP2 MSTORE PUSH1 0x20 ADD SWAP1 DUP2 MSTORE PUSH1 0x20 ADD PUSH1 0x0 KECCAK256 SWAP1 POP TIMESTAMP DUP2 PUSH1 0x2 ADD DUP2 SWAP1 SSTORE POP PUSH2 0x6663 DUP2 PUSH2 0x6C67 JUMP JUMPDEST PUSH1 0x1 DUP2 PUSH1 0x4 ADD PUSH1 0x0 PUSH2 0x100 EXP DUP2 SLOAD DUP2 PUSH1 0xFF MUL NOT AND SWAP1 DUP4 ISZERO ISZERO MUL OR SWAP1 SSTORE POP POP JUMP JUMPDEST PUSH2 0x668B PUSH2 0x280E JUMP JUMPDEST ISZERO PUSH2 0x66CB JUMPI PUSH1 0x40 MLOAD PUSH32 0x8C379A000000000000000000000000000000000000000000000000000000000 DUP2 MSTORE PUSH1 0x4 ADD PUSH2 0x66C2 SWAP1 PUSH2 0x847B JUMP JUMPDEST PUSH1 0x40 MLOAD DUP1 SWAP2 SUB SWAP1 REVERT JUMPDEST PUSH1 0x1 PUSH1 0x65 PUSH1 0x0 PUSH2 0x100 EXP DUP2 SLOAD DUP2 PUSH1 0xFF MUL NOT AND SWAP1 DUP4 ISZERO ISZERO MUL OR SWAP1 SSTORE POP PUSH32 0x62E78CEA01BEE320CD4E420270B5EA74000D11B0C9F74754EBDBFC544B05A258 PUSH2 0x670F PUSH2 0x6442 JUMP JUMPDEST PUSH1 0x40 MLOAD PUSH2 0x671C SWAP2 SWAP1 PUSH2 0x80AC JUMP JUMPDEST PUSH1 0x40 MLOAD DUP1 SWAP2 SUB SWAP1 LOG1 JUMP JUMPDEST PUSH1 0x0 PUSH1 0x1 SWAP1 SLOAD SWAP1 PUSH2 0x100 EXP SWAP1 DIV PUSH1 0xFF AND DUP1 PUSH2 0x674C JUMPI POP PUSH1 0x0 DUP1 SLOAD SWAP1 PUSH2 0x100 EXP SWAP1 DIV PUSH1 0xFF AND ISZERO JUMPDEST PUSH2 0x678B JUMPI PUSH1 0x40 MLOAD PUSH32 0x8C379A000000000000000000000000000000000000000000000000000000000 DUP2 MSTORE PUSH1 0x4 ADD PUSH2 0x6782 SWAP1 PUSH2 0x84BB JUMP JUMPDEST PUSH1 0x40 MLOAD DUP1 SWAP2 SUB SWAP1 REVERT JUMPDEST PUSH1 0x0 DUP1 PUSH1 0x1 SWAP1 SLOAD SWAP1 PUSH2 0x100 EXP SWAP1 DIV PUSH1 0xFF AND ISZERO SWAP1 POP DUP1 ISZERO PUSH2 0x67DB JUMPI PUSH1 0x1 PUSH1 0x0 PUSH1 0x1 PUSH2 0x100 EXP DUP2 SLOAD DUP2 PUSH1 0xFF MUL NOT AND SWAP1 DUP4 ISZERO ISZERO MUL OR SWAP1 SSTORE POP PUSH1 0x1 PUSH1 0x0 DUP1 PUSH2 0x100 EXP DUP2 SLOAD DUP2 PUSH1 0xFF MUL NOT AND SWAP1 DUP4 ISZERO ISZERO MUL OR SWAP1 SSTORE POP JUMPDEST PUSH2 0x67E3 PUSH2 0x6E04 JUMP JUMPDEST PUSH2 0x67EB PUSH2 0x6EDD JUMP JUMPDEST DUP1 ISZERO PUSH2 0x680C JUMPI PUSH1 0x0 DUP1 PUSH1 0x1 PUSH2 0x100 EXP DUP2 SLOAD DUP2 PUSH1 0xFF MUL NOT AND SWAP1 DUP4 ISZERO ISZERO MUL OR SWAP1 SSTORE POP JUMPDEST POP JUMP JUMPDEST PUSH1 0x0 PUSH2 0x6871 DUP3 PUSH1 0x40 MLOAD DUP1 PUSH1 0x40 ADD PUSH1 0x40 MSTORE DUP1 PUSH1 0x20 DUP2 MSTORE PUSH1 0x20 ADD PUSH32 0x5361666545524332303A206C6F772D6C6576656C2063616C6C206661696C6564 DUP2 MSTORE POP DUP6 PUSH20 0xFFFFFFFFFFFFFFFFFFFFFFFFFFFFFFFFFFFFFFFF AND PUSH2 0x6FC6 SWAP1 SWAP3 SWAP2 SWAP1 PUSH4 0xFFFFFFFF AND JUMP JUMPDEST SWAP1 POP PUSH1 0x0 DUP2 MLOAD GT ISZERO PUSH2 0x68D1 JUMPI DUP1 DUP1 PUSH1 0x20 ADD SWAP1 MLOAD DUP2 ADD SWAP1 PUSH2 0x6891 SWAP2 SWAP1 PUSH2 0x76F6 JUMP JUMPDEST PUSH2 0x68D0 JUMPI PUSH1 0x40 MLOAD PUSH32 0x8C379A000000000000000000000000000000000000000000000000000000000 DUP2 MSTORE PUSH1 0x4 ADD PUSH2 0x68C7 SWAP1 PUSH2 0x863B JUMP JUMPDEST PUSH1 0x40 MLOAD DUP1 SWAP2 SUB SWAP1 REVERT JUMPDEST JUMPDEST POP POP POP JUMP JUMPDEST PUSH1 0x0 PUSH2 0x6904 PUSH32 0x360894A13BA1A3210667C828492DB98DCA3E2076CC3735A920A3CA505D382BBC PUSH1 0x0 SHL PUSH2 0x6FDE JUMP JUMPDEST PUSH1 0x0 ADD PUSH1 0x0 SWAP1 SLOAD SWAP1 PUSH2 0x100 EXP SWAP1 DIV PUSH20 0xFFFFFFFFFFFFFFFFFFFFFFFFFFFFFFFFFFFFFFFF AND SWAP1 POP SWAP1 JUMP JUMPDEST PUSH2 0x6936 DUP2 PUSH2 0x6FE8 JUMP JUMPDEST PUSH2 0x6975 JUMPI PUSH1 0x40 MLOAD PUSH32 0x8C379A000000000000000000000000000000000000000000000000000000000 DUP2 MSTORE PUSH1 0x4 ADD PUSH2 0x696C SWAP1 PUSH2 0x851B JUMP JUMPDEST PUSH1 0x40 MLOAD DUP1 SWAP2 SUB SWAP1 REVERT JUMPDEST DUP1 PUSH2 0x69A2 PUSH32 0x360894A13BA1A3210667C828492DB98DCA3E2076CC3735A920A3CA505D382BBC PUSH1 0x0 SHL PUSH2 0x6FDE JUMP JUMPDEST PUSH1 0x0 ADD PUSH1 0x0 PUSH2 0x100 EXP DUP2 SLOAD DUP2 PUSH20 0xFFFFFFFFFFFFFFFFFFFFFFFFFFFFFFFFFFFFFFFF MUL NOT AND SWAP1 DUP4 PUSH20 0xFFFFFFFFFFFFFFFFFFFFFFFFFFFFFFFFFFFFFFFF AND MUL OR SWAP1 SSTORE POP POP JUMP JUMPDEST PUSH1 0x60 PUSH2 0x69F1 DUP4 PUSH2 0x6FE8 JUMP JUMPDEST PUSH2 0x6A30 JUMPI PUSH1 0x40 MLOAD PUSH32 0x8C379A000000000000000000000000000000000000000000000000000000000 DUP2 MSTORE PUSH1 0x4 ADD PUSH2 0x6A27 SWAP1 PUSH2 0x85BB JUMP JUMPDEST PUSH1 0x40 MLOAD DUP1 SWAP2 SUB SWAP1 REVERT JUMPDEST PUSH1 0x0 DUP1 DUP5 PUSH20 0xFFFFFFFFFFFFFFFFFFFFFFFFFFFFFFFFFFFFFFFF AND DUP5 PUSH1 0x40 MLOAD PUSH2 0x6A58 SWAP2 SWAP1 PUSH2 0x8095 JUMP JUMPDEST PUSH1 0x0 PUSH1 0x40 MLOAD DUP1 DUP4 SUB DUP2 DUP6 GAS DELEGATECALL SWAP2 POP POP RETURNDATASIZE DUP1 PUSH1 0x0 DUP2 EQ PUSH2 0x6A93 JUMPI PUSH1 0x40 MLOAD SWAP2 POP PUSH1 0x1F NOT PUSH1 0x3F RETURNDATASIZE ADD AND DUP3 ADD PUSH1 0x40 MSTORE RETURNDATASIZE DUP3 MSTORE RETURNDATASIZE PUSH1 0x0 PUSH1 0x20 DUP5 ADD RETURNDATACOPY PUSH2 0x6A98 JUMP JUMPDEST PUSH1 0x60 SWAP2 POP JUMPDEST POP SWAP2 POP SWAP2 POP PUSH2 0x6AC0 DUP3 DUP3 PUSH1 0x40 MLOAD DUP1 PUSH1 0x60 ADD PUSH1 0x40 MSTORE DUP1 PUSH1 0x27 DUP2 MSTORE PUSH1 0x20 ADD PUSH2 0x95CD PUSH1 0x27 SWAP2 CODECOPY PUSH2 0x6FFB JUMP JUMPDEST SWAP3 POP POP POP SWAP3 SWAP2 POP POP JUMP JUMPDEST PUSH1 0x0 DUP2 SWAP1 POP SWAP2 SWAP1 POP JUMP JUMPDEST PUSH2 0x6ADD DUP2 PUSH2 0x692D JUMP JUMPDEST DUP1 PUSH20 0xFFFFFFFFFFFFFFFFFFFFFFFFFFFFFFFFFFFFFFFF AND PUSH32 0xBC7CD75A20EE27FD9ADEBAB32041F755214DBC6BFFA90CC0225B39DA2E5C2D3B PUSH1 0x40 MLOAD PUSH1 0x40 MLOAD DUP1 SWAP2 SUB SWAP1 LOG2 POP JUMP JUMPDEST PUSH1 0x0 DUP1 PUSH1 0x0 PUSH2 0x137 SLOAD TIMESTAMP PUSH2 0x6B37 SWAP2 SWAP1 PUSH2 0x8A8B JUMP JUMPDEST SWAP1 POP PUSH1 0x0 DUP1 PUSH1 0x0 DUP7 PUSH20 0xFFFFFFFFFFFFFFFFFFFFFFFFFFFFFFFFFFFFFFFF AND PUSH4 0xFEAF968C PUSH1 0x40 MLOAD DUP2 PUSH4 0xFFFFFFFF AND PUSH1 0xE0 SHL DUP2 MSTORE PUSH1 0x4 ADD PUSH1 0xA0 PUSH1 0x40 MLOAD DUP1 DUP4 SUB DUP2 DUP7 DUP1 EXTCODESIZE ISZERO DUP1 ISZERO PUSH2 0x6B84 JUMPI PUSH1 0x0 DUP1 REVERT JUMPDEST POP GAS STATICCALL ISZERO DUP1 ISZERO PUSH2 0x6B98 JUMPI RETURNDATASIZE PUSH1 0x0 DUP1 RETURNDATACOPY RETURNDATASIZE PUSH1 0x0 REVERT JUMPDEST POP POP POP POP PUSH1 0x40 MLOAD RETURNDATASIZE PUSH1 0x1F NOT PUSH1 0x1F DUP3 ADD AND DUP3 ADD DUP1 PUSH1 0x40 MSTORE POP DUP2 ADD SWAP1 PUSH2 0x6BBC SWAP2 SWAP1 PUSH2 0x77D3 JUMP JUMPDEST POP SWAP4 POP POP SWAP3 POP SWAP3 POP DUP4 DUP2 GT ISZERO PUSH2 0x6C07 JUMPI PUSH1 0x40 MLOAD PUSH32 0x8C379A000000000000000000000000000000000000000000000000000000000 DUP2 MSTORE PUSH1 0x4 ADD PUSH2 0x6BFE SWAP1 PUSH2 0x86BB JUMP JUMPDEST PUSH1 0x40 MLOAD DUP1 SWAP2 SUB SWAP1 REVERT JUMPDEST PUSH2 0x136 SLOAD DUP4 PUSH10 0xFFFFFFFFFFFFFFFFFFFF AND GT PUSH2 0x6C58 JUMPI PUSH1 0x40 MLOAD PUSH32 0x8C379A000000000000000000000000000000000000000000000000000000000 DUP2 MSTORE PUSH1 0x4 ADD PUSH2 0x6C4F SWAP1 PUSH2 0x837B JUMP JUMPDEST PUSH1 0x40 MLOAD DUP1 SWAP2 SUB SWAP1 REVERT JUMPDEST DUP3 DUP3 SWAP6 POP SWAP6 POP POP POP POP POP SWAP2 POP SWAP2 JUMP JUMPDEST PUSH1 0x0 JUMPDEST PUSH2 0x13C DUP1 SLOAD SWAP1 POP DUP2 LT ISZERO PUSH2 0x6E00 JUMPI PUSH1 0x0 PUSH2 0x13C DUP3 DUP2 SLOAD DUP2 LT PUSH2 0x6CB5 JUMPI PUSH32 0x4E487B7100000000000000000000000000000000000000000000000000000000 PUSH1 0x0 MSTORE PUSH1 0x32 PUSH1 0x4 MSTORE PUSH1 0x24 PUSH1 0x0 REVERT JUMPDEST SWAP1 PUSH1 0x0 MSTORE PUSH1 0x20 PUSH1 0x0 KECCAK256 ADD PUSH1 0x0 SWAP1 SLOAD SWAP1 PUSH2 0x100 EXP SWAP1 DIV PUSH20 0xFFFFFFFFFFFFFFFFFFFFFFFFFFFFFFFFFFFFFFFF AND SWAP1 POP PUSH1 0x0 DUP1 PUSH2 0x6D4E PUSH2 0x13B PUSH1 0x0 DUP6 PUSH20 0xFFFFFFFFFFFFFFFFFFFFFFFFFFFFFFFFFFFFFFFF AND PUSH20 0xFFFFFFFFFFFFFFFFFFFFFFFFFFFFFFFFFFFFFFFF AND DUP2 MSTORE PUSH1 0x20 ADD SWAP1 DUP2 MSTORE PUSH1 0x20 ADD PUSH1 0x0 KECCAK256 PUSH1 0x0 SWAP1 SLOAD SWAP1 PUSH2 0x100 EXP SWAP1 DIV PUSH20 0xFFFFFFFFFFFFFFFFFFFFFFFFFFFFFFFFFFFFFFFF AND PUSH2 0x6B23 JUMP JUMPDEST SWAP2 POP SWAP2 POP DUP1 DUP6 PUSH1 0xB ADD PUSH1 0x0 DUP6 PUSH20 0xFFFFFFFFFFFFFFFFFFFFFFFFFFFFFFFFFFFFFFFF AND PUSH20 0xFFFFFFFFFFFFFFFFFFFFFFFFFFFFFFFFFFFFFFFF AND DUP2 MSTORE PUSH1 0x20 ADD SWAP1 DUP2 MSTORE PUSH1 0x20 ADD PUSH1 0x0 KECCAK256 DUP2 SWAP1 SSTORE POP DUP2 PUSH10 0xFFFFFFFFFFFFFFFFFFFF AND DUP6 PUSH1 0x6 ADD PUSH1 0x0 DUP6 PUSH20 0xFFFFFFFFFFFFFFFFFFFFFFFFFFFFFFFFFFFFFFFF AND PUSH20 0xFFFFFFFFFFFFFFFFFFFFFFFFFFFFFFFFFFFFFFFF AND DUP2 MSTORE PUSH1 0x20 ADD SWAP1 DUP2 MSTORE PUSH1 0x20 ADD PUSH1 0x0 KECCAK256 DUP2 SWAP1 SSTORE POP POP POP POP DUP1 DUP1 PUSH2 0x6DF8 SWAP1 PUSH2 0x8C5D JUMP JUMPDEST SWAP2 POP POP PUSH2 0x6C6A JUMP JUMPDEST POP POP JUMP JUMPDEST PUSH1 0x0 PUSH1 0x1 SWAP1 SLOAD SWAP1 PUSH2 0x100 EXP SWAP1 DIV PUSH1 0xFF AND DUP1 PUSH2 0x6E2A JUMPI POP PUSH1 0x0 DUP1 SLOAD SWAP1 PUSH2 0x100 EXP SWAP1 DIV PUSH1 0xFF AND ISZERO JUMPDEST PUSH2 0x6E69 JUMPI PUSH1 0x40 MLOAD PUSH32 0x8C379A000000000000000000000000000000000000000000000000000000000 DUP2 MSTORE PUSH1 0x4 ADD PUSH2 0x6E60 SWAP1 PUSH2 0x84BB JUMP JUMPDEST PUSH1 0x40 MLOAD DUP1 SWAP2 SUB SWAP1 REVERT JUMPDEST PUSH1 0x0 DUP1 PUSH1 0x1 SWAP1 SLOAD SWAP1 PUSH2 0x100 EXP SWAP1 DIV PUSH1 0xFF AND ISZERO SWAP1 POP DUP1 ISZERO PUSH2 0x6EB9 JUMPI PUSH1 0x1 PUSH1 0x0 PUSH1 0x1 PUSH2 0x100 EXP DUP2 SLOAD DUP2 PUSH1 0xFF MUL NOT AND SWAP1 DUP4 ISZERO ISZERO MUL OR SWAP1 SSTORE POP PUSH1 0x1 PUSH1 0x0 DUP1 PUSH2 0x100 EXP DUP2 SLOAD DUP2 PUSH1 0xFF MUL NOT AND SWAP1 DUP4 ISZERO ISZERO MUL OR SWAP1 SSTORE POP JUMPDEST DUP1 ISZERO PUSH2 0x6EDA JUMPI PUSH1 0x0 DUP1 PUSH1 0x1 PUSH2 0x100 EXP DUP2 SLOAD DUP2 PUSH1 0xFF MUL NOT AND SWAP1 DUP4 ISZERO ISZERO MUL OR SWAP1 SSTORE POP JUMPDEST POP JUMP JUMPDEST PUSH1 0x0 PUSH1 0x1 SWAP1 SLOAD SWAP1 PUSH2 0x100 EXP SWAP1 DIV PUSH1 0xFF AND DUP1 PUSH2 0x6F03 JUMPI POP PUSH1 0x0 DUP1 SLOAD SWAP1 PUSH2 0x100 EXP SWAP1 DIV PUSH1 0xFF AND ISZERO JUMPDEST PUSH2 0x6F42 JUMPI PUSH1 0x40 MLOAD PUSH32 0x8C379A000000000000000000000000000000000000000000000000000000000 DUP2 MSTORE PUSH1 0x4 ADD PUSH2 0x6F39 SWAP1 PUSH2 0x84BB JUMP JUMPDEST PUSH1 0x40 MLOAD DUP1 SWAP2 SUB SWAP1 REVERT JUMPDEST PUSH1 0x0 DUP1 PUSH1 0x1 SWAP1 SLOAD SWAP1 PUSH2 0x100 EXP SWAP1 DIV PUSH1 0xFF AND ISZERO SWAP1 POP DUP1 ISZERO PUSH2 0x6F92 JUMPI PUSH1 0x1 PUSH1 0x0 PUSH1 0x1 PUSH2 0x100 EXP DUP2 SLOAD DUP2 PUSH1 0xFF MUL NOT AND SWAP1 DUP4 ISZERO ISZERO MUL OR SWAP1 SSTORE POP PUSH1 0x1 PUSH1 0x0 DUP1 PUSH2 0x100 EXP DUP2 SLOAD DUP2 PUSH1 0xFF MUL NOT AND SWAP1 DUP4 ISZERO ISZERO MUL OR SWAP1 SSTORE POP JUMPDEST PUSH2 0x6FA2 PUSH2 0x6F9D PUSH2 0x6442 JUMP JUMPDEST PUSH2 0x644A JUMP JUMPDEST DUP1 ISZERO PUSH2 0x6FC3 JUMPI PUSH1 0x0 DUP1 PUSH1 0x1 PUSH2 0x100 EXP DUP2 SLOAD DUP2 PUSH1 0xFF MUL NOT AND SWAP1 DUP4 ISZERO ISZERO MUL OR SWAP1 SSTORE POP JUMPDEST POP JUMP JUMPDEST PUSH1 0x60 PUSH2 0x6FD5 DUP5 DUP5 PUSH1 0x0 DUP6 PUSH2 0x7062 JUMP JUMPDEST SWAP1 POP SWAP4 SWAP3 POP POP POP JUMP JUMPDEST PUSH1 0x0 DUP2 SWAP1 POP SWAP2 SWAP1 POP JUMP JUMPDEST PUSH1 0x0 DUP1 DUP3 EXTCODESIZE SWAP1 POP PUSH1 0x0 DUP2 GT SWAP2 POP POP SWAP2 SWAP1 POP JUMP JUMPDEST PUSH1 0x60 DUP4 ISZERO PUSH2 0x700B JUMPI DUP3 SWAP1 POP PUSH2 0x705B JUMP JUMPDEST PUSH1 0x0 DUP4 MLOAD GT ISZERO PUSH2 0x701E JUMPI DUP3 MLOAD DUP1 DUP5 PUSH1 0x20 ADD REVERT JUMPDEST DUP2 PUSH1 0x40 MLOAD PUSH32 0x8C379A000000000000000000000000000000000000000000000000000000000 DUP2 MSTORE PUSH1 0x4 ADD PUSH2 0x7052 SWAP2 SWAP1 PUSH2 0x8299 JUMP JUMPDEST PUSH1 0x40 MLOAD DUP1 SWAP2 SUB SWAP1 REVERT JUMPDEST SWAP4 SWAP3 POP POP POP JUMP JUMPDEST PUSH1 0x60 DUP3 SELFBALANCE LT ISZERO PUSH2 0x70A7 JUMPI PUSH1 0x40 MLOAD PUSH32 0x8C379A000000000000000000000000000000000000000000000000000000000 DUP2 MSTORE PUSH1 0x4 ADD PUSH2 0x709E SWAP1 PUSH2 0x845B JUMP JUMPDEST PUSH1 0x40 MLOAD DUP1 SWAP2 SUB SWAP1 REVERT JUMPDEST PUSH2 0x70B0 DUP6 PUSH2 0x6FE8 JUMP JUMPDEST PUSH2 0x70EF JUMPI PUSH1 0x40 MLOAD PUSH32 0x8C379A000000000000000000000000000000000000000000000000000000000 DUP2 MSTORE PUSH1 0x4 ADD PUSH2 0x70E6 SWAP1 PUSH2 0x85DB JUMP JUMPDEST PUSH1 0x40 MLOAD DUP1 SWAP2 SUB SWAP1 REVERT JUMPDEST PUSH1 0x0 DUP1 DUP7 PUSH20 0xFFFFFFFFFFFFFFFFFFFFFFFFFFFFFFFFFFFFFFFF AND DUP6 DUP8 PUSH1 0x40 MLOAD PUSH2 0x7118 SWAP2 SWAP1 PUSH2 0x8095 JUMP JUMPDEST PUSH1 0x0 PUSH1 0x40 MLOAD DUP1 DUP4 SUB DUP2 DUP6 DUP8 GAS CALL SWAP3 POP POP POP RETURNDATASIZE DUP1 PUSH1 0x0 DUP2 EQ PUSH2 0x7155 JUMPI PUSH1 0x40 MLOAD SWAP2 POP PUSH1 0x1F NOT PUSH1 0x3F RETURNDATASIZE ADD AND DUP3 ADD PUSH1 0x40 MSTORE RETURNDATASIZE DUP3 MSTORE RETURNDATASIZE PUSH1 0x0 PUSH1 0x20 DUP5 ADD RETURNDATACOPY PUSH2 0x715A JUMP JUMPDEST PUSH1 0x60 SWAP2 POP JUMPDEST POP SWAP2 POP SWAP2 POP PUSH2 0x716A DUP3 DUP3 DUP7 PUSH2 0x6FFB JUMP JUMPDEST SWAP3 POP POP POP SWAP5 SWAP4 POP POP POP POP JUMP JUMPDEST PUSH1 0x40 MLOAD DUP1 PUSH1 0x80 ADD PUSH1 0x40 MSTORE DUP1 PUSH1 0x0 PUSH1 0x1 DUP2 GT ISZERO PUSH2 0x71BB JUMPI PUSH32 0x4E487B7100000000000000000000000000000000000000000000000000000000 PUSH1 0x0 MSTORE PUSH1 0x21 PUSH1 0x4 MSTORE PUSH1 0x24 PUSH1 0x0 REVERT JUMPDEST DUP2 MSTORE PUSH1 0x20 ADD PUSH1 0x0 PUSH20 0xFFFFFFFFFFFFFFFFFFFFFFFFFFFFFFFFFFFFFFFF AND DUP2 MSTORE PUSH1 0x20 ADD PUSH1 0x0 DUP2 MSTORE PUSH1 0x20 ADD PUSH1 0x0 ISZERO ISZERO DUP2 MSTORE POP SWAP1 JUMP JUMPDEST PUSH1 0x0 PUSH2 0x7201 PUSH2 0x71FC DUP5 PUSH2 0x88EC JUMP JUMPDEST PUSH2 0x88C7 JUMP JUMPDEST SWAP1 POP DUP1 DUP4 DUP3 MSTORE PUSH1 0x20 DUP3 ADD SWAP1 POP DUP3 DUP6 PUSH1 0x20 DUP7 MUL DUP3 ADD GT ISZERO PUSH2 0x7220 JUMPI PUSH1 0x0 DUP1 REVERT JUMPDEST PUSH1 0x0 JUMPDEST DUP6 DUP2 LT ISZERO PUSH2 0x7250 JUMPI DUP2 PUSH2 0x7236 DUP9 DUP3 PUSH2 0x7304 JUMP JUMPDEST DUP5 MSTORE PUSH1 0x20 DUP5 ADD SWAP4 POP PUSH1 0x20 DUP4 ADD SWAP3 POP POP PUSH1 0x1 DUP2 ADD SWAP1 POP PUSH2 0x7223 JUMP JUMPDEST POP POP POP SWAP4 SWAP3 POP POP POP JUMP JUMPDEST PUSH1 0x0 PUSH2 0x726D PUSH2 0x7268 DUP5 PUSH2 0x8918 JUMP JUMPDEST PUSH2 0x88C7 JUMP JUMPDEST SWAP1 POP DUP1 DUP4 DUP3 MSTORE PUSH1 0x20 DUP3 ADD SWAP1 POP DUP3 DUP6 PUSH1 0x20 DUP7 MUL DUP3 ADD GT ISZERO PUSH2 0x728C JUMPI PUSH1 0x0 DUP1 REVERT JUMPDEST PUSH1 0x0 JUMPDEST DUP6 DUP2 LT ISZERO PUSH2 0x72BC JUMPI DUP2 PUSH2 0x72A2 DUP9 DUP3 PUSH2 0x740B JUMP JUMPDEST DUP5 MSTORE PUSH1 0x20 DUP5 ADD SWAP4 POP PUSH1 0x20 DUP4 ADD SWAP3 POP POP PUSH1 0x1 DUP2 ADD SWAP1 POP PUSH2 0x728F JUMP JUMPDEST POP POP POP SWAP4 SWAP3 POP POP POP JUMP JUMPDEST PUSH1 0x0 PUSH2 0x72D9 PUSH2 0x72D4 DUP5 PUSH2 0x8944 JUMP JUMPDEST PUSH2 0x88C7 JUMP JUMPDEST SWAP1 POP DUP3 DUP2 MSTORE PUSH1 0x20 DUP2 ADD DUP5 DUP5 DUP5 ADD GT ISZERO PUSH2 0x72F1 JUMPI PUSH1 0x0 DUP1 REVERT JUMPDEST PUSH2 0x72FC DUP5 DUP3 DUP6 PUSH2 0x8BEA JUMP JUMPDEST POP SWAP4 SWAP3 POP POP POP JUMP JUMPDEST PUSH1 0x0 DUP2 CALLDATALOAD SWAP1 POP PUSH2 0x7313 DUP2 PUSH2 0x9559 JUMP JUMPDEST SWAP3 SWAP2 POP POP JUMP JUMPDEST PUSH1 0x0 DUP3 PUSH1 0x1F DUP4 ADD SLT PUSH2 0x732A JUMPI PUSH1 0x0 DUP1 REVERT JUMPDEST DUP2 CALLDATALOAD PUSH2 0x733A DUP5 DUP3 PUSH1 0x20 DUP7 ADD PUSH2 0x71EE JUMP JUMPDEST SWAP2 POP POP SWAP3 SWAP2 POP POP JUMP JUMPDEST PUSH1 0x0 DUP1 DUP4 PUSH1 0x1F DUP5 ADD SLT PUSH2 0x7355 JUMPI PUSH1 0x0 DUP1 REVERT JUMPDEST DUP3 CALLDATALOAD SWAP1 POP PUSH8 0xFFFFFFFFFFFFFFFF DUP2 GT ISZERO PUSH2 0x736E JUMPI PUSH1 0x0 DUP1 REVERT JUMPDEST PUSH1 0x20 DUP4 ADD SWAP2 POP DUP4 PUSH1 0x20 DUP3 MUL DUP4 ADD GT ISZERO PUSH2 0x7386 JUMPI PUSH1 0x0 DUP1 REVERT JUMPDEST SWAP3 POP SWAP3 SWAP1 POP JUMP JUMPDEST PUSH1 0x0 DUP3 PUSH1 0x1F DUP4 ADD SLT PUSH2 0x739E JUMPI PUSH1 0x0 DUP1 REVERT JUMPDEST DUP2 CALLDATALOAD PUSH2 0x73AE DUP5 DUP3 PUSH1 0x20 DUP7 ADD PUSH2 0x725A JUMP JUMPDEST SWAP2 POP POP SWAP3 SWAP2 POP POP JUMP JUMPDEST PUSH1 0x0 DUP2 MLOAD SWAP1 POP PUSH2 0x73C6 DUP2 PUSH2 0x9570 JUMP JUMPDEST SWAP3 SWAP2 POP POP JUMP JUMPDEST PUSH1 0x0 DUP3 PUSH1 0x1F DUP4 ADD SLT PUSH2 0x73DD JUMPI PUSH1 0x0 DUP1 REVERT JUMPDEST DUP2 CALLDATALOAD PUSH2 0x73ED DUP5 DUP3 PUSH1 0x20 DUP7 ADD PUSH2 0x72C6 JUMP JUMPDEST SWAP2 POP POP SWAP3 SWAP2 POP POP JUMP JUMPDEST PUSH1 0x0 DUP2 MLOAD SWAP1 POP PUSH2 0x7405 DUP2 PUSH2 0x9587 JUMP JUMPDEST SWAP3 SWAP2 POP POP JUMP JUMPDEST PUSH1 0x0 DUP2 CALLDATALOAD SWAP1 POP PUSH2 0x741A DUP2 PUSH2 0x959E JUMP JUMPDEST SWAP3 SWAP2 POP POP JUMP JUMPDEST PUSH1 0x0 DUP2 MLOAD SWAP1 POP PUSH2 0x742F DUP2 PUSH2 0x959E JUMP JUMPDEST SWAP3 SWAP2 POP POP JUMP JUMPDEST PUSH1 0x0 DUP2 MLOAD SWAP1 POP PUSH2 0x7444 DUP2 PUSH2 0x95B5 JUMP JUMPDEST SWAP3 SWAP2 POP POP JUMP JUMPDEST PUSH1 0x0 PUSH1 0x20 DUP3 DUP5 SUB SLT ISZERO PUSH2 0x745C JUMPI PUSH1 0x0 DUP1 REVERT JUMPDEST PUSH1 0x0 PUSH2 0x746A DUP5 DUP3 DUP6 ADD PUSH2 0x7304 JUMP JUMPDEST SWAP2 POP POP SWAP3 SWAP2 POP POP JUMP JUMPDEST PUSH1 0x0 DUP1 PUSH1 0x0 DUP1 PUSH1 0x0 DUP1 PUSH1 0x0 DUP1 PUSH2 0x100 DUP10 DUP12 SUB SLT ISZERO PUSH2 0x7490 JUMPI PUSH1 0x0 DUP1 REVERT JUMPDEST PUSH1 0x0 PUSH2 0x749E DUP12 DUP3 DUP13 ADD PUSH2 0x7304 JUMP JUMPDEST SWAP9 POP POP PUSH1 0x20 PUSH2 0x74AF DUP12 DUP3 DUP13 ADD PUSH2 0x7304 JUMP JUMPDEST SWAP8 POP POP PUSH1 0x40 PUSH2 0x74C0 DUP12 DUP3 DUP13 ADD PUSH2 0x740B JUMP JUMPDEST SWAP7 POP POP PUSH1 0x60 PUSH2 0x74D1 DUP12 DUP3 DUP13 ADD PUSH2 0x740B JUMP JUMPDEST SWAP6 POP POP PUSH1 0x80 PUSH2 0x74E2 DUP12 DUP3 DUP13 ADD PUSH2 0x740B JUMP JUMPDEST SWAP5 POP POP PUSH1 0xA0 PUSH2 0x74F3 DUP12 DUP3 DUP13 ADD PUSH2 0x740B JUMP JUMPDEST SWAP4 POP POP PUSH1 0xC0 PUSH2 0x7504 DUP12 DUP3 DUP13 ADD PUSH2 0x740B JUMP JUMPDEST SWAP3 POP POP PUSH1 0xE0 PUSH2 0x7515 DUP12 DUP3 DUP13 ADD PUSH2 0x740B JUMP JUMPDEST SWAP2 POP POP SWAP3 SWAP6 SWAP9 POP SWAP3 SWAP6 SWAP9 SWAP1 SWAP4 SWAP7 POP JUMP JUMPDEST PUSH1 0x0 DUP1 PUSH1 0x40 DUP4 DUP6 SUB SLT ISZERO PUSH2 0x7538 JUMPI PUSH1 0x0 DUP1 REVERT JUMPDEST PUSH1 0x0 PUSH2 0x7546 DUP6 DUP3 DUP7 ADD PUSH2 0x7304 JUMP JUMPDEST SWAP3 POP POP PUSH1 0x20 DUP4 ADD CALLDATALOAD PUSH8 0xFFFFFFFFFFFFFFFF DUP2 GT ISZERO PUSH2 0x7563 JUMPI PUSH1 0x0 DUP1 REVERT JUMPDEST PUSH2 0x756F DUP6 DUP3 DUP7 ADD PUSH2 0x73CC JUMP JUMPDEST SWAP2 POP POP SWAP3 POP SWAP3 SWAP1 POP JUMP JUMPDEST PUSH1 0x0 DUP1 PUSH1 0x40 DUP4 DUP6 SUB SLT ISZERO PUSH2 0x758C JUMPI PUSH1 0x0 DUP1 REVERT JUMPDEST PUSH1 0x0 PUSH2 0x759A DUP6 DUP3 DUP7 ADD PUSH2 0x7304 JUMP JUMPDEST SWAP3 POP POP PUSH1 0x20 PUSH2 0x75AB DUP6 DUP3 DUP7 ADD PUSH2 0x740B JUMP JUMPDEST SWAP2 POP POP SWAP3 POP SWAP3 SWAP1 POP JUMP JUMPDEST PUSH1 0x0 DUP1 PUSH1 0x0 PUSH1 0x60 DUP5 DUP7 SUB SLT ISZERO PUSH2 0x75CA JUMPI PUSH1 0x0 DUP1 REVERT JUMPDEST PUSH1 0x0 PUSH2 0x75D8 DUP7 DUP3 DUP8 ADD PUSH2 0x7304 JUMP JUMPDEST SWAP4 POP POP PUSH1 0x20 PUSH2 0x75E9 DUP7 DUP3 DUP8 ADD PUSH2 0x740B JUMP JUMPDEST SWAP3 POP POP PUSH1 0x40 PUSH2 0x75FA DUP7 DUP3 DUP8 ADD PUSH2 0x740B JUMP JUMPDEST SWAP2 POP POP SWAP3 POP SWAP3 POP SWAP3 JUMP JUMPDEST PUSH1 0x0 DUP1 PUSH1 0x40 DUP4 DUP6 SUB SLT ISZERO PUSH2 0x7617 JUMPI PUSH1 0x0 DUP1 REVERT JUMPDEST PUSH1 0x0 DUP4 ADD CALLDATALOAD PUSH8 0xFFFFFFFFFFFFFFFF DUP2 GT ISZERO PUSH2 0x7631 JUMPI PUSH1 0x0 DUP1 REVERT JUMPDEST PUSH2 0x763D DUP6 DUP3 DUP7 ADD PUSH2 0x7319 JUMP JUMPDEST SWAP3 POP POP PUSH1 0x20 DUP4 ADD CALLDATALOAD PUSH8 0xFFFFFFFFFFFFFFFF DUP2 GT ISZERO PUSH2 0x765A JUMPI PUSH1 0x0 DUP1 REVERT JUMPDEST PUSH2 0x7666 DUP6 DUP3 DUP7 ADD PUSH2 0x7319 JUMP JUMPDEST SWAP2 POP POP SWAP3 POP SWAP3 SWAP1 POP JUMP JUMPDEST PUSH1 0x0 DUP1 PUSH1 0x20 DUP4 DUP6 SUB SLT ISZERO PUSH2 0x7683 JUMPI PUSH1 0x0 DUP1 REVERT JUMPDEST PUSH1 0x0 DUP4 ADD CALLDATALOAD PUSH8 0xFFFFFFFFFFFFFFFF DUP2 GT ISZERO PUSH2 0x769D JUMPI PUSH1 0x0 DUP1 REVERT JUMPDEST PUSH2 0x76A9 DUP6 DUP3 DUP7 ADD PUSH2 0x7343 JUMP JUMPDEST SWAP3 POP SWAP3 POP POP SWAP3 POP SWAP3 SWAP1 POP JUMP JUMPDEST PUSH1 0x0 PUSH1 0x20 DUP3 DUP5 SUB SLT ISZERO PUSH2 0x76C7 JUMPI PUSH1 0x0 DUP1 REVERT JUMPDEST PUSH1 0x0 DUP3 ADD CALLDATALOAD PUSH8 0xFFFFFFFFFFFFFFFF DUP2 GT ISZERO PUSH2 0x76E1 JUMPI PUSH1 0x0 DUP1 REVERT JUMPDEST PUSH2 0x76ED DUP5 DUP3 DUP6 ADD PUSH2 0x738D JUMP JUMPDEST SWAP2 POP POP SWAP3 SWAP2 POP POP JUMP JUMPDEST PUSH1 0x0 PUSH1 0x20 DUP3 DUP5 SUB SLT ISZERO PUSH2 0x7708 JUMPI PUSH1 0x0 DUP1 REVERT JUMPDEST PUSH1 0x0 PUSH2 0x7716 DUP5 DUP3 DUP6 ADD PUSH2 0x73B7 JUMP JUMPDEST SWAP2 POP POP SWAP3 SWAP2 POP POP JUMP JUMPDEST PUSH1 0x0 PUSH1 0x20 DUP3 DUP5 SUB SLT ISZERO PUSH2 0x7731 JUMPI PUSH1 0x0 DUP1 REVERT JUMPDEST PUSH1 0x0 PUSH2 0x773F DUP5 DUP3 DUP6 ADD PUSH2 0x740B JUMP JUMPDEST SWAP2 POP POP SWAP3 SWAP2 POP POP JUMP JUMPDEST PUSH1 0x0 DUP1 PUSH1 0x40 DUP4 DUP6 SUB SLT ISZERO PUSH2 0x775B JUMPI PUSH1 0x0 DUP1 REVERT JUMPDEST PUSH1 0x0 PUSH2 0x7769 DUP6 DUP3 DUP7 ADD PUSH2 0x740B JUMP JUMPDEST SWAP3 POP POP PUSH1 0x20 PUSH2 0x777A DUP6 DUP3 DUP7 ADD PUSH2 0x7304 JUMP JUMPDEST SWAP2 POP POP SWAP3 POP SWAP3 SWAP1 POP JUMP JUMPDEST PUSH1 0x0 DUP1 PUSH1 0x0 PUSH1 0x60 DUP5 DUP7 SUB SLT ISZERO PUSH2 0x7799 JUMPI PUSH1 0x0 DUP1 REVERT JUMPDEST PUSH1 0x0 PUSH2 0x77A7 DUP7 DUP3 DUP8 ADD PUSH2 0x740B JUMP JUMPDEST SWAP4 POP POP PUSH1 0x20 PUSH2 0x77B8 DUP7 DUP3 DUP8 ADD PUSH2 0x740B JUMP JUMPDEST SWAP3 POP POP PUSH1 0x40 PUSH2 0x77C9 DUP7 DUP3 DUP8 ADD PUSH2 0x740B JUMP JUMPDEST SWAP2 POP POP SWAP3 POP SWAP3 POP SWAP3 JUMP JUMPDEST PUSH1 0x0 DUP1 PUSH1 0x0 DUP1 PUSH1 0x0 PUSH1 0xA0 DUP7 DUP9 SUB SLT ISZERO PUSH2 0x77EB JUMPI PUSH1 0x0 DUP1 REVERT JUMPDEST PUSH1 0x0 PUSH2 0x77F9 DUP9 DUP3 DUP10 ADD PUSH2 0x7435 JUMP JUMPDEST SWAP6 POP POP PUSH1 0x20 PUSH2 0x780A DUP9 DUP3 DUP10 ADD PUSH2 0x73F6 JUMP JUMPDEST SWAP5 POP POP PUSH1 0x40 PUSH2 0x781B DUP9 DUP3 DUP10 ADD PUSH2 0x7420 JUMP JUMPDEST SWAP4 POP POP PUSH1 0x60 PUSH2 0x782C DUP9 DUP3 DUP10 ADD PUSH2 0x7420 JUMP JUMPDEST SWAP3 POP POP PUSH1 0x80 PUSH2 0x783D DUP9 DUP3 DUP10 ADD PUSH2 0x7435 JUMP JUMPDEST SWAP2 POP POP SWAP3 SWAP6 POP SWAP3 SWAP6 SWAP1 SWAP4 POP JUMP JUMPDEST PUSH1 0x0 PUSH2 0x7856 DUP4 DUP4 PUSH2 0x78AA JUMP JUMPDEST PUSH1 0x20 DUP4 ADD SWAP1 POP SWAP3 SWAP2 POP POP JUMP JUMPDEST PUSH1 0x0 PUSH2 0x786E DUP4 DUP4 PUSH2 0x7ACB JUMP JUMPDEST PUSH1 0x20 DUP4 ADD SWAP1 POP SWAP3 SWAP2 POP POP JUMP JUMPDEST PUSH1 0x0 PUSH2 0x7886 DUP4 DUP4 PUSH2 0x8022 JUMP JUMPDEST PUSH1 0x80 DUP4 ADD SWAP1 POP SWAP3 SWAP2 POP POP JUMP JUMPDEST PUSH1 0x0 PUSH2 0x789E DUP4 DUP4 PUSH2 0x8077 JUMP JUMPDEST PUSH1 0x20 DUP4 ADD SWAP1 POP SWAP3 SWAP2 POP POP JUMP JUMPDEST PUSH2 0x78B3 DUP2 PUSH2 0x8B15 JUMP JUMPDEST DUP3 MSTORE POP POP JUMP JUMPDEST PUSH2 0x78C2 DUP2 PUSH2 0x8B15 JUMP JUMPDEST DUP3 MSTORE POP POP JUMP JUMPDEST PUSH1 0x0 PUSH2 0x78D3 DUP3 PUSH2 0x89B5 JUMP JUMPDEST PUSH2 0x78DD DUP2 DUP6 PUSH2 0x8A2B JUMP JUMPDEST SWAP4 POP PUSH2 0x78E8 DUP4 PUSH2 0x8975 JUMP JUMPDEST DUP1 PUSH1 0x0 JUMPDEST DUP4 DUP2 LT ISZERO PUSH2 0x7919 JUMPI DUP2 MLOAD PUSH2 0x7900 DUP9 DUP3 PUSH2 0x784A JUMP JUMPDEST SWAP8 POP PUSH2 0x790B DUP4 PUSH2 0x89F7 JUMP JUMPDEST SWAP3 POP POP PUSH1 0x1 DUP2 ADD SWAP1 POP PUSH2 0x78EC JUMP JUMPDEST POP DUP6 SWAP4 POP POP POP POP SWAP3 SWAP2 POP POP JUMP JUMPDEST PUSH1 0x0 PUSH2 0x7931 DUP3 PUSH2 0x89C0 JUMP JUMPDEST PUSH2 0x793B DUP2 DUP6 PUSH2 0x8A3C JUMP JUMPDEST SWAP4 POP PUSH2 0x7946 DUP4 PUSH2 0x8985 JUMP JUMPDEST DUP1 PUSH1 0x0 JUMPDEST DUP4 DUP2 LT ISZERO PUSH2 0x7977 JUMPI DUP2 MLOAD PUSH2 0x795E DUP9 DUP3 PUSH2 0x7862 JUMP JUMPDEST SWAP8 POP PUSH2 0x7969 DUP4 PUSH2 0x8A04 JUMP JUMPDEST SWAP3 POP POP PUSH1 0x1 DUP2 ADD SWAP1 POP PUSH2 0x794A JUMP JUMPDEST POP DUP6 SWAP4 POP POP POP POP SWAP3 SWAP2 POP POP JUMP JUMPDEST PUSH1 0x0 PUSH2 0x798F DUP3 PUSH2 0x89CB JUMP JUMPDEST PUSH2 0x7999 DUP2 DUP6 PUSH2 0x8A4D JUMP JUMPDEST SWAP4 POP PUSH2 0x79A4 DUP4 PUSH2 0x8995 JUMP JUMPDEST DUP1 PUSH1 0x0 JUMPDEST DUP4 DUP2 LT ISZERO PUSH2 0x79D5 JUMPI DUP2 MLOAD PUSH2 0x79BC DUP9 DUP3 PUSH2 0x787A JUMP JUMPDEST SWAP8 POP PUSH2 0x79C7 DUP4 PUSH2 0x8A11 JUMP JUMPDEST SWAP3 POP POP PUSH1 0x1 DUP2 ADD SWAP1 POP PUSH2 0x79A8 JUMP JUMPDEST POP DUP6 SWAP4 POP POP POP POP SWAP3 SWAP2 POP POP JUMP JUMPDEST PUSH1 0x0 PUSH2 0x79ED DUP3 PUSH2 0x89D6 JUMP JUMPDEST PUSH2 0x79F7 DUP2 DUP6 PUSH2 0x8A5E JUMP JUMPDEST SWAP4 POP PUSH2 0x7A02 DUP4 PUSH2 0x89A5 JUMP JUMPDEST DUP1 PUSH1 0x0 JUMPDEST DUP4 DUP2 LT ISZERO PUSH2 0x7A33 JUMPI DUP2 MLOAD PUSH2 0x7A1A DUP9 DUP3 PUSH2 0x7892 JUMP JUMPDEST SWAP8 POP PUSH2 0x7A25 DUP4 PUSH2 0x8A1E JUMP JUMPDEST SWAP3 POP POP PUSH1 0x1 DUP2 ADD SWAP1 POP PUSH2 0x7A06 JUMP JUMPDEST POP DUP6 SWAP4 POP POP POP POP SWAP3 SWAP2 POP POP JUMP JUMPDEST PUSH2 0x7A49 DUP2 PUSH2 0x8B27 JUMP JUMPDEST DUP3 MSTORE POP POP JUMP JUMPDEST PUSH2 0x7A58 DUP2 PUSH2 0x8B27 JUMP JUMPDEST DUP3 MSTORE POP POP JUMP JUMPDEST PUSH1 0x0 PUSH2 0x7A69 DUP3 PUSH2 0x89E1 JUMP JUMPDEST PUSH2 0x7A73 DUP2 DUP6 PUSH2 0x8A6F JUMP JUMPDEST SWAP4 POP PUSH2 0x7A83 DUP2 DUP6 PUSH1 0x20 DUP7 ADD PUSH2 0x8BF9 JUMP JUMPDEST DUP1 DUP5 ADD SWAP2 POP POP SWAP3 SWAP2 POP POP JUMP JUMPDEST PUSH2 0x7A98 DUP2 PUSH2 0x8B90 JUMP JUMPDEST DUP3 MSTORE POP POP JUMP JUMPDEST PUSH2 0x7AA7 DUP2 PUSH2 0x8BB4 JUMP JUMPDEST DUP3 MSTORE POP POP JUMP JUMPDEST PUSH2 0x7AB6 DUP2 PUSH2 0x8BD8 JUMP JUMPDEST DUP3 MSTORE POP POP JUMP JUMPDEST PUSH2 0x7AC5 DUP2 PUSH2 0x8BD8 JUMP JUMPDEST DUP3 MSTORE POP POP JUMP JUMPDEST PUSH2 0x7AD4 DUP2 PUSH2 0x8B46 JUMP JUMPDEST DUP3 MSTORE POP POP JUMP JUMPDEST PUSH1 0x0 PUSH2 0x7AE5 DUP3 PUSH2 0x89EC JUMP JUMPDEST PUSH2 0x7AEF DUP2 DUP6 PUSH2 0x8A7A JUMP JUMPDEST SWAP4 POP PUSH2 0x7AFF DUP2 DUP6 PUSH1 0x20 DUP7 ADD PUSH2 0x8BF9 JUMP JUMPDEST PUSH2 0x7B08 DUP2 PUSH2 0x8D33 JUMP JUMPDEST DUP5 ADD SWAP2 POP POP SWAP3 SWAP2 POP POP JUMP JUMPDEST PUSH1 0x0 PUSH2 0x7B20 PUSH1 0x14 DUP4 PUSH2 0x8A7A JUMP JUMPDEST SWAP2 POP PUSH2 0x7B2B DUP3 PUSH2 0x8D44 JUMP JUMPDEST PUSH1 0x20 DUP3 ADD SWAP1 POP SWAP2 SWAP1 POP JUMP JUMPDEST PUSH1 0x0 PUSH2 0x7B43 PUSH1 0x17 DUP4 PUSH2 0x8A7A JUMP JUMPDEST SWAP2 POP PUSH2 0x7B4E DUP3 PUSH2 0x8D6D JUMP JUMPDEST PUSH1 0x20 DUP3 ADD SWAP1 POP SWAP2 SWAP1 POP JUMP JUMPDEST PUSH1 0x0 PUSH2 0x7B66 PUSH1 0x1F DUP4 PUSH2 0x8A7A JUMP JUMPDEST SWAP2 POP PUSH2 0x7B71 DUP3 PUSH2 0x8D96 JUMP JUMPDEST PUSH1 0x20 DUP3 ADD SWAP1 POP SWAP2 SWAP1 POP JUMP JUMPDEST PUSH1 0x0 PUSH2 0x7B89 PUSH1 0x11 DUP4 PUSH2 0x8A7A JUMP JUMPDEST SWAP2 POP PUSH2 0x7B94 DUP3 PUSH2 0x8DBF JUMP JUMPDEST PUSH1 0x20 DUP3 ADD SWAP1 POP SWAP2 SWAP1 POP JUMP JUMPDEST PUSH1 0x0 PUSH2 0x7BAC PUSH1 0x2F DUP4 PUSH2 0x8A7A JUMP JUMPDEST SWAP2 POP PUSH2 0x7BB7 DUP3 PUSH2 0x8DE8 JUMP JUMPDEST PUSH1 0x40 DUP3 ADD SWAP1 POP SWAP2 SWAP1 POP JUMP JUMPDEST PUSH1 0x0 PUSH2 0x7BCF PUSH1 0x26 DUP4 PUSH2 0x8A7A JUMP JUMPDEST SWAP2 POP PUSH2 0x7BDA DUP3 PUSH2 0x8E37 JUMP JUMPDEST PUSH1 0x40 DUP3 ADD SWAP1 POP SWAP2 SWAP1 POP JUMP JUMPDEST PUSH1 0x0 PUSH2 0x7BF2 PUSH1 0x3D DUP4 PUSH2 0x8A7A JUMP JUMPDEST SWAP2 POP PUSH2 0x7BFD DUP3 PUSH2 0x8E86 JUMP JUMPDEST PUSH1 0x40 DUP3 ADD SWAP1 POP SWAP2 SWAP1 POP JUMP JUMPDEST PUSH1 0x0 PUSH2 0x7C15 PUSH1 0x14 DUP4 PUSH2 0x8A7A JUMP JUMPDEST SWAP2 POP PUSH2 0x7C20 DUP3 PUSH2 0x8ED5 JUMP JUMPDEST PUSH1 0x20 DUP3 ADD SWAP1 POP SWAP2 SWAP1 POP JUMP JUMPDEST PUSH1 0x0 PUSH2 0x7C38 PUSH1 0x31 DUP4 PUSH2 0x8A7A JUMP JUMPDEST SWAP2 POP PUSH2 0x7C43 DUP3 PUSH2 0x8EFE JUMP JUMPDEST PUSH1 0x40 DUP3 ADD SWAP1 POP SWAP2 SWAP1 POP JUMP JUMPDEST PUSH1 0x0 PUSH2 0x7C5B PUSH1 0x25 DUP4 PUSH2 0x8A7A JUMP JUMPDEST SWAP2 POP PUSH2 0x7C66 DUP3 PUSH2 0x8F4D JUMP JUMPDEST PUSH1 0x40 DUP3 ADD SWAP1 POP SWAP2 SWAP1 POP JUMP JUMPDEST PUSH1 0x0 PUSH2 0x7C7E PUSH1 0x16 DUP4 PUSH2 0x8A7A JUMP JUMPDEST SWAP2 POP PUSH2 0x7C89 DUP3 PUSH2 0x8F9C JUMP JUMPDEST PUSH1 0x20 DUP3 ADD SWAP1 POP SWAP2 SWAP1 POP JUMP JUMPDEST PUSH1 0x0 PUSH2 0x7CA1 PUSH1 0x12 DUP4 PUSH2 0x8A7A JUMP JUMPDEST SWAP2 POP PUSH2 0x7CAC DUP3 PUSH2 0x8FC5 JUMP JUMPDEST PUSH1 0x20 DUP3 ADD SWAP1 POP SWAP2 SWAP1 POP JUMP JUMPDEST PUSH1 0x0 PUSH2 0x7CC4 PUSH1 0x15 DUP4 PUSH2 0x8A7A JUMP JUMPDEST SWAP2 POP PUSH2 0x7CCF DUP3 PUSH2 0x8FEE JUMP JUMPDEST PUSH1 0x20 DUP3 ADD SWAP1 POP SWAP2 SWAP1 POP JUMP JUMPDEST PUSH1 0x0 PUSH2 0x7CE7 PUSH1 0x26 DUP4 PUSH2 0x8A7A JUMP JUMPDEST SWAP2 POP PUSH2 0x7CF2 DUP3 PUSH2 0x9017 JUMP JUMPDEST PUSH1 0x40 DUP3 ADD SWAP1 POP SWAP2 SWAP1 POP JUMP JUMPDEST PUSH1 0x0 PUSH2 0x7D0A PUSH1 0x10 DUP4 PUSH2 0x8A7A JUMP JUMPDEST SWAP2 POP PUSH2 0x7D15 DUP3 PUSH2 0x9066 JUMP JUMPDEST PUSH1 0x20 DUP3 ADD SWAP1 POP SWAP2 SWAP1 POP JUMP JUMPDEST PUSH1 0x0 PUSH2 0x7D2D PUSH1 0x16 DUP4 PUSH2 0x8A7A JUMP JUMPDEST SWAP2 POP PUSH2 0x7D38 DUP3 PUSH2 0x908F JUMP JUMPDEST PUSH1 0x20 DUP3 ADD SWAP1 POP SWAP2 SWAP1 POP JUMP JUMPDEST PUSH1 0x0 PUSH2 0x7D50 PUSH1 0x2E DUP4 PUSH2 0x8A7A JUMP JUMPDEST SWAP2 POP PUSH2 0x7D5B DUP3 PUSH2 0x90B8 JUMP JUMPDEST PUSH1 0x40 DUP3 ADD SWAP1 POP SWAP2 SWAP1 POP JUMP JUMPDEST PUSH1 0x0 PUSH2 0x7D73 PUSH1 0x1A DUP4 PUSH2 0x8A7A JUMP JUMPDEST SWAP2 POP PUSH2 0x7D7E DUP3 PUSH2 0x9107 JUMP JUMPDEST PUSH1 0x20 DUP3 ADD SWAP1 POP SWAP2 SWAP1 POP JUMP JUMPDEST PUSH1 0x0 PUSH2 0x7D96 PUSH1 0x2E DUP4 PUSH2 0x8A7A JUMP JUMPDEST SWAP2 POP PUSH2 0x7DA1 DUP3 PUSH2 0x9130 JUMP JUMPDEST PUSH1 0x40 DUP3 ADD SWAP1 POP SWAP2 SWAP1 POP JUMP JUMPDEST PUSH1 0x0 PUSH2 0x7DB9 PUSH1 0x2D DUP4 PUSH2 0x8A7A JUMP JUMPDEST SWAP2 POP PUSH2 0x7DC4 DUP3 PUSH2 0x917F JUMP JUMPDEST PUSH1 0x40 DUP3 ADD SWAP1 POP SWAP2 SWAP1 POP JUMP JUMPDEST PUSH1 0x0 PUSH2 0x7DDC PUSH1 0x20 DUP4 PUSH2 0x8A7A JUMP JUMPDEST SWAP2 POP PUSH2 0x7DE7 DUP3 PUSH2 0x91CE JUMP JUMPDEST PUSH1 0x20 DUP3 ADD SWAP1 POP SWAP2 SWAP1 POP JUMP JUMPDEST PUSH1 0x0 PUSH2 0x7DFF PUSH1 0x12 DUP4 PUSH2 0x8A7A JUMP JUMPDEST SWAP2 POP PUSH2 0x7E0A DUP3 PUSH2 0x91F7 JUMP JUMPDEST PUSH1 0x20 DUP3 ADD SWAP1 POP SWAP2 SWAP1 POP JUMP JUMPDEST PUSH1 0x0 PUSH2 0x7E22 PUSH1 0x15 DUP4 PUSH2 0x8A7A JUMP JUMPDEST SWAP2 POP PUSH2 0x7E2D DUP3 PUSH2 0x9220 JUMP JUMPDEST PUSH1 0x20 DUP3 ADD SWAP1 POP SWAP2 SWAP1 POP JUMP JUMPDEST PUSH1 0x0 PUSH2 0x7E45 PUSH1 0x35 DUP4 PUSH2 0x8A7A JUMP JUMPDEST SWAP2 POP PUSH2 0x7E50 DUP3 PUSH2 0x9249 JUMP JUMPDEST PUSH1 0x40 DUP3 ADD SWAP1 POP SWAP2 SWAP1 POP JUMP JUMPDEST PUSH1 0x0 PUSH2 0x7E68 PUSH1 0x26 DUP4 PUSH2 0x8A7A JUMP JUMPDEST SWAP2 POP PUSH2 0x7E73 DUP3 PUSH2 0x9298 JUMP JUMPDEST PUSH1 0x40 DUP3 ADD SWAP1 POP SWAP2 SWAP1 POP JUMP JUMPDEST PUSH1 0x0 PUSH2 0x7E8B PUSH1 0x1D DUP4 PUSH2 0x8A7A JUMP JUMPDEST SWAP2 POP PUSH2 0x7E96 DUP3 PUSH2 0x92E7 JUMP JUMPDEST PUSH1 0x20 DUP3 ADD SWAP1 POP SWAP2 SWAP1 POP JUMP JUMPDEST PUSH1 0x0 PUSH2 0x7EAE PUSH1 0x18 DUP4 PUSH2 0x8A7A JUMP JUMPDEST SWAP2 POP PUSH2 0x7EB9 DUP3 PUSH2 0x9310 JUMP JUMPDEST PUSH1 0x20 DUP3 ADD SWAP1 POP SWAP2 SWAP1 POP JUMP JUMPDEST PUSH1 0x0 PUSH2 0x7ED1 PUSH1 0x1B DUP4 PUSH2 0x8A7A JUMP JUMPDEST SWAP2 POP PUSH2 0x7EDC DUP3 PUSH2 0x9339 JUMP JUMPDEST PUSH1 0x20 DUP3 ADD SWAP1 POP SWAP2 SWAP1 POP JUMP JUMPDEST PUSH1 0x0 PUSH2 0x7EF4 PUSH1 0x2A DUP4 PUSH2 0x8A7A JUMP JUMPDEST SWAP2 POP PUSH2 0x7EFF DUP3 PUSH2 0x9362 JUMP JUMPDEST PUSH1 0x40 DUP3 ADD SWAP1 POP SWAP2 SWAP1 POP JUMP JUMPDEST PUSH1 0x0 PUSH2 0x7F17 PUSH1 0x16 DUP4 PUSH2 0x8A7A JUMP JUMPDEST SWAP2 POP PUSH2 0x7F22 DUP3 PUSH2 0x93B1 JUMP JUMPDEST PUSH1 0x20 DUP3 ADD SWAP1 POP SWAP2 SWAP1 POP JUMP JUMPDEST PUSH1 0x0 PUSH2 0x7F3A PUSH1 0x1F DUP4 PUSH2 0x8A7A JUMP JUMPDEST SWAP2 POP PUSH2 0x7F45 DUP3 PUSH2 0x93DA JUMP JUMPDEST PUSH1 0x20 DUP3 ADD SWAP1 POP SWAP2 SWAP1 POP JUMP JUMPDEST PUSH1 0x0 PUSH2 0x7F5D PUSH1 0x15 DUP4 PUSH2 0x8A7A JUMP JUMPDEST SWAP2 POP PUSH2 0x7F68 DUP3 PUSH2 0x9403 JUMP JUMPDEST PUSH1 0x20 DUP3 ADD SWAP1 POP SWAP2 SWAP1 POP JUMP JUMPDEST PUSH1 0x0 PUSH2 0x7F80 PUSH1 0x2E DUP4 PUSH2 0x8A7A JUMP JUMPDEST SWAP2 POP PUSH2 0x7F8B DUP3 PUSH2 0x942C JUMP JUMPDEST PUSH1 0x40 DUP3 ADD SWAP1 POP SWAP2 SWAP1 POP JUMP JUMPDEST PUSH1 0x0 PUSH2 0x7FA3 PUSH1 0x2E DUP4 PUSH2 0x8A7A JUMP JUMPDEST SWAP2 POP PUSH2 0x7FAE DUP3 PUSH2 0x947B JUMP JUMPDEST PUSH1 0x40 DUP3 ADD SWAP1 POP SWAP2 SWAP1 POP JUMP JUMPDEST PUSH1 0x0 PUSH2 0x7FC6 PUSH1 0xC DUP4 PUSH2 0x8A7A JUMP JUMPDEST SWAP2 POP PUSH2 0x7FD1 DUP3 PUSH2 0x94CA JUMP JUMPDEST PUSH1 0x20 DUP3 ADD SWAP1 POP SWAP2 SWAP1 POP JUMP JUMPDEST PUSH1 0x0 PUSH2 0x7FE9 PUSH1 0x9 DUP4 PUSH2 0x8A7A JUMP JUMPDEST SWAP2 POP PUSH2 0x7FF4 DUP3 PUSH2 0x94F3 JUMP JUMPDEST PUSH1 0x20 DUP3 ADD SWAP1 POP SWAP2 SWAP1 POP JUMP JUMPDEST PUSH1 0x0 PUSH2 0x800C PUSH1 0x17 DUP4 PUSH2 0x8A7A JUMP JUMPDEST SWAP2 POP PUSH2 0x8017 DUP3 PUSH2 0x951C JUMP JUMPDEST PUSH1 0x20 DUP3 ADD SWAP1 POP SWAP2 SWAP1 POP JUMP JUMPDEST PUSH1 0x80 DUP3 ADD PUSH1 0x0 DUP3 ADD MLOAD PUSH2 0x8038 PUSH1 0x0 DUP6 ADD DUP3 PUSH2 0x7AAD JUMP JUMPDEST POP PUSH1 0x20 DUP3 ADD MLOAD PUSH2 0x804B PUSH1 0x20 DUP6 ADD DUP3 PUSH2 0x78AA JUMP JUMPDEST POP PUSH1 0x40 DUP3 ADD MLOAD PUSH2 0x805E PUSH1 0x40 DUP6 ADD DUP3 PUSH2 0x8077 JUMP JUMPDEST POP PUSH1 0x60 DUP3 ADD MLOAD PUSH2 0x8071 PUSH1 0x60 DUP6 ADD DUP3 PUSH2 0x7A40 JUMP JUMPDEST POP POP POP POP JUMP JUMPDEST PUSH2 0x8080 DUP2 PUSH2 0x8B70 JUMP JUMPDEST DUP3 MSTORE POP POP JUMP JUMPDEST PUSH2 0x808F DUP2 PUSH2 0x8B70 JUMP JUMPDEST DUP3 MSTORE POP POP JUMP JUMPDEST PUSH1 0x0 PUSH2 0x80A1 DUP3 DUP5 PUSH2 0x7A5E JUMP JUMPDEST SWAP2 POP DUP2 SWAP1 POP SWAP3 SWAP2 POP POP JUMP JUMPDEST PUSH1 0x0 PUSH1 0x20 DUP3 ADD SWAP1 POP PUSH2 0x80C1 PUSH1 0x0 DUP4 ADD DUP5 PUSH2 0x78B9 JUMP JUMPDEST SWAP3 SWAP2 POP POP JUMP JUMPDEST PUSH1 0x0 PUSH1 0x40 DUP3 ADD SWAP1 POP PUSH2 0x80DC PUSH1 0x0 DUP4 ADD DUP6 PUSH2 0x78B9 JUMP JUMPDEST PUSH2 0x80E9 PUSH1 0x20 DUP4 ADD DUP5 PUSH2 0x78B9 JUMP JUMPDEST SWAP4 SWAP3 POP POP POP JUMP JUMPDEST PUSH1 0x0 PUSH1 0x60 DUP3 ADD SWAP1 POP PUSH2 0x8105 PUSH1 0x0 DUP4 ADD DUP7 PUSH2 0x78B9 JUMP JUMPDEST PUSH2 0x8112 PUSH1 0x20 DUP4 ADD DUP6 PUSH2 0x78B9 JUMP JUMPDEST PUSH2 0x811F PUSH1 0x40 DUP4 ADD DUP5 PUSH2 0x8086 JUMP JUMPDEST SWAP5 SWAP4 POP POP POP POP JUMP JUMPDEST PUSH1 0x0 PUSH1 0x40 DUP3 ADD SWAP1 POP PUSH2 0x813C PUSH1 0x0 DUP4 ADD DUP6 PUSH2 0x78B9 JUMP JUMPDEST PUSH2 0x8149 PUSH1 0x20 DUP4 ADD DUP5 PUSH2 0x8086 JUMP JUMPDEST SWAP4 SWAP3 POP POP POP JUMP JUMPDEST PUSH1 0x0 PUSH1 0x20 DUP3 ADD SWAP1 POP DUP2 DUP2 SUB PUSH1 0x0 DUP4 ADD MSTORE PUSH2 0x816A DUP2 DUP5 PUSH2 0x78C8 JUMP JUMPDEST SWAP1 POP SWAP3 SWAP2 POP POP JUMP JUMPDEST PUSH1 0x0 PUSH1 0x60 DUP3 ADD SWAP1 POP DUP2 DUP2 SUB PUSH1 0x0 DUP4 ADD MSTORE PUSH2 0x818C DUP2 DUP7 PUSH2 0x78C8 JUMP JUMPDEST SWAP1 POP DUP2 DUP2 SUB PUSH1 0x20 DUP4 ADD MSTORE PUSH2 0x81A0 DUP2 DUP6 PUSH2 0x79E2 JUMP JUMPDEST SWAP1 POP DUP2 DUP2 SUB PUSH1 0x40 DUP4 ADD MSTORE PUSH2 0x81B4 DUP2 DUP5 PUSH2 0x79E2 JUMP JUMPDEST SWAP1 POP SWAP5 SWAP4 POP POP POP POP JUMP JUMPDEST PUSH1 0x0 PUSH1 0x60 DUP3 ADD SWAP1 POP DUP2 DUP2 SUB PUSH1 0x0 DUP4 ADD MSTORE PUSH2 0x81D8 DUP2 DUP7 PUSH2 0x79E2 JUMP JUMPDEST SWAP1 POP DUP2 DUP2 SUB PUSH1 0x20 DUP4 ADD MSTORE PUSH2 0x81EC DUP2 DUP6 PUSH2 0x7984 JUMP JUMPDEST SWAP1 POP PUSH2 0x81FB PUSH1 0x40 DUP4 ADD DUP5 PUSH2 0x8086 JUMP JUMPDEST SWAP5 SWAP4 POP POP POP POP JUMP JUMPDEST PUSH1 0x0 PUSH1 0x20 DUP3 ADD SWAP1 POP PUSH2 0x8218 PUSH1 0x0 DUP4 ADD DUP5 PUSH2 0x7A4F JUMP JUMPDEST SWAP3 SWAP2 POP POP JUMP JUMPDEST PUSH1 0x0 PUSH1 0x20 DUP3 ADD SWAP1 POP PUSH2 0x8233 PUSH1 0x0 DUP4 ADD DUP5 PUSH2 0x7A8F JUMP JUMPDEST SWAP3 SWAP2 POP POP JUMP JUMPDEST PUSH1 0x0 PUSH1 0x20 DUP3 ADD SWAP1 POP PUSH2 0x824E PUSH1 0x0 DUP4 ADD DUP5 PUSH2 0x7A9E JUMP JUMPDEST SWAP3 SWAP2 POP POP JUMP JUMPDEST PUSH1 0x0 PUSH1 0x80 DUP3 ADD SWAP1 POP PUSH2 0x8269 PUSH1 0x0 DUP4 ADD DUP8 PUSH2 0x7ABC JUMP JUMPDEST PUSH2 0x8276 PUSH1 0x20 DUP4 ADD DUP7 PUSH2 0x78B9 JUMP JUMPDEST PUSH2 0x8283 PUSH1 0x40 DUP4 ADD DUP6 PUSH2 0x8086 JUMP JUMPDEST PUSH2 0x8290 PUSH1 0x60 DUP4 ADD DUP5 PUSH2 0x7A4F JUMP JUMPDEST SWAP6 SWAP5 POP POP POP POP POP JUMP JUMPDEST PUSH1 0x0 PUSH1 0x20 DUP3 ADD SWAP1 POP DUP2 DUP2 SUB PUSH1 0x0 DUP4 ADD MSTORE PUSH2 0x82B3 DUP2 DUP5 PUSH2 0x7ADA JUMP JUMPDEST SWAP1 POP SWAP3 SWAP2 POP POP JUMP JUMPDEST PUSH1 0x0 PUSH1 0x20 DUP3 ADD SWAP1 POP DUP2 DUP2 SUB PUSH1 0x0 DUP4 ADD MSTORE PUSH2 0x82D4 DUP2 PUSH2 0x7B13 JUMP JUMPDEST SWAP1 POP SWAP2 SWAP1 POP JUMP JUMPDEST PUSH1 0x0 PUSH1 0x20 DUP3 ADD SWAP1 POP DUP2 DUP2 SUB PUSH1 0x0 DUP4 ADD MSTORE PUSH2 0x82F4 DUP2 PUSH2 0x7B36 JUMP JUMPDEST SWAP1 POP SWAP2 SWAP1 POP JUMP JUMPDEST PUSH1 0x0 PUSH1 0x20 DUP3 ADD SWAP1 POP DUP2 DUP2 SUB PUSH1 0x0 DUP4 ADD MSTORE PUSH2 0x8314 DUP2 PUSH2 0x7B59 JUMP JUMPDEST SWAP1 POP SWAP2 SWAP1 POP JUMP JUMPDEST PUSH1 0x0 PUSH1 0x20 DUP3 ADD SWAP1 POP DUP2 DUP2 SUB PUSH1 0x0 DUP4 ADD MSTORE PUSH2 0x8334 DUP2 PUSH2 0x7B7C JUMP JUMPDEST SWAP1 POP SWAP2 SWAP1 POP JUMP JUMPDEST PUSH1 0x0 PUSH1 0x20 DUP3 ADD SWAP1 POP DUP2 DUP2 SUB PUSH1 0x0 DUP4 ADD MSTORE PUSH2 0x8354 DUP2 PUSH2 0x7B9F JUMP JUMPDEST SWAP1 POP SWAP2 SWAP1 POP JUMP JUMPDEST PUSH1 0x0 PUSH1 0x20 DUP3 ADD SWAP1 POP DUP2 DUP2 SUB PUSH1 0x0 DUP4 ADD MSTORE PUSH2 0x8374 DUP2 PUSH2 0x7BC2 JUMP JUMPDEST SWAP1 POP SWAP2 SWAP1 POP JUMP JUMPDEST PUSH1 0x0 PUSH1 0x20 DUP3 ADD SWAP1 POP DUP2 DUP2 SUB PUSH1 0x0 DUP4 ADD MSTORE PUSH2 0x8394 DUP2 PUSH2 0x7BE5 JUMP JUMPDEST SWAP1 POP SWAP2 SWAP1 POP JUMP JUMPDEST PUSH1 0x0 PUSH1 0x20 DUP3 ADD SWAP1 POP DUP2 DUP2 SUB PUSH1 0x0 DUP4 ADD MSTORE PUSH2 0x83B4 DUP2 PUSH2 0x7C08 JUMP JUMPDEST SWAP1 POP SWAP2 SWAP1 POP JUMP JUMPDEST PUSH1 0x0 PUSH1 0x20 DUP3 ADD SWAP1 POP DUP2 DUP2 SUB PUSH1 0x0 DUP4 ADD MSTORE PUSH2 0x83D4 DUP2 PUSH2 0x7C2B JUMP JUMPDEST SWAP1 POP SWAP2 SWAP1 POP JUMP JUMPDEST PUSH1 0x0 PUSH1 0x20 DUP3 ADD SWAP1 POP DUP2 DUP2 SUB PUSH1 0x0 DUP4 ADD MSTORE PUSH2 0x83F4 DUP2 PUSH2 0x7C4E JUMP JUMPDEST SWAP1 POP SWAP2 SWAP1 POP JUMP JUMPDEST PUSH1 0x0 PUSH1 0x20 DUP3 ADD SWAP1 POP DUP2 DUP2 SUB PUSH1 0x0 DUP4 ADD MSTORE PUSH2 0x8414 DUP2 PUSH2 0x7C71 JUMP JUMPDEST SWAP1 POP SWAP2 SWAP1 POP JUMP JUMPDEST PUSH1 0x0 PUSH1 0x20 DUP3 ADD SWAP1 POP DUP2 DUP2 SUB PUSH1 0x0 DUP4 ADD MSTORE PUSH2 0x8434 DUP2 PUSH2 0x7C94 JUMP JUMPDEST SWAP1 POP SWAP2 SWAP1 POP JUMP JUMPDEST PUSH1 0x0 PUSH1 0x20 DUP3 ADD SWAP1 POP DUP2 DUP2 SUB PUSH1 0x0 DUP4 ADD MSTORE PUSH2 0x8454 DUP2 PUSH2 0x7CB7 JUMP JUMPDEST SWAP1 POP SWAP2 SWAP1 POP JUMP JUMPDEST PUSH1 0x0 PUSH1 0x20 DUP3 ADD SWAP1 POP DUP2 DUP2 SUB PUSH1 0x0 DUP4 ADD MSTORE PUSH2 0x8474 DUP2 PUSH2 0x7CDA JUMP JUMPDEST SWAP1 POP SWAP2 SWAP1 POP JUMP JUMPDEST PUSH1 0x0 PUSH1 0x20 DUP3 ADD SWAP1 POP DUP2 DUP2 SUB PUSH1 0x0 DUP4 ADD MSTORE PUSH2 0x8494 DUP2 PUSH2 0x7CFD JUMP JUMPDEST SWAP1 POP SWAP2 SWAP1 POP JUMP JUMPDEST PUSH1 0x0 PUSH1 0x20 DUP3 ADD SWAP1 POP DUP2 DUP2 SUB PUSH1 0x0 DUP4 ADD MSTORE PUSH2 0x84B4 DUP2 PUSH2 0x7D20 JUMP JUMPDEST SWAP1 POP SWAP2 SWAP1 POP JUMP JUMPDEST PUSH1 0x0 PUSH1 0x20 DUP3 ADD SWAP1 POP DUP2 DUP2 SUB PUSH1 0x0 DUP4 ADD MSTORE PUSH2 0x84D4 DUP2 PUSH2 0x7D43 JUMP JUMPDEST SWAP1 POP SWAP2 SWAP1 POP JUMP JUMPDEST PUSH1 0x0 PUSH1 0x20 DUP3 ADD SWAP1 POP DUP2 DUP2 SUB PUSH1 0x0 DUP4 ADD MSTORE PUSH2 0x84F4 DUP2 PUSH2 0x7D66 JUMP JUMPDEST SWAP1 POP SWAP2 SWAP1 POP JUMP JUMPDEST PUSH1 0x0 PUSH1 0x20 DUP3 ADD SWAP1 POP DUP2 DUP2 SUB PUSH1 0x0 DUP4 ADD MSTORE PUSH2 0x8514 DUP2 PUSH2 0x7D89 JUMP JUMPDEST SWAP1 POP SWAP2 SWAP1 POP JUMP JUMPDEST PUSH1 0x0 PUSH1 0x20 DUP3 ADD SWAP1 POP DUP2 DUP2 SUB PUSH1 0x0 DUP4 ADD MSTORE PUSH2 0x8534 DUP2 PUSH2 0x7DAC JUMP JUMPDEST SWAP1 POP SWAP2 SWAP1 POP JUMP JUMPDEST PUSH1 0x0 PUSH1 0x20 DUP3 ADD SWAP1 POP DUP2 DUP2 SUB PUSH1 0x0 DUP4 ADD MSTORE PUSH2 0x8554 DUP2 PUSH2 0x7DCF JUMP JUMPDEST SWAP1 POP SWAP2 SWAP1 POP JUMP JUMPDEST PUSH1 0x0 PUSH1 0x20 DUP3 ADD SWAP1 POP DUP2 DUP2 SUB PUSH1 0x0 DUP4 ADD MSTORE PUSH2 0x8574 DUP2 PUSH2 0x7DF2 JUMP JUMPDEST SWAP1 POP SWAP2 SWAP1 POP JUMP JUMPDEST PUSH1 0x0 PUSH1 0x20 DUP3 ADD SWAP1 POP DUP2 DUP2 SUB PUSH1 0x0 DUP4 ADD MSTORE PUSH2 0x8594 DUP2 PUSH2 0x7E15 JUMP JUMPDEST SWAP1 POP SWAP2 SWAP1 POP JUMP JUMPDEST PUSH1 0x0 PUSH1 0x20 DUP3 ADD SWAP1 POP DUP2 DUP2 SUB PUSH1 0x0 DUP4 ADD MSTORE PUSH2 0x85B4 DUP2 PUSH2 0x7E38 JUMP JUMPDEST SWAP1 POP SWAP2 SWAP1 POP JUMP JUMPDEST PUSH1 0x0 PUSH1 0x20 DUP3 ADD SWAP1 POP DUP2 DUP2 SUB PUSH1 0x0 DUP4 ADD MSTORE PUSH2 0x85D4 DUP2 PUSH2 0x7E5B JUMP JUMPDEST SWAP1 POP SWAP2 SWAP1 POP JUMP JUMPDEST PUSH1 0x0 PUSH1 0x20 DUP3 ADD SWAP1 POP DUP2 DUP2 SUB PUSH1 0x0 DUP4 ADD MSTORE PUSH2 0x85F4 DUP2 PUSH2 0x7E7E JUMP JUMPDEST SWAP1 POP SWAP2 SWAP1 POP JUMP JUMPDEST PUSH1 0x0 PUSH1 0x20 DUP3 ADD SWAP1 POP DUP2 DUP2 SUB PUSH1 0x0 DUP4 ADD MSTORE PUSH2 0x8614 DUP2 PUSH2 0x7EA1 JUMP JUMPDEST SWAP1 POP SWAP2 SWAP1 POP JUMP JUMPDEST PUSH1 0x0 PUSH1 0x20 DUP3 ADD SWAP1 POP DUP2 DUP2 SUB PUSH1 0x0 DUP4 ADD MSTORE PUSH2 0x8634 DUP2 PUSH2 0x7EC4 JUMP JUMPDEST SWAP1 POP SWAP2 SWAP1 POP JUMP JUMPDEST PUSH1 0x0 PUSH1 0x20 DUP3 ADD SWAP1 POP DUP2 DUP2 SUB PUSH1 0x0 DUP4 ADD MSTORE PUSH2 0x8654 DUP2 PUSH2 0x7EE7 JUMP JUMPDEST SWAP1 POP SWAP2 SWAP1 POP JUMP JUMPDEST PUSH1 0x0 PUSH1 0x20 DUP3 ADD SWAP1 POP DUP2 DUP2 SUB PUSH1 0x0 DUP4 ADD MSTORE PUSH2 0x8674 DUP2 PUSH2 0x7F0A JUMP JUMPDEST SWAP1 POP SWAP2 SWAP1 POP JUMP JUMPDEST PUSH1 0x0 PUSH1 0x20 DUP3 ADD SWAP1 POP DUP2 DUP2 SUB PUSH1 0x0 DUP4 ADD MSTORE PUSH2 0x8694 DUP2 PUSH2 0x7F2D JUMP JUMPDEST SWAP1 POP SWAP2 SWAP1 POP JUMP JUMPDEST PUSH1 0x0 PUSH1 0x20 DUP3 ADD SWAP1 POP DUP2 DUP2 SUB PUSH1 0x0 DUP4 ADD MSTORE PUSH2 0x86B4 DUP2 PUSH2 0x7F50 JUMP JUMPDEST SWAP1 POP SWAP2 SWAP1 POP JUMP JUMPDEST PUSH1 0x0 PUSH1 0x20 DUP3 ADD SWAP1 POP DUP2 DUP2 SUB PUSH1 0x0 DUP4 ADD MSTORE PUSH2 0x86D4 DUP2 PUSH2 0x7F73 JUMP JUMPDEST SWAP1 POP SWAP2 SWAP1 POP JUMP JUMPDEST PUSH1 0x0 PUSH1 0x20 DUP3 ADD SWAP1 POP DUP2 DUP2 SUB PUSH1 0x0 DUP4 ADD MSTORE PUSH2 0x86F4 DUP2 PUSH2 0x7F96 JUMP JUMPDEST SWAP1 POP SWAP2 SWAP1 POP JUMP JUMPDEST PUSH1 0x0 PUSH1 0x20 DUP3 ADD SWAP1 POP DUP2 DUP2 SUB PUSH1 0x0 DUP4 ADD MSTORE PUSH2 0x8714 DUP2 PUSH2 0x7FB9 JUMP JUMPDEST SWAP1 POP SWAP2 SWAP1 POP JUMP JUMPDEST PUSH1 0x0 PUSH1 0x20 DUP3 ADD SWAP1 POP DUP2 DUP2 SUB PUSH1 0x0 DUP4 ADD MSTORE PUSH2 0x8734 DUP2 PUSH2 0x7FDC JUMP JUMPDEST SWAP1 POP SWAP2 SWAP1 POP JUMP JUMPDEST PUSH1 0x0 PUSH1 0x20 DUP3 ADD SWAP1 POP DUP2 DUP2 SUB PUSH1 0x0 DUP4 ADD MSTORE PUSH2 0x8754 DUP2 PUSH2 0x7FFF JUMP JUMPDEST SWAP1 POP SWAP2 SWAP1 POP JUMP JUMPDEST PUSH1 0x0 PUSH1 0x20 DUP3 ADD SWAP1 POP PUSH2 0x8770 PUSH1 0x0 DUP4 ADD DUP5 PUSH2 0x8086 JUMP JUMPDEST SWAP3 SWAP2 POP POP JUMP JUMPDEST PUSH1 0x0 PUSH1 0x40 DUP3 ADD SWAP1 POP PUSH2 0x878B PUSH1 0x0 DUP4 ADD DUP6 PUSH2 0x8086 JUMP JUMPDEST PUSH2 0x8798 PUSH1 0x20 DUP4 ADD DUP5 PUSH2 0x8086 JUMP JUMPDEST SWAP4 SWAP3 POP POP POP JUMP JUMPDEST PUSH1 0x0 PUSH1 0xA0 DUP3 ADD SWAP1 POP PUSH2 0x87B4 PUSH1 0x0 DUP4 ADD DUP9 PUSH2 0x8086 JUMP JUMPDEST PUSH2 0x87C1 PUSH1 0x20 DUP4 ADD DUP8 PUSH2 0x8086 JUMP JUMPDEST PUSH2 0x87CE PUSH1 0x40 DUP4 ADD DUP7 PUSH2 0x8086 JUMP JUMPDEST PUSH2 0x87DB PUSH1 0x60 DUP4 ADD DUP6 PUSH2 0x8086 JUMP JUMPDEST PUSH2 0x87E8 PUSH1 0x80 DUP4 ADD DUP5 PUSH2 0x7A4F JUMP JUMPDEST SWAP7 SWAP6 POP POP POP POP POP POP JUMP JUMPDEST PUSH1 0x0 PUSH2 0x160 DUP3 ADD SWAP1 POP PUSH2 0x8808 PUSH1 0x0 DUP4 ADD DUP15 PUSH2 0x8086 JUMP JUMPDEST PUSH2 0x8815 PUSH1 0x20 DUP4 ADD DUP14 PUSH2 0x8086 JUMP JUMPDEST PUSH2 0x8822 PUSH1 0x40 DUP4 ADD DUP13 PUSH2 0x8086 JUMP JUMPDEST PUSH2 0x882F PUSH1 0x60 DUP4 ADD DUP12 PUSH2 0x8086 JUMP JUMPDEST PUSH2 0x883C PUSH1 0x80 DUP4 ADD DUP11 PUSH2 0x7A4F JUMP JUMPDEST DUP2 DUP2 SUB PUSH1 0xA0 DUP4 ADD MSTORE PUSH2 0x884E DUP2 DUP10 PUSH2 0x78C8 JUMP JUMPDEST SWAP1 POP DUP2 DUP2 SUB PUSH1 0xC0 DUP4 ADD MSTORE PUSH2 0x8862 DUP2 DUP9 PUSH2 0x7926 JUMP JUMPDEST SWAP1 POP DUP2 DUP2 SUB PUSH1 0xE0 DUP4 ADD MSTORE PUSH2 0x8876 DUP2 DUP8 PUSH2 0x7926 JUMP JUMPDEST SWAP1 POP DUP2 DUP2 SUB PUSH2 0x100 DUP4 ADD MSTORE PUSH2 0x888B DUP2 DUP7 PUSH2 0x79E2 JUMP JUMPDEST SWAP1 POP DUP2 DUP2 SUB PUSH2 0x120 DUP4 ADD MSTORE PUSH2 0x88A0 DUP2 DUP6 PUSH2 0x79E2 JUMP JUMPDEST SWAP1 POP DUP2 DUP2 SUB PUSH2 0x140 DUP4 ADD MSTORE PUSH2 0x88B5 DUP2 DUP5 PUSH2 0x79E2 JUMP JUMPDEST SWAP1 POP SWAP13 SWAP12 POP POP POP POP POP POP POP POP POP POP POP POP JUMP JUMPDEST PUSH1 0x0 PUSH2 0x88D1 PUSH2 0x88E2 JUMP JUMPDEST SWAP1 POP PUSH2 0x88DD DUP3 DUP3 PUSH2 0x8C2C JUMP JUMPDEST SWAP2 SWAP1 POP JUMP JUMPDEST PUSH1 0x0 PUSH1 0x40 MLOAD SWAP1 POP SWAP1 JUMP JUMPDEST PUSH1 0x0 PUSH8 0xFFFFFFFFFFFFFFFF DUP3 GT ISZERO PUSH2 0x8907 JUMPI PUSH2 0x8906 PUSH2 0x8D04 JUMP JUMPDEST JUMPDEST PUSH1 0x20 DUP3 MUL SWAP1 POP PUSH1 0x20 DUP2 ADD SWAP1 POP SWAP2 SWAP1 POP JUMP JUMPDEST PUSH1 0x0 PUSH8 0xFFFFFFFFFFFFFFFF DUP3 GT ISZERO PUSH2 0x8933 JUMPI PUSH2 0x8932 PUSH2 0x8D04 JUMP JUMPDEST JUMPDEST PUSH1 0x20 DUP3 MUL SWAP1 POP PUSH1 0x20 DUP2 ADD SWAP1 POP SWAP2 SWAP1 POP JUMP JUMPDEST PUSH1 0x0 PUSH8 0xFFFFFFFFFFFFFFFF DUP3 GT ISZERO PUSH2 0x895F JUMPI PUSH2 0x895E PUSH2 0x8D04 JUMP JUMPDEST JUMPDEST PUSH2 0x8968 DUP3 PUSH2 0x8D33 JUMP JUMPDEST SWAP1 POP PUSH1 0x20 DUP2 ADD SWAP1 POP SWAP2 SWAP1 POP JUMP JUMPDEST PUSH1 0x0 DUP2 SWAP1 POP PUSH1 0x20 DUP3 ADD SWAP1 POP SWAP2 SWAP1 POP JUMP JUMPDEST PUSH1 0x0 DUP2 SWAP1 POP PUSH1 0x20 DUP3 ADD SWAP1 POP SWAP2 SWAP1 POP JUMP JUMPDEST PUSH1 0x0 DUP2 SWAP1 POP PUSH1 0x20 DUP3 ADD SWAP1 POP SWAP2 SWAP1 POP JUMP JUMPDEST PUSH1 0x0 DUP2 SWAP1 POP PUSH1 0x20 DUP3 ADD SWAP1 POP SWAP2 SWAP1 POP JUMP JUMPDEST PUSH1 0x0 DUP2 MLOAD SWAP1 POP SWAP2 SWAP1 POP JUMP JUMPDEST PUSH1 0x0 DUP2 MLOAD SWAP1 POP SWAP2 SWAP1 POP JUMP JUMPDEST PUSH1 0x0 DUP2 MLOAD SWAP1 POP SWAP2 SWAP1 POP JUMP JUMPDEST PUSH1 0x0 DUP2 MLOAD SWAP1 POP SWAP2 SWAP1 POP JUMP JUMPDEST PUSH1 0x0 DUP2 MLOAD SWAP1 POP SWAP2 SWAP1 POP JUMP JUMPDEST PUSH1 0x0 DUP2 MLOAD SWAP1 POP SWAP2 SWAP1 POP JUMP JUMPDEST PUSH1 0x0 PUSH1 0x20 DUP3 ADD SWAP1 POP SWAP2 SWAP1 POP JUMP JUMPDEST PUSH1 0x0 PUSH1 0x20 DUP3 ADD SWAP1 POP SWAP2 SWAP1 POP JUMP JUMPDEST PUSH1 0x0 PUSH1 0x20 DUP3 ADD SWAP1 POP SWAP2 SWAP1 POP JUMP JUMPDEST PUSH1 0x0 PUSH1 0x20 DUP3 ADD SWAP1 POP SWAP2 SWAP1 POP JUMP JUMPDEST PUSH1 0x0 DUP3 DUP3 MSTORE PUSH1 0x20 DUP3 ADD SWAP1 POP SWAP3 SWAP2 POP POP JUMP JUMPDEST PUSH1 0x0 DUP3 DUP3 MSTORE PUSH1 0x20 DUP3 ADD SWAP1 POP SWAP3 SWAP2 POP POP JUMP JUMPDEST PUSH1 0x0 DUP3 DUP3 MSTORE PUSH1 0x20 DUP3 ADD SWAP1 POP SWAP3 SWAP2 POP POP JUMP JUMPDEST PUSH1 0x0 DUP3 DUP3 MSTORE PUSH1 0x20 DUP3 ADD SWAP1 POP SWAP3 SWAP2 POP POP JUMP JUMPDEST PUSH1 0x0 DUP2 SWAP1 POP SWAP3 SWAP2 POP POP JUMP JUMPDEST PUSH1 0x0 DUP3 DUP3 MSTORE PUSH1 0x20 DUP3 ADD SWAP1 POP SWAP3 SWAP2 POP POP JUMP JUMPDEST PUSH1 0x0 PUSH2 0x8A96 DUP3 PUSH2 0x8B70 JUMP JUMPDEST SWAP2 POP PUSH2 0x8AA1 DUP4 PUSH2 0x8B70 JUMP JUMPDEST SWAP3 POP DUP3 PUSH32 0xFFFFFFFFFFFFFFFFFFFFFFFFFFFFFFFFFFFFFFFFFFFFFFFFFFFFFFFFFFFFFFFF SUB DUP3 GT ISZERO PUSH2 0x8AD6 JUMPI PUSH2 0x8AD5 PUSH2 0x8CA6 JUMP JUMPDEST JUMPDEST DUP3 DUP3 ADD SWAP1 POP SWAP3 SWAP2 POP POP JUMP JUMPDEST PUSH1 0x0 PUSH2 0x8AEC DUP3 PUSH2 0x8B70 JUMP JUMPDEST SWAP2 POP PUSH2 0x8AF7 DUP4 PUSH2 0x8B70 JUMP JUMPDEST SWAP3 POP DUP3 DUP3 LT ISZERO PUSH2 0x8B0A JUMPI PUSH2 0x8B09 PUSH2 0x8CA6 JUMP JUMPDEST JUMPDEST DUP3 DUP3 SUB SWAP1 POP SWAP3 SWAP2 POP POP JUMP JUMPDEST PUSH1 0x0 PUSH2 0x8B20 DUP3 PUSH2 0x8B50 JUMP JUMPDEST SWAP1 POP SWAP2 SWAP1 POP JUMP JUMPDEST PUSH1 0x0 DUP2 ISZERO ISZERO SWAP1 POP SWAP2 SWAP1 POP JUMP JUMPDEST PUSH1 0x0 DUP2 SWAP1 POP PUSH2 0x8B41 DUP3 PUSH2 0x9545 JUMP JUMPDEST SWAP2 SWAP1 POP JUMP JUMPDEST PUSH1 0x0 DUP2 SWAP1 POP SWAP2 SWAP1 POP JUMP JUMPDEST PUSH1 0x0 PUSH20 0xFFFFFFFFFFFFFFFFFFFFFFFFFFFFFFFFFFFFFFFF DUP3 AND SWAP1 POP SWAP2 SWAP1 POP JUMP JUMPDEST PUSH1 0x0 DUP2 SWAP1 POP SWAP2 SWAP1 POP JUMP JUMPDEST PUSH1 0x0 PUSH10 0xFFFFFFFFFFFFFFFFFFFF DUP3 AND SWAP1 POP SWAP2 SWAP1 POP JUMP JUMPDEST PUSH1 0x0 PUSH2 0x8B9B DUP3 PUSH2 0x8BA2 JUMP JUMPDEST SWAP1 POP SWAP2 SWAP1 POP JUMP JUMPDEST PUSH1 0x0 PUSH2 0x8BAD DUP3 PUSH2 0x8B50 JUMP JUMPDEST SWAP1 POP SWAP2 SWAP1 POP JUMP JUMPDEST PUSH1 0x0 PUSH2 0x8BBF DUP3 PUSH2 0x8BC6 JUMP JUMPDEST SWAP1 POP SWAP2 SWAP1 POP JUMP JUMPDEST PUSH1 0x0 PUSH2 0x8BD1 DUP3 PUSH2 0x8B50 JUMP JUMPDEST SWAP1 POP SWAP2 SWAP1 POP JUMP JUMPDEST PUSH1 0x0 PUSH2 0x8BE3 DUP3 PUSH2 0x8B33 JUMP JUMPDEST SWAP1 POP SWAP2 SWAP1 POP JUMP JUMPDEST DUP3 DUP2 DUP4 CALLDATACOPY PUSH1 0x0 DUP4 DUP4 ADD MSTORE POP POP POP JUMP JUMPDEST PUSH1 0x0 JUMPDEST DUP4 DUP2 LT ISZERO PUSH2 0x8C17 JUMPI DUP1 DUP3 ADD MLOAD DUP2 DUP5 ADD MSTORE PUSH1 0x20 DUP2 ADD SWAP1 POP PUSH2 0x8BFC JUMP JUMPDEST DUP4 DUP2 GT ISZERO PUSH2 0x8C26 JUMPI PUSH1 0x0 DUP5 DUP5 ADD MSTORE JUMPDEST POP POP POP POP JUMP JUMPDEST PUSH2 0x8C35 DUP3 PUSH2 0x8D33 JUMP JUMPDEST DUP2 ADD DUP2 DUP2 LT PUSH8 0xFFFFFFFFFFFFFFFF DUP3 GT OR ISZERO PUSH2 0x8C54 JUMPI PUSH2 0x8C53 PUSH2 0x8D04 JUMP JUMPDEST JUMPDEST DUP1 PUSH1 0x40 MSTORE POP POP POP JUMP JUMPDEST PUSH1 0x0 PUSH2 0x8C68 DUP3 PUSH2 0x8B70 JUMP JUMPDEST SWAP2 POP PUSH32 0xFFFFFFFFFFFFFFFFFFFFFFFFFFFFFFFFFFFFFFFFFFFFFFFFFFFFFFFFFFFFFFFF DUP3 EQ ISZERO PUSH2 0x8C9B JUMPI PUSH2 0x8C9A PUSH2 0x8CA6 JUMP JUMPDEST JUMPDEST PUSH1 0x1 DUP3 ADD SWAP1 POP SWAP2 SWAP1 POP JUMP JUMPDEST PUSH32 0x4E487B7100000000000000000000000000000000000000000000000000000000 PUSH1 0x0 MSTORE PUSH1 0x11 PUSH1 0x4 MSTORE PUSH1 0x24 PUSH1 0x0 REVERT JUMPDEST PUSH32 0x4E487B7100000000000000000000000000000000000000000000000000000000 PUSH1 0x0 MSTORE PUSH1 0x21 PUSH1 0x4 MSTORE PUSH1 0x24 PUSH1 0x0 REVERT JUMPDEST PUSH32 0x4E487B7100000000000000000000000000000000000000000000000000000000 PUSH1 0x0 MSTORE PUSH1 0x41 PUSH1 0x4 MSTORE PUSH1 0x24 PUSH1 0x0 REVERT JUMPDEST PUSH1 0x0 PUSH1 0x1F NOT PUSH1 0x1F DUP4 ADD AND SWAP1 POP SWAP2 SWAP1 POP JUMP JUMPDEST PUSH32 0x5061757361626C653A206E6F7420706175736564000000000000000000000000 PUSH1 0x0 DUP3 ADD MSTORE POP JUMP JUMPDEST PUSH32 0x4E6F7420656C696769626C6520666F7220726566756E64000000000000000000 PUSH1 0x0 DUP3 ADD MSTORE POP JUMP JUMPDEST PUSH32 0x507265646963746F696E3A2043616E6E6F742072656164206120746F6B656E00 PUSH1 0x0 DUP3 ADD MSTORE POP JUMP JUMPDEST PUSH32 0x526F756E64206E6F742073746172746564000000000000000000000000000000 PUSH1 0x0 DUP3 ADD MSTORE POP JUMP JUMPDEST PUSH32 0x45524331393637557067726164653A207570677261646520627265616B732066 PUSH1 0x0 DUP3 ADD MSTORE PUSH32 0x7572746865722075706772616465730000000000000000000000000000000000 PUSH1 0x20 DUP3 ADD MSTORE POP JUMP JUMPDEST PUSH32 0x4F776E61626C653A206E6577206F776E657220697320746865207A65726F2061 PUSH1 0x0 DUP3 ADD MSTORE PUSH32 0x6464726573730000000000000000000000000000000000000000000000000000 PUSH1 0x20 DUP3 ADD MSTORE POP JUMP JUMPDEST PUSH32 0x4F7261636C652075706461746520726F756E644964206D757374206265206C61 PUSH1 0x0 DUP3 ADD MSTORE PUSH32 0x72676572207468616E206F7261636C654C6174657374526F756E644964000000 PUSH1 0x20 DUP3 ADD MSTORE POP JUMP JUMPDEST PUSH32 0x436F6E7472616374206E6F7420616C6C6F776564000000000000000000000000 PUSH1 0x0 DUP3 ADD MSTORE POP JUMP JUMPDEST PUSH32 0x6275666665725365636F6E6473206D75737420626520696E666572696F722074 PUSH1 0x0 DUP3 ADD MSTORE PUSH32 0x6F20696E74657276616C5365636F6E6473000000000000000000000000000000 PUSH1 0x20 DUP3 ADD MSTORE POP JUMP JUMPDEST PUSH32 0x507265646963746F696E3A2043616E6E6F74206164642061207A65726F206164 PUSH1 0x0 DUP3 ADD MSTORE PUSH32 0x6472657373000000000000000000000000000000000000000000000000000000 PUSH1 0x20 DUP3 ADD MSTORE POP JUMP JUMPDEST PUSH32 0x4E6F742079657420636C6F736554696D657374616D7000000000000000000000 PUSH1 0x0 DUP3 ADD MSTORE POP JUMP JUMPDEST PUSH32 0x4E6F74206F70657261746F722F61646D696E0000000000000000000000000000 PUSH1 0x0 DUP3 ADD MSTORE POP JUMP JUMPDEST PUSH32 0x546F6B656E206E6F74207072656469637461626C650000000000000000000000 PUSH1 0x0 DUP3 ADD MSTORE POP JUMP JUMPDEST PUSH32 0x416464726573733A20696E73756666696369656E742062616C616E636520666F PUSH1 0x0 DUP3 ADD MSTORE PUSH32 0x722063616C6C0000000000000000000000000000000000000000000000000000 PUSH1 0x20 DUP3 ADD MSTORE POP JUMP JUMPDEST PUSH32 0x5061757361626C653A2070617573656400000000000000000000000000000000 PUSH1 0x0 DUP3 ADD MSTORE POP JUMP JUMPDEST PUSH32 0x43616E6E6F74206265207A65726F206164647265737300000000000000000000 PUSH1 0x0 DUP3 ADD MSTORE POP JUMP JUMPDEST PUSH32 0x496E697469616C697A61626C653A20636F6E747261637420697320616C726561 PUSH1 0x0 DUP3 ADD MSTORE PUSH32 0x647920696E697469616C697A6564000000000000000000000000000000000000 PUSH1 0x20 DUP3 ADD MSTORE POP JUMP JUMPDEST PUSH32 0x50726F787920636F6E7472616374206E6F7420616C6C6F776564000000000000 PUSH1 0x0 DUP3 ADD MSTORE POP JUMP JUMPDEST PUSH32 0x43616E206F6E6C7920737461727420726F756E6420616674657220726F756E64 PUSH1 0x0 DUP3 ADD MSTORE PUSH32 0x206E2D312068617320656E646564000000000000000000000000000000000000 PUSH1 0x20 DUP3 ADD MSTORE POP JUMP JUMPDEST PUSH32 0x455243313936373A206E657720696D706C656D656E746174696F6E206973206E PUSH1 0x0 DUP3 ADD MSTORE PUSH32 0x6F74206120636F6E747261637400000000000000000000000000000000000000 PUSH1 0x20 DUP3 ADD MSTORE POP JUMP JUMPDEST PUSH32 0x4F776E61626C653A2063616C6C6572206973206E6F7420746865206F776E6572 PUSH1 0x0 DUP3 ADD MSTORE POP JUMP JUMPDEST PUSH32 0x526F756E64206E6F74206265747461626C650000000000000000000000000000 PUSH1 0x0 DUP3 ADD MSTORE POP JUMP JUMPDEST PUSH32 0x4D757374206265207375706572696F7220746F20300000000000000000000000 PUSH1 0x0 DUP3 ADD MSTORE POP JUMP JUMPDEST PUSH32 0x43616E206F6E6C79207374617274206E657720726F756E642061667465722072 PUSH1 0x0 DUP3 ADD MSTORE PUSH32 0x6F756E64206E2D3120656E6454696D657374616D700000000000000000000000 PUSH1 0x20 DUP3 ADD MSTORE POP JUMP JUMPDEST PUSH32 0x416464726573733A2064656C65676174652063616C6C20746F206E6F6E2D636F PUSH1 0x0 DUP3 ADD MSTORE PUSH32 0x6E74726163740000000000000000000000000000000000000000000000000000 PUSH1 0x20 DUP3 ADD MSTORE POP JUMP JUMPDEST PUSH32 0x416464726573733A2063616C6C20746F206E6F6E2D636F6E7472616374000000 PUSH1 0x0 DUP3 ADD MSTORE POP JUMP JUMPDEST PUSH32 0x507265642063616E6E6F74206265207265636F76657265640000000000000000 PUSH1 0x0 DUP3 ADD MSTORE POP JUMP JUMPDEST PUSH32 0x43616E206F6E6C7920626574206F6E63652070657220726F756E640000000000 PUSH1 0x0 DUP3 ADD MSTORE POP JUMP JUMPDEST PUSH32 0x5361666545524332303A204552433230206F7065726174696F6E20646964206E PUSH1 0x0 DUP3 ADD MSTORE PUSH32 0x6F74207375636365656400000000000000000000000000000000000000000000 PUSH1 0x20 DUP3 ADD MSTORE POP JUMP JUMPDEST PUSH32 0x4275666665725365636F6E647320657863656564656400000000000000000000 PUSH1 0x0 DUP3 ADD MSTORE POP JUMP JUMPDEST PUSH32 0x5265656E7472616E637947756172643A207265656E7472616E742063616C6C00 PUSH1 0x0 DUP3 ADD MSTORE POP JUMP JUMPDEST PUSH32 0x42657420697320746F6F206561726C792F6C6174650000000000000000000000 PUSH1 0x0 DUP3 ADD MSTORE POP JUMP JUMPDEST PUSH32 0x4F7261636C6520757064617465206578636565646564206D61782074696D6573 PUSH1 0x0 DUP3 ADD MSTORE PUSH32 0x74616D7020616C6C6F77616E6365000000000000000000000000000000000000 PUSH1 0x20 DUP3 ADD MSTORE POP JUMP JUMPDEST PUSH32 0x6265745365636F6E6473206D75737420626520696E666572696F7220746F2069 PUSH1 0x0 DUP3 ADD MSTORE PUSH32 0x6E74657276616C5365636F6E6473000000000000000000000000000000000000 PUSH1 0x20 DUP3 ADD MSTORE POP JUMP JUMPDEST PUSH32 0x4E6F74206F70657261746F720000000000000000000000000000000000000000 PUSH1 0x0 DUP3 ADD MSTORE POP JUMP JUMPDEST PUSH32 0x4E6F742061646D696E0000000000000000000000000000000000000000000000 PUSH1 0x0 DUP3 ADD MSTORE POP JUMP JUMPDEST PUSH32 0x43616E2774207072656469637420666F7220746F6B656E000000000000000000 PUSH1 0x0 DUP3 ADD MSTORE POP JUMP JUMPDEST PUSH1 0x2 DUP2 LT PUSH2 0x9556 JUMPI PUSH2 0x9555 PUSH2 0x8CD5 JUMP JUMPDEST JUMPDEST POP JUMP JUMPDEST PUSH2 0x9562 DUP2 PUSH2 0x8B15 JUMP JUMPDEST DUP2 EQ PUSH2 0x956D JUMPI PUSH1 0x0 DUP1 REVERT JUMPDEST POP JUMP JUMPDEST PUSH2 0x9579 DUP2 PUSH2 0x8B27 JUMP JUMPDEST DUP2 EQ PUSH2 0x9584 JUMPI PUSH1 0x0 DUP1 REVERT JUMPDEST POP JUMP JUMPDEST PUSH2 0x9590 DUP2 PUSH2 0x8B46 JUMP JUMPDEST DUP2 EQ PUSH2 0x959B JUMPI PUSH1 0x0 DUP1 REVERT JUMPDEST POP JUMP JUMPDEST PUSH2 0x95A7 DUP2 PUSH2 0x8B70 JUMP JUMPDEST DUP2 EQ PUSH2 0x95B2 JUMPI PUSH1 0x0 DUP1 REVERT JUMPDEST POP JUMP JUMPDEST PUSH2 0x95BE DUP2 PUSH2 0x8B7A JUMP JUMPDEST DUP2 EQ PUSH2 0x95C9 JUMPI PUSH1 0x0 DUP1 REVERT JUMPDEST POP JUMP INVALID COINBASE PUSH5 0x6472657373 GASPRICE KECCAK256 PUSH13 0x6F772D6C6576656C2064656C65 PUSH8 0x6174652063616C6C KECCAK256 PUSH7 0x61696C6564A264 PUSH10 0x70667358221220B733F0 GASLIMIT CODESIZE 0xE8 0x5C 0xC9 PUSH29 0xE9746D34D39DE9016615EEC38A6619C4470E6F652C6F964736F6C6343 STOP ADDMOD MUL STOP CALLER "
		},
		"gasEstimates": {
			"creation": {
				"codeDepositCost": "7688200",
				"executionCost": "10084",
				"totalCost": "7698284"
			},
			"external": {
				"BNB()": "468",
				"MAX_TREASURY_FEE()": "395",
				"addTokens(address[],address[])": "infinite",
				"adminAddress()": "1324",
				"betAmount()": "1262",
				"betSeconds()": "1264",
				"bufferSeconds()": "1218",
				"claim(uint256[])": "infinite",
				"claimTreasury()": "infinite",
				"currentEpoch()": "1175",
				"endRound()": "infinite",
				"getRound(uint256)": "infinite",
				"getStats(uint256)": "infinite",
				"getTokens()": "infinite",
				"getUserRounds(address,uint256,uint256)": "infinite",
				"getUserRoundsLength(address)": "1706",
				"initialize(address,address,uint256,uint256,uint256,uint256,uint256,uint256)": "infinite",
				"intervalSeconds()": "1263",
				"ledger(uint256,address)": "infinite",
				"lostRound(address,uint256)": "9778",
				"operatorAddress()": "1283",
				"oracleLatestRoundId()": "1240",
				"oracleUpdateAllowance()": "1285",
				"oracles(address)": "infinite",
				"owner()": "1334",
				"pause()": "infinite",
				"paused()": "1291",
				"pred()": "488",
				"predictBear(uint256,address)": "infinite",
				"predictBull(uint256,address)": "infinite",
				"recoverToken(address,uint256)": "infinite",
				"refundable(uint256,address)": "infinite",
				"removeTokens(uint256[])": "infinite",
				"renounceOwnership()": "24463",
				"rounds(uint256)": "infinite",
				"setAdmin(address)": "infinite",
				"setBetAmount(uint256)": "infinite",
				"setBufferBetAndIntervalSeconds(uint256,uint256,uint256)": "infinite",
				"setOperator(address)": "infinite",
				"setOracleUpdateAllowance(uint256)": "infinite",
				"setOracles(address[],address[])": "infinite",
				"setTokenMaxBet(uint256)": "infinite",
				"startRound()": "infinite",
				"tokenMaxBet()": "1263",
				"tokens(uint256)": "2468",
				"transferOwnership(address)": "24811",
				"treasuryAmount()": "1242",
				"unpause()": "infinite",
				"upgradeTo(address)": "infinite",
				"upgradeToAndCall(address,bytes)": "infinite",
				"userRounds(address,uint256)": "infinite",
				"wonRound(address,uint256)": "9753"
			},
			"internal": {
				"_authorizeUpgrade(address)": "infinite",
				"_bettable(uint256)": "infinite",
				"_getPriceFromOracle(contract AggregatorV3Interface)": "infinite",
				"_isContract(address)": "747",
				"_safeEndRound()": "infinite",
				"_safeStartRound(uint256)": "infinite",
				"_setEndPrices(struct Prediction.Round storage pointer)": "infinite",
				"_setStartPrices()": "infinite",
				"_startRound(uint256)": "infinite"
			}
		},
		"methodIdentifiers": {
			"BNB()": "58f7f6d2",
			"MAX_TREASURY_FEE()": "f2b3c809",
			"addTokens(address[],address[])": "62bfdf04",
			"adminAddress()": "fc6f9468",
			"betAmount()": "d24257c0",
			"betSeconds()": "24360ae4",
			"bufferSeconds()": "eaba2361",
			"claim(uint256[])": "6ba4c138",
			"claimTreasury()": "003bdc74",
			"currentEpoch()": "76671808",
			"endRound()": "749aa2d9",
			"getRound(uint256)": "8f1327c0",
			"getStats(uint256)": "7b303965",
			"getTokens()": "aa6ca808",
			"getUserRounds(address,uint256,uint256)": "951fd600",
			"getUserRoundsLength(address)": "273867d4",
			"initialize(address,address,uint256,uint256,uint256,uint256,uint256,uint256)": "8ba796af",
			"intervalSeconds()": "7d1cd04f",
			"ledger(uint256,address)": "7285c58b",
			"lostRound(address,uint256)": "1c8d04e2",
			"operatorAddress()": "127effb2",
			"oracleLatestRoundId()": "ec324703",
			"oracleUpdateAllowance()": "60554011",
			"oracles(address)": "addd5099",
			"owner()": "8da5cb5b",
			"pause()": "8456cb59",
			"paused()": "5c975abb",
			"pred()": "e5c9ad2e",
			"predictBear(uint256,address)": "296a80a9",
			"predictBull(uint256,address)": "57abd0f8",
			"recoverToken(address,uint256)": "b29a8140",
			"refundable(uint256,address)": "7bf41254",
			"removeTokens(uint256[])": "ff59bcd0",
			"renounceOwnership()": "715018a6",
			"rounds(uint256)": "8c65c81f",
			"setAdmin(address)": "704b6c02",
			"setBetAmount(uint256)": "53a79d74",
			"setBufferBetAndIntervalSeconds(uint256,uint256,uint256)": "90df00c6",
			"setOperator(address)": "b3ab15fb",
			"setOracleUpdateAllowance(uint256)": "cf2f5039",
			"setOracles(address[],address[])": "78d5f781",
			"setTokenMaxBet(uint256)": "6e36c678",
			"startRound()": "55e3f086",
			"tokenMaxBet()": "5ea9417c",
			"tokens(uint256)": "4f64b2be",
			"transferOwnership(address)": "f2fde38b",
			"treasuryAmount()": "368acb09",
			"unpause()": "3f4ba83a",
			"upgradeTo(address)": "3659cfe6",
			"upgradeToAndCall(address,bytes)": "4f1ef286",
			"userRounds(address,uint256)": "dd1f7596",
			"wonRound(address,uint256)": "1521604e"
		}
	},
	"abi": [
		{
			"anonymous": false,
			"inputs": [
				{
					"indexed": false,
					"internalType": "address",
					"name": "previousAdmin",
					"type": "address"
				},
				{
					"indexed": false,
					"internalType": "address",
					"name": "newAdmin",
					"type": "address"
				}
			],
			"name": "AdminChanged",
			"type": "event"
		},
		{
			"anonymous": false,
			"inputs": [
				{
					"indexed": true,
					"internalType": "address",
					"name": "beacon",
					"type": "address"
				}
			],
			"name": "BeaconUpgraded",
			"type": "event"
		},
		{
			"anonymous": false,
			"inputs": [
				{
					"indexed": true,
					"internalType": "address",
					"name": "sender",
					"type": "address"
				},
				{
					"indexed": true,
					"internalType": "uint256",
					"name": "epoch",
					"type": "uint256"
				},
				{
					"indexed": false,
					"internalType": "uint256",
					"name": "amount",
					"type": "uint256"
				}
			],
			"name": "Claim",
			"type": "event"
		},
		{
			"anonymous": false,
			"inputs": [
				{
					"indexed": true,
					"internalType": "uint256",
					"name": "epoch",
					"type": "uint256"
				},
				{
					"indexed": true,
					"internalType": "uint256",
					"name": "roundId",
					"type": "uint256"
				},
				{
					"indexed": false,
					"internalType": "int256",
					"name": "price",
					"type": "int256"
				}
			],
			"name": "EndRound",
			"type": "event"
		},
		{
			"anonymous": false,
			"inputs": [
				{
					"indexed": false,
					"internalType": "address",
					"name": "admin",
					"type": "address"
				}
			],
			"name": "NewAdminAddress",
			"type": "event"
		},
		{
			"anonymous": false,
			"inputs": [
				{
					"indexed": true,
					"internalType": "uint256",
					"name": "epoch",
					"type": "uint256"
				},
				{
					"indexed": false,
					"internalType": "uint256",
					"name": "betAmount",
					"type": "uint256"
				}
			],
			"name": "NewBetAmount",
			"type": "event"
		},
		{
			"anonymous": false,
			"inputs": [
				{
					"indexed": false,
					"internalType": "uint256",
					"name": "bufferSeconds",
					"type": "uint256"
				},
				{
					"indexed": false,
					"internalType": "uint256",
					"name": "intervalSeconds",
					"type": "uint256"
				}
			],
			"name": "NewBufferAndIntervalSeconds",
			"type": "event"
		},
		{
			"anonymous": false,
			"inputs": [
				{
					"indexed": false,
					"internalType": "address",
					"name": "operator",
					"type": "address"
				}
			],
			"name": "NewOperatorAddress",
			"type": "event"
		},
		{
			"anonymous": false,
			"inputs": [
				{
					"indexed": false,
					"internalType": "address",
					"name": "oracle",
					"type": "address"
				},
				{
					"indexed": false,
					"internalType": "address",
					"name": "token",
					"type": "address"
				}
			],
			"name": "NewOracle",
			"type": "event"
		},
		{
			"anonymous": false,
			"inputs": [
				{
					"indexed": false,
					"internalType": "uint256",
					"name": "oracleUpdateAllowance",
					"type": "uint256"
				}
			],
			"name": "NewOracleUpdateAllowance",
			"type": "event"
		},
		{
			"anonymous": false,
			"inputs": [
				{
					"indexed": false,
					"internalType": "uint256",
					"name": "tokenMaxBet",
					"type": "uint256"
				}
			],
			"name": "NewTokenMaxBet",
			"type": "event"
		},
		{
			"anonymous": false,
			"inputs": [
				{
					"indexed": true,
					"internalType": "address",
					"name": "previousOwner",
					"type": "address"
				},
				{
					"indexed": true,
					"internalType": "address",
					"name": "newOwner",
					"type": "address"
				}
			],
			"name": "OwnershipTransferred",
			"type": "event"
		},
		{
			"anonymous": false,
			"inputs": [
				{
					"indexed": true,
					"internalType": "uint256",
					"name": "epoch",
					"type": "uint256"
				}
			],
			"name": "Pause",
			"type": "event"
		},
		{
			"anonymous": false,
			"inputs": [
				{
					"indexed": false,
					"internalType": "address",
					"name": "account",
					"type": "address"
				}
			],
			"name": "Paused",
			"type": "event"
		},
		{
			"anonymous": false,
			"inputs": [
				{
					"indexed": true,
					"internalType": "address",
					"name": "sender",
					"type": "address"
				},
				{
					"indexed": true,
					"internalType": "uint256",
					"name": "epoch",
					"type": "uint256"
				},
				{
					"indexed": true,
					"internalType": "address",
					"name": "token",
					"type": "address"
				},
				{
					"indexed": false,
					"internalType": "uint256",
					"name": "amount",
					"type": "uint256"
				}
			],
			"name": "PredictBear",
			"type": "event"
		},
		{
			"anonymous": false,
			"inputs": [
				{
					"indexed": true,
					"internalType": "address",
					"name": "sender",
					"type": "address"
				},
				{
					"indexed": true,
					"internalType": "uint256",
					"name": "epoch",
					"type": "uint256"
				},
				{
					"indexed": true,
					"internalType": "address",
					"name": "token",
					"type": "address"
				},
				{
					"indexed": false,
					"internalType": "uint256",
					"name": "amount",
					"type": "uint256"
				}
			],
			"name": "PredictBull",
			"type": "event"
		},
		{
			"anonymous": false,
			"inputs": [
				{
					"indexed": true,
					"internalType": "uint256",
					"name": "epoch",
					"type": "uint256"
				}
			],
			"name": "StartRound",
			"type": "event"
		},
		{
			"anonymous": false,
			"inputs": [
				{
					"indexed": false,
					"internalType": "address",
					"name": "token",
					"type": "address"
				},
				{
					"indexed": false,
					"internalType": "address",
					"name": "oracle",
					"type": "address"
				}
			],
			"name": "TokenAdded",
			"type": "event"
		},
		{
			"anonymous": false,
			"inputs": [
				{
					"indexed": true,
					"internalType": "address",
					"name": "token",
					"type": "address"
				},
				{
					"indexed": false,
					"internalType": "uint256",
					"name": "amount",
					"type": "uint256"
				}
			],
			"name": "TokenRecovery",
			"type": "event"
		},
		{
			"anonymous": false,
			"inputs": [
				{
					"indexed": false,
					"internalType": "address",
					"name": "token",
					"type": "address"
				},
				{
					"indexed": false,
					"internalType": "address",
					"name": "oracle",
					"type": "address"
				}
			],
			"name": "TokenRemoved",
			"type": "event"
		},
		{
			"anonymous": false,
			"inputs": [
				{
					"indexed": false,
					"internalType": "uint256",
					"name": "amount",
					"type": "uint256"
				}
			],
			"name": "TreasuryClaim",
			"type": "event"
		},
		{
			"anonymous": false,
			"inputs": [
				{
					"indexed": true,
					"internalType": "uint256",
					"name": "epoch",
					"type": "uint256"
				}
			],
			"name": "Unpause",
			"type": "event"
		},
		{
			"anonymous": false,
			"inputs": [
				{
					"indexed": false,
					"internalType": "address",
					"name": "account",
					"type": "address"
				}
			],
			"name": "Unpaused",
			"type": "event"
		},
		{
			"anonymous": false,
			"inputs": [
				{
					"indexed": true,
					"internalType": "address",
					"name": "implementation",
					"type": "address"
				}
			],
			"name": "Upgraded",
			"type": "event"
		},
		{
			"inputs": [],
			"name": "BNB",
			"outputs": [
				{
					"internalType": "address",
					"name": "",
					"type": "address"
				}
			],
			"stateMutability": "view",
			"type": "function"
		},
		{
			"inputs": [],
			"name": "MAX_TREASURY_FEE",
			"outputs": [
				{
					"internalType": "uint256",
					"name": "",
					"type": "uint256"
				}
			],
			"stateMutability": "view",
			"type": "function"
		},
		{
			"inputs": [
				{
					"internalType": "address[]",
					"name": "_tokens",
					"type": "address[]"
				},
				{
					"internalType": "address[]",
					"name": "_oracles",
					"type": "address[]"
				}
			],
			"name": "addTokens",
			"outputs": [],
			"stateMutability": "nonpayable",
			"type": "function"
		},
		{
			"inputs": [],
			"name": "adminAddress",
			"outputs": [
				{
					"internalType": "address",
					"name": "",
					"type": "address"
				}
			],
			"stateMutability": "view",
			"type": "function"
		},
		{
			"inputs": [],
			"name": "betAmount",
			"outputs": [
				{
					"internalType": "uint256",
					"name": "",
					"type": "uint256"
				}
			],
			"stateMutability": "view",
			"type": "function"
		},
		{
			"inputs": [],
			"name": "betSeconds",
			"outputs": [
				{
					"internalType": "uint256",
					"name": "",
					"type": "uint256"
				}
			],
			"stateMutability": "view",
			"type": "function"
		},
		{
			"inputs": [],
			"name": "bufferSeconds",
			"outputs": [
				{
					"internalType": "uint256",
					"name": "",
					"type": "uint256"
				}
			],
			"stateMutability": "view",
			"type": "function"
		},
		{
			"inputs": [
				{
					"internalType": "uint256[]",
					"name": "epochs",
					"type": "uint256[]"
				}
			],
			"name": "claim",
			"outputs": [],
			"stateMutability": "nonpayable",
			"type": "function"
		},
		{
			"inputs": [],
			"name": "claimTreasury",
			"outputs": [],
			"stateMutability": "nonpayable",
			"type": "function"
		},
		{
			"inputs": [],
			"name": "currentEpoch",
			"outputs": [
				{
					"internalType": "uint256",
					"name": "",
					"type": "uint256"
				}
			],
			"stateMutability": "view",
			"type": "function"
		},
		{
			"inputs": [],
			"name": "endRound",
			"outputs": [],
			"stateMutability": "nonpayable",
			"type": "function"
		},
		{
			"inputs": [
				{
					"internalType": "uint256",
					"name": "_round",
					"type": "uint256"
				}
			],
			"name": "getRound",
			"outputs": [
				{
					"internalType": "uint256",
					"name": "epoch",
					"type": "uint256"
				},
				{
					"internalType": "uint256",
					"name": "lockedTimestamp",
					"type": "uint256"
				},
				{
					"internalType": "uint256",
					"name": "closeTimestamp",
					"type": "uint256"
				},
				{
					"internalType": "uint256",
					"name": "totalAmount",
					"type": "uint256"
				},
				{
					"internalType": "bool",
					"name": "oraclesCalled",
					"type": "bool"
				},
				{
					"internalType": "address[]",
					"name": "_tokens",
					"type": "address[]"
				},
				{
					"internalType": "int256[]",
					"name": "lockedPrices",
					"type": "int256[]"
				},
				{
					"internalType": "int256[]",
					"name": "closePrices",
					"type": "int256[]"
				},
				{
					"internalType": "uint256[]",
					"name": "lockedOracleIds",
					"type": "uint256[]"
				},
				{
					"internalType": "uint256[]",
					"name": "closeOracleIds",
					"type": "uint256[]"
				},
				{
					"internalType": "uint256[]",
					"name": "bets",
					"type": "uint256[]"
				}
			],
			"stateMutability": "view",
			"type": "function"
		},
		{
			"inputs": [
				{
					"internalType": "uint256",
					"name": "_round",
					"type": "uint256"
				}
			],
			"name": "getStats",
			"outputs": [
				{
					"internalType": "address[]",
					"name": "_tokens",
					"type": "address[]"
				},
				{
					"internalType": "uint256[]",
					"name": "bulls",
					"type": "uint256[]"
				},
				{
					"internalType": "uint256[]",
					"name": "bears",
					"type": "uint256[]"
				}
			],
			"stateMutability": "view",
			"type": "function"
		},
		{
			"inputs": [],
			"name": "getTokens",
			"outputs": [
				{
					"internalType": "address[]",
					"name": "",
					"type": "address[]"
				}
			],
			"stateMutability": "view",
			"type": "function"
		},
		{
			"inputs": [
				{
					"internalType": "address",
					"name": "user",
					"type": "address"
				},
				{
					"internalType": "uint256",
					"name": "cursor",
					"type": "uint256"
				},
				{
					"internalType": "uint256",
					"name": "size",
					"type": "uint256"
				}
			],
			"name": "getUserRounds",
			"outputs": [
				{
					"internalType": "uint256[]",
					"name": "",
					"type": "uint256[]"
				},
				{
					"components": [
						{
							"internalType": "enum Prediction.Position",
							"name": "position",
							"type": "uint8"
						},
						{
							"internalType": "address",
							"name": "token",
							"type": "address"
						},
						{
							"internalType": "uint256",
							"name": "amount",
							"type": "uint256"
						},
						{
							"internalType": "bool",
							"name": "claimed",
							"type": "bool"
						}
					],
					"internalType": "struct Prediction.BetInfo[]",
					"name": "",
					"type": "tuple[]"
				},
				{
					"internalType": "uint256",
					"name": "",
					"type": "uint256"
				}
			],
			"stateMutability": "view",
			"type": "function"
		},
		{
			"inputs": [
				{
					"internalType": "address",
					"name": "user",
					"type": "address"
				}
			],
			"name": "getUserRoundsLength",
			"outputs": [
				{
					"internalType": "uint256",
					"name": "",
					"type": "uint256"
				}
			],
			"stateMutability": "view",
			"type": "function"
		},
		{
			"inputs": [
				{
					"internalType": "address",
					"name": "_adminAddress",
					"type": "address"
				},
				{
					"internalType": "address",
					"name": "_operatorAddress",
					"type": "address"
				},
				{
					"internalType": "uint256",
					"name": "_intervalSeconds",
					"type": "uint256"
				},
				{
					"internalType": "uint256",
					"name": "_bufferSeconds",
					"type": "uint256"
				},
				{
					"internalType": "uint256",
					"name": "_betSeconds",
					"type": "uint256"
				},
				{
					"internalType": "uint256",
					"name": "_betAmount",
					"type": "uint256"
				},
				{
					"internalType": "uint256",
					"name": "_oracleUpdateAllowance",
					"type": "uint256"
				},
				{
					"internalType": "uint256",
					"name": "_tokenMaxBet",
					"type": "uint256"
				}
			],
			"name": "initialize",
			"outputs": [],
			"stateMutability": "nonpayable",
			"type": "function"
		},
		{
			"inputs": [],
			"name": "intervalSeconds",
			"outputs": [
				{
					"internalType": "uint256",
					"name": "",
					"type": "uint256"
				}
			],
			"stateMutability": "view",
			"type": "function"
		},
		{
			"inputs": [
				{
					"internalType": "uint256",
					"name": "",
					"type": "uint256"
				},
				{
					"internalType": "address",
					"name": "",
					"type": "address"
				}
			],
			"name": "ledger",
			"outputs": [
				{
					"internalType": "enum Prediction.Position",
					"name": "position",
					"type": "uint8"
				},
				{
					"internalType": "address",
					"name": "token",
					"type": "address"
				},
				{
					"internalType": "uint256",
					"name": "amount",
					"type": "uint256"
				},
				{
					"internalType": "bool",
					"name": "claimed",
					"type": "bool"
				}
			],
			"stateMutability": "view",
			"type": "function"
		},
		{
			"inputs": [
				{
					"internalType": "address",
					"name": "preder",
					"type": "address"
				},
				{
					"internalType": "uint256",
					"name": "round",
					"type": "uint256"
				}
			],
			"name": "lostRound",
			"outputs": [
				{
					"internalType": "bool",
					"name": "",
					"type": "bool"
				}
			],
			"stateMutability": "view",
			"type": "function"
		},
		{
			"inputs": [],
			"name": "operatorAddress",
			"outputs": [
				{
					"internalType": "address",
					"name": "",
					"type": "address"
				}
			],
			"stateMutability": "view",
			"type": "function"
		},
		{
			"inputs": [],
			"name": "oracleLatestRoundId",
			"outputs": [
				{
					"internalType": "uint256",
					"name": "",
					"type": "uint256"
				}
			],
			"stateMutability": "view",
			"type": "function"
		},
		{
			"inputs": [],
			"name": "oracleUpdateAllowance",
			"outputs": [
				{
					"internalType": "uint256",
					"name": "",
					"type": "uint256"
				}
			],
			"stateMutability": "view",
			"type": "function"
		},
		{
			"inputs": [
				{
					"internalType": "address",
					"name": "",
					"type": "address"
				}
			],
			"name": "oracles",
			"outputs": [
				{
					"internalType": "contract AggregatorV3Interface",
					"name": "",
					"type": "address"
				}
			],
			"stateMutability": "view",
			"type": "function"
		},
		{
			"inputs": [],
			"name": "owner",
			"outputs": [
				{
					"internalType": "address",
					"name": "",
					"type": "address"
				}
			],
			"stateMutability": "view",
			"type": "function"
		},
		{
			"inputs": [],
			"name": "pause",
			"outputs": [],
			"stateMutability": "nonpayable",
			"type": "function"
		},
		{
			"inputs": [],
			"name": "paused",
			"outputs": [
				{
					"internalType": "bool",
					"name": "",
					"type": "bool"
				}
			],
			"stateMutability": "view",
			"type": "function"
		},
		{
			"inputs": [],
			"name": "pred",
			"outputs": [
				{
					"internalType": "contract IERC20Upgradeable",
					"name": "",
					"type": "address"
				}
			],
			"stateMutability": "view",
			"type": "function"
		},
		{
			"inputs": [
				{
					"internalType": "uint256",
					"name": "epoch",
					"type": "uint256"
				},
				{
					"internalType": "address",
					"name": "token",
					"type": "address"
				}
			],
			"name": "predictBear",
			"outputs": [],
			"stateMutability": "nonpayable",
			"type": "function"
		},
		{
			"inputs": [
				{
					"internalType": "uint256",
					"name": "epoch",
					"type": "uint256"
				},
				{
					"internalType": "address",
					"name": "token",
					"type": "address"
				}
			],
			"name": "predictBull",
			"outputs": [],
			"stateMutability": "nonpayable",
			"type": "function"
		},
		{
			"inputs": [
				{
					"internalType": "address",
					"name": "_token",
					"type": "address"
				},
				{
					"internalType": "uint256",
					"name": "_amount",
					"type": "uint256"
				}
			],
			"name": "recoverToken",
			"outputs": [],
			"stateMutability": "nonpayable",
			"type": "function"
		},
		{
			"inputs": [
				{
					"internalType": "uint256",
					"name": "epoch",
					"type": "uint256"
				},
				{
					"internalType": "address",
					"name": "user",
					"type": "address"
				}
			],
			"name": "refundable",
			"outputs": [
				{
					"internalType": "bool",
					"name": "",
					"type": "bool"
				}
			],
			"stateMutability": "view",
			"type": "function"
		},
		{
			"inputs": [
				{
					"internalType": "uint256[]",
					"name": "_ids",
					"type": "uint256[]"
				}
			],
			"name": "removeTokens",
			"outputs": [],
			"stateMutability": "nonpayable",
			"type": "function"
		},
		{
			"inputs": [],
			"name": "renounceOwnership",
			"outputs": [],
			"stateMutability": "nonpayable",
			"type": "function"
		},
		{
			"inputs": [
				{
					"internalType": "uint256",
					"name": "",
					"type": "uint256"
				}
			],
			"name": "rounds",
			"outputs": [
				{
					"internalType": "uint256",
					"name": "epoch",
					"type": "uint256"
				},
				{
					"internalType": "uint256",
					"name": "lockedTimestamp",
					"type": "uint256"
				},
				{
					"internalType": "uint256",
					"name": "closeTimestamp",
					"type": "uint256"
				},
				{
					"internalType": "uint256",
					"name": "totalAmount",
					"type": "uint256"
				},
				{
					"internalType": "bool",
					"name": "oraclesCalled",
					"type": "bool"
				}
			],
			"stateMutability": "view",
			"type": "function"
		},
		{
			"inputs": [
				{
					"internalType": "address",
					"name": "_adminAddress",
					"type": "address"
				}
			],
			"name": "setAdmin",
			"outputs": [],
			"stateMutability": "nonpayable",
			"type": "function"
		},
		{
			"inputs": [
				{
					"internalType": "uint256",
					"name": "_betAmount",
					"type": "uint256"
				}
			],
			"name": "setBetAmount",
			"outputs": [],
			"stateMutability": "nonpayable",
			"type": "function"
		},
		{
			"inputs": [
				{
					"internalType": "uint256",
					"name": "_bufferSeconds",
					"type": "uint256"
				},
				{
					"internalType": "uint256",
					"name": "_intervalSeconds",
					"type": "uint256"
				},
				{
					"internalType": "uint256",
					"name": "_betSeconds",
					"type": "uint256"
				}
			],
			"name": "setBufferBetAndIntervalSeconds",
			"outputs": [],
			"stateMutability": "nonpayable",
			"type": "function"
		},
		{
			"inputs": [
				{
					"internalType": "address",
					"name": "_operatorAddress",
					"type": "address"
				}
			],
			"name": "setOperator",
			"outputs": [],
			"stateMutability": "nonpayable",
			"type": "function"
		},
		{
			"inputs": [
				{
					"internalType": "uint256",
					"name": "_oracleUpdateAllowance",
					"type": "uint256"
				}
			],
			"name": "setOracleUpdateAllowance",
			"outputs": [],
			"stateMutability": "nonpayable",
			"type": "function"
		},
		{
			"inputs": [
				{
					"internalType": "address[]",
					"name": "_tokens",
					"type": "address[]"
				},
				{
					"internalType": "address[]",
					"name": "_oracles",
					"type": "address[]"
				}
			],
			"name": "setOracles",
			"outputs": [],
			"stateMutability": "nonpayable",
			"type": "function"
		},
		{
			"inputs": [
				{
					"internalType": "uint256",
					"name": "_tokenMaxBet",
					"type": "uint256"
				}
			],
			"name": "setTokenMaxBet",
			"outputs": [],
			"stateMutability": "nonpayable",
			"type": "function"
		},
		{
			"inputs": [],
			"name": "startRound",
			"outputs": [],
			"stateMutability": "nonpayable",
			"type": "function"
		},
		{
			"inputs": [],
			"name": "tokenMaxBet",
			"outputs": [
				{
					"internalType": "uint256",
					"name": "",
					"type": "uint256"
				}
			],
			"stateMutability": "view",
			"type": "function"
		},
		{
			"inputs": [
				{
					"internalType": "uint256",
					"name": "",
					"type": "uint256"
				}
			],
			"name": "tokens",
			"outputs": [
				{
					"internalType": "address",
					"name": "",
					"type": "address"
				}
			],
			"stateMutability": "view",
			"type": "function"
		},
		{
			"inputs": [
				{
					"internalType": "address",
					"name": "newOwner",
					"type": "address"
				}
			],
			"name": "transferOwnership",
			"outputs": [],
			"stateMutability": "nonpayable",
			"type": "function"
		},
		{
			"inputs": [],
			"name": "treasuryAmount",
			"outputs": [
				{
					"internalType": "uint256",
					"name": "",
					"type": "uint256"
				}
			],
			"stateMutability": "view",
			"type": "function"
		},
		{
			"inputs": [],
			"name": "unpause",
			"outputs": [],
			"stateMutability": "nonpayable",
			"type": "function"
		},
		{
			"inputs": [
				{
					"internalType": "address",
					"name": "newImplementation",
					"type": "address"
				}
			],
			"name": "upgradeTo",
			"outputs": [],
			"stateMutability": "nonpayable",
			"type": "function"
		},
		{
			"inputs": [
				{
					"internalType": "address",
					"name": "newImplementation",
					"type": "address"
				},
				{
					"internalType": "bytes",
					"name": "data",
					"type": "bytes"
				}
			],
			"name": "upgradeToAndCall",
			"outputs": [],
			"stateMutability": "payable",
			"type": "function"
		},
		{
			"inputs": [
				{
					"internalType": "address",
					"name": "",
					"type": "address"
				},
				{
					"internalType": "uint256",
					"name": "",
					"type": "uint256"
				}
			],
			"name": "userRounds",
			"outputs": [
				{
					"internalType": "uint256",
					"name": "",
					"type": "uint256"
				}
			],
			"stateMutability": "view",
			"type": "function"
		},
		{
			"inputs": [
				{
					"internalType": "address",
					"name": "preder",
					"type": "address"
				},
				{
					"internalType": "uint256",
					"name": "round",
					"type": "uint256"
				}
			],
			"name": "wonRound",
			"outputs": [
				{
					"internalType": "bool",
					"name": "",
					"type": "bool"
				}
			],
			"stateMutability": "view",
			"type": "function"
		}
	]
}