{
	"data": {
		"bytecode": {
			"linkReferences": {},
			"object": "608060405234801561001057600080fd5b50612afb806100206000396000f3fe6080604052600436106101ea5760003560e01c80635ffe614611610113578063ae5241a0116100ab578063d3dd7eb71161006f578063d3dd7eb7146105e2578063e0747c96146105f9578063e2bbb15814610619578063e5c9ad2e14610639578063f2fde38b14610659576101ea565b8063ae5241a01461056a578063b3944d5214610211578063b3ab15fb14610581578063b7a3c110146105a1578063c26780b0146105c1576101ea565b80635ffe6146146104495780636450b8a914610469578063715018a61461048957806383bb38771461049e5780638456cb59146104b55780638aa28550146104ca5780638da5cb5b146104e05780638dbb1e3a146104f557806393f1a40b14610515576101ea565b80633659cfe6116101865780633659cfe6146103525780633f4ba83a14610372578063441a3e701461038757806348cd4cb1146103a75780634f1ef286146103be57806351eb05a6146103d1578063521eb273146103f15780635312ea8e146104115780635c975abb14610431576101ea565b80630729da0b146101ef578063081e3eda146102115780631003e2d214610236578063127effb2146102565780631521604e146102845780631526fe27146102b45780631c8d04e2146102fc5780631fc7be891461031c5780632372c91614610332575b600080fd5b3480156101fb57600080fd5b5061020f61020a366004612595565b610679565b005b34801561021d57600080fd5b50610101545b6040519081526020015b60405180910390f35b34801561024257600080fd5b5061020f610251366004612654565b61076f565b34801561026257600080fd5b5061010654610277906001600160a01b031681565b60405161022d9190612835565b34801561029057600080fd5b506102a461029f36600461260f565b610ae1565b604051901515815260200161022d565b3480156102c057600080fd5b506102d46102cf366004612654565b610b6b565b604080519586526020860194909452928401919091526060830152608082015260a00161022d565b34801561030857600080fd5b506102a461031736600461260f565b610bad565b34801561032857600080fd5b5061022360fd5481565b34801561033e57600080fd5b5060fc54610277906001600160a01b031681565b34801561035e57600080fd5b5061020f61036d3660046124d8565b610be0565b34801561037e57600080fd5b5061020f610c07565b34801561039357600080fd5b5061020f6103a23660046126b3565b610c40565b3480156103b357600080fd5b506102236101045481565b61020f6103cc3660046124f4565b610e6c565b3480156103dd57600080fd5b5061020f6103ec366004612654565b610e85565b3480156103fd57600080fd5b5060ff54610277906001600160a01b031681565b34801561041d57600080fd5b5061020f61042c366004612654565b610ffe565b34801561043d57600080fd5b5060335460ff166102a4565b34801561045557600080fd5b5061020f610464366004612654565b611111565b34801561047557600080fd5b50610223610484366004612684565b611145565b34801561049557600080fd5b5061020f6112a2565b3480156104aa57600080fd5b506102236101055481565b3480156104c157600080fd5b5061020f6112db565b3480156104d657600080fd5b5061022360fe5481565b3480156104ec57600080fd5b50610277611312565b34801561050157600080fd5b506102236105103660046126b3565b611321565b34801561052157600080fd5b50610555610530366004612684565b6101026020908152600092835260408084209091529082529020805460019091015482565b6040805192835260208301919091520161022d565b34801561057657600080fd5b506102236101005481565b34801561058d57600080fd5b5061020f61059c3660046124d8565b61133b565b3480156105ad57600080fd5b5061020f6105bc366004612654565b611410565b3480156105cd57600080fd5b5061020f6105dc366004612654565b61010055565b3480156105ee57600080fd5b506102236101035481565b34801561060557600080fd5b5061020f610614366004612654565b611495565b34801561062557600080fd5b5061020f6106343660046126b3565b6114ca565b34801561064557600080fd5b5060fb54610277906001600160a01b031681565b34801561066557600080fd5b5061020f6106743660046124d8565b611853565b600054610100900460ff1680610692575060005460ff16155b6106b75760405162461bcd60e51b81526004016106ae906128ed565b60405180910390fd5b600054610100900460ff161580156106e2576000805460ff1961ff0019909116610100171660011790555b6106ea6118f0565b61010680546001600160a01b03808b166001600160a01b03199283161790925560fb80548a841690831617905560fd88905561010487905560ff805486841690831617905560fc805492851692909116919091179055610100849055620f424060fe5560c8610103558015610765576000805461ff00191690555b5050505050505050565b60fc5460405163023c4c9f60e61b8152600481018390526000916001600160a01b031690638f1327c09060240160006040518083038186803b1580156107b457600080fd5b505afa1580156107c8573d6000803e3d6000fd5b505050506040513d6000823e601f3d908101601f191682016040526107f091908101906126d4565b5050505050509450505050508061085a5760405162461bcd60e51b815260206004820152602860248201527f526f756e6420776173206e6f74207375636365737366756c206f72206e6f7420604482015267636f6d706c65746560c01b60648201526084016106ae565b60fc5460408051630ecce30160e31b815290516000926001600160a01b031691637667180891600480830192602092919082900301818787803b1580156108a057600080fd5b505af11580156108b4573d6000803e3d6000fd5b505050506040513d601f19601f820116820180604052508101906108d8919061266c565b90508281146109c85760fc5460405163023c4c9f60e61b8152600481018390526000916001600160a01b031690638f1327c09060240160006040518083038186803b15801561092657600080fd5b505afa15801561093a573d6000803e3d6000fd5b505050506040513d6000823e601f3d908101601f1916820160405261096291908101906126d4565b50505050505094505050505080156109c65760405162461bcd60e51b815260206004820152602160248201527f43757272656e7420526f756e6420697320616c726561647920636f6d706c65746044820152606560f81b60648201526084016106ae565b505b6101015415610acf57610101546000906109e490600190612a1a565b9050836101018281548110610a0957634e487b7160e01b600052603260045260246000fd5b90600052602060002090600502016003015410610a805760405162461bcd60e51b815260206004820152602f60248201527f4e65772065706f63682063616e6e6f74206265206c657373206f72206571756160448201526e0d840e8de40e0c2e6e840cae0dec6d608b1b60648201526084016106ae565b610a8981610e85565b610101805460009190610a9e90600190612a1a565b81548110610abc57634e487b7160e01b600052603260045260246000fd5b6000918252602090912060059091020155505b610adc6101035484611974565b505050565b60fc54604051630a90b02760e11b81526000916001600160a01b031690631521604e90610b149086908690600401612849565b60206040518083038186803b158015610b2c57600080fd5b505afa158015610b40573d6000803e3d6000fd5b505050506040513d601f19601f82011682018060405250810190610b64919061263a565b9392505050565b6101018181548110610b7c57600080fd5b6000918252602090912060059091020180546001820154600283015460038401546004909401549294509092909185565b60fc54604051630e46827160e11b81526000916001600160a01b031690631c8d04e290610b149086908690600401612849565b610be981611ad4565b610c0481604051806020016040528060008152506000611b03565b50565b33610c10611312565b6001600160a01b031614610c365760405162461bcd60e51b81526004016106ae9061293b565b610c3e611c4a565b565b60335460ff1615610c635760405162461bcd60e51b81526004016106ae906128c3565b60006101018381548110610c8757634e487b7160e01b600052603260045260246000fd5b60009182526020808320868452610102825260408085203386529092529220805460059092029092019250831115610cf65760405162461bcd60e51b81526020600482015260126024820152711dda5d1a191c985dce881b9bdd0819dbdbd960721b60448201526064016106ae565b610cff84610e85565b6000610d408260010154610d3a68327cb2734119d3b7a9601e1b610d3487600201548760000154611cb090919063ffffffff16565b90611cbc565b90611cc8565b90508015610d5257610d523382611cd4565b8315610d91578154610d649085611cc8565b82556004830154610d759085611cc8565b600484015560fb54610d91906001600160a01b03163386611d6c565b60028301548254610db39168327cb2734119d3b7a9601e1b91610d3491611cb0565b8260010181905550826101018681548110610dde57634e487b7160e01b600052603260045260246000fd5b9060005260206000209060050201600082015481600001556001820154816001015560028201548160020155600382015481600301556004820154816004015590505084336001600160a01b03167ff279e6a1f5e320cca91135676d9cb6e44ca8a08c0b88342bcdb1144f6511b56886604051610e5d91815260200190565b60405180910390a35050505050565b610e7582611ad4565b610e8182826001611b03565b5050565b60006101018281548110610ea957634e487b7160e01b600052603260045260246000fd5b9060005260206000209060050201905080600101544311610eca5750610c04565b6004810154610edf5743600190910155610c04565b6000610eef826001015443611321565b90506000610f0860fd5483611cb090919063ffffffff16565b6101055460fb5460ff546040516370a0823160e01b8152939450600093610f9c93926001600160a01b03908116926370a0823192610f4c9290911690600401612835565b60206040518083038186803b158015610f6457600080fd5b505afa158015610f78573d6000803e3d6000fd5b505050506040513d601f19601f82011682018060405250810190610d3a919061266c565b9050808210610fa9578091505b6004840154610fd790610fcc90610d348568327cb2734119d3b7a9601e1b611cb0565b600286015490611dc2565b600285015561010554610fea9083611dc2565b610105555050436001909201919091555050565b60335460ff166110205760405162461bcd60e51b81526004016106ae90612895565b6000610101828154811061104457634e487b7160e01b600052603260045260246000fd5b600091825260208083208584526101028252604080852033865290925290832080548482556001820185905560026005909402909201928301549294509290916110a7908290610d3a9068327cb2734119d3b7a9601e1b90610d34908790611cb0565b90506101055481116110c657610105546110c19082611cc8565b610105555b60fb546110dd906001600160a01b03163384611d6c565b604051828152859033907fbb757047c2b5f3974fe26b7c10f732e7bce710b0952a71082702781e62ae059590602001610e5d565b3361111a611312565b6001600160a01b0316146111405760405162461bcd60e51b81526004016106ae9061293b565b60fe55565b600080610101848154811061116a57634e487b7160e01b600052603260045260246000fd5b60009182526020808320878452610102825260408085206001600160a01b038916865290925292206002600590920290920190810154600182015491935090431180156111ba5750600483015415155b156112695760006111cf846001015443611321565b905060006111e860fd5483611cb090919063ffffffff16565b6101055460fb5460ff546040516370a0823160e01b815293945060009361122c93926001600160a01b03908116926370a0823192610f4c9290911690600401612835565b9050808210611239578091505b60048601546112639061125c90610d348568327cb2734119d3b7a9601e1b611cb0565b8590611dc2565b93505050505b6112988260010154610d3a68327cb2734119d3b7a9601e1b610d34858760000154611cb090919063ffffffff16565b9695505050505050565b336112ab611312565b6001600160a01b0316146112d15760405162461bcd60e51b81526004016106ae9061293b565b610c3e6000611dce565b336112e4611312565b6001600160a01b03161461130a5760405162461bcd60e51b81526004016106ae9061293b565b610c3e611e20565b60c9546001600160a01b031690565b60fe54600090610b64906113358486611cc8565b90611cb0565b33611344611312565b6001600160a01b03161461136a5760405162461bcd60e51b81526004016106ae9061293b565b6001600160a01b0381166113b95760405162461bcd60e51b815260206004820152601660248201527543616e6e6f74206265207a65726f206164647265737360501b60448201526064016106ae565b61010680546001600160a01b0319166001600160a01b0383161790556040517fc47d127c07bdd56c5ccba00463ce3bd3c1bca71b4670eea6e5d0c02e4aa156e290611405908390612835565b60405180910390a150565b33611419611312565b6001600160a01b03161461143f5760405162461bcd60e51b81526004016106ae9061293b565b6101015460009061145290600190612a1a565b905061145d81610e85565b81610101828154811061148057634e487b7160e01b600052603260045260246000fd5b60009182526020909120600590910201555050565b3361149e611312565b6001600160a01b0316146114c45760405162461bcd60e51b81526004016106ae9061293b565b61010355565b60335460ff16156114ed5760405162461bcd60e51b81526004016106ae906128c3565b6114f682610e85565b6000610101838154811061151a57634e487b7160e01b600052603260045260246000fd5b6000918252602090912060fc546005909202016003810154604051630a90b02760e11b81529193506001600160a01b0390921691631521604e91611562913391600401612849565b60206040518083038186803b15801561157a57600080fd5b505afa15801561158e573d6000803e3d6000fd5b505050506040513d601f19601f820116820180604052508101906115b2919061263a565b6116085760405162461bcd60e51b815260206004820152602160248201527f446964206e6f742077696e20746869732050726564696374696f6e20726f756e6044820152601960fa1b60648201526084016106ae565b600083815261010260209081526040808320338452909152902080541561167257600061165e8260010154610d3a68327cb2734119d3b7a9601e1b610d3487600201548760000154611cb090919063ffffffff16565b90508015611670576116703382611cd4565b505b82156117ef5760fb546040516370a0823160e01b81526000916001600160a01b0316906370a08231906116a9903090600401612835565b60206040518083038186803b1580156116c157600080fd5b505afa1580156116d5573d6000803e3d6000fd5b505050506040513d601f19601f820116820180604052508101906116f9919061266c565b60fb54909150611714906001600160a01b0316333087611e78565b60fb546040516370a0823160e01b81526117549161174c9184916001600160a01b0316906370a0823190610f4c903090600401612835565b835490611dc2565b825560fb546040516370a0823160e01b81526117999161178e9184916001600160a01b0316906370a0823190610f4c903090600401612835565b600485015490611dc2565b600484015561010054825411156117ed5760405162461bcd60e51b815260206004820152601860248201527713585e08141491510811195c1bdcda5d0814995858da195960421b60448201526064016106ae565b505b600282015481546118119168327cb2734119d3b7a9601e1b91610d3491611cb0565b6001820155604051838152849033907f90890809c654f11d6e72a28fa60149770a0d11ec6c92319d6ceb2bb0a4ea1a159060200160405180910390a350505050565b3361185c611312565b6001600160a01b0316146118825760405162461bcd60e51b81526004016106ae9061293b565b6001600160a01b0381166118e75760405162461bcd60e51b815260206004820152602660248201527f4f776e61626c653a206e6577206f776e657220697320746865207a65726f206160448201526564647265737360d01b60648201526084016106ae565b610c0481611dce565b600054610100900460ff1680611909575060005460ff16155b6119255760405162461bcd60e51b81526004016106ae906128ed565b600054610100900460ff16158015611950576000805460ff1961ff0019909116610100171660011790555b611958611eb6565b611960611f29565b8015610c04576000805461ff001916905550565b610106546001600160a01b031633146119be5760405162461bcd60e51b815260206004820152600c60248201526b2737ba1037b832b930ba37b960a11b60448201526064016106ae565b60006101045443116119d357610104546119d5565b435b6040805160a08101825294855260208501918252600090850181815260608601948552608086018281526101018054600181018255935295517f109ea3cebb188b9c1b9fc5bb3920be60dfdc8699098dff92f3d80daaca74768960059093029283015591517f109ea3cebb188b9c1b9fc5bb3920be60dfdc8699098dff92f3d80daaca74768a82015590517f109ea3cebb188b9c1b9fc5bb3920be60dfdc8699098dff92f3d80daaca74768b82015591517f109ea3cebb188b9c1b9fc5bb3920be60dfdc8699098dff92f3d80daaca74768c8301555090517f109ea3cebb188b9c1b9fc5bb3920be60dfdc8699098dff92f3d80daaca74768d90910155565b33611add611312565b6001600160a01b031614610c045760405162461bcd60e51b81526004016106ae9061293b565b6000611b0d611f92565b9050611b1884611fc0565b600083511180611b255750815b15611b3657611b34848461206c565b505b7f4910fdfa16fed3260ed0e7147f7cc6da11a60208b5b9406d12a635614ffd9143805460ff16611c4357805460ff19166001178155604051611bb1908690611b82908590602401612835565b60408051601f198184030181529190526020810180516001600160e01b0316631b2ce7f360e11b17905261206c565b50805460ff19168155611bc2611f92565b6001600160a01b0316826001600160a01b031614611c3a5760405162461bcd60e51b815260206004820152602f60248201527f45524331393637557067726164653a207570677261646520627265616b73206660448201526e75727468657220757067726164657360881b60648201526084016106ae565b611c438561215e565b5050505050565b60335460ff16611c6c5760405162461bcd60e51b81526004016106ae90612895565b6033805460ff191690557f5db9ee0a495bf2e6ff9c91a7834c1ba4fdd244a5e8aa4e537bd38aeae4b073aa335b604051611ca69190612835565b60405180910390a1565b6000610b6482846129fb565b6000610b6482846129db565b6000610b648284612a1a565b60ff5460405163736a0d4160e11b8152611d64916001600160a01b03169063e6d41a8290611d089086908690600401612849565b602060405180830381600087803b158015611d2257600080fd5b505af1158015611d36573d6000803e3d6000fd5b505050506040513d601f19601f82011682018060405250810190611d5a919061266c565b6101055490611cc8565b610105555050565b610adc8363a9059cbb60e01b8484604051602401611d8b929190612849565b60408051601f198184030181529190526020810180516001600160e01b03166001600160e01b03199093169290921790915261219e565b6000610b6482846129c3565b60c980546001600160a01b038381166001600160a01b0319831681179093556040519116919082907f8be0079c531659141344cd1fd0a4f28419497f9722a3daafe3b4186f6b6457e090600090a35050565b60335460ff1615611e435760405162461bcd60e51b81526004016106ae906128c3565b6033805460ff191660011790557f62e78cea01bee320cd4e420270b5ea74000d11b0c9f74754ebdbfc544b05a258611c993390565b6040516001600160a01b0380851660248301528316604482015260648101829052611eb09085906323b872dd60e01b90608401611d8b565b50505050565b600054610100900460ff1680611ecf575060005460ff16155b611eeb5760405162461bcd60e51b81526004016106ae906128ed565b600054610100900460ff16158015611960576000805460ff1961ff0019909116610100171660011790558015610c04576000805461ff001916905550565b600054610100900460ff1680611f42575060005460ff16155b611f5e5760405162461bcd60e51b81526004016106ae906128ed565b600054610100900460ff16158015611f89576000805460ff1961ff0019909116610100171660011790555b61196033611dce565b7f360894a13ba1a3210667c828492db98dca3e2076cc3735a920a3ca505d382bbc546001600160a01b031690565b611fc981612270565b61202b5760405162461bcd60e51b815260206004820152602d60248201527f455243313936373a206e657720696d706c656d656e746174696f6e206973206e60448201526c1bdd08184818dbdb9d1c9858dd609a1b60648201526084016106ae565b7f360894a13ba1a3210667c828492db98dca3e2076cc3735a920a3ca505d382bbc80546001600160a01b0319166001600160a01b0392909216919091179055565b606061207783612270565b6120d25760405162461bcd60e51b815260206004820152602660248201527f416464726573733a2064656c65676174652063616c6c20746f206e6f6e2d636f6044820152651b9d1c9858dd60d21b60648201526084016106ae565b600080846001600160a01b0316846040516120ed9190612819565b600060405180830381855af49150503d8060008114612128576040519150601f19603f3d011682016040523d82523d6000602084013e61212d565b606091505b50915091506121558282604051806060016040528060278152602001612a9f6027913961227a565b95945050505050565b61216781611fc0565b6040516001600160a01b038216907fbc7cd75a20ee27fd9adebab32041f755214dbc6bffa90cc0225b39da2e5c2d3b90600090a250565b60006121f3826040518060400160405280602081526020017f5361666545524332303a206c6f772d6c6576656c2063616c6c206661696c6564815250856001600160a01b03166122b39092919063ffffffff16565b805190915015610adc5780806020019051810190612211919061263a565b610adc5760405162461bcd60e51b815260206004820152602a60248201527f5361666545524332303a204552433230206f7065726174696f6e20646964206e6044820152691bdd081cdd58d8d9595960b21b60648201526084016106ae565b803b15155b919050565b60608315612289575081610b64565b8251156122995782518084602001fd5b8160405162461bcd60e51b81526004016106ae9190612862565b60606122c284846000856122ca565b949350505050565b60608247101561232b5760405162461bcd60e51b815260206004820152602660248201527f416464726573733a20696e73756666696369656e742062616c616e636520666f6044820152651c8818d85b1b60d21b60648201526084016106ae565b61233485612270565b6123805760405162461bcd60e51b815260206004820152601d60248201527f416464726573733a2063616c6c20746f206e6f6e2d636f6e747261637400000060448201526064016106ae565b600080866001600160a01b0316858760405161239c9190612819565b60006040518083038185875af1925050503d80600081146123d9576040519150601f19603f3d011682016040523d82523d6000602084013e6123de565b606091505b50915091506123ee82828661227a565b979650505050505050565b600082601f830112612409578081fd5b8151602061241e612419836129a0565b612970565b828152818101908583018385028701840188101561243a578586fd5b855b8581101561246157815161244f81612a89565b8452928401929084019060010161243c565b5090979650505050505050565b600082601f83011261247e578081fd5b8151602061248e612419836129a0565b82815281810190858301838502870184018810156124aa578586fd5b855b85811015612461578151845292840192908401906001016124ac565b8051801515811461227557600080fd5b6000602082840312156124e9578081fd5b8135610b6481612a89565b60008060408385031215612506578081fd5b823561251181612a89565b91506020838101356001600160401b038082111561252d578384fd5b818601915086601f830112612540578384fd5b81358181111561255257612552612a73565b612564601f8201601f19168501612970565b91508082528784828501011115612579578485fd5b8084840185840137810190920192909252919491935090915050565b600080600080600080600060e0888a0312156125af578283fd5b87356125ba81612a89565b965060208801356125ca81612a89565b955060408801359450606088013593506080880135925060a08801356125ef81612a89565b915060c08801356125ff81612a89565b8091505092959891949750929550565b60008060408385031215612621578182fd5b823561262c81612a89565b946020939093013593505050565b60006020828403121561264b578081fd5b610b64826124c8565b600060208284031215612665578081fd5b5035919050565b60006020828403121561267d578081fd5b5051919050565b60008060408385031215612696578182fd5b8235915060208301356126a881612a89565b809150509250929050565b600080604083850312156126c5578182fd5b50508035926020909101359150565b60008060008060008060008060008060006101608c8e0312156126f5578485fd5b8b519a5060208c0151995060408c0151985060608c0151975061271a60808d016124c8565b965060a08c01516001600160401b03811115612734578586fd5b6127408e828f016123f9565b96505060c08c01516001600160401b0381111561275b578586fd5b6127678e828f0161246e565b95505060e08c01516001600160401b03811115612782578485fd5b61278e8e828f0161246e565b9450506101008c01516001600160401b038111156127aa578384fd5b6127b68e828f0161246e565b9350506101208c01516001600160401b038111156127d2578283fd5b6127de8e828f0161246e565b9250506101408c01516001600160401b038111156127fa578182fd5b6128068e828f0161246e565b9150509295989b509295989b9093969950565b6000825161282b818460208701612a31565b9190910192915050565b6001600160a01b0391909116815260200190565b6001600160a01b03929092168252602082015260400190565b6000602082528251806020840152612881816040850160208701612a31565b601f01601f19169190910160400192915050565b60208082526014908201527314185d5cd8589b194e881b9bdd081c185d5cd95960621b604082015260600190565b60208082526010908201526f14185d5cd8589b194e881c185d5cd95960821b604082015260600190565b6020808252602e908201527f496e697469616c697a61626c653a20636f6e747261637420697320616c72656160408201526d191e481a5b9a5d1a585b1a5e995960921b606082015260800190565b6020808252818101527f4f776e61626c653a2063616c6c6572206973206e6f7420746865206f776e6572604082015260600190565b604051601f8201601f191681016001600160401b038111828210171561299857612998612a73565b604052919050565b60006001600160401b038211156129b9576129b9612a73565b5060209081020190565b600082198211156129d6576129d6612a5d565b500190565b6000826129f657634e487b7160e01b81526012600452602481fd5b500490565b6000816000190483118215151615612a1557612a15612a5d565b500290565b600082821015612a2c57612a2c612a5d565b500390565b60005b83811015612a4c578181015183820152602001612a34565b83811115611eb05750506000910152565b634e487b7160e01b600052601160045260246000fd5b634e487b7160e01b600052604160045260246000fd5b6001600160a01b0381168114610c0457600080fdfe416464726573733a206c6f772d6c6576656c2064656c65676174652063616c6c206661696c6564a2646970667358221220fc60851bdbbbdbf24758838b9266622903a8caaeb39e756a5832ea7fad659cbb64736f6c63430008020033",
			"opcodes": "PUSH1 0x80 PUSH1 0x40 MSTORE CALLVALUE DUP1 ISZERO PUSH2 0x10 JUMPI PUSH1 0x0 DUP1 REVERT JUMPDEST POP PUSH2 0x2AFB DUP1 PUSH2 0x20 PUSH1 0x0 CODECOPY PUSH1 0x0 RETURN INVALID PUSH1 0x80 PUSH1 0x40 MSTORE PUSH1 0x4 CALLDATASIZE LT PUSH2 0x1EA JUMPI PUSH1 0x0 CALLDATALOAD PUSH1 0xE0 SHR DUP1 PUSH4 0x5FFE6146 GT PUSH2 0x113 JUMPI DUP1 PUSH4 0xAE5241A0 GT PUSH2 0xAB JUMPI DUP1 PUSH4 0xD3DD7EB7 GT PUSH2 0x6F JUMPI DUP1 PUSH4 0xD3DD7EB7 EQ PUSH2 0x5E2 JUMPI DUP1 PUSH4 0xE0747C96 EQ PUSH2 0x5F9 JUMPI DUP1 PUSH4 0xE2BBB158 EQ PUSH2 0x619 JUMPI DUP1 PUSH4 0xE5C9AD2E EQ PUSH2 0x639 JUMPI DUP1 PUSH4 0xF2FDE38B EQ PUSH2 0x659 JUMPI PUSH2 0x1EA JUMP JUMPDEST DUP1 PUSH4 0xAE5241A0 EQ PUSH2 0x56A JUMPI DUP1 PUSH4 0xB3944D52 EQ PUSH2 0x211 JUMPI DUP1 PUSH4 0xB3AB15FB EQ PUSH2 0x581 JUMPI DUP1 PUSH4 0xB7A3C110 EQ PUSH2 0x5A1 JUMPI DUP1 PUSH4 0xC26780B0 EQ PUSH2 0x5C1 JUMPI PUSH2 0x1EA JUMP JUMPDEST DUP1 PUSH4 0x5FFE6146 EQ PUSH2 0x449 JUMPI DUP1 PUSH4 0x6450B8A9 EQ PUSH2 0x469 JUMPI DUP1 PUSH4 0x715018A6 EQ PUSH2 0x489 JUMPI DUP1 PUSH4 0x83BB3877 EQ PUSH2 0x49E JUMPI DUP1 PUSH4 0x8456CB59 EQ PUSH2 0x4B5 JUMPI DUP1 PUSH4 0x8AA28550 EQ PUSH2 0x4CA JUMPI DUP1 PUSH4 0x8DA5CB5B EQ PUSH2 0x4E0 JUMPI DUP1 PUSH4 0x8DBB1E3A EQ PUSH2 0x4F5 JUMPI DUP1 PUSH4 0x93F1A40B EQ PUSH2 0x515 JUMPI PUSH2 0x1EA JUMP JUMPDEST DUP1 PUSH4 0x3659CFE6 GT PUSH2 0x186 JUMPI DUP1 PUSH4 0x3659CFE6 EQ PUSH2 0x352 JUMPI DUP1 PUSH4 0x3F4BA83A EQ PUSH2 0x372 JUMPI DUP1 PUSH4 0x441A3E70 EQ PUSH2 0x387 JUMPI DUP1 PUSH4 0x48CD4CB1 EQ PUSH2 0x3A7 JUMPI DUP1 PUSH4 0x4F1EF286 EQ PUSH2 0x3BE JUMPI DUP1 PUSH4 0x51EB05A6 EQ PUSH2 0x3D1 JUMPI DUP1 PUSH4 0x521EB273 EQ PUSH2 0x3F1 JUMPI DUP1 PUSH4 0x5312EA8E EQ PUSH2 0x411 JUMPI DUP1 PUSH4 0x5C975ABB EQ PUSH2 0x431 JUMPI PUSH2 0x1EA JUMP JUMPDEST DUP1 PUSH4 0x729DA0B EQ PUSH2 0x1EF JUMPI DUP1 PUSH4 0x81E3EDA EQ PUSH2 0x211 JUMPI DUP1 PUSH4 0x1003E2D2 EQ PUSH2 0x236 JUMPI DUP1 PUSH4 0x127EFFB2 EQ PUSH2 0x256 JUMPI DUP1 PUSH4 0x1521604E EQ PUSH2 0x284 JUMPI DUP1 PUSH4 0x1526FE27 EQ PUSH2 0x2B4 JUMPI DUP1 PUSH4 0x1C8D04E2 EQ PUSH2 0x2FC JUMPI DUP1 PUSH4 0x1FC7BE89 EQ PUSH2 0x31C JUMPI DUP1 PUSH4 0x2372C916 EQ PUSH2 0x332 JUMPI JUMPDEST PUSH1 0x0 DUP1 REVERT JUMPDEST CALLVALUE DUP1 ISZERO PUSH2 0x1FB JUMPI PUSH1 0x0 DUP1 REVERT JUMPDEST POP PUSH2 0x20F PUSH2 0x20A CALLDATASIZE PUSH1 0x4 PUSH2 0x2595 JUMP JUMPDEST PUSH2 0x679 JUMP JUMPDEST STOP JUMPDEST CALLVALUE DUP1 ISZERO PUSH2 0x21D JUMPI PUSH1 0x0 DUP1 REVERT JUMPDEST POP PUSH2 0x101 SLOAD JUMPDEST PUSH1 0x40 MLOAD SWAP1 DUP2 MSTORE PUSH1 0x20 ADD JUMPDEST PUSH1 0x40 MLOAD DUP1 SWAP2 SUB SWAP1 RETURN JUMPDEST CALLVALUE DUP1 ISZERO PUSH2 0x242 JUMPI PUSH1 0x0 DUP1 REVERT JUMPDEST POP PUSH2 0x20F PUSH2 0x251 CALLDATASIZE PUSH1 0x4 PUSH2 0x2654 JUMP JUMPDEST PUSH2 0x76F JUMP JUMPDEST CALLVALUE DUP1 ISZERO PUSH2 0x262 JUMPI PUSH1 0x0 DUP1 REVERT JUMPDEST POP PUSH2 0x106 SLOAD PUSH2 0x277 SWAP1 PUSH1 0x1 PUSH1 0x1 PUSH1 0xA0 SHL SUB AND DUP2 JUMP JUMPDEST PUSH1 0x40 MLOAD PUSH2 0x22D SWAP2 SWAP1 PUSH2 0x2835 JUMP JUMPDEST CALLVALUE DUP1 ISZERO PUSH2 0x290 JUMPI PUSH1 0x0 DUP1 REVERT JUMPDEST POP PUSH2 0x2A4 PUSH2 0x29F CALLDATASIZE PUSH1 0x4 PUSH2 0x260F JUMP JUMPDEST PUSH2 0xAE1 JUMP JUMPDEST PUSH1 0x40 MLOAD SWAP1 ISZERO ISZERO DUP2 MSTORE PUSH1 0x20 ADD PUSH2 0x22D JUMP JUMPDEST CALLVALUE DUP1 ISZERO PUSH2 0x2C0 JUMPI PUSH1 0x0 DUP1 REVERT JUMPDEST POP PUSH2 0x2D4 PUSH2 0x2CF CALLDATASIZE PUSH1 0x4 PUSH2 0x2654 JUMP JUMPDEST PUSH2 0xB6B JUMP JUMPDEST PUSH1 0x40 DUP1 MLOAD SWAP6 DUP7 MSTORE PUSH1 0x20 DUP7 ADD SWAP5 SWAP1 SWAP5 MSTORE SWAP3 DUP5 ADD SWAP2 SWAP1 SWAP2 MSTORE PUSH1 0x60 DUP4 ADD MSTORE PUSH1 0x80 DUP3 ADD MSTORE PUSH1 0xA0 ADD PUSH2 0x22D JUMP JUMPDEST CALLVALUE DUP1 ISZERO PUSH2 0x308 JUMPI PUSH1 0x0 DUP1 REVERT JUMPDEST POP PUSH2 0x2A4 PUSH2 0x317 CALLDATASIZE PUSH1 0x4 PUSH2 0x260F JUMP JUMPDEST PUSH2 0xBAD JUMP JUMPDEST CALLVALUE DUP1 ISZERO PUSH2 0x328 JUMPI PUSH1 0x0 DUP1 REVERT JUMPDEST POP PUSH2 0x223 PUSH1 0xFD SLOAD DUP2 JUMP JUMPDEST CALLVALUE DUP1 ISZERO PUSH2 0x33E JUMPI PUSH1 0x0 DUP1 REVERT JUMPDEST POP PUSH1 0xFC SLOAD PUSH2 0x277 SWAP1 PUSH1 0x1 PUSH1 0x1 PUSH1 0xA0 SHL SUB AND DUP2 JUMP JUMPDEST CALLVALUE DUP1 ISZERO PUSH2 0x35E JUMPI PUSH1 0x0 DUP1 REVERT JUMPDEST POP PUSH2 0x20F PUSH2 0x36D CALLDATASIZE PUSH1 0x4 PUSH2 0x24D8 JUMP JUMPDEST PUSH2 0xBE0 JUMP JUMPDEST CALLVALUE DUP1 ISZERO PUSH2 0x37E JUMPI PUSH1 0x0 DUP1 REVERT JUMPDEST POP PUSH2 0x20F PUSH2 0xC07 JUMP JUMPDEST CALLVALUE DUP1 ISZERO PUSH2 0x393 JUMPI PUSH1 0x0 DUP1 REVERT JUMPDEST POP PUSH2 0x20F PUSH2 0x3A2 CALLDATASIZE PUSH1 0x4 PUSH2 0x26B3 JUMP JUMPDEST PUSH2 0xC40 JUMP JUMPDEST CALLVALUE DUP1 ISZERO PUSH2 0x3B3 JUMPI PUSH1 0x0 DUP1 REVERT JUMPDEST POP PUSH2 0x223 PUSH2 0x104 SLOAD DUP2 JUMP JUMPDEST PUSH2 0x20F PUSH2 0x3CC CALLDATASIZE PUSH1 0x4 PUSH2 0x24F4 JUMP JUMPDEST PUSH2 0xE6C JUMP JUMPDEST CALLVALUE DUP1 ISZERO PUSH2 0x3DD JUMPI PUSH1 0x0 DUP1 REVERT JUMPDEST POP PUSH2 0x20F PUSH2 0x3EC CALLDATASIZE PUSH1 0x4 PUSH2 0x2654 JUMP JUMPDEST PUSH2 0xE85 JUMP JUMPDEST CALLVALUE DUP1 ISZERO PUSH2 0x3FD JUMPI PUSH1 0x0 DUP1 REVERT JUMPDEST POP PUSH1 0xFF SLOAD PUSH2 0x277 SWAP1 PUSH1 0x1 PUSH1 0x1 PUSH1 0xA0 SHL SUB AND DUP2 JUMP JUMPDEST CALLVALUE DUP1 ISZERO PUSH2 0x41D JUMPI PUSH1 0x0 DUP1 REVERT JUMPDEST POP PUSH2 0x20F PUSH2 0x42C CALLDATASIZE PUSH1 0x4 PUSH2 0x2654 JUMP JUMPDEST PUSH2 0xFFE JUMP JUMPDEST CALLVALUE DUP1 ISZERO PUSH2 0x43D JUMPI PUSH1 0x0 DUP1 REVERT JUMPDEST POP PUSH1 0x33 SLOAD PUSH1 0xFF AND PUSH2 0x2A4 JUMP JUMPDEST CALLVALUE DUP1 ISZERO PUSH2 0x455 JUMPI PUSH1 0x0 DUP1 REVERT JUMPDEST POP PUSH2 0x20F PUSH2 0x464 CALLDATASIZE PUSH1 0x4 PUSH2 0x2654 JUMP JUMPDEST PUSH2 0x1111 JUMP JUMPDEST CALLVALUE DUP1 ISZERO PUSH2 0x475 JUMPI PUSH1 0x0 DUP1 REVERT JUMPDEST POP PUSH2 0x223 PUSH2 0x484 CALLDATASIZE PUSH1 0x4 PUSH2 0x2684 JUMP JUMPDEST PUSH2 0x1145 JUMP JUMPDEST CALLVALUE DUP1 ISZERO PUSH2 0x495 JUMPI PUSH1 0x0 DUP1 REVERT JUMPDEST POP PUSH2 0x20F PUSH2 0x12A2 JUMP JUMPDEST CALLVALUE DUP1 ISZERO PUSH2 0x4AA JUMPI PUSH1 0x0 DUP1 REVERT JUMPDEST POP PUSH2 0x223 PUSH2 0x105 SLOAD DUP2 JUMP JUMPDEST CALLVALUE DUP1 ISZERO PUSH2 0x4C1 JUMPI PUSH1 0x0 DUP1 REVERT JUMPDEST POP PUSH2 0x20F PUSH2 0x12DB JUMP JUMPDEST CALLVALUE DUP1 ISZERO PUSH2 0x4D6 JUMPI PUSH1 0x0 DUP1 REVERT JUMPDEST POP PUSH2 0x223 PUSH1 0xFE SLOAD DUP2 JUMP JUMPDEST CALLVALUE DUP1 ISZERO PUSH2 0x4EC JUMPI PUSH1 0x0 DUP1 REVERT JUMPDEST POP PUSH2 0x277 PUSH2 0x1312 JUMP JUMPDEST CALLVALUE DUP1 ISZERO PUSH2 0x501 JUMPI PUSH1 0x0 DUP1 REVERT JUMPDEST POP PUSH2 0x223 PUSH2 0x510 CALLDATASIZE PUSH1 0x4 PUSH2 0x26B3 JUMP JUMPDEST PUSH2 0x1321 JUMP JUMPDEST CALLVALUE DUP1 ISZERO PUSH2 0x521 JUMPI PUSH1 0x0 DUP1 REVERT JUMPDEST POP PUSH2 0x555 PUSH2 0x530 CALLDATASIZE PUSH1 0x4 PUSH2 0x2684 JUMP JUMPDEST PUSH2 0x102 PUSH1 0x20 SWAP1 DUP2 MSTORE PUSH1 0x0 SWAP3 DUP4 MSTORE PUSH1 0x40 DUP1 DUP5 KECCAK256 SWAP1 SWAP2 MSTORE SWAP1 DUP3 MSTORE SWAP1 KECCAK256 DUP1 SLOAD PUSH1 0x1 SWAP1 SWAP2 ADD SLOAD DUP3 JUMP JUMPDEST PUSH1 0x40 DUP1 MLOAD SWAP3 DUP4 MSTORE PUSH1 0x20 DUP4 ADD SWAP2 SWAP1 SWAP2 MSTORE ADD PUSH2 0x22D JUMP JUMPDEST CALLVALUE DUP1 ISZERO PUSH2 0x576 JUMPI PUSH1 0x0 DUP1 REVERT JUMPDEST POP PUSH2 0x223 PUSH2 0x100 SLOAD DUP2 JUMP JUMPDEST CALLVALUE DUP1 ISZERO PUSH2 0x58D JUMPI PUSH1 0x0 DUP1 REVERT JUMPDEST POP PUSH2 0x20F PUSH2 0x59C CALLDATASIZE PUSH1 0x4 PUSH2 0x24D8 JUMP JUMPDEST PUSH2 0x133B JUMP JUMPDEST CALLVALUE DUP1 ISZERO PUSH2 0x5AD JUMPI PUSH1 0x0 DUP1 REVERT JUMPDEST POP PUSH2 0x20F PUSH2 0x5BC CALLDATASIZE PUSH1 0x4 PUSH2 0x2654 JUMP JUMPDEST PUSH2 0x1410 JUMP JUMPDEST CALLVALUE DUP1 ISZERO PUSH2 0x5CD JUMPI PUSH1 0x0 DUP1 REVERT JUMPDEST POP PUSH2 0x20F PUSH2 0x5DC CALLDATASIZE PUSH1 0x4 PUSH2 0x2654 JUMP JUMPDEST PUSH2 0x100 SSTORE JUMP JUMPDEST CALLVALUE DUP1 ISZERO PUSH2 0x5EE JUMPI PUSH1 0x0 DUP1 REVERT JUMPDEST POP PUSH2 0x223 PUSH2 0x103 SLOAD DUP2 JUMP JUMPDEST CALLVALUE DUP1 ISZERO PUSH2 0x605 JUMPI PUSH1 0x0 DUP1 REVERT JUMPDEST POP PUSH2 0x20F PUSH2 0x614 CALLDATASIZE PUSH1 0x4 PUSH2 0x2654 JUMP JUMPDEST PUSH2 0x1495 JUMP JUMPDEST CALLVALUE DUP1 ISZERO PUSH2 0x625 JUMPI PUSH1 0x0 DUP1 REVERT JUMPDEST POP PUSH2 0x20F PUSH2 0x634 CALLDATASIZE PUSH1 0x4 PUSH2 0x26B3 JUMP JUMPDEST PUSH2 0x14CA JUMP JUMPDEST CALLVALUE DUP1 ISZERO PUSH2 0x645 JUMPI PUSH1 0x0 DUP1 REVERT JUMPDEST POP PUSH1 0xFB SLOAD PUSH2 0x277 SWAP1 PUSH1 0x1 PUSH1 0x1 PUSH1 0xA0 SHL SUB AND DUP2 JUMP JUMPDEST CALLVALUE DUP1 ISZERO PUSH2 0x665 JUMPI PUSH1 0x0 DUP1 REVERT JUMPDEST POP PUSH2 0x20F PUSH2 0x674 CALLDATASIZE PUSH1 0x4 PUSH2 0x24D8 JUMP JUMPDEST PUSH2 0x1853 JUMP JUMPDEST PUSH1 0x0 SLOAD PUSH2 0x100 SWAP1 DIV PUSH1 0xFF AND DUP1 PUSH2 0x692 JUMPI POP PUSH1 0x0 SLOAD PUSH1 0xFF AND ISZERO JUMPDEST PUSH2 0x6B7 JUMPI PUSH1 0x40 MLOAD PUSH3 0x461BCD PUSH1 0xE5 SHL DUP2 MSTORE PUSH1 0x4 ADD PUSH2 0x6AE SWAP1 PUSH2 0x28ED JUMP JUMPDEST PUSH1 0x40 MLOAD DUP1 SWAP2 SUB SWAP1 REVERT JUMPDEST PUSH1 0x0 SLOAD PUSH2 0x100 SWAP1 DIV PUSH1 0xFF AND ISZERO DUP1 ISZERO PUSH2 0x6E2 JUMPI PUSH1 0x0 DUP1 SLOAD PUSH1 0xFF NOT PUSH2 0xFF00 NOT SWAP1 SWAP2 AND PUSH2 0x100 OR AND PUSH1 0x1 OR SWAP1 SSTORE JUMPDEST PUSH2 0x6EA PUSH2 0x18F0 JUMP JUMPDEST PUSH2 0x106 DUP1 SLOAD PUSH1 0x1 PUSH1 0x1 PUSH1 0xA0 SHL SUB DUP1 DUP12 AND PUSH1 0x1 PUSH1 0x1 PUSH1 0xA0 SHL SUB NOT SWAP3 DUP4 AND OR SWAP1 SWAP3 SSTORE PUSH1 0xFB DUP1 SLOAD DUP11 DUP5 AND SWAP1 DUP4 AND OR SWAP1 SSTORE PUSH1 0xFD DUP9 SWAP1 SSTORE PUSH2 0x104 DUP8 SWAP1 SSTORE PUSH1 0xFF DUP1 SLOAD DUP7 DUP5 AND SWAP1 DUP4 AND OR SWAP1 SSTORE PUSH1 0xFC DUP1 SLOAD SWAP3 DUP6 AND SWAP3 SWAP1 SWAP2 AND SWAP2 SWAP1 SWAP2 OR SWAP1 SSTORE PUSH2 0x100 DUP5 SWAP1 SSTORE PUSH3 0xF4240 PUSH1 0xFE SSTORE PUSH1 0xC8 PUSH2 0x103 SSTORE DUP1 ISZERO PUSH2 0x765 JUMPI PUSH1 0x0 DUP1 SLOAD PUSH2 0xFF00 NOT AND SWAP1 SSTORE JUMPDEST POP POP POP POP POP POP POP POP JUMP JUMPDEST PUSH1 0xFC SLOAD PUSH1 0x40 MLOAD PUSH4 0x23C4C9F PUSH1 0xE6 SHL DUP2 MSTORE PUSH1 0x4 DUP2 ADD DUP4 SWAP1 MSTORE PUSH1 0x0 SWAP2 PUSH1 0x1 PUSH1 0x1 PUSH1 0xA0 SHL SUB AND SWAP1 PUSH4 0x8F1327C0 SWAP1 PUSH1 0x24 ADD PUSH1 0x0 PUSH1 0x40 MLOAD DUP1 DUP4 SUB DUP2 DUP7 DUP1 EXTCODESIZE ISZERO DUP1 ISZERO PUSH2 0x7B4 JUMPI PUSH1 0x0 DUP1 REVERT JUMPDEST POP GAS STATICCALL ISZERO DUP1 ISZERO PUSH2 0x7C8 JUMPI RETURNDATASIZE PUSH1 0x0 DUP1 RETURNDATACOPY RETURNDATASIZE PUSH1 0x0 REVERT JUMPDEST POP POP POP POP PUSH1 0x40 MLOAD RETURNDATASIZE PUSH1 0x0 DUP3 RETURNDATACOPY PUSH1 0x1F RETURNDATASIZE SWAP1 DUP2 ADD PUSH1 0x1F NOT AND DUP3 ADD PUSH1 0x40 MSTORE PUSH2 0x7F0 SWAP2 SWAP1 DUP2 ADD SWAP1 PUSH2 0x26D4 JUMP JUMPDEST POP POP POP POP POP POP SWAP5 POP POP POP POP POP DUP1 PUSH2 0x85A JUMPI PUSH1 0x40 MLOAD PUSH3 0x461BCD PUSH1 0xE5 SHL DUP2 MSTORE PUSH1 0x20 PUSH1 0x4 DUP3 ADD MSTORE PUSH1 0x28 PUSH1 0x24 DUP3 ADD MSTORE PUSH32 0x526F756E6420776173206E6F74207375636365737366756C206F72206E6F7420 PUSH1 0x44 DUP3 ADD MSTORE PUSH8 0x636F6D706C657465 PUSH1 0xC0 SHL PUSH1 0x64 DUP3 ADD MSTORE PUSH1 0x84 ADD PUSH2 0x6AE JUMP JUMPDEST PUSH1 0xFC SLOAD PUSH1 0x40 DUP1 MLOAD PUSH4 0xECCE301 PUSH1 0xE3 SHL DUP2 MSTORE SWAP1 MLOAD PUSH1 0x0 SWAP3 PUSH1 0x1 PUSH1 0x1 PUSH1 0xA0 SHL SUB AND SWAP2 PUSH4 0x76671808 SWAP2 PUSH1 0x4 DUP1 DUP4 ADD SWAP3 PUSH1 0x20 SWAP3 SWAP2 SWAP1 DUP3 SWAP1 SUB ADD DUP2 DUP8 DUP8 DUP1 EXTCODESIZE ISZERO DUP1 ISZERO PUSH2 0x8A0 JUMPI PUSH1 0x0 DUP1 REVERT JUMPDEST POP GAS CALL ISZERO DUP1 ISZERO PUSH2 0x8B4 JUMPI RETURNDATASIZE PUSH1 0x0 DUP1 RETURNDATACOPY RETURNDATASIZE PUSH1 0x0 REVERT JUMPDEST POP POP POP POP PUSH1 0x40 MLOAD RETURNDATASIZE PUSH1 0x1F NOT PUSH1 0x1F DUP3 ADD AND DUP3 ADD DUP1 PUSH1 0x40 MSTORE POP DUP2 ADD SWAP1 PUSH2 0x8D8 SWAP2 SWAP1 PUSH2 0x266C JUMP JUMPDEST SWAP1 POP DUP3 DUP2 EQ PUSH2 0x9C8 JUMPI PUSH1 0xFC SLOAD PUSH1 0x40 MLOAD PUSH4 0x23C4C9F PUSH1 0xE6 SHL DUP2 MSTORE PUSH1 0x4 DUP2 ADD DUP4 SWAP1 MSTORE PUSH1 0x0 SWAP2 PUSH1 0x1 PUSH1 0x1 PUSH1 0xA0 SHL SUB AND SWAP1 PUSH4 0x8F1327C0 SWAP1 PUSH1 0x24 ADD PUSH1 0x0 PUSH1 0x40 MLOAD DUP1 DUP4 SUB DUP2 DUP7 DUP1 EXTCODESIZE ISZERO DUP1 ISZERO PUSH2 0x926 JUMPI PUSH1 0x0 DUP1 REVERT JUMPDEST POP GAS STATICCALL ISZERO DUP1 ISZERO PUSH2 0x93A JUMPI RETURNDATASIZE PUSH1 0x0 DUP1 RETURNDATACOPY RETURNDATASIZE PUSH1 0x0 REVERT JUMPDEST POP POP POP POP PUSH1 0x40 MLOAD RETURNDATASIZE PUSH1 0x0 DUP3 RETURNDATACOPY PUSH1 0x1F RETURNDATASIZE SWAP1 DUP2 ADD PUSH1 0x1F NOT AND DUP3 ADD PUSH1 0x40 MSTORE PUSH2 0x962 SWAP2 SWAP1 DUP2 ADD SWAP1 PUSH2 0x26D4 JUMP JUMPDEST POP POP POP POP POP POP SWAP5 POP POP POP POP POP DUP1 ISZERO PUSH2 0x9C6 JUMPI PUSH1 0x40 MLOAD PUSH3 0x461BCD PUSH1 0xE5 SHL DUP2 MSTORE PUSH1 0x20 PUSH1 0x4 DUP3 ADD MSTORE PUSH1 0x21 PUSH1 0x24 DUP3 ADD MSTORE PUSH32 0x43757272656E7420526F756E6420697320616C726561647920636F6D706C6574 PUSH1 0x44 DUP3 ADD MSTORE PUSH1 0x65 PUSH1 0xF8 SHL PUSH1 0x64 DUP3 ADD MSTORE PUSH1 0x84 ADD PUSH2 0x6AE JUMP JUMPDEST POP JUMPDEST PUSH2 0x101 SLOAD ISZERO PUSH2 0xACF JUMPI PUSH2 0x101 SLOAD PUSH1 0x0 SWAP1 PUSH2 0x9E4 SWAP1 PUSH1 0x1 SWAP1 PUSH2 0x2A1A JUMP JUMPDEST SWAP1 POP DUP4 PUSH2 0x101 DUP3 DUP2 SLOAD DUP2 LT PUSH2 0xA09 JUMPI PUSH4 0x4E487B71 PUSH1 0xE0 SHL PUSH1 0x0 MSTORE PUSH1 0x32 PUSH1 0x4 MSTORE PUSH1 0x24 PUSH1 0x0 REVERT JUMPDEST SWAP1 PUSH1 0x0 MSTORE PUSH1 0x20 PUSH1 0x0 KECCAK256 SWAP1 PUSH1 0x5 MUL ADD PUSH1 0x3 ADD SLOAD LT PUSH2 0xA80 JUMPI PUSH1 0x40 MLOAD PUSH3 0x461BCD PUSH1 0xE5 SHL DUP2 MSTORE PUSH1 0x20 PUSH1 0x4 DUP3 ADD MSTORE PUSH1 0x2F PUSH1 0x24 DUP3 ADD MSTORE PUSH32 0x4E65772065706F63682063616E6E6F74206265206C657373206F722065717561 PUSH1 0x44 DUP3 ADD MSTORE PUSH15 0xD840E8DE40E0C2E6E840CAE0DEC6D PUSH1 0x8B SHL PUSH1 0x64 DUP3 ADD MSTORE PUSH1 0x84 ADD PUSH2 0x6AE JUMP JUMPDEST PUSH2 0xA89 DUP2 PUSH2 0xE85 JUMP JUMPDEST PUSH2 0x101 DUP1 SLOAD PUSH1 0x0 SWAP2 SWAP1 PUSH2 0xA9E SWAP1 PUSH1 0x1 SWAP1 PUSH2 0x2A1A JUMP JUMPDEST DUP2 SLOAD DUP2 LT PUSH2 0xABC JUMPI PUSH4 0x4E487B71 PUSH1 0xE0 SHL PUSH1 0x0 MSTORE PUSH1 0x32 PUSH1 0x4 MSTORE PUSH1 0x24 PUSH1 0x0 REVERT JUMPDEST PUSH1 0x0 SWAP2 DUP3 MSTORE PUSH1 0x20 SWAP1 SWAP2 KECCAK256 PUSH1 0x5 SWAP1 SWAP2 MUL ADD SSTORE POP JUMPDEST PUSH2 0xADC PUSH2 0x103 SLOAD DUP5 PUSH2 0x1974 JUMP JUMPDEST POP POP POP JUMP JUMPDEST PUSH1 0xFC SLOAD PUSH1 0x40 MLOAD PUSH4 0xA90B027 PUSH1 0xE1 SHL DUP2 MSTORE PUSH1 0x0 SWAP2 PUSH1 0x1 PUSH1 0x1 PUSH1 0xA0 SHL SUB AND SWAP1 PUSH4 0x1521604E SWAP1 PUSH2 0xB14 SWAP1 DUP7 SWAP1 DUP7 SWAP1 PUSH1 0x4 ADD PUSH2 0x2849 JUMP JUMPDEST PUSH1 0x20 PUSH1 0x40 MLOAD DUP1 DUP4 SUB DUP2 DUP7 DUP1 EXTCODESIZE ISZERO DUP1 ISZERO PUSH2 0xB2C JUMPI PUSH1 0x0 DUP1 REVERT JUMPDEST POP GAS STATICCALL ISZERO DUP1 ISZERO PUSH2 0xB40 JUMPI RETURNDATASIZE PUSH1 0x0 DUP1 RETURNDATACOPY RETURNDATASIZE PUSH1 0x0 REVERT JUMPDEST POP POP POP POP PUSH1 0x40 MLOAD RETURNDATASIZE PUSH1 0x1F NOT PUSH1 0x1F DUP3 ADD AND DUP3 ADD DUP1 PUSH1 0x40 MSTORE POP DUP2 ADD SWAP1 PUSH2 0xB64 SWAP2 SWAP1 PUSH2 0x263A JUMP JUMPDEST SWAP4 SWAP3 POP POP POP JUMP JUMPDEST PUSH2 0x101 DUP2 DUP2 SLOAD DUP2 LT PUSH2 0xB7C JUMPI PUSH1 0x0 DUP1 REVERT JUMPDEST PUSH1 0x0 SWAP2 DUP3 MSTORE PUSH1 0x20 SWAP1 SWAP2 KECCAK256 PUSH1 0x5 SWAP1 SWAP2 MUL ADD DUP1 SLOAD PUSH1 0x1 DUP3 ADD SLOAD PUSH1 0x2 DUP4 ADD SLOAD PUSH1 0x3 DUP5 ADD SLOAD PUSH1 0x4 SWAP1 SWAP5 ADD SLOAD SWAP3 SWAP5 POP SWAP1 SWAP3 SWAP1 SWAP2 DUP6 JUMP JUMPDEST PUSH1 0xFC SLOAD PUSH1 0x40 MLOAD PUSH4 0xE468271 PUSH1 0xE1 SHL DUP2 MSTORE PUSH1 0x0 SWAP2 PUSH1 0x1 PUSH1 0x1 PUSH1 0xA0 SHL SUB AND SWAP1 PUSH4 0x1C8D04E2 SWAP1 PUSH2 0xB14 SWAP1 DUP7 SWAP1 DUP7 SWAP1 PUSH1 0x4 ADD PUSH2 0x2849 JUMP JUMPDEST PUSH2 0xBE9 DUP2 PUSH2 0x1AD4 JUMP JUMPDEST PUSH2 0xC04 DUP2 PUSH1 0x40 MLOAD DUP1 PUSH1 0x20 ADD PUSH1 0x40 MSTORE DUP1 PUSH1 0x0 DUP2 MSTORE POP PUSH1 0x0 PUSH2 0x1B03 JUMP JUMPDEST POP JUMP JUMPDEST CALLER PUSH2 0xC10 PUSH2 0x1312 JUMP JUMPDEST PUSH1 0x1 PUSH1 0x1 PUSH1 0xA0 SHL SUB AND EQ PUSH2 0xC36 JUMPI PUSH1 0x40 MLOAD PUSH3 0x461BCD PUSH1 0xE5 SHL DUP2 MSTORE PUSH1 0x4 ADD PUSH2 0x6AE SWAP1 PUSH2 0x293B JUMP JUMPDEST PUSH2 0xC3E PUSH2 0x1C4A JUMP JUMPDEST JUMP JUMPDEST PUSH1 0x33 SLOAD PUSH1 0xFF AND ISZERO PUSH2 0xC63 JUMPI PUSH1 0x40 MLOAD PUSH3 0x461BCD PUSH1 0xE5 SHL DUP2 MSTORE PUSH1 0x4 ADD PUSH2 0x6AE SWAP1 PUSH2 0x28C3 JUMP JUMPDEST PUSH1 0x0 PUSH2 0x101 DUP4 DUP2 SLOAD DUP2 LT PUSH2 0xC87 JUMPI PUSH4 0x4E487B71 PUSH1 0xE0 SHL PUSH1 0x0 MSTORE PUSH1 0x32 PUSH1 0x4 MSTORE PUSH1 0x24 PUSH1 0x0 REVERT JUMPDEST PUSH1 0x0 SWAP2 DUP3 MSTORE PUSH1 0x20 DUP1 DUP4 KECCAK256 DUP7 DUP5 MSTORE PUSH2 0x102 DUP3 MSTORE PUSH1 0x40 DUP1 DUP6 KECCAK256 CALLER DUP7 MSTORE SWAP1 SWAP3 MSTORE SWAP3 KECCAK256 DUP1 SLOAD PUSH1 0x5 SWAP1 SWAP3 MUL SWAP1 SWAP3 ADD SWAP3 POP DUP4 GT ISZERO PUSH2 0xCF6 JUMPI PUSH1 0x40 MLOAD PUSH3 0x461BCD PUSH1 0xE5 SHL DUP2 MSTORE PUSH1 0x20 PUSH1 0x4 DUP3 ADD MSTORE PUSH1 0x12 PUSH1 0x24 DUP3 ADD MSTORE PUSH18 0x1DDA5D1A191C985DCE881B9BDD0819DBDBD9 PUSH1 0x72 SHL PUSH1 0x44 DUP3 ADD MSTORE PUSH1 0x64 ADD PUSH2 0x6AE JUMP JUMPDEST PUSH2 0xCFF DUP5 PUSH2 0xE85 JUMP JUMPDEST PUSH1 0x0 PUSH2 0xD40 DUP3 PUSH1 0x1 ADD SLOAD PUSH2 0xD3A PUSH9 0x327CB2734119D3B7A9 PUSH1 0x1E SHL PUSH2 0xD34 DUP8 PUSH1 0x2 ADD SLOAD DUP8 PUSH1 0x0 ADD SLOAD PUSH2 0x1CB0 SWAP1 SWAP2 SWAP1 PUSH4 0xFFFFFFFF AND JUMP JUMPDEST SWAP1 PUSH2 0x1CBC JUMP JUMPDEST SWAP1 PUSH2 0x1CC8 JUMP JUMPDEST SWAP1 POP DUP1 ISZERO PUSH2 0xD52 JUMPI PUSH2 0xD52 CALLER DUP3 PUSH2 0x1CD4 JUMP JUMPDEST DUP4 ISZERO PUSH2 0xD91 JUMPI DUP2 SLOAD PUSH2 0xD64 SWAP1 DUP6 PUSH2 0x1CC8 JUMP JUMPDEST DUP3 SSTORE PUSH1 0x4 DUP4 ADD SLOAD PUSH2 0xD75 SWAP1 DUP6 PUSH2 0x1CC8 JUMP JUMPDEST PUSH1 0x4 DUP5 ADD SSTORE PUSH1 0xFB SLOAD PUSH2 0xD91 SWAP1 PUSH1 0x1 PUSH1 0x1 PUSH1 0xA0 SHL SUB AND CALLER DUP7 PUSH2 0x1D6C JUMP JUMPDEST PUSH1 0x2 DUP4 ADD SLOAD DUP3 SLOAD PUSH2 0xDB3 SWAP2 PUSH9 0x327CB2734119D3B7A9 PUSH1 0x1E SHL SWAP2 PUSH2 0xD34 SWAP2 PUSH2 0x1CB0 JUMP JUMPDEST DUP3 PUSH1 0x1 ADD DUP2 SWAP1 SSTORE POP DUP3 PUSH2 0x101 DUP7 DUP2 SLOAD DUP2 LT PUSH2 0xDDE JUMPI PUSH4 0x4E487B71 PUSH1 0xE0 SHL PUSH1 0x0 MSTORE PUSH1 0x32 PUSH1 0x4 MSTORE PUSH1 0x24 PUSH1 0x0 REVERT JUMPDEST SWAP1 PUSH1 0x0 MSTORE PUSH1 0x20 PUSH1 0x0 KECCAK256 SWAP1 PUSH1 0x5 MUL ADD PUSH1 0x0 DUP3 ADD SLOAD DUP2 PUSH1 0x0 ADD SSTORE PUSH1 0x1 DUP3 ADD SLOAD DUP2 PUSH1 0x1 ADD SSTORE PUSH1 0x2 DUP3 ADD SLOAD DUP2 PUSH1 0x2 ADD SSTORE PUSH1 0x3 DUP3 ADD SLOAD DUP2 PUSH1 0x3 ADD SSTORE PUSH1 0x4 DUP3 ADD SLOAD DUP2 PUSH1 0x4 ADD SSTORE SWAP1 POP POP DUP5 CALLER PUSH1 0x1 PUSH1 0x1 PUSH1 0xA0 SHL SUB AND PUSH32 0xF279E6A1F5E320CCA91135676D9CB6E44CA8A08C0B88342BCDB1144F6511B568 DUP7 PUSH1 0x40 MLOAD PUSH2 0xE5D SWAP2 DUP2 MSTORE PUSH1 0x20 ADD SWAP1 JUMP JUMPDEST PUSH1 0x40 MLOAD DUP1 SWAP2 SUB SWAP1 LOG3 POP POP POP POP POP JUMP JUMPDEST PUSH2 0xE75 DUP3 PUSH2 0x1AD4 JUMP JUMPDEST PUSH2 0xE81 DUP3 DUP3 PUSH1 0x1 PUSH2 0x1B03 JUMP JUMPDEST POP POP JUMP JUMPDEST PUSH1 0x0 PUSH2 0x101 DUP3 DUP2 SLOAD DUP2 LT PUSH2 0xEA9 JUMPI PUSH4 0x4E487B71 PUSH1 0xE0 SHL PUSH1 0x0 MSTORE PUSH1 0x32 PUSH1 0x4 MSTORE PUSH1 0x24 PUSH1 0x0 REVERT JUMPDEST SWAP1 PUSH1 0x0 MSTORE PUSH1 0x20 PUSH1 0x0 KECCAK256 SWAP1 PUSH1 0x5 MUL ADD SWAP1 POP DUP1 PUSH1 0x1 ADD SLOAD NUMBER GT PUSH2 0xECA JUMPI POP PUSH2 0xC04 JUMP JUMPDEST PUSH1 0x4 DUP2 ADD SLOAD PUSH2 0xEDF JUMPI NUMBER PUSH1 0x1 SWAP1 SWAP2 ADD SSTORE PUSH2 0xC04 JUMP JUMPDEST PUSH1 0x0 PUSH2 0xEEF DUP3 PUSH1 0x1 ADD SLOAD NUMBER PUSH2 0x1321 JUMP JUMPDEST SWAP1 POP PUSH1 0x0 PUSH2 0xF08 PUSH1 0xFD SLOAD DUP4 PUSH2 0x1CB0 SWAP1 SWAP2 SWAP1 PUSH4 0xFFFFFFFF AND JUMP JUMPDEST PUSH2 0x105 SLOAD PUSH1 0xFB SLOAD PUSH1 0xFF SLOAD PUSH1 0x40 MLOAD PUSH4 0x70A08231 PUSH1 0xE0 SHL DUP2 MSTORE SWAP4 SWAP5 POP PUSH1 0x0 SWAP4 PUSH2 0xF9C SWAP4 SWAP3 PUSH1 0x1 PUSH1 0x1 PUSH1 0xA0 SHL SUB SWAP1 DUP2 AND SWAP3 PUSH4 0x70A08231 SWAP3 PUSH2 0xF4C SWAP3 SWAP1 SWAP2 AND SWAP1 PUSH1 0x4 ADD PUSH2 0x2835 JUMP JUMPDEST PUSH1 0x20 PUSH1 0x40 MLOAD DUP1 DUP4 SUB DUP2 DUP7 DUP1 EXTCODESIZE ISZERO DUP1 ISZERO PUSH2 0xF64 JUMPI PUSH1 0x0 DUP1 REVERT JUMPDEST POP GAS STATICCALL ISZERO DUP1 ISZERO PUSH2 0xF78 JUMPI RETURNDATASIZE PUSH1 0x0 DUP1 RETURNDATACOPY RETURNDATASIZE PUSH1 0x0 REVERT JUMPDEST POP POP POP POP PUSH1 0x40 MLOAD RETURNDATASIZE PUSH1 0x1F NOT PUSH1 0x1F DUP3 ADD AND DUP3 ADD DUP1 PUSH1 0x40 MSTORE POP DUP2 ADD SWAP1 PUSH2 0xD3A SWAP2 SWAP1 PUSH2 0x266C JUMP JUMPDEST SWAP1 POP DUP1 DUP3 LT PUSH2 0xFA9 JUMPI DUP1 SWAP2 POP JUMPDEST PUSH1 0x4 DUP5 ADD SLOAD PUSH2 0xFD7 SWAP1 PUSH2 0xFCC SWAP1 PUSH2 0xD34 DUP6 PUSH9 0x327CB2734119D3B7A9 PUSH1 0x1E SHL PUSH2 0x1CB0 JUMP JUMPDEST PUSH1 0x2 DUP7 ADD SLOAD SWAP1 PUSH2 0x1DC2 JUMP JUMPDEST PUSH1 0x2 DUP6 ADD SSTORE PUSH2 0x105 SLOAD PUSH2 0xFEA SWAP1 DUP4 PUSH2 0x1DC2 JUMP JUMPDEST PUSH2 0x105 SSTORE POP POP NUMBER PUSH1 0x1 SWAP1 SWAP3 ADD SWAP2 SWAP1 SWAP2 SSTORE POP POP JUMP JUMPDEST PUSH1 0x33 SLOAD PUSH1 0xFF AND PUSH2 0x1020 JUMPI PUSH1 0x40 MLOAD PUSH3 0x461BCD PUSH1 0xE5 SHL DUP2 MSTORE PUSH1 0x4 ADD PUSH2 0x6AE SWAP1 PUSH2 0x2895 JUMP JUMPDEST PUSH1 0x0 PUSH2 0x101 DUP3 DUP2 SLOAD DUP2 LT PUSH2 0x1044 JUMPI PUSH4 0x4E487B71 PUSH1 0xE0 SHL PUSH1 0x0 MSTORE PUSH1 0x32 PUSH1 0x4 MSTORE PUSH1 0x24 PUSH1 0x0 REVERT JUMPDEST PUSH1 0x0 SWAP2 DUP3 MSTORE PUSH1 0x20 DUP1 DUP4 KECCAK256 DUP6 DUP5 MSTORE PUSH2 0x102 DUP3 MSTORE PUSH1 0x40 DUP1 DUP6 KECCAK256 CALLER DUP7 MSTORE SWAP1 SWAP3 MSTORE SWAP1 DUP4 KECCAK256 DUP1 SLOAD DUP5 DUP3 SSTORE PUSH1 0x1 DUP3 ADD DUP6 SWAP1 SSTORE PUSH1 0x2 PUSH1 0x5 SWAP1 SWAP5 MUL SWAP1 SWAP3 ADD SWAP3 DUP4 ADD SLOAD SWAP3 SWAP5 POP SWAP3 SWAP1 SWAP2 PUSH2 0x10A7 SWAP1 DUP3 SWAP1 PUSH2 0xD3A SWAP1 PUSH9 0x327CB2734119D3B7A9 PUSH1 0x1E SHL SWAP1 PUSH2 0xD34 SWAP1 DUP8 SWAP1 PUSH2 0x1CB0 JUMP JUMPDEST SWAP1 POP PUSH2 0x105 SLOAD DUP2 GT PUSH2 0x10C6 JUMPI PUSH2 0x105 SLOAD PUSH2 0x10C1 SWAP1 DUP3 PUSH2 0x1CC8 JUMP JUMPDEST PUSH2 0x105 SSTORE JUMPDEST PUSH1 0xFB SLOAD PUSH2 0x10DD SWAP1 PUSH1 0x1 PUSH1 0x1 PUSH1 0xA0 SHL SUB AND CALLER DUP5 PUSH2 0x1D6C JUMP JUMPDEST PUSH1 0x40 MLOAD DUP3 DUP2 MSTORE DUP6 SWAP1 CALLER SWAP1 PUSH32 0xBB757047C2B5F3974FE26B7C10F732E7BCE710B0952A71082702781E62AE0595 SWAP1 PUSH1 0x20 ADD PUSH2 0xE5D JUMP JUMPDEST CALLER PUSH2 0x111A PUSH2 0x1312 JUMP JUMPDEST PUSH1 0x1 PUSH1 0x1 PUSH1 0xA0 SHL SUB AND EQ PUSH2 0x1140 JUMPI PUSH1 0x40 MLOAD PUSH3 0x461BCD PUSH1 0xE5 SHL DUP2 MSTORE PUSH1 0x4 ADD PUSH2 0x6AE SWAP1 PUSH2 0x293B JUMP JUMPDEST PUSH1 0xFE SSTORE JUMP JUMPDEST PUSH1 0x0 DUP1 PUSH2 0x101 DUP5 DUP2 SLOAD DUP2 LT PUSH2 0x116A JUMPI PUSH4 0x4E487B71 PUSH1 0xE0 SHL PUSH1 0x0 MSTORE PUSH1 0x32 PUSH1 0x4 MSTORE PUSH1 0x24 PUSH1 0x0 REVERT JUMPDEST PUSH1 0x0 SWAP2 DUP3 MSTORE PUSH1 0x20 DUP1 DUP4 KECCAK256 DUP8 DUP5 MSTORE PUSH2 0x102 DUP3 MSTORE PUSH1 0x40 DUP1 DUP6 KECCAK256 PUSH1 0x1 PUSH1 0x1 PUSH1 0xA0 SHL SUB DUP10 AND DUP7 MSTORE SWAP1 SWAP3 MSTORE SWAP3 KECCAK256 PUSH1 0x2 PUSH1 0x5 SWAP1 SWAP3 MUL SWAP1 SWAP3 ADD SWAP1 DUP2 ADD SLOAD PUSH1 0x1 DUP3 ADD SLOAD SWAP2 SWAP4 POP SWAP1 NUMBER GT DUP1 ISZERO PUSH2 0x11BA JUMPI POP PUSH1 0x4 DUP4 ADD SLOAD ISZERO ISZERO JUMPDEST ISZERO PUSH2 0x1269 JUMPI PUSH1 0x0 PUSH2 0x11CF DUP5 PUSH1 0x1 ADD SLOAD NUMBER PUSH2 0x1321 JUMP JUMPDEST SWAP1 POP PUSH1 0x0 PUSH2 0x11E8 PUSH1 0xFD SLOAD DUP4 PUSH2 0x1CB0 SWAP1 SWAP2 SWAP1 PUSH4 0xFFFFFFFF AND JUMP JUMPDEST PUSH2 0x105 SLOAD PUSH1 0xFB SLOAD PUSH1 0xFF SLOAD PUSH1 0x40 MLOAD PUSH4 0x70A08231 PUSH1 0xE0 SHL DUP2 MSTORE SWAP4 SWAP5 POP PUSH1 0x0 SWAP4 PUSH2 0x122C SWAP4 SWAP3 PUSH1 0x1 PUSH1 0x1 PUSH1 0xA0 SHL SUB SWAP1 DUP2 AND SWAP3 PUSH4 0x70A08231 SWAP3 PUSH2 0xF4C SWAP3 SWAP1 SWAP2 AND SWAP1 PUSH1 0x4 ADD PUSH2 0x2835 JUMP JUMPDEST SWAP1 POP DUP1 DUP3 LT PUSH2 0x1239 JUMPI DUP1 SWAP2 POP JUMPDEST PUSH1 0x4 DUP7 ADD SLOAD PUSH2 0x1263 SWAP1 PUSH2 0x125C SWAP1 PUSH2 0xD34 DUP6 PUSH9 0x327CB2734119D3B7A9 PUSH1 0x1E SHL PUSH2 0x1CB0 JUMP JUMPDEST DUP6 SWAP1 PUSH2 0x1DC2 JUMP JUMPDEST SWAP4 POP POP POP POP JUMPDEST PUSH2 0x1298 DUP3 PUSH1 0x1 ADD SLOAD PUSH2 0xD3A PUSH9 0x327CB2734119D3B7A9 PUSH1 0x1E SHL PUSH2 0xD34 DUP6 DUP8 PUSH1 0x0 ADD SLOAD PUSH2 0x1CB0 SWAP1 SWAP2 SWAP1 PUSH4 0xFFFFFFFF AND JUMP JUMPDEST SWAP7 SWAP6 POP POP POP POP POP POP JUMP JUMPDEST CALLER PUSH2 0x12AB PUSH2 0x1312 JUMP JUMPDEST PUSH1 0x1 PUSH1 0x1 PUSH1 0xA0 SHL SUB AND EQ PUSH2 0x12D1 JUMPI PUSH1 0x40 MLOAD PUSH3 0x461BCD PUSH1 0xE5 SHL DUP2 MSTORE PUSH1 0x4 ADD PUSH2 0x6AE SWAP1 PUSH2 0x293B JUMP JUMPDEST PUSH2 0xC3E PUSH1 0x0 PUSH2 0x1DCE JUMP JUMPDEST CALLER PUSH2 0x12E4 PUSH2 0x1312 JUMP JUMPDEST PUSH1 0x1 PUSH1 0x1 PUSH1 0xA0 SHL SUB AND EQ PUSH2 0x130A JUMPI PUSH1 0x40 MLOAD PUSH3 0x461BCD PUSH1 0xE5 SHL DUP2 MSTORE PUSH1 0x4 ADD PUSH2 0x6AE SWAP1 PUSH2 0x293B JUMP JUMPDEST PUSH2 0xC3E PUSH2 0x1E20 JUMP JUMPDEST PUSH1 0xC9 SLOAD PUSH1 0x1 PUSH1 0x1 PUSH1 0xA0 SHL SUB AND SWAP1 JUMP JUMPDEST PUSH1 0xFE SLOAD PUSH1 0x0 SWAP1 PUSH2 0xB64 SWAP1 PUSH2 0x1335 DUP5 DUP7 PUSH2 0x1CC8 JUMP JUMPDEST SWAP1 PUSH2 0x1CB0 JUMP JUMPDEST CALLER PUSH2 0x1344 PUSH2 0x1312 JUMP JUMPDEST PUSH1 0x1 PUSH1 0x1 PUSH1 0xA0 SHL SUB AND EQ PUSH2 0x136A JUMPI PUSH1 0x40 MLOAD PUSH3 0x461BCD PUSH1 0xE5 SHL DUP2 MSTORE PUSH1 0x4 ADD PUSH2 0x6AE SWAP1 PUSH2 0x293B JUMP JUMPDEST PUSH1 0x1 PUSH1 0x1 PUSH1 0xA0 SHL SUB DUP2 AND PUSH2 0x13B9 JUMPI PUSH1 0x40 MLOAD PUSH3 0x461BCD PUSH1 0xE5 SHL DUP2 MSTORE PUSH1 0x20 PUSH1 0x4 DUP3 ADD MSTORE PUSH1 0x16 PUSH1 0x24 DUP3 ADD MSTORE PUSH22 0x43616E6E6F74206265207A65726F2061646472657373 PUSH1 0x50 SHL PUSH1 0x44 DUP3 ADD MSTORE PUSH1 0x64 ADD PUSH2 0x6AE JUMP JUMPDEST PUSH2 0x106 DUP1 SLOAD PUSH1 0x1 PUSH1 0x1 PUSH1 0xA0 SHL SUB NOT AND PUSH1 0x1 PUSH1 0x1 PUSH1 0xA0 SHL SUB DUP4 AND OR SWAP1 SSTORE PUSH1 0x40 MLOAD PUSH32 0xC47D127C07BDD56C5CCBA00463CE3BD3C1BCA71B4670EEA6E5D0C02E4AA156E2 SWAP1 PUSH2 0x1405 SWAP1 DUP4 SWAP1 PUSH2 0x2835 JUMP JUMPDEST PUSH1 0x40 MLOAD DUP1 SWAP2 SUB SWAP1 LOG1 POP JUMP JUMPDEST CALLER PUSH2 0x1419 PUSH2 0x1312 JUMP JUMPDEST PUSH1 0x1 PUSH1 0x1 PUSH1 0xA0 SHL SUB AND EQ PUSH2 0x143F JUMPI PUSH1 0x40 MLOAD PUSH3 0x461BCD PUSH1 0xE5 SHL DUP2 MSTORE PUSH1 0x4 ADD PUSH2 0x6AE SWAP1 PUSH2 0x293B JUMP JUMPDEST PUSH2 0x101 SLOAD PUSH1 0x0 SWAP1 PUSH2 0x1452 SWAP1 PUSH1 0x1 SWAP1 PUSH2 0x2A1A JUMP JUMPDEST SWAP1 POP PUSH2 0x145D DUP2 PUSH2 0xE85 JUMP JUMPDEST DUP2 PUSH2 0x101 DUP3 DUP2 SLOAD DUP2 LT PUSH2 0x1480 JUMPI PUSH4 0x4E487B71 PUSH1 0xE0 SHL PUSH1 0x0 MSTORE PUSH1 0x32 PUSH1 0x4 MSTORE PUSH1 0x24 PUSH1 0x0 REVERT JUMPDEST PUSH1 0x0 SWAP2 DUP3 MSTORE PUSH1 0x20 SWAP1 SWAP2 KECCAK256 PUSH1 0x5 SWAP1 SWAP2 MUL ADD SSTORE POP POP JUMP JUMPDEST CALLER PUSH2 0x149E PUSH2 0x1312 JUMP JUMPDEST PUSH1 0x1 PUSH1 0x1 PUSH1 0xA0 SHL SUB AND EQ PUSH2 0x14C4 JUMPI PUSH1 0x40 MLOAD PUSH3 0x461BCD PUSH1 0xE5 SHL DUP2 MSTORE PUSH1 0x4 ADD PUSH2 0x6AE SWAP1 PUSH2 0x293B JUMP JUMPDEST PUSH2 0x103 SSTORE JUMP JUMPDEST PUSH1 0x33 SLOAD PUSH1 0xFF AND ISZERO PUSH2 0x14ED JUMPI PUSH1 0x40 MLOAD PUSH3 0x461BCD PUSH1 0xE5 SHL DUP2 MSTORE PUSH1 0x4 ADD PUSH2 0x6AE SWAP1 PUSH2 0x28C3 JUMP JUMPDEST PUSH2 0x14F6 DUP3 PUSH2 0xE85 JUMP JUMPDEST PUSH1 0x0 PUSH2 0x101 DUP4 DUP2 SLOAD DUP2 LT PUSH2 0x151A JUMPI PUSH4 0x4E487B71 PUSH1 0xE0 SHL PUSH1 0x0 MSTORE PUSH1 0x32 PUSH1 0x4 MSTORE PUSH1 0x24 PUSH1 0x0 REVERT JUMPDEST PUSH1 0x0 SWAP2 DUP3 MSTORE PUSH1 0x20 SWAP1 SWAP2 KECCAK256 PUSH1 0xFC SLOAD PUSH1 0x5 SWAP1 SWAP3 MUL ADD PUSH1 0x3 DUP2 ADD SLOAD PUSH1 0x40 MLOAD PUSH4 0xA90B027 PUSH1 0xE1 SHL DUP2 MSTORE SWAP2 SWAP4 POP PUSH1 0x1 PUSH1 0x1 PUSH1 0xA0 SHL SUB SWAP1 SWAP3 AND SWAP2 PUSH4 0x1521604E SWAP2 PUSH2 0x1562 SWAP2 CALLER SWAP2 PUSH1 0x4 ADD PUSH2 0x2849 JUMP JUMPDEST PUSH1 0x20 PUSH1 0x40 MLOAD DUP1 DUP4 SUB DUP2 DUP7 DUP1 EXTCODESIZE ISZERO DUP1 ISZERO PUSH2 0x157A JUMPI PUSH1 0x0 DUP1 REVERT JUMPDEST POP GAS STATICCALL ISZERO DUP1 ISZERO PUSH2 0x158E JUMPI RETURNDATASIZE PUSH1 0x0 DUP1 RETURNDATACOPY RETURNDATASIZE PUSH1 0x0 REVERT JUMPDEST POP POP POP POP PUSH1 0x40 MLOAD RETURNDATASIZE PUSH1 0x1F NOT PUSH1 0x1F DUP3 ADD AND DUP3 ADD DUP1 PUSH1 0x40 MSTORE POP DUP2 ADD SWAP1 PUSH2 0x15B2 SWAP2 SWAP1 PUSH2 0x263A JUMP JUMPDEST PUSH2 0x1608 JUMPI PUSH1 0x40 MLOAD PUSH3 0x461BCD PUSH1 0xE5 SHL DUP2 MSTORE PUSH1 0x20 PUSH1 0x4 DUP3 ADD MSTORE PUSH1 0x21 PUSH1 0x24 DUP3 ADD MSTORE PUSH32 0x446964206E6F742077696E20746869732050726564696374696F6E20726F756E PUSH1 0x44 DUP3 ADD MSTORE PUSH1 0x19 PUSH1 0xFA SHL PUSH1 0x64 DUP3 ADD MSTORE PUSH1 0x84 ADD PUSH2 0x6AE JUMP JUMPDEST PUSH1 0x0 DUP4 DUP2 MSTORE PUSH2 0x102 PUSH1 0x20 SWAP1 DUP2 MSTORE PUSH1 0x40 DUP1 DUP4 KECCAK256 CALLER DUP5 MSTORE SWAP1 SWAP2 MSTORE SWAP1 KECCAK256 DUP1 SLOAD ISZERO PUSH2 0x1672 JUMPI PUSH1 0x0 PUSH2 0x165E DUP3 PUSH1 0x1 ADD SLOAD PUSH2 0xD3A PUSH9 0x327CB2734119D3B7A9 PUSH1 0x1E SHL PUSH2 0xD34 DUP8 PUSH1 0x2 ADD SLOAD DUP8 PUSH1 0x0 ADD SLOAD PUSH2 0x1CB0 SWAP1 SWAP2 SWAP1 PUSH4 0xFFFFFFFF AND JUMP JUMPDEST SWAP1 POP DUP1 ISZERO PUSH2 0x1670 JUMPI PUSH2 0x1670 CALLER DUP3 PUSH2 0x1CD4 JUMP JUMPDEST POP JUMPDEST DUP3 ISZERO PUSH2 0x17EF JUMPI PUSH1 0xFB SLOAD PUSH1 0x40 MLOAD PUSH4 0x70A08231 PUSH1 0xE0 SHL DUP2 MSTORE PUSH1 0x0 SWAP2 PUSH1 0x1 PUSH1 0x1 PUSH1 0xA0 SHL SUB AND SWAP1 PUSH4 0x70A08231 SWAP1 PUSH2 0x16A9 SWAP1 ADDRESS SWAP1 PUSH1 0x4 ADD PUSH2 0x2835 JUMP JUMPDEST PUSH1 0x20 PUSH1 0x40 MLOAD DUP1 DUP4 SUB DUP2 DUP7 DUP1 EXTCODESIZE ISZERO DUP1 ISZERO PUSH2 0x16C1 JUMPI PUSH1 0x0 DUP1 REVERT JUMPDEST POP GAS STATICCALL ISZERO DUP1 ISZERO PUSH2 0x16D5 JUMPI RETURNDATASIZE PUSH1 0x0 DUP1 RETURNDATACOPY RETURNDATASIZE PUSH1 0x0 REVERT JUMPDEST POP POP POP POP PUSH1 0x40 MLOAD RETURNDATASIZE PUSH1 0x1F NOT PUSH1 0x1F DUP3 ADD AND DUP3 ADD DUP1 PUSH1 0x40 MSTORE POP DUP2 ADD SWAP1 PUSH2 0x16F9 SWAP2 SWAP1 PUSH2 0x266C JUMP JUMPDEST PUSH1 0xFB SLOAD SWAP1 SWAP2 POP PUSH2 0x1714 SWAP1 PUSH1 0x1 PUSH1 0x1 PUSH1 0xA0 SHL SUB AND CALLER ADDRESS DUP8 PUSH2 0x1E78 JUMP JUMPDEST PUSH1 0xFB SLOAD PUSH1 0x40 MLOAD PUSH4 0x70A08231 PUSH1 0xE0 SHL DUP2 MSTORE PUSH2 0x1754 SWAP2 PUSH2 0x174C SWAP2 DUP5 SWAP2 PUSH1 0x1 PUSH1 0x1 PUSH1 0xA0 SHL SUB AND SWAP1 PUSH4 0x70A08231 SWAP1 PUSH2 0xF4C SWAP1 ADDRESS SWAP1 PUSH1 0x4 ADD PUSH2 0x2835 JUMP JUMPDEST DUP4 SLOAD SWAP1 PUSH2 0x1DC2 JUMP JUMPDEST DUP3 SSTORE PUSH1 0xFB SLOAD PUSH1 0x40 MLOAD PUSH4 0x70A08231 PUSH1 0xE0 SHL DUP2 MSTORE PUSH2 0x1799 SWAP2 PUSH2 0x178E SWAP2 DUP5 SWAP2 PUSH1 0x1 PUSH1 0x1 PUSH1 0xA0 SHL SUB AND SWAP1 PUSH4 0x70A08231 SWAP1 PUSH2 0xF4C SWAP1 ADDRESS SWAP1 PUSH1 0x4 ADD PUSH2 0x2835 JUMP JUMPDEST PUSH1 0x4 DUP6 ADD SLOAD SWAP1 PUSH2 0x1DC2 JUMP JUMPDEST PUSH1 0x4 DUP5 ADD SSTORE PUSH2 0x100 SLOAD DUP3 SLOAD GT ISZERO PUSH2 0x17ED JUMPI PUSH1 0x40 MLOAD PUSH3 0x461BCD PUSH1 0xE5 SHL DUP2 MSTORE PUSH1 0x20 PUSH1 0x4 DUP3 ADD MSTORE PUSH1 0x18 PUSH1 0x24 DUP3 ADD MSTORE PUSH24 0x13585E08141491510811195C1BDCDA5D0814995858DA1959 PUSH1 0x42 SHL PUSH1 0x44 DUP3 ADD MSTORE PUSH1 0x64 ADD PUSH2 0x6AE JUMP JUMPDEST POP JUMPDEST PUSH1 0x2 DUP3 ADD SLOAD DUP2 SLOAD PUSH2 0x1811 SWAP2 PUSH9 0x327CB2734119D3B7A9 PUSH1 0x1E SHL SWAP2 PUSH2 0xD34 SWAP2 PUSH2 0x1CB0 JUMP JUMPDEST PUSH1 0x1 DUP3 ADD SSTORE PUSH1 0x40 MLOAD DUP4 DUP2 MSTORE DUP5 SWAP1 CALLER SWAP1 PUSH32 0x90890809C654F11D6E72A28FA60149770A0D11EC6C92319D6CEB2BB0A4EA1A15 SWAP1 PUSH1 0x20 ADD PUSH1 0x40 MLOAD DUP1 SWAP2 SUB SWAP1 LOG3 POP POP POP POP JUMP JUMPDEST CALLER PUSH2 0x185C PUSH2 0x1312 JUMP JUMPDEST PUSH1 0x1 PUSH1 0x1 PUSH1 0xA0 SHL SUB AND EQ PUSH2 0x1882 JUMPI PUSH1 0x40 MLOAD PUSH3 0x461BCD PUSH1 0xE5 SHL DUP2 MSTORE PUSH1 0x4 ADD PUSH2 0x6AE SWAP1 PUSH2 0x293B JUMP JUMPDEST PUSH1 0x1 PUSH1 0x1 PUSH1 0xA0 SHL SUB DUP2 AND PUSH2 0x18E7 JUMPI PUSH1 0x40 MLOAD PUSH3 0x461BCD PUSH1 0xE5 SHL DUP2 MSTORE PUSH1 0x20 PUSH1 0x4 DUP3 ADD MSTORE PUSH1 0x26 PUSH1 0x24 DUP3 ADD MSTORE PUSH32 0x4F776E61626C653A206E6577206F776E657220697320746865207A65726F2061 PUSH1 0x44 DUP3 ADD MSTORE PUSH6 0x646472657373 PUSH1 0xD0 SHL PUSH1 0x64 DUP3 ADD MSTORE PUSH1 0x84 ADD PUSH2 0x6AE JUMP JUMPDEST PUSH2 0xC04 DUP2 PUSH2 0x1DCE JUMP JUMPDEST PUSH1 0x0 SLOAD PUSH2 0x100 SWAP1 DIV PUSH1 0xFF AND DUP1 PUSH2 0x1909 JUMPI POP PUSH1 0x0 SLOAD PUSH1 0xFF AND ISZERO JUMPDEST PUSH2 0x1925 JUMPI PUSH1 0x40 MLOAD PUSH3 0x461BCD PUSH1 0xE5 SHL DUP2 MSTORE PUSH1 0x4 ADD PUSH2 0x6AE SWAP1 PUSH2 0x28ED JUMP JUMPDEST PUSH1 0x0 SLOAD PUSH2 0x100 SWAP1 DIV PUSH1 0xFF AND ISZERO DUP1 ISZERO PUSH2 0x1950 JUMPI PUSH1 0x0 DUP1 SLOAD PUSH1 0xFF NOT PUSH2 0xFF00 NOT SWAP1 SWAP2 AND PUSH2 0x100 OR AND PUSH1 0x1 OR SWAP1 SSTORE JUMPDEST PUSH2 0x1958 PUSH2 0x1EB6 JUMP JUMPDEST PUSH2 0x1960 PUSH2 0x1F29 JUMP JUMPDEST DUP1 ISZERO PUSH2 0xC04 JUMPI PUSH1 0x0 DUP1 SLOAD PUSH2 0xFF00 NOT AND SWAP1 SSTORE POP JUMP JUMPDEST PUSH2 0x106 SLOAD PUSH1 0x1 PUSH1 0x1 PUSH1 0xA0 SHL SUB AND CALLER EQ PUSH2 0x19BE JUMPI PUSH1 0x40 MLOAD PUSH3 0x461BCD PUSH1 0xE5 SHL DUP2 MSTORE PUSH1 0x20 PUSH1 0x4 DUP3 ADD MSTORE PUSH1 0xC PUSH1 0x24 DUP3 ADD MSTORE PUSH12 0x2737BA1037B832B930BA37B9 PUSH1 0xA1 SHL PUSH1 0x44 DUP3 ADD MSTORE PUSH1 0x64 ADD PUSH2 0x6AE JUMP JUMPDEST PUSH1 0x0 PUSH2 0x104 SLOAD NUMBER GT PUSH2 0x19D3 JUMPI PUSH2 0x104 SLOAD PUSH2 0x19D5 JUMP JUMPDEST NUMBER JUMPDEST PUSH1 0x40 DUP1 MLOAD PUSH1 0xA0 DUP2 ADD DUP3 MSTORE SWAP5 DUP6 MSTORE PUSH1 0x20 DUP6 ADD SWAP2 DUP3 MSTORE PUSH1 0x0 SWAP1 DUP6 ADD DUP2 DUP2 MSTORE PUSH1 0x60 DUP7 ADD SWAP5 DUP6 MSTORE PUSH1 0x80 DUP7 ADD DUP3 DUP2 MSTORE PUSH2 0x101 DUP1 SLOAD PUSH1 0x1 DUP2 ADD DUP3 SSTORE SWAP4 MSTORE SWAP6 MLOAD PUSH32 0x109EA3CEBB188B9C1B9FC5BB3920BE60DFDC8699098DFF92F3D80DAACA747689 PUSH1 0x5 SWAP1 SWAP4 MUL SWAP3 DUP4 ADD SSTORE SWAP2 MLOAD PUSH32 0x109EA3CEBB188B9C1B9FC5BB3920BE60DFDC8699098DFF92F3D80DAACA74768A DUP3 ADD SSTORE SWAP1 MLOAD PUSH32 0x109EA3CEBB188B9C1B9FC5BB3920BE60DFDC8699098DFF92F3D80DAACA74768B DUP3 ADD SSTORE SWAP2 MLOAD PUSH32 0x109EA3CEBB188B9C1B9FC5BB3920BE60DFDC8699098DFF92F3D80DAACA74768C DUP4 ADD SSTORE POP SWAP1 MLOAD PUSH32 0x109EA3CEBB188B9C1B9FC5BB3920BE60DFDC8699098DFF92F3D80DAACA74768D SWAP1 SWAP2 ADD SSTORE JUMP JUMPDEST CALLER PUSH2 0x1ADD PUSH2 0x1312 JUMP JUMPDEST PUSH1 0x1 PUSH1 0x1 PUSH1 0xA0 SHL SUB AND EQ PUSH2 0xC04 JUMPI PUSH1 0x40 MLOAD PUSH3 0x461BCD PUSH1 0xE5 SHL DUP2 MSTORE PUSH1 0x4 ADD PUSH2 0x6AE SWAP1 PUSH2 0x293B JUMP JUMPDEST PUSH1 0x0 PUSH2 0x1B0D PUSH2 0x1F92 JUMP JUMPDEST SWAP1 POP PUSH2 0x1B18 DUP5 PUSH2 0x1FC0 JUMP JUMPDEST PUSH1 0x0 DUP4 MLOAD GT DUP1 PUSH2 0x1B25 JUMPI POP DUP2 JUMPDEST ISZERO PUSH2 0x1B36 JUMPI PUSH2 0x1B34 DUP5 DUP5 PUSH2 0x206C JUMP JUMPDEST POP JUMPDEST PUSH32 0x4910FDFA16FED3260ED0E7147F7CC6DA11A60208B5B9406D12A635614FFD9143 DUP1 SLOAD PUSH1 0xFF AND PUSH2 0x1C43 JUMPI DUP1 SLOAD PUSH1 0xFF NOT AND PUSH1 0x1 OR DUP2 SSTORE PUSH1 0x40 MLOAD PUSH2 0x1BB1 SWAP1 DUP7 SWAP1 PUSH2 0x1B82 SWAP1 DUP6 SWAP1 PUSH1 0x24 ADD PUSH2 0x2835 JUMP JUMPDEST PUSH1 0x40 DUP1 MLOAD PUSH1 0x1F NOT DUP2 DUP5 SUB ADD DUP2 MSTORE SWAP2 SWAP1 MSTORE PUSH1 0x20 DUP2 ADD DUP1 MLOAD PUSH1 0x1 PUSH1 0x1 PUSH1 0xE0 SHL SUB AND PUSH4 0x1B2CE7F3 PUSH1 0xE1 SHL OR SWAP1 MSTORE PUSH2 0x206C JUMP JUMPDEST POP DUP1 SLOAD PUSH1 0xFF NOT AND DUP2 SSTORE PUSH2 0x1BC2 PUSH2 0x1F92 JUMP JUMPDEST PUSH1 0x1 PUSH1 0x1 PUSH1 0xA0 SHL SUB AND DUP3 PUSH1 0x1 PUSH1 0x1 PUSH1 0xA0 SHL SUB AND EQ PUSH2 0x1C3A JUMPI PUSH1 0x40 MLOAD PUSH3 0x461BCD PUSH1 0xE5 SHL DUP2 MSTORE PUSH1 0x20 PUSH1 0x4 DUP3 ADD MSTORE PUSH1 0x2F PUSH1 0x24 DUP3 ADD MSTORE PUSH32 0x45524331393637557067726164653A207570677261646520627265616B732066 PUSH1 0x44 DUP3 ADD MSTORE PUSH15 0x757274686572207570677261646573 PUSH1 0x88 SHL PUSH1 0x64 DUP3 ADD MSTORE PUSH1 0x84 ADD PUSH2 0x6AE JUMP JUMPDEST PUSH2 0x1C43 DUP6 PUSH2 0x215E JUMP JUMPDEST POP POP POP POP POP JUMP JUMPDEST PUSH1 0x33 SLOAD PUSH1 0xFF AND PUSH2 0x1C6C JUMPI PUSH1 0x40 MLOAD PUSH3 0x461BCD PUSH1 0xE5 SHL DUP2 MSTORE PUSH1 0x4 ADD PUSH2 0x6AE SWAP1 PUSH2 0x2895 JUMP JUMPDEST PUSH1 0x33 DUP1 SLOAD PUSH1 0xFF NOT AND SWAP1 SSTORE PUSH32 0x5DB9EE0A495BF2E6FF9C91A7834C1BA4FDD244A5E8AA4E537BD38AEAE4B073AA CALLER JUMPDEST PUSH1 0x40 MLOAD PUSH2 0x1CA6 SWAP2 SWAP1 PUSH2 0x2835 JUMP JUMPDEST PUSH1 0x40 MLOAD DUP1 SWAP2 SUB SWAP1 LOG1 JUMP JUMPDEST PUSH1 0x0 PUSH2 0xB64 DUP3 DUP5 PUSH2 0x29FB JUMP JUMPDEST PUSH1 0x0 PUSH2 0xB64 DUP3 DUP5 PUSH2 0x29DB JUMP JUMPDEST PUSH1 0x0 PUSH2 0xB64 DUP3 DUP5 PUSH2 0x2A1A JUMP JUMPDEST PUSH1 0xFF SLOAD PUSH1 0x40 MLOAD PUSH4 0x736A0D41 PUSH1 0xE1 SHL DUP2 MSTORE PUSH2 0x1D64 SWAP2 PUSH1 0x1 PUSH1 0x1 PUSH1 0xA0 SHL SUB AND SWAP1 PUSH4 0xE6D41A82 SWAP1 PUSH2 0x1D08 SWAP1 DUP7 SWAP1 DUP7 SWAP1 PUSH1 0x4 ADD PUSH2 0x2849 JUMP JUMPDEST PUSH1 0x20 PUSH1 0x40 MLOAD DUP1 DUP4 SUB DUP2 PUSH1 0x0 DUP8 DUP1 EXTCODESIZE ISZERO DUP1 ISZERO PUSH2 0x1D22 JUMPI PUSH1 0x0 DUP1 REVERT JUMPDEST POP GAS CALL ISZERO DUP1 ISZERO PUSH2 0x1D36 JUMPI RETURNDATASIZE PUSH1 0x0 DUP1 RETURNDATACOPY RETURNDATASIZE PUSH1 0x0 REVERT JUMPDEST POP POP POP POP PUSH1 0x40 MLOAD RETURNDATASIZE PUSH1 0x1F NOT PUSH1 0x1F DUP3 ADD AND DUP3 ADD DUP1 PUSH1 0x40 MSTORE POP DUP2 ADD SWAP1 PUSH2 0x1D5A SWAP2 SWAP1 PUSH2 0x266C JUMP JUMPDEST PUSH2 0x105 SLOAD SWAP1 PUSH2 0x1CC8 JUMP JUMPDEST PUSH2 0x105 SSTORE POP POP JUMP JUMPDEST PUSH2 0xADC DUP4 PUSH4 0xA9059CBB PUSH1 0xE0 SHL DUP5 DUP5 PUSH1 0x40 MLOAD PUSH1 0x24 ADD PUSH2 0x1D8B SWAP3 SWAP2 SWAP1 PUSH2 0x2849 JUMP JUMPDEST PUSH1 0x40 DUP1 MLOAD PUSH1 0x1F NOT DUP2 DUP5 SUB ADD DUP2 MSTORE SWAP2 SWAP1 MSTORE PUSH1 0x20 DUP2 ADD DUP1 MLOAD PUSH1 0x1 PUSH1 0x1 PUSH1 0xE0 SHL SUB AND PUSH1 0x1 PUSH1 0x1 PUSH1 0xE0 SHL SUB NOT SWAP1 SWAP4 AND SWAP3 SWAP1 SWAP3 OR SWAP1 SWAP2 MSTORE PUSH2 0x219E JUMP JUMPDEST PUSH1 0x0 PUSH2 0xB64 DUP3 DUP5 PUSH2 0x29C3 JUMP JUMPDEST PUSH1 0xC9 DUP1 SLOAD PUSH1 0x1 PUSH1 0x1 PUSH1 0xA0 SHL SUB DUP4 DUP2 AND PUSH1 0x1 PUSH1 0x1 PUSH1 0xA0 SHL SUB NOT DUP4 AND DUP2 OR SWAP1 SWAP4 SSTORE PUSH1 0x40 MLOAD SWAP2 AND SWAP2 SWAP1 DUP3 SWAP1 PUSH32 0x8BE0079C531659141344CD1FD0A4F28419497F9722A3DAAFE3B4186F6B6457E0 SWAP1 PUSH1 0x0 SWAP1 LOG3 POP POP JUMP JUMPDEST PUSH1 0x33 SLOAD PUSH1 0xFF AND ISZERO PUSH2 0x1E43 JUMPI PUSH1 0x40 MLOAD PUSH3 0x461BCD PUSH1 0xE5 SHL DUP2 MSTORE PUSH1 0x4 ADD PUSH2 0x6AE SWAP1 PUSH2 0x28C3 JUMP JUMPDEST PUSH1 0x33 DUP1 SLOAD PUSH1 0xFF NOT AND PUSH1 0x1 OR SWAP1 SSTORE PUSH32 0x62E78CEA01BEE320CD4E420270B5EA74000D11B0C9F74754EBDBFC544B05A258 PUSH2 0x1C99 CALLER SWAP1 JUMP JUMPDEST PUSH1 0x40 MLOAD PUSH1 0x1 PUSH1 0x1 PUSH1 0xA0 SHL SUB DUP1 DUP6 AND PUSH1 0x24 DUP4 ADD MSTORE DUP4 AND PUSH1 0x44 DUP3 ADD MSTORE PUSH1 0x64 DUP2 ADD DUP3 SWAP1 MSTORE PUSH2 0x1EB0 SWAP1 DUP6 SWAP1 PUSH4 0x23B872DD PUSH1 0xE0 SHL SWAP1 PUSH1 0x84 ADD PUSH2 0x1D8B JUMP JUMPDEST POP POP POP POP JUMP JUMPDEST PUSH1 0x0 SLOAD PUSH2 0x100 SWAP1 DIV PUSH1 0xFF AND DUP1 PUSH2 0x1ECF JUMPI POP PUSH1 0x0 SLOAD PUSH1 0xFF AND ISZERO JUMPDEST PUSH2 0x1EEB JUMPI PUSH1 0x40 MLOAD PUSH3 0x461BCD PUSH1 0xE5 SHL DUP2 MSTORE PUSH1 0x4 ADD PUSH2 0x6AE SWAP1 PUSH2 0x28ED JUMP JUMPDEST PUSH1 0x0 SLOAD PUSH2 0x100 SWAP1 DIV PUSH1 0xFF AND ISZERO DUP1 ISZERO PUSH2 0x1960 JUMPI PUSH1 0x0 DUP1 SLOAD PUSH1 0xFF NOT PUSH2 0xFF00 NOT SWAP1 SWAP2 AND PUSH2 0x100 OR AND PUSH1 0x1 OR SWAP1 SSTORE DUP1 ISZERO PUSH2 0xC04 JUMPI PUSH1 0x0 DUP1 SLOAD PUSH2 0xFF00 NOT AND SWAP1 SSTORE POP JUMP JUMPDEST PUSH1 0x0 SLOAD PUSH2 0x100 SWAP1 DIV PUSH1 0xFF AND DUP1 PUSH2 0x1F42 JUMPI POP PUSH1 0x0 SLOAD PUSH1 0xFF AND ISZERO JUMPDEST PUSH2 0x1F5E JUMPI PUSH1 0x40 MLOAD PUSH3 0x461BCD PUSH1 0xE5 SHL DUP2 MSTORE PUSH1 0x4 ADD PUSH2 0x6AE SWAP1 PUSH2 0x28ED JUMP JUMPDEST PUSH1 0x0 SLOAD PUSH2 0x100 SWAP1 DIV PUSH1 0xFF AND ISZERO DUP1 ISZERO PUSH2 0x1F89 JUMPI PUSH1 0x0 DUP1 SLOAD PUSH1 0xFF NOT PUSH2 0xFF00 NOT SWAP1 SWAP2 AND PUSH2 0x100 OR AND PUSH1 0x1 OR SWAP1 SSTORE JUMPDEST PUSH2 0x1960 CALLER PUSH2 0x1DCE JUMP JUMPDEST PUSH32 0x360894A13BA1A3210667C828492DB98DCA3E2076CC3735A920A3CA505D382BBC SLOAD PUSH1 0x1 PUSH1 0x1 PUSH1 0xA0 SHL SUB AND SWAP1 JUMP JUMPDEST PUSH2 0x1FC9 DUP2 PUSH2 0x2270 JUMP JUMPDEST PUSH2 0x202B JUMPI PUSH1 0x40 MLOAD PUSH3 0x461BCD PUSH1 0xE5 SHL DUP2 MSTORE PUSH1 0x20 PUSH1 0x4 DUP3 ADD MSTORE PUSH1 0x2D PUSH1 0x24 DUP3 ADD MSTORE PUSH32 0x455243313936373A206E657720696D706C656D656E746174696F6E206973206E PUSH1 0x44 DUP3 ADD MSTORE PUSH13 0x1BDD08184818DBDB9D1C9858DD PUSH1 0x9A SHL PUSH1 0x64 DUP3 ADD MSTORE PUSH1 0x84 ADD PUSH2 0x6AE JUMP JUMPDEST PUSH32 0x360894A13BA1A3210667C828492DB98DCA3E2076CC3735A920A3CA505D382BBC DUP1 SLOAD PUSH1 0x1 PUSH1 0x1 PUSH1 0xA0 SHL SUB NOT AND PUSH1 0x1 PUSH1 0x1 PUSH1 0xA0 SHL SUB SWAP3 SWAP1 SWAP3 AND SWAP2 SWAP1 SWAP2 OR SWAP1 SSTORE JUMP JUMPDEST PUSH1 0x60 PUSH2 0x2077 DUP4 PUSH2 0x2270 JUMP JUMPDEST PUSH2 0x20D2 JUMPI PUSH1 0x40 MLOAD PUSH3 0x461BCD PUSH1 0xE5 SHL DUP2 MSTORE PUSH1 0x20 PUSH1 0x4 DUP3 ADD MSTORE PUSH1 0x26 PUSH1 0x24 DUP3 ADD MSTORE PUSH32 0x416464726573733A2064656C65676174652063616C6C20746F206E6F6E2D636F PUSH1 0x44 DUP3 ADD MSTORE PUSH6 0x1B9D1C9858DD PUSH1 0xD2 SHL PUSH1 0x64 DUP3 ADD MSTORE PUSH1 0x84 ADD PUSH2 0x6AE JUMP JUMPDEST PUSH1 0x0 DUP1 DUP5 PUSH1 0x1 PUSH1 0x1 PUSH1 0xA0 SHL SUB AND DUP5 PUSH1 0x40 MLOAD PUSH2 0x20ED SWAP2 SWAP1 PUSH2 0x2819 JUMP JUMPDEST PUSH1 0x0 PUSH1 0x40 MLOAD DUP1 DUP4 SUB DUP2 DUP6 GAS DELEGATECALL SWAP2 POP POP RETURNDATASIZE DUP1 PUSH1 0x0 DUP2 EQ PUSH2 0x2128 JUMPI PUSH1 0x40 MLOAD SWAP2 POP PUSH1 0x1F NOT PUSH1 0x3F RETURNDATASIZE ADD AND DUP3 ADD PUSH1 0x40 MSTORE RETURNDATASIZE DUP3 MSTORE RETURNDATASIZE PUSH1 0x0 PUSH1 0x20 DUP5 ADD RETURNDATACOPY PUSH2 0x212D JUMP JUMPDEST PUSH1 0x60 SWAP2 POP JUMPDEST POP SWAP2 POP SWAP2 POP PUSH2 0x2155 DUP3 DUP3 PUSH1 0x40 MLOAD DUP1 PUSH1 0x60 ADD PUSH1 0x40 MSTORE DUP1 PUSH1 0x27 DUP2 MSTORE PUSH1 0x20 ADD PUSH2 0x2A9F PUSH1 0x27 SWAP2 CODECOPY PUSH2 0x227A JUMP JUMPDEST SWAP6 SWAP5 POP POP POP POP POP JUMP JUMPDEST PUSH2 0x2167 DUP2 PUSH2 0x1FC0 JUMP JUMPDEST PUSH1 0x40 MLOAD PUSH1 0x1 PUSH1 0x1 PUSH1 0xA0 SHL SUB DUP3 AND SWAP1 PUSH32 0xBC7CD75A20EE27FD9ADEBAB32041F755214DBC6BFFA90CC0225B39DA2E5C2D3B SWAP1 PUSH1 0x0 SWAP1 LOG2 POP JUMP JUMPDEST PUSH1 0x0 PUSH2 0x21F3 DUP3 PUSH1 0x40 MLOAD DUP1 PUSH1 0x40 ADD PUSH1 0x40 MSTORE DUP1 PUSH1 0x20 DUP2 MSTORE PUSH1 0x20 ADD PUSH32 0x5361666545524332303A206C6F772D6C6576656C2063616C6C206661696C6564 DUP2 MSTORE POP DUP6 PUSH1 0x1 PUSH1 0x1 PUSH1 0xA0 SHL SUB AND PUSH2 0x22B3 SWAP1 SWAP3 SWAP2 SWAP1 PUSH4 0xFFFFFFFF AND JUMP JUMPDEST DUP1 MLOAD SWAP1 SWAP2 POP ISZERO PUSH2 0xADC JUMPI DUP1 DUP1 PUSH1 0x20 ADD SWAP1 MLOAD DUP2 ADD SWAP1 PUSH2 0x2211 SWAP2 SWAP1 PUSH2 0x263A JUMP JUMPDEST PUSH2 0xADC JUMPI PUSH1 0x40 MLOAD PUSH3 0x461BCD PUSH1 0xE5 SHL DUP2 MSTORE PUSH1 0x20 PUSH1 0x4 DUP3 ADD MSTORE PUSH1 0x2A PUSH1 0x24 DUP3 ADD MSTORE PUSH32 0x5361666545524332303A204552433230206F7065726174696F6E20646964206E PUSH1 0x44 DUP3 ADD MSTORE PUSH10 0x1BDD081CDD58D8D95959 PUSH1 0xB2 SHL PUSH1 0x64 DUP3 ADD MSTORE PUSH1 0x84 ADD PUSH2 0x6AE JUMP JUMPDEST DUP1 EXTCODESIZE ISZERO ISZERO JUMPDEST SWAP2 SWAP1 POP JUMP JUMPDEST PUSH1 0x60 DUP4 ISZERO PUSH2 0x2289 JUMPI POP DUP2 PUSH2 0xB64 JUMP JUMPDEST DUP3 MLOAD ISZERO PUSH2 0x2299 JUMPI DUP3 MLOAD DUP1 DUP5 PUSH1 0x20 ADD REVERT JUMPDEST DUP2 PUSH1 0x40 MLOAD PUSH3 0x461BCD PUSH1 0xE5 SHL DUP2 MSTORE PUSH1 0x4 ADD PUSH2 0x6AE SWAP2 SWAP1 PUSH2 0x2862 JUMP JUMPDEST PUSH1 0x60 PUSH2 0x22C2 DUP5 DUP5 PUSH1 0x0 DUP6 PUSH2 0x22CA JUMP JUMPDEST SWAP5 SWAP4 POP POP POP POP JUMP JUMPDEST PUSH1 0x60 DUP3 SELFBALANCE LT ISZERO PUSH2 0x232B JUMPI PUSH1 0x40 MLOAD PUSH3 0x461BCD PUSH1 0xE5 SHL DUP2 MSTORE PUSH1 0x20 PUSH1 0x4 DUP3 ADD MSTORE PUSH1 0x26 PUSH1 0x24 DUP3 ADD MSTORE PUSH32 0x416464726573733A20696E73756666696369656E742062616C616E636520666F PUSH1 0x44 DUP3 ADD MSTORE PUSH6 0x1C8818D85B1B PUSH1 0xD2 SHL PUSH1 0x64 DUP3 ADD MSTORE PUSH1 0x84 ADD PUSH2 0x6AE JUMP JUMPDEST PUSH2 0x2334 DUP6 PUSH2 0x2270 JUMP JUMPDEST PUSH2 0x2380 JUMPI PUSH1 0x40 MLOAD PUSH3 0x461BCD PUSH1 0xE5 SHL DUP2 MSTORE PUSH1 0x20 PUSH1 0x4 DUP3 ADD MSTORE PUSH1 0x1D PUSH1 0x24 DUP3 ADD MSTORE PUSH32 0x416464726573733A2063616C6C20746F206E6F6E2D636F6E7472616374000000 PUSH1 0x44 DUP3 ADD MSTORE PUSH1 0x64 ADD PUSH2 0x6AE JUMP JUMPDEST PUSH1 0x0 DUP1 DUP7 PUSH1 0x1 PUSH1 0x1 PUSH1 0xA0 SHL SUB AND DUP6 DUP8 PUSH1 0x40 MLOAD PUSH2 0x239C SWAP2 SWAP1 PUSH2 0x2819 JUMP JUMPDEST PUSH1 0x0 PUSH1 0x40 MLOAD DUP1 DUP4 SUB DUP2 DUP6 DUP8 GAS CALL SWAP3 POP POP POP RETURNDATASIZE DUP1 PUSH1 0x0 DUP2 EQ PUSH2 0x23D9 JUMPI PUSH1 0x40 MLOAD SWAP2 POP PUSH1 0x1F NOT PUSH1 0x3F RETURNDATASIZE ADD AND DUP3 ADD PUSH1 0x40 MSTORE RETURNDATASIZE DUP3 MSTORE RETURNDATASIZE PUSH1 0x0 PUSH1 0x20 DUP5 ADD RETURNDATACOPY PUSH2 0x23DE JUMP JUMPDEST PUSH1 0x60 SWAP2 POP JUMPDEST POP SWAP2 POP SWAP2 POP PUSH2 0x23EE DUP3 DUP3 DUP7 PUSH2 0x227A JUMP JUMPDEST SWAP8 SWAP7 POP POP POP POP POP POP POP JUMP JUMPDEST PUSH1 0x0 DUP3 PUSH1 0x1F DUP4 ADD SLT PUSH2 0x2409 JUMPI DUP1 DUP2 REVERT JUMPDEST DUP2 MLOAD PUSH1 0x20 PUSH2 0x241E PUSH2 0x2419 DUP4 PUSH2 0x29A0 JUMP JUMPDEST PUSH2 0x2970 JUMP JUMPDEST DUP3 DUP2 MSTORE DUP2 DUP2 ADD SWAP1 DUP6 DUP4 ADD DUP4 DUP6 MUL DUP8 ADD DUP5 ADD DUP9 LT ISZERO PUSH2 0x243A JUMPI DUP6 DUP7 REVERT JUMPDEST DUP6 JUMPDEST DUP6 DUP2 LT ISZERO PUSH2 0x2461 JUMPI DUP2 MLOAD PUSH2 0x244F DUP2 PUSH2 0x2A89 JUMP JUMPDEST DUP5 MSTORE SWAP3 DUP5 ADD SWAP3 SWAP1 DUP5 ADD SWAP1 PUSH1 0x1 ADD PUSH2 0x243C JUMP JUMPDEST POP SWAP1 SWAP8 SWAP7 POP POP POP POP POP POP POP JUMP JUMPDEST PUSH1 0x0 DUP3 PUSH1 0x1F DUP4 ADD SLT PUSH2 0x247E JUMPI DUP1 DUP2 REVERT JUMPDEST DUP2 MLOAD PUSH1 0x20 PUSH2 0x248E PUSH2 0x2419 DUP4 PUSH2 0x29A0 JUMP JUMPDEST DUP3 DUP2 MSTORE DUP2 DUP2 ADD SWAP1 DUP6 DUP4 ADD DUP4 DUP6 MUL DUP8 ADD DUP5 ADD DUP9 LT ISZERO PUSH2 0x24AA JUMPI DUP6 DUP7 REVERT JUMPDEST DUP6 JUMPDEST DUP6 DUP2 LT ISZERO PUSH2 0x2461 JUMPI DUP2 MLOAD DUP5 MSTORE SWAP3 DUP5 ADD SWAP3 SWAP1 DUP5 ADD SWAP1 PUSH1 0x1 ADD PUSH2 0x24AC JUMP JUMPDEST DUP1 MLOAD DUP1 ISZERO ISZERO DUP2 EQ PUSH2 0x2275 JUMPI PUSH1 0x0 DUP1 REVERT JUMPDEST PUSH1 0x0 PUSH1 0x20 DUP3 DUP5 SUB SLT ISZERO PUSH2 0x24E9 JUMPI DUP1 DUP2 REVERT JUMPDEST DUP2 CALLDATALOAD PUSH2 0xB64 DUP2 PUSH2 0x2A89 JUMP JUMPDEST PUSH1 0x0 DUP1 PUSH1 0x40 DUP4 DUP6 SUB SLT ISZERO PUSH2 0x2506 JUMPI DUP1 DUP2 REVERT JUMPDEST DUP3 CALLDATALOAD PUSH2 0x2511 DUP2 PUSH2 0x2A89 JUMP JUMPDEST SWAP2 POP PUSH1 0x20 DUP4 DUP2 ADD CALLDATALOAD PUSH1 0x1 PUSH1 0x1 PUSH1 0x40 SHL SUB DUP1 DUP3 GT ISZERO PUSH2 0x252D JUMPI DUP4 DUP5 REVERT JUMPDEST DUP2 DUP7 ADD SWAP2 POP DUP7 PUSH1 0x1F DUP4 ADD SLT PUSH2 0x2540 JUMPI DUP4 DUP5 REVERT JUMPDEST DUP2 CALLDATALOAD DUP2 DUP2 GT ISZERO PUSH2 0x2552 JUMPI PUSH2 0x2552 PUSH2 0x2A73 JUMP JUMPDEST PUSH2 0x2564 PUSH1 0x1F DUP3 ADD PUSH1 0x1F NOT AND DUP6 ADD PUSH2 0x2970 JUMP JUMPDEST SWAP2 POP DUP1 DUP3 MSTORE DUP8 DUP5 DUP3 DUP6 ADD ADD GT ISZERO PUSH2 0x2579 JUMPI DUP5 DUP6 REVERT JUMPDEST DUP1 DUP5 DUP5 ADD DUP6 DUP5 ADD CALLDATACOPY DUP2 ADD SWAP1 SWAP3 ADD SWAP3 SWAP1 SWAP3 MSTORE SWAP2 SWAP5 SWAP2 SWAP4 POP SWAP1 SWAP2 POP POP JUMP JUMPDEST PUSH1 0x0 DUP1 PUSH1 0x0 DUP1 PUSH1 0x0 DUP1 PUSH1 0x0 PUSH1 0xE0 DUP9 DUP11 SUB SLT ISZERO PUSH2 0x25AF JUMPI DUP3 DUP4 REVERT JUMPDEST DUP8 CALLDATALOAD PUSH2 0x25BA DUP2 PUSH2 0x2A89 JUMP JUMPDEST SWAP7 POP PUSH1 0x20 DUP9 ADD CALLDATALOAD PUSH2 0x25CA DUP2 PUSH2 0x2A89 JUMP JUMPDEST SWAP6 POP PUSH1 0x40 DUP9 ADD CALLDATALOAD SWAP5 POP PUSH1 0x60 DUP9 ADD CALLDATALOAD SWAP4 POP PUSH1 0x80 DUP9 ADD CALLDATALOAD SWAP3 POP PUSH1 0xA0 DUP9 ADD CALLDATALOAD PUSH2 0x25EF DUP2 PUSH2 0x2A89 JUMP JUMPDEST SWAP2 POP PUSH1 0xC0 DUP9 ADD CALLDATALOAD PUSH2 0x25FF DUP2 PUSH2 0x2A89 JUMP JUMPDEST DUP1 SWAP2 POP POP SWAP3 SWAP6 SWAP9 SWAP2 SWAP5 SWAP8 POP SWAP3 SWAP6 POP JUMP JUMPDEST PUSH1 0x0 DUP1 PUSH1 0x40 DUP4 DUP6 SUB SLT ISZERO PUSH2 0x2621 JUMPI DUP2 DUP3 REVERT JUMPDEST DUP3 CALLDATALOAD PUSH2 0x262C DUP2 PUSH2 0x2A89 JUMP JUMPDEST SWAP5 PUSH1 0x20 SWAP4 SWAP1 SWAP4 ADD CALLDATALOAD SWAP4 POP POP POP JUMP JUMPDEST PUSH1 0x0 PUSH1 0x20 DUP3 DUP5 SUB SLT ISZERO PUSH2 0x264B JUMPI DUP1 DUP2 REVERT JUMPDEST PUSH2 0xB64 DUP3 PUSH2 0x24C8 JUMP JUMPDEST PUSH1 0x0 PUSH1 0x20 DUP3 DUP5 SUB SLT ISZERO PUSH2 0x2665 JUMPI DUP1 DUP2 REVERT JUMPDEST POP CALLDATALOAD SWAP2 SWAP1 POP JUMP JUMPDEST PUSH1 0x0 PUSH1 0x20 DUP3 DUP5 SUB SLT ISZERO PUSH2 0x267D JUMPI DUP1 DUP2 REVERT JUMPDEST POP MLOAD SWAP2 SWAP1 POP JUMP JUMPDEST PUSH1 0x0 DUP1 PUSH1 0x40 DUP4 DUP6 SUB SLT ISZERO PUSH2 0x2696 JUMPI DUP2 DUP3 REVERT JUMPDEST DUP3 CALLDATALOAD SWAP2 POP PUSH1 0x20 DUP4 ADD CALLDATALOAD PUSH2 0x26A8 DUP2 PUSH2 0x2A89 JUMP JUMPDEST DUP1 SWAP2 POP POP SWAP3 POP SWAP3 SWAP1 POP JUMP JUMPDEST PUSH1 0x0 DUP1 PUSH1 0x40 DUP4 DUP6 SUB SLT ISZERO PUSH2 0x26C5 JUMPI DUP2 DUP3 REVERT JUMPDEST POP POP DUP1 CALLDATALOAD SWAP3 PUSH1 0x20 SWAP1 SWAP2 ADD CALLDATALOAD SWAP2 POP JUMP JUMPDEST PUSH1 0x0 DUP1 PUSH1 0x0 DUP1 PUSH1 0x0 DUP1 PUSH1 0x0 DUP1 PUSH1 0x0 DUP1 PUSH1 0x0 PUSH2 0x160 DUP13 DUP15 SUB SLT ISZERO PUSH2 0x26F5 JUMPI DUP5 DUP6 REVERT JUMPDEST DUP12 MLOAD SWAP11 POP PUSH1 0x20 DUP13 ADD MLOAD SWAP10 POP PUSH1 0x40 DUP13 ADD MLOAD SWAP9 POP PUSH1 0x60 DUP13 ADD MLOAD SWAP8 POP PUSH2 0x271A PUSH1 0x80 DUP14 ADD PUSH2 0x24C8 JUMP JUMPDEST SWAP7 POP PUSH1 0xA0 DUP13 ADD MLOAD PUSH1 0x1 PUSH1 0x1 PUSH1 0x40 SHL SUB DUP2 GT ISZERO PUSH2 0x2734 JUMPI DUP6 DUP7 REVERT JUMPDEST PUSH2 0x2740 DUP15 DUP3 DUP16 ADD PUSH2 0x23F9 JUMP JUMPDEST SWAP7 POP POP PUSH1 0xC0 DUP13 ADD MLOAD PUSH1 0x1 PUSH1 0x1 PUSH1 0x40 SHL SUB DUP2 GT ISZERO PUSH2 0x275B JUMPI DUP6 DUP7 REVERT JUMPDEST PUSH2 0x2767 DUP15 DUP3 DUP16 ADD PUSH2 0x246E JUMP JUMPDEST SWAP6 POP POP PUSH1 0xE0 DUP13 ADD MLOAD PUSH1 0x1 PUSH1 0x1 PUSH1 0x40 SHL SUB DUP2 GT ISZERO PUSH2 0x2782 JUMPI DUP5 DUP6 REVERT JUMPDEST PUSH2 0x278E DUP15 DUP3 DUP16 ADD PUSH2 0x246E JUMP JUMPDEST SWAP5 POP POP PUSH2 0x100 DUP13 ADD MLOAD PUSH1 0x1 PUSH1 0x1 PUSH1 0x40 SHL SUB DUP2 GT ISZERO PUSH2 0x27AA JUMPI DUP4 DUP5 REVERT JUMPDEST PUSH2 0x27B6 DUP15 DUP3 DUP16 ADD PUSH2 0x246E JUMP JUMPDEST SWAP4 POP POP PUSH2 0x120 DUP13 ADD MLOAD PUSH1 0x1 PUSH1 0x1 PUSH1 0x40 SHL SUB DUP2 GT ISZERO PUSH2 0x27D2 JUMPI DUP3 DUP4 REVERT JUMPDEST PUSH2 0x27DE DUP15 DUP3 DUP16 ADD PUSH2 0x246E JUMP JUMPDEST SWAP3 POP POP PUSH2 0x140 DUP13 ADD MLOAD PUSH1 0x1 PUSH1 0x1 PUSH1 0x40 SHL SUB DUP2 GT ISZERO PUSH2 0x27FA JUMPI DUP2 DUP3 REVERT JUMPDEST PUSH2 0x2806 DUP15 DUP3 DUP16 ADD PUSH2 0x246E JUMP JUMPDEST SWAP2 POP POP SWAP3 SWAP6 SWAP9 SWAP12 POP SWAP3 SWAP6 SWAP9 SWAP12 SWAP1 SWAP4 SWAP7 SWAP10 POP JUMP JUMPDEST PUSH1 0x0 DUP3 MLOAD PUSH2 0x282B DUP2 DUP5 PUSH1 0x20 DUP8 ADD PUSH2 0x2A31 JUMP JUMPDEST SWAP2 SWAP1 SWAP2 ADD SWAP3 SWAP2 POP POP JUMP JUMPDEST PUSH1 0x1 PUSH1 0x1 PUSH1 0xA0 SHL SUB SWAP2 SWAP1 SWAP2 AND DUP2 MSTORE PUSH1 0x20 ADD SWAP1 JUMP JUMPDEST PUSH1 0x1 PUSH1 0x1 PUSH1 0xA0 SHL SUB SWAP3 SWAP1 SWAP3 AND DUP3 MSTORE PUSH1 0x20 DUP3 ADD MSTORE PUSH1 0x40 ADD SWAP1 JUMP JUMPDEST PUSH1 0x0 PUSH1 0x20 DUP3 MSTORE DUP3 MLOAD DUP1 PUSH1 0x20 DUP5 ADD MSTORE PUSH2 0x2881 DUP2 PUSH1 0x40 DUP6 ADD PUSH1 0x20 DUP8 ADD PUSH2 0x2A31 JUMP JUMPDEST PUSH1 0x1F ADD PUSH1 0x1F NOT AND SWAP2 SWAP1 SWAP2 ADD PUSH1 0x40 ADD SWAP3 SWAP2 POP POP JUMP JUMPDEST PUSH1 0x20 DUP1 DUP3 MSTORE PUSH1 0x14 SWAP1 DUP3 ADD MSTORE PUSH20 0x14185D5CD8589B194E881B9BDD081C185D5CD959 PUSH1 0x62 SHL PUSH1 0x40 DUP3 ADD MSTORE PUSH1 0x60 ADD SWAP1 JUMP JUMPDEST PUSH1 0x20 DUP1 DUP3 MSTORE PUSH1 0x10 SWAP1 DUP3 ADD MSTORE PUSH16 0x14185D5CD8589B194E881C185D5CD959 PUSH1 0x82 SHL PUSH1 0x40 DUP3 ADD MSTORE PUSH1 0x60 ADD SWAP1 JUMP JUMPDEST PUSH1 0x20 DUP1 DUP3 MSTORE PUSH1 0x2E SWAP1 DUP3 ADD MSTORE PUSH32 0x496E697469616C697A61626C653A20636F6E747261637420697320616C726561 PUSH1 0x40 DUP3 ADD MSTORE PUSH14 0x191E481A5B9A5D1A585B1A5E9959 PUSH1 0x92 SHL PUSH1 0x60 DUP3 ADD MSTORE PUSH1 0x80 ADD SWAP1 JUMP JUMPDEST PUSH1 0x20 DUP1 DUP3 MSTORE DUP2 DUP2 ADD MSTORE PUSH32 0x4F776E61626C653A2063616C6C6572206973206E6F7420746865206F776E6572 PUSH1 0x40 DUP3 ADD MSTORE PUSH1 0x60 ADD SWAP1 JUMP JUMPDEST PUSH1 0x40 MLOAD PUSH1 0x1F DUP3 ADD PUSH1 0x1F NOT AND DUP2 ADD PUSH1 0x1 PUSH1 0x1 PUSH1 0x40 SHL SUB DUP2 GT DUP3 DUP3 LT OR ISZERO PUSH2 0x2998 JUMPI PUSH2 0x2998 PUSH2 0x2A73 JUMP JUMPDEST PUSH1 0x40 MSTORE SWAP2 SWAP1 POP JUMP JUMPDEST PUSH1 0x0 PUSH1 0x1 PUSH1 0x1 PUSH1 0x40 SHL SUB DUP3 GT ISZERO PUSH2 0x29B9 JUMPI PUSH2 0x29B9 PUSH2 0x2A73 JUMP JUMPDEST POP PUSH1 0x20 SWAP1 DUP2 MUL ADD SWAP1 JUMP JUMPDEST PUSH1 0x0 DUP3 NOT DUP3 GT ISZERO PUSH2 0x29D6 JUMPI PUSH2 0x29D6 PUSH2 0x2A5D JUMP JUMPDEST POP ADD SWAP1 JUMP JUMPDEST PUSH1 0x0 DUP3 PUSH2 0x29F6 JUMPI PUSH4 0x4E487B71 PUSH1 0xE0 SHL DUP2 MSTORE PUSH1 0x12 PUSH1 0x4 MSTORE PUSH1 0x24 DUP2 REVERT JUMPDEST POP DIV SWAP1 JUMP JUMPDEST PUSH1 0x0 DUP2 PUSH1 0x0 NOT DIV DUP4 GT DUP3 ISZERO ISZERO AND ISZERO PUSH2 0x2A15 JUMPI PUSH2 0x2A15 PUSH2 0x2A5D JUMP JUMPDEST POP MUL SWAP1 JUMP JUMPDEST PUSH1 0x0 DUP3 DUP3 LT ISZERO PUSH2 0x2A2C JUMPI PUSH2 0x2A2C PUSH2 0x2A5D JUMP JUMPDEST POP SUB SWAP1 JUMP JUMPDEST PUSH1 0x0 JUMPDEST DUP4 DUP2 LT ISZERO PUSH2 0x2A4C JUMPI DUP2 DUP2 ADD MLOAD DUP4 DUP3 ADD MSTORE PUSH1 0x20 ADD PUSH2 0x2A34 JUMP JUMPDEST DUP4 DUP2 GT ISZERO PUSH2 0x1EB0 JUMPI POP POP PUSH1 0x0 SWAP2 ADD MSTORE JUMP JUMPDEST PUSH4 0x4E487B71 PUSH1 0xE0 SHL PUSH1 0x0 MSTORE PUSH1 0x11 PUSH1 0x4 MSTORE PUSH1 0x24 PUSH1 0x0 REVERT JUMPDEST PUSH4 0x4E487B71 PUSH1 0xE0 SHL PUSH1 0x0 MSTORE PUSH1 0x41 PUSH1 0x4 MSTORE PUSH1 0x24 PUSH1 0x0 REVERT JUMPDEST PUSH1 0x1 PUSH1 0x1 PUSH1 0xA0 SHL SUB DUP2 AND DUP2 EQ PUSH2 0xC04 JUMPI PUSH1 0x0 DUP1 REVERT INVALID COINBASE PUSH5 0x6472657373 GASPRICE KECCAK256 PUSH13 0x6F772D6C6576656C2064656C65 PUSH8 0x6174652063616C6C KECCAK256 PUSH7 0x61696C6564A264 PUSH10 0x70667358221220FC6085 SHL 0xDB 0xBB 0xDB CALLCODE SELFBALANCE PC DUP4 DUP12 SWAP3 PUSH7 0x622903A8CAAEB3 SWAP15 PUSH22 0x6A5832EA7FAD659CBB64736F6C634300080200330000 "
		},
		"gasEstimates": {
			"creation": {
				"codeDepositCost": "2200600",
				"executionCost": "2346",
				"totalCost": "2202946"
			},
			"external": {
				"BONUS_MULTIPLIER()": "1117",
				"add(uint256)": "infinite",
				"allocPoint()": "1028",
				"deposit(uint256,uint256)": "infinite",
				"emergencyWithdraw(uint256)": "infinite",
				"getMultiplier(uint256,uint256)": "infinite",
				"getPoolLength()": "1037",
				"initialize(address,address,uint256,uint256,uint256,address,address)": "infinite",
				"lostRound(address,uint256)": "infinite",
				"maxPredDeposit()": "1029",
				"operatorAddress()": "1151",
				"owner()": "1225",
				"pause()": "23942",
				"paused()": "1203",
				"pendingPred(uint256,address)": "infinite",
				"poolInfo(uint256)": "5461",
				"poolLength()": "1016",
				"pred()": "1171",
				"predPerBlock()": "1162",
				"prediction()": "1261",
				"renounceOwnership()": "23529",
				"setAllocPoint(uint256)": "21175",
				"setMaxPredDeposit(uint256)": "20345",
				"setOperator(address)": "23278",
				"setPoolAllocPoint(uint256)": "infinite",
				"startBlock()": "1073",
				"totalRewardDebt()": "1073",
				"transferOwnership(address)": "infinite",
				"unpause()": "23853",
				"updateMultiplier(uint256)": "21132",
				"updatePool(uint256)": "infinite",
				"upgradeTo(address)": "infinite",
				"upgradeToAndCall(address,bytes)": "infinite",
				"userInfo(uint256,address)": "2354",
				"wallet()": "1216",
				"withdraw(uint256,uint256)": "infinite",
				"wonRound(address,uint256)": "infinite"
			},
			"internal": {
				"_add(uint256,uint256)": "infinite",
				"_authorizeUpgrade(address)": "infinite",
				"safePredTransfer(address,uint256)": "infinite"
			}
		},
		"methodIdentifiers": {
			"BONUS_MULTIPLIER()": "8aa28550",
			"add(uint256)": "1003e2d2",
			"allocPoint()": "d3dd7eb7",
			"deposit(uint256,uint256)": "e2bbb158",
			"emergencyWithdraw(uint256)": "5312ea8e",
			"getMultiplier(uint256,uint256)": "8dbb1e3a",
			"getPoolLength()": "b3944d52",
			"initialize(address,address,uint256,uint256,uint256,address,address)": "0729da0b",
			"lostRound(address,uint256)": "1c8d04e2",
			"maxPredDeposit()": "ae5241a0",
			"operatorAddress()": "127effb2",
			"owner()": "8da5cb5b",
			"pause()": "8456cb59",
			"paused()": "5c975abb",
			"pendingPred(uint256,address)": "6450b8a9",
			"poolInfo(uint256)": "1526fe27",
			"poolLength()": "081e3eda",
			"pred()": "e5c9ad2e",
			"predPerBlock()": "1fc7be89",
			"prediction()": "2372c916",
			"renounceOwnership()": "715018a6",
			"setAllocPoint(uint256)": "e0747c96",
			"setMaxPredDeposit(uint256)": "c26780b0",
			"setOperator(address)": "b3ab15fb",
			"setPoolAllocPoint(uint256)": "b7a3c110",
			"startBlock()": "48cd4cb1",
			"totalRewardDebt()": "83bb3877",
			"transferOwnership(address)": "f2fde38b",
			"unpause()": "3f4ba83a",
			"updateMultiplier(uint256)": "5ffe6146",
			"updatePool(uint256)": "51eb05a6",
			"upgradeTo(address)": "3659cfe6",
			"upgradeToAndCall(address,bytes)": "4f1ef286",
			"userInfo(uint256,address)": "93f1a40b",
			"wallet()": "521eb273",
			"withdraw(uint256,uint256)": "441a3e70",
			"wonRound(address,uint256)": "1521604e"
		}
	},
	"abi": [
		{
			"anonymous": false,
			"inputs": [
				{
					"indexed": false,
					"internalType": "address",
					"name": "previousAdmin",
					"type": "address"
				},
				{
					"indexed": false,
					"internalType": "address",
					"name": "newAdmin",
					"type": "address"
				}
			],
			"name": "AdminChanged",
			"type": "event"
		},
		{
			"anonymous": false,
			"inputs": [
				{
					"indexed": true,
					"internalType": "address",
					"name": "beacon",
					"type": "address"
				}
			],
			"name": "BeaconUpgraded",
			"type": "event"
		},
		{
			"anonymous": false,
			"inputs": [
				{
					"indexed": true,
					"internalType": "address",
					"name": "user",
					"type": "address"
				},
				{
					"indexed": true,
					"internalType": "uint256",
					"name": "pid",
					"type": "uint256"
				},
				{
					"indexed": false,
					"internalType": "uint256",
					"name": "amount",
					"type": "uint256"
				}
			],
			"name": "Deposit",
			"type": "event"
		},
		{
			"anonymous": false,
			"inputs": [
				{
					"indexed": true,
					"internalType": "address",
					"name": "user",
					"type": "address"
				},
				{
					"indexed": true,
					"internalType": "uint256",
					"name": "pid",
					"type": "uint256"
				},
				{
					"indexed": false,
					"internalType": "uint256",
					"name": "amount",
					"type": "uint256"
				}
			],
			"name": "EmergencyWithdraw",
			"type": "event"
		},
		{
			"anonymous": false,
			"inputs": [
				{
					"indexed": false,
					"internalType": "address",
					"name": "operator",
					"type": "address"
				}
			],
			"name": "NewOperatorAddress",
			"type": "event"
		},
		{
			"anonymous": false,
			"inputs": [
				{
					"indexed": true,
					"internalType": "address",
					"name": "previousOwner",
					"type": "address"
				},
				{
					"indexed": true,
					"internalType": "address",
					"name": "newOwner",
					"type": "address"
				}
			],
			"name": "OwnershipTransferred",
			"type": "event"
		},
		{
			"anonymous": false,
			"inputs": [
				{
					"indexed": false,
					"internalType": "address",
					"name": "account",
					"type": "address"
				}
			],
			"name": "Paused",
			"type": "event"
		},
		{
			"anonymous": false,
			"inputs": [
				{
					"indexed": false,
					"internalType": "address",
					"name": "account",
					"type": "address"
				}
			],
			"name": "Unpaused",
			"type": "event"
		},
		{
			"anonymous": false,
			"inputs": [
				{
					"indexed": true,
					"internalType": "address",
					"name": "implementation",
					"type": "address"
				}
			],
			"name": "Upgraded",
			"type": "event"
		},
		{
			"anonymous": false,
			"inputs": [
				{
					"indexed": true,
					"internalType": "address",
					"name": "user",
					"type": "address"
				},
				{
					"indexed": true,
					"internalType": "uint256",
					"name": "pid",
					"type": "uint256"
				},
				{
					"indexed": false,
					"internalType": "uint256",
					"name": "amount",
					"type": "uint256"
				}
			],
			"name": "Withdraw",
			"type": "event"
		},
		{
			"inputs": [],
			"name": "BONUS_MULTIPLIER",
			"outputs": [
				{
					"internalType": "uint256",
					"name": "",
					"type": "uint256"
				}
			],
			"stateMutability": "view",
			"type": "function"
		},
		{
			"inputs": [
				{
					"internalType": "uint256",
					"name": "_epoch",
					"type": "uint256"
				}
			],
			"name": "add",
			"outputs": [],
			"stateMutability": "nonpayable",
			"type": "function"
		},
		{
			"inputs": [],
			"name": "allocPoint",
			"outputs": [
				{
					"internalType": "uint256",
					"name": "",
					"type": "uint256"
				}
			],
			"stateMutability": "view",
			"type": "function"
		},
		{
			"inputs": [
				{
					"internalType": "uint256",
					"name": "_pid",
					"type": "uint256"
				},
				{
					"internalType": "uint256",
					"name": "_amount",
					"type": "uint256"
				}
			],
			"name": "deposit",
			"outputs": [],
			"stateMutability": "nonpayable",
			"type": "function"
		},
		{
			"inputs": [
				{
					"internalType": "uint256",
					"name": "_pid",
					"type": "uint256"
				}
			],
			"name": "emergencyWithdraw",
			"outputs": [],
			"stateMutability": "nonpayable",
			"type": "function"
		},
		{
			"inputs": [
				{
					"internalType": "uint256",
					"name": "_from",
					"type": "uint256"
				},
				{
					"internalType": "uint256",
					"name": "_to",
					"type": "uint256"
				}
			],
			"name": "getMultiplier",
			"outputs": [
				{
					"internalType": "uint256",
					"name": "",
					"type": "uint256"
				}
			],
			"stateMutability": "view",
			"type": "function"
		},
		{
			"inputs": [],
			"name": "getPoolLength",
			"outputs": [
				{
					"internalType": "uint256",
					"name": "",
					"type": "uint256"
				}
			],
			"stateMutability": "view",
			"type": "function"
		},
		{
			"inputs": [
				{
					"internalType": "address",
					"name": "_operator",
					"type": "address"
				},
				{
					"internalType": "contract IBEP20",
					"name": "_pred",
					"type": "address"
				},
				{
					"internalType": "uint256",
					"name": "_predPerBlock",
					"type": "uint256"
				},
				{
					"internalType": "uint256",
					"name": "_startBlock",
					"type": "uint256"
				},
				{
					"internalType": "uint256",
					"name": "_maxPredDeposit",
					"type": "uint256"
				},
				{
					"internalType": "contract PredictionWallet",
					"name": "_wallet",
					"type": "address"
				},
				{
					"internalType": "contract IPrediction",
					"name": "_prediction",
					"type": "address"
				}
			],
			"name": "initialize",
			"outputs": [],
			"stateMutability": "nonpayable",
			"type": "function"
		},
		{
			"inputs": [
				{
					"internalType": "address",
					"name": "preder",
					"type": "address"
				},
				{
					"internalType": "uint256",
					"name": "round",
					"type": "uint256"
				}
			],
			"name": "lostRound",
			"outputs": [
				{
					"internalType": "bool",
					"name": "",
					"type": "bool"
				}
			],
			"stateMutability": "view",
			"type": "function"
		},
		{
			"inputs": [],
			"name": "maxPredDeposit",
			"outputs": [
				{
					"internalType": "uint256",
					"name": "",
					"type": "uint256"
				}
			],
			"stateMutability": "view",
			"type": "function"
		},
		{
			"inputs": [],
			"name": "operatorAddress",
			"outputs": [
				{
					"internalType": "address",
					"name": "",
					"type": "address"
				}
			],
			"stateMutability": "view",
			"type": "function"
		},
		{
			"inputs": [],
			"name": "owner",
			"outputs": [
				{
					"internalType": "address",
					"name": "",
					"type": "address"
				}
			],
			"stateMutability": "view",
			"type": "function"
		},
		{
			"inputs": [],
			"name": "pause",
			"outputs": [],
			"stateMutability": "nonpayable",
			"type": "function"
		},
		{
			"inputs": [],
			"name": "paused",
			"outputs": [
				{
					"internalType": "bool",
					"name": "",
					"type": "bool"
				}
			],
			"stateMutability": "view",
			"type": "function"
		},
		{
			"inputs": [
				{
					"internalType": "uint256",
					"name": "_pid",
					"type": "uint256"
				},
				{
					"internalType": "address",
					"name": "_user",
					"type": "address"
				}
			],
			"name": "pendingPred",
			"outputs": [
				{
					"internalType": "uint256",
					"name": "",
					"type": "uint256"
				}
			],
			"stateMutability": "view",
			"type": "function"
		},
		{
			"inputs": [
				{
					"internalType": "uint256",
					"name": "",
					"type": "uint256"
				}
			],
			"name": "poolInfo",
			"outputs": [
				{
					"internalType": "uint256",
					"name": "allocPoint",
					"type": "uint256"
				},
				{
					"internalType": "uint256",
					"name": "lastRewardBlock",
					"type": "uint256"
				},
				{
					"internalType": "uint256",
					"name": "accPredPerShare",
					"type": "uint256"
				},
				{
					"internalType": "uint256",
					"name": "epoch",
					"type": "uint256"
				},
				{
					"internalType": "uint256",
					"name": "amount",
					"type": "uint256"
				}
			],
			"stateMutability": "view",
			"type": "function"
		},
		{
			"inputs": [],
			"name": "poolLength",
			"outputs": [
				{
					"internalType": "uint256",
					"name": "",
					"type": "uint256"
				}
			],
			"stateMutability": "view",
			"type": "function"
		},
		{
			"inputs": [],
			"name": "pred",
			"outputs": [
				{
					"internalType": "contract IBEP20",
					"name": "",
					"type": "address"
				}
			],
			"stateMutability": "view",
			"type": "function"
		},
		{
			"inputs": [],
			"name": "predPerBlock",
			"outputs": [
				{
					"internalType": "uint256",
					"name": "",
					"type": "uint256"
				}
			],
			"stateMutability": "view",
			"type": "function"
		},
		{
			"inputs": [],
			"name": "prediction",
			"outputs": [
				{
					"internalType": "contract IPrediction",
					"name": "",
					"type": "address"
				}
			],
			"stateMutability": "view",
			"type": "function"
		},
		{
			"inputs": [],
			"name": "renounceOwnership",
			"outputs": [],
			"stateMutability": "nonpayable",
			"type": "function"
		},
		{
			"inputs": [
				{
					"internalType": "uint256",
					"name": "_allocPoint",
					"type": "uint256"
				}
			],
			"name": "setAllocPoint",
			"outputs": [],
			"stateMutability": "nonpayable",
			"type": "function"
		},
		{
			"inputs": [
				{
					"internalType": "uint256",
					"name": "_maxPredDeposit",
					"type": "uint256"
				}
			],
			"name": "setMaxPredDeposit",
			"outputs": [],
			"stateMutability": "nonpayable",
			"type": "function"
		},
		{
			"inputs": [
				{
					"internalType": "address",
					"name": "_operatorAddress",
					"type": "address"
				}
			],
			"name": "setOperator",
			"outputs": [],
			"stateMutability": "nonpayable",
			"type": "function"
		},
		{
			"inputs": [
				{
					"internalType": "uint256",
					"name": "_allocPoint",
					"type": "uint256"
				}
			],
			"name": "setPoolAllocPoint",
			"outputs": [],
			"stateMutability": "nonpayable",
			"type": "function"
		},
		{
			"inputs": [],
			"name": "startBlock",
			"outputs": [
				{
					"internalType": "uint256",
					"name": "",
					"type": "uint256"
				}
			],
			"stateMutability": "view",
			"type": "function"
		},
		{
			"inputs": [],
			"name": "totalRewardDebt",
			"outputs": [
				{
					"internalType": "uint256",
					"name": "",
					"type": "uint256"
				}
			],
			"stateMutability": "view",
			"type": "function"
		},
		{
			"inputs": [
				{
					"internalType": "address",
					"name": "newOwner",
					"type": "address"
				}
			],
			"name": "transferOwnership",
			"outputs": [],
			"stateMutability": "nonpayable",
			"type": "function"
		},
		{
			"inputs": [],
			"name": "unpause",
			"outputs": [],
			"stateMutability": "nonpayable",
			"type": "function"
		},
		{
			"inputs": [
				{
					"internalType": "uint256",
					"name": "multiplierNumber",
					"type": "uint256"
				}
			],
			"name": "updateMultiplier",
			"outputs": [],
			"stateMutability": "nonpayable",
			"type": "function"
		},
		{
			"inputs": [
				{
					"internalType": "uint256",
					"name": "_pid",
					"type": "uint256"
				}
			],
			"name": "updatePool",
			"outputs": [],
			"stateMutability": "nonpayable",
			"type": "function"
		},
		{
			"inputs": [
				{
					"internalType": "address",
					"name": "newImplementation",
					"type": "address"
				}
			],
			"name": "upgradeTo",
			"outputs": [],
			"stateMutability": "nonpayable",
			"type": "function"
		},
		{
			"inputs": [
				{
					"internalType": "address",
					"name": "newImplementation",
					"type": "address"
				},
				{
					"internalType": "bytes",
					"name": "data",
					"type": "bytes"
				}
			],
			"name": "upgradeToAndCall",
			"outputs": [],
			"stateMutability": "payable",
			"type": "function"
		},
		{
			"inputs": [
				{
					"internalType": "uint256",
					"name": "",
					"type": "uint256"
				},
				{
					"internalType": "address",
					"name": "",
					"type": "address"
				}
			],
			"name": "userInfo",
			"outputs": [
				{
					"internalType": "uint256",
					"name": "amount",
					"type": "uint256"
				},
				{
					"internalType": "uint256",
					"name": "rewardDebt",
					"type": "uint256"
				}
			],
			"stateMutability": "view",
			"type": "function"
		},
		{
			"inputs": [],
			"name": "wallet",
			"outputs": [
				{
					"internalType": "contract PredictionWallet",
					"name": "",
					"type": "address"
				}
			],
			"stateMutability": "view",
			"type": "function"
		},
		{
			"inputs": [
				{
					"internalType": "uint256",
					"name": "_pid",
					"type": "uint256"
				},
				{
					"internalType": "uint256",
					"name": "_amount",
					"type": "uint256"
				}
			],
			"name": "withdraw",
			"outputs": [],
			"stateMutability": "nonpayable",
			"type": "function"
		},
		{
			"inputs": [
				{
					"internalType": "address",
					"name": "preder",
					"type": "address"
				},
				{
					"internalType": "uint256",
					"name": "round",
					"type": "uint256"
				}
			],
			"name": "wonRound",
			"outputs": [
				{
					"internalType": "bool",
					"name": "",
					"type": "bool"
				}
			],
			"stateMutability": "view",
			"type": "function"
		}
	]
}