{
	"data": {
		"bytecode": {
			"linkReferences": {},
			"object": "608060405234801561001057600080fd5b50612836806100206000396000f3fe6080604052600436106101a35760003560e01c8063715018a6116100e2578063b3944d5211610085578063b3944d52146101a8578063bf9fe138146104ac578063c26780b0146104cc578063d3dd7eb7146104ed578063e0747c9614610504578063e2bbb15814610524578063e5c9ad2e14610544578063f2fde38b14610564576101a3565b8063715018a6146103b457806383bb3877146103c95780638456cb59146103e05780638aa28550146103f55780638da5cb5b1461040b5780638dbb1e3a1461042057806393f1a40b14610440578063ae5241a014610495576101a3565b806348cd4cb11161014a57806348cd4cb1146102c75780634f1ef286146102de57806351eb05a6146102f1578063521eb273146103115780635312ea8e146103315780635c975abb146103515780635ffe6146146103745780636450b8a914610394576101a3565b8063081e3eda146101a85780631003e2d2146101cd5780631526fe27146101ef5780631fc7be891461022f5780632372c916146102455780633659cfe6146102725780633f4ba83a14610292578063441a3e70146102a7575b600080fd5b3480156101b457600080fd5b50610101545b6040519081526020015b60405180910390f35b3480156101d957600080fd5b506101ed6101e836600461238f565b610584565b005b3480156101fb57600080fd5b5061020f61020a36600461238f565b61092e565b6040805194855260208501939093529183015260608201526080016101c4565b34801561023b57600080fd5b506101ba60fd5481565b34801561025157600080fd5b5060fc54610265906001600160a01b031681565b6040516101c49190612570565b34801561027e57600080fd5b506101ed61028d366004612252565b610969565b34801561029e57600080fd5b506101ed610990565b3480156102b357600080fd5b506101ed6102c23660046123ee565b6109c9565b3480156102d357600080fd5b506101ba6101045481565b6101ed6102ec36600461226e565b610b6c565b3480156102fd57600080fd5b506101ed61030c36600461238f565b610b85565b34801561031d57600080fd5b5060ff54610265906001600160a01b031681565b34801561033d57600080fd5b506101ed61034c36600461238f565b610d8e565b34801561035d57600080fd5b5060335460ff1660405190151581526020016101c4565b34801561038057600080fd5b506101ed61038f36600461238f565b610ea1565b3480156103a057600080fd5b506101ba6103af3660046123bf565b610ed5565b3480156103c057600080fd5b506101ed6110b5565b3480156103d557600080fd5b506101ba6101055481565b3480156103ec57600080fd5b506101ed6110ee565b34801561040157600080fd5b506101ba60fe5481565b34801561041757600080fd5b50610265611125565b34801561042c57600080fd5b506101ba61043b3660046123ee565b611134565b34801561044c57600080fd5b5061048061045b3660046123bf565b6101026020908152600092835260408084209091529082529020805460019091015482565b604080519283526020830191909152016101c4565b3480156104a157600080fd5b506101ba6101005481565b3480156104b857600080fd5b506101ed6104c7366004612329565b61114f565b3480156104d857600080fd5b506101ed6104e736600461238f565b61010055565b3480156104f957600080fd5b506101ba6101035481565b34801561051057600080fd5b506101ed61051f36600461238f565b61122d565b34801561053057600080fd5b506101ed61053f3660046123ee565b6112b5565b34801561055057600080fd5b5060fb54610265906001600160a01b031681565b34801561057057600080fd5b506101ed61057f366004612252565b611621565b3361058d611125565b6001600160a01b0316146105bc5760405162461bcd60e51b81526004016105b390612676565b60405180910390fd5b60fc5460405163023c4c9f60e61b8152600481018390526000916001600160a01b031690638f1327c09060240160006040518083038186803b15801561060157600080fd5b505afa158015610615573d6000803e3d6000fd5b505050506040513d6000823e601f3d908101601f1916820160405261063d919081019061240f565b505050505050945050505050806106a75760405162461bcd60e51b815260206004820152602860248201527f526f756e6420776173206e6f74207375636365737366756c206f72206e6f7420604482015267636f6d706c65746560c01b60648201526084016105b3565b60fc5460408051630ecce30160e31b815290516000926001600160a01b031691637667180891600480830192602092919082900301818787803b1580156106ed57600080fd5b505af1158015610701573d6000803e3d6000fd5b505050506040513d601f19601f8201168201806040525081019061072591906123a7565b90508281146108155760fc5460405163023c4c9f60e61b8152600481018390526000916001600160a01b031690638f1327c09060240160006040518083038186803b15801561077357600080fd5b505afa158015610787573d6000803e3d6000fd5b505050506040513d6000823e601f3d908101601f191682016040526107af919081019061240f565b50505050505094505050505080156108135760405162461bcd60e51b815260206004820152602160248201527f43757272656e7420526f756e6420697320616c726561647920636f6d706c65746044820152606560f81b60648201526084016105b3565b505b610101541561091c576101015460009061083190600190612755565b905083610101828154811061085657634e487b7160e01b600052603260045260246000fd5b906000526020600020906004020160030154106108cd5760405162461bcd60e51b815260206004820152602f60248201527f4e65772065706f63682063616e6e6f74206265206c657373206f72206571756160448201526e0d840e8de40e0c2e6e840cae0dec6d608b1b60648201526084016105b3565b6108d681610b85565b6101018054600091906108eb90600190612755565b8154811061090957634e487b7160e01b600052603260045260246000fd5b6000918252602090912060049091020155505b61092961010354846116be565b505050565b610101818154811061093f57600080fd5b60009182526020909120600490910201805460018201546002830154600390930154919350919084565b610972816117d5565b61098d81604051806020016040528060008152506000611804565b50565b33610999611125565b6001600160a01b0316146109bf5760405162461bcd60e51b81526004016105b390612676565b6109c761194b565b565b60335460ff16156109ec5760405162461bcd60e51b81526004016105b3906125fe565b60006101018381548110610a1057634e487b7160e01b600052603260045260246000fd5b60009182526020808320868452610102825260408085203386529092529220805460049092029092019250831115610a7f5760405162461bcd60e51b81526020600482015260126024820152711dda5d1a191c985dce881b9bdd0819dbdbd960721b60448201526064016105b3565b610a8884610b85565b6000610ac98260010154610ac368327cb2734119d3b7a9601e1b610abd876002015487600001546119b190919063ffffffff16565b906119bd565b906119c9565b90508015610adb57610adb33826119d5565b8315610b06578154610aed90856119c9565b825560fb54610b06906001600160a01b03163386611a6d565b60028301548254610b289168327cb2734119d3b7a9601e1b91610abd916119b1565b6001830155604051848152859033907ff279e6a1f5e320cca91135676d9cb6e44ca8a08c0b88342bcdb1144f6511b568906020015b60405180910390a35050505050565b610b75826117d5565b610b8182826001611804565b5050565b60006101018281548110610ba957634e487b7160e01b600052603260045260246000fd5b9060005260206000209060040201905080600101544311610bca575061098d565b60fb546040516370a0823160e01b81526000916001600160a01b0316906370a0823190610bfb903090600401612570565b60206040518083038186803b158015610c1357600080fd5b505afa158015610c27573d6000803e3d6000fd5b505050506040513d601f19601f82011682018060405250810190610c4b91906123a7565b905080610c5f57504360019091015561098d565b6000610c6f836001015443611134565b90506000610c9d61010354610abd8660000154610c9760fd54876119b190919063ffffffff16565b906119b1565b6101055460fb5460ff546040516370a0823160e01b8152939450600093610d3193926001600160a01b03908116926370a0823192610ce19290911690600401612570565b60206040518083038186803b158015610cf957600080fd5b505afa158015610d0d573d6000803e3d6000fd5b505050506040513d601f19601f82011682018060405250810190610ac391906123a7565b9050808210610d3e578091505b610d66610d5b85610abd8568327cb2734119d3b7a9601e1b6119b1565b600287015490611ac3565b600286015561010554610d799083611ac3565b61010555505043600190930192909255505050565b60335460ff16610db05760405162461bcd60e51b81526004016105b3906125d0565b60006101018281548110610dd457634e487b7160e01b600052603260045260246000fd5b60009182526020808320858452610102825260408085203386529092529083208054848255600182018590556002600490940290920192830154929450929091610e37908290610ac39068327cb2734119d3b7a9601e1b90610abd9087906119b1565b9050610105548111610e565761010554610e5190826119c9565b610105555b60fb54610e6d906001600160a01b03163384611a6d565b604051828152859033907fbb757047c2b5f3974fe26b7c10f732e7bce710b0952a71082702781e62ae059590602001610b5d565b33610eaa611125565b6001600160a01b031614610ed05760405162461bcd60e51b81526004016105b390612676565b60fe55565b6000806101018481548110610efa57634e487b7160e01b600052603260045260246000fd5b60009182526020808320878452610102825260408085206001600160a01b03898116875293528085206004948502909201600281015460fb5492516370a0823160e01b815291975092959294929391909116916370a0823191610f5f91309101612570565b60206040518083038186803b158015610f7757600080fd5b505afa158015610f8b573d6000803e3d6000fd5b505050506040513d601f19601f82011682018060405250810190610faf91906123a7565b9050836001015443118015610fc357508015155b1561107b576000610fd8856001015443611134565b9050600061100061010354610abd8860000154610c9760fd54876119b190919063ffffffff16565b6101055460fb5460ff546040516370a0823160e01b815293945060009361104493926001600160a01b03908116926370a0823192610ce19290911690600401612570565b9050808210611051578091505b61107561106e85610abd8568327cb2734119d3b7a9601e1b6119b1565b8690611ac3565b94505050505b6110aa8360010154610ac368327cb2734119d3b7a9601e1b610abd8688600001546119b190919063ffffffff16565b979650505050505050565b336110be611125565b6001600160a01b0316146110e45760405162461bcd60e51b81526004016105b390612676565b6109c76000611acf565b336110f7611125565b6001600160a01b03161461111d5760405162461bcd60e51b81526004016105b390612676565b6109c7611b21565b60c9546001600160a01b031690565b60fe5460009061114890610c9784866119c9565b9392505050565b600054610100900460ff1680611168575060005460ff16155b6111845760405162461bcd60e51b81526004016105b390612628565b600054610100900460ff161580156111af576000805460ff1961ff0019909116610100171660011790555b6111b7611b79565b60fb80546001600160a01b03808a166001600160a01b03199283161790925560fd88905561010487905560ff805486841690831617905560fc805492851692909116919091179055610100849055620f424060fe5560c8610103558015611224576000805461ff00191690555b50505050505050565b33611236611125565b6001600160a01b03161461125c5760405162461bcd60e51b81526004016105b390612676565b6101015460009061126f90600190612755565b905061127a81610b85565b81610101828154811061129d57634e487b7160e01b600052603260045260246000fd5b60009182526020909120600490910201555061010355565b60335460ff16156112d85760405162461bcd60e51b81526004016105b3906125fe565b600061010183815481106112fc57634e487b7160e01b600052603260045260246000fd5b6000918252602091829020604080516080810182526004938402909201805483526001810154948301949094526002840154828201526003909301546060820181905260fc549351630a90b02760e11b81529194506001600160a01b0390931692631521604e926113709233929101612584565b60206040518083038186803b15801561138857600080fd5b505afa15801561139c573d6000803e3d6000fd5b505050506040513d601f19601f820116820180604052508101906113c0919061230f565b6114165760405162461bcd60e51b815260206004820152602160248201527f446964206e6f742077696e20746869732050726564696374696f6e20726f756e6044820152601960fa1b60648201526084016105b3565b600083815261010260209081526040808320338452909152902061143984610b85565b8054156114895760006114758260010154610ac368327cb2734119d3b7a9601e1b610abd876040015187600001546119b190919063ffffffff16565b905080156114875761148733826119d5565b505b82156115bd5760fb546040516370a0823160e01b81526000916001600160a01b0316906370a08231906114c0903090600401612570565b60206040518083038186803b1580156114d857600080fd5b505afa1580156114ec573d6000803e3d6000fd5b505050506040513d601f19601f8201168201806040525081019061151091906123a7565b60fb5490915061152b906001600160a01b0316333087611bfd565b60fb546040516370a0823160e01b815261156b916115639184916001600160a01b0316906370a0823190610ce1903090600401612570565b835490611ac3565b8083556101005410156115bb5760405162461bcd60e51b815260206004820152601860248201527713585e08141491510811195c1bdcda5d0814995858da195960421b60448201526064016105b3565b505b604082015181546115df9168327cb2734119d3b7a9601e1b91610abd916119b1565b6001820155604051838152849033907f90890809c654f11d6e72a28fa60149770a0d11ec6c92319d6ceb2bb0a4ea1a159060200160405180910390a350505050565b3361162a611125565b6001600160a01b0316146116505760405162461bcd60e51b81526004016105b390612676565b6001600160a01b0381166116b55760405162461bcd60e51b815260206004820152602660248201527f4f776e61626c653a206e6577206f776e657220697320746865207a65726f206160448201526564647265737360d01b60648201526084016105b3565b61098d81611acf565b336116c7611125565b6001600160a01b0316146116ed5760405162461bcd60e51b81526004016105b390612676565b60006101045443116117025761010454611704565b435b60408051608081018252948552602085019182526000908501818152606086019485526101018054600181018255925294517f109ea3cebb188b9c1b9fc5bb3920be60dfdc8699098dff92f3d80daaca74768960049092029182015590517f109ea3cebb188b9c1b9fc5bb3920be60dfdc8699098dff92f3d80daaca74768a82015592517f109ea3cebb188b9c1b9fc5bb3920be60dfdc8699098dff92f3d80daaca74768b84015550517f109ea3cebb188b9c1b9fc5bb3920be60dfdc8699098dff92f3d80daaca74768c90910155565b336117de611125565b6001600160a01b03161461098d5760405162461bcd60e51b81526004016105b390612676565b600061180e611c3b565b905061181984611c69565b6000835111806118265750815b15611837576118358484611d15565b505b7f4910fdfa16fed3260ed0e7147f7cc6da11a60208b5b9406d12a635614ffd9143805460ff1661194457805460ff191660011781556040516118b2908690611883908590602401612570565b60408051601f198184030181529190526020810180516001600160e01b0316631b2ce7f360e11b179052611d15565b50805460ff191681556118c3611c3b565b6001600160a01b0316826001600160a01b03161461193b5760405162461bcd60e51b815260206004820152602f60248201527f45524331393637557067726164653a207570677261646520627265616b73206660448201526e75727468657220757067726164657360881b60648201526084016105b3565b61194485611e07565b5050505050565b60335460ff1661196d5760405162461bcd60e51b81526004016105b3906125d0565b6033805460ff191690557f5db9ee0a495bf2e6ff9c91a7834c1ba4fdd244a5e8aa4e537bd38aeae4b073aa335b6040516119a79190612570565b60405180910390a1565b60006111488284612736565b60006111488284612716565b60006111488284612755565b60ff5460405163736a0d4160e11b8152611a65916001600160a01b03169063e6d41a8290611a099086908690600401612584565b602060405180830381600087803b158015611a2357600080fd5b505af1158015611a37573d6000803e3d6000fd5b505050506040513d601f19601f82011682018060405250810190611a5b91906123a7565b61010554906119c9565b610105555050565b6109298363a9059cbb60e01b8484604051602401611a8c929190612584565b60408051601f198184030181529190526020810180516001600160e01b03166001600160e01b031990931692909217909152611e47565b600061114882846126fe565b60c980546001600160a01b038381166001600160a01b0319831681179093556040519116919082907f8be0079c531659141344cd1fd0a4f28419497f9722a3daafe3b4186f6b6457e090600090a35050565b60335460ff1615611b445760405162461bcd60e51b81526004016105b3906125fe565b6033805460ff191660011790557f62e78cea01bee320cd4e420270b5ea74000d11b0c9f74754ebdbfc544b05a25861199a3390565b600054610100900460ff1680611b92575060005460ff16155b611bae5760405162461bcd60e51b81526004016105b390612628565b600054610100900460ff16158015611bd9576000805460ff1961ff0019909116610100171660011790555b611be1611f19565b611be9611f8c565b801561098d576000805461ff001916905550565b6040516001600160a01b0380851660248301528316604482015260648101829052611c359085906323b872dd60e01b90608401611a8c565b50505050565b7f360894a13ba1a3210667c828492db98dca3e2076cc3735a920a3ca505d382bbc546001600160a01b031690565b611c7281611ff5565b611cd45760405162461bcd60e51b815260206004820152602d60248201527f455243313936373a206e657720696d706c656d656e746174696f6e206973206e60448201526c1bdd08184818dbdb9d1c9858dd609a1b60648201526084016105b3565b7f360894a13ba1a3210667c828492db98dca3e2076cc3735a920a3ca505d382bbc80546001600160a01b0319166001600160a01b0392909216919091179055565b6060611d2083611ff5565b611d7b5760405162461bcd60e51b815260206004820152602660248201527f416464726573733a2064656c65676174652063616c6c20746f206e6f6e2d636f6044820152651b9d1c9858dd60d21b60648201526084016105b3565b600080846001600160a01b031684604051611d969190612554565b600060405180830381855af49150503d8060008114611dd1576040519150601f19603f3d011682016040523d82523d6000602084013e611dd6565b606091505b5091509150611dfe82826040518060600160405280602781526020016127da60279139611fff565b95945050505050565b611e1081611c69565b6040516001600160a01b038216907fbc7cd75a20ee27fd9adebab32041f755214dbc6bffa90cc0225b39da2e5c2d3b90600090a250565b6000611e9c826040518060400160405280602081526020017f5361666545524332303a206c6f772d6c6576656c2063616c6c206661696c6564815250856001600160a01b03166120389092919063ffffffff16565b8051909150156109295780806020019051810190611eba919061230f565b6109295760405162461bcd60e51b815260206004820152602a60248201527f5361666545524332303a204552433230206f7065726174696f6e20646964206e6044820152691bdd081cdd58d8d9595960b21b60648201526084016105b3565b600054610100900460ff1680611f32575060005460ff16155b611f4e5760405162461bcd60e51b81526004016105b390612628565b600054610100900460ff16158015611be9576000805460ff1961ff001990911661010017166001179055801561098d576000805461ff001916905550565b600054610100900460ff1680611fa5575060005460ff16155b611fc15760405162461bcd60e51b81526004016105b390612628565b600054610100900460ff16158015611fec576000805460ff1961ff0019909116610100171660011790555b611be933611acf565b803b15155b919050565b6060831561200e575081611148565b82511561201e5782518084602001fd5b8160405162461bcd60e51b81526004016105b3919061259d565b6060612047848460008561204f565b949350505050565b6060824710156120b05760405162461bcd60e51b815260206004820152602660248201527f416464726573733a20696e73756666696369656e742062616c616e636520666f6044820152651c8818d85b1b60d21b60648201526084016105b3565b6120b985611ff5565b6121055760405162461bcd60e51b815260206004820152601d60248201527f416464726573733a2063616c6c20746f206e6f6e2d636f6e747261637400000060448201526064016105b3565b600080866001600160a01b031685876040516121219190612554565b60006040518083038185875af1925050503d806000811461215e576040519150601f19603f3d011682016040523d82523d6000602084013e612163565b606091505b50915091506110aa828286611fff565b600082601f830112612183578081fd5b81516020612198612193836126db565b6126ab565b82815281810190858301838502870184018810156121b4578586fd5b855b858110156121db5781516121c9816127c4565b845292840192908401906001016121b6565b5090979650505050505050565b600082601f8301126121f8578081fd5b81516020612208612193836126db565b8281528181019085830183850287018401881015612224578586fd5b855b858110156121db57815184529284019290840190600101612226565b80518015158114611ffa57600080fd5b600060208284031215612263578081fd5b8135611148816127c4565b60008060408385031215612280578081fd5b823561228b816127c4565b91506020838101356001600160401b03808211156122a7578384fd5b818601915086601f8301126122ba578384fd5b8135818111156122cc576122cc6127ae565b6122de601f8201601f191685016126ab565b915080825287848285010111156122f3578485fd5b8084840185840137810190920192909252919491935090915050565b600060208284031215612320578081fd5b61114882612242565b60008060008060008060c08789031215612341578182fd5b863561234c816127c4565b95506020870135945060408701359350606087013592506080870135612371816127c4565b915060a0870135612381816127c4565b809150509295509295509295565b6000602082840312156123a0578081fd5b5035919050565b6000602082840312156123b8578081fd5b5051919050565b600080604083850312156123d1578182fd5b8235915060208301356123e3816127c4565b809150509250929050565b60008060408385031215612400578182fd5b50508035926020909101359150565b60008060008060008060008060008060006101608c8e031215612430578889fd5b8b519a5060208c0151995060408c0151985060608c0151975061245560808d01612242565b965060a08c01516001600160401b0381111561246f578586fd5b61247b8e828f01612173565b96505060c08c01516001600160401b03811115612496578586fd5b6124a28e828f016121e8565b95505060e08c01516001600160401b038111156124bd578485fd5b6124c98e828f016121e8565b9450506101008c01516001600160401b038111156124e5578384fd5b6124f18e828f016121e8565b9350506101208c01516001600160401b0381111561250d578283fd5b6125198e828f016121e8565b9250506101408c01516001600160401b03811115612535578182fd5b6125418e828f016121e8565b9150509295989b509295989b9093969950565b6000825161256681846020870161276c565b9190910192915050565b6001600160a01b0391909116815260200190565b6001600160a01b03929092168252602082015260400190565b60006020825282518060208401526125bc81604085016020870161276c565b601f01601f19169190910160400192915050565b60208082526014908201527314185d5cd8589b194e881b9bdd081c185d5cd95960621b604082015260600190565b60208082526010908201526f14185d5cd8589b194e881c185d5cd95960821b604082015260600190565b6020808252602e908201527f496e697469616c697a61626c653a20636f6e747261637420697320616c72656160408201526d191e481a5b9a5d1a585b1a5e995960921b606082015260800190565b6020808252818101527f4f776e61626c653a2063616c6c6572206973206e6f7420746865206f776e6572604082015260600190565b604051601f8201601f191681016001600160401b03811182821017156126d3576126d36127ae565b604052919050565b60006001600160401b038211156126f4576126f46127ae565b5060209081020190565b6000821982111561271157612711612798565b500190565b60008261273157634e487b7160e01b81526012600452602481fd5b500490565b600081600019048311821515161561275057612750612798565b500290565b60008282101561276757612767612798565b500390565b60005b8381101561278757818101518382015260200161276f565b83811115611c355750506000910152565b634e487b7160e01b600052601160045260246000fd5b634e487b7160e01b600052604160045260246000fd5b6001600160a01b038116811461098d57600080fdfe416464726573733a206c6f772d6c6576656c2064656c65676174652063616c6c206661696c6564a2646970667358221220fe5778b90205346d5efa2f0a2a71efb8484fc632cda1d9e0e2a112dc985be8b864736f6c63430008020033",
			"opcodes": "PUSH1 0x80 PUSH1 0x40 MSTORE CALLVALUE DUP1 ISZERO PUSH2 0x10 JUMPI PUSH1 0x0 DUP1 REVERT JUMPDEST POP PUSH2 0x2836 DUP1 PUSH2 0x20 PUSH1 0x0 CODECOPY PUSH1 0x0 RETURN INVALID PUSH1 0x80 PUSH1 0x40 MSTORE PUSH1 0x4 CALLDATASIZE LT PUSH2 0x1A3 JUMPI PUSH1 0x0 CALLDATALOAD PUSH1 0xE0 SHR DUP1 PUSH4 0x715018A6 GT PUSH2 0xE2 JUMPI DUP1 PUSH4 0xB3944D52 GT PUSH2 0x85 JUMPI DUP1 PUSH4 0xB3944D52 EQ PUSH2 0x1A8 JUMPI DUP1 PUSH4 0xBF9FE138 EQ PUSH2 0x4AC JUMPI DUP1 PUSH4 0xC26780B0 EQ PUSH2 0x4CC JUMPI DUP1 PUSH4 0xD3DD7EB7 EQ PUSH2 0x4ED JUMPI DUP1 PUSH4 0xE0747C96 EQ PUSH2 0x504 JUMPI DUP1 PUSH4 0xE2BBB158 EQ PUSH2 0x524 JUMPI DUP1 PUSH4 0xE5C9AD2E EQ PUSH2 0x544 JUMPI DUP1 PUSH4 0xF2FDE38B EQ PUSH2 0x564 JUMPI PUSH2 0x1A3 JUMP JUMPDEST DUP1 PUSH4 0x715018A6 EQ PUSH2 0x3B4 JUMPI DUP1 PUSH4 0x83BB3877 EQ PUSH2 0x3C9 JUMPI DUP1 PUSH4 0x8456CB59 EQ PUSH2 0x3E0 JUMPI DUP1 PUSH4 0x8AA28550 EQ PUSH2 0x3F5 JUMPI DUP1 PUSH4 0x8DA5CB5B EQ PUSH2 0x40B JUMPI DUP1 PUSH4 0x8DBB1E3A EQ PUSH2 0x420 JUMPI DUP1 PUSH4 0x93F1A40B EQ PUSH2 0x440 JUMPI DUP1 PUSH4 0xAE5241A0 EQ PUSH2 0x495 JUMPI PUSH2 0x1A3 JUMP JUMPDEST DUP1 PUSH4 0x48CD4CB1 GT PUSH2 0x14A JUMPI DUP1 PUSH4 0x48CD4CB1 EQ PUSH2 0x2C7 JUMPI DUP1 PUSH4 0x4F1EF286 EQ PUSH2 0x2DE JUMPI DUP1 PUSH4 0x51EB05A6 EQ PUSH2 0x2F1 JUMPI DUP1 PUSH4 0x521EB273 EQ PUSH2 0x311 JUMPI DUP1 PUSH4 0x5312EA8E EQ PUSH2 0x331 JUMPI DUP1 PUSH4 0x5C975ABB EQ PUSH2 0x351 JUMPI DUP1 PUSH4 0x5FFE6146 EQ PUSH2 0x374 JUMPI DUP1 PUSH4 0x6450B8A9 EQ PUSH2 0x394 JUMPI PUSH2 0x1A3 JUMP JUMPDEST DUP1 PUSH4 0x81E3EDA EQ PUSH2 0x1A8 JUMPI DUP1 PUSH4 0x1003E2D2 EQ PUSH2 0x1CD JUMPI DUP1 PUSH4 0x1526FE27 EQ PUSH2 0x1EF JUMPI DUP1 PUSH4 0x1FC7BE89 EQ PUSH2 0x22F JUMPI DUP1 PUSH4 0x2372C916 EQ PUSH2 0x245 JUMPI DUP1 PUSH4 0x3659CFE6 EQ PUSH2 0x272 JUMPI DUP1 PUSH4 0x3F4BA83A EQ PUSH2 0x292 JUMPI DUP1 PUSH4 0x441A3E70 EQ PUSH2 0x2A7 JUMPI JUMPDEST PUSH1 0x0 DUP1 REVERT JUMPDEST CALLVALUE DUP1 ISZERO PUSH2 0x1B4 JUMPI PUSH1 0x0 DUP1 REVERT JUMPDEST POP PUSH2 0x101 SLOAD JUMPDEST PUSH1 0x40 MLOAD SWAP1 DUP2 MSTORE PUSH1 0x20 ADD JUMPDEST PUSH1 0x40 MLOAD DUP1 SWAP2 SUB SWAP1 RETURN JUMPDEST CALLVALUE DUP1 ISZERO PUSH2 0x1D9 JUMPI PUSH1 0x0 DUP1 REVERT JUMPDEST POP PUSH2 0x1ED PUSH2 0x1E8 CALLDATASIZE PUSH1 0x4 PUSH2 0x238F JUMP JUMPDEST PUSH2 0x584 JUMP JUMPDEST STOP JUMPDEST CALLVALUE DUP1 ISZERO PUSH2 0x1FB JUMPI PUSH1 0x0 DUP1 REVERT JUMPDEST POP PUSH2 0x20F PUSH2 0x20A CALLDATASIZE PUSH1 0x4 PUSH2 0x238F JUMP JUMPDEST PUSH2 0x92E JUMP JUMPDEST PUSH1 0x40 DUP1 MLOAD SWAP5 DUP6 MSTORE PUSH1 0x20 DUP6 ADD SWAP4 SWAP1 SWAP4 MSTORE SWAP2 DUP4 ADD MSTORE PUSH1 0x60 DUP3 ADD MSTORE PUSH1 0x80 ADD PUSH2 0x1C4 JUMP JUMPDEST CALLVALUE DUP1 ISZERO PUSH2 0x23B JUMPI PUSH1 0x0 DUP1 REVERT JUMPDEST POP PUSH2 0x1BA PUSH1 0xFD SLOAD DUP2 JUMP JUMPDEST CALLVALUE DUP1 ISZERO PUSH2 0x251 JUMPI PUSH1 0x0 DUP1 REVERT JUMPDEST POP PUSH1 0xFC SLOAD PUSH2 0x265 SWAP1 PUSH1 0x1 PUSH1 0x1 PUSH1 0xA0 SHL SUB AND DUP2 JUMP JUMPDEST PUSH1 0x40 MLOAD PUSH2 0x1C4 SWAP2 SWAP1 PUSH2 0x2570 JUMP JUMPDEST CALLVALUE DUP1 ISZERO PUSH2 0x27E JUMPI PUSH1 0x0 DUP1 REVERT JUMPDEST POP PUSH2 0x1ED PUSH2 0x28D CALLDATASIZE PUSH1 0x4 PUSH2 0x2252 JUMP JUMPDEST PUSH2 0x969 JUMP JUMPDEST CALLVALUE DUP1 ISZERO PUSH2 0x29E JUMPI PUSH1 0x0 DUP1 REVERT JUMPDEST POP PUSH2 0x1ED PUSH2 0x990 JUMP JUMPDEST CALLVALUE DUP1 ISZERO PUSH2 0x2B3 JUMPI PUSH1 0x0 DUP1 REVERT JUMPDEST POP PUSH2 0x1ED PUSH2 0x2C2 CALLDATASIZE PUSH1 0x4 PUSH2 0x23EE JUMP JUMPDEST PUSH2 0x9C9 JUMP JUMPDEST CALLVALUE DUP1 ISZERO PUSH2 0x2D3 JUMPI PUSH1 0x0 DUP1 REVERT JUMPDEST POP PUSH2 0x1BA PUSH2 0x104 SLOAD DUP2 JUMP JUMPDEST PUSH2 0x1ED PUSH2 0x2EC CALLDATASIZE PUSH1 0x4 PUSH2 0x226E JUMP JUMPDEST PUSH2 0xB6C JUMP JUMPDEST CALLVALUE DUP1 ISZERO PUSH2 0x2FD JUMPI PUSH1 0x0 DUP1 REVERT JUMPDEST POP PUSH2 0x1ED PUSH2 0x30C CALLDATASIZE PUSH1 0x4 PUSH2 0x238F JUMP JUMPDEST PUSH2 0xB85 JUMP JUMPDEST CALLVALUE DUP1 ISZERO PUSH2 0x31D JUMPI PUSH1 0x0 DUP1 REVERT JUMPDEST POP PUSH1 0xFF SLOAD PUSH2 0x265 SWAP1 PUSH1 0x1 PUSH1 0x1 PUSH1 0xA0 SHL SUB AND DUP2 JUMP JUMPDEST CALLVALUE DUP1 ISZERO PUSH2 0x33D JUMPI PUSH1 0x0 DUP1 REVERT JUMPDEST POP PUSH2 0x1ED PUSH2 0x34C CALLDATASIZE PUSH1 0x4 PUSH2 0x238F JUMP JUMPDEST PUSH2 0xD8E JUMP JUMPDEST CALLVALUE DUP1 ISZERO PUSH2 0x35D JUMPI PUSH1 0x0 DUP1 REVERT JUMPDEST POP PUSH1 0x33 SLOAD PUSH1 0xFF AND PUSH1 0x40 MLOAD SWAP1 ISZERO ISZERO DUP2 MSTORE PUSH1 0x20 ADD PUSH2 0x1C4 JUMP JUMPDEST CALLVALUE DUP1 ISZERO PUSH2 0x380 JUMPI PUSH1 0x0 DUP1 REVERT JUMPDEST POP PUSH2 0x1ED PUSH2 0x38F CALLDATASIZE PUSH1 0x4 PUSH2 0x238F JUMP JUMPDEST PUSH2 0xEA1 JUMP JUMPDEST CALLVALUE DUP1 ISZERO PUSH2 0x3A0 JUMPI PUSH1 0x0 DUP1 REVERT JUMPDEST POP PUSH2 0x1BA PUSH2 0x3AF CALLDATASIZE PUSH1 0x4 PUSH2 0x23BF JUMP JUMPDEST PUSH2 0xED5 JUMP JUMPDEST CALLVALUE DUP1 ISZERO PUSH2 0x3C0 JUMPI PUSH1 0x0 DUP1 REVERT JUMPDEST POP PUSH2 0x1ED PUSH2 0x10B5 JUMP JUMPDEST CALLVALUE DUP1 ISZERO PUSH2 0x3D5 JUMPI PUSH1 0x0 DUP1 REVERT JUMPDEST POP PUSH2 0x1BA PUSH2 0x105 SLOAD DUP2 JUMP JUMPDEST CALLVALUE DUP1 ISZERO PUSH2 0x3EC JUMPI PUSH1 0x0 DUP1 REVERT JUMPDEST POP PUSH2 0x1ED PUSH2 0x10EE JUMP JUMPDEST CALLVALUE DUP1 ISZERO PUSH2 0x401 JUMPI PUSH1 0x0 DUP1 REVERT JUMPDEST POP PUSH2 0x1BA PUSH1 0xFE SLOAD DUP2 JUMP JUMPDEST CALLVALUE DUP1 ISZERO PUSH2 0x417 JUMPI PUSH1 0x0 DUP1 REVERT JUMPDEST POP PUSH2 0x265 PUSH2 0x1125 JUMP JUMPDEST CALLVALUE DUP1 ISZERO PUSH2 0x42C JUMPI PUSH1 0x0 DUP1 REVERT JUMPDEST POP PUSH2 0x1BA PUSH2 0x43B CALLDATASIZE PUSH1 0x4 PUSH2 0x23EE JUMP JUMPDEST PUSH2 0x1134 JUMP JUMPDEST CALLVALUE DUP1 ISZERO PUSH2 0x44C JUMPI PUSH1 0x0 DUP1 REVERT JUMPDEST POP PUSH2 0x480 PUSH2 0x45B CALLDATASIZE PUSH1 0x4 PUSH2 0x23BF JUMP JUMPDEST PUSH2 0x102 PUSH1 0x20 SWAP1 DUP2 MSTORE PUSH1 0x0 SWAP3 DUP4 MSTORE PUSH1 0x40 DUP1 DUP5 KECCAK256 SWAP1 SWAP2 MSTORE SWAP1 DUP3 MSTORE SWAP1 KECCAK256 DUP1 SLOAD PUSH1 0x1 SWAP1 SWAP2 ADD SLOAD DUP3 JUMP JUMPDEST PUSH1 0x40 DUP1 MLOAD SWAP3 DUP4 MSTORE PUSH1 0x20 DUP4 ADD SWAP2 SWAP1 SWAP2 MSTORE ADD PUSH2 0x1C4 JUMP JUMPDEST CALLVALUE DUP1 ISZERO PUSH2 0x4A1 JUMPI PUSH1 0x0 DUP1 REVERT JUMPDEST POP PUSH2 0x1BA PUSH2 0x100 SLOAD DUP2 JUMP JUMPDEST CALLVALUE DUP1 ISZERO PUSH2 0x4B8 JUMPI PUSH1 0x0 DUP1 REVERT JUMPDEST POP PUSH2 0x1ED PUSH2 0x4C7 CALLDATASIZE PUSH1 0x4 PUSH2 0x2329 JUMP JUMPDEST PUSH2 0x114F JUMP JUMPDEST CALLVALUE DUP1 ISZERO PUSH2 0x4D8 JUMPI PUSH1 0x0 DUP1 REVERT JUMPDEST POP PUSH2 0x1ED PUSH2 0x4E7 CALLDATASIZE PUSH1 0x4 PUSH2 0x238F JUMP JUMPDEST PUSH2 0x100 SSTORE JUMP JUMPDEST CALLVALUE DUP1 ISZERO PUSH2 0x4F9 JUMPI PUSH1 0x0 DUP1 REVERT JUMPDEST POP PUSH2 0x1BA PUSH2 0x103 SLOAD DUP2 JUMP JUMPDEST CALLVALUE DUP1 ISZERO PUSH2 0x510 JUMPI PUSH1 0x0 DUP1 REVERT JUMPDEST POP PUSH2 0x1ED PUSH2 0x51F CALLDATASIZE PUSH1 0x4 PUSH2 0x238F JUMP JUMPDEST PUSH2 0x122D JUMP JUMPDEST CALLVALUE DUP1 ISZERO PUSH2 0x530 JUMPI PUSH1 0x0 DUP1 REVERT JUMPDEST POP PUSH2 0x1ED PUSH2 0x53F CALLDATASIZE PUSH1 0x4 PUSH2 0x23EE JUMP JUMPDEST PUSH2 0x12B5 JUMP JUMPDEST CALLVALUE DUP1 ISZERO PUSH2 0x550 JUMPI PUSH1 0x0 DUP1 REVERT JUMPDEST POP PUSH1 0xFB SLOAD PUSH2 0x265 SWAP1 PUSH1 0x1 PUSH1 0x1 PUSH1 0xA0 SHL SUB AND DUP2 JUMP JUMPDEST CALLVALUE DUP1 ISZERO PUSH2 0x570 JUMPI PUSH1 0x0 DUP1 REVERT JUMPDEST POP PUSH2 0x1ED PUSH2 0x57F CALLDATASIZE PUSH1 0x4 PUSH2 0x2252 JUMP JUMPDEST PUSH2 0x1621 JUMP JUMPDEST CALLER PUSH2 0x58D PUSH2 0x1125 JUMP JUMPDEST PUSH1 0x1 PUSH1 0x1 PUSH1 0xA0 SHL SUB AND EQ PUSH2 0x5BC JUMPI PUSH1 0x40 MLOAD PUSH3 0x461BCD PUSH1 0xE5 SHL DUP2 MSTORE PUSH1 0x4 ADD PUSH2 0x5B3 SWAP1 PUSH2 0x2676 JUMP JUMPDEST PUSH1 0x40 MLOAD DUP1 SWAP2 SUB SWAP1 REVERT JUMPDEST PUSH1 0xFC SLOAD PUSH1 0x40 MLOAD PUSH4 0x23C4C9F PUSH1 0xE6 SHL DUP2 MSTORE PUSH1 0x4 DUP2 ADD DUP4 SWAP1 MSTORE PUSH1 0x0 SWAP2 PUSH1 0x1 PUSH1 0x1 PUSH1 0xA0 SHL SUB AND SWAP1 PUSH4 0x8F1327C0 SWAP1 PUSH1 0x24 ADD PUSH1 0x0 PUSH1 0x40 MLOAD DUP1 DUP4 SUB DUP2 DUP7 DUP1 EXTCODESIZE ISZERO DUP1 ISZERO PUSH2 0x601 JUMPI PUSH1 0x0 DUP1 REVERT JUMPDEST POP GAS STATICCALL ISZERO DUP1 ISZERO PUSH2 0x615 JUMPI RETURNDATASIZE PUSH1 0x0 DUP1 RETURNDATACOPY RETURNDATASIZE PUSH1 0x0 REVERT JUMPDEST POP POP POP POP PUSH1 0x40 MLOAD RETURNDATASIZE PUSH1 0x0 DUP3 RETURNDATACOPY PUSH1 0x1F RETURNDATASIZE SWAP1 DUP2 ADD PUSH1 0x1F NOT AND DUP3 ADD PUSH1 0x40 MSTORE PUSH2 0x63D SWAP2 SWAP1 DUP2 ADD SWAP1 PUSH2 0x240F JUMP JUMPDEST POP POP POP POP POP POP SWAP5 POP POP POP POP POP DUP1 PUSH2 0x6A7 JUMPI PUSH1 0x40 MLOAD PUSH3 0x461BCD PUSH1 0xE5 SHL DUP2 MSTORE PUSH1 0x20 PUSH1 0x4 DUP3 ADD MSTORE PUSH1 0x28 PUSH1 0x24 DUP3 ADD MSTORE PUSH32 0x526F756E6420776173206E6F74207375636365737366756C206F72206E6F7420 PUSH1 0x44 DUP3 ADD MSTORE PUSH8 0x636F6D706C657465 PUSH1 0xC0 SHL PUSH1 0x64 DUP3 ADD MSTORE PUSH1 0x84 ADD PUSH2 0x5B3 JUMP JUMPDEST PUSH1 0xFC SLOAD PUSH1 0x40 DUP1 MLOAD PUSH4 0xECCE301 PUSH1 0xE3 SHL DUP2 MSTORE SWAP1 MLOAD PUSH1 0x0 SWAP3 PUSH1 0x1 PUSH1 0x1 PUSH1 0xA0 SHL SUB AND SWAP2 PUSH4 0x76671808 SWAP2 PUSH1 0x4 DUP1 DUP4 ADD SWAP3 PUSH1 0x20 SWAP3 SWAP2 SWAP1 DUP3 SWAP1 SUB ADD DUP2 DUP8 DUP8 DUP1 EXTCODESIZE ISZERO DUP1 ISZERO PUSH2 0x6ED JUMPI PUSH1 0x0 DUP1 REVERT JUMPDEST POP GAS CALL ISZERO DUP1 ISZERO PUSH2 0x701 JUMPI RETURNDATASIZE PUSH1 0x0 DUP1 RETURNDATACOPY RETURNDATASIZE PUSH1 0x0 REVERT JUMPDEST POP POP POP POP PUSH1 0x40 MLOAD RETURNDATASIZE PUSH1 0x1F NOT PUSH1 0x1F DUP3 ADD AND DUP3 ADD DUP1 PUSH1 0x40 MSTORE POP DUP2 ADD SWAP1 PUSH2 0x725 SWAP2 SWAP1 PUSH2 0x23A7 JUMP JUMPDEST SWAP1 POP DUP3 DUP2 EQ PUSH2 0x815 JUMPI PUSH1 0xFC SLOAD PUSH1 0x40 MLOAD PUSH4 0x23C4C9F PUSH1 0xE6 SHL DUP2 MSTORE PUSH1 0x4 DUP2 ADD DUP4 SWAP1 MSTORE PUSH1 0x0 SWAP2 PUSH1 0x1 PUSH1 0x1 PUSH1 0xA0 SHL SUB AND SWAP1 PUSH4 0x8F1327C0 SWAP1 PUSH1 0x24 ADD PUSH1 0x0 PUSH1 0x40 MLOAD DUP1 DUP4 SUB DUP2 DUP7 DUP1 EXTCODESIZE ISZERO DUP1 ISZERO PUSH2 0x773 JUMPI PUSH1 0x0 DUP1 REVERT JUMPDEST POP GAS STATICCALL ISZERO DUP1 ISZERO PUSH2 0x787 JUMPI RETURNDATASIZE PUSH1 0x0 DUP1 RETURNDATACOPY RETURNDATASIZE PUSH1 0x0 REVERT JUMPDEST POP POP POP POP PUSH1 0x40 MLOAD RETURNDATASIZE PUSH1 0x0 DUP3 RETURNDATACOPY PUSH1 0x1F RETURNDATASIZE SWAP1 DUP2 ADD PUSH1 0x1F NOT AND DUP3 ADD PUSH1 0x40 MSTORE PUSH2 0x7AF SWAP2 SWAP1 DUP2 ADD SWAP1 PUSH2 0x240F JUMP JUMPDEST POP POP POP POP POP POP SWAP5 POP POP POP POP POP DUP1 ISZERO PUSH2 0x813 JUMPI PUSH1 0x40 MLOAD PUSH3 0x461BCD PUSH1 0xE5 SHL DUP2 MSTORE PUSH1 0x20 PUSH1 0x4 DUP3 ADD MSTORE PUSH1 0x21 PUSH1 0x24 DUP3 ADD MSTORE PUSH32 0x43757272656E7420526F756E6420697320616C726561647920636F6D706C6574 PUSH1 0x44 DUP3 ADD MSTORE PUSH1 0x65 PUSH1 0xF8 SHL PUSH1 0x64 DUP3 ADD MSTORE PUSH1 0x84 ADD PUSH2 0x5B3 JUMP JUMPDEST POP JUMPDEST PUSH2 0x101 SLOAD ISZERO PUSH2 0x91C JUMPI PUSH2 0x101 SLOAD PUSH1 0x0 SWAP1 PUSH2 0x831 SWAP1 PUSH1 0x1 SWAP1 PUSH2 0x2755 JUMP JUMPDEST SWAP1 POP DUP4 PUSH2 0x101 DUP3 DUP2 SLOAD DUP2 LT PUSH2 0x856 JUMPI PUSH4 0x4E487B71 PUSH1 0xE0 SHL PUSH1 0x0 MSTORE PUSH1 0x32 PUSH1 0x4 MSTORE PUSH1 0x24 PUSH1 0x0 REVERT JUMPDEST SWAP1 PUSH1 0x0 MSTORE PUSH1 0x20 PUSH1 0x0 KECCAK256 SWAP1 PUSH1 0x4 MUL ADD PUSH1 0x3 ADD SLOAD LT PUSH2 0x8CD JUMPI PUSH1 0x40 MLOAD PUSH3 0x461BCD PUSH1 0xE5 SHL DUP2 MSTORE PUSH1 0x20 PUSH1 0x4 DUP3 ADD MSTORE PUSH1 0x2F PUSH1 0x24 DUP3 ADD MSTORE PUSH32 0x4E65772065706F63682063616E6E6F74206265206C657373206F722065717561 PUSH1 0x44 DUP3 ADD MSTORE PUSH15 0xD840E8DE40E0C2E6E840CAE0DEC6D PUSH1 0x8B SHL PUSH1 0x64 DUP3 ADD MSTORE PUSH1 0x84 ADD PUSH2 0x5B3 JUMP JUMPDEST PUSH2 0x8D6 DUP2 PUSH2 0xB85 JUMP JUMPDEST PUSH2 0x101 DUP1 SLOAD PUSH1 0x0 SWAP2 SWAP1 PUSH2 0x8EB SWAP1 PUSH1 0x1 SWAP1 PUSH2 0x2755 JUMP JUMPDEST DUP2 SLOAD DUP2 LT PUSH2 0x909 JUMPI PUSH4 0x4E487B71 PUSH1 0xE0 SHL PUSH1 0x0 MSTORE PUSH1 0x32 PUSH1 0x4 MSTORE PUSH1 0x24 PUSH1 0x0 REVERT JUMPDEST PUSH1 0x0 SWAP2 DUP3 MSTORE PUSH1 0x20 SWAP1 SWAP2 KECCAK256 PUSH1 0x4 SWAP1 SWAP2 MUL ADD SSTORE POP JUMPDEST PUSH2 0x929 PUSH2 0x103 SLOAD DUP5 PUSH2 0x16BE JUMP JUMPDEST POP POP POP JUMP JUMPDEST PUSH2 0x101 DUP2 DUP2 SLOAD DUP2 LT PUSH2 0x93F JUMPI PUSH1 0x0 DUP1 REVERT JUMPDEST PUSH1 0x0 SWAP2 DUP3 MSTORE PUSH1 0x20 SWAP1 SWAP2 KECCAK256 PUSH1 0x4 SWAP1 SWAP2 MUL ADD DUP1 SLOAD PUSH1 0x1 DUP3 ADD SLOAD PUSH1 0x2 DUP4 ADD SLOAD PUSH1 0x3 SWAP1 SWAP4 ADD SLOAD SWAP2 SWAP4 POP SWAP2 SWAP1 DUP5 JUMP JUMPDEST PUSH2 0x972 DUP2 PUSH2 0x17D5 JUMP JUMPDEST PUSH2 0x98D DUP2 PUSH1 0x40 MLOAD DUP1 PUSH1 0x20 ADD PUSH1 0x40 MSTORE DUP1 PUSH1 0x0 DUP2 MSTORE POP PUSH1 0x0 PUSH2 0x1804 JUMP JUMPDEST POP JUMP JUMPDEST CALLER PUSH2 0x999 PUSH2 0x1125 JUMP JUMPDEST PUSH1 0x1 PUSH1 0x1 PUSH1 0xA0 SHL SUB AND EQ PUSH2 0x9BF JUMPI PUSH1 0x40 MLOAD PUSH3 0x461BCD PUSH1 0xE5 SHL DUP2 MSTORE PUSH1 0x4 ADD PUSH2 0x5B3 SWAP1 PUSH2 0x2676 JUMP JUMPDEST PUSH2 0x9C7 PUSH2 0x194B JUMP JUMPDEST JUMP JUMPDEST PUSH1 0x33 SLOAD PUSH1 0xFF AND ISZERO PUSH2 0x9EC JUMPI PUSH1 0x40 MLOAD PUSH3 0x461BCD PUSH1 0xE5 SHL DUP2 MSTORE PUSH1 0x4 ADD PUSH2 0x5B3 SWAP1 PUSH2 0x25FE JUMP JUMPDEST PUSH1 0x0 PUSH2 0x101 DUP4 DUP2 SLOAD DUP2 LT PUSH2 0xA10 JUMPI PUSH4 0x4E487B71 PUSH1 0xE0 SHL PUSH1 0x0 MSTORE PUSH1 0x32 PUSH1 0x4 MSTORE PUSH1 0x24 PUSH1 0x0 REVERT JUMPDEST PUSH1 0x0 SWAP2 DUP3 MSTORE PUSH1 0x20 DUP1 DUP4 KECCAK256 DUP7 DUP5 MSTORE PUSH2 0x102 DUP3 MSTORE PUSH1 0x40 DUP1 DUP6 KECCAK256 CALLER DUP7 MSTORE SWAP1 SWAP3 MSTORE SWAP3 KECCAK256 DUP1 SLOAD PUSH1 0x4 SWAP1 SWAP3 MUL SWAP1 SWAP3 ADD SWAP3 POP DUP4 GT ISZERO PUSH2 0xA7F JUMPI PUSH1 0x40 MLOAD PUSH3 0x461BCD PUSH1 0xE5 SHL DUP2 MSTORE PUSH1 0x20 PUSH1 0x4 DUP3 ADD MSTORE PUSH1 0x12 PUSH1 0x24 DUP3 ADD MSTORE PUSH18 0x1DDA5D1A191C985DCE881B9BDD0819DBDBD9 PUSH1 0x72 SHL PUSH1 0x44 DUP3 ADD MSTORE PUSH1 0x64 ADD PUSH2 0x5B3 JUMP JUMPDEST PUSH2 0xA88 DUP5 PUSH2 0xB85 JUMP JUMPDEST PUSH1 0x0 PUSH2 0xAC9 DUP3 PUSH1 0x1 ADD SLOAD PUSH2 0xAC3 PUSH9 0x327CB2734119D3B7A9 PUSH1 0x1E SHL PUSH2 0xABD DUP8 PUSH1 0x2 ADD SLOAD DUP8 PUSH1 0x0 ADD SLOAD PUSH2 0x19B1 SWAP1 SWAP2 SWAP1 PUSH4 0xFFFFFFFF AND JUMP JUMPDEST SWAP1 PUSH2 0x19BD JUMP JUMPDEST SWAP1 PUSH2 0x19C9 JUMP JUMPDEST SWAP1 POP DUP1 ISZERO PUSH2 0xADB JUMPI PUSH2 0xADB CALLER DUP3 PUSH2 0x19D5 JUMP JUMPDEST DUP4 ISZERO PUSH2 0xB06 JUMPI DUP2 SLOAD PUSH2 0xAED SWAP1 DUP6 PUSH2 0x19C9 JUMP JUMPDEST DUP3 SSTORE PUSH1 0xFB SLOAD PUSH2 0xB06 SWAP1 PUSH1 0x1 PUSH1 0x1 PUSH1 0xA0 SHL SUB AND CALLER DUP7 PUSH2 0x1A6D JUMP JUMPDEST PUSH1 0x2 DUP4 ADD SLOAD DUP3 SLOAD PUSH2 0xB28 SWAP2 PUSH9 0x327CB2734119D3B7A9 PUSH1 0x1E SHL SWAP2 PUSH2 0xABD SWAP2 PUSH2 0x19B1 JUMP JUMPDEST PUSH1 0x1 DUP4 ADD SSTORE PUSH1 0x40 MLOAD DUP5 DUP2 MSTORE DUP6 SWAP1 CALLER SWAP1 PUSH32 0xF279E6A1F5E320CCA91135676D9CB6E44CA8A08C0B88342BCDB1144F6511B568 SWAP1 PUSH1 0x20 ADD JUMPDEST PUSH1 0x40 MLOAD DUP1 SWAP2 SUB SWAP1 LOG3 POP POP POP POP POP JUMP JUMPDEST PUSH2 0xB75 DUP3 PUSH2 0x17D5 JUMP JUMPDEST PUSH2 0xB81 DUP3 DUP3 PUSH1 0x1 PUSH2 0x1804 JUMP JUMPDEST POP POP JUMP JUMPDEST PUSH1 0x0 PUSH2 0x101 DUP3 DUP2 SLOAD DUP2 LT PUSH2 0xBA9 JUMPI PUSH4 0x4E487B71 PUSH1 0xE0 SHL PUSH1 0x0 MSTORE PUSH1 0x32 PUSH1 0x4 MSTORE PUSH1 0x24 PUSH1 0x0 REVERT JUMPDEST SWAP1 PUSH1 0x0 MSTORE PUSH1 0x20 PUSH1 0x0 KECCAK256 SWAP1 PUSH1 0x4 MUL ADD SWAP1 POP DUP1 PUSH1 0x1 ADD SLOAD NUMBER GT PUSH2 0xBCA JUMPI POP PUSH2 0x98D JUMP JUMPDEST PUSH1 0xFB SLOAD PUSH1 0x40 MLOAD PUSH4 0x70A08231 PUSH1 0xE0 SHL DUP2 MSTORE PUSH1 0x0 SWAP2 PUSH1 0x1 PUSH1 0x1 PUSH1 0xA0 SHL SUB AND SWAP1 PUSH4 0x70A08231 SWAP1 PUSH2 0xBFB SWAP1 ADDRESS SWAP1 PUSH1 0x4 ADD PUSH2 0x2570 JUMP JUMPDEST PUSH1 0x20 PUSH1 0x40 MLOAD DUP1 DUP4 SUB DUP2 DUP7 DUP1 EXTCODESIZE ISZERO DUP1 ISZERO PUSH2 0xC13 JUMPI PUSH1 0x0 DUP1 REVERT JUMPDEST POP GAS STATICCALL ISZERO DUP1 ISZERO PUSH2 0xC27 JUMPI RETURNDATASIZE PUSH1 0x0 DUP1 RETURNDATACOPY RETURNDATASIZE PUSH1 0x0 REVERT JUMPDEST POP POP POP POP PUSH1 0x40 MLOAD RETURNDATASIZE PUSH1 0x1F NOT PUSH1 0x1F DUP3 ADD AND DUP3 ADD DUP1 PUSH1 0x40 MSTORE POP DUP2 ADD SWAP1 PUSH2 0xC4B SWAP2 SWAP1 PUSH2 0x23A7 JUMP JUMPDEST SWAP1 POP DUP1 PUSH2 0xC5F JUMPI POP NUMBER PUSH1 0x1 SWAP1 SWAP2 ADD SSTORE PUSH2 0x98D JUMP JUMPDEST PUSH1 0x0 PUSH2 0xC6F DUP4 PUSH1 0x1 ADD SLOAD NUMBER PUSH2 0x1134 JUMP JUMPDEST SWAP1 POP PUSH1 0x0 PUSH2 0xC9D PUSH2 0x103 SLOAD PUSH2 0xABD DUP7 PUSH1 0x0 ADD SLOAD PUSH2 0xC97 PUSH1 0xFD SLOAD DUP8 PUSH2 0x19B1 SWAP1 SWAP2 SWAP1 PUSH4 0xFFFFFFFF AND JUMP JUMPDEST SWAP1 PUSH2 0x19B1 JUMP JUMPDEST PUSH2 0x105 SLOAD PUSH1 0xFB SLOAD PUSH1 0xFF SLOAD PUSH1 0x40 MLOAD PUSH4 0x70A08231 PUSH1 0xE0 SHL DUP2 MSTORE SWAP4 SWAP5 POP PUSH1 0x0 SWAP4 PUSH2 0xD31 SWAP4 SWAP3 PUSH1 0x1 PUSH1 0x1 PUSH1 0xA0 SHL SUB SWAP1 DUP2 AND SWAP3 PUSH4 0x70A08231 SWAP3 PUSH2 0xCE1 SWAP3 SWAP1 SWAP2 AND SWAP1 PUSH1 0x4 ADD PUSH2 0x2570 JUMP JUMPDEST PUSH1 0x20 PUSH1 0x40 MLOAD DUP1 DUP4 SUB DUP2 DUP7 DUP1 EXTCODESIZE ISZERO DUP1 ISZERO PUSH2 0xCF9 JUMPI PUSH1 0x0 DUP1 REVERT JUMPDEST POP GAS STATICCALL ISZERO DUP1 ISZERO PUSH2 0xD0D JUMPI RETURNDATASIZE PUSH1 0x0 DUP1 RETURNDATACOPY RETURNDATASIZE PUSH1 0x0 REVERT JUMPDEST POP POP POP POP PUSH1 0x40 MLOAD RETURNDATASIZE PUSH1 0x1F NOT PUSH1 0x1F DUP3 ADD AND DUP3 ADD DUP1 PUSH1 0x40 MSTORE POP DUP2 ADD SWAP1 PUSH2 0xAC3 SWAP2 SWAP1 PUSH2 0x23A7 JUMP JUMPDEST SWAP1 POP DUP1 DUP3 LT PUSH2 0xD3E JUMPI DUP1 SWAP2 POP JUMPDEST PUSH2 0xD66 PUSH2 0xD5B DUP6 PUSH2 0xABD DUP6 PUSH9 0x327CB2734119D3B7A9 PUSH1 0x1E SHL PUSH2 0x19B1 JUMP JUMPDEST PUSH1 0x2 DUP8 ADD SLOAD SWAP1 PUSH2 0x1AC3 JUMP JUMPDEST PUSH1 0x2 DUP7 ADD SSTORE PUSH2 0x105 SLOAD PUSH2 0xD79 SWAP1 DUP4 PUSH2 0x1AC3 JUMP JUMPDEST PUSH2 0x105 SSTORE POP POP NUMBER PUSH1 0x1 SWAP1 SWAP4 ADD SWAP3 SWAP1 SWAP3 SSTORE POP POP POP JUMP JUMPDEST PUSH1 0x33 SLOAD PUSH1 0xFF AND PUSH2 0xDB0 JUMPI PUSH1 0x40 MLOAD PUSH3 0x461BCD PUSH1 0xE5 SHL DUP2 MSTORE PUSH1 0x4 ADD PUSH2 0x5B3 SWAP1 PUSH2 0x25D0 JUMP JUMPDEST PUSH1 0x0 PUSH2 0x101 DUP3 DUP2 SLOAD DUP2 LT PUSH2 0xDD4 JUMPI PUSH4 0x4E487B71 PUSH1 0xE0 SHL PUSH1 0x0 MSTORE PUSH1 0x32 PUSH1 0x4 MSTORE PUSH1 0x24 PUSH1 0x0 REVERT JUMPDEST PUSH1 0x0 SWAP2 DUP3 MSTORE PUSH1 0x20 DUP1 DUP4 KECCAK256 DUP6 DUP5 MSTORE PUSH2 0x102 DUP3 MSTORE PUSH1 0x40 DUP1 DUP6 KECCAK256 CALLER DUP7 MSTORE SWAP1 SWAP3 MSTORE SWAP1 DUP4 KECCAK256 DUP1 SLOAD DUP5 DUP3 SSTORE PUSH1 0x1 DUP3 ADD DUP6 SWAP1 SSTORE PUSH1 0x2 PUSH1 0x4 SWAP1 SWAP5 MUL SWAP1 SWAP3 ADD SWAP3 DUP4 ADD SLOAD SWAP3 SWAP5 POP SWAP3 SWAP1 SWAP2 PUSH2 0xE37 SWAP1 DUP3 SWAP1 PUSH2 0xAC3 SWAP1 PUSH9 0x327CB2734119D3B7A9 PUSH1 0x1E SHL SWAP1 PUSH2 0xABD SWAP1 DUP8 SWAP1 PUSH2 0x19B1 JUMP JUMPDEST SWAP1 POP PUSH2 0x105 SLOAD DUP2 GT PUSH2 0xE56 JUMPI PUSH2 0x105 SLOAD PUSH2 0xE51 SWAP1 DUP3 PUSH2 0x19C9 JUMP JUMPDEST PUSH2 0x105 SSTORE JUMPDEST PUSH1 0xFB SLOAD PUSH2 0xE6D SWAP1 PUSH1 0x1 PUSH1 0x1 PUSH1 0xA0 SHL SUB AND CALLER DUP5 PUSH2 0x1A6D JUMP JUMPDEST PUSH1 0x40 MLOAD DUP3 DUP2 MSTORE DUP6 SWAP1 CALLER SWAP1 PUSH32 0xBB757047C2B5F3974FE26B7C10F732E7BCE710B0952A71082702781E62AE0595 SWAP1 PUSH1 0x20 ADD PUSH2 0xB5D JUMP JUMPDEST CALLER PUSH2 0xEAA PUSH2 0x1125 JUMP JUMPDEST PUSH1 0x1 PUSH1 0x1 PUSH1 0xA0 SHL SUB AND EQ PUSH2 0xED0 JUMPI PUSH1 0x40 MLOAD PUSH3 0x461BCD PUSH1 0xE5 SHL DUP2 MSTORE PUSH1 0x4 ADD PUSH2 0x5B3 SWAP1 PUSH2 0x2676 JUMP JUMPDEST PUSH1 0xFE SSTORE JUMP JUMPDEST PUSH1 0x0 DUP1 PUSH2 0x101 DUP5 DUP2 SLOAD DUP2 LT PUSH2 0xEFA JUMPI PUSH4 0x4E487B71 PUSH1 0xE0 SHL PUSH1 0x0 MSTORE PUSH1 0x32 PUSH1 0x4 MSTORE PUSH1 0x24 PUSH1 0x0 REVERT JUMPDEST PUSH1 0x0 SWAP2 DUP3 MSTORE PUSH1 0x20 DUP1 DUP4 KECCAK256 DUP8 DUP5 MSTORE PUSH2 0x102 DUP3 MSTORE PUSH1 0x40 DUP1 DUP6 KECCAK256 PUSH1 0x1 PUSH1 0x1 PUSH1 0xA0 SHL SUB DUP10 DUP2 AND DUP8 MSTORE SWAP4 MSTORE DUP1 DUP6 KECCAK256 PUSH1 0x4 SWAP5 DUP6 MUL SWAP1 SWAP3 ADD PUSH1 0x2 DUP2 ADD SLOAD PUSH1 0xFB SLOAD SWAP3 MLOAD PUSH4 0x70A08231 PUSH1 0xE0 SHL DUP2 MSTORE SWAP2 SWAP8 POP SWAP3 SWAP6 SWAP3 SWAP5 SWAP3 SWAP4 SWAP2 SWAP1 SWAP2 AND SWAP2 PUSH4 0x70A08231 SWAP2 PUSH2 0xF5F SWAP2 ADDRESS SWAP2 ADD PUSH2 0x2570 JUMP JUMPDEST PUSH1 0x20 PUSH1 0x40 MLOAD DUP1 DUP4 SUB DUP2 DUP7 DUP1 EXTCODESIZE ISZERO DUP1 ISZERO PUSH2 0xF77 JUMPI PUSH1 0x0 DUP1 REVERT JUMPDEST POP GAS STATICCALL ISZERO DUP1 ISZERO PUSH2 0xF8B JUMPI RETURNDATASIZE PUSH1 0x0 DUP1 RETURNDATACOPY RETURNDATASIZE PUSH1 0x0 REVERT JUMPDEST POP POP POP POP PUSH1 0x40 MLOAD RETURNDATASIZE PUSH1 0x1F NOT PUSH1 0x1F DUP3 ADD AND DUP3 ADD DUP1 PUSH1 0x40 MSTORE POP DUP2 ADD SWAP1 PUSH2 0xFAF SWAP2 SWAP1 PUSH2 0x23A7 JUMP JUMPDEST SWAP1 POP DUP4 PUSH1 0x1 ADD SLOAD NUMBER GT DUP1 ISZERO PUSH2 0xFC3 JUMPI POP DUP1 ISZERO ISZERO JUMPDEST ISZERO PUSH2 0x107B JUMPI PUSH1 0x0 PUSH2 0xFD8 DUP6 PUSH1 0x1 ADD SLOAD NUMBER PUSH2 0x1134 JUMP JUMPDEST SWAP1 POP PUSH1 0x0 PUSH2 0x1000 PUSH2 0x103 SLOAD PUSH2 0xABD DUP9 PUSH1 0x0 ADD SLOAD PUSH2 0xC97 PUSH1 0xFD SLOAD DUP8 PUSH2 0x19B1 SWAP1 SWAP2 SWAP1 PUSH4 0xFFFFFFFF AND JUMP JUMPDEST PUSH2 0x105 SLOAD PUSH1 0xFB SLOAD PUSH1 0xFF SLOAD PUSH1 0x40 MLOAD PUSH4 0x70A08231 PUSH1 0xE0 SHL DUP2 MSTORE SWAP4 SWAP5 POP PUSH1 0x0 SWAP4 PUSH2 0x1044 SWAP4 SWAP3 PUSH1 0x1 PUSH1 0x1 PUSH1 0xA0 SHL SUB SWAP1 DUP2 AND SWAP3 PUSH4 0x70A08231 SWAP3 PUSH2 0xCE1 SWAP3 SWAP1 SWAP2 AND SWAP1 PUSH1 0x4 ADD PUSH2 0x2570 JUMP JUMPDEST SWAP1 POP DUP1 DUP3 LT PUSH2 0x1051 JUMPI DUP1 SWAP2 POP JUMPDEST PUSH2 0x1075 PUSH2 0x106E DUP6 PUSH2 0xABD DUP6 PUSH9 0x327CB2734119D3B7A9 PUSH1 0x1E SHL PUSH2 0x19B1 JUMP JUMPDEST DUP7 SWAP1 PUSH2 0x1AC3 JUMP JUMPDEST SWAP5 POP POP POP POP JUMPDEST PUSH2 0x10AA DUP4 PUSH1 0x1 ADD SLOAD PUSH2 0xAC3 PUSH9 0x327CB2734119D3B7A9 PUSH1 0x1E SHL PUSH2 0xABD DUP7 DUP9 PUSH1 0x0 ADD SLOAD PUSH2 0x19B1 SWAP1 SWAP2 SWAP1 PUSH4 0xFFFFFFFF AND JUMP JUMPDEST SWAP8 SWAP7 POP POP POP POP POP POP POP JUMP JUMPDEST CALLER PUSH2 0x10BE PUSH2 0x1125 JUMP JUMPDEST PUSH1 0x1 PUSH1 0x1 PUSH1 0xA0 SHL SUB AND EQ PUSH2 0x10E4 JUMPI PUSH1 0x40 MLOAD PUSH3 0x461BCD PUSH1 0xE5 SHL DUP2 MSTORE PUSH1 0x4 ADD PUSH2 0x5B3 SWAP1 PUSH2 0x2676 JUMP JUMPDEST PUSH2 0x9C7 PUSH1 0x0 PUSH2 0x1ACF JUMP JUMPDEST CALLER PUSH2 0x10F7 PUSH2 0x1125 JUMP JUMPDEST PUSH1 0x1 PUSH1 0x1 PUSH1 0xA0 SHL SUB AND EQ PUSH2 0x111D JUMPI PUSH1 0x40 MLOAD PUSH3 0x461BCD PUSH1 0xE5 SHL DUP2 MSTORE PUSH1 0x4 ADD PUSH2 0x5B3 SWAP1 PUSH2 0x2676 JUMP JUMPDEST PUSH2 0x9C7 PUSH2 0x1B21 JUMP JUMPDEST PUSH1 0xC9 SLOAD PUSH1 0x1 PUSH1 0x1 PUSH1 0xA0 SHL SUB AND SWAP1 JUMP JUMPDEST PUSH1 0xFE SLOAD PUSH1 0x0 SWAP1 PUSH2 0x1148 SWAP1 PUSH2 0xC97 DUP5 DUP7 PUSH2 0x19C9 JUMP JUMPDEST SWAP4 SWAP3 POP POP POP JUMP JUMPDEST PUSH1 0x0 SLOAD PUSH2 0x100 SWAP1 DIV PUSH1 0xFF AND DUP1 PUSH2 0x1168 JUMPI POP PUSH1 0x0 SLOAD PUSH1 0xFF AND ISZERO JUMPDEST PUSH2 0x1184 JUMPI PUSH1 0x40 MLOAD PUSH3 0x461BCD PUSH1 0xE5 SHL DUP2 MSTORE PUSH1 0x4 ADD PUSH2 0x5B3 SWAP1 PUSH2 0x2628 JUMP JUMPDEST PUSH1 0x0 SLOAD PUSH2 0x100 SWAP1 DIV PUSH1 0xFF AND ISZERO DUP1 ISZERO PUSH2 0x11AF JUMPI PUSH1 0x0 DUP1 SLOAD PUSH1 0xFF NOT PUSH2 0xFF00 NOT SWAP1 SWAP2 AND PUSH2 0x100 OR AND PUSH1 0x1 OR SWAP1 SSTORE JUMPDEST PUSH2 0x11B7 PUSH2 0x1B79 JUMP JUMPDEST PUSH1 0xFB DUP1 SLOAD PUSH1 0x1 PUSH1 0x1 PUSH1 0xA0 SHL SUB DUP1 DUP11 AND PUSH1 0x1 PUSH1 0x1 PUSH1 0xA0 SHL SUB NOT SWAP3 DUP4 AND OR SWAP1 SWAP3 SSTORE PUSH1 0xFD DUP9 SWAP1 SSTORE PUSH2 0x104 DUP8 SWAP1 SSTORE PUSH1 0xFF DUP1 SLOAD DUP7 DUP5 AND SWAP1 DUP4 AND OR SWAP1 SSTORE PUSH1 0xFC DUP1 SLOAD SWAP3 DUP6 AND SWAP3 SWAP1 SWAP2 AND SWAP2 SWAP1 SWAP2 OR SWAP1 SSTORE PUSH2 0x100 DUP5 SWAP1 SSTORE PUSH3 0xF4240 PUSH1 0xFE SSTORE PUSH1 0xC8 PUSH2 0x103 SSTORE DUP1 ISZERO PUSH2 0x1224 JUMPI PUSH1 0x0 DUP1 SLOAD PUSH2 0xFF00 NOT AND SWAP1 SSTORE JUMPDEST POP POP POP POP POP POP POP JUMP JUMPDEST CALLER PUSH2 0x1236 PUSH2 0x1125 JUMP JUMPDEST PUSH1 0x1 PUSH1 0x1 PUSH1 0xA0 SHL SUB AND EQ PUSH2 0x125C JUMPI PUSH1 0x40 MLOAD PUSH3 0x461BCD PUSH1 0xE5 SHL DUP2 MSTORE PUSH1 0x4 ADD PUSH2 0x5B3 SWAP1 PUSH2 0x2676 JUMP JUMPDEST PUSH2 0x101 SLOAD PUSH1 0x0 SWAP1 PUSH2 0x126F SWAP1 PUSH1 0x1 SWAP1 PUSH2 0x2755 JUMP JUMPDEST SWAP1 POP PUSH2 0x127A DUP2 PUSH2 0xB85 JUMP JUMPDEST DUP2 PUSH2 0x101 DUP3 DUP2 SLOAD DUP2 LT PUSH2 0x129D JUMPI PUSH4 0x4E487B71 PUSH1 0xE0 SHL PUSH1 0x0 MSTORE PUSH1 0x32 PUSH1 0x4 MSTORE PUSH1 0x24 PUSH1 0x0 REVERT JUMPDEST PUSH1 0x0 SWAP2 DUP3 MSTORE PUSH1 0x20 SWAP1 SWAP2 KECCAK256 PUSH1 0x4 SWAP1 SWAP2 MUL ADD SSTORE POP PUSH2 0x103 SSTORE JUMP JUMPDEST PUSH1 0x33 SLOAD PUSH1 0xFF AND ISZERO PUSH2 0x12D8 JUMPI PUSH1 0x40 MLOAD PUSH3 0x461BCD PUSH1 0xE5 SHL DUP2 MSTORE PUSH1 0x4 ADD PUSH2 0x5B3 SWAP1 PUSH2 0x25FE JUMP JUMPDEST PUSH1 0x0 PUSH2 0x101 DUP4 DUP2 SLOAD DUP2 LT PUSH2 0x12FC JUMPI PUSH4 0x4E487B71 PUSH1 0xE0 SHL PUSH1 0x0 MSTORE PUSH1 0x32 PUSH1 0x4 MSTORE PUSH1 0x24 PUSH1 0x0 REVERT JUMPDEST PUSH1 0x0 SWAP2 DUP3 MSTORE PUSH1 0x20 SWAP2 DUP3 SWAP1 KECCAK256 PUSH1 0x40 DUP1 MLOAD PUSH1 0x80 DUP2 ADD DUP3 MSTORE PUSH1 0x4 SWAP4 DUP5 MUL SWAP1 SWAP3 ADD DUP1 SLOAD DUP4 MSTORE PUSH1 0x1 DUP2 ADD SLOAD SWAP5 DUP4 ADD SWAP5 SWAP1 SWAP5 MSTORE PUSH1 0x2 DUP5 ADD SLOAD DUP3 DUP3 ADD MSTORE PUSH1 0x3 SWAP1 SWAP4 ADD SLOAD PUSH1 0x60 DUP3 ADD DUP2 SWAP1 MSTORE PUSH1 0xFC SLOAD SWAP4 MLOAD PUSH4 0xA90B027 PUSH1 0xE1 SHL DUP2 MSTORE SWAP2 SWAP5 POP PUSH1 0x1 PUSH1 0x1 PUSH1 0xA0 SHL SUB SWAP1 SWAP4 AND SWAP3 PUSH4 0x1521604E SWAP3 PUSH2 0x1370 SWAP3 CALLER SWAP3 SWAP2 ADD PUSH2 0x2584 JUMP JUMPDEST PUSH1 0x20 PUSH1 0x40 MLOAD DUP1 DUP4 SUB DUP2 DUP7 DUP1 EXTCODESIZE ISZERO DUP1 ISZERO PUSH2 0x1388 JUMPI PUSH1 0x0 DUP1 REVERT JUMPDEST POP GAS STATICCALL ISZERO DUP1 ISZERO PUSH2 0x139C JUMPI RETURNDATASIZE PUSH1 0x0 DUP1 RETURNDATACOPY RETURNDATASIZE PUSH1 0x0 REVERT JUMPDEST POP POP POP POP PUSH1 0x40 MLOAD RETURNDATASIZE PUSH1 0x1F NOT PUSH1 0x1F DUP3 ADD AND DUP3 ADD DUP1 PUSH1 0x40 MSTORE POP DUP2 ADD SWAP1 PUSH2 0x13C0 SWAP2 SWAP1 PUSH2 0x230F JUMP JUMPDEST PUSH2 0x1416 JUMPI PUSH1 0x40 MLOAD PUSH3 0x461BCD PUSH1 0xE5 SHL DUP2 MSTORE PUSH1 0x20 PUSH1 0x4 DUP3 ADD MSTORE PUSH1 0x21 PUSH1 0x24 DUP3 ADD MSTORE PUSH32 0x446964206E6F742077696E20746869732050726564696374696F6E20726F756E PUSH1 0x44 DUP3 ADD MSTORE PUSH1 0x19 PUSH1 0xFA SHL PUSH1 0x64 DUP3 ADD MSTORE PUSH1 0x84 ADD PUSH2 0x5B3 JUMP JUMPDEST PUSH1 0x0 DUP4 DUP2 MSTORE PUSH2 0x102 PUSH1 0x20 SWAP1 DUP2 MSTORE PUSH1 0x40 DUP1 DUP4 KECCAK256 CALLER DUP5 MSTORE SWAP1 SWAP2 MSTORE SWAP1 KECCAK256 PUSH2 0x1439 DUP5 PUSH2 0xB85 JUMP JUMPDEST DUP1 SLOAD ISZERO PUSH2 0x1489 JUMPI PUSH1 0x0 PUSH2 0x1475 DUP3 PUSH1 0x1 ADD SLOAD PUSH2 0xAC3 PUSH9 0x327CB2734119D3B7A9 PUSH1 0x1E SHL PUSH2 0xABD DUP8 PUSH1 0x40 ADD MLOAD DUP8 PUSH1 0x0 ADD SLOAD PUSH2 0x19B1 SWAP1 SWAP2 SWAP1 PUSH4 0xFFFFFFFF AND JUMP JUMPDEST SWAP1 POP DUP1 ISZERO PUSH2 0x1487 JUMPI PUSH2 0x1487 CALLER DUP3 PUSH2 0x19D5 JUMP JUMPDEST POP JUMPDEST DUP3 ISZERO PUSH2 0x15BD JUMPI PUSH1 0xFB SLOAD PUSH1 0x40 MLOAD PUSH4 0x70A08231 PUSH1 0xE0 SHL DUP2 MSTORE PUSH1 0x0 SWAP2 PUSH1 0x1 PUSH1 0x1 PUSH1 0xA0 SHL SUB AND SWAP1 PUSH4 0x70A08231 SWAP1 PUSH2 0x14C0 SWAP1 ADDRESS SWAP1 PUSH1 0x4 ADD PUSH2 0x2570 JUMP JUMPDEST PUSH1 0x20 PUSH1 0x40 MLOAD DUP1 DUP4 SUB DUP2 DUP7 DUP1 EXTCODESIZE ISZERO DUP1 ISZERO PUSH2 0x14D8 JUMPI PUSH1 0x0 DUP1 REVERT JUMPDEST POP GAS STATICCALL ISZERO DUP1 ISZERO PUSH2 0x14EC JUMPI RETURNDATASIZE PUSH1 0x0 DUP1 RETURNDATACOPY RETURNDATASIZE PUSH1 0x0 REVERT JUMPDEST POP POP POP POP PUSH1 0x40 MLOAD RETURNDATASIZE PUSH1 0x1F NOT PUSH1 0x1F DUP3 ADD AND DUP3 ADD DUP1 PUSH1 0x40 MSTORE POP DUP2 ADD SWAP1 PUSH2 0x1510 SWAP2 SWAP1 PUSH2 0x23A7 JUMP JUMPDEST PUSH1 0xFB SLOAD SWAP1 SWAP2 POP PUSH2 0x152B SWAP1 PUSH1 0x1 PUSH1 0x1 PUSH1 0xA0 SHL SUB AND CALLER ADDRESS DUP8 PUSH2 0x1BFD JUMP JUMPDEST PUSH1 0xFB SLOAD PUSH1 0x40 MLOAD PUSH4 0x70A08231 PUSH1 0xE0 SHL DUP2 MSTORE PUSH2 0x156B SWAP2 PUSH2 0x1563 SWAP2 DUP5 SWAP2 PUSH1 0x1 PUSH1 0x1 PUSH1 0xA0 SHL SUB AND SWAP1 PUSH4 0x70A08231 SWAP1 PUSH2 0xCE1 SWAP1 ADDRESS SWAP1 PUSH1 0x4 ADD PUSH2 0x2570 JUMP JUMPDEST DUP4 SLOAD SWAP1 PUSH2 0x1AC3 JUMP JUMPDEST DUP1 DUP4 SSTORE PUSH2 0x100 SLOAD LT ISZERO PUSH2 0x15BB JUMPI PUSH1 0x40 MLOAD PUSH3 0x461BCD PUSH1 0xE5 SHL DUP2 MSTORE PUSH1 0x20 PUSH1 0x4 DUP3 ADD MSTORE PUSH1 0x18 PUSH1 0x24 DUP3 ADD MSTORE PUSH24 0x13585E08141491510811195C1BDCDA5D0814995858DA1959 PUSH1 0x42 SHL PUSH1 0x44 DUP3 ADD MSTORE PUSH1 0x64 ADD PUSH2 0x5B3 JUMP JUMPDEST POP JUMPDEST PUSH1 0x40 DUP3 ADD MLOAD DUP2 SLOAD PUSH2 0x15DF SWAP2 PUSH9 0x327CB2734119D3B7A9 PUSH1 0x1E SHL SWAP2 PUSH2 0xABD SWAP2 PUSH2 0x19B1 JUMP JUMPDEST PUSH1 0x1 DUP3 ADD SSTORE PUSH1 0x40 MLOAD DUP4 DUP2 MSTORE DUP5 SWAP1 CALLER SWAP1 PUSH32 0x90890809C654F11D6E72A28FA60149770A0D11EC6C92319D6CEB2BB0A4EA1A15 SWAP1 PUSH1 0x20 ADD PUSH1 0x40 MLOAD DUP1 SWAP2 SUB SWAP1 LOG3 POP POP POP POP JUMP JUMPDEST CALLER PUSH2 0x162A PUSH2 0x1125 JUMP JUMPDEST PUSH1 0x1 PUSH1 0x1 PUSH1 0xA0 SHL SUB AND EQ PUSH2 0x1650 JUMPI PUSH1 0x40 MLOAD PUSH3 0x461BCD PUSH1 0xE5 SHL DUP2 MSTORE PUSH1 0x4 ADD PUSH2 0x5B3 SWAP1 PUSH2 0x2676 JUMP JUMPDEST PUSH1 0x1 PUSH1 0x1 PUSH1 0xA0 SHL SUB DUP2 AND PUSH2 0x16B5 JUMPI PUSH1 0x40 MLOAD PUSH3 0x461BCD PUSH1 0xE5 SHL DUP2 MSTORE PUSH1 0x20 PUSH1 0x4 DUP3 ADD MSTORE PUSH1 0x26 PUSH1 0x24 DUP3 ADD MSTORE PUSH32 0x4F776E61626C653A206E6577206F776E657220697320746865207A65726F2061 PUSH1 0x44 DUP3 ADD MSTORE PUSH6 0x646472657373 PUSH1 0xD0 SHL PUSH1 0x64 DUP3 ADD MSTORE PUSH1 0x84 ADD PUSH2 0x5B3 JUMP JUMPDEST PUSH2 0x98D DUP2 PUSH2 0x1ACF JUMP JUMPDEST CALLER PUSH2 0x16C7 PUSH2 0x1125 JUMP JUMPDEST PUSH1 0x1 PUSH1 0x1 PUSH1 0xA0 SHL SUB AND EQ PUSH2 0x16ED JUMPI PUSH1 0x40 MLOAD PUSH3 0x461BCD PUSH1 0xE5 SHL DUP2 MSTORE PUSH1 0x4 ADD PUSH2 0x5B3 SWAP1 PUSH2 0x2676 JUMP JUMPDEST PUSH1 0x0 PUSH2 0x104 SLOAD NUMBER GT PUSH2 0x1702 JUMPI PUSH2 0x104 SLOAD PUSH2 0x1704 JUMP JUMPDEST NUMBER JUMPDEST PUSH1 0x40 DUP1 MLOAD PUSH1 0x80 DUP2 ADD DUP3 MSTORE SWAP5 DUP6 MSTORE PUSH1 0x20 DUP6 ADD SWAP2 DUP3 MSTORE PUSH1 0x0 SWAP1 DUP6 ADD DUP2 DUP2 MSTORE PUSH1 0x60 DUP7 ADD SWAP5 DUP6 MSTORE PUSH2 0x101 DUP1 SLOAD PUSH1 0x1 DUP2 ADD DUP3 SSTORE SWAP3 MSTORE SWAP5 MLOAD PUSH32 0x109EA3CEBB188B9C1B9FC5BB3920BE60DFDC8699098DFF92F3D80DAACA747689 PUSH1 0x4 SWAP1 SWAP3 MUL SWAP2 DUP3 ADD SSTORE SWAP1 MLOAD PUSH32 0x109EA3CEBB188B9C1B9FC5BB3920BE60DFDC8699098DFF92F3D80DAACA74768A DUP3 ADD SSTORE SWAP3 MLOAD PUSH32 0x109EA3CEBB188B9C1B9FC5BB3920BE60DFDC8699098DFF92F3D80DAACA74768B DUP5 ADD SSTORE POP MLOAD PUSH32 0x109EA3CEBB188B9C1B9FC5BB3920BE60DFDC8699098DFF92F3D80DAACA74768C SWAP1 SWAP2 ADD SSTORE JUMP JUMPDEST CALLER PUSH2 0x17DE PUSH2 0x1125 JUMP JUMPDEST PUSH1 0x1 PUSH1 0x1 PUSH1 0xA0 SHL SUB AND EQ PUSH2 0x98D JUMPI PUSH1 0x40 MLOAD PUSH3 0x461BCD PUSH1 0xE5 SHL DUP2 MSTORE PUSH1 0x4 ADD PUSH2 0x5B3 SWAP1 PUSH2 0x2676 JUMP JUMPDEST PUSH1 0x0 PUSH2 0x180E PUSH2 0x1C3B JUMP JUMPDEST SWAP1 POP PUSH2 0x1819 DUP5 PUSH2 0x1C69 JUMP JUMPDEST PUSH1 0x0 DUP4 MLOAD GT DUP1 PUSH2 0x1826 JUMPI POP DUP2 JUMPDEST ISZERO PUSH2 0x1837 JUMPI PUSH2 0x1835 DUP5 DUP5 PUSH2 0x1D15 JUMP JUMPDEST POP JUMPDEST PUSH32 0x4910FDFA16FED3260ED0E7147F7CC6DA11A60208B5B9406D12A635614FFD9143 DUP1 SLOAD PUSH1 0xFF AND PUSH2 0x1944 JUMPI DUP1 SLOAD PUSH1 0xFF NOT AND PUSH1 0x1 OR DUP2 SSTORE PUSH1 0x40 MLOAD PUSH2 0x18B2 SWAP1 DUP7 SWAP1 PUSH2 0x1883 SWAP1 DUP6 SWAP1 PUSH1 0x24 ADD PUSH2 0x2570 JUMP JUMPDEST PUSH1 0x40 DUP1 MLOAD PUSH1 0x1F NOT DUP2 DUP5 SUB ADD DUP2 MSTORE SWAP2 SWAP1 MSTORE PUSH1 0x20 DUP2 ADD DUP1 MLOAD PUSH1 0x1 PUSH1 0x1 PUSH1 0xE0 SHL SUB AND PUSH4 0x1B2CE7F3 PUSH1 0xE1 SHL OR SWAP1 MSTORE PUSH2 0x1D15 JUMP JUMPDEST POP DUP1 SLOAD PUSH1 0xFF NOT AND DUP2 SSTORE PUSH2 0x18C3 PUSH2 0x1C3B JUMP JUMPDEST PUSH1 0x1 PUSH1 0x1 PUSH1 0xA0 SHL SUB AND DUP3 PUSH1 0x1 PUSH1 0x1 PUSH1 0xA0 SHL SUB AND EQ PUSH2 0x193B JUMPI PUSH1 0x40 MLOAD PUSH3 0x461BCD PUSH1 0xE5 SHL DUP2 MSTORE PUSH1 0x20 PUSH1 0x4 DUP3 ADD MSTORE PUSH1 0x2F PUSH1 0x24 DUP3 ADD MSTORE PUSH32 0x45524331393637557067726164653A207570677261646520627265616B732066 PUSH1 0x44 DUP3 ADD MSTORE PUSH15 0x757274686572207570677261646573 PUSH1 0x88 SHL PUSH1 0x64 DUP3 ADD MSTORE PUSH1 0x84 ADD PUSH2 0x5B3 JUMP JUMPDEST PUSH2 0x1944 DUP6 PUSH2 0x1E07 JUMP JUMPDEST POP POP POP POP POP JUMP JUMPDEST PUSH1 0x33 SLOAD PUSH1 0xFF AND PUSH2 0x196D JUMPI PUSH1 0x40 MLOAD PUSH3 0x461BCD PUSH1 0xE5 SHL DUP2 MSTORE PUSH1 0x4 ADD PUSH2 0x5B3 SWAP1 PUSH2 0x25D0 JUMP JUMPDEST PUSH1 0x33 DUP1 SLOAD PUSH1 0xFF NOT AND SWAP1 SSTORE PUSH32 0x5DB9EE0A495BF2E6FF9C91A7834C1BA4FDD244A5E8AA4E537BD38AEAE4B073AA CALLER JUMPDEST PUSH1 0x40 MLOAD PUSH2 0x19A7 SWAP2 SWAP1 PUSH2 0x2570 JUMP JUMPDEST PUSH1 0x40 MLOAD DUP1 SWAP2 SUB SWAP1 LOG1 JUMP JUMPDEST PUSH1 0x0 PUSH2 0x1148 DUP3 DUP5 PUSH2 0x2736 JUMP JUMPDEST PUSH1 0x0 PUSH2 0x1148 DUP3 DUP5 PUSH2 0x2716 JUMP JUMPDEST PUSH1 0x0 PUSH2 0x1148 DUP3 DUP5 PUSH2 0x2755 JUMP JUMPDEST PUSH1 0xFF SLOAD PUSH1 0x40 MLOAD PUSH4 0x736A0D41 PUSH1 0xE1 SHL DUP2 MSTORE PUSH2 0x1A65 SWAP2 PUSH1 0x1 PUSH1 0x1 PUSH1 0xA0 SHL SUB AND SWAP1 PUSH4 0xE6D41A82 SWAP1 PUSH2 0x1A09 SWAP1 DUP7 SWAP1 DUP7 SWAP1 PUSH1 0x4 ADD PUSH2 0x2584 JUMP JUMPDEST PUSH1 0x20 PUSH1 0x40 MLOAD DUP1 DUP4 SUB DUP2 PUSH1 0x0 DUP8 DUP1 EXTCODESIZE ISZERO DUP1 ISZERO PUSH2 0x1A23 JUMPI PUSH1 0x0 DUP1 REVERT JUMPDEST POP GAS CALL ISZERO DUP1 ISZERO PUSH2 0x1A37 JUMPI RETURNDATASIZE PUSH1 0x0 DUP1 RETURNDATACOPY RETURNDATASIZE PUSH1 0x0 REVERT JUMPDEST POP POP POP POP PUSH1 0x40 MLOAD RETURNDATASIZE PUSH1 0x1F NOT PUSH1 0x1F DUP3 ADD AND DUP3 ADD DUP1 PUSH1 0x40 MSTORE POP DUP2 ADD SWAP1 PUSH2 0x1A5B SWAP2 SWAP1 PUSH2 0x23A7 JUMP JUMPDEST PUSH2 0x105 SLOAD SWAP1 PUSH2 0x19C9 JUMP JUMPDEST PUSH2 0x105 SSTORE POP POP JUMP JUMPDEST PUSH2 0x929 DUP4 PUSH4 0xA9059CBB PUSH1 0xE0 SHL DUP5 DUP5 PUSH1 0x40 MLOAD PUSH1 0x24 ADD PUSH2 0x1A8C SWAP3 SWAP2 SWAP1 PUSH2 0x2584 JUMP JUMPDEST PUSH1 0x40 DUP1 MLOAD PUSH1 0x1F NOT DUP2 DUP5 SUB ADD DUP2 MSTORE SWAP2 SWAP1 MSTORE PUSH1 0x20 DUP2 ADD DUP1 MLOAD PUSH1 0x1 PUSH1 0x1 PUSH1 0xE0 SHL SUB AND PUSH1 0x1 PUSH1 0x1 PUSH1 0xE0 SHL SUB NOT SWAP1 SWAP4 AND SWAP3 SWAP1 SWAP3 OR SWAP1 SWAP2 MSTORE PUSH2 0x1E47 JUMP JUMPDEST PUSH1 0x0 PUSH2 0x1148 DUP3 DUP5 PUSH2 0x26FE JUMP JUMPDEST PUSH1 0xC9 DUP1 SLOAD PUSH1 0x1 PUSH1 0x1 PUSH1 0xA0 SHL SUB DUP4 DUP2 AND PUSH1 0x1 PUSH1 0x1 PUSH1 0xA0 SHL SUB NOT DUP4 AND DUP2 OR SWAP1 SWAP4 SSTORE PUSH1 0x40 MLOAD SWAP2 AND SWAP2 SWAP1 DUP3 SWAP1 PUSH32 0x8BE0079C531659141344CD1FD0A4F28419497F9722A3DAAFE3B4186F6B6457E0 SWAP1 PUSH1 0x0 SWAP1 LOG3 POP POP JUMP JUMPDEST PUSH1 0x33 SLOAD PUSH1 0xFF AND ISZERO PUSH2 0x1B44 JUMPI PUSH1 0x40 MLOAD PUSH3 0x461BCD PUSH1 0xE5 SHL DUP2 MSTORE PUSH1 0x4 ADD PUSH2 0x5B3 SWAP1 PUSH2 0x25FE JUMP JUMPDEST PUSH1 0x33 DUP1 SLOAD PUSH1 0xFF NOT AND PUSH1 0x1 OR SWAP1 SSTORE PUSH32 0x62E78CEA01BEE320CD4E420270B5EA74000D11B0C9F74754EBDBFC544B05A258 PUSH2 0x199A CALLER SWAP1 JUMP JUMPDEST PUSH1 0x0 SLOAD PUSH2 0x100 SWAP1 DIV PUSH1 0xFF AND DUP1 PUSH2 0x1B92 JUMPI POP PUSH1 0x0 SLOAD PUSH1 0xFF AND ISZERO JUMPDEST PUSH2 0x1BAE JUMPI PUSH1 0x40 MLOAD PUSH3 0x461BCD PUSH1 0xE5 SHL DUP2 MSTORE PUSH1 0x4 ADD PUSH2 0x5B3 SWAP1 PUSH2 0x2628 JUMP JUMPDEST PUSH1 0x0 SLOAD PUSH2 0x100 SWAP1 DIV PUSH1 0xFF AND ISZERO DUP1 ISZERO PUSH2 0x1BD9 JUMPI PUSH1 0x0 DUP1 SLOAD PUSH1 0xFF NOT PUSH2 0xFF00 NOT SWAP1 SWAP2 AND PUSH2 0x100 OR AND PUSH1 0x1 OR SWAP1 SSTORE JUMPDEST PUSH2 0x1BE1 PUSH2 0x1F19 JUMP JUMPDEST PUSH2 0x1BE9 PUSH2 0x1F8C JUMP JUMPDEST DUP1 ISZERO PUSH2 0x98D JUMPI PUSH1 0x0 DUP1 SLOAD PUSH2 0xFF00 NOT AND SWAP1 SSTORE POP JUMP JUMPDEST PUSH1 0x40 MLOAD PUSH1 0x1 PUSH1 0x1 PUSH1 0xA0 SHL SUB DUP1 DUP6 AND PUSH1 0x24 DUP4 ADD MSTORE DUP4 AND PUSH1 0x44 DUP3 ADD MSTORE PUSH1 0x64 DUP2 ADD DUP3 SWAP1 MSTORE PUSH2 0x1C35 SWAP1 DUP6 SWAP1 PUSH4 0x23B872DD PUSH1 0xE0 SHL SWAP1 PUSH1 0x84 ADD PUSH2 0x1A8C JUMP JUMPDEST POP POP POP POP JUMP JUMPDEST PUSH32 0x360894A13BA1A3210667C828492DB98DCA3E2076CC3735A920A3CA505D382BBC SLOAD PUSH1 0x1 PUSH1 0x1 PUSH1 0xA0 SHL SUB AND SWAP1 JUMP JUMPDEST PUSH2 0x1C72 DUP2 PUSH2 0x1FF5 JUMP JUMPDEST PUSH2 0x1CD4 JUMPI PUSH1 0x40 MLOAD PUSH3 0x461BCD PUSH1 0xE5 SHL DUP2 MSTORE PUSH1 0x20 PUSH1 0x4 DUP3 ADD MSTORE PUSH1 0x2D PUSH1 0x24 DUP3 ADD MSTORE PUSH32 0x455243313936373A206E657720696D706C656D656E746174696F6E206973206E PUSH1 0x44 DUP3 ADD MSTORE PUSH13 0x1BDD08184818DBDB9D1C9858DD PUSH1 0x9A SHL PUSH1 0x64 DUP3 ADD MSTORE PUSH1 0x84 ADD PUSH2 0x5B3 JUMP JUMPDEST PUSH32 0x360894A13BA1A3210667C828492DB98DCA3E2076CC3735A920A3CA505D382BBC DUP1 SLOAD PUSH1 0x1 PUSH1 0x1 PUSH1 0xA0 SHL SUB NOT AND PUSH1 0x1 PUSH1 0x1 PUSH1 0xA0 SHL SUB SWAP3 SWAP1 SWAP3 AND SWAP2 SWAP1 SWAP2 OR SWAP1 SSTORE JUMP JUMPDEST PUSH1 0x60 PUSH2 0x1D20 DUP4 PUSH2 0x1FF5 JUMP JUMPDEST PUSH2 0x1D7B JUMPI PUSH1 0x40 MLOAD PUSH3 0x461BCD PUSH1 0xE5 SHL DUP2 MSTORE PUSH1 0x20 PUSH1 0x4 DUP3 ADD MSTORE PUSH1 0x26 PUSH1 0x24 DUP3 ADD MSTORE PUSH32 0x416464726573733A2064656C65676174652063616C6C20746F206E6F6E2D636F PUSH1 0x44 DUP3 ADD MSTORE PUSH6 0x1B9D1C9858DD PUSH1 0xD2 SHL PUSH1 0x64 DUP3 ADD MSTORE PUSH1 0x84 ADD PUSH2 0x5B3 JUMP JUMPDEST PUSH1 0x0 DUP1 DUP5 PUSH1 0x1 PUSH1 0x1 PUSH1 0xA0 SHL SUB AND DUP5 PUSH1 0x40 MLOAD PUSH2 0x1D96 SWAP2 SWAP1 PUSH2 0x2554 JUMP JUMPDEST PUSH1 0x0 PUSH1 0x40 MLOAD DUP1 DUP4 SUB DUP2 DUP6 GAS DELEGATECALL SWAP2 POP POP RETURNDATASIZE DUP1 PUSH1 0x0 DUP2 EQ PUSH2 0x1DD1 JUMPI PUSH1 0x40 MLOAD SWAP2 POP PUSH1 0x1F NOT PUSH1 0x3F RETURNDATASIZE ADD AND DUP3 ADD PUSH1 0x40 MSTORE RETURNDATASIZE DUP3 MSTORE RETURNDATASIZE PUSH1 0x0 PUSH1 0x20 DUP5 ADD RETURNDATACOPY PUSH2 0x1DD6 JUMP JUMPDEST PUSH1 0x60 SWAP2 POP JUMPDEST POP SWAP2 POP SWAP2 POP PUSH2 0x1DFE DUP3 DUP3 PUSH1 0x40 MLOAD DUP1 PUSH1 0x60 ADD PUSH1 0x40 MSTORE DUP1 PUSH1 0x27 DUP2 MSTORE PUSH1 0x20 ADD PUSH2 0x27DA PUSH1 0x27 SWAP2 CODECOPY PUSH2 0x1FFF JUMP JUMPDEST SWAP6 SWAP5 POP POP POP POP POP JUMP JUMPDEST PUSH2 0x1E10 DUP2 PUSH2 0x1C69 JUMP JUMPDEST PUSH1 0x40 MLOAD PUSH1 0x1 PUSH1 0x1 PUSH1 0xA0 SHL SUB DUP3 AND SWAP1 PUSH32 0xBC7CD75A20EE27FD9ADEBAB32041F755214DBC6BFFA90CC0225B39DA2E5C2D3B SWAP1 PUSH1 0x0 SWAP1 LOG2 POP JUMP JUMPDEST PUSH1 0x0 PUSH2 0x1E9C DUP3 PUSH1 0x40 MLOAD DUP1 PUSH1 0x40 ADD PUSH1 0x40 MSTORE DUP1 PUSH1 0x20 DUP2 MSTORE PUSH1 0x20 ADD PUSH32 0x5361666545524332303A206C6F772D6C6576656C2063616C6C206661696C6564 DUP2 MSTORE POP DUP6 PUSH1 0x1 PUSH1 0x1 PUSH1 0xA0 SHL SUB AND PUSH2 0x2038 SWAP1 SWAP3 SWAP2 SWAP1 PUSH4 0xFFFFFFFF AND JUMP JUMPDEST DUP1 MLOAD SWAP1 SWAP2 POP ISZERO PUSH2 0x929 JUMPI DUP1 DUP1 PUSH1 0x20 ADD SWAP1 MLOAD DUP2 ADD SWAP1 PUSH2 0x1EBA SWAP2 SWAP1 PUSH2 0x230F JUMP JUMPDEST PUSH2 0x929 JUMPI PUSH1 0x40 MLOAD PUSH3 0x461BCD PUSH1 0xE5 SHL DUP2 MSTORE PUSH1 0x20 PUSH1 0x4 DUP3 ADD MSTORE PUSH1 0x2A PUSH1 0x24 DUP3 ADD MSTORE PUSH32 0x5361666545524332303A204552433230206F7065726174696F6E20646964206E PUSH1 0x44 DUP3 ADD MSTORE PUSH10 0x1BDD081CDD58D8D95959 PUSH1 0xB2 SHL PUSH1 0x64 DUP3 ADD MSTORE PUSH1 0x84 ADD PUSH2 0x5B3 JUMP JUMPDEST PUSH1 0x0 SLOAD PUSH2 0x100 SWAP1 DIV PUSH1 0xFF AND DUP1 PUSH2 0x1F32 JUMPI POP PUSH1 0x0 SLOAD PUSH1 0xFF AND ISZERO JUMPDEST PUSH2 0x1F4E JUMPI PUSH1 0x40 MLOAD PUSH3 0x461BCD PUSH1 0xE5 SHL DUP2 MSTORE PUSH1 0x4 ADD PUSH2 0x5B3 SWAP1 PUSH2 0x2628 JUMP JUMPDEST PUSH1 0x0 SLOAD PUSH2 0x100 SWAP1 DIV PUSH1 0xFF AND ISZERO DUP1 ISZERO PUSH2 0x1BE9 JUMPI PUSH1 0x0 DUP1 SLOAD PUSH1 0xFF NOT PUSH2 0xFF00 NOT SWAP1 SWAP2 AND PUSH2 0x100 OR AND PUSH1 0x1 OR SWAP1 SSTORE DUP1 ISZERO PUSH2 0x98D JUMPI PUSH1 0x0 DUP1 SLOAD PUSH2 0xFF00 NOT AND SWAP1 SSTORE POP JUMP JUMPDEST PUSH1 0x0 SLOAD PUSH2 0x100 SWAP1 DIV PUSH1 0xFF AND DUP1 PUSH2 0x1FA5 JUMPI POP PUSH1 0x0 SLOAD PUSH1 0xFF AND ISZERO JUMPDEST PUSH2 0x1FC1 JUMPI PUSH1 0x40 MLOAD PUSH3 0x461BCD PUSH1 0xE5 SHL DUP2 MSTORE PUSH1 0x4 ADD PUSH2 0x5B3 SWAP1 PUSH2 0x2628 JUMP JUMPDEST PUSH1 0x0 SLOAD PUSH2 0x100 SWAP1 DIV PUSH1 0xFF AND ISZERO DUP1 ISZERO PUSH2 0x1FEC JUMPI PUSH1 0x0 DUP1 SLOAD PUSH1 0xFF NOT PUSH2 0xFF00 NOT SWAP1 SWAP2 AND PUSH2 0x100 OR AND PUSH1 0x1 OR SWAP1 SSTORE JUMPDEST PUSH2 0x1BE9 CALLER PUSH2 0x1ACF JUMP JUMPDEST DUP1 EXTCODESIZE ISZERO ISZERO JUMPDEST SWAP2 SWAP1 POP JUMP JUMPDEST PUSH1 0x60 DUP4 ISZERO PUSH2 0x200E JUMPI POP DUP2 PUSH2 0x1148 JUMP JUMPDEST DUP3 MLOAD ISZERO PUSH2 0x201E JUMPI DUP3 MLOAD DUP1 DUP5 PUSH1 0x20 ADD REVERT JUMPDEST DUP2 PUSH1 0x40 MLOAD PUSH3 0x461BCD PUSH1 0xE5 SHL DUP2 MSTORE PUSH1 0x4 ADD PUSH2 0x5B3 SWAP2 SWAP1 PUSH2 0x259D JUMP JUMPDEST PUSH1 0x60 PUSH2 0x2047 DUP5 DUP5 PUSH1 0x0 DUP6 PUSH2 0x204F JUMP JUMPDEST SWAP5 SWAP4 POP POP POP POP JUMP JUMPDEST PUSH1 0x60 DUP3 SELFBALANCE LT ISZERO PUSH2 0x20B0 JUMPI PUSH1 0x40 MLOAD PUSH3 0x461BCD PUSH1 0xE5 SHL DUP2 MSTORE PUSH1 0x20 PUSH1 0x4 DUP3 ADD MSTORE PUSH1 0x26 PUSH1 0x24 DUP3 ADD MSTORE PUSH32 0x416464726573733A20696E73756666696369656E742062616C616E636520666F PUSH1 0x44 DUP3 ADD MSTORE PUSH6 0x1C8818D85B1B PUSH1 0xD2 SHL PUSH1 0x64 DUP3 ADD MSTORE PUSH1 0x84 ADD PUSH2 0x5B3 JUMP JUMPDEST PUSH2 0x20B9 DUP6 PUSH2 0x1FF5 JUMP JUMPDEST PUSH2 0x2105 JUMPI PUSH1 0x40 MLOAD PUSH3 0x461BCD PUSH1 0xE5 SHL DUP2 MSTORE PUSH1 0x20 PUSH1 0x4 DUP3 ADD MSTORE PUSH1 0x1D PUSH1 0x24 DUP3 ADD MSTORE PUSH32 0x416464726573733A2063616C6C20746F206E6F6E2D636F6E7472616374000000 PUSH1 0x44 DUP3 ADD MSTORE PUSH1 0x64 ADD PUSH2 0x5B3 JUMP JUMPDEST PUSH1 0x0 DUP1 DUP7 PUSH1 0x1 PUSH1 0x1 PUSH1 0xA0 SHL SUB AND DUP6 DUP8 PUSH1 0x40 MLOAD PUSH2 0x2121 SWAP2 SWAP1 PUSH2 0x2554 JUMP JUMPDEST PUSH1 0x0 PUSH1 0x40 MLOAD DUP1 DUP4 SUB DUP2 DUP6 DUP8 GAS CALL SWAP3 POP POP POP RETURNDATASIZE DUP1 PUSH1 0x0 DUP2 EQ PUSH2 0x215E JUMPI PUSH1 0x40 MLOAD SWAP2 POP PUSH1 0x1F NOT PUSH1 0x3F RETURNDATASIZE ADD AND DUP3 ADD PUSH1 0x40 MSTORE RETURNDATASIZE DUP3 MSTORE RETURNDATASIZE PUSH1 0x0 PUSH1 0x20 DUP5 ADD RETURNDATACOPY PUSH2 0x2163 JUMP JUMPDEST PUSH1 0x60 SWAP2 POP JUMPDEST POP SWAP2 POP SWAP2 POP PUSH2 0x10AA DUP3 DUP3 DUP7 PUSH2 0x1FFF JUMP JUMPDEST PUSH1 0x0 DUP3 PUSH1 0x1F DUP4 ADD SLT PUSH2 0x2183 JUMPI DUP1 DUP2 REVERT JUMPDEST DUP2 MLOAD PUSH1 0x20 PUSH2 0x2198 PUSH2 0x2193 DUP4 PUSH2 0x26DB JUMP JUMPDEST PUSH2 0x26AB JUMP JUMPDEST DUP3 DUP2 MSTORE DUP2 DUP2 ADD SWAP1 DUP6 DUP4 ADD DUP4 DUP6 MUL DUP8 ADD DUP5 ADD DUP9 LT ISZERO PUSH2 0x21B4 JUMPI DUP6 DUP7 REVERT JUMPDEST DUP6 JUMPDEST DUP6 DUP2 LT ISZERO PUSH2 0x21DB JUMPI DUP2 MLOAD PUSH2 0x21C9 DUP2 PUSH2 0x27C4 JUMP JUMPDEST DUP5 MSTORE SWAP3 DUP5 ADD SWAP3 SWAP1 DUP5 ADD SWAP1 PUSH1 0x1 ADD PUSH2 0x21B6 JUMP JUMPDEST POP SWAP1 SWAP8 SWAP7 POP POP POP POP POP POP POP JUMP JUMPDEST PUSH1 0x0 DUP3 PUSH1 0x1F DUP4 ADD SLT PUSH2 0x21F8 JUMPI DUP1 DUP2 REVERT JUMPDEST DUP2 MLOAD PUSH1 0x20 PUSH2 0x2208 PUSH2 0x2193 DUP4 PUSH2 0x26DB JUMP JUMPDEST DUP3 DUP2 MSTORE DUP2 DUP2 ADD SWAP1 DUP6 DUP4 ADD DUP4 DUP6 MUL DUP8 ADD DUP5 ADD DUP9 LT ISZERO PUSH2 0x2224 JUMPI DUP6 DUP7 REVERT JUMPDEST DUP6 JUMPDEST DUP6 DUP2 LT ISZERO PUSH2 0x21DB JUMPI DUP2 MLOAD DUP5 MSTORE SWAP3 DUP5 ADD SWAP3 SWAP1 DUP5 ADD SWAP1 PUSH1 0x1 ADD PUSH2 0x2226 JUMP JUMPDEST DUP1 MLOAD DUP1 ISZERO ISZERO DUP2 EQ PUSH2 0x1FFA JUMPI PUSH1 0x0 DUP1 REVERT JUMPDEST PUSH1 0x0 PUSH1 0x20 DUP3 DUP5 SUB SLT ISZERO PUSH2 0x2263 JUMPI DUP1 DUP2 REVERT JUMPDEST DUP2 CALLDATALOAD PUSH2 0x1148 DUP2 PUSH2 0x27C4 JUMP JUMPDEST PUSH1 0x0 DUP1 PUSH1 0x40 DUP4 DUP6 SUB SLT ISZERO PUSH2 0x2280 JUMPI DUP1 DUP2 REVERT JUMPDEST DUP3 CALLDATALOAD PUSH2 0x228B DUP2 PUSH2 0x27C4 JUMP JUMPDEST SWAP2 POP PUSH1 0x20 DUP4 DUP2 ADD CALLDATALOAD PUSH1 0x1 PUSH1 0x1 PUSH1 0x40 SHL SUB DUP1 DUP3 GT ISZERO PUSH2 0x22A7 JUMPI DUP4 DUP5 REVERT JUMPDEST DUP2 DUP7 ADD SWAP2 POP DUP7 PUSH1 0x1F DUP4 ADD SLT PUSH2 0x22BA JUMPI DUP4 DUP5 REVERT JUMPDEST DUP2 CALLDATALOAD DUP2 DUP2 GT ISZERO PUSH2 0x22CC JUMPI PUSH2 0x22CC PUSH2 0x27AE JUMP JUMPDEST PUSH2 0x22DE PUSH1 0x1F DUP3 ADD PUSH1 0x1F NOT AND DUP6 ADD PUSH2 0x26AB JUMP JUMPDEST SWAP2 POP DUP1 DUP3 MSTORE DUP8 DUP5 DUP3 DUP6 ADD ADD GT ISZERO PUSH2 0x22F3 JUMPI DUP5 DUP6 REVERT JUMPDEST DUP1 DUP5 DUP5 ADD DUP6 DUP5 ADD CALLDATACOPY DUP2 ADD SWAP1 SWAP3 ADD SWAP3 SWAP1 SWAP3 MSTORE SWAP2 SWAP5 SWAP2 SWAP4 POP SWAP1 SWAP2 POP POP JUMP JUMPDEST PUSH1 0x0 PUSH1 0x20 DUP3 DUP5 SUB SLT ISZERO PUSH2 0x2320 JUMPI DUP1 DUP2 REVERT JUMPDEST PUSH2 0x1148 DUP3 PUSH2 0x2242 JUMP JUMPDEST PUSH1 0x0 DUP1 PUSH1 0x0 DUP1 PUSH1 0x0 DUP1 PUSH1 0xC0 DUP8 DUP10 SUB SLT ISZERO PUSH2 0x2341 JUMPI DUP2 DUP3 REVERT JUMPDEST DUP7 CALLDATALOAD PUSH2 0x234C DUP2 PUSH2 0x27C4 JUMP JUMPDEST SWAP6 POP PUSH1 0x20 DUP8 ADD CALLDATALOAD SWAP5 POP PUSH1 0x40 DUP8 ADD CALLDATALOAD SWAP4 POP PUSH1 0x60 DUP8 ADD CALLDATALOAD SWAP3 POP PUSH1 0x80 DUP8 ADD CALLDATALOAD PUSH2 0x2371 DUP2 PUSH2 0x27C4 JUMP JUMPDEST SWAP2 POP PUSH1 0xA0 DUP8 ADD CALLDATALOAD PUSH2 0x2381 DUP2 PUSH2 0x27C4 JUMP JUMPDEST DUP1 SWAP2 POP POP SWAP3 SWAP6 POP SWAP3 SWAP6 POP SWAP3 SWAP6 JUMP JUMPDEST PUSH1 0x0 PUSH1 0x20 DUP3 DUP5 SUB SLT ISZERO PUSH2 0x23A0 JUMPI DUP1 DUP2 REVERT JUMPDEST POP CALLDATALOAD SWAP2 SWAP1 POP JUMP JUMPDEST PUSH1 0x0 PUSH1 0x20 DUP3 DUP5 SUB SLT ISZERO PUSH2 0x23B8 JUMPI DUP1 DUP2 REVERT JUMPDEST POP MLOAD SWAP2 SWAP1 POP JUMP JUMPDEST PUSH1 0x0 DUP1 PUSH1 0x40 DUP4 DUP6 SUB SLT ISZERO PUSH2 0x23D1 JUMPI DUP2 DUP3 REVERT JUMPDEST DUP3 CALLDATALOAD SWAP2 POP PUSH1 0x20 DUP4 ADD CALLDATALOAD PUSH2 0x23E3 DUP2 PUSH2 0x27C4 JUMP JUMPDEST DUP1 SWAP2 POP POP SWAP3 POP SWAP3 SWAP1 POP JUMP JUMPDEST PUSH1 0x0 DUP1 PUSH1 0x40 DUP4 DUP6 SUB SLT ISZERO PUSH2 0x2400 JUMPI DUP2 DUP3 REVERT JUMPDEST POP POP DUP1 CALLDATALOAD SWAP3 PUSH1 0x20 SWAP1 SWAP2 ADD CALLDATALOAD SWAP2 POP JUMP JUMPDEST PUSH1 0x0 DUP1 PUSH1 0x0 DUP1 PUSH1 0x0 DUP1 PUSH1 0x0 DUP1 PUSH1 0x0 DUP1 PUSH1 0x0 PUSH2 0x160 DUP13 DUP15 SUB SLT ISZERO PUSH2 0x2430 JUMPI DUP9 DUP10 REVERT JUMPDEST DUP12 MLOAD SWAP11 POP PUSH1 0x20 DUP13 ADD MLOAD SWAP10 POP PUSH1 0x40 DUP13 ADD MLOAD SWAP9 POP PUSH1 0x60 DUP13 ADD MLOAD SWAP8 POP PUSH2 0x2455 PUSH1 0x80 DUP14 ADD PUSH2 0x2242 JUMP JUMPDEST SWAP7 POP PUSH1 0xA0 DUP13 ADD MLOAD PUSH1 0x1 PUSH1 0x1 PUSH1 0x40 SHL SUB DUP2 GT ISZERO PUSH2 0x246F JUMPI DUP6 DUP7 REVERT JUMPDEST PUSH2 0x247B DUP15 DUP3 DUP16 ADD PUSH2 0x2173 JUMP JUMPDEST SWAP7 POP POP PUSH1 0xC0 DUP13 ADD MLOAD PUSH1 0x1 PUSH1 0x1 PUSH1 0x40 SHL SUB DUP2 GT ISZERO PUSH2 0x2496 JUMPI DUP6 DUP7 REVERT JUMPDEST PUSH2 0x24A2 DUP15 DUP3 DUP16 ADD PUSH2 0x21E8 JUMP JUMPDEST SWAP6 POP POP PUSH1 0xE0 DUP13 ADD MLOAD PUSH1 0x1 PUSH1 0x1 PUSH1 0x40 SHL SUB DUP2 GT ISZERO PUSH2 0x24BD JUMPI DUP5 DUP6 REVERT JUMPDEST PUSH2 0x24C9 DUP15 DUP3 DUP16 ADD PUSH2 0x21E8 JUMP JUMPDEST SWAP5 POP POP PUSH2 0x100 DUP13 ADD MLOAD PUSH1 0x1 PUSH1 0x1 PUSH1 0x40 SHL SUB DUP2 GT ISZERO PUSH2 0x24E5 JUMPI DUP4 DUP5 REVERT JUMPDEST PUSH2 0x24F1 DUP15 DUP3 DUP16 ADD PUSH2 0x21E8 JUMP JUMPDEST SWAP4 POP POP PUSH2 0x120 DUP13 ADD MLOAD PUSH1 0x1 PUSH1 0x1 PUSH1 0x40 SHL SUB DUP2 GT ISZERO PUSH2 0x250D JUMPI DUP3 DUP4 REVERT JUMPDEST PUSH2 0x2519 DUP15 DUP3 DUP16 ADD PUSH2 0x21E8 JUMP JUMPDEST SWAP3 POP POP PUSH2 0x140 DUP13 ADD MLOAD PUSH1 0x1 PUSH1 0x1 PUSH1 0x40 SHL SUB DUP2 GT ISZERO PUSH2 0x2535 JUMPI DUP2 DUP3 REVERT JUMPDEST PUSH2 0x2541 DUP15 DUP3 DUP16 ADD PUSH2 0x21E8 JUMP JUMPDEST SWAP2 POP POP SWAP3 SWAP6 SWAP9 SWAP12 POP SWAP3 SWAP6 SWAP9 SWAP12 SWAP1 SWAP4 SWAP7 SWAP10 POP JUMP JUMPDEST PUSH1 0x0 DUP3 MLOAD PUSH2 0x2566 DUP2 DUP5 PUSH1 0x20 DUP8 ADD PUSH2 0x276C JUMP JUMPDEST SWAP2 SWAP1 SWAP2 ADD SWAP3 SWAP2 POP POP JUMP JUMPDEST PUSH1 0x1 PUSH1 0x1 PUSH1 0xA0 SHL SUB SWAP2 SWAP1 SWAP2 AND DUP2 MSTORE PUSH1 0x20 ADD SWAP1 JUMP JUMPDEST PUSH1 0x1 PUSH1 0x1 PUSH1 0xA0 SHL SUB SWAP3 SWAP1 SWAP3 AND DUP3 MSTORE PUSH1 0x20 DUP3 ADD MSTORE PUSH1 0x40 ADD SWAP1 JUMP JUMPDEST PUSH1 0x0 PUSH1 0x20 DUP3 MSTORE DUP3 MLOAD DUP1 PUSH1 0x20 DUP5 ADD MSTORE PUSH2 0x25BC DUP2 PUSH1 0x40 DUP6 ADD PUSH1 0x20 DUP8 ADD PUSH2 0x276C JUMP JUMPDEST PUSH1 0x1F ADD PUSH1 0x1F NOT AND SWAP2 SWAP1 SWAP2 ADD PUSH1 0x40 ADD SWAP3 SWAP2 POP POP JUMP JUMPDEST PUSH1 0x20 DUP1 DUP3 MSTORE PUSH1 0x14 SWAP1 DUP3 ADD MSTORE PUSH20 0x14185D5CD8589B194E881B9BDD081C185D5CD959 PUSH1 0x62 SHL PUSH1 0x40 DUP3 ADD MSTORE PUSH1 0x60 ADD SWAP1 JUMP JUMPDEST PUSH1 0x20 DUP1 DUP3 MSTORE PUSH1 0x10 SWAP1 DUP3 ADD MSTORE PUSH16 0x14185D5CD8589B194E881C185D5CD959 PUSH1 0x82 SHL PUSH1 0x40 DUP3 ADD MSTORE PUSH1 0x60 ADD SWAP1 JUMP JUMPDEST PUSH1 0x20 DUP1 DUP3 MSTORE PUSH1 0x2E SWAP1 DUP3 ADD MSTORE PUSH32 0x496E697469616C697A61626C653A20636F6E747261637420697320616C726561 PUSH1 0x40 DUP3 ADD MSTORE PUSH14 0x191E481A5B9A5D1A585B1A5E9959 PUSH1 0x92 SHL PUSH1 0x60 DUP3 ADD MSTORE PUSH1 0x80 ADD SWAP1 JUMP JUMPDEST PUSH1 0x20 DUP1 DUP3 MSTORE DUP2 DUP2 ADD MSTORE PUSH32 0x4F776E61626C653A2063616C6C6572206973206E6F7420746865206F776E6572 PUSH1 0x40 DUP3 ADD MSTORE PUSH1 0x60 ADD SWAP1 JUMP JUMPDEST PUSH1 0x40 MLOAD PUSH1 0x1F DUP3 ADD PUSH1 0x1F NOT AND DUP2 ADD PUSH1 0x1 PUSH1 0x1 PUSH1 0x40 SHL SUB DUP2 GT DUP3 DUP3 LT OR ISZERO PUSH2 0x26D3 JUMPI PUSH2 0x26D3 PUSH2 0x27AE JUMP JUMPDEST PUSH1 0x40 MSTORE SWAP2 SWAP1 POP JUMP JUMPDEST PUSH1 0x0 PUSH1 0x1 PUSH1 0x1 PUSH1 0x40 SHL SUB DUP3 GT ISZERO PUSH2 0x26F4 JUMPI PUSH2 0x26F4 PUSH2 0x27AE JUMP JUMPDEST POP PUSH1 0x20 SWAP1 DUP2 MUL ADD SWAP1 JUMP JUMPDEST PUSH1 0x0 DUP3 NOT DUP3 GT ISZERO PUSH2 0x2711 JUMPI PUSH2 0x2711 PUSH2 0x2798 JUMP JUMPDEST POP ADD SWAP1 JUMP JUMPDEST PUSH1 0x0 DUP3 PUSH2 0x2731 JUMPI PUSH4 0x4E487B71 PUSH1 0xE0 SHL DUP2 MSTORE PUSH1 0x12 PUSH1 0x4 MSTORE PUSH1 0x24 DUP2 REVERT JUMPDEST POP DIV SWAP1 JUMP JUMPDEST PUSH1 0x0 DUP2 PUSH1 0x0 NOT DIV DUP4 GT DUP3 ISZERO ISZERO AND ISZERO PUSH2 0x2750 JUMPI PUSH2 0x2750 PUSH2 0x2798 JUMP JUMPDEST POP MUL SWAP1 JUMP JUMPDEST PUSH1 0x0 DUP3 DUP3 LT ISZERO PUSH2 0x2767 JUMPI PUSH2 0x2767 PUSH2 0x2798 JUMP JUMPDEST POP SUB SWAP1 JUMP JUMPDEST PUSH1 0x0 JUMPDEST DUP4 DUP2 LT ISZERO PUSH2 0x2787 JUMPI DUP2 DUP2 ADD MLOAD DUP4 DUP3 ADD MSTORE PUSH1 0x20 ADD PUSH2 0x276F JUMP JUMPDEST DUP4 DUP2 GT ISZERO PUSH2 0x1C35 JUMPI POP POP PUSH1 0x0 SWAP2 ADD MSTORE JUMP JUMPDEST PUSH4 0x4E487B71 PUSH1 0xE0 SHL PUSH1 0x0 MSTORE PUSH1 0x11 PUSH1 0x4 MSTORE PUSH1 0x24 PUSH1 0x0 REVERT JUMPDEST PUSH4 0x4E487B71 PUSH1 0xE0 SHL PUSH1 0x0 MSTORE PUSH1 0x41 PUSH1 0x4 MSTORE PUSH1 0x24 PUSH1 0x0 REVERT JUMPDEST PUSH1 0x1 PUSH1 0x1 PUSH1 0xA0 SHL SUB DUP2 AND DUP2 EQ PUSH2 0x98D JUMPI PUSH1 0x0 DUP1 REVERT INVALID COINBASE PUSH5 0x6472657373 GASPRICE KECCAK256 PUSH13 0x6F772D6C6576656C2064656C65 PUSH8 0x6174652063616C6C KECCAK256 PUSH7 0x61696C6564A264 PUSH10 0x70667358221220FE5778 0xB9 MUL SDIV CALLVALUE PUSH14 0x5EFA2F0A2A71EFB8484FC632CDA1 0xD9 0xE0 0xE2 LOG1 SLT 0xDC SWAP9 JUMPDEST 0xE8 0xB8 PUSH5 0x736F6C6343 STOP ADDMOD MUL STOP CALLER "
		},
		"gasEstimates": {
			"creation": {
				"codeDepositCost": "2058800",
				"executionCost": "2185",
				"totalCost": "2060985"
			},
			"external": {
				"BONUS_MULTIPLIER()": "1073",
				"add(uint256)": "infinite",
				"allocPoint()": "1072",
				"deposit(uint256,uint256)": "infinite",
				"emergencyWithdraw(uint256)": "infinite",
				"getMultiplier(uint256,uint256)": "infinite",
				"getPoolLength()": "992",
				"initialize(address,uint256,uint256,uint256,address,address)": "infinite",
				"maxPredDeposit()": "1161",
				"owner()": "1181",
				"pause()": "23898",
				"paused()": "1125",
				"pendingPred(uint256,address)": "infinite",
				"poolInfo(uint256)": "4556",
				"poolLength()": "994",
				"pred()": "1215",
				"predPerBlock()": "1074",
				"prediction()": "1173",
				"renounceOwnership()": "23485",
				"setAllocPoint(uint256)": "infinite",
				"setMaxPredDeposit(uint256)": "20278",
				"startBlock()": "1007",
				"totalRewardDebt()": "1029",
				"transferOwnership(address)": "infinite",
				"unpause()": "23964",
				"updateMultiplier(uint256)": "21264",
				"updatePool(uint256)": "infinite",
				"upgradeTo(address)": "infinite",
				"upgradeToAndCall(address,bytes)": "infinite",
				"userInfo(uint256,address)": "2310",
				"wallet()": "1150",
				"withdraw(uint256,uint256)": "infinite"
			},
			"internal": {
				"_add(uint256,uint256)": "infinite",
				"_authorizeUpgrade(address)": "infinite",
				"safePredTransfer(address,uint256)": "infinite"
			}
		},
		"methodIdentifiers": {
			"BONUS_MULTIPLIER()": "8aa28550",
			"add(uint256)": "1003e2d2",
			"allocPoint()": "d3dd7eb7",
			"deposit(uint256,uint256)": "e2bbb158",
			"emergencyWithdraw(uint256)": "5312ea8e",
			"getMultiplier(uint256,uint256)": "8dbb1e3a",
			"getPoolLength()": "b3944d52",
			"initialize(address,uint256,uint256,uint256,address,address)": "bf9fe138",
			"maxPredDeposit()": "ae5241a0",
			"owner()": "8da5cb5b",
			"pause()": "8456cb59",
			"paused()": "5c975abb",
			"pendingPred(uint256,address)": "6450b8a9",
			"poolInfo(uint256)": "1526fe27",
			"poolLength()": "081e3eda",
			"pred()": "e5c9ad2e",
			"predPerBlock()": "1fc7be89",
			"prediction()": "2372c916",
			"renounceOwnership()": "715018a6",
			"setAllocPoint(uint256)": "e0747c96",
			"setMaxPredDeposit(uint256)": "c26780b0",
			"startBlock()": "48cd4cb1",
			"totalRewardDebt()": "83bb3877",
			"transferOwnership(address)": "f2fde38b",
			"unpause()": "3f4ba83a",
			"updateMultiplier(uint256)": "5ffe6146",
			"updatePool(uint256)": "51eb05a6",
			"upgradeTo(address)": "3659cfe6",
			"upgradeToAndCall(address,bytes)": "4f1ef286",
			"userInfo(uint256,address)": "93f1a40b",
			"wallet()": "521eb273",
			"withdraw(uint256,uint256)": "441a3e70"
		}
	},
	"abi": [
		{
			"anonymous": false,
			"inputs": [
				{
					"indexed": false,
					"internalType": "address",
					"name": "previousAdmin",
					"type": "address"
				},
				{
					"indexed": false,
					"internalType": "address",
					"name": "newAdmin",
					"type": "address"
				}
			],
			"name": "AdminChanged",
			"type": "event"
		},
		{
			"anonymous": false,
			"inputs": [
				{
					"indexed": true,
					"internalType": "address",
					"name": "beacon",
					"type": "address"
				}
			],
			"name": "BeaconUpgraded",
			"type": "event"
		},
		{
			"anonymous": false,
			"inputs": [
				{
					"indexed": true,
					"internalType": "address",
					"name": "user",
					"type": "address"
				},
				{
					"indexed": true,
					"internalType": "uint256",
					"name": "pid",
					"type": "uint256"
				},
				{
					"indexed": false,
					"internalType": "uint256",
					"name": "amount",
					"type": "uint256"
				}
			],
			"name": "Deposit",
			"type": "event"
		},
		{
			"anonymous": false,
			"inputs": [
				{
					"indexed": true,
					"internalType": "address",
					"name": "user",
					"type": "address"
				},
				{
					"indexed": true,
					"internalType": "uint256",
					"name": "pid",
					"type": "uint256"
				},
				{
					"indexed": false,
					"internalType": "uint256",
					"name": "amount",
					"type": "uint256"
				}
			],
			"name": "EmergencyWithdraw",
			"type": "event"
		},
		{
			"anonymous": false,
			"inputs": [
				{
					"indexed": true,
					"internalType": "address",
					"name": "previousOwner",
					"type": "address"
				},
				{
					"indexed": true,
					"internalType": "address",
					"name": "newOwner",
					"type": "address"
				}
			],
			"name": "OwnershipTransferred",
			"type": "event"
		},
		{
			"anonymous": false,
			"inputs": [
				{
					"indexed": false,
					"internalType": "address",
					"name": "account",
					"type": "address"
				}
			],
			"name": "Paused",
			"type": "event"
		},
		{
			"anonymous": false,
			"inputs": [
				{
					"indexed": false,
					"internalType": "address",
					"name": "account",
					"type": "address"
				}
			],
			"name": "Unpaused",
			"type": "event"
		},
		{
			"anonymous": false,
			"inputs": [
				{
					"indexed": true,
					"internalType": "address",
					"name": "implementation",
					"type": "address"
				}
			],
			"name": "Upgraded",
			"type": "event"
		},
		{
			"anonymous": false,
			"inputs": [
				{
					"indexed": true,
					"internalType": "address",
					"name": "user",
					"type": "address"
				},
				{
					"indexed": true,
					"internalType": "uint256",
					"name": "pid",
					"type": "uint256"
				},
				{
					"indexed": false,
					"internalType": "uint256",
					"name": "amount",
					"type": "uint256"
				}
			],
			"name": "Withdraw",
			"type": "event"
		},
		{
			"inputs": [],
			"name": "BONUS_MULTIPLIER",
			"outputs": [
				{
					"internalType": "uint256",
					"name": "",
					"type": "uint256"
				}
			],
			"stateMutability": "view",
			"type": "function"
		},
		{
			"inputs": [
				{
					"internalType": "uint256",
					"name": "_epoch",
					"type": "uint256"
				}
			],
			"name": "add",
			"outputs": [],
			"stateMutability": "nonpayable",
			"type": "function"
		},
		{
			"inputs": [],
			"name": "allocPoint",
			"outputs": [
				{
					"internalType": "uint256",
					"name": "",
					"type": "uint256"
				}
			],
			"stateMutability": "view",
			"type": "function"
		},
		{
			"inputs": [
				{
					"internalType": "uint256",
					"name": "_pid",
					"type": "uint256"
				},
				{
					"internalType": "uint256",
					"name": "_amount",
					"type": "uint256"
				}
			],
			"name": "deposit",
			"outputs": [],
			"stateMutability": "nonpayable",
			"type": "function"
		},
		{
			"inputs": [
				{
					"internalType": "uint256",
					"name": "_pid",
					"type": "uint256"
				}
			],
			"name": "emergencyWithdraw",
			"outputs": [],
			"stateMutability": "nonpayable",
			"type": "function"
		},
		{
			"inputs": [
				{
					"internalType": "uint256",
					"name": "_from",
					"type": "uint256"
				},
				{
					"internalType": "uint256",
					"name": "_to",
					"type": "uint256"
				}
			],
			"name": "getMultiplier",
			"outputs": [
				{
					"internalType": "uint256",
					"name": "",
					"type": "uint256"
				}
			],
			"stateMutability": "view",
			"type": "function"
		},
		{
			"inputs": [],
			"name": "getPoolLength",
			"outputs": [
				{
					"internalType": "uint256",
					"name": "",
					"type": "uint256"
				}
			],
			"stateMutability": "view",
			"type": "function"
		},
		{
			"inputs": [
				{
					"internalType": "contract IBEP20",
					"name": "_pred",
					"type": "address"
				},
				{
					"internalType": "uint256",
					"name": "_predPerBlock",
					"type": "uint256"
				},
				{
					"internalType": "uint256",
					"name": "_startBlock",
					"type": "uint256"
				},
				{
					"internalType": "uint256",
					"name": "_maxPredDeposit",
					"type": "uint256"
				},
				{
					"internalType": "contract PredictionWallet",
					"name": "_wallet",
					"type": "address"
				},
				{
					"internalType": "contract IPrediction",
					"name": "_prediction",
					"type": "address"
				}
			],
			"name": "initialize",
			"outputs": [],
			"stateMutability": "nonpayable",
			"type": "function"
		},
		{
			"inputs": [],
			"name": "maxPredDeposit",
			"outputs": [
				{
					"internalType": "uint256",
					"name": "",
					"type": "uint256"
				}
			],
			"stateMutability": "view",
			"type": "function"
		},
		{
			"inputs": [],
			"name": "owner",
			"outputs": [
				{
					"internalType": "address",
					"name": "",
					"type": "address"
				}
			],
			"stateMutability": "view",
			"type": "function"
		},
		{
			"inputs": [],
			"name": "pause",
			"outputs": [],
			"stateMutability": "nonpayable",
			"type": "function"
		},
		{
			"inputs": [],
			"name": "paused",
			"outputs": [
				{
					"internalType": "bool",
					"name": "",
					"type": "bool"
				}
			],
			"stateMutability": "view",
			"type": "function"
		},
		{
			"inputs": [
				{
					"internalType": "uint256",
					"name": "_pid",
					"type": "uint256"
				},
				{
					"internalType": "address",
					"name": "_user",
					"type": "address"
				}
			],
			"name": "pendingPred",
			"outputs": [
				{
					"internalType": "uint256",
					"name": "",
					"type": "uint256"
				}
			],
			"stateMutability": "view",
			"type": "function"
		},
		{
			"inputs": [
				{
					"internalType": "uint256",
					"name": "",
					"type": "uint256"
				}
			],
			"name": "poolInfo",
			"outputs": [
				{
					"internalType": "uint256",
					"name": "allocPoint",
					"type": "uint256"
				},
				{
					"internalType": "uint256",
					"name": "lastRewardBlock",
					"type": "uint256"
				},
				{
					"internalType": "uint256",
					"name": "accPredPerShare",
					"type": "uint256"
				},
				{
					"internalType": "uint256",
					"name": "epoch",
					"type": "uint256"
				}
			],
			"stateMutability": "view",
			"type": "function"
		},
		{
			"inputs": [],
			"name": "poolLength",
			"outputs": [
				{
					"internalType": "uint256",
					"name": "",
					"type": "uint256"
				}
			],
			"stateMutability": "view",
			"type": "function"
		},
		{
			"inputs": [],
			"name": "pred",
			"outputs": [
				{
					"internalType": "contract IBEP20",
					"name": "",
					"type": "address"
				}
			],
			"stateMutability": "view",
			"type": "function"
		},
		{
			"inputs": [],
			"name": "predPerBlock",
			"outputs": [
				{
					"internalType": "uint256",
					"name": "",
					"type": "uint256"
				}
			],
			"stateMutability": "view",
			"type": "function"
		},
		{
			"inputs": [],
			"name": "prediction",
			"outputs": [
				{
					"internalType": "contract IPrediction",
					"name": "",
					"type": "address"
				}
			],
			"stateMutability": "view",
			"type": "function"
		},
		{
			"inputs": [],
			"name": "renounceOwnership",
			"outputs": [],
			"stateMutability": "nonpayable",
			"type": "function"
		},
		{
			"inputs": [
				{
					"internalType": "uint256",
					"name": "_allocPoint",
					"type": "uint256"
				}
			],
			"name": "setAllocPoint",
			"outputs": [],
			"stateMutability": "nonpayable",
			"type": "function"
		},
		{
			"inputs": [
				{
					"internalType": "uint256",
					"name": "_maxPredDeposit",
					"type": "uint256"
				}
			],
			"name": "setMaxPredDeposit",
			"outputs": [],
			"stateMutability": "nonpayable",
			"type": "function"
		},
		{
			"inputs": [],
			"name": "startBlock",
			"outputs": [
				{
					"internalType": "uint256",
					"name": "",
					"type": "uint256"
				}
			],
			"stateMutability": "view",
			"type": "function"
		},
		{
			"inputs": [],
			"name": "totalRewardDebt",
			"outputs": [
				{
					"internalType": "uint256",
					"name": "",
					"type": "uint256"
				}
			],
			"stateMutability": "view",
			"type": "function"
		},
		{
			"inputs": [
				{
					"internalType": "address",
					"name": "newOwner",
					"type": "address"
				}
			],
			"name": "transferOwnership",
			"outputs": [],
			"stateMutability": "nonpayable",
			"type": "function"
		},
		{
			"inputs": [],
			"name": "unpause",
			"outputs": [],
			"stateMutability": "nonpayable",
			"type": "function"
		},
		{
			"inputs": [
				{
					"internalType": "uint256",
					"name": "multiplierNumber",
					"type": "uint256"
				}
			],
			"name": "updateMultiplier",
			"outputs": [],
			"stateMutability": "nonpayable",
			"type": "function"
		},
		{
			"inputs": [
				{
					"internalType": "uint256",
					"name": "_pid",
					"type": "uint256"
				}
			],
			"name": "updatePool",
			"outputs": [],
			"stateMutability": "nonpayable",
			"type": "function"
		},
		{
			"inputs": [
				{
					"internalType": "address",
					"name": "newImplementation",
					"type": "address"
				}
			],
			"name": "upgradeTo",
			"outputs": [],
			"stateMutability": "nonpayable",
			"type": "function"
		},
		{
			"inputs": [
				{
					"internalType": "address",
					"name": "newImplementation",
					"type": "address"
				},
				{
					"internalType": "bytes",
					"name": "data",
					"type": "bytes"
				}
			],
			"name": "upgradeToAndCall",
			"outputs": [],
			"stateMutability": "payable",
			"type": "function"
		},
		{
			"inputs": [
				{
					"internalType": "uint256",
					"name": "",
					"type": "uint256"
				},
				{
					"internalType": "address",
					"name": "",
					"type": "address"
				}
			],
			"name": "userInfo",
			"outputs": [
				{
					"internalType": "uint256",
					"name": "amount",
					"type": "uint256"
				},
				{
					"internalType": "uint256",
					"name": "rewardDebt",
					"type": "uint256"
				}
			],
			"stateMutability": "view",
			"type": "function"
		},
		{
			"inputs": [],
			"name": "wallet",
			"outputs": [
				{
					"internalType": "contract PredictionWallet",
					"name": "",
					"type": "address"
				}
			],
			"stateMutability": "view",
			"type": "function"
		},
		{
			"inputs": [
				{
					"internalType": "uint256",
					"name": "_pid",
					"type": "uint256"
				},
				{
					"internalType": "uint256",
					"name": "_amount",
					"type": "uint256"
				}
			],
			"name": "withdraw",
			"outputs": [],
			"stateMutability": "nonpayable",
			"type": "function"
		}
	]
}