{
  "_format": "hh-sol-artifact-1",
  "contractName": "LoserPredictionPool",
  "sourceName": "contracts/LoserPredictionPool.sol",
  "abi": [
    {
      "anonymous": false,
      "inputs": [
        {
          "indexed": false,
          "internalType": "address",
          "name": "previousAdmin",
          "type": "address"
        },
        {
          "indexed": false,
          "internalType": "address",
          "name": "newAdmin",
          "type": "address"
        }
      ],
      "name": "AdminChanged",
      "type": "event"
    },
    {
      "anonymous": false,
      "inputs": [
        {
          "indexed": true,
          "internalType": "address",
          "name": "beacon",
          "type": "address"
        }
      ],
      "name": "BeaconUpgraded",
      "type": "event"
    },
    {
      "anonymous": false,
      "inputs": [
        {
          "indexed": true,
          "internalType": "address",
          "name": "user",
          "type": "address"
        },
        {
          "indexed": true,
          "internalType": "uint256",
          "name": "pid",
          "type": "uint256"
        },
        {
          "indexed": false,
          "internalType": "uint256",
          "name": "amount",
          "type": "uint256"
        }
      ],
      "name": "Deposit",
      "type": "event"
    },
    {
      "anonymous": false,
      "inputs": [
        {
          "indexed": true,
          "internalType": "address",
          "name": "user",
          "type": "address"
        },
        {
          "indexed": true,
          "internalType": "uint256",
          "name": "pid",
          "type": "uint256"
        },
        {
          "indexed": false,
          "internalType": "uint256",
          "name": "amount",
          "type": "uint256"
        }
      ],
      "name": "EmergencyWithdraw",
      "type": "event"
    },
    {
      "anonymous": false,
      "inputs": [
        {
          "indexed": false,
          "internalType": "address",
          "name": "operator",
          "type": "address"
        }
      ],
      "name": "NewOperatorAddress",
      "type": "event"
    },
    {
      "anonymous": false,
      "inputs": [
        {
          "indexed": true,
          "internalType": "address",
          "name": "previousOwner",
          "type": "address"
        },
        {
          "indexed": true,
          "internalType": "address",
          "name": "newOwner",
          "type": "address"
        }
      ],
      "name": "OwnershipTransferred",
      "type": "event"
    },
    {
      "anonymous": false,
      "inputs": [
        {
          "indexed": false,
          "internalType": "address",
          "name": "account",
          "type": "address"
        }
      ],
      "name": "Paused",
      "type": "event"
    },
    {
      "anonymous": false,
      "inputs": [
        {
          "indexed": false,
          "internalType": "address",
          "name": "account",
          "type": "address"
        }
      ],
      "name": "Unpaused",
      "type": "event"
    },
    {
      "anonymous": false,
      "inputs": [
        {
          "indexed": true,
          "internalType": "address",
          "name": "implementation",
          "type": "address"
        }
      ],
      "name": "Upgraded",
      "type": "event"
    },
    {
      "anonymous": false,
      "inputs": [
        {
          "indexed": true,
          "internalType": "address",
          "name": "user",
          "type": "address"
        },
        {
          "indexed": true,
          "internalType": "uint256",
          "name": "pid",
          "type": "uint256"
        },
        {
          "indexed": false,
          "internalType": "uint256",
          "name": "amount",
          "type": "uint256"
        }
      ],
      "name": "Withdraw",
      "type": "event"
    },
    {
      "inputs": [],
      "name": "BONUS_MULTIPLIER",
      "outputs": [
        {
          "internalType": "uint256",
          "name": "",
          "type": "uint256"
        }
      ],
      "stateMutability": "view",
      "type": "function"
    },
    {
      "inputs": [
        {
          "internalType": "uint256",
          "name": "_epoch",
          "type": "uint256"
        }
      ],
      "name": "add",
      "outputs": [],
      "stateMutability": "nonpayable",
      "type": "function"
    },
    {
      "inputs": [],
      "name": "allocPoint",
      "outputs": [
        {
          "internalType": "uint256",
          "name": "",
          "type": "uint256"
        }
      ],
      "stateMutability": "view",
      "type": "function"
    },
    {
      "inputs": [],
      "name": "bnbPerBlock",
      "outputs": [
        {
          "internalType": "uint256",
          "name": "",
          "type": "uint256"
        }
      ],
      "stateMutability": "view",
      "type": "function"
    },
    {
      "inputs": [
        {
          "internalType": "uint256",
          "name": "_pid",
          "type": "uint256"
        },
        {
          "internalType": "uint256",
          "name": "_amount",
          "type": "uint256"
        }
      ],
      "name": "deposit",
      "outputs": [],
      "stateMutability": "nonpayable",
      "type": "function"
    },
    {
      "inputs": [
        {
          "internalType": "uint256",
          "name": "_pid",
          "type": "uint256"
        }
      ],
      "name": "emergencyWithdraw",
      "outputs": [],
      "stateMutability": "nonpayable",
      "type": "function"
    },
    {
      "inputs": [
        {
          "internalType": "uint256",
          "name": "_from",
          "type": "uint256"
        },
        {
          "internalType": "uint256",
          "name": "_to",
          "type": "uint256"
        }
      ],
      "name": "getMultiplier",
      "outputs": [
        {
          "internalType": "uint256",
          "name": "",
          "type": "uint256"
        }
      ],
      "stateMutability": "view",
      "type": "function"
    },
    {
      "inputs": [],
      "name": "getPoolLength",
      "outputs": [
        {
          "internalType": "uint256",
          "name": "",
          "type": "uint256"
        }
      ],
      "stateMutability": "view",
      "type": "function"
    },
    {
      "inputs": [
        {
          "internalType": "address",
          "name": "_operator",
          "type": "address"
        },
        {
          "internalType": "contract IBEP20",
          "name": "_pred",
          "type": "address"
        },
        {
          "internalType": "uint256",
          "name": "_bnbPerBlock",
          "type": "uint256"
        },
        {
          "internalType": "uint256",
          "name": "_startBlock",
          "type": "uint256"
        },
        {
          "internalType": "uint256",
          "name": "_maxPredDeposit",
          "type": "uint256"
        },
        {
          "internalType": "contract PredictionWallet",
          "name": "_wallet",
          "type": "address"
        },
        {
          "internalType": "contract IPrediction",
          "name": "_prediction",
          "type": "address"
        }
      ],
      "name": "initialize",
      "outputs": [],
      "stateMutability": "nonpayable",
      "type": "function"
    },
    {
      "inputs": [
        {
          "internalType": "address",
          "name": "preder",
          "type": "address"
        },
        {
          "internalType": "uint256",
          "name": "round",
          "type": "uint256"
        }
      ],
      "name": "lostRound",
      "outputs": [
        {
          "internalType": "bool",
          "name": "",
          "type": "bool"
        }
      ],
      "stateMutability": "view",
      "type": "function"
    },
    {
      "inputs": [],
      "name": "maxPredDeposit",
      "outputs": [
        {
          "internalType": "uint256",
          "name": "",
          "type": "uint256"
        }
      ],
      "stateMutability": "view",
      "type": "function"
    },
    {
      "inputs": [],
      "name": "operatorAddress",
      "outputs": [
        {
          "internalType": "address",
          "name": "",
          "type": "address"
        }
      ],
      "stateMutability": "view",
      "type": "function"
    },
    {
      "inputs": [],
      "name": "owner",
      "outputs": [
        {
          "internalType": "address",
          "name": "",
          "type": "address"
        }
      ],
      "stateMutability": "view",
      "type": "function"
    },
    {
      "inputs": [],
      "name": "pause",
      "outputs": [],
      "stateMutability": "nonpayable",
      "type": "function"
    },
    {
      "inputs": [],
      "name": "paused",
      "outputs": [
        {
          "internalType": "bool",
          "name": "",
          "type": "bool"
        }
      ],
      "stateMutability": "view",
      "type": "function"
    },
    {
      "inputs": [
        {
          "internalType": "uint256",
          "name": "_pid",
          "type": "uint256"
        },
        {
          "internalType": "address",
          "name": "_user",
          "type": "address"
        }
      ],
      "name": "pendingBNB",
      "outputs": [
        {
          "internalType": "uint256",
          "name": "",
          "type": "uint256"
        }
      ],
      "stateMutability": "view",
      "type": "function"
    },
    {
      "inputs": [
        {
          "internalType": "uint256",
          "name": "",
          "type": "uint256"
        }
      ],
      "name": "poolInfo",
      "outputs": [
        {
          "internalType": "uint256",
          "name": "allocPoint",
          "type": "uint256"
        },
        {
          "internalType": "uint256",
          "name": "lastRewardBlock",
          "type": "uint256"
        },
        {
          "internalType": "uint256",
          "name": "accBNBPerShare",
          "type": "uint256"
        },
        {
          "internalType": "uint256",
          "name": "epoch",
          "type": "uint256"
        },
        {
          "internalType": "uint256",
          "name": "amount",
          "type": "uint256"
        }
      ],
      "stateMutability": "view",
      "type": "function"
    },
    {
      "inputs": [],
      "name": "poolLength",
      "outputs": [
        {
          "internalType": "uint256",
          "name": "",
          "type": "uint256"
        }
      ],
      "stateMutability": "view",
      "type": "function"
    },
    {
      "inputs": [],
      "name": "pred",
      "outputs": [
        {
          "internalType": "contract IBEP20",
          "name": "",
          "type": "address"
        }
      ],
      "stateMutability": "view",
      "type": "function"
    },
    {
      "inputs": [],
      "name": "prediction",
      "outputs": [
        {
          "internalType": "contract IPrediction",
          "name": "",
          "type": "address"
        }
      ],
      "stateMutability": "view",
      "type": "function"
    },
    {
      "inputs": [],
      "name": "renounceOwnership",
      "outputs": [],
      "stateMutability": "nonpayable",
      "type": "function"
    },
    {
      "inputs": [
        {
          "internalType": "uint256",
          "name": "_allocPoint",
          "type": "uint256"
        }
      ],
      "name": "setAllocPoint",
      "outputs": [],
      "stateMutability": "nonpayable",
      "type": "function"
    },
    {
      "inputs": [
        {
          "internalType": "uint256",
          "name": "_maxPredDeposit",
          "type": "uint256"
        }
      ],
      "name": "setMaxPredDeposit",
      "outputs": [],
      "stateMutability": "nonpayable",
      "type": "function"
    },
    {
      "inputs": [
        {
          "internalType": "address",
          "name": "_operatorAddress",
          "type": "address"
        }
      ],
      "name": "setOperator",
      "outputs": [],
      "stateMutability": "nonpayable",
      "type": "function"
    },
    {
      "inputs": [],
      "name": "startBlock",
      "outputs": [
        {
          "internalType": "uint256",
          "name": "",
          "type": "uint256"
        }
      ],
      "stateMutability": "view",
      "type": "function"
    },
    {
      "inputs": [],
      "name": "totalRewardDebt",
      "outputs": [
        {
          "internalType": "uint256",
          "name": "",
          "type": "uint256"
        }
      ],
      "stateMutability": "view",
      "type": "function"
    },
    {
      "inputs": [
        {
          "internalType": "address",
          "name": "newOwner",
          "type": "address"
        }
      ],
      "name": "transferOwnership",
      "outputs": [],
      "stateMutability": "nonpayable",
      "type": "function"
    },
    {
      "inputs": [],
      "name": "unpause",
      "outputs": [],
      "stateMutability": "nonpayable",
      "type": "function"
    },
    {
      "inputs": [
        {
          "internalType": "uint256",
          "name": "multiplierNumber",
          "type": "uint256"
        }
      ],
      "name": "updateMultiplier",
      "outputs": [],
      "stateMutability": "nonpayable",
      "type": "function"
    },
    {
      "inputs": [
        {
          "internalType": "uint256",
          "name": "_pid",
          "type": "uint256"
        }
      ],
      "name": "updatePool",
      "outputs": [],
      "stateMutability": "nonpayable",
      "type": "function"
    },
    {
      "inputs": [
        {
          "internalType": "address",
          "name": "newImplementation",
          "type": "address"
        }
      ],
      "name": "upgradeTo",
      "outputs": [],
      "stateMutability": "nonpayable",
      "type": "function"
    },
    {
      "inputs": [
        {
          "internalType": "address",
          "name": "newImplementation",
          "type": "address"
        },
        {
          "internalType": "bytes",
          "name": "data",
          "type": "bytes"
        }
      ],
      "name": "upgradeToAndCall",
      "outputs": [],
      "stateMutability": "payable",
      "type": "function"
    },
    {
      "inputs": [
        {
          "internalType": "uint256",
          "name": "",
          "type": "uint256"
        },
        {
          "internalType": "address",
          "name": "",
          "type": "address"
        }
      ],
      "name": "userInfo",
      "outputs": [
        {
          "internalType": "uint256",
          "name": "amount",
          "type": "uint256"
        },
        {
          "internalType": "uint256",
          "name": "rewardDebt",
          "type": "uint256"
        }
      ],
      "stateMutability": "view",
      "type": "function"
    },
    {
      "inputs": [],
      "name": "wallet",
      "outputs": [
        {
          "internalType": "contract PredictionWallet",
          "name": "",
          "type": "address"
        }
      ],
      "stateMutability": "view",
      "type": "function"
    },
    {
      "inputs": [
        {
          "internalType": "uint256",
          "name": "_pid",
          "type": "uint256"
        },
        {
          "internalType": "uint256",
          "name": "_amount",
          "type": "uint256"
        }
      ],
      "name": "withdraw",
      "outputs": [],
      "stateMutability": "nonpayable",
      "type": "function"
    },
    {
      "inputs": [
        {
          "internalType": "address",
          "name": "preder",
          "type": "address"
        },
        {
          "internalType": "uint256",
          "name": "round",
          "type": "uint256"
        }
      ],
      "name": "wonRound",
      "outputs": [
        {
          "internalType": "bool",
          "name": "",
          "type": "bool"
        }
      ],
      "stateMutability": "view",
      "type": "function"
    }
  ],
  "bytecode": "0x608060405234801561001057600080fd5b50612c18806100206000396000f3fe6080604052600436106101cf5760003560e01c80635ffe6146116100f8578063ae5241a011610090578063ae5241a01461054f578063b3944d52146101f6578063b3ab15fb14610566578063c26780b014610586578063d3dd7eb7146105a7578063e0747c96146105be578063e2bbb158146105de578063e5c9ad2e146105fe578063f2fde38b1461061e576101cf565b80635ffe61461461042e57806363a1fce21461044e578063715018a61461046e57806383bb3877146104835780638456cb591461049a5780638aa28550146104af5780638da5cb5b146104c55780638dbb1e3a146104da57806393f1a40b146104fa576101cf565b80633f4ba83a1161016b5780633f4ba83a14610341578063441a3e701461035657806348cd4cb1146103765780634f1ef2861461038d57806350b48710146103a057806351eb05a6146103b6578063521eb273146103d65780635312ea8e146103f65780635c975abb14610416576101cf565b80630729da0b146101d4578063081e3eda146101f65780631003e2d21461021b578063127effb21461023b5780631521604e146102695780631526fe27146102995780631c8d04e2146102e15780632372c916146103015780633659cfe614610321575b600080fd5b3480156101e057600080fd5b506101f46101ef3660046126b2565b61063e565b005b34801561020257600080fd5b50610101545b6040519081526020015b60405180910390f35b34801561022757600080fd5b506101f4610236366004612771565b610734565b34801561024757600080fd5b506101065461025c906001600160a01b031681565b6040516102129190612952565b34801561027557600080fd5b5061028961028436600461272c565b610af0565b6040519015158152602001610212565b3480156102a557600080fd5b506102b96102b4366004612771565b610b7a565b604080519586526020860194909452928401919091526060830152608082015260a001610212565b3480156102ed57600080fd5b506102896102fc36600461272c565b610bbc565b34801561030d57600080fd5b5060fc5461025c906001600160a01b031681565b34801561032d57600080fd5b506101f461033c3660046125f5565b610bef565b34801561034d57600080fd5b506101f4610c16565b34801561036257600080fd5b506101f46103713660046127d0565b610c4f565b34801561038257600080fd5b506102086101045481565b6101f461039b366004612611565b610e7b565b3480156103ac57600080fd5b5061020860fd5481565b3480156103c257600080fd5b506101f46103d1366004612771565b610e94565b3480156103e257600080fd5b5060ff5461025c906001600160a01b031681565b34801561040257600080fd5b506101f4610411366004612771565b61102c565b34801561042257600080fd5b5060335460ff16610289565b34801561043a57600080fd5b506101f4610449366004612771565b61113f565b34801561045a57600080fd5b506102086104693660046127a1565b611173565b34801561047a57600080fd5b506101f4611332565b34801561048f57600080fd5b506102086101055481565b3480156104a657600080fd5b506101f461136b565b3480156104bb57600080fd5b5061020860fe5481565b3480156104d157600080fd5b5061025c6113a2565b3480156104e657600080fd5b506102086104f53660046127d0565b6113b1565b34801561050657600080fd5b5061053a6105153660046127a1565b6101026020908152600092835260408084209091529082529020805460019091015482565b60408051928352602083019190915201610212565b34801561055b57600080fd5b506102086101005481565b34801561057257600080fd5b506101f46105813660046125f5565b6113c5565b34801561059257600080fd5b506101f46105a1366004612771565b61010055565b3480156105b357600080fd5b506102086101035481565b3480156105ca57600080fd5b506101f46105d9366004612771565b61149a565b3480156105ea57600080fd5b506101f46105f93660046127d0565b611522565b34801561060a57600080fd5b5060fb5461025c906001600160a01b031681565b34801561062a57600080fd5b506101f46106393660046125f5565b611996565b600054610100900460ff1680610657575060005460ff16155b61067c5760405162461bcd60e51b815260040161067390612a0a565b60405180910390fd5b600054610100900460ff161580156106a7576000805460ff1961ff0019909116610100171660011790555b6106af611a33565b61010680546001600160a01b03808b166001600160a01b03199283161790925560fb80548a841690831617905560fd88905561010487905560ff805486841690831617905560fc805492851692909116919091179055610100849055620f424060fe5560c861010355801561072a576000805461ff00191690555b5050505050505050565b610106546001600160a01b0316331461077e5760405162461bcd60e51b815260206004820152600c60248201526b2737ba1037b832b930ba37b960a11b6044820152606401610673565b60fc5460405163023c4c9f60e61b8152600481018390526000916001600160a01b031690638f1327c09060240160006040518083038186803b1580156107c357600080fd5b505afa1580156107d7573d6000803e3d6000fd5b505050506040513d6000823e601f3d908101601f191682016040526107ff91908101906127f1565b505050505050945050505050806108695760405162461bcd60e51b815260206004820152602860248201527f526f756e6420776173206e6f74207375636365737366756c206f72206e6f7420604482015267636f6d706c65746560c01b6064820152608401610673565b60fc5460408051630ecce30160e31b815290516000926001600160a01b031691637667180891600480830192602092919082900301818787803b1580156108af57600080fd5b505af11580156108c3573d6000803e3d6000fd5b505050506040513d601f19601f820116820180604052508101906108e79190612789565b90508281146109d75760fc5460405163023c4c9f60e61b8152600481018390526000916001600160a01b031690638f1327c09060240160006040518083038186803b15801561093557600080fd5b505afa158015610949573d6000803e3d6000fd5b505050506040513d6000823e601f3d908101601f1916820160405261097191908101906127f1565b50505050505094505050505080156109d55760405162461bcd60e51b815260206004820152602160248201527f43757272656e7420526f756e6420697320616c726561647920636f6d706c65746044820152606560f81b6064820152608401610673565b505b6101015415610ade57610101546000906109f390600190612b37565b9050836101018281548110610a1857634e487b7160e01b600052603260045260246000fd5b90600052602060002090600502016003015410610a8f5760405162461bcd60e51b815260206004820152602f60248201527f4e65772065706f63682063616e6e6f74206265206c657373206f72206571756160448201526e0d840e8de40e0c2e6e840cae0dec6d608b1b6064820152608401610673565b610a9881610e94565b610101805460009190610aad90600190612b37565b81548110610acb57634e487b7160e01b600052603260045260246000fd5b6000918252602090912060059091020155505b610aeb6101035484611ab7565b505050565b60fc54604051630a90b02760e11b81526000916001600160a01b031690631521604e90610b239086908690600401612966565b60206040518083038186803b158015610b3b57600080fd5b505afa158015610b4f573d6000803e3d6000fd5b505050506040513d601f19601f82011682018060405250810190610b739190612757565b9392505050565b6101018181548110610b8b57600080fd5b6000918252602090912060059091020180546001820154600283015460038401546004909401549294509092909185565b60fc54604051630e46827160e11b81526000916001600160a01b031690631c8d04e290610b239086908690600401612966565b610bf881611bfc565b610c1381604051806020016040528060008152506000611c2b565b50565b33610c1f6113a2565b6001600160a01b031614610c455760405162461bcd60e51b815260040161067390612a58565b610c4d611d72565b565b60335460ff1615610c725760405162461bcd60e51b8152600401610673906129e0565b60006101018381548110610c9657634e487b7160e01b600052603260045260246000fd5b60009182526020808320868452610102825260408085203386529092529220805460059092029092019250831115610d055760405162461bcd60e51b81526020600482015260126024820152711dda5d1a191c985dce881b9bdd0819dbdbd960721b6044820152606401610673565b610d0e84610e94565b6000610d4f8260010154610d4968327cb2734119d3b7a9601e1b610d4387600201548760000154611dd890919063ffffffff16565b90611de4565b90611df0565b90508015610d6157610d613382611dfc565b8315610da0578154610d739085611df0565b82556004830154610d849085611df0565b600484015560fb54610da0906001600160a01b03163386611e94565b60028301548254610dc29168327cb2734119d3b7a9601e1b91610d4391611dd8565b8260010181905550826101018681548110610ded57634e487b7160e01b600052603260045260246000fd5b9060005260206000209060050201600082015481600001556001820154816001015560028201548160020155600382015481600301556004820154816004015590505084336001600160a01b03167ff279e6a1f5e320cca91135676d9cb6e44ca8a08c0b88342bcdb1144f6511b56886604051610e6c91815260200190565b60405180910390a35050505050565b610e8482611bfc565b610e9082826001611c2b565b5050565b60006101018281548110610eb857634e487b7160e01b600052603260045260246000fd5b9060005260206000209060050201905080600101544311610ed95750610c13565b60fb546040516370a0823160e01b81526000916001600160a01b0316906370a0823190610f0a903090600401612952565b60206040518083038186803b158015610f2257600080fd5b505afa158015610f36573d6000803e3d6000fd5b505050506040513d601f19601f82011682018060405250810190610f5a9190612789565b905080610f6e575043600190910155610c13565b6000610f7e8360010154436113b1565b90506000610fac61010354610d438660000154610fa660fd5487611dd890919063ffffffff16565b90611dd8565b6101055460ff54919250600091610fcf916001600160a01b039091163190611df0565b9050808210610fdc578091505b611004610ff985610d438568327cb2734119d3b7a9601e1b611dd8565b600287015490611eea565b6002860155610105546110179083611eea565b61010555505043600190930192909255505050565b60335460ff1661104e5760405162461bcd60e51b8152600401610673906129b2565b6000610101828154811061107257634e487b7160e01b600052603260045260246000fd5b600091825260208083208584526101028252604080852033865290925290832080548482556001820185905560026005909402909201928301549294509290916110d5908290610d499068327cb2734119d3b7a9601e1b90610d43908790611dd8565b90506101055481116110f457610105546110ef9082611df0565b610105555b60fb5461110b906001600160a01b03163384611e94565b604051828152859033907fbb757047c2b5f3974fe26b7c10f732e7bce710b0952a71082702781e62ae059590602001610e6c565b336111486113a2565b6001600160a01b03161461116e5760405162461bcd60e51b815260040161067390612a58565b60fe55565b600080610101848154811061119857634e487b7160e01b600052603260045260246000fd5b60009182526020808320878452610102825260408085206001600160a01b03808a1687529352808520600260059095029092019384015460fb5491516370a0823160e01b815294965091949193919216906370a08231906111fd903090600401612952565b60206040518083038186803b15801561121557600080fd5b505afa158015611229573d6000803e3d6000fd5b505050506040513d601f19601f8201168201806040525081019061124d9190612789565b905083600101544311801561126157508015155b156112f85760006112768560010154436113b1565b9050600061129e61010354610d438860000154610fa660fd5487611dd890919063ffffffff16565b6101055460ff549192506000916112c1916001600160a01b039091163190611df0565b90508082106112ce578091505b6112f26112eb85610d438568327cb2734119d3b7a9601e1b611dd8565b8690611eea565b94505050505b6113278360010154610d4968327cb2734119d3b7a9601e1b610d43868860000154611dd890919063ffffffff16565b979650505050505050565b3361133b6113a2565b6001600160a01b0316146113615760405162461bcd60e51b815260040161067390612a58565b610c4d6000611ef6565b336113746113a2565b6001600160a01b03161461139a5760405162461bcd60e51b815260040161067390612a58565b610c4d611f48565b60c9546001600160a01b031690565b60fe54600090610b7390610fa68486611df0565b336113ce6113a2565b6001600160a01b0316146113f45760405162461bcd60e51b815260040161067390612a58565b6001600160a01b0381166114435760405162461bcd60e51b815260206004820152601660248201527543616e6e6f74206265207a65726f206164647265737360501b6044820152606401610673565b61010680546001600160a01b0319166001600160a01b0383161790556040517fc47d127c07bdd56c5ccba00463ce3bd3c1bca71b4670eea6e5d0c02e4aa156e29061148f908390612952565b60405180910390a150565b336114a36113a2565b6001600160a01b0316146114c95760405162461bcd60e51b815260040161067390612a58565b610101546000906114dc90600190612b37565b90506114e781610e94565b81610101828154811061150a57634e487b7160e01b600052603260045260246000fd5b60009182526020909120600590910201555061010355565b60335460ff16156115455760405162461bcd60e51b8152600401610673906129e0565b6000610101838154811061156957634e487b7160e01b600052603260045260246000fd5b60009182526020918290206040805160a081018252600590930290910180548352600181015493830193909352600283015482820152600383015460608301819052600493840154608084015260fc549151630e46827160e11b81529294506001600160a01b0390911692631c8d04e2926115e8923392909101612966565b60206040518083038186803b15801561160057600080fd5b505afa158015611614573d6000803e3d6000fd5b505050506040513d601f19601f820116820180604052508101906116389190612757565b61168f5760405162461bcd60e51b815260206004820152602260248201527f446964206e6f74206c6f736520746869732050726564696374696f6e20726f756044820152611b9960f21b6064820152608401610673565b60008381526101026020908152604080832033845290915290206116b284610e94565b8054156117025760006116ee8260010154610d4968327cb2734119d3b7a9601e1b610d4387604001518760000154611dd890919063ffffffff16565b90508015611700576117003382611dfc565b505b82156118cf5760fb546040516370a0823160e01b81526000916001600160a01b0316906370a0823190611739903090600401612952565b60206040518083038186803b15801561175157600080fd5b505afa158015611765573d6000803e3d6000fd5b505050506040513d601f19601f820116820180604052508101906117899190612789565b60fb549091506117a4906001600160a01b0316333087611fa0565b60fb546040516370a0823160e01b81526118349161182c9184916001600160a01b0316906370a08231906117dc903090600401612952565b60206040518083038186803b1580156117f457600080fd5b505afa158015611808573d6000803e3d6000fd5b505050506040513d601f19601f82011682018060405250810190610d499190612789565b835490611eea565b825560fb546040516370a0823160e01b81526118799161186e9184916001600160a01b0316906370a08231906117dc903090600401612952565b608085015190611eea565b608084015261010054825411156118cd5760405162461bcd60e51b815260206004820152601860248201527713585e08141491510811195c1bdcda5d0814995858da195960421b6044820152606401610673565b505b604082015181546118f19168327cb2734119d3b7a9601e1b91610d4391611dd8565b816001018190555081610101858154811061191c57634e487b7160e01b600052603260045260246000fd5b600091825260209182902083516005909202019081558282015160018201556040808401516002830155606084015160038301556080909301516004909101559051848152859133917f90890809c654f11d6e72a28fa60149770a0d11ec6c92319d6ceb2bb0a4ea1a15910160405180910390a350505050565b3361199f6113a2565b6001600160a01b0316146119c55760405162461bcd60e51b815260040161067390612a58565b6001600160a01b038116611a2a5760405162461bcd60e51b815260206004820152602660248201527f4f776e61626c653a206e6577206f776e657220697320746865207a65726f206160448201526564647265737360d01b6064820152608401610673565b610c1381611ef6565b600054610100900460ff1680611a4c575060005460ff16155b611a685760405162461bcd60e51b815260040161067390612a0a565b600054610100900460ff16158015611a93576000805460ff1961ff0019909116610100171660011790555b611a9b611fde565b611aa3612051565b8015610c13576000805461ff001916905550565b33611ac06113a2565b6001600160a01b031614611ae65760405162461bcd60e51b815260040161067390612a58565b6000610104544311611afb5761010454611afd565b435b6040805160a08101825294855260208501918252600090850181815260608601948552608086018281526101018054600181018255935295517f109ea3cebb188b9c1b9fc5bb3920be60dfdc8699098dff92f3d80daaca74768960059093029283015591517f109ea3cebb188b9c1b9fc5bb3920be60dfdc8699098dff92f3d80daaca74768a82015590517f109ea3cebb188b9c1b9fc5bb3920be60dfdc8699098dff92f3d80daaca74768b82015591517f109ea3cebb188b9c1b9fc5bb3920be60dfdc8699098dff92f3d80daaca74768c8301555090517f109ea3cebb188b9c1b9fc5bb3920be60dfdc8699098dff92f3d80daaca74768d90910155565b33611c056113a2565b6001600160a01b031614610c135760405162461bcd60e51b815260040161067390612a58565b6000611c356120ba565b9050611c40846120e8565b600083511180611c4d5750815b15611c5e57611c5c8484612194565b505b7f4910fdfa16fed3260ed0e7147f7cc6da11a60208b5b9406d12a635614ffd9143805460ff16611d6b57805460ff19166001178155604051611cd9908690611caa908590602401612952565b60408051601f198184030181529190526020810180516001600160e01b0316631b2ce7f360e11b179052612194565b50805460ff19168155611cea6120ba565b6001600160a01b0316826001600160a01b031614611d625760405162461bcd60e51b815260206004820152602f60248201527f45524331393637557067726164653a207570677261646520627265616b73206660448201526e75727468657220757067726164657360881b6064820152608401610673565b611d6b85612286565b5050505050565b60335460ff16611d945760405162461bcd60e51b8152600401610673906129b2565b6033805460ff191690557f5db9ee0a495bf2e6ff9c91a7834c1ba4fdd244a5e8aa4e537bd38aeae4b073aa335b604051611dce9190612952565b60405180910390a1565b6000610b738284612b18565b6000610b738284612af8565b6000610b738284612b37565b60ff54604051635944b01760e01b8152611e8c916001600160a01b031690635944b01790611e309086908690600401612966565b602060405180830381600087803b158015611e4a57600080fd5b505af1158015611e5e573d6000803e3d6000fd5b505050506040513d601f19601f82011682018060405250810190611e829190612789565b6101055490611df0565b610105555050565b610aeb8363a9059cbb60e01b8484604051602401611eb3929190612966565b60408051601f198184030181529190526020810180516001600160e01b03166001600160e01b0319909316929092179091526122c6565b6000610b738284612ae0565b60c980546001600160a01b038381166001600160a01b0319831681179093556040519116919082907f8be0079c531659141344cd1fd0a4f28419497f9722a3daafe3b4186f6b6457e090600090a35050565b60335460ff1615611f6b5760405162461bcd60e51b8152600401610673906129e0565b6033805460ff191660011790557f62e78cea01bee320cd4e420270b5ea74000d11b0c9f74754ebdbfc544b05a258611dc13390565b6040516001600160a01b0380851660248301528316604482015260648101829052611fd89085906323b872dd60e01b90608401611eb3565b50505050565b600054610100900460ff1680611ff7575060005460ff16155b6120135760405162461bcd60e51b815260040161067390612a0a565b600054610100900460ff16158015611aa3576000805460ff1961ff0019909116610100171660011790558015610c13576000805461ff001916905550565b600054610100900460ff168061206a575060005460ff16155b6120865760405162461bcd60e51b815260040161067390612a0a565b600054610100900460ff161580156120b1576000805460ff1961ff0019909116610100171660011790555b611aa333611ef6565b7f360894a13ba1a3210667c828492db98dca3e2076cc3735a920a3ca505d382bbc546001600160a01b031690565b6120f181612398565b6121535760405162461bcd60e51b815260206004820152602d60248201527f455243313936373a206e657720696d706c656d656e746174696f6e206973206e60448201526c1bdd08184818dbdb9d1c9858dd609a1b6064820152608401610673565b7f360894a13ba1a3210667c828492db98dca3e2076cc3735a920a3ca505d382bbc80546001600160a01b0319166001600160a01b0392909216919091179055565b606061219f83612398565b6121fa5760405162461bcd60e51b815260206004820152602660248201527f416464726573733a2064656c65676174652063616c6c20746f206e6f6e2d636f6044820152651b9d1c9858dd60d21b6064820152608401610673565b600080846001600160a01b0316846040516122159190612936565b600060405180830381855af49150503d8060008114612250576040519150601f19603f3d011682016040523d82523d6000602084013e612255565b606091505b509150915061227d8282604051806060016040528060278152602001612bbc602791396123a2565b95945050505050565b61228f816120e8565b6040516001600160a01b038216907fbc7cd75a20ee27fd9adebab32041f755214dbc6bffa90cc0225b39da2e5c2d3b90600090a250565b600061231b826040518060400160405280602081526020017f5361666545524332303a206c6f772d6c6576656c2063616c6c206661696c6564815250856001600160a01b03166123db9092919063ffffffff16565b805190915015610aeb57808060200190518101906123399190612757565b610aeb5760405162461bcd60e51b815260206004820152602a60248201527f5361666545524332303a204552433230206f7065726174696f6e20646964206e6044820152691bdd081cdd58d8d9595960b21b6064820152608401610673565b803b15155b919050565b606083156123b1575081610b73565b8251156123c15782518084602001fd5b8160405162461bcd60e51b8152600401610673919061297f565b60606123ea84846000856123f2565b949350505050565b6060824710156124535760405162461bcd60e51b815260206004820152602660248201527f416464726573733a20696e73756666696369656e742062616c616e636520666f6044820152651c8818d85b1b60d21b6064820152608401610673565b61245c85612398565b6124a85760405162461bcd60e51b815260206004820152601d60248201527f416464726573733a2063616c6c20746f206e6f6e2d636f6e74726163740000006044820152606401610673565b600080866001600160a01b031685876040516124c49190612936565b60006040518083038185875af1925050503d8060008114612501576040519150601f19603f3d011682016040523d82523d6000602084013e612506565b606091505b50915091506113278282866123a2565b600082601f830112612526578081fd5b8151602061253b61253683612abd565b612a8d565b8281528181019085830183850287018401881015612557578586fd5b855b8581101561257e57815161256c81612ba6565b84529284019290840190600101612559565b5090979650505050505050565b600082601f83011261259b578081fd5b815160206125ab61253683612abd565b82815281810190858301838502870184018810156125c7578586fd5b855b8581101561257e578151845292840192908401906001016125c9565b8051801515811461239d57600080fd5b600060208284031215612606578081fd5b8135610b7381612ba6565b60008060408385031215612623578081fd5b823561262e81612ba6565b91506020838101356001600160401b038082111561264a578384fd5b818601915086601f83011261265d578384fd5b81358181111561266f5761266f612b90565b612681601f8201601f19168501612a8d565b91508082528784828501011115612696578485fd5b8084840185840137810190920192909252919491935090915050565b600080600080600080600060e0888a0312156126cc578283fd5b87356126d781612ba6565b965060208801356126e781612ba6565b955060408801359450606088013593506080880135925060a088013561270c81612ba6565b915060c088013561271c81612ba6565b8091505092959891949750929550565b6000806040838503121561273e578182fd5b823561274981612ba6565b946020939093013593505050565b600060208284031215612768578081fd5b610b73826125e5565b600060208284031215612782578081fd5b5035919050565b60006020828403121561279a578081fd5b5051919050565b600080604083850312156127b3578182fd5b8235915060208301356127c581612ba6565b809150509250929050565b600080604083850312156127e2578182fd5b50508035926020909101359150565b60008060008060008060008060008060006101608c8e031215612812578485fd5b8b519a5060208c0151995060408c0151985060608c0151975061283760808d016125e5565b965060a08c01516001600160401b03811115612851578586fd5b61285d8e828f01612516565b96505060c08c01516001600160401b03811115612878578586fd5b6128848e828f0161258b565b95505060e08c01516001600160401b0381111561289f578485fd5b6128ab8e828f0161258b565b9450506101008c01516001600160401b038111156128c7578384fd5b6128d38e828f0161258b565b9350506101208c01516001600160401b038111156128ef578283fd5b6128fb8e828f0161258b565b9250506101408c01516001600160401b03811115612917578182fd5b6129238e828f0161258b565b9150509295989b509295989b9093969950565b60008251612948818460208701612b4e565b9190910192915050565b6001600160a01b0391909116815260200190565b6001600160a01b03929092168252602082015260400190565b600060208252825180602084015261299e816040850160208701612b4e565b601f01601f19169190910160400192915050565b60208082526014908201527314185d5cd8589b194e881b9bdd081c185d5cd95960621b604082015260600190565b60208082526010908201526f14185d5cd8589b194e881c185d5cd95960821b604082015260600190565b6020808252602e908201527f496e697469616c697a61626c653a20636f6e747261637420697320616c72656160408201526d191e481a5b9a5d1a585b1a5e995960921b606082015260800190565b6020808252818101527f4f776e61626c653a2063616c6c6572206973206e6f7420746865206f776e6572604082015260600190565b604051601f8201601f191681016001600160401b0381118282101715612ab557612ab5612b90565b604052919050565b60006001600160401b03821115612ad657612ad6612b90565b5060209081020190565b60008219821115612af357612af3612b7a565b500190565b600082612b1357634e487b7160e01b81526012600452602481fd5b500490565b6000816000190483118215151615612b3257612b32612b7a565b500290565b600082821015612b4957612b49612b7a565b500390565b60005b83811015612b69578181015183820152602001612b51565b83811115611fd85750506000910152565b634e487b7160e01b600052601160045260246000fd5b634e487b7160e01b600052604160045260246000fd5b6001600160a01b0381168114610c1357600080fdfe416464726573733a206c6f772d6c6576656c2064656c65676174652063616c6c206661696c6564a26469706673582212208c70b19e076d206c8a9ac0175cb202b66eeb5af4bda6faff3a2a981d83b979d964736f6c63430008020033",
  "linkReferences": {},
  "deployedLinkReferences": {}
}