{
  "_format": "hh-sol-artifact-1",
  "contractName": "LoserPredictionPool",
  "sourceName": "contracts/LoserPredictionPool.sol",
  "abi": [
    {
      "anonymous": false,
      "inputs": [
        {
          "indexed": false,
          "internalType": "address",
          "name": "previousAdmin",
          "type": "address"
        },
        {
          "indexed": false,
          "internalType": "address",
          "name": "newAdmin",
          "type": "address"
        }
      ],
      "name": "AdminChanged",
      "type": "event"
    },
    {
      "anonymous": false,
      "inputs": [
        {
          "indexed": true,
          "internalType": "address",
          "name": "beacon",
          "type": "address"
        }
      ],
      "name": "BeaconUpgraded",
      "type": "event"
    },
    {
      "anonymous": false,
      "inputs": [
        {
          "indexed": true,
          "internalType": "address",
          "name": "user",
          "type": "address"
        },
        {
          "indexed": true,
          "internalType": "uint256",
          "name": "pid",
          "type": "uint256"
        },
        {
          "indexed": false,
          "internalType": "uint256",
          "name": "amount",
          "type": "uint256"
        }
      ],
      "name": "Deposit",
      "type": "event"
    },
    {
      "anonymous": false,
      "inputs": [
        {
          "indexed": true,
          "internalType": "address",
          "name": "user",
          "type": "address"
        },
        {
          "indexed": true,
          "internalType": "uint256",
          "name": "pid",
          "type": "uint256"
        },
        {
          "indexed": false,
          "internalType": "uint256",
          "name": "amount",
          "type": "uint256"
        }
      ],
      "name": "EmergencyWithdraw",
      "type": "event"
    },
    {
      "anonymous": false,
      "inputs": [
        {
          "indexed": true,
          "internalType": "address",
          "name": "previousOwner",
          "type": "address"
        },
        {
          "indexed": true,
          "internalType": "address",
          "name": "newOwner",
          "type": "address"
        }
      ],
      "name": "OwnershipTransferred",
      "type": "event"
    },
    {
      "anonymous": false,
      "inputs": [
        {
          "indexed": false,
          "internalType": "address",
          "name": "account",
          "type": "address"
        }
      ],
      "name": "Paused",
      "type": "event"
    },
    {
      "anonymous": false,
      "inputs": [
        {
          "indexed": false,
          "internalType": "address",
          "name": "account",
          "type": "address"
        }
      ],
      "name": "Unpaused",
      "type": "event"
    },
    {
      "anonymous": false,
      "inputs": [
        {
          "indexed": true,
          "internalType": "address",
          "name": "implementation",
          "type": "address"
        }
      ],
      "name": "Upgraded",
      "type": "event"
    },
    {
      "anonymous": false,
      "inputs": [
        {
          "indexed": true,
          "internalType": "address",
          "name": "user",
          "type": "address"
        },
        {
          "indexed": true,
          "internalType": "uint256",
          "name": "pid",
          "type": "uint256"
        },
        {
          "indexed": false,
          "internalType": "uint256",
          "name": "amount",
          "type": "uint256"
        }
      ],
      "name": "Withdraw",
      "type": "event"
    },
    {
      "inputs": [],
      "name": "BONUS_MULTIPLIER",
      "outputs": [
        {
          "internalType": "uint256",
          "name": "",
          "type": "uint256"
        }
      ],
      "stateMutability": "view",
      "type": "function"
    },
    {
      "inputs": [
        {
          "internalType": "uint256",
          "name": "_epoch",
          "type": "uint256"
        }
      ],
      "name": "add",
      "outputs": [],
      "stateMutability": "nonpayable",
      "type": "function"
    },
    {
      "inputs": [],
      "name": "allocPoint",
      "outputs": [
        {
          "internalType": "uint256",
          "name": "",
          "type": "uint256"
        }
      ],
      "stateMutability": "view",
      "type": "function"
    },
    {
      "inputs": [],
      "name": "bnbPerBlock",
      "outputs": [
        {
          "internalType": "uint256",
          "name": "",
          "type": "uint256"
        }
      ],
      "stateMutability": "view",
      "type": "function"
    },
    {
      "inputs": [
        {
          "internalType": "uint256",
          "name": "_pid",
          "type": "uint256"
        },
        {
          "internalType": "uint256",
          "name": "_amount",
          "type": "uint256"
        }
      ],
      "name": "deposit",
      "outputs": [],
      "stateMutability": "nonpayable",
      "type": "function"
    },
    {
      "inputs": [
        {
          "internalType": "uint256",
          "name": "_pid",
          "type": "uint256"
        }
      ],
      "name": "emergencyWithdraw",
      "outputs": [],
      "stateMutability": "nonpayable",
      "type": "function"
    },
    {
      "inputs": [
        {
          "internalType": "uint256",
          "name": "_from",
          "type": "uint256"
        },
        {
          "internalType": "uint256",
          "name": "_to",
          "type": "uint256"
        }
      ],
      "name": "getMultiplier",
      "outputs": [
        {
          "internalType": "uint256",
          "name": "",
          "type": "uint256"
        }
      ],
      "stateMutability": "view",
      "type": "function"
    },
    {
      "inputs": [],
      "name": "getPoolLength",
      "outputs": [
        {
          "internalType": "uint256",
          "name": "",
          "type": "uint256"
        }
      ],
      "stateMutability": "view",
      "type": "function"
    },
    {
      "inputs": [
        {
          "internalType": "contract IBEP20",
          "name": "_pred",
          "type": "address"
        },
        {
          "internalType": "uint256",
          "name": "_bnbPerBlock",
          "type": "uint256"
        },
        {
          "internalType": "uint256",
          "name": "_startBlock",
          "type": "uint256"
        },
        {
          "internalType": "uint256",
          "name": "_maxPredDeposit",
          "type": "uint256"
        },
        {
          "internalType": "contract PredictionWallet",
          "name": "_wallet",
          "type": "address"
        },
        {
          "internalType": "contract IPrediction",
          "name": "_prediction",
          "type": "address"
        }
      ],
      "name": "initialize",
      "outputs": [],
      "stateMutability": "nonpayable",
      "type": "function"
    },
    {
      "inputs": [],
      "name": "maxPredDeposit",
      "outputs": [
        {
          "internalType": "uint256",
          "name": "",
          "type": "uint256"
        }
      ],
      "stateMutability": "view",
      "type": "function"
    },
    {
      "inputs": [],
      "name": "owner",
      "outputs": [
        {
          "internalType": "address",
          "name": "",
          "type": "address"
        }
      ],
      "stateMutability": "view",
      "type": "function"
    },
    {
      "inputs": [],
      "name": "pause",
      "outputs": [],
      "stateMutability": "nonpayable",
      "type": "function"
    },
    {
      "inputs": [],
      "name": "paused",
      "outputs": [
        {
          "internalType": "bool",
          "name": "",
          "type": "bool"
        }
      ],
      "stateMutability": "view",
      "type": "function"
    },
    {
      "inputs": [
        {
          "internalType": "uint256",
          "name": "_pid",
          "type": "uint256"
        },
        {
          "internalType": "address",
          "name": "_user",
          "type": "address"
        }
      ],
      "name": "pendingPred",
      "outputs": [
        {
          "internalType": "uint256",
          "name": "",
          "type": "uint256"
        }
      ],
      "stateMutability": "view",
      "type": "function"
    },
    {
      "inputs": [
        {
          "internalType": "uint256",
          "name": "",
          "type": "uint256"
        }
      ],
      "name": "poolInfo",
      "outputs": [
        {
          "internalType": "uint256",
          "name": "allocPoint",
          "type": "uint256"
        },
        {
          "internalType": "uint256",
          "name": "lastRewardBlock",
          "type": "uint256"
        },
        {
          "internalType": "uint256",
          "name": "accBNBPerShare",
          "type": "uint256"
        },
        {
          "internalType": "uint256",
          "name": "epoch",
          "type": "uint256"
        }
      ],
      "stateMutability": "view",
      "type": "function"
    },
    {
      "inputs": [],
      "name": "poolLength",
      "outputs": [
        {
          "internalType": "uint256",
          "name": "",
          "type": "uint256"
        }
      ],
      "stateMutability": "view",
      "type": "function"
    },
    {
      "inputs": [],
      "name": "pred",
      "outputs": [
        {
          "internalType": "contract IBEP20",
          "name": "",
          "type": "address"
        }
      ],
      "stateMutability": "view",
      "type": "function"
    },
    {
      "inputs": [],
      "name": "prediction",
      "outputs": [
        {
          "internalType": "contract IPrediction",
          "name": "",
          "type": "address"
        }
      ],
      "stateMutability": "view",
      "type": "function"
    },
    {
      "inputs": [],
      "name": "renounceOwnership",
      "outputs": [],
      "stateMutability": "nonpayable",
      "type": "function"
    },
    {
      "inputs": [
        {
          "internalType": "uint256",
          "name": "_allocPoint",
          "type": "uint256"
        }
      ],
      "name": "setAllocPoint",
      "outputs": [],
      "stateMutability": "nonpayable",
      "type": "function"
    },
    {
      "inputs": [
        {
          "internalType": "uint256",
          "name": "_maxPredDeposit",
          "type": "uint256"
        }
      ],
      "name": "setMaxPredDeposit",
      "outputs": [],
      "stateMutability": "nonpayable",
      "type": "function"
    },
    {
      "inputs": [],
      "name": "startBlock",
      "outputs": [
        {
          "internalType": "uint256",
          "name": "",
          "type": "uint256"
        }
      ],
      "stateMutability": "view",
      "type": "function"
    },
    {
      "inputs": [],
      "name": "totalRewardDebt",
      "outputs": [
        {
          "internalType": "uint256",
          "name": "",
          "type": "uint256"
        }
      ],
      "stateMutability": "view",
      "type": "function"
    },
    {
      "inputs": [
        {
          "internalType": "address",
          "name": "newOwner",
          "type": "address"
        }
      ],
      "name": "transferOwnership",
      "outputs": [],
      "stateMutability": "nonpayable",
      "type": "function"
    },
    {
      "inputs": [],
      "name": "unpause",
      "outputs": [],
      "stateMutability": "nonpayable",
      "type": "function"
    },
    {
      "inputs": [
        {
          "internalType": "uint256",
          "name": "multiplierNumber",
          "type": "uint256"
        }
      ],
      "name": "updateMultiplier",
      "outputs": [],
      "stateMutability": "nonpayable",
      "type": "function"
    },
    {
      "inputs": [
        {
          "internalType": "uint256",
          "name": "_pid",
          "type": "uint256"
        }
      ],
      "name": "updatePool",
      "outputs": [],
      "stateMutability": "nonpayable",
      "type": "function"
    },
    {
      "inputs": [
        {
          "internalType": "address",
          "name": "newImplementation",
          "type": "address"
        }
      ],
      "name": "upgradeTo",
      "outputs": [],
      "stateMutability": "nonpayable",
      "type": "function"
    },
    {
      "inputs": [
        {
          "internalType": "address",
          "name": "newImplementation",
          "type": "address"
        },
        {
          "internalType": "bytes",
          "name": "data",
          "type": "bytes"
        }
      ],
      "name": "upgradeToAndCall",
      "outputs": [],
      "stateMutability": "payable",
      "type": "function"
    },
    {
      "inputs": [
        {
          "internalType": "uint256",
          "name": "",
          "type": "uint256"
        },
        {
          "internalType": "address",
          "name": "",
          "type": "address"
        }
      ],
      "name": "userInfo",
      "outputs": [
        {
          "internalType": "uint256",
          "name": "amount",
          "type": "uint256"
        },
        {
          "internalType": "uint256",
          "name": "rewardDebt",
          "type": "uint256"
        }
      ],
      "stateMutability": "view",
      "type": "function"
    },
    {
      "inputs": [],
      "name": "wallet",
      "outputs": [
        {
          "internalType": "contract PredictionWallet",
          "name": "",
          "type": "address"
        }
      ],
      "stateMutability": "view",
      "type": "function"
    },
    {
      "inputs": [
        {
          "internalType": "uint256",
          "name": "_pid",
          "type": "uint256"
        },
        {
          "internalType": "uint256",
          "name": "_amount",
          "type": "uint256"
        }
      ],
      "name": "withdraw",
      "outputs": [],
      "stateMutability": "nonpayable",
      "type": "function"
    }
  ],
  "bytecode": "0x608060405234801561001057600080fd5b506127f5806100206000396000f3fe6080604052600436106101a35760003560e01c8063715018a6116100e2578063b3944d5211610085578063b3944d52146101a8578063bf9fe138146104ac578063c26780b0146104cc578063d3dd7eb7146104ed578063e0747c9614610504578063e2bbb15814610524578063e5c9ad2e14610544578063f2fde38b14610564576101a3565b8063715018a6146103b457806383bb3877146103c95780638456cb59146103e05780638aa28550146103f55780638da5cb5b1461040b5780638dbb1e3a1461042057806393f1a40b14610440578063ae5241a014610495576101a3565b80634f1ef2861161014a5780634f1ef286146102c857806350b48710146102db57806351eb05a6146102f1578063521eb273146103115780635312ea8e146103315780635c975abb146103515780635ffe6146146103745780636450b8a914610394576101a3565b8063081e3eda146101a85780631003e2d2146101cd5780631526fe27146101ef5780632372c9161461022f5780633659cfe61461025c5780633f4ba83a1461027c578063441a3e701461029157806348cd4cb1146102b1575b600080fd5b3480156101b457600080fd5b50610101545b6040519081526020015b60405180910390f35b3480156101d957600080fd5b506101ed6101e836600461234e565b610584565b005b3480156101fb57600080fd5b5061020f61020a36600461234e565b61092e565b6040805194855260208501939093529183015260608201526080016101c4565b34801561023b57600080fd5b5060fc5461024f906001600160a01b031681565b6040516101c4919061252f565b34801561026857600080fd5b506101ed610277366004612211565b610969565b34801561028857600080fd5b506101ed610990565b34801561029d57600080fd5b506101ed6102ac3660046123ad565b6109c9565b3480156102bd57600080fd5b506101ba6101045481565b6101ed6102d636600461222d565b610b6c565b3480156102e757600080fd5b506101ba60fd5481565b3480156102fd57600080fd5b506101ed61030c36600461234e565b610b85565b34801561031d57600080fd5b5060ff5461024f906001600160a01b031681565b34801561033d57600080fd5b506101ed61034c36600461234e565b610d1d565b34801561035d57600080fd5b5060335460ff1660405190151581526020016101c4565b34801561038057600080fd5b506101ed61038f36600461234e565b610e30565b3480156103a057600080fd5b506101ba6103af36600461237e565b610e64565b3480156103c057600080fd5b506101ed611023565b3480156103d557600080fd5b506101ba6101055481565b3480156103ec57600080fd5b506101ed61105c565b34801561040157600080fd5b506101ba60fe5481565b34801561041757600080fd5b5061024f611093565b34801561042c57600080fd5b506101ba61043b3660046123ad565b6110a2565b34801561044c57600080fd5b5061048061045b36600461237e565b6101026020908152600092835260408084209091529082529020805460019091015482565b604080519283526020830191909152016101c4565b3480156104a157600080fd5b506101ba6101005481565b3480156104b857600080fd5b506101ed6104c73660046122e8565b6110bd565b3480156104d857600080fd5b506101ed6104e736600461234e565b61010055565b3480156104f957600080fd5b506101ba6101035481565b34801561051057600080fd5b506101ed61051f36600461234e565b61119b565b34801561053057600080fd5b506101ed61053f3660046123ad565b611223565b34801561055057600080fd5b5060fb5461024f906001600160a01b031681565b34801561057057600080fd5b506101ed61057f366004612211565b6115e0565b3361058d611093565b6001600160a01b0316146105bc5760405162461bcd60e51b81526004016105b390612635565b60405180910390fd5b60fc5460405163023c4c9f60e61b8152600481018390526000916001600160a01b031690638f1327c09060240160006040518083038186803b15801561060157600080fd5b505afa158015610615573d6000803e3d6000fd5b505050506040513d6000823e601f3d908101601f1916820160405261063d91908101906123ce565b505050505050945050505050806106a75760405162461bcd60e51b815260206004820152602860248201527f526f756e6420776173206e6f74207375636365737366756c206f72206e6f7420604482015267636f6d706c65746560c01b60648201526084016105b3565b60fc5460408051630ecce30160e31b815290516000926001600160a01b031691637667180891600480830192602092919082900301818787803b1580156106ed57600080fd5b505af1158015610701573d6000803e3d6000fd5b505050506040513d601f19601f820116820180604052508101906107259190612366565b90508281146108155760fc5460405163023c4c9f60e61b8152600481018390526000916001600160a01b031690638f1327c09060240160006040518083038186803b15801561077357600080fd5b505afa158015610787573d6000803e3d6000fd5b505050506040513d6000823e601f3d908101601f191682016040526107af91908101906123ce565b50505050505094505050505080156108135760405162461bcd60e51b815260206004820152602160248201527f43757272656e7420526f756e6420697320616c726561647920636f6d706c65746044820152606560f81b60648201526084016105b3565b505b610101541561091c576101015460009061083190600190612714565b905083610101828154811061085657634e487b7160e01b600052603260045260246000fd5b906000526020600020906004020160030154106108cd5760405162461bcd60e51b815260206004820152602f60248201527f4e65772065706f63682063616e6e6f74206265206c657373206f72206571756160448201526e0d840e8de40e0c2e6e840cae0dec6d608b1b60648201526084016105b3565b6108d681610b85565b6101018054600091906108eb90600190612714565b8154811061090957634e487b7160e01b600052603260045260246000fd5b6000918252602090912060049091020155505b610929610103548461167d565b505050565b610101818154811061093f57600080fd5b60009182526020909120600490910201805460018201546002830154600390930154919350919084565b61097281611794565b61098d816040518060200160405280600081525060006117c3565b50565b33610999611093565b6001600160a01b0316146109bf5760405162461bcd60e51b81526004016105b390612635565b6109c761190a565b565b60335460ff16156109ec5760405162461bcd60e51b81526004016105b3906125bd565b60006101018381548110610a1057634e487b7160e01b600052603260045260246000fd5b60009182526020808320868452610102825260408085203386529092529220805460049092029092019250831115610a7f5760405162461bcd60e51b81526020600482015260126024820152711dda5d1a191c985dce881b9bdd0819dbdbd960721b60448201526064016105b3565b610a8884610b85565b6000610ac98260010154610ac368327cb2734119d3b7a9601e1b610abd8760020154876000015461197090919063ffffffff16565b9061197c565b90611988565b90508015610adb57610adb3382611994565b8315610b06578154610aed9085611988565b825560fb54610b06906001600160a01b03163386611a2c565b60028301548254610b289168327cb2734119d3b7a9601e1b91610abd91611970565b6001830155604051848152859033907ff279e6a1f5e320cca91135676d9cb6e44ca8a08c0b88342bcdb1144f6511b568906020015b60405180910390a35050505050565b610b7582611794565b610b81828260016117c3565b5050565b60006101018281548110610ba957634e487b7160e01b600052603260045260246000fd5b9060005260206000209060040201905080600101544311610bca575061098d565b60fb546040516370a0823160e01b81526000916001600160a01b0316906370a0823190610bfb90309060040161252f565b60206040518083038186803b158015610c1357600080fd5b505afa158015610c27573d6000803e3d6000fd5b505050506040513d601f19601f82011682018060405250810190610c4b9190612366565b905080610c5f57504360019091015561098d565b6000610c6f8360010154436110a2565b90506000610c9d61010354610abd8660000154610c9760fd548761197090919063ffffffff16565b90611970565b6101055460ff54919250600091610cc0916001600160a01b039091163190611988565b9050808210610ccd578091505b610cf5610cea85610abd8568327cb2734119d3b7a9601e1b611970565b600287015490611a82565b600286015561010554610d089083611a82565b61010555505043600190930192909255505050565b60335460ff16610d3f5760405162461bcd60e51b81526004016105b39061258f565b60006101018281548110610d6357634e487b7160e01b600052603260045260246000fd5b60009182526020808320858452610102825260408085203386529092529083208054848255600182018590556002600490940290920192830154929450929091610dc6908290610ac39068327cb2734119d3b7a9601e1b90610abd908790611970565b9050610105548111610de55761010554610de09082611988565b610105555b60fb54610dfc906001600160a01b03163384611a2c565b604051828152859033907fbb757047c2b5f3974fe26b7c10f732e7bce710b0952a71082702781e62ae059590602001610b5d565b33610e39611093565b6001600160a01b031614610e5f5760405162461bcd60e51b81526004016105b390612635565b60fe55565b6000806101018481548110610e8957634e487b7160e01b600052603260045260246000fd5b60009182526020808320878452610102825260408085206001600160a01b03898116875293528085206004948502909201600281015460fb5492516370a0823160e01b815291975092959294929391909116916370a0823191610eee9130910161252f565b60206040518083038186803b158015610f0657600080fd5b505afa158015610f1a573d6000803e3d6000fd5b505050506040513d601f19601f82011682018060405250810190610f3e9190612366565b9050836001015443118015610f5257508015155b15610fe9576000610f678560010154436110a2565b90506000610f8f61010354610abd8860000154610c9760fd548761197090919063ffffffff16565b6101055460ff54919250600091610fb2916001600160a01b039091163190611988565b9050808210610fbf578091505b610fe3610fdc85610abd8568327cb2734119d3b7a9601e1b611970565b8690611a82565b94505050505b6110188360010154610ac368327cb2734119d3b7a9601e1b610abd86886000015461197090919063ffffffff16565b979650505050505050565b3361102c611093565b6001600160a01b0316146110525760405162461bcd60e51b81526004016105b390612635565b6109c76000611a8e565b33611065611093565b6001600160a01b03161461108b5760405162461bcd60e51b81526004016105b390612635565b6109c7611ae0565b60c9546001600160a01b031690565b60fe546000906110b690610c978486611988565b9392505050565b600054610100900460ff16806110d6575060005460ff16155b6110f25760405162461bcd60e51b81526004016105b3906125e7565b600054610100900460ff1615801561111d576000805460ff1961ff0019909116610100171660011790555b611125611b38565b60fb80546001600160a01b03808a166001600160a01b03199283161790925560fd88905561010487905560ff805486841690831617905560fc805492851692909116919091179055610100849055620f424060fe5560c8610103558015611192576000805461ff00191690555b50505050505050565b336111a4611093565b6001600160a01b0316146111ca5760405162461bcd60e51b81526004016105b390612635565b610101546000906111dd90600190612714565b90506111e881610b85565b81610101828154811061120b57634e487b7160e01b600052603260045260246000fd5b60009182526020909120600490910201555061010355565b60335460ff16156112465760405162461bcd60e51b81526004016105b3906125bd565b6000610101838154811061126a57634e487b7160e01b600052603260045260246000fd5b6000918252602091829020604080516080810182526004938402909201805483526001810154948301949094526002840154828201526003909301546060820181905260fc549351630e46827160e11b81529194506001600160a01b0390931692631c8d04e2926112de9233929101612543565b60206040518083038186803b1580156112f657600080fd5b505afa15801561130a573d6000803e3d6000fd5b505050506040513d601f19601f8201168201806040525081019061132e91906122ce565b6113855760405162461bcd60e51b815260206004820152602260248201527f446964206e6f74206c6f736520746869732050726564696374696f6e20726f756044820152611b9960f21b60648201526084016105b3565b60008381526101026020908152604080832033845290915290206113a884610b85565b8054156113f85760006113e48260010154610ac368327cb2734119d3b7a9601e1b610abd8760400151876000015461197090919063ffffffff16565b905080156113f6576113f63382611994565b505b821561157c5760fb546040516370a0823160e01b81526000916001600160a01b0316906370a082319061142f90309060040161252f565b60206040518083038186803b15801561144757600080fd5b505afa15801561145b573d6000803e3d6000fd5b505050506040513d601f19601f8201168201806040525081019061147f9190612366565b60fb5490915061149a906001600160a01b0316333087611bbc565b60fb546040516370a0823160e01b815261152a916115229184916001600160a01b0316906370a08231906114d290309060040161252f565b60206040518083038186803b1580156114ea57600080fd5b505afa1580156114fe573d6000803e3d6000fd5b505050506040513d601f19601f82011682018060405250810190610ac39190612366565b835490611a82565b80835561010054101561157a5760405162461bcd60e51b815260206004820152601860248201527713585e08141491510811195c1bdcda5d0814995858da195960421b60448201526064016105b3565b505b6040820151815461159e9168327cb2734119d3b7a9601e1b91610abd91611970565b6001820155604051838152849033907f90890809c654f11d6e72a28fa60149770a0d11ec6c92319d6ceb2bb0a4ea1a159060200160405180910390a350505050565b336115e9611093565b6001600160a01b03161461160f5760405162461bcd60e51b81526004016105b390612635565b6001600160a01b0381166116745760405162461bcd60e51b815260206004820152602660248201527f4f776e61626c653a206e6577206f776e657220697320746865207a65726f206160448201526564647265737360d01b60648201526084016105b3565b61098d81611a8e565b33611686611093565b6001600160a01b0316146116ac5760405162461bcd60e51b81526004016105b390612635565b60006101045443116116c157610104546116c3565b435b60408051608081018252948552602085019182526000908501818152606086019485526101018054600181018255925294517f109ea3cebb188b9c1b9fc5bb3920be60dfdc8699098dff92f3d80daaca74768960049092029182015590517f109ea3cebb188b9c1b9fc5bb3920be60dfdc8699098dff92f3d80daaca74768a82015592517f109ea3cebb188b9c1b9fc5bb3920be60dfdc8699098dff92f3d80daaca74768b84015550517f109ea3cebb188b9c1b9fc5bb3920be60dfdc8699098dff92f3d80daaca74768c90910155565b3361179d611093565b6001600160a01b03161461098d5760405162461bcd60e51b81526004016105b390612635565b60006117cd611bfa565b90506117d884611c28565b6000835111806117e55750815b156117f6576117f48484611cd4565b505b7f4910fdfa16fed3260ed0e7147f7cc6da11a60208b5b9406d12a635614ffd9143805460ff1661190357805460ff1916600117815560405161187190869061184290859060240161252f565b60408051601f198184030181529190526020810180516001600160e01b0316631b2ce7f360e11b179052611cd4565b50805460ff19168155611882611bfa565b6001600160a01b0316826001600160a01b0316146118fa5760405162461bcd60e51b815260206004820152602f60248201527f45524331393637557067726164653a207570677261646520627265616b73206660448201526e75727468657220757067726164657360881b60648201526084016105b3565b61190385611dc6565b5050505050565b60335460ff1661192c5760405162461bcd60e51b81526004016105b39061258f565b6033805460ff191690557f5db9ee0a495bf2e6ff9c91a7834c1ba4fdd244a5e8aa4e537bd38aeae4b073aa335b604051611966919061252f565b60405180910390a1565b60006110b682846126f5565b60006110b682846126d5565b60006110b68284612714565b60ff54604051635944b01760e01b8152611a24916001600160a01b031690635944b017906119c89086908690600401612543565b602060405180830381600087803b1580156119e257600080fd5b505af11580156119f6573d6000803e3d6000fd5b505050506040513d601f19601f82011682018060405250810190611a1a9190612366565b6101055490611988565b610105555050565b6109298363a9059cbb60e01b8484604051602401611a4b929190612543565b60408051601f198184030181529190526020810180516001600160e01b03166001600160e01b031990931692909217909152611e06565b60006110b682846126bd565b60c980546001600160a01b038381166001600160a01b0319831681179093556040519116919082907f8be0079c531659141344cd1fd0a4f28419497f9722a3daafe3b4186f6b6457e090600090a35050565b60335460ff1615611b035760405162461bcd60e51b81526004016105b3906125bd565b6033805460ff191660011790557f62e78cea01bee320cd4e420270b5ea74000d11b0c9f74754ebdbfc544b05a2586119593390565b600054610100900460ff1680611b51575060005460ff16155b611b6d5760405162461bcd60e51b81526004016105b3906125e7565b600054610100900460ff16158015611b98576000805460ff1961ff0019909116610100171660011790555b611ba0611ed8565b611ba8611f4b565b801561098d576000805461ff001916905550565b6040516001600160a01b0380851660248301528316604482015260648101829052611bf49085906323b872dd60e01b90608401611a4b565b50505050565b7f360894a13ba1a3210667c828492db98dca3e2076cc3735a920a3ca505d382bbc546001600160a01b031690565b611c3181611fb4565b611c935760405162461bcd60e51b815260206004820152602d60248201527f455243313936373a206e657720696d706c656d656e746174696f6e206973206e60448201526c1bdd08184818dbdb9d1c9858dd609a1b60648201526084016105b3565b7f360894a13ba1a3210667c828492db98dca3e2076cc3735a920a3ca505d382bbc80546001600160a01b0319166001600160a01b0392909216919091179055565b6060611cdf83611fb4565b611d3a5760405162461bcd60e51b815260206004820152602660248201527f416464726573733a2064656c65676174652063616c6c20746f206e6f6e2d636f6044820152651b9d1c9858dd60d21b60648201526084016105b3565b600080846001600160a01b031684604051611d559190612513565b600060405180830381855af49150503d8060008114611d90576040519150601f19603f3d011682016040523d82523d6000602084013e611d95565b606091505b5091509150611dbd828260405180606001604052806027815260200161279960279139611fbe565b95945050505050565b611dcf81611c28565b6040516001600160a01b038216907fbc7cd75a20ee27fd9adebab32041f755214dbc6bffa90cc0225b39da2e5c2d3b90600090a250565b6000611e5b826040518060400160405280602081526020017f5361666545524332303a206c6f772d6c6576656c2063616c6c206661696c6564815250856001600160a01b0316611ff79092919063ffffffff16565b8051909150156109295780806020019051810190611e7991906122ce565b6109295760405162461bcd60e51b815260206004820152602a60248201527f5361666545524332303a204552433230206f7065726174696f6e20646964206e6044820152691bdd081cdd58d8d9595960b21b60648201526084016105b3565b600054610100900460ff1680611ef1575060005460ff16155b611f0d5760405162461bcd60e51b81526004016105b3906125e7565b600054610100900460ff16158015611ba8576000805460ff1961ff001990911661010017166001179055801561098d576000805461ff001916905550565b600054610100900460ff1680611f64575060005460ff16155b611f805760405162461bcd60e51b81526004016105b3906125e7565b600054610100900460ff16158015611fab576000805460ff1961ff0019909116610100171660011790555b611ba833611a8e565b803b15155b919050565b60608315611fcd5750816110b6565b825115611fdd5782518084602001fd5b8160405162461bcd60e51b81526004016105b3919061255c565b6060612006848460008561200e565b949350505050565b60608247101561206f5760405162461bcd60e51b815260206004820152602660248201527f416464726573733a20696e73756666696369656e742062616c616e636520666f6044820152651c8818d85b1b60d21b60648201526084016105b3565b61207885611fb4565b6120c45760405162461bcd60e51b815260206004820152601d60248201527f416464726573733a2063616c6c20746f206e6f6e2d636f6e747261637400000060448201526064016105b3565b600080866001600160a01b031685876040516120e09190612513565b60006040518083038185875af1925050503d806000811461211d576040519150601f19603f3d011682016040523d82523d6000602084013e612122565b606091505b5091509150611018828286611fbe565b600082601f830112612142578081fd5b815160206121576121528361269a565b61266a565b8281528181019085830183850287018401881015612173578586fd5b855b8581101561219a57815161218881612783565b84529284019290840190600101612175565b5090979650505050505050565b600082601f8301126121b7578081fd5b815160206121c76121528361269a565b82815281810190858301838502870184018810156121e3578586fd5b855b8581101561219a578151845292840192908401906001016121e5565b80518015158114611fb957600080fd5b600060208284031215612222578081fd5b81356110b681612783565b6000806040838503121561223f578081fd5b823561224a81612783565b91506020838101356001600160401b0380821115612266578384fd5b818601915086601f830112612279578384fd5b81358181111561228b5761228b61276d565b61229d601f8201601f1916850161266a565b915080825287848285010111156122b2578485fd5b8084840185840137810190920192909252919491935090915050565b6000602082840312156122df578081fd5b6110b682612201565b60008060008060008060c08789031215612300578182fd5b863561230b81612783565b9550602087013594506040870135935060608701359250608087013561233081612783565b915060a087013561234081612783565b809150509295509295509295565b60006020828403121561235f578081fd5b5035919050565b600060208284031215612377578081fd5b5051919050565b60008060408385031215612390578182fd5b8235915060208301356123a281612783565b809150509250929050565b600080604083850312156123bf578182fd5b50508035926020909101359150565b60008060008060008060008060008060006101608c8e0312156123ef578889fd5b8b519a5060208c0151995060408c0151985060608c0151975061241460808d01612201565b965060a08c01516001600160401b0381111561242e578586fd5b61243a8e828f01612132565b96505060c08c01516001600160401b03811115612455578586fd5b6124618e828f016121a7565b95505060e08c01516001600160401b0381111561247c578485fd5b6124888e828f016121a7565b9450506101008c01516001600160401b038111156124a4578384fd5b6124b08e828f016121a7565b9350506101208c01516001600160401b038111156124cc578283fd5b6124d88e828f016121a7565b9250506101408c01516001600160401b038111156124f4578182fd5b6125008e828f016121a7565b9150509295989b509295989b9093969950565b6000825161252581846020870161272b565b9190910192915050565b6001600160a01b0391909116815260200190565b6001600160a01b03929092168252602082015260400190565b600060208252825180602084015261257b81604085016020870161272b565b601f01601f19169190910160400192915050565b60208082526014908201527314185d5cd8589b194e881b9bdd081c185d5cd95960621b604082015260600190565b60208082526010908201526f14185d5cd8589b194e881c185d5cd95960821b604082015260600190565b6020808252602e908201527f496e697469616c697a61626c653a20636f6e747261637420697320616c72656160408201526d191e481a5b9a5d1a585b1a5e995960921b606082015260800190565b6020808252818101527f4f776e61626c653a2063616c6c6572206973206e6f7420746865206f776e6572604082015260600190565b604051601f8201601f191681016001600160401b03811182821017156126925761269261276d565b604052919050565b60006001600160401b038211156126b3576126b361276d565b5060209081020190565b600082198211156126d0576126d0612757565b500190565b6000826126f057634e487b7160e01b81526012600452602481fd5b500490565b600081600019048311821515161561270f5761270f612757565b500290565b60008282101561272657612726612757565b500390565b60005b8381101561274657818101518382015260200161272e565b83811115611bf45750506000910152565b634e487b7160e01b600052601160045260246000fd5b634e487b7160e01b600052604160045260246000fd5b6001600160a01b038116811461098d57600080fdfe416464726573733a206c6f772d6c6576656c2064656c65676174652063616c6c206661696c6564a26469706673582212204beac522648c65884b0df7df5cb4fa77a3262692e67531502edb3dcda3bcecea64736f6c63430008020033",
  "linkReferences": {},
  "deployedLinkReferences": {}
}