{
  "_format": "hh-sol-artifact-1",
  "contractName": "LoserPredictionPool",
  "sourceName": "contracts/LoserPredictionPool.sol",
  "abi": [
    {
      "anonymous": false,
      "inputs": [
        {
          "indexed": false,
          "internalType": "address",
          "name": "previousAdmin",
          "type": "address"
        },
        {
          "indexed": false,
          "internalType": "address",
          "name": "newAdmin",
          "type": "address"
        }
      ],
      "name": "AdminChanged",
      "type": "event"
    },
    {
      "anonymous": false,
      "inputs": [
        {
          "indexed": true,
          "internalType": "address",
          "name": "beacon",
          "type": "address"
        }
      ],
      "name": "BeaconUpgraded",
      "type": "event"
    },
    {
      "anonymous": false,
      "inputs": [
        {
          "indexed": true,
          "internalType": "address",
          "name": "user",
          "type": "address"
        },
        {
          "indexed": true,
          "internalType": "uint256",
          "name": "pid",
          "type": "uint256"
        },
        {
          "indexed": false,
          "internalType": "uint256",
          "name": "amount",
          "type": "uint256"
        }
      ],
      "name": "Deposit",
      "type": "event"
    },
    {
      "anonymous": false,
      "inputs": [
        {
          "indexed": true,
          "internalType": "address",
          "name": "user",
          "type": "address"
        },
        {
          "indexed": true,
          "internalType": "uint256",
          "name": "pid",
          "type": "uint256"
        },
        {
          "indexed": false,
          "internalType": "uint256",
          "name": "amount",
          "type": "uint256"
        }
      ],
      "name": "EmergencyWithdraw",
      "type": "event"
    },
    {
      "anonymous": false,
      "inputs": [
        {
          "indexed": true,
          "internalType": "address",
          "name": "previousOwner",
          "type": "address"
        },
        {
          "indexed": true,
          "internalType": "address",
          "name": "newOwner",
          "type": "address"
        }
      ],
      "name": "OwnershipTransferred",
      "type": "event"
    },
    {
      "anonymous": false,
      "inputs": [
        {
          "indexed": false,
          "internalType": "address",
          "name": "account",
          "type": "address"
        }
      ],
      "name": "Paused",
      "type": "event"
    },
    {
      "anonymous": false,
      "inputs": [
        {
          "indexed": false,
          "internalType": "address",
          "name": "account",
          "type": "address"
        }
      ],
      "name": "Unpaused",
      "type": "event"
    },
    {
      "anonymous": false,
      "inputs": [
        {
          "indexed": true,
          "internalType": "address",
          "name": "implementation",
          "type": "address"
        }
      ],
      "name": "Upgraded",
      "type": "event"
    },
    {
      "anonymous": false,
      "inputs": [
        {
          "indexed": true,
          "internalType": "address",
          "name": "user",
          "type": "address"
        },
        {
          "indexed": true,
          "internalType": "uint256",
          "name": "pid",
          "type": "uint256"
        },
        {
          "indexed": false,
          "internalType": "uint256",
          "name": "amount",
          "type": "uint256"
        }
      ],
      "name": "Withdraw",
      "type": "event"
    },
    {
      "inputs": [],
      "name": "BONUS_MULTIPLIER",
      "outputs": [
        {
          "internalType": "uint256",
          "name": "",
          "type": "uint256"
        }
      ],
      "stateMutability": "view",
      "type": "function"
    },
    {
      "inputs": [
        {
          "internalType": "uint256",
          "name": "_epoch",
          "type": "uint256"
        }
      ],
      "name": "add",
      "outputs": [],
      "stateMutability": "nonpayable",
      "type": "function"
    },
    {
      "inputs": [],
      "name": "allocPoint",
      "outputs": [
        {
          "internalType": "uint256",
          "name": "",
          "type": "uint256"
        }
      ],
      "stateMutability": "view",
      "type": "function"
    },
    {
      "inputs": [],
      "name": "bnbPerBlock",
      "outputs": [
        {
          "internalType": "uint256",
          "name": "",
          "type": "uint256"
        }
      ],
      "stateMutability": "view",
      "type": "function"
    },
    {
      "inputs": [
        {
          "internalType": "uint256",
          "name": "_pid",
          "type": "uint256"
        },
        {
          "internalType": "uint256",
          "name": "_amount",
          "type": "uint256"
        }
      ],
      "name": "deposit",
      "outputs": [],
      "stateMutability": "nonpayable",
      "type": "function"
    },
    {
      "inputs": [
        {
          "internalType": "uint256",
          "name": "_pid",
          "type": "uint256"
        }
      ],
      "name": "emergencyWithdraw",
      "outputs": [],
      "stateMutability": "nonpayable",
      "type": "function"
    },
    {
      "inputs": [
        {
          "internalType": "uint256",
          "name": "_from",
          "type": "uint256"
        },
        {
          "internalType": "uint256",
          "name": "_to",
          "type": "uint256"
        }
      ],
      "name": "getMultiplier",
      "outputs": [
        {
          "internalType": "uint256",
          "name": "",
          "type": "uint256"
        }
      ],
      "stateMutability": "view",
      "type": "function"
    },
    {
      "inputs": [],
      "name": "getPoolLength",
      "outputs": [
        {
          "internalType": "uint256",
          "name": "",
          "type": "uint256"
        }
      ],
      "stateMutability": "view",
      "type": "function"
    },
    {
      "inputs": [
        {
          "internalType": "contract IBEP20",
          "name": "_pred",
          "type": "address"
        },
        {
          "internalType": "uint256",
          "name": "_bnbPerBlock",
          "type": "uint256"
        },
        {
          "internalType": "uint256",
          "name": "_startBlock",
          "type": "uint256"
        },
        {
          "internalType": "uint256",
          "name": "_maxPredDeposit",
          "type": "uint256"
        },
        {
          "internalType": "contract PredictionWallet",
          "name": "_wallet",
          "type": "address"
        },
        {
          "internalType": "contract IPrediction",
          "name": "_prediction",
          "type": "address"
        }
      ],
      "name": "initialize",
      "outputs": [],
      "stateMutability": "nonpayable",
      "type": "function"
    },
    {
      "inputs": [],
      "name": "maxPredDeposit",
      "outputs": [
        {
          "internalType": "uint256",
          "name": "",
          "type": "uint256"
        }
      ],
      "stateMutability": "view",
      "type": "function"
    },
    {
      "inputs": [],
      "name": "owner",
      "outputs": [
        {
          "internalType": "address",
          "name": "",
          "type": "address"
        }
      ],
      "stateMutability": "view",
      "type": "function"
    },
    {
      "inputs": [],
      "name": "pause",
      "outputs": [],
      "stateMutability": "nonpayable",
      "type": "function"
    },
    {
      "inputs": [],
      "name": "paused",
      "outputs": [
        {
          "internalType": "bool",
          "name": "",
          "type": "bool"
        }
      ],
      "stateMutability": "view",
      "type": "function"
    },
    {
      "inputs": [
        {
          "internalType": "uint256",
          "name": "_pid",
          "type": "uint256"
        },
        {
          "internalType": "address",
          "name": "_user",
          "type": "address"
        }
      ],
      "name": "pendingBNB",
      "outputs": [
        {
          "internalType": "uint256",
          "name": "",
          "type": "uint256"
        }
      ],
      "stateMutability": "view",
      "type": "function"
    },
    {
      "inputs": [
        {
          "internalType": "uint256",
          "name": "",
          "type": "uint256"
        }
      ],
      "name": "poolInfo",
      "outputs": [
        {
          "internalType": "uint256",
          "name": "allocPoint",
          "type": "uint256"
        },
        {
          "internalType": "uint256",
          "name": "lastRewardBlock",
          "type": "uint256"
        },
        {
          "internalType": "uint256",
          "name": "accBNBPerShare",
          "type": "uint256"
        },
        {
          "internalType": "uint256",
          "name": "epoch",
          "type": "uint256"
        },
        {
          "internalType": "uint256",
          "name": "amount",
          "type": "uint256"
        }
      ],
      "stateMutability": "view",
      "type": "function"
    },
    {
      "inputs": [],
      "name": "poolLength",
      "outputs": [
        {
          "internalType": "uint256",
          "name": "",
          "type": "uint256"
        }
      ],
      "stateMutability": "view",
      "type": "function"
    },
    {
      "inputs": [],
      "name": "pred",
      "outputs": [
        {
          "internalType": "contract IBEP20",
          "name": "",
          "type": "address"
        }
      ],
      "stateMutability": "view",
      "type": "function"
    },
    {
      "inputs": [],
      "name": "prediction",
      "outputs": [
        {
          "internalType": "contract IPrediction",
          "name": "",
          "type": "address"
        }
      ],
      "stateMutability": "view",
      "type": "function"
    },
    {
      "inputs": [],
      "name": "renounceOwnership",
      "outputs": [],
      "stateMutability": "nonpayable",
      "type": "function"
    },
    {
      "inputs": [
        {
          "internalType": "uint256",
          "name": "_allocPoint",
          "type": "uint256"
        }
      ],
      "name": "setAllocPoint",
      "outputs": [],
      "stateMutability": "nonpayable",
      "type": "function"
    },
    {
      "inputs": [
        {
          "internalType": "uint256",
          "name": "_maxPredDeposit",
          "type": "uint256"
        }
      ],
      "name": "setMaxPredDeposit",
      "outputs": [],
      "stateMutability": "nonpayable",
      "type": "function"
    },
    {
      "inputs": [],
      "name": "startBlock",
      "outputs": [
        {
          "internalType": "uint256",
          "name": "",
          "type": "uint256"
        }
      ],
      "stateMutability": "view",
      "type": "function"
    },
    {
      "inputs": [],
      "name": "totalRewardDebt",
      "outputs": [
        {
          "internalType": "uint256",
          "name": "",
          "type": "uint256"
        }
      ],
      "stateMutability": "view",
      "type": "function"
    },
    {
      "inputs": [
        {
          "internalType": "address",
          "name": "newOwner",
          "type": "address"
        }
      ],
      "name": "transferOwnership",
      "outputs": [],
      "stateMutability": "nonpayable",
      "type": "function"
    },
    {
      "inputs": [],
      "name": "unpause",
      "outputs": [],
      "stateMutability": "nonpayable",
      "type": "function"
    },
    {
      "inputs": [
        {
          "internalType": "uint256",
          "name": "multiplierNumber",
          "type": "uint256"
        }
      ],
      "name": "updateMultiplier",
      "outputs": [],
      "stateMutability": "nonpayable",
      "type": "function"
    },
    {
      "inputs": [
        {
          "internalType": "uint256",
          "name": "_pid",
          "type": "uint256"
        }
      ],
      "name": "updatePool",
      "outputs": [],
      "stateMutability": "nonpayable",
      "type": "function"
    },
    {
      "inputs": [
        {
          "internalType": "address",
          "name": "newImplementation",
          "type": "address"
        }
      ],
      "name": "upgradeTo",
      "outputs": [],
      "stateMutability": "nonpayable",
      "type": "function"
    },
    {
      "inputs": [
        {
          "internalType": "address",
          "name": "newImplementation",
          "type": "address"
        },
        {
          "internalType": "bytes",
          "name": "data",
          "type": "bytes"
        }
      ],
      "name": "upgradeToAndCall",
      "outputs": [],
      "stateMutability": "payable",
      "type": "function"
    },
    {
      "inputs": [
        {
          "internalType": "uint256",
          "name": "",
          "type": "uint256"
        },
        {
          "internalType": "address",
          "name": "",
          "type": "address"
        }
      ],
      "name": "userInfo",
      "outputs": [
        {
          "internalType": "uint256",
          "name": "amount",
          "type": "uint256"
        },
        {
          "internalType": "uint256",
          "name": "rewardDebt",
          "type": "uint256"
        }
      ],
      "stateMutability": "view",
      "type": "function"
    },
    {
      "inputs": [],
      "name": "wallet",
      "outputs": [
        {
          "internalType": "contract PredictionWallet",
          "name": "",
          "type": "address"
        }
      ],
      "stateMutability": "view",
      "type": "function"
    },
    {
      "inputs": [
        {
          "internalType": "uint256",
          "name": "_pid",
          "type": "uint256"
        },
        {
          "internalType": "uint256",
          "name": "_amount",
          "type": "uint256"
        }
      ],
      "name": "withdraw",
      "outputs": [],
      "stateMutability": "nonpayable",
      "type": "function"
    }
  ],
  "bytecode": "0x608060405234801561001057600080fd5b50612972806100206000396000f3fe6080604052600436106101a35760003560e01c8063715018a6116100e2578063b3944d5211610085578063b3944d52146101a8578063bf9fe138146104b4578063c26780b0146104d4578063d3dd7eb7146104f5578063e0747c961461050c578063e2bbb1581461052c578063e5c9ad2e1461054c578063f2fde38b1461056c576101a3565b8063715018a6146103bc57806383bb3877146103d15780638456cb59146103e85780638aa28550146103fd5780638da5cb5b146104135780638dbb1e3a1461042857806393f1a40b14610448578063ae5241a01461049d576101a3565b80634f1ef2861161014a5780634f1ef286146102d057806350b48710146102e357806351eb05a6146102f9578063521eb273146103195780635312ea8e146103395780635c975abb146103595780635ffe61461461037c57806363a1fce21461039c576101a3565b8063081e3eda146101a85780631003e2d2146101cd5780631526fe27146101ef5780632372c916146102375780633659cfe6146102645780633f4ba83a14610284578063441a3e701461029957806348cd4cb1146102b9575b600080fd5b3480156101b457600080fd5b50610101545b6040519081526020015b60405180910390f35b3480156101d957600080fd5b506101ed6101e83660046124cb565b61058c565b005b3480156101fb57600080fd5b5061020f61020a3660046124cb565b610936565b604080519586526020860194909452928401919091526060830152608082015260a0016101c4565b34801561024357600080fd5b5060fc54610257906001600160a01b031681565b6040516101c491906126ac565b34801561027057600080fd5b506101ed61027f36600461238e565b610978565b34801561029057600080fd5b506101ed61099f565b3480156102a557600080fd5b506101ed6102b436600461252a565b6109d8565b3480156102c557600080fd5b506101ba6101045481565b6101ed6102de3660046123aa565b610c04565b3480156102ef57600080fd5b506101ba60fd5481565b34801561030557600080fd5b506101ed6103143660046124cb565b610c1d565b34801561032557600080fd5b5060ff54610257906001600160a01b031681565b34801561034557600080fd5b506101ed6103543660046124cb565b610db5565b34801561036557600080fd5b5060335460ff1660405190151581526020016101c4565b34801561038857600080fd5b506101ed6103973660046124cb565b610ec8565b3480156103a857600080fd5b506101ba6103b73660046124fb565b610efc565b3480156103c857600080fd5b506101ed6110bb565b3480156103dd57600080fd5b506101ba6101055481565b3480156103f457600080fd5b506101ed6110f4565b34801561040957600080fd5b506101ba60fe5481565b34801561041f57600080fd5b5061025761112b565b34801561043457600080fd5b506101ba61044336600461252a565b61113a565b34801561045457600080fd5b506104886104633660046124fb565b6101026020908152600092835260408084209091529082529020805460019091015482565b604080519283526020830191909152016101c4565b3480156104a957600080fd5b506101ba6101005481565b3480156104c057600080fd5b506101ed6104cf366004612465565b611155565b3480156104e057600080fd5b506101ed6104ef3660046124cb565b61010055565b34801561050157600080fd5b506101ba6101035481565b34801561051857600080fd5b506101ed6105273660046124cb565b611233565b34801561053857600080fd5b506101ed61054736600461252a565b6112bb565b34801561055857600080fd5b5060fb54610257906001600160a01b031681565b34801561057857600080fd5b506101ed61058736600461238e565b61172f565b3361059561112b565b6001600160a01b0316146105c45760405162461bcd60e51b81526004016105bb906127b2565b60405180910390fd5b60fc5460405163023c4c9f60e61b8152600481018390526000916001600160a01b031690638f1327c09060240160006040518083038186803b15801561060957600080fd5b505afa15801561061d573d6000803e3d6000fd5b505050506040513d6000823e601f3d908101601f19168201604052610645919081019061254b565b505050505050945050505050806106af5760405162461bcd60e51b815260206004820152602860248201527f526f756e6420776173206e6f74207375636365737366756c206f72206e6f7420604482015267636f6d706c65746560c01b60648201526084016105bb565b60fc5460408051630ecce30160e31b815290516000926001600160a01b031691637667180891600480830192602092919082900301818787803b1580156106f557600080fd5b505af1158015610709573d6000803e3d6000fd5b505050506040513d601f19601f8201168201806040525081019061072d91906124e3565b905082811461081d5760fc5460405163023c4c9f60e61b8152600481018390526000916001600160a01b031690638f1327c09060240160006040518083038186803b15801561077b57600080fd5b505afa15801561078f573d6000803e3d6000fd5b505050506040513d6000823e601f3d908101601f191682016040526107b7919081019061254b565b505050505050945050505050801561081b5760405162461bcd60e51b815260206004820152602160248201527f43757272656e7420526f756e6420697320616c726561647920636f6d706c65746044820152606560f81b60648201526084016105bb565b505b6101015415610924576101015460009061083990600190612891565b905083610101828154811061085e57634e487b7160e01b600052603260045260246000fd5b906000526020600020906005020160030154106108d55760405162461bcd60e51b815260206004820152602f60248201527f4e65772065706f63682063616e6e6f74206265206c657373206f72206571756160448201526e0d840e8de40e0c2e6e840cae0dec6d608b1b60648201526084016105bb565b6108de81610c1d565b6101018054600091906108f390600190612891565b8154811061091157634e487b7160e01b600052603260045260246000fd5b6000918252602090912060059091020155505b61093161010354846117cc565b505050565b610101818154811061094757600080fd5b6000918252602090912060059091020180546001820154600283015460038401546004909401549294509092909185565b61098181611911565b61099c81604051806020016040528060008152506000611940565b50565b336109a861112b565b6001600160a01b0316146109ce5760405162461bcd60e51b81526004016105bb906127b2565b6109d6611a87565b565b60335460ff16156109fb5760405162461bcd60e51b81526004016105bb9061273a565b60006101018381548110610a1f57634e487b7160e01b600052603260045260246000fd5b60009182526020808320868452610102825260408085203386529092529220805460059092029092019250831115610a8e5760405162461bcd60e51b81526020600482015260126024820152711dda5d1a191c985dce881b9bdd0819dbdbd960721b60448201526064016105bb565b610a9784610c1d565b6000610ad88260010154610ad268327cb2734119d3b7a9601e1b610acc87600201548760000154611aed90919063ffffffff16565b90611af9565b90611b05565b90508015610aea57610aea3382611b11565b8315610b29578154610afc9085611b05565b82556004830154610b0d9085611b05565b600484015560fb54610b29906001600160a01b03163386611ba9565b60028301548254610b4b9168327cb2734119d3b7a9601e1b91610acc91611aed565b8260010181905550826101018681548110610b7657634e487b7160e01b600052603260045260246000fd5b9060005260206000209060050201600082015481600001556001820154816001015560028201548160020155600382015481600301556004820154816004015590505084336001600160a01b03167ff279e6a1f5e320cca91135676d9cb6e44ca8a08c0b88342bcdb1144f6511b56886604051610bf591815260200190565b60405180910390a35050505050565b610c0d82611911565b610c1982826001611940565b5050565b60006101018281548110610c4157634e487b7160e01b600052603260045260246000fd5b9060005260206000209060050201905080600101544311610c62575061099c565b60fb546040516370a0823160e01b81526000916001600160a01b0316906370a0823190610c939030906004016126ac565b60206040518083038186803b158015610cab57600080fd5b505afa158015610cbf573d6000803e3d6000fd5b505050506040513d601f19601f82011682018060405250810190610ce391906124e3565b905080610cf757504360019091015561099c565b6000610d0783600101544361113a565b90506000610d3561010354610acc8660000154610d2f60fd5487611aed90919063ffffffff16565b90611aed565b6101055460ff54919250600091610d58916001600160a01b039091163190611b05565b9050808210610d65578091505b610d8d610d8285610acc8568327cb2734119d3b7a9601e1b611aed565b600287015490611bff565b600286015561010554610da09083611bff565b61010555505043600190930192909255505050565b60335460ff16610dd75760405162461bcd60e51b81526004016105bb9061270c565b60006101018281548110610dfb57634e487b7160e01b600052603260045260246000fd5b60009182526020808320858452610102825260408085203386529092529083208054848255600182018590556002600590940290920192830154929450929091610e5e908290610ad29068327cb2734119d3b7a9601e1b90610acc908790611aed565b9050610105548111610e7d5761010554610e789082611b05565b610105555b60fb54610e94906001600160a01b03163384611ba9565b604051828152859033907fbb757047c2b5f3974fe26b7c10f732e7bce710b0952a71082702781e62ae059590602001610bf5565b33610ed161112b565b6001600160a01b031614610ef75760405162461bcd60e51b81526004016105bb906127b2565b60fe55565b6000806101018481548110610f2157634e487b7160e01b600052603260045260246000fd5b60009182526020808320878452610102825260408085206001600160a01b03808a1687529352808520600260059095029092019384015460fb5491516370a0823160e01b815294965091949193919216906370a0823190610f869030906004016126ac565b60206040518083038186803b158015610f9e57600080fd5b505afa158015610fb2573d6000803e3d6000fd5b505050506040513d601f19601f82011682018060405250810190610fd691906124e3565b9050836001015443118015610fea57508015155b15611081576000610fff85600101544361113a565b9050600061102761010354610acc8860000154610d2f60fd5487611aed90919063ffffffff16565b6101055460ff5491925060009161104a916001600160a01b039091163190611b05565b9050808210611057578091505b61107b61107485610acc8568327cb2734119d3b7a9601e1b611aed565b8690611bff565b94505050505b6110b08360010154610ad268327cb2734119d3b7a9601e1b610acc868860000154611aed90919063ffffffff16565b979650505050505050565b336110c461112b565b6001600160a01b0316146110ea5760405162461bcd60e51b81526004016105bb906127b2565b6109d66000611c0b565b336110fd61112b565b6001600160a01b0316146111235760405162461bcd60e51b81526004016105bb906127b2565b6109d6611c5d565b60c9546001600160a01b031690565b60fe5460009061114e90610d2f8486611b05565b9392505050565b600054610100900460ff168061116e575060005460ff16155b61118a5760405162461bcd60e51b81526004016105bb90612764565b600054610100900460ff161580156111b5576000805460ff1961ff0019909116610100171660011790555b6111bd611cb5565b60fb80546001600160a01b03808a166001600160a01b03199283161790925560fd88905561010487905560ff805486841690831617905560fc805492851692909116919091179055610100849055620f424060fe5560c861010355801561122a576000805461ff00191690555b50505050505050565b3361123c61112b565b6001600160a01b0316146112625760405162461bcd60e51b81526004016105bb906127b2565b6101015460009061127590600190612891565b905061128081610c1d565b8161010182815481106112a357634e487b7160e01b600052603260045260246000fd5b60009182526020909120600590910201555061010355565b60335460ff16156112de5760405162461bcd60e51b81526004016105bb9061273a565b6000610101838154811061130257634e487b7160e01b600052603260045260246000fd5b60009182526020918290206040805160a081018252600590930290910180548352600181015493830193909352600283015482820152600383015460608301819052600493840154608084015260fc549151630e46827160e11b81529294506001600160a01b0390911692631c8d04e2926113819233929091016126c0565b60206040518083038186803b15801561139957600080fd5b505afa1580156113ad573d6000803e3d6000fd5b505050506040513d601f19601f820116820180604052508101906113d1919061244b565b6114285760405162461bcd60e51b815260206004820152602260248201527f446964206e6f74206c6f736520746869732050726564696374696f6e20726f756044820152611b9960f21b60648201526084016105bb565b600083815261010260209081526040808320338452909152902061144b84610c1d565b80541561149b5760006114878260010154610ad268327cb2734119d3b7a9601e1b610acc87604001518760000154611aed90919063ffffffff16565b90508015611499576114993382611b11565b505b82156116685760fb546040516370a0823160e01b81526000916001600160a01b0316906370a08231906114d29030906004016126ac565b60206040518083038186803b1580156114ea57600080fd5b505afa1580156114fe573d6000803e3d6000fd5b505050506040513d601f19601f8201168201806040525081019061152291906124e3565b60fb5490915061153d906001600160a01b0316333087611d39565b60fb546040516370a0823160e01b81526115cd916115c59184916001600160a01b0316906370a08231906115759030906004016126ac565b60206040518083038186803b15801561158d57600080fd5b505afa1580156115a1573d6000803e3d6000fd5b505050506040513d601f19601f82011682018060405250810190610ad291906124e3565b835490611bff565b825560fb546040516370a0823160e01b8152611612916116079184916001600160a01b0316906370a08231906115759030906004016126ac565b608085015190611bff565b608084015261010054825411156116665760405162461bcd60e51b815260206004820152601860248201527713585e08141491510811195c1bdcda5d0814995858da195960421b60448201526064016105bb565b505b6040820151815461168a9168327cb2734119d3b7a9601e1b91610acc91611aed565b81600101819055508161010185815481106116b557634e487b7160e01b600052603260045260246000fd5b600091825260209182902083516005909202019081558282015160018201556040808401516002830155606084015160038301556080909301516004909101559051848152859133917f90890809c654f11d6e72a28fa60149770a0d11ec6c92319d6ceb2bb0a4ea1a15910160405180910390a350505050565b3361173861112b565b6001600160a01b03161461175e5760405162461bcd60e51b81526004016105bb906127b2565b6001600160a01b0381166117c35760405162461bcd60e51b815260206004820152602660248201527f4f776e61626c653a206e6577206f776e657220697320746865207a65726f206160448201526564647265737360d01b60648201526084016105bb565b61099c81611c0b565b336117d561112b565b6001600160a01b0316146117fb5760405162461bcd60e51b81526004016105bb906127b2565b60006101045443116118105761010454611812565b435b6040805160a08101825294855260208501918252600090850181815260608601948552608086018281526101018054600181018255935295517f109ea3cebb188b9c1b9fc5bb3920be60dfdc8699098dff92f3d80daaca74768960059093029283015591517f109ea3cebb188b9c1b9fc5bb3920be60dfdc8699098dff92f3d80daaca74768a82015590517f109ea3cebb188b9c1b9fc5bb3920be60dfdc8699098dff92f3d80daaca74768b82015591517f109ea3cebb188b9c1b9fc5bb3920be60dfdc8699098dff92f3d80daaca74768c8301555090517f109ea3cebb188b9c1b9fc5bb3920be60dfdc8699098dff92f3d80daaca74768d90910155565b3361191a61112b565b6001600160a01b03161461099c5760405162461bcd60e51b81526004016105bb906127b2565b600061194a611d77565b905061195584611da5565b6000835111806119625750815b15611973576119718484611e51565b505b7f4910fdfa16fed3260ed0e7147f7cc6da11a60208b5b9406d12a635614ffd9143805460ff16611a8057805460ff191660011781556040516119ee9086906119bf9085906024016126ac565b60408051601f198184030181529190526020810180516001600160e01b0316631b2ce7f360e11b179052611e51565b50805460ff191681556119ff611d77565b6001600160a01b0316826001600160a01b031614611a775760405162461bcd60e51b815260206004820152602f60248201527f45524331393637557067726164653a207570677261646520627265616b73206660448201526e75727468657220757067726164657360881b60648201526084016105bb565b611a8085611f43565b5050505050565b60335460ff16611aa95760405162461bcd60e51b81526004016105bb9061270c565b6033805460ff191690557f5db9ee0a495bf2e6ff9c91a7834c1ba4fdd244a5e8aa4e537bd38aeae4b073aa335b604051611ae391906126ac565b60405180910390a1565b600061114e8284612872565b600061114e8284612852565b600061114e8284612891565b60ff54604051635944b01760e01b8152611ba1916001600160a01b031690635944b01790611b4590869086906004016126c0565b602060405180830381600087803b158015611b5f57600080fd5b505af1158015611b73573d6000803e3d6000fd5b505050506040513d601f19601f82011682018060405250810190611b9791906124e3565b6101055490611b05565b610105555050565b6109318363a9059cbb60e01b8484604051602401611bc89291906126c0565b60408051601f198184030181529190526020810180516001600160e01b03166001600160e01b031990931692909217909152611f83565b600061114e828461283a565b60c980546001600160a01b038381166001600160a01b0319831681179093556040519116919082907f8be0079c531659141344cd1fd0a4f28419497f9722a3daafe3b4186f6b6457e090600090a35050565b60335460ff1615611c805760405162461bcd60e51b81526004016105bb9061273a565b6033805460ff191660011790557f62e78cea01bee320cd4e420270b5ea74000d11b0c9f74754ebdbfc544b05a258611ad63390565b600054610100900460ff1680611cce575060005460ff16155b611cea5760405162461bcd60e51b81526004016105bb90612764565b600054610100900460ff16158015611d15576000805460ff1961ff0019909116610100171660011790555b611d1d612055565b611d256120c8565b801561099c576000805461ff001916905550565b6040516001600160a01b0380851660248301528316604482015260648101829052611d719085906323b872dd60e01b90608401611bc8565b50505050565b7f360894a13ba1a3210667c828492db98dca3e2076cc3735a920a3ca505d382bbc546001600160a01b031690565b611dae81612131565b611e105760405162461bcd60e51b815260206004820152602d60248201527f455243313936373a206e657720696d706c656d656e746174696f6e206973206e60448201526c1bdd08184818dbdb9d1c9858dd609a1b60648201526084016105bb565b7f360894a13ba1a3210667c828492db98dca3e2076cc3735a920a3ca505d382bbc80546001600160a01b0319166001600160a01b0392909216919091179055565b6060611e5c83612131565b611eb75760405162461bcd60e51b815260206004820152602660248201527f416464726573733a2064656c65676174652063616c6c20746f206e6f6e2d636f6044820152651b9d1c9858dd60d21b60648201526084016105bb565b600080846001600160a01b031684604051611ed29190612690565b600060405180830381855af49150503d8060008114611f0d576040519150601f19603f3d011682016040523d82523d6000602084013e611f12565b606091505b5091509150611f3a82826040518060600160405280602781526020016129166027913961213b565b95945050505050565b611f4c81611da5565b6040516001600160a01b038216907fbc7cd75a20ee27fd9adebab32041f755214dbc6bffa90cc0225b39da2e5c2d3b90600090a250565b6000611fd8826040518060400160405280602081526020017f5361666545524332303a206c6f772d6c6576656c2063616c6c206661696c6564815250856001600160a01b03166121749092919063ffffffff16565b8051909150156109315780806020019051810190611ff6919061244b565b6109315760405162461bcd60e51b815260206004820152602a60248201527f5361666545524332303a204552433230206f7065726174696f6e20646964206e6044820152691bdd081cdd58d8d9595960b21b60648201526084016105bb565b600054610100900460ff168061206e575060005460ff16155b61208a5760405162461bcd60e51b81526004016105bb90612764565b600054610100900460ff16158015611d25576000805460ff1961ff001990911661010017166001179055801561099c576000805461ff001916905550565b600054610100900460ff16806120e1575060005460ff16155b6120fd5760405162461bcd60e51b81526004016105bb90612764565b600054610100900460ff16158015612128576000805460ff1961ff0019909116610100171660011790555b611d2533611c0b565b803b15155b919050565b6060831561214a57508161114e565b82511561215a5782518084602001fd5b8160405162461bcd60e51b81526004016105bb91906126d9565b6060612183848460008561218b565b949350505050565b6060824710156121ec5760405162461bcd60e51b815260206004820152602660248201527f416464726573733a20696e73756666696369656e742062616c616e636520666f6044820152651c8818d85b1b60d21b60648201526084016105bb565b6121f585612131565b6122415760405162461bcd60e51b815260206004820152601d60248201527f416464726573733a2063616c6c20746f206e6f6e2d636f6e747261637400000060448201526064016105bb565b600080866001600160a01b0316858760405161225d9190612690565b60006040518083038185875af1925050503d806000811461229a576040519150601f19603f3d011682016040523d82523d6000602084013e61229f565b606091505b50915091506110b082828661213b565b600082601f8301126122bf578081fd5b815160206122d46122cf83612817565b6127e7565b82815281810190858301838502870184018810156122f0578586fd5b855b8581101561231757815161230581612900565b845292840192908401906001016122f2565b5090979650505050505050565b600082601f830112612334578081fd5b815160206123446122cf83612817565b8281528181019085830183850287018401881015612360578586fd5b855b8581101561231757815184529284019290840190600101612362565b8051801515811461213657600080fd5b60006020828403121561239f578081fd5b813561114e81612900565b600080604083850312156123bc578081fd5b82356123c781612900565b91506020838101356001600160401b03808211156123e3578384fd5b818601915086601f8301126123f6578384fd5b813581811115612408576124086128ea565b61241a601f8201601f191685016127e7565b9150808252878482850101111561242f578485fd5b8084840185840137810190920192909252919491935090915050565b60006020828403121561245c578081fd5b61114e8261237e565b60008060008060008060c0878903121561247d578182fd5b863561248881612900565b955060208701359450604087013593506060870135925060808701356124ad81612900565b915060a08701356124bd81612900565b809150509295509295509295565b6000602082840312156124dc578081fd5b5035919050565b6000602082840312156124f4578081fd5b5051919050565b6000806040838503121561250d578182fd5b82359150602083013561251f81612900565b809150509250929050565b6000806040838503121561253c578182fd5b50508035926020909101359150565b60008060008060008060008060008060006101608c8e03121561256c578889fd5b8b519a5060208c0151995060408c0151985060608c0151975061259160808d0161237e565b965060a08c01516001600160401b038111156125ab578586fd5b6125b78e828f016122af565b96505060c08c01516001600160401b038111156125d2578586fd5b6125de8e828f01612324565b95505060e08c01516001600160401b038111156125f9578485fd5b6126058e828f01612324565b9450506101008c01516001600160401b03811115612621578384fd5b61262d8e828f01612324565b9350506101208c01516001600160401b03811115612649578283fd5b6126558e828f01612324565b9250506101408c01516001600160401b03811115612671578182fd5b61267d8e828f01612324565b9150509295989b509295989b9093969950565b600082516126a28184602087016128a8565b9190910192915050565b6001600160a01b0391909116815260200190565b6001600160a01b03929092168252602082015260400190565b60006020825282518060208401526126f88160408501602087016128a8565b601f01601f19169190910160400192915050565b60208082526014908201527314185d5cd8589b194e881b9bdd081c185d5cd95960621b604082015260600190565b60208082526010908201526f14185d5cd8589b194e881c185d5cd95960821b604082015260600190565b6020808252602e908201527f496e697469616c697a61626c653a20636f6e747261637420697320616c72656160408201526d191e481a5b9a5d1a585b1a5e995960921b606082015260800190565b6020808252818101527f4f776e61626c653a2063616c6c6572206973206e6f7420746865206f776e6572604082015260600190565b604051601f8201601f191681016001600160401b038111828210171561280f5761280f6128ea565b604052919050565b60006001600160401b03821115612830576128306128ea565b5060209081020190565b6000821982111561284d5761284d6128d4565b500190565b60008261286d57634e487b7160e01b81526012600452602481fd5b500490565b600081600019048311821515161561288c5761288c6128d4565b500290565b6000828210156128a3576128a36128d4565b500390565b60005b838110156128c35781810151838201526020016128ab565b83811115611d715750506000910152565b634e487b7160e01b600052601160045260246000fd5b634e487b7160e01b600052604160045260246000fd5b6001600160a01b038116811461099c57600080fdfe416464726573733a206c6f772d6c6576656c2064656c65676174652063616c6c206661696c6564a26469706673582212203ad0ed3b7dab9801e31d6c6c18f625044d6614f485e5fc10e4d250f32e4dcd6464736f6c63430008020033",
  "linkReferences": {},
  "deployedLinkReferences": {}
}