{
  "_format": "hh-sol-artifact-1",
  "contractName": "LoserPredictionPool",
  "sourceName": "contracts/LoserPredictionPool.sol",
  "abi": [
    {
      "anonymous": false,
      "inputs": [
        {
          "indexed": false,
          "internalType": "address",
          "name": "previousAdmin",
          "type": "address"
        },
        {
          "indexed": false,
          "internalType": "address",
          "name": "newAdmin",
          "type": "address"
        }
      ],
      "name": "AdminChanged",
      "type": "event"
    },
    {
      "anonymous": false,
      "inputs": [
        {
          "indexed": true,
          "internalType": "address",
          "name": "beacon",
          "type": "address"
        }
      ],
      "name": "BeaconUpgraded",
      "type": "event"
    },
    {
      "anonymous": false,
      "inputs": [
        {
          "indexed": true,
          "internalType": "address",
          "name": "user",
          "type": "address"
        },
        {
          "indexed": true,
          "internalType": "uint256",
          "name": "pid",
          "type": "uint256"
        },
        {
          "indexed": false,
          "internalType": "uint256",
          "name": "amount",
          "type": "uint256"
        }
      ],
      "name": "Deposit",
      "type": "event"
    },
    {
      "anonymous": false,
      "inputs": [
        {
          "indexed": true,
          "internalType": "address",
          "name": "user",
          "type": "address"
        },
        {
          "indexed": true,
          "internalType": "uint256",
          "name": "pid",
          "type": "uint256"
        },
        {
          "indexed": false,
          "internalType": "uint256",
          "name": "amount",
          "type": "uint256"
        }
      ],
      "name": "EmergencyWithdraw",
      "type": "event"
    },
    {
      "anonymous": false,
      "inputs": [
        {
          "indexed": false,
          "internalType": "address",
          "name": "operator",
          "type": "address"
        }
      ],
      "name": "NewOperatorAddress",
      "type": "event"
    },
    {
      "anonymous": false,
      "inputs": [
        {
          "indexed": true,
          "internalType": "address",
          "name": "previousOwner",
          "type": "address"
        },
        {
          "indexed": true,
          "internalType": "address",
          "name": "newOwner",
          "type": "address"
        }
      ],
      "name": "OwnershipTransferred",
      "type": "event"
    },
    {
      "anonymous": false,
      "inputs": [
        {
          "indexed": false,
          "internalType": "address",
          "name": "account",
          "type": "address"
        }
      ],
      "name": "Paused",
      "type": "event"
    },
    {
      "anonymous": false,
      "inputs": [
        {
          "indexed": false,
          "internalType": "address",
          "name": "account",
          "type": "address"
        }
      ],
      "name": "Unpaused",
      "type": "event"
    },
    {
      "anonymous": false,
      "inputs": [
        {
          "indexed": true,
          "internalType": "address",
          "name": "implementation",
          "type": "address"
        }
      ],
      "name": "Upgraded",
      "type": "event"
    },
    {
      "anonymous": false,
      "inputs": [
        {
          "indexed": true,
          "internalType": "address",
          "name": "user",
          "type": "address"
        },
        {
          "indexed": true,
          "internalType": "uint256",
          "name": "pid",
          "type": "uint256"
        },
        {
          "indexed": false,
          "internalType": "uint256",
          "name": "amount",
          "type": "uint256"
        }
      ],
      "name": "Withdraw",
      "type": "event"
    },
    {
      "inputs": [],
      "name": "BID",
      "outputs": [
        {
          "internalType": "contract IBEP20",
          "name": "",
          "type": "address"
        }
      ],
      "stateMutability": "view",
      "type": "function"
    },
    {
      "inputs": [],
      "name": "BONUS_MULTIPLIER",
      "outputs": [
        {
          "internalType": "uint256",
          "name": "",
          "type": "uint256"
        }
      ],
      "stateMutability": "view",
      "type": "function"
    },
    {
      "inputs": [
        {
          "internalType": "uint256",
          "name": "_epoch",
          "type": "uint256"
        }
      ],
      "name": "add",
      "outputs": [],
      "stateMutability": "nonpayable",
      "type": "function"
    },
    {
      "inputs": [],
      "name": "allocPoint",
      "outputs": [
        {
          "internalType": "uint256",
          "name": "",
          "type": "uint256"
        }
      ],
      "stateMutability": "view",
      "type": "function"
    },
    {
      "inputs": [],
      "name": "bidPerBlock",
      "outputs": [
        {
          "internalType": "uint256",
          "name": "",
          "type": "uint256"
        }
      ],
      "stateMutability": "view",
      "type": "function"
    },
    {
      "inputs": [
        {
          "internalType": "uint256",
          "name": "_pid",
          "type": "uint256"
        },
        {
          "internalType": "uint256",
          "name": "_amount",
          "type": "uint256"
        }
      ],
      "name": "deposit",
      "outputs": [],
      "stateMutability": "nonpayable",
      "type": "function"
    },
    {
      "inputs": [
        {
          "internalType": "uint256",
          "name": "_pid",
          "type": "uint256"
        }
      ],
      "name": "emergencyWithdraw",
      "outputs": [],
      "stateMutability": "nonpayable",
      "type": "function"
    },
    {
      "inputs": [
        {
          "internalType": "uint256",
          "name": "_from",
          "type": "uint256"
        },
        {
          "internalType": "uint256",
          "name": "_to",
          "type": "uint256"
        }
      ],
      "name": "getMultiplier",
      "outputs": [
        {
          "internalType": "uint256",
          "name": "",
          "type": "uint256"
        }
      ],
      "stateMutability": "view",
      "type": "function"
    },
    {
      "inputs": [],
      "name": "getPoolLength",
      "outputs": [
        {
          "internalType": "uint256",
          "name": "",
          "type": "uint256"
        }
      ],
      "stateMutability": "view",
      "type": "function"
    },
    {
      "inputs": [
        {
          "internalType": "address",
          "name": "_operator",
          "type": "address"
        },
        {
          "internalType": "contract IBEP20",
          "name": "_pred",
          "type": "address"
        },
        {
          "internalType": "contract IBEP20",
          "name": "_bid",
          "type": "address"
        },
        {
          "internalType": "uint256",
          "name": "_bidPerBlock",
          "type": "uint256"
        },
        {
          "internalType": "uint256",
          "name": "_startBlock",
          "type": "uint256"
        },
        {
          "internalType": "uint256",
          "name": "_maxPredDeposit",
          "type": "uint256"
        },
        {
          "internalType": "contract PredictionWallet",
          "name": "_wallet",
          "type": "address"
        },
        {
          "internalType": "contract IPrediction",
          "name": "_prediction",
          "type": "address"
        }
      ],
      "name": "initialize",
      "outputs": [],
      "stateMutability": "nonpayable",
      "type": "function"
    },
    {
      "inputs": [
        {
          "internalType": "address",
          "name": "preder",
          "type": "address"
        },
        {
          "internalType": "uint256",
          "name": "round",
          "type": "uint256"
        }
      ],
      "name": "lostRound",
      "outputs": [
        {
          "internalType": "bool",
          "name": "",
          "type": "bool"
        }
      ],
      "stateMutability": "view",
      "type": "function"
    },
    {
      "inputs": [],
      "name": "maxPredDeposit",
      "outputs": [
        {
          "internalType": "uint256",
          "name": "",
          "type": "uint256"
        }
      ],
      "stateMutability": "view",
      "type": "function"
    },
    {
      "inputs": [],
      "name": "operatorAddress",
      "outputs": [
        {
          "internalType": "address",
          "name": "",
          "type": "address"
        }
      ],
      "stateMutability": "view",
      "type": "function"
    },
    {
      "inputs": [],
      "name": "owner",
      "outputs": [
        {
          "internalType": "address",
          "name": "",
          "type": "address"
        }
      ],
      "stateMutability": "view",
      "type": "function"
    },
    {
      "inputs": [],
      "name": "pause",
      "outputs": [],
      "stateMutability": "nonpayable",
      "type": "function"
    },
    {
      "inputs": [],
      "name": "paused",
      "outputs": [
        {
          "internalType": "bool",
          "name": "",
          "type": "bool"
        }
      ],
      "stateMutability": "view",
      "type": "function"
    },
    {
      "inputs": [
        {
          "internalType": "uint256",
          "name": "_pid",
          "type": "uint256"
        },
        {
          "internalType": "address",
          "name": "_user",
          "type": "address"
        }
      ],
      "name": "pendingBID",
      "outputs": [
        {
          "internalType": "uint256",
          "name": "",
          "type": "uint256"
        }
      ],
      "stateMutability": "view",
      "type": "function"
    },
    {
      "inputs": [
        {
          "internalType": "uint256",
          "name": "",
          "type": "uint256"
        }
      ],
      "name": "poolInfo",
      "outputs": [
        {
          "internalType": "uint256",
          "name": "allocPoint",
          "type": "uint256"
        },
        {
          "internalType": "uint256",
          "name": "lastRewardBlock",
          "type": "uint256"
        },
        {
          "internalType": "uint256",
          "name": "accBIDPerShare",
          "type": "uint256"
        },
        {
          "internalType": "uint256",
          "name": "epoch",
          "type": "uint256"
        },
        {
          "internalType": "uint256",
          "name": "amount",
          "type": "uint256"
        }
      ],
      "stateMutability": "view",
      "type": "function"
    },
    {
      "inputs": [],
      "name": "poolLength",
      "outputs": [
        {
          "internalType": "uint256",
          "name": "",
          "type": "uint256"
        }
      ],
      "stateMutability": "view",
      "type": "function"
    },
    {
      "inputs": [],
      "name": "pred",
      "outputs": [
        {
          "internalType": "contract IBEP20",
          "name": "",
          "type": "address"
        }
      ],
      "stateMutability": "view",
      "type": "function"
    },
    {
      "inputs": [],
      "name": "prediction",
      "outputs": [
        {
          "internalType": "contract IPrediction",
          "name": "",
          "type": "address"
        }
      ],
      "stateMutability": "view",
      "type": "function"
    },
    {
      "inputs": [],
      "name": "renounceOwnership",
      "outputs": [],
      "stateMutability": "nonpayable",
      "type": "function"
    },
    {
      "inputs": [
        {
          "internalType": "uint256",
          "name": "_allocPoint",
          "type": "uint256"
        }
      ],
      "name": "setAllocPoint",
      "outputs": [],
      "stateMutability": "nonpayable",
      "type": "function"
    },
    {
      "inputs": [
        {
          "internalType": "uint256",
          "name": "_maxPredDeposit",
          "type": "uint256"
        }
      ],
      "name": "setMaxPredDeposit",
      "outputs": [],
      "stateMutability": "nonpayable",
      "type": "function"
    },
    {
      "inputs": [
        {
          "internalType": "address",
          "name": "_operatorAddress",
          "type": "address"
        }
      ],
      "name": "setOperator",
      "outputs": [],
      "stateMutability": "nonpayable",
      "type": "function"
    },
    {
      "inputs": [
        {
          "internalType": "uint256",
          "name": "_allocPoint",
          "type": "uint256"
        }
      ],
      "name": "setPoolAllocPoint",
      "outputs": [],
      "stateMutability": "nonpayable",
      "type": "function"
    },
    {
      "inputs": [],
      "name": "startBlock",
      "outputs": [
        {
          "internalType": "uint256",
          "name": "",
          "type": "uint256"
        }
      ],
      "stateMutability": "view",
      "type": "function"
    },
    {
      "inputs": [],
      "name": "totalRewardDebt",
      "outputs": [
        {
          "internalType": "uint256",
          "name": "",
          "type": "uint256"
        }
      ],
      "stateMutability": "view",
      "type": "function"
    },
    {
      "inputs": [
        {
          "internalType": "address",
          "name": "newOwner",
          "type": "address"
        }
      ],
      "name": "transferOwnership",
      "outputs": [],
      "stateMutability": "nonpayable",
      "type": "function"
    },
    {
      "inputs": [],
      "name": "unpause",
      "outputs": [],
      "stateMutability": "nonpayable",
      "type": "function"
    },
    {
      "inputs": [
        {
          "internalType": "uint256",
          "name": "multiplierNumber",
          "type": "uint256"
        }
      ],
      "name": "updateMultiplier",
      "outputs": [],
      "stateMutability": "nonpayable",
      "type": "function"
    },
    {
      "inputs": [
        {
          "internalType": "uint256",
          "name": "_pid",
          "type": "uint256"
        }
      ],
      "name": "updatePool",
      "outputs": [],
      "stateMutability": "nonpayable",
      "type": "function"
    },
    {
      "inputs": [
        {
          "internalType": "address",
          "name": "newImplementation",
          "type": "address"
        }
      ],
      "name": "upgradeTo",
      "outputs": [],
      "stateMutability": "nonpayable",
      "type": "function"
    },
    {
      "inputs": [
        {
          "internalType": "address",
          "name": "newImplementation",
          "type": "address"
        },
        {
          "internalType": "bytes",
          "name": "data",
          "type": "bytes"
        }
      ],
      "name": "upgradeToAndCall",
      "outputs": [],
      "stateMutability": "payable",
      "type": "function"
    },
    {
      "inputs": [
        {
          "internalType": "uint256",
          "name": "",
          "type": "uint256"
        },
        {
          "internalType": "address",
          "name": "",
          "type": "address"
        }
      ],
      "name": "userInfo",
      "outputs": [
        {
          "internalType": "uint256",
          "name": "amount",
          "type": "uint256"
        },
        {
          "internalType": "uint256",
          "name": "rewardDebt",
          "type": "uint256"
        }
      ],
      "stateMutability": "view",
      "type": "function"
    },
    {
      "inputs": [],
      "name": "wallet",
      "outputs": [
        {
          "internalType": "contract PredictionWallet",
          "name": "",
          "type": "address"
        }
      ],
      "stateMutability": "view",
      "type": "function"
    },
    {
      "inputs": [
        {
          "internalType": "uint256",
          "name": "_pid",
          "type": "uint256"
        },
        {
          "internalType": "uint256",
          "name": "_amount",
          "type": "uint256"
        }
      ],
      "name": "withdraw",
      "outputs": [],
      "stateMutability": "nonpayable",
      "type": "function"
    },
    {
      "inputs": [
        {
          "internalType": "address",
          "name": "preder",
          "type": "address"
        },
        {
          "internalType": "uint256",
          "name": "round",
          "type": "uint256"
        }
      ],
      "name": "wonRound",
      "outputs": [
        {
          "internalType": "bool",
          "name": "",
          "type": "bool"
        }
      ],
      "stateMutability": "view",
      "type": "function"
    }
  ],
  "bytecode": "0x608060405234801561001057600080fd5b50612be4806100206000396000f3fe6080604052600436106102055760003560e01c8063715018a611610113578063b3ab15fb116100ab578063e2bbb1581161006f578063e2bbb1581461061f578063e5c9ad2e1461063f578063e775db301461065f578063f2fde38b14610675578063f54265781461069557610205565b8063b3ab15fb14610587578063b7a3c110146105a7578063c26780b0146105c7578063d3dd7eb7146105e8578063e0747c96146105ff57610205565b8063715018a61461048f57806383bb3877146104a45780638456cb59146104bb5780638aa28550146104d05780638da5cb5b146104e65780638dbb1e3a146104fb57806393f1a40b1461051b578063ae5241a014610570578063b3944d521461020a57610205565b80633f4ba83a116101a157806351eb05a61161016557806351eb05a6146103f6578063521eb273146104165780635312ea8e146104375780635c975abb146104575780635ffe61461461046f57610205565b80633f4ba83a14610377578063441a3e701461038c578063487a6038146103ac57806348cd4cb1146103cc5780634f1ef286146103e357610205565b8063081e3eda1461020a5780631003e2d21461022f578063127effb2146102515780631521604e1461027f5780631526fe27146102af5780631b58a681146102f75780631c8d04e2146103175780632372c916146103375780633659cfe614610357575b600080fd5b34801561021657600080fd5b50610102545b6040519081526020015b60405180910390f35b34801561023b57600080fd5b5061024f61024a366004612719565b6106b5565b005b34801561025d57600080fd5b5061010754610272906001600160a01b031681565b60405161022691906128fa565b34801561028b57600080fd5b5061029f61029a3660046126d4565b610a2c565b6040519015158152602001610226565b3480156102bb57600080fd5b506102cf6102ca366004612719565b610ab6565b604080519586526020860194909452928401919091526060830152608082015260a001610226565b34801561030357600080fd5b5061024f610312366004612647565b610af8565b34801561032357600080fd5b5061029f6103323660046126d4565b610bf3565b34801561034357600080fd5b5060fd54610272906001600160a01b031681565b34801561036357600080fd5b5061024f61037236600461258a565b610c26565b34801561038357600080fd5b5061024f610c4d565b34801561039857600080fd5b5061024f6103a7366004612778565b610c86565b3480156103b857600080fd5b5060fc54610272906001600160a01b031681565b3480156103d857600080fd5b5061021c6101055481565b61024f6103f13660046125a6565b610eb2565b34801561040257600080fd5b5061024f610411366004612719565b610ecb565b34801561042257600080fd5b5061010054610272906001600160a01b031681565b34801561044357600080fd5b5061024f610452366004612719565b611045565b34801561046357600080fd5b5060335460ff1661029f565b34801561047b57600080fd5b5061024f61048a366004612719565b611158565b34801561049b57600080fd5b5061024f61118c565b3480156104b057600080fd5b5061021c6101065481565b3480156104c757600080fd5b5061024f6111c5565b3480156104dc57600080fd5b5061021c60ff5481565b3480156104f257600080fd5b506102726111fc565b34801561050757600080fd5b5061021c610516366004612778565b61120b565b34801561052757600080fd5b5061055b610536366004612749565b6101036020908152600092835260408084209091529082529020805460019091015482565b60408051928352602083019190915201610226565b34801561057c57600080fd5b5061021c6101015481565b34801561059357600080fd5b5061024f6105a236600461258a565b611225565b3480156105b357600080fd5b5061024f6105c2366004612719565b6112fa565b3480156105d357600080fd5b5061024f6105e2366004612719565b61010155565b3480156105f457600080fd5b5061021c6101045481565b34801561060b57600080fd5b5061024f61061a366004612719565b61137f565b34801561062b57600080fd5b5061024f61063a366004612778565b6113b4565b34801561064b57600080fd5b5060fb54610272906001600160a01b031681565b34801561066b57600080fd5b5061021c60fe5481565b34801561068157600080fd5b5061024f61069036600461258a565b6117b4565b3480156106a157600080fd5b5061021c6106b0366004612749565b611851565b60fd5460405163023c4c9f60e61b8152600481018390526000916001600160a01b031690638f1327c09060240160006040518083038186803b1580156106fa57600080fd5b505afa15801561070e573d6000803e3d6000fd5b505050506040513d6000823e601f3d908101601f191682016040526107369190810190612799565b505050505050945050505050806107a55760405162461bcd60e51b815260206004820152602860248201527f526f756e6420776173206e6f74207375636365737366756c206f72206e6f7420604482015267636f6d706c65746560c01b60648201526084015b60405180910390fd5b60fd5460408051630ecce30160e31b815290516000926001600160a01b031691637667180891600480830192602092919082900301818787803b1580156107eb57600080fd5b505af11580156107ff573d6000803e3d6000fd5b505050506040513d601f19601f820116820180604052508101906108239190612731565b90508281146109135760fd5460405163023c4c9f60e61b8152600481018390526000916001600160a01b031690638f1327c09060240160006040518083038186803b15801561087157600080fd5b505afa158015610885573d6000803e3d6000fd5b505050506040513d6000823e601f3d908101601f191682016040526108ad9190810190612799565b50505050505094505050505080156109115760405162461bcd60e51b815260206004820152602160248201527f43757272656e7420526f756e6420697320616c726561647920636f6d706c65746044820152606560f81b606482015260840161079c565b505b6101025415610a1a576101025460009061092f90600190612b03565b905083610102828154811061095457634e487b7160e01b600052603260045260246000fd5b906000526020600020906005020160030154106109cb5760405162461bcd60e51b815260206004820152602f60248201527f4e65772065706f63682063616e6e6f74206265206c657373206f72206571756160448201526e0d840e8de40e0c2e6e840cae0dec6d608b1b606482015260840161079c565b6109d481610ecb565b6101028054600091906109e990600190612b03565b81548110610a0757634e487b7160e01b600052603260045260246000fd5b6000918252602090912060059091020155505b610a2761010454846119af565b505050565b60fd54604051630a90b02760e11b81526000916001600160a01b031690631521604e90610a5f9086908690600401612932565b60206040518083038186803b158015610a7757600080fd5b505afa158015610a8b573d6000803e3d6000fd5b505050506040513d601f19601f82011682018060405250810190610aaf91906126ff565b9392505050565b6101028181548110610ac757600080fd5b6000918252602090912060059091020180546001820154600283015460038401546004909401549294509092909185565b600054610100900460ff1680610b11575060005460ff16155b610b2d5760405162461bcd60e51b815260040161079c906129d6565b600054610100900460ff16158015610b58576000805460ff1961ff0019909116610100171660011790555b610b60611b0f565b61010780546001600160a01b03199081166001600160a01b038c81169190911790925560fb805482168b841617905560fc805482168a841617905560fe8890556101058790556101008054821686841617905560fd8054909116918416919091179055610101849055620f424060ff5560c8610104558015610be8576000805461ff00191690555b505050505050505050565b60fd54604051630e46827160e11b81526000916001600160a01b031690631c8d04e290610a5f9086908690600401612932565b610c2f81611b93565b610c4a81604051806020016040528060008152506000611bc2565b50565b33610c566111fc565b6001600160a01b031614610c7c5760405162461bcd60e51b815260040161079c90612a24565b610c84611d09565b565b60335460ff1615610ca95760405162461bcd60e51b815260040161079c906129ac565b60006101028381548110610ccd57634e487b7160e01b600052603260045260246000fd5b60009182526020808320868452610103825260408085203386529092529220805460059092029092019250831115610d3c5760405162461bcd60e51b81526020600482015260126024820152711dda5d1a191c985dce881b9bdd0819dbdbd960721b604482015260640161079c565b610d4584610ecb565b6000610d868260010154610d8068327cb2734119d3b7a9601e1b610d7a87600201548760000154611d6f90919063ffffffff16565b90611d7b565b90611d87565b90508015610d9857610d983382611d93565b8315610dd7578154610daa9085611d87565b82556004830154610dbb9085611d87565b600484015560fb54610dd7906001600160a01b03163386611e35565b60028301548254610df99168327cb2734119d3b7a9601e1b91610d7a91611d6f565b8260010181905550826101028681548110610e2457634e487b7160e01b600052603260045260246000fd5b9060005260206000209060050201600082015481600001556001820154816001015560028201548160020155600382015481600301556004820154816004015590505084336001600160a01b03167ff279e6a1f5e320cca91135676d9cb6e44ca8a08c0b88342bcdb1144f6511b56886604051610ea391815260200190565b60405180910390a35050505050565b610ebb82611b93565b610ec782826001611bc2565b5050565b60006101028281548110610eef57634e487b7160e01b600052603260045260246000fd5b9060005260206000209060050201905080600101544311610f105750610c4a565b6004810154610f255743600190910155610c4a565b6000610f3582600101544361120b565b90506000610f4e60fe5483611d6f90919063ffffffff16565b6101065460fc54610100546040516370a0823160e01b8152939450600093610fe393926001600160a01b03908116926370a0823192610f9392909116906004016128fa565b60206040518083038186803b158015610fab57600080fd5b505afa158015610fbf573d6000803e3d6000fd5b505050506040513d601f19601f82011682018060405250810190610d809190612731565b9050808210610ff0578091505b600484015461101e9061101390610d7a8568327cb2734119d3b7a9601e1b611d6f565b600286015490611e8b565b6002850155610106546110319083611e8b565b610106555050436001909201919091555050565b60335460ff166110675760405162461bcd60e51b815260040161079c9061297e565b6000610102828154811061108b57634e487b7160e01b600052603260045260246000fd5b600091825260208083208584526101038252604080852033865290925290832080548482556001820185905560026005909402909201928301549294509290916110ee908290610d809068327cb2734119d3b7a9601e1b90610d7a908790611d6f565b905061010654811161110d57610106546111089082611d87565b610106555b60fb54611124906001600160a01b03163384611e35565b604051828152859033907fbb757047c2b5f3974fe26b7c10f732e7bce710b0952a71082702781e62ae059590602001610ea3565b336111616111fc565b6001600160a01b0316146111875760405162461bcd60e51b815260040161079c90612a24565b60ff55565b336111956111fc565b6001600160a01b0316146111bb5760405162461bcd60e51b815260040161079c90612a24565b610c846000611e97565b336111ce6111fc565b6001600160a01b0316146111f45760405162461bcd60e51b815260040161079c90612a24565b610c84611ee9565b60c9546001600160a01b031690565b60ff54600090610aaf9061121f8486611d87565b90611d6f565b3361122e6111fc565b6001600160a01b0316146112545760405162461bcd60e51b815260040161079c90612a24565b6001600160a01b0381166112a35760405162461bcd60e51b815260206004820152601660248201527543616e6e6f74206265207a65726f206164647265737360501b604482015260640161079c565b61010780546001600160a01b0319166001600160a01b0383161790556040517fc47d127c07bdd56c5ccba00463ce3bd3c1bca71b4670eea6e5d0c02e4aa156e2906112ef9083906128fa565b60405180910390a150565b336113036111fc565b6001600160a01b0316146113295760405162461bcd60e51b815260040161079c90612a24565b6101025460009061133c90600190612b03565b905061134781610ecb565b81610102828154811061136a57634e487b7160e01b600052603260045260246000fd5b60009182526020909120600590910201555050565b336113886111fc565b6001600160a01b0316146113ae5760405162461bcd60e51b815260040161079c90612a24565b61010455565b60335460ff16156113d75760405162461bcd60e51b815260040161079c906129ac565b6113e082610ecb565b6000610102838154811061140457634e487b7160e01b600052603260045260246000fd5b6000918252602090912060fd546005909202016003810154604051630e46827160e11b81529193506001600160a01b0390921691631c8d04e29161144c913391600401612932565b60206040518083038186803b15801561146457600080fd5b505afa158015611478573d6000803e3d6000fd5b505050506040513d601f19601f8201168201806040525081019061149c91906126ff565b6114f35760405162461bcd60e51b815260206004820152602260248201527f446964206e6f74206c6f736520746869732050726564696374696f6e20726f756044820152611b9960f21b606482015260840161079c565b600083815261010360209081526040808320338452909152902080541561155d5760006115498260010154610d8068327cb2734119d3b7a9601e1b610d7a87600201548760000154611d6f90919063ffffffff16565b9050801561155b5761155b3382611d93565b505b82156116da5760fb546040516370a0823160e01b81526000916001600160a01b0316906370a08231906115949030906004016128fa565b60206040518083038186803b1580156115ac57600080fd5b505afa1580156115c0573d6000803e3d6000fd5b505050506040513d601f19601f820116820180604052508101906115e49190612731565b60fb549091506115ff906001600160a01b0316333087611f41565b60fb546040516370a0823160e01b815261163f916116379184916001600160a01b0316906370a0823190610f939030906004016128fa565b835490611e8b565b825560fb546040516370a0823160e01b8152611684916116799184916001600160a01b0316906370a0823190610f939030906004016128fa565b600485015490611e8b565b600484015561010154825411156116d85760405162461bcd60e51b815260206004820152601860248201527713585e08141491510811195c1bdcda5d0814995858da195960421b604482015260640161079c565b505b600282015481546116fc9168327cb2734119d3b7a9601e1b91610d7a91611d6f565b816001018190555081610102858154811061172757634e487b7160e01b600052603260045260246000fd5b9060005260206000209060050201600082015481600001556001820154816001015560028201548160020155600382015481600301556004820154816004015590505083336001600160a01b03167f90890809c654f11d6e72a28fa60149770a0d11ec6c92319d6ceb2bb0a4ea1a15856040516117a691815260200190565b60405180910390a350505050565b336117bd6111fc565b6001600160a01b0316146117e35760405162461bcd60e51b815260040161079c90612a24565b6001600160a01b0381166118485760405162461bcd60e51b815260206004820152602660248201527f4f776e61626c653a206e6577206f776e657220697320746865207a65726f206160448201526564647265737360d01b606482015260840161079c565b610c4a81611e97565b600080610102848154811061187657634e487b7160e01b600052603260045260246000fd5b60009182526020808320878452610103825260408085206001600160a01b038916865290925292206002600590920290920190810154600182015491935090431180156118c65750600483015415155b156119765760006118db84600101544361120b565b905060006118f460fe5483611d6f90919063ffffffff16565b6101065460fc54610100546040516370a0823160e01b815293945060009361193993926001600160a01b03908116926370a0823192610f9392909116906004016128fa565b9050808210611946578091505b60048601546119709061196990610d7a8568327cb2734119d3b7a9601e1b611d6f565b8590611e8b565b93505050505b6119a58260010154610d8068327cb2734119d3b7a9601e1b610d7a858760000154611d6f90919063ffffffff16565b9695505050505050565b610107546001600160a01b031633146119f95760405162461bcd60e51b815260206004820152600c60248201526b2737ba1037b832b930ba37b960a11b604482015260640161079c565b6000610105544311611a0e5761010554611a10565b435b6040805160a08101825294855260208501918252600090850181815260608601948552608086018281526101028054600181018255935295517f93bdaa6a4190909b7c3fbe8d42169ffe1cab19f51dfc8db24c71abf849eced4a60059093029283015591517f93bdaa6a4190909b7c3fbe8d42169ffe1cab19f51dfc8db24c71abf849eced4b82015590517f93bdaa6a4190909b7c3fbe8d42169ffe1cab19f51dfc8db24c71abf849eced4c82015591517f93bdaa6a4190909b7c3fbe8d42169ffe1cab19f51dfc8db24c71abf849eced4d8301555090517f93bdaa6a4190909b7c3fbe8d42169ffe1cab19f51dfc8db24c71abf849eced4e90910155565b600054610100900460ff1680611b28575060005460ff16155b611b445760405162461bcd60e51b815260040161079c906129d6565b600054610100900460ff16158015611b6f576000805460ff1961ff0019909116610100171660011790555b611b77611f68565b611b7f611fdb565b8015610c4a576000805461ff001916905550565b33611b9c6111fc565b6001600160a01b031614610c4a5760405162461bcd60e51b815260040161079c90612a24565b6000611bcc612044565b9050611bd784612072565b600083511180611be45750815b15611bf557611bf3848461211e565b505b7f4910fdfa16fed3260ed0e7147f7cc6da11a60208b5b9406d12a635614ffd9143805460ff16611d0257805460ff19166001178155604051611c70908690611c419085906024016128fa565b60408051601f198184030181529190526020810180516001600160e01b0316631b2ce7f360e11b17905261211e565b50805460ff19168155611c81612044565b6001600160a01b0316826001600160a01b031614611cf95760405162461bcd60e51b815260206004820152602f60248201527f45524331393637557067726164653a207570677261646520627265616b73206660448201526e75727468657220757067726164657360881b606482015260840161079c565b611d0285612210565b5050505050565b60335460ff16611d2b5760405162461bcd60e51b815260040161079c9061297e565b6033805460ff191690557f5db9ee0a495bf2e6ff9c91a7834c1ba4fdd244a5e8aa4e537bd38aeae4b073aa335b604051611d6591906128fa565b60405180910390a1565b6000610aaf8284612ae4565b6000610aaf8284612ac4565b6000610aaf8284612b03565b6101005460fc54604051635f6ce21d60e11b8152611e2d926001600160a01b039081169263bed9c43a92611dd192909116908790879060040161290e565b602060405180830381600087803b158015611deb57600080fd5b505af1158015611dff573d6000803e3d6000fd5b505050506040513d601f19601f82011682018060405250810190611e239190612731565b6101065490611d87565b610106555050565b610a278363a9059cbb60e01b8484604051602401611e54929190612932565b60408051601f198184030181529190526020810180516001600160e01b03166001600160e01b031990931692909217909152612250565b6000610aaf8284612aac565b60c980546001600160a01b038381166001600160a01b0319831681179093556040519116919082907f8be0079c531659141344cd1fd0a4f28419497f9722a3daafe3b4186f6b6457e090600090a35050565b60335460ff1615611f0c5760405162461bcd60e51b815260040161079c906129ac565b6033805460ff191660011790557f62e78cea01bee320cd4e420270b5ea74000d11b0c9f74754ebdbfc544b05a258611d583390565b611f62846323b872dd60e01b858585604051602401611e549392919061290e565b50505050565b600054610100900460ff1680611f81575060005460ff16155b611f9d5760405162461bcd60e51b815260040161079c906129d6565b600054610100900460ff16158015611b7f576000805460ff1961ff0019909116610100171660011790558015610c4a576000805461ff001916905550565b600054610100900460ff1680611ff4575060005460ff16155b6120105760405162461bcd60e51b815260040161079c906129d6565b600054610100900460ff1615801561203b576000805460ff1961ff0019909116610100171660011790555b611b7f33611e97565b7f360894a13ba1a3210667c828492db98dca3e2076cc3735a920a3ca505d382bbc546001600160a01b031690565b61207b81612322565b6120dd5760405162461bcd60e51b815260206004820152602d60248201527f455243313936373a206e657720696d706c656d656e746174696f6e206973206e60448201526c1bdd08184818dbdb9d1c9858dd609a1b606482015260840161079c565b7f360894a13ba1a3210667c828492db98dca3e2076cc3735a920a3ca505d382bbc80546001600160a01b0319166001600160a01b0392909216919091179055565b606061212983612322565b6121845760405162461bcd60e51b815260206004820152602660248201527f416464726573733a2064656c65676174652063616c6c20746f206e6f6e2d636f6044820152651b9d1c9858dd60d21b606482015260840161079c565b600080846001600160a01b03168460405161219f91906128de565b600060405180830381855af49150503d80600081146121da576040519150601f19603f3d011682016040523d82523d6000602084013e6121df565b606091505b50915091506122078282604051806060016040528060278152602001612b886027913961232c565b95945050505050565b61221981612072565b6040516001600160a01b038216907fbc7cd75a20ee27fd9adebab32041f755214dbc6bffa90cc0225b39da2e5c2d3b90600090a250565b60006122a5826040518060400160405280602081526020017f5361666545524332303a206c6f772d6c6576656c2063616c6c206661696c6564815250856001600160a01b03166123659092919063ffffffff16565b805190915015610a2757808060200190518101906122c391906126ff565b610a275760405162461bcd60e51b815260206004820152602a60248201527f5361666545524332303a204552433230206f7065726174696f6e20646964206e6044820152691bdd081cdd58d8d9595960b21b606482015260840161079c565b803b15155b919050565b6060831561233b575081610aaf565b82511561234b5782518084602001fd5b8160405162461bcd60e51b815260040161079c919061294b565b6060612374848460008561237c565b949350505050565b6060824710156123dd5760405162461bcd60e51b815260206004820152602660248201527f416464726573733a20696e73756666696369656e742062616c616e636520666f6044820152651c8818d85b1b60d21b606482015260840161079c565b6123e685612322565b6124325760405162461bcd60e51b815260206004820152601d60248201527f416464726573733a2063616c6c20746f206e6f6e2d636f6e7472616374000000604482015260640161079c565b600080866001600160a01b0316858760405161244e91906128de565b60006040518083038185875af1925050503d806000811461248b576040519150601f19603f3d011682016040523d82523d6000602084013e612490565b606091505b50915091506124a082828661232c565b979650505050505050565b600082601f8301126124bb578081fd5b815160206124d06124cb83612a89565b612a59565b82815281810190858301838502870184018810156124ec578586fd5b855b8581101561251357815161250181612b72565b845292840192908401906001016124ee565b5090979650505050505050565b600082601f830112612530578081fd5b815160206125406124cb83612a89565b828152818101908583018385028701840188101561255c578586fd5b855b858110156125135781518452928401929084019060010161255e565b8051801515811461232757600080fd5b60006020828403121561259b578081fd5b8135610aaf81612b72565b600080604083850312156125b8578081fd5b82356125c381612b72565b91506020838101356001600160401b03808211156125df578384fd5b818601915086601f8301126125f2578384fd5b81358181111561260457612604612b5c565b612616601f8201601f19168501612a59565b9150808252878482850101111561262b578485fd5b8084840185840137810190920192909252919491935090915050565b600080600080600080600080610100898b031215612663578384fd5b883561266e81612b72565b9750602089013561267e81612b72565b9650604089013561268e81612b72565b9550606089013594506080890135935060a0890135925060c08901356126b381612b72565b915060e08901356126c381612b72565b809150509295985092959890939650565b600080604083850312156126e6578182fd5b82356126f181612b72565b946020939093013593505050565b600060208284031215612710578081fd5b610aaf8261257a565b60006020828403121561272a578081fd5b5035919050565b600060208284031215612742578081fd5b5051919050565b6000806040838503121561275b578182fd5b82359150602083013561276d81612b72565b809150509250929050565b6000806040838503121561278a578182fd5b50508035926020909101359150565b60008060008060008060008060008060006101608c8e0312156127ba578485fd5b8b519a5060208c0151995060408c0151985060608c015197506127df60808d0161257a565b965060a08c01516001600160401b038111156127f9578586fd5b6128058e828f016124ab565b96505060c08c01516001600160401b03811115612820578586fd5b61282c8e828f01612520565b95505060e08c01516001600160401b03811115612847578384fd5b6128538e828f01612520565b9450506101008c01516001600160401b0381111561286f578384fd5b61287b8e828f01612520565b9350506101208c01516001600160401b03811115612897578283fd5b6128a38e828f01612520565b9250506101408c01516001600160401b038111156128bf578182fd5b6128cb8e828f01612520565b9150509295989b509295989b9093969950565b600082516128f0818460208701612b1a565b9190910192915050565b6001600160a01b0391909116815260200190565b6001600160a01b039384168152919092166020820152604081019190915260600190565b6001600160a01b03929092168252602082015260400190565b600060208252825180602084015261296a816040850160208701612b1a565b601f01601f19169190910160400192915050565b60208082526014908201527314185d5cd8589b194e881b9bdd081c185d5cd95960621b604082015260600190565b60208082526010908201526f14185d5cd8589b194e881c185d5cd95960821b604082015260600190565b6020808252602e908201527f496e697469616c697a61626c653a20636f6e747261637420697320616c72656160408201526d191e481a5b9a5d1a585b1a5e995960921b606082015260800190565b6020808252818101527f4f776e61626c653a2063616c6c6572206973206e6f7420746865206f776e6572604082015260600190565b604051601f8201601f191681016001600160401b0381118282101715612a8157612a81612b5c565b604052919050565b60006001600160401b03821115612aa257612aa2612b5c565b5060209081020190565b60008219821115612abf57612abf612b46565b500190565b600082612adf57634e487b7160e01b81526012600452602481fd5b500490565b6000816000190483118215151615612afe57612afe612b46565b500290565b600082821015612b1557612b15612b46565b500390565b60005b83811015612b35578181015183820152602001612b1d565b83811115611f625750506000910152565b634e487b7160e01b600052601160045260246000fd5b634e487b7160e01b600052604160045260246000fd5b6001600160a01b0381168114610c4a57600080fdfe416464726573733a206c6f772d6c6576656c2064656c65676174652063616c6c206661696c6564a2646970667358221220b1ba50498668d97b5c9bed49b694d1d63895cd9c03db2b322c344a20ff95802564736f6c63430008020033",
  "linkReferences": {},
  "deployedLinkReferences": {}
}