{
  "_format": "hh-sol-artifact-1",
  "contractName": "PredictionWallet",
  "sourceName": "contracts/PredictionWallet.sol",
  "abi": [
    {
      "inputs": [
        {
          "internalType": "contract IBEP20",
          "name": "_pred",
          "type": "address"
        }
      ],
      "stateMutability": "nonpayable",
      "type": "constructor"
    },
    {
      "anonymous": false,
      "inputs": [
        {
          "indexed": true,
          "internalType": "bytes32",
          "name": "role",
          "type": "bytes32"
        },
        {
          "indexed": true,
          "internalType": "bytes32",
          "name": "previousAdminRole",
          "type": "bytes32"
        },
        {
          "indexed": true,
          "internalType": "bytes32",
          "name": "newAdminRole",
          "type": "bytes32"
        }
      ],
      "name": "RoleAdminChanged",
      "type": "event"
    },
    {
      "anonymous": false,
      "inputs": [
        {
          "indexed": true,
          "internalType": "bytes32",
          "name": "role",
          "type": "bytes32"
        },
        {
          "indexed": true,
          "internalType": "address",
          "name": "account",
          "type": "address"
        },
        {
          "indexed": true,
          "internalType": "address",
          "name": "sender",
          "type": "address"
        }
      ],
      "name": "RoleGranted",
      "type": "event"
    },
    {
      "anonymous": false,
      "inputs": [
        {
          "indexed": true,
          "internalType": "bytes32",
          "name": "role",
          "type": "bytes32"
        },
        {
          "indexed": true,
          "internalType": "address",
          "name": "account",
          "type": "address"
        },
        {
          "indexed": true,
          "internalType": "address",
          "name": "sender",
          "type": "address"
        }
      ],
      "name": "RoleRevoked",
      "type": "event"
    },
    {
      "inputs": [],
      "name": "DEFAULT_ADMIN_ROLE",
      "outputs": [
        {
          "internalType": "bytes32",
          "name": "",
          "type": "bytes32"
        }
      ],
      "stateMutability": "view",
      "type": "function"
    },
    {
      "inputs": [
        {
          "internalType": "bytes32",
          "name": "role",
          "type": "bytes32"
        }
      ],
      "name": "getRoleAdmin",
      "outputs": [
        {
          "internalType": "bytes32",
          "name": "",
          "type": "bytes32"
        }
      ],
      "stateMutability": "view",
      "type": "function"
    },
    {
      "inputs": [
        {
          "internalType": "bytes32",
          "name": "role",
          "type": "bytes32"
        },
        {
          "internalType": "address",
          "name": "account",
          "type": "address"
        }
      ],
      "name": "grantRole",
      "outputs": [],
      "stateMutability": "nonpayable",
      "type": "function"
    },
    {
      "inputs": [
        {
          "internalType": "bytes32",
          "name": "role",
          "type": "bytes32"
        },
        {
          "internalType": "address",
          "name": "account",
          "type": "address"
        }
      ],
      "name": "hasRole",
      "outputs": [
        {
          "internalType": "bool",
          "name": "",
          "type": "bool"
        }
      ],
      "stateMutability": "view",
      "type": "function"
    },
    {
      "inputs": [],
      "name": "pred",
      "outputs": [
        {
          "internalType": "contract IBEP20",
          "name": "",
          "type": "address"
        }
      ],
      "stateMutability": "view",
      "type": "function"
    },
    {
      "inputs": [
        {
          "internalType": "bytes32",
          "name": "role",
          "type": "bytes32"
        },
        {
          "internalType": "address",
          "name": "account",
          "type": "address"
        }
      ],
      "name": "renounceRole",
      "outputs": [],
      "stateMutability": "nonpayable",
      "type": "function"
    },
    {
      "inputs": [
        {
          "internalType": "bytes32",
          "name": "role",
          "type": "bytes32"
        },
        {
          "internalType": "address",
          "name": "account",
          "type": "address"
        }
      ],
      "name": "revokeRole",
      "outputs": [],
      "stateMutability": "nonpayable",
      "type": "function"
    },
    {
      "inputs": [
        {
          "internalType": "address",
          "name": "_to",
          "type": "address"
        },
        {
          "internalType": "uint256",
          "name": "_amount",
          "type": "uint256"
        }
      ],
      "name": "safeBNBTransfer",
      "outputs": [
        {
          "internalType": "uint256",
          "name": "",
          "type": "uint256"
        }
      ],
      "stateMutability": "nonpayable",
      "type": "function"
    },
    {
      "inputs": [
        {
          "internalType": "contract IBEP20",
          "name": "_token",
          "type": "address"
        },
        {
          "internalType": "address",
          "name": "_to",
          "type": "address"
        },
        {
          "internalType": "uint256",
          "name": "_amount",
          "type": "uint256"
        }
      ],
      "name": "safePredTransfer",
      "outputs": [
        {
          "internalType": "uint256",
          "name": "",
          "type": "uint256"
        }
      ],
      "stateMutability": "nonpayable",
      "type": "function"
    },
    {
      "inputs": [
        {
          "internalType": "address",
          "name": "_to",
          "type": "address"
        },
        {
          "internalType": "uint256",
          "name": "_amount",
          "type": "uint256"
        }
      ],
      "name": "safePredTransfer",
      "outputs": [
        {
          "internalType": "uint256",
          "name": "",
          "type": "uint256"
        }
      ],
      "stateMutability": "nonpayable",
      "type": "function"
    },
    {
      "inputs": [
        {
          "internalType": "bytes4",
          "name": "interfaceId",
          "type": "bytes4"
        }
      ],
      "name": "supportsInterface",
      "outputs": [
        {
          "internalType": "bool",
          "name": "",
          "type": "bool"
        }
      ],
      "stateMutability": "view",
      "type": "function"
    },
    {
      "stateMutability": "payable",
      "type": "receive"
    }
  ],
  "bytecode": "0x60806040523480156200001157600080fd5b506040516200127638038062001276833981016040819052620000349162000246565b60018055600280546001600160a01b0319166001600160a01b0383161790556200009f7f6c6f73657250726564696374696f6e506f6f6c000000000000000000000000007f6c6f73657250726564696374696f6e506f6f6c41646d696e00000000000000006200014b565b620000eb7f77696e6e657250726564696374696f6e506f6f6c0000000000000000000000007f77696e6e657250726564696374696f6e506f6f6c41646d696e000000000000006200014b565b620001187f6c6f73657250726564696374696f6e506f6f6c41646d696e0000000000000000335b62000196565b620001447f77696e6e657250726564696374696f6e506f6f6c41646d696e000000000000003362000112565b5062000276565b600082815260208190526040808220600101805490849055905190918391839186917fbd79b86ffe0ab8e8776151514217cd7cacd52c909f66475c3af44e129f0b00ff9190a4505050565b620001a28282620001a6565b5050565b6000828152602081815260408083206001600160a01b038516845290915290205460ff16620001a2576000828152602081815260408083206001600160a01b03851684529091529020805460ff19166001179055620002023390565b6001600160a01b0316816001600160a01b0316837f2f8788117e7eff1d82e926ec794901d17c78024a50270940304540a733656f0d60405160405180910390a45050565b60006020828403121562000258578081fd5b81516001600160a01b03811681146200026f578182fd5b9392505050565b610ff080620002866000396000f3fe6080604052600436106100a05760003560e01c806391d148541161006457806391d1485414610181578063a217fddf146101a1578063bed9c43a146101b6578063d547741f146101d6578063e5c9ad2e146101f6578063e6d41a8214610223576100a7565b806301ffc9a7146100ac578063248a9ca3146100e15780632f2ff15d1461011f57806336568abe146101415780635944b01714610161576100a7565b366100a757005b600080fd5b3480156100b857600080fd5b506100cc6100c7366004610d59565b610243565b60405190151581526020015b60405180910390f35b3480156100ed57600080fd5b506101116100fc366004610d12565b60009081526020819052604090206001015490565b6040519081526020016100d8565b34801561012b57600080fd5b5061013f61013a366004610d2a565b61027a565b005b34801561014d57600080fd5b5061013f61015c366004610d2a565b6102a6565b34801561016d57600080fd5b5061011161017c366004610cc7565b610329565b34801561018d57600080fd5b506100cc61019c366004610d2a565b61047c565b3480156101ad57600080fd5b50610111600081565b3480156101c257600080fd5b506101116101d1366004610d81565b6104a5565b3480156101e257600080fd5b5061013f6101f1366004610d2a565b6105ba565b34801561020257600080fd5b50600254610216906001600160a01b031681565b6040516100d89190610e64565b34801561022f57600080fd5b5061011161023e366004610cc7565b6105e0565b60006001600160e01b03198216637965db0b60e01b148061027457506301ffc9a760e01b6001600160e01b03198316145b92915050565b60008281526020819052604090206001015461029781335b6106f5565b6102a18383610759565b505050565b6001600160a01b038116331461031b5760405162461bcd60e51b815260206004820152602f60248201527f416363657373436f6e74726f6c3a2063616e206f6e6c792072656e6f756e636560448201526e103937b632b9903337b91039b2b63360891b60648201526084015b60405180910390fd5b61032582826107dd565b5050565b6000721b1bdcd95c941c99591a58dd1a5bdb941bdbdb606a1b61034c8133610292565b6002600154141561036f5760405162461bcd60e51b815260040161031290610ed7565b600260015547808411156103f8576000856001600160a01b03168260405160006040518083038185875af1925050503d80600081146103ca576040519150601f19603f3d011682016040523d82523d6000602084013e6103cf565b606091505b50509050806103f05760405162461bcd60e51b815260040161031290610eab565b509150610471565b6000856001600160a01b03168560405160006040518083038185875af1925050503d8060008114610445576040519150601f19603f3d011682016040523d82523d6000602084013e61044a565b606091505b505090508061046b5760405162461bcd60e51b815260040161031290610eab565b84935050505b506001805592915050565b6000918252602082815260408084206001600160a01b0393909316845291905290205460ff1690565b6000731dda5b9b995c941c99591a58dd1a5bdb941bdbdb60621b6104c98133610292565b600260015414156104ec5760405162461bcd60e51b815260040161031290610ed7565b60026001556040516370a0823160e01b81526000906001600160a01b038716906370a0823190610520903090600401610e64565b60206040518083038186803b15801561053857600080fd5b505afa15801561054c573d6000803e3d6000fd5b505050506040513d601f19601f820116820180604052508101906105709190610dc1565b9050808411156105955761058e6001600160a01b0387168683610842565b91506105ae565b6105a96001600160a01b0387168686610842565b839250505b50600180559392505050565b6000828152602081905260409020600101546105d68133610292565b6102a183836107dd565b6000731dda5b9b995c941c99591a58dd1a5bdb941bdbdb60621b6106048133610292565b600260015414156106275760405162461bcd60e51b815260040161031290610ed7565b60026001819055546040516370a0823160e01b81526000916001600160a01b0316906370a082319061065d903090600401610e64565b60206040518083038186803b15801561067557600080fd5b505afa158015610689573d6000803e3d6000fd5b505050506040513d601f19601f820116820180604052508101906106ad9190610dc1565b9050808411156106d5576002546106ce906001600160a01b03168683610842565b9150610471565b6002546106ec906001600160a01b03168686610842565b83925050610471565b6106ff828261047c565b61032557610717816001600160a01b03166014610894565b610722836020610894565b604051602001610733929190610df5565b60408051601f198184030181529082905262461bcd60e51b825261031291600401610e78565b610763828261047c565b610325576000828152602081815260408083206001600160a01b03851684529091529020805460ff191660011790556107993390565b6001600160a01b0316816001600160a01b0316837f2f8788117e7eff1d82e926ec794901d17c78024a50270940304540a733656f0d60405160405180910390a45050565b6107e7828261047c565b15610325576000828152602081815260408083206001600160a01b0385168085529252808320805460ff1916905551339285917ff6391f5c32d9c69d2a47ea670b442974b53935d1edc7fd64eb21e047a839171b9190a45050565b604080516001600160a01b038416602482015260448082018490528251808303909101815260649091019091526020810180516001600160e01b031663a9059cbb60e01b1790526102a1908490610a7d565b606060006108a3836002610f26565b6108ae906002610f0e565b67ffffffffffffffff8111156108d457634e487b7160e01b600052604160045260246000fd5b6040519080825280601f01601f1916602001820160405280156108fe576020820181803683370190505b509050600360fc1b8160008151811061092757634e487b7160e01b600052603260045260246000fd5b60200101906001600160f81b031916908160001a905350600f60fb1b8160018151811061096457634e487b7160e01b600052603260045260246000fd5b60200101906001600160f81b031916908160001a9053506000610988846002610f26565b610993906001610f0e565b90505b6001811115610a27576f181899199a1a9b1b9c1cb0b131b232b360811b85600f16601081106109d557634e487b7160e01b600052603260045260246000fd5b1a60f81b8282815181106109f957634e487b7160e01b600052603260045260246000fd5b60200101906001600160f81b031916908160001a90535060049490941c93610a2081610f75565b9050610996565b508315610a765760405162461bcd60e51b815260206004820181905260248201527f537472696e67733a20686578206c656e67746820696e73756666696369656e746044820152606401610312565b9392505050565b6000610ad2826040518060400160405280602081526020017f5361666545524332303a206c6f772d6c6576656c2063616c6c206661696c6564815250856001600160a01b0316610b4f9092919063ffffffff16565b8051909150156102a15780806020019051810190610af09190610cf2565b6102a15760405162461bcd60e51b815260206004820152602a60248201527f5361666545524332303a204552433230206f7065726174696f6e20646964206e6044820152691bdd081cdd58d8d9595960b21b6064820152608401610312565b6060610b5e8484600085610b66565b949350505050565b606082471015610bc75760405162461bcd60e51b815260206004820152602660248201527f416464726573733a20696e73756666696369656e742062616c616e636520666f6044820152651c8818d85b1b60d21b6064820152608401610312565b843b610c155760405162461bcd60e51b815260206004820152601d60248201527f416464726573733a2063616c6c20746f206e6f6e2d636f6e74726163740000006044820152606401610312565b600080866001600160a01b03168587604051610c319190610dd9565b60006040518083038185875af1925050503d8060008114610c6e576040519150601f19603f3d011682016040523d82523d6000602084013e610c73565b606091505b5091509150610c83828286610c8e565b979650505050505050565b60608315610c9d575081610a76565b825115610cad5782518084602001fd5b8160405162461bcd60e51b81526004016103129190610e78565b60008060408385031215610cd9578182fd5b8235610ce481610fa2565b946020939093013593505050565b600060208284031215610d03578081fd5b81518015158114610a76578182fd5b600060208284031215610d23578081fd5b5035919050565b60008060408385031215610d3c578182fd5b823591506020830135610d4e81610fa2565b809150509250929050565b600060208284031215610d6a578081fd5b81356001600160e01b031981168114610a76578182fd5b600080600060608486031215610d95578081fd5b8335610da081610fa2565b92506020840135610db081610fa2565b929592945050506040919091013590565b600060208284031215610dd2578081fd5b5051919050565b60008251610deb818460208701610f45565b9190910192915050565b600076020b1b1b2b9b9a1b7b73a3937b61d1030b1b1b7bab73a1604d1b82528351610e27816017850160208801610f45565b7001034b99036b4b9b9b4b733903937b6329607d1b6017918401918201528351610e58816028840160208801610f45565b01602801949350505050565b6001600160a01b0391909116815260200190565b6000602082528251806020840152610e97816040850160208701610f45565b601f01601f19169190910160400192915050565b6020808252601290820152713ab730b13632903a379039b2b7321021272160711b604082015260600190565b6020808252601f908201527f5265656e7472616e637947756172643a207265656e7472616e742063616c6c00604082015260600190565b60008219821115610f2157610f21610f8c565b500190565b6000816000190483118215151615610f4057610f40610f8c565b500290565b60005b83811015610f60578181015183820152602001610f48565b83811115610f6f576000848401525b50505050565b600081610f8457610f84610f8c565b506000190190565b634e487b7160e01b600052601160045260246000fd5b6001600160a01b0381168114610fb757600080fd5b5056fea26469706673582212201070ddd1f73beca58cf31d5f9727485a469ef8fdaf47b50b33adbfcfc530a5ed64736f6c63430008020033",
  "linkReferences": {},
  "deployedLinkReferences": {}
}